{
  "address": "0x82783b893E1aC557A7Bcbdd56cABEDeD11473366",
  "abi": [
    {
      "inputs": [],
      "name": "AccessControlBadConfirmation",
      "type": "error"
    },
    {
      "inputs": [
        {
          "internalType": "address",
          "name": "account",
          "type": "address"
        },
        {
          "internalType": "bytes32",
          "name": "neededRole",
          "type": "bytes32"
        }
      ],
      "name": "AccessControlUnauthorizedAccount",
      "type": "error"
    },
    {
      "inputs": [
        {
          "internalType": "address",
          "name": "target",
          "type": "address"
        }
      ],
      "name": "AddressEmptyCode",
      "type": "error"
    },
    {
      "inputs": [
        {
          "internalType": "address",
          "name": "account",
          "type": "address"
        }
      ],
      "name": "AddressInsufficientBalance",
      "type": "error"
    },
    {
      "inputs": [],
      "name": "AmountIsGreaterThanCollectedValor",
      "type": "error"
    },
    {
      "inputs": [],
      "name": "AmountIsZero",
      "type": "error"
    },
    {
      "inputs": [],
      "name": "BatchIsNotCreatedYet",
      "type": "error"
    },
    {
      "inputs": [],
      "name": "BatchIsNotFinished",
      "type": "error"
    },
    {
      "inputs": [],
      "name": "BatchValorToUsdcRateIsNotFixed",
      "type": "error"
    },
    {
      "inputs": [],
      "name": "CannotUpdateRoot",
      "type": "error"
    },
    {
      "inputs": [
        {
          "internalType": "uint256",
          "name": "amountEsorderDeposited",
          "type": "uint256"
        },
        {
          "internalType": "uint256",
          "name": "amountEsorderRequested",
          "type": "uint256"
        }
      ],
      "name": "DepositNotEnough",
      "type": "error"
    },
    {
      "inputs": [],
      "name": "DistributionAlreadyExists",
      "type": "error"
    },
    {
      "inputs": [],
      "name": "DistributionNotFound",
      "type": "error"
    },
    {
      "inputs": [],
      "name": "ECDSAInvalidSignature",
      "type": "error"
    },
    {
      "inputs": [
        {
          "internalType": "uint256",
          "name": "length",
          "type": "uint256"
        }
      ],
      "name": "ECDSAInvalidSignatureLength",
      "type": "error"
    },
    {
      "inputs": [
        {
          "internalType": "bytes32",
          "name": "s",
          "type": "bytes32"
        }
      ],
      "name": "ECDSAInvalidSignatureS",
      "type": "error"
    },
    {
      "inputs": [
        {
          "internalType": "address",
          "name": "implementation",
          "type": "address"
        }
      ],
      "name": "ERC1967InvalidImplementation",
      "type": "error"
    },
    {
      "inputs": [],
      "name": "ERC1967NonPayable",
      "type": "error"
    },
    {
      "inputs": [],
      "name": "EnforcedPause",
      "type": "error"
    },
    {
      "inputs": [],
      "name": "ExpectedPause",
      "type": "error"
    },
    {
      "inputs": [],
      "name": "FailedInnerCall",
      "type": "error"
    },
    {
      "inputs": [],
      "name": "InvalidInitialization",
      "type": "error"
    },
    {
      "inputs": [],
      "name": "InvalidMerkleProof",
      "type": "error"
    },
    {
      "inputs": [],
      "name": "InvalidSignature",
      "type": "error"
    },
    {
      "inputs": [],
      "name": "NoActiveMerkleRoot",
      "type": "error"
    },
    {
      "inputs": [],
      "name": "NoPendingUnstakeRequest",
      "type": "error"
    },
    {
      "inputs": [],
      "name": "NotInitializing",
      "type": "error"
    },
    {
      "inputs": [
        {
          "internalType": "address",
          "name": "user",
          "type": "address"
        },
        {
          "internalType": "uint256",
          "name": "chainId",
          "type": "uint256"
        }
      ],
      "name": "NothingToClaim",
      "type": "error"
    },
    {
      "inputs": [],
      "name": "ProposedMerkleRootIsZero",
      "type": "error"
    },
    {
      "inputs": [],
      "name": "RedemptionAmountIsZero",
      "type": "error"
    },
    {
      "inputs": [],
      "name": "ReentrancyGuardReentrantCall",
      "type": "error"
    },
    {
      "inputs": [
        {
          "internalType": "address",
          "name": "token",
          "type": "address"
        }
      ],
      "name": "SafeERC20FailedOperation",
      "type": "error"
    },
    {
      "inputs": [
        {
          "internalType": "enum LedgerToken",
          "name": "token",
          "type": "uint8"
        }
      ],
      "name": "StakingBalanceInsufficient",
      "type": "error"
    },
    {
      "inputs": [],
      "name": "StartTimestampIsInThePast",
      "type": "error"
    },
    {
      "inputs": [],
      "name": "ThisMerkleRootIsAlreadyProposed",
      "type": "error"
    },
    {
      "inputs": [],
      "name": "TokenIsNotSupportedForDistribution",
      "type": "error"
    },
    {
      "inputs": [],
      "name": "TooEarlyUsdcNetFeeRevenueUpdate",
      "type": "error"
    },
    {
      "inputs": [],
      "name": "UUPSUnauthorizedCallContext",
      "type": "error"
    },
    {
      "inputs": [
        {
          "internalType": "bytes32",
          "name": "slot",
          "type": "bytes32"
        }
      ],
      "name": "UUPSUnsupportedProxiableUUID",
      "type": "error"
    },
    {
      "inputs": [],
      "name": "UnlockTimeNotPassedYet",
      "type": "error"
    },
    {
      "inputs": [],
      "name": "UnsupportedPayloadType",
      "type": "error"
    },
    {
      "inputs": [],
      "name": "UnsupportedToken",
      "type": "error"
    },
    {
      "inputs": [
        {
          "internalType": "address",
          "name": "_user",
          "type": "address"
        },
        {
          "internalType": "uint256",
          "name": "_requestId",
          "type": "uint256"
        }
      ],
      "name": "UserDontHaveVestingRequest",
      "type": "error"
    },
    {
      "inputs": [],
      "name": "ValorPerSecondExceedsMaxValue",
      "type": "error"
    },
    {
      "inputs": [],
      "name": "VestingAmountIsZero",
      "type": "error"
    },
    {
      "inputs": [],
      "name": "VestingLinearPeriodIsZero",
      "type": "error"
    },
    {
      "inputs": [],
      "name": "VestingLockPeriodIsZero",
      "type": "error"
    },
    {
      "inputs": [],
      "name": "VestingLockPeriodNotPassed",
      "type": "error"
    },
    {
      "inputs": [],
      "name": "VestingPeriodIsOutOfRange",
      "type": "error"
    },
    {
      "anonymous": false,
      "inputs": [
        {
          "indexed": true,
          "internalType": "uint16",
          "name": "batchId",
          "type": "uint16"
        }
      ],
      "name": "BatchPreparedToClaim",
      "type": "event"
    },
    {
      "anonymous": false,
      "inputs": [
        {
          "indexed": true,
          "internalType": "uint16",
          "name": "batchId",
          "type": "uint16"
        },
        {
          "indexed": false,
          "internalType": "uint256",
          "name": "fixedValorToUsdcRate",
          "type": "uint256"
        }
      ],
      "name": "BatchValorToUsdcRateIsFixed",
      "type": "event"
    },
    {
      "anonymous": false,
      "inputs": [
        {
          "indexed": true,
          "internalType": "uint256",
          "name": "timestamp",
          "type": "uint256"
        },
        {
          "indexed": false,
          "internalType": "uint256",
          "name": "usdcNetFeeRevenue",
          "type": "uint256"
        },
        {
          "indexed": false,
          "internalType": "uint256",
          "name": "totalUsdcInTreasure",
          "type": "uint256"
        },
        {
          "indexed": false,
          "internalType": "uint256",
          "name": "totalValorAmount",
          "type": "uint256"
        },
        {
          "indexed": false,
          "internalType": "uint256",
          "name": "valorToUsdcRateScaled",
          "type": "uint256"
        }
      ],
      "name": "DailyUsdcNetFeeRevenueUpdated",
      "type": "event"
    },
    {
      "anonymous": false,
      "inputs": [
        {
          "indexed": true,
          "internalType": "uint256",
          "name": "eventId",
          "type": "uint256"
        },
        {
          "indexed": true,
          "internalType": "uint32",
          "name": "distributionId",
          "type": "uint32"
        },
        {
          "indexed": false,
          "internalType": "enum LedgerToken",
          "name": "token",
          "type": "uint8"
        },
        {
          "indexed": false,
          "internalType": "bytes32",
          "name": "merkleRoot",
          "type": "bytes32"
        },
        {
          "indexed": false,
          "internalType": "uint256",
          "name": "startTimestamp",
          "type": "uint256"
        },
        {
          "indexed": false,
          "internalType": "bytes",
          "name": "ipfsCid",
          "type": "bytes"
        }
      ],
      "name": "DistributionCreated",
      "type": "event"
    },
    {
      "anonymous": false,
      "inputs": [
        {
          "indexed": true,
          "internalType": "uint256",
          "name": "chainedEventId",
          "type": "uint256"
        },
        {
          "indexed": true,
          "internalType": "uint256",
          "name": "chainId",
          "type": "uint256"
        },
        {
          "indexed": true,
          "internalType": "address",
          "name": "staker",
          "type": "address"
        },
        {
          "indexed": false,
          "internalType": "uint256",
          "name": "amount",
          "type": "uint256"
        }
      ],
      "name": "EsOrderUnstake",
      "type": "event"
    },
    {
      "anonymous": false,
      "inputs": [
        {
          "indexed": false,
          "internalType": "uint64",
          "name": "version",
          "type": "uint64"
        }
      ],
      "name": "Initialized",
      "type": "event"
    },
    {
      "anonymous": false,
      "inputs": [
        {
          "indexed": true,
          "internalType": "address",
          "name": "staker",
          "type": "address"
        },
        {
          "indexed": false,
          "internalType": "uint256",
          "name": "totalUnstakedAmount",
          "type": "uint256"
        },
        {
          "indexed": false,
          "internalType": "uint256",
          "name": "unlockTimestamp",
          "type": "uint256"
        }
      ],
      "name": "OrderUnstakeAmount",
      "type": "event"
    },
    {
      "anonymous": false,
      "inputs": [
        {
          "indexed": true,
          "internalType": "uint256",
          "name": "chainedEventId",
          "type": "uint256"
        },
        {
          "indexed": true,
          "internalType": "uint256",
          "name": "chainId",
          "type": "uint256"
        },
        {
          "indexed": true,
          "internalType": "address",
          "name": "staker",
          "type": "address"
        },
        {
          "indexed": false,
          "internalType": "uint256",
          "name": "pendingOrderAmount",
          "type": "uint256"
        }
      ],
      "name": "OrderUnstakeCancelled",
      "type": "event"
    },
    {
      "anonymous": false,
      "inputs": [
        {
          "indexed": true,
          "internalType": "uint256",
          "name": "chainedEventId",
          "type": "uint256"
        },
        {
          "indexed": true,
          "internalType": "uint256",
          "name": "chainId",
          "type": "uint256"
        },
        {
          "indexed": true,
          "internalType": "address",
          "name": "staker",
          "type": "address"
        },
        {
          "indexed": false,
          "internalType": "uint256",
          "name": "amount",
          "type": "uint256"
        }
      ],
      "name": "OrderUnstakeRequested",
      "type": "event"
    },
    {
      "anonymous": false,
      "inputs": [
        {
          "indexed": true,
          "internalType": "uint256",
          "name": "chainedEventId",
          "type": "uint256"
        },
        {
          "indexed": true,
          "internalType": "uint256",
          "name": "chainId",
          "type": "uint256"
        },
        {
          "indexed": true,
          "internalType": "address",
          "name": "staker",
          "type": "address"
        },
        {
          "indexed": false,
          "internalType": "uint256",
          "name": "amount",
          "type": "uint256"
        }
      ],
      "name": "OrderWithdrawn",
      "type": "event"
    },
    {
      "anonymous": false,
      "inputs": [
        {
          "indexed": false,
          "internalType": "address",
          "name": "account",
          "type": "address"
        }
      ],
      "name": "Paused",
      "type": "event"
    },
    {
      "anonymous": false,
      "inputs": [
        {
          "indexed": true,
          "internalType": "uint256",
          "name": "chainedEventId",
          "type": "uint256"
        },
        {
          "indexed": true,
          "internalType": "uint256",
          "name": "chainId",
          "type": "uint256"
        },
        {
          "indexed": true,
          "internalType": "uint32",
          "name": "distributionId",
          "type": "uint32"
        },
        {
          "indexed": false,
          "internalType": "address",
          "name": "account",
          "type": "address"
        },
        {
          "indexed": false,
          "internalType": "uint256",
          "name": "amount",
          "type": "uint256"
        },
        {
          "indexed": false,
          "internalType": "enum LedgerToken",
          "name": "token",
          "type": "uint8"
        }
      ],
      "name": "RewardsClaimed",
      "type": "event"
    },
    {
      "anonymous": false,
      "inputs": [
        {
          "indexed": true,
          "internalType": "bytes32",
          "name": "role",
          "type": "bytes32"
        },
        {
          "indexed": true,
          "internalType": "bytes32",
          "name": "previousAdminRole",
          "type": "bytes32"
        },
        {
          "indexed": true,
          "internalType": "bytes32",
          "name": "newAdminRole",
          "type": "bytes32"
        }
      ],
      "name": "RoleAdminChanged",
      "type": "event"
    },
    {
      "anonymous": false,
      "inputs": [
        {
          "indexed": true,
          "internalType": "bytes32",
          "name": "role",
          "type": "bytes32"
        },
        {
          "indexed": true,
          "internalType": "address",
          "name": "account",
          "type": "address"
        },
        {
          "indexed": true,
          "internalType": "address",
          "name": "sender",
          "type": "address"
        }
      ],
      "name": "RoleGranted",
      "type": "event"
    },
    {
      "anonymous": false,
      "inputs": [
        {
          "indexed": true,
          "internalType": "bytes32",
          "name": "role",
          "type": "bytes32"
        },
        {
          "indexed": true,
          "internalType": "address",
          "name": "account",
          "type": "address"
        },
        {
          "indexed": true,
          "internalType": "address",
          "name": "sender",
          "type": "address"
        }
      ],
      "name": "RoleRevoked",
      "type": "event"
    },
    {
      "anonymous": false,
      "inputs": [
        {
          "indexed": true,
          "internalType": "uint256",
          "name": "eventId",
          "type": "uint256"
        },
        {
          "indexed": true,
          "internalType": "uint32",
          "name": "distributionId",
          "type": "uint32"
        },
        {
          "indexed": false,
          "internalType": "bytes32",
          "name": "merkleRoot",
          "type": "bytes32"
        },
        {
          "indexed": false,
          "internalType": "uint256",
          "name": "startTimestamp",
          "type": "uint256"
        },
        {
          "indexed": false,
          "internalType": "bytes",
          "name": "ipfsCid",
          "type": "bytes"
        }
      ],
      "name": "RootProposed",
      "type": "event"
    },
    {
      "anonymous": false,
      "inputs": [
        {
          "indexed": true,
          "internalType": "uint256",
          "name": "eventId",
          "type": "uint256"
        },
        {
          "indexed": true,
          "internalType": "uint32",
          "name": "distributionId",
          "type": "uint32"
        },
        {
          "indexed": false,
          "internalType": "bytes32",
          "name": "merkleRoot",
          "type": "bytes32"
        },
        {
          "indexed": false,
          "internalType": "uint256",
          "name": "startTimestamp",
          "type": "uint256"
        },
        {
          "indexed": false,
          "internalType": "bytes",
          "name": "ipfsCid",
          "type": "bytes"
        }
      ],
      "name": "RootUpdated",
      "type": "event"
    },
    {
      "anonymous": false,
      "inputs": [
        {
          "indexed": true,
          "internalType": "uint256",
          "name": "chainedEventId",
          "type": "uint256"
        },
        {
          "indexed": true,
          "internalType": "uint256",
          "name": "chainId",
          "type": "uint256"
        },
        {
          "indexed": true,
          "internalType": "address",
          "name": "staker",
          "type": "address"
        },
        {
          "indexed": false,
          "internalType": "uint256",
          "name": "amount",
          "type": "uint256"
        },
        {
          "indexed": false,
          "internalType": "enum LedgerToken",
          "name": "token",
          "type": "uint8"
        }
      ],
      "name": "Staked",
      "type": "event"
    },
    {
      "anonymous": false,
      "inputs": [
        {
          "indexed": false,
          "internalType": "uint256",
          "name": "totalUsdcInTreasure",
          "type": "uint256"
        },
        {
          "indexed": false,
          "internalType": "uint256",
          "name": "totalValorAmount",
          "type": "uint256"
        },
        {
          "indexed": false,
          "internalType": "uint256",
          "name": "valorToUsdcRateScaled",
          "type": "uint256"
        }
      ],
      "name": "TotalUsdcInTreasureUpdated",
      "type": "event"
    },
    {
      "anonymous": false,
      "inputs": [
        {
          "indexed": false,
          "internalType": "address",
          "name": "account",
          "type": "address"
        }
      ],
      "name": "Unpaused",
      "type": "event"
    },
    {
      "anonymous": false,
      "inputs": [
        {
          "indexed": true,
          "internalType": "address",
          "name": "implementation",
          "type": "address"
        }
      ],
      "name": "Upgraded",
      "type": "event"
    },
    {
      "anonymous": false,
      "inputs": [
        {
          "indexed": true,
          "internalType": "uint256",
          "name": "chainEventId",
          "type": "uint256"
        },
        {
          "indexed": true,
          "internalType": "uint256",
          "name": "chainId",
          "type": "uint256"
        },
        {
          "indexed": true,
          "internalType": "address",
          "name": "user",
          "type": "address"
        },
        {
          "indexed": false,
          "internalType": "uint256",
          "name": "usdcAmount",
          "type": "uint256"
        }
      ],
      "name": "UsdcRevenueClaimed",
      "type": "event"
    },
    {
      "anonymous": false,
      "inputs": [
        {
          "indexed": true,
          "internalType": "uint256",
          "name": "chainEventId",
          "type": "uint256"
        },
        {
          "indexed": true,
          "internalType": "uint256",
          "name": "chainId",
          "type": "uint256"
        },
        {
          "indexed": true,
          "internalType": "address",
          "name": "user",
          "type": "address"
        },
        {
          "indexed": false,
          "internalType": "uint16",
          "name": "batchId",
          "type": "uint16"
        },
        {
          "indexed": false,
          "internalType": "uint256",
          "name": "valorAmount",
          "type": "uint256"
        }
      ],
      "name": "ValorRedeemed",
      "type": "event"
    },
    {
      "anonymous": false,
      "inputs": [
        {
          "indexed": true,
          "internalType": "uint256",
          "name": "chainEventId",
          "type": "uint256"
        },
        {
          "indexed": true,
          "internalType": "uint256",
          "name": "chainId",
          "type": "uint256"
        },
        {
          "indexed": true,
          "internalType": "address",
          "name": "user",
          "type": "address"
        },
        {
          "indexed": false,
          "internalType": "uint256",
          "name": "requestId",
          "type": "uint256"
        },
        {
          "indexed": false,
          "internalType": "uint256",
          "name": "amountEsorderStakedBack",
          "type": "uint256"
        }
      ],
      "name": "VestingCanceled",
      "type": "event"
    },
    {
      "anonymous": false,
      "inputs": [
        {
          "indexed": true,
          "internalType": "uint256",
          "name": "chainEventId",
          "type": "uint256"
        },
        {
          "indexed": true,
          "internalType": "uint256",
          "name": "chainId",
          "type": "uint256"
        },
        {
          "indexed": true,
          "internalType": "address",
          "name": "user",
          "type": "address"
        },
        {
          "indexed": false,
          "internalType": "uint256",
          "name": "requestId",
          "type": "uint256"
        },
        {
          "indexed": false,
          "internalType": "uint256",
          "name": "amountEsorderBurned",
          "type": "uint256"
        },
        {
          "indexed": false,
          "internalType": "uint256",
          "name": "amountOrderVested",
          "type": "uint256"
        },
        {
          "indexed": false,
          "internalType": "uint256",
          "name": "vestedPeriod",
          "type": "uint256"
        }
      ],
      "name": "VestingClaimed",
      "type": "event"
    },
    {
      "anonymous": false,
      "inputs": [
        {
          "indexed": true,
          "internalType": "uint256",
          "name": "chainEventId",
          "type": "uint256"
        },
        {
          "indexed": true,
          "internalType": "uint256",
          "name": "chainId",
          "type": "uint256"
        },
        {
          "indexed": true,
          "internalType": "address",
          "name": "user",
          "type": "address"
        },
        {
          "indexed": false,
          "internalType": "uint256",
          "name": "requestId",
          "type": "uint256"
        },
        {
          "indexed": false,
          "internalType": "uint256",
          "name": "amountEsorderRequested",
          "type": "uint256"
        },
        {
          "indexed": false,
          "internalType": "uint256",
          "name": "unlockTimestamp",
          "type": "uint256"
        }
      ],
      "name": "VestingRequested",
      "type": "event"
    },
    {
      "inputs": [],
      "name": "DEFAULT_ADMIN_ROLE",
      "outputs": [
        {
          "internalType": "bytes32",
          "name": "",
          "type": "bytes32"
        }
      ],
      "stateMutability": "view",
      "type": "function"
    },
    {
      "inputs": [],
      "name": "ROOT_UPDATER_ROLE",
      "outputs": [
        {
          "internalType": "bytes32",
          "name": "",
          "type": "bytes32"
        }
      ],
      "stateMutability": "view",
      "type": "function"
    },
    {
      "inputs": [],
      "name": "TREASURE_UPDATER_ROLE",
      "outputs": [
        {
          "internalType": "bytes32",
          "name": "",
          "type": "bytes32"
        }
      ],
      "stateMutability": "view",
      "type": "function"
    },
    {
      "inputs": [],
      "name": "UPGRADE_INTERFACE_VERSION",
      "outputs": [
        {
          "internalType": "string",
          "name": "",
          "type": "string"
        }
      ],
      "stateMutability": "view",
      "type": "function"
    },
    {
      "inputs": [],
      "name": "VALOR_TO_USDC_RATE_PRECISION",
      "outputs": [
        {
          "internalType": "uint256",
          "name": "",
          "type": "uint256"
        }
      ],
      "stateMutability": "view",
      "type": "function"
    },
    {
      "inputs": [],
      "name": "VERSION",
      "outputs": [
        {
          "internalType": "string",
          "name": "",
          "type": "string"
        }
      ],
      "stateMutability": "pure",
      "type": "function"
    },
    {
      "inputs": [],
      "name": "accValorPerShareScaled",
      "outputs": [
        {
          "internalType": "uint256",
          "name": "",
          "type": "uint256"
        }
      ],
      "stateMutability": "view",
      "type": "function"
    },
    {
      "inputs": [],
      "name": "batchDuration",
      "outputs": [
        {
          "internalType": "uint256",
          "name": "",
          "type": "uint256"
        }
      ],
      "stateMutability": "view",
      "type": "function"
    },
    {
      "inputs": [
        {
          "internalType": "uint16",
          "name": "_batchId",
          "type": "uint16"
        }
      ],
      "name": "batchPreparedToClaim",
      "outputs": [],
      "stateMutability": "nonpayable",
      "type": "function"
    },
    {
      "inputs": [],
      "name": "batchStartTimestamp",
      "outputs": [
        {
          "internalType": "uint256",
          "name": "",
          "type": "uint256"
        }
      ],
      "stateMutability": "view",
      "type": "function"
    },
    {
      "inputs": [
        {
          "internalType": "uint256",
          "name": "",
          "type": "uint256"
        }
      ],
      "name": "batches",
      "outputs": [
        {
          "internalType": "bool",
          "name": "claimable",
          "type": "bool"
        },
        {
          "internalType": "uint256",
          "name": "redeemedValorAmount",
          "type": "uint256"
        },
        {
          "internalType": "uint256",
          "name": "fixedValorToUsdcRateScaled",
          "type": "uint256"
        }
      ],
      "stateMutability": "view",
      "type": "function"
    },
    {
      "inputs": [
        {
          "internalType": "address",
          "name": "_user",
          "type": "address"
        },
        {
          "internalType": "uint256",
          "name": "_requestId",
          "type": "uint256"
        }
      ],
      "name": "calculateVestingOrderAmount",
      "outputs": [
        {
          "internalType": "uint256",
          "name": "",
          "type": "uint256"
        }
      ],
      "stateMutability": "view",
      "type": "function"
    },
    {
      "inputs": [
        {
          "internalType": "uint32",
          "name": "_distributionId",
          "type": "uint32"
        }
      ],
      "name": "canUpdateRoot",
      "outputs": [
        {
          "internalType": "bool",
          "name": "",
          "type": "bool"
        }
      ],
      "stateMutability": "view",
      "type": "function"
    },
    {
      "inputs": [
        {
          "internalType": "address",
          "name": "",
          "type": "address"
        }
      ],
      "name": "collectedValor",
      "outputs": [
        {
          "internalType": "uint256",
          "name": "",
          "type": "uint256"
        }
      ],
      "stateMutability": "view",
      "type": "function"
    },
    {
      "inputs": [
        {
          "internalType": "uint32",
          "name": "_distributionId",
          "type": "uint32"
        },
        {
          "internalType": "enum LedgerToken",
          "name": "_token",
          "type": "uint8"
        },
        {
          "internalType": "bytes32",
          "name": "_merkleRoot",
          "type": "bytes32"
        },
        {
          "internalType": "uint256",
          "name": "_startTimestamp",
          "type": "uint256"
        },
        {
          "internalType": "bytes",
          "name": "_ipfsCid",
          "type": "bytes"
        }
      ],
      "name": "createDistribution",
      "outputs": [],
      "stateMutability": "nonpayable",
      "type": "function"
    },
    {
      "inputs": [
        {
          "components": [
            {
              "internalType": "bytes32",
              "name": "r",
              "type": "bytes32"
            },
            {
              "internalType": "bytes32",
              "name": "s",
              "type": "bytes32"
            },
            {
              "internalType": "uint8",
              "name": "v",
              "type": "uint8"
            },
            {
              "internalType": "uint256",
              "name": "value",
              "type": "uint256"
            }
          ],
          "internalType": "struct LedgerSignedTypes.UintValueData",
          "name": "data",
          "type": "tuple"
        }
      ],
      "name": "dailyUsdcNetFeeRevenue",
      "outputs": [],
      "stateMutability": "nonpayable",
      "type": "function"
    },
    {
      "inputs": [
        {
          "internalType": "uint16",
          "name": "_batchId",
          "type": "uint16"
        }
      ],
      "name": "fixBatchValorToUsdcRate",
      "outputs": [
        {
          "internalType": "uint256",
          "name": "",
          "type": "uint256"
        }
      ],
      "stateMutability": "nonpayable",
      "type": "function"
    },
    {
      "inputs": [
        {
          "internalType": "uint16",
          "name": "_batchId",
          "type": "uint16"
        }
      ],
      "name": "getBatchChainedValorAmount",
      "outputs": [
        {
          "components": [
            {
              "internalType": "uint256",
              "name": "chainId",
              "type": "uint256"
            },
            {
              "internalType": "uint256",
              "name": "amount",
              "type": "uint256"
            }
          ],
          "internalType": "struct Revenue.ChainedAmount[]",
          "name": "",
          "type": "tuple[]"
        }
      ],
      "stateMutability": "view",
      "type": "function"
    },
    {
      "inputs": [
        {
          "internalType": "uint16",
          "name": "_batchId",
          "type": "uint16"
        }
      ],
      "name": "getBatchInfo",
      "outputs": [
        {
          "internalType": "uint256",
          "name": "batchStartTime",
          "type": "uint256"
        },
        {
          "internalType": "uint256",
          "name": "batchEndTime",
          "type": "uint256"
        },
        {
          "internalType": "bool",
          "name": "claimable",
          "type": "bool"
        },
        {
          "internalType": "uint256",
          "name": "redeemedValorAmount",
          "type": "uint256"
        },
        {
          "internalType": "uint256",
          "name": "fixedValorToUsdcRateScaled",
          "type": "uint256"
        }
      ],
      "stateMutability": "view",
      "type": "function"
    },
    {
      "inputs": [
        {
          "internalType": "uint32",
          "name": "_distributionId",
          "type": "uint32"
        },
        {
          "internalType": "address",
          "name": "_user",
          "type": "address"
        }
      ],
      "name": "getClaimed",
      "outputs": [
        {
          "internalType": "uint256",
          "name": "",
          "type": "uint256"
        }
      ],
      "stateMutability": "view",
      "type": "function"
    },
    {
      "inputs": [],
      "name": "getCurrentBatchId",
      "outputs": [
        {
          "internalType": "uint16",
          "name": "",
          "type": "uint16"
        }
      ],
      "stateMutability": "view",
      "type": "function"
    },
    {
      "inputs": [
        {
          "internalType": "uint32",
          "name": "_distributionId",
          "type": "uint32"
        }
      ],
      "name": "getDistribution",
      "outputs": [
        {
          "internalType": "enum LedgerToken",
          "name": "token",
          "type": "uint8"
        },
        {
          "internalType": "bytes32",
          "name": "merkleRoot",
          "type": "bytes32"
        },
        {
          "internalType": "uint256",
          "name": "startTimestamp",
          "type": "uint256"
        },
        {
          "internalType": "bytes",
          "name": "ipfsCid",
          "type": "bytes"
        }
      ],
      "stateMutability": "view",
      "type": "function"
    },
    {
      "inputs": [
        {
          "internalType": "address",
          "name": "_user",
          "type": "address"
        }
      ],
      "name": "getOrderAvailableToWithdraw",
      "outputs": [
        {
          "internalType": "uint256",
          "name": "orderAmount",
          "type": "uint256"
        }
      ],
      "stateMutability": "view",
      "type": "function"
    },
    {
      "inputs": [
        {
          "internalType": "uint32",
          "name": "_distributionId",
          "type": "uint32"
        }
      ],
      "name": "getProposedRoot",
      "outputs": [
        {
          "internalType": "bytes32",
          "name": "merkleRoot",
          "type": "bytes32"
        },
        {
          "internalType": "uint256",
          "name": "startTimestamp",
          "type": "uint256"
        },
        {
          "internalType": "bytes",
          "name": "ipfsCid",
          "type": "bytes"
        }
      ],
      "stateMutability": "view",
      "type": "function"
    },
    {
      "inputs": [
        {
          "internalType": "bytes32",
          "name": "role",
          "type": "bytes32"
        }
      ],
      "name": "getRoleAdmin",
      "outputs": [
        {
          "internalType": "bytes32",
          "name": "",
          "type": "bytes32"
        }
      ],
      "stateMutability": "view",
      "type": "function"
    },
    {
      "inputs": [
        {
          "internalType": "address",
          "name": "_user",
          "type": "address"
        }
      ],
      "name": "getStakingInfo",
      "outputs": [
        {
          "internalType": "uint256",
          "name": "orderBalance",
          "type": "uint256"
        },
        {
          "internalType": "uint256",
          "name": "esOrderBalance",
          "type": "uint256"
        }
      ],
      "stateMutability": "view",
      "type": "function"
    },
    {
      "inputs": [
        {
          "internalType": "uint16",
          "name": "_batchId",
          "type": "uint16"
        }
      ],
      "name": "getUsdcAmountForBatch",
      "outputs": [
        {
          "components": [
            {
              "internalType": "uint256",
              "name": "chainId",
              "type": "uint256"
            },
            {
              "internalType": "uint256",
              "name": "amount",
              "type": "uint256"
            }
          ],
          "internalType": "struct Revenue.ChainedAmount[]",
          "name": "chainedUsdcAmount",
          "type": "tuple[]"
        }
      ],
      "stateMutability": "view",
      "type": "function"
    },
    {
      "inputs": [
        {
          "internalType": "address",
          "name": "_user",
          "type": "address"
        },
        {
          "internalType": "uint16",
          "name": "_batchId",
          "type": "uint16"
        },
        {
          "internalType": "uint256",
          "name": "_chainId",
          "type": "uint256"
        }
      ],
      "name": "getUserRedeemedValorAmountForBatchAndChain",
      "outputs": [
        {
          "internalType": "uint256",
          "name": "",
          "type": "uint256"
        }
      ],
      "stateMutability": "view",
      "type": "function"
    },
    {
      "inputs": [
        {
          "internalType": "address",
          "name": "_user",
          "type": "address"
        }
      ],
      "name": "getUserValor",
      "outputs": [
        {
          "internalType": "uint256",
          "name": "",
          "type": "uint256"
        }
      ],
      "stateMutability": "view",
      "type": "function"
    },
    {
      "inputs": [
        {
          "internalType": "address",
          "name": "_user",
          "type": "address"
        }
      ],
      "name": "getUserVestingRequests",
      "outputs": [
        {
          "components": [
            {
              "internalType": "uint256",
              "name": "requestId",
              "type": "uint256"
            },
            {
              "internalType": "uint256",
              "name": "esOrderAmount",
              "type": "uint256"
            },
            {
              "internalType": "uint256",
              "name": "unlockTimestamp",
              "type": "uint256"
            }
          ],
          "internalType": "struct Vesting.VestingRequest[]",
          "name": "",
          "type": "tuple[]"
        }
      ],
      "stateMutability": "view",
      "type": "function"
    },
    {
      "inputs": [
        {
          "internalType": "bytes32",
          "name": "role",
          "type": "bytes32"
        },
        {
          "internalType": "address",
          "name": "account",
          "type": "address"
        }
      ],
      "name": "grantRole",
      "outputs": [],
      "stateMutability": "nonpayable",
      "type": "function"
    },
    {
      "inputs": [
        {
          "internalType": "uint32",
          "name": "_distributionId",
          "type": "uint32"
        }
      ],
      "name": "hasPendingRoot",
      "outputs": [
        {
          "internalType": "bool",
          "name": "",
          "type": "bool"
        }
      ],
      "stateMutability": "view",
      "type": "function"
    },
    {
      "inputs": [
        {
          "internalType": "bytes32",
          "name": "role",
          "type": "bytes32"
        },
        {
          "internalType": "address",
          "name": "account",
          "type": "address"
        }
      ],
      "name": "hasRole",
      "outputs": [
        {
          "internalType": "bool",
          "name": "",
          "type": "bool"
        }
      ],
      "stateMutability": "view",
      "type": "function"
    },
    {
      "inputs": [
        {
          "internalType": "address",
          "name": "_owner",
          "type": "address"
        },
        {
          "internalType": "address",
          "name": "_occAdaptor",
          "type": "address"
        },
        {
          "internalType": "address",
          "name": "_orderCollector",
          "type": "address"
        },
        {
          "internalType": "contract IOFT",
          "name": "_orderTokenOft",
          "type": "address"
        },
        {
          "internalType": "uint256",
          "name": "_valorPerSecond",
          "type": "uint256"
        },
        {
          "internalType": "uint256",
          "name": "_maximumValorEmission",
          "type": "uint256"
        }
      ],
      "name": "initialize",
      "outputs": [],
      "stateMutability": "nonpayable",
      "type": "function"
    },
    {
      "inputs": [
        {
          "internalType": "uint32",
          "name": "_distributionId",
          "type": "uint32"
        }
      ],
      "name": "isDistributionRecordBased",
      "outputs": [
        {
          "internalType": "bool",
          "name": "",
          "type": "bool"
        }
      ],
      "stateMutability": "view",
      "type": "function"
    },
    {
      "inputs": [],
      "name": "lastUsdcNetFeeRevenueUpdateTimestamp",
      "outputs": [
        {
          "internalType": "uint256",
          "name": "",
          "type": "uint256"
        }
      ],
      "stateMutability": "view",
      "type": "function"
    },
    {
      "inputs": [],
      "name": "lastValorUpdateTimestamp",
      "outputs": [
        {
          "internalType": "uint256",
          "name": "",
          "type": "uint256"
        }
      ],
      "stateMutability": "view",
      "type": "function"
    },
    {
      "inputs": [
        {
          "components": [
            {
              "internalType": "uint256",
              "name": "srcChainId",
              "type": "uint256"
            },
            {
              "internalType": "enum LedgerToken",
              "name": "token",
              "type": "uint8"
            },
            {
              "internalType": "uint256",
              "name": "tokenAmount",
              "type": "uint256"
            },
            {
              "internalType": "address",
              "name": "sender",
              "type": "address"
            },
            {
              "internalType": "uint8",
              "name": "payloadType",
              "type": "uint8"
            },
            {
              "internalType": "bytes",
              "name": "payload",
              "type": "bytes"
            }
          ],
          "internalType": "struct OCCVaultMessage",
          "name": "message",
          "type": "tuple"
        }
      ],
      "name": "ledgerRecvFromVault",
      "outputs": [],
      "stateMutability": "nonpayable",
      "type": "function"
    },
    {
      "inputs": [],
      "name": "maximumValorEmission",
      "outputs": [
        {
          "internalType": "uint256",
          "name": "",
          "type": "uint256"
        }
      ],
      "stateMutability": "view",
      "type": "function"
    },
    {
      "inputs": [],
      "name": "occAdaptor",
      "outputs": [
        {
          "internalType": "address",
          "name": "",
          "type": "address"
        }
      ],
      "stateMutability": "view",
      "type": "function"
    },
    {
      "inputs": [],
      "name": "orderCollector",
      "outputs": [
        {
          "internalType": "address",
          "name": "",
          "type": "address"
        }
      ],
      "stateMutability": "view",
      "type": "function"
    },
    {
      "inputs": [],
      "name": "orderTokenOft",
      "outputs": [
        {
          "internalType": "address",
          "name": "",
          "type": "address"
        }
      ],
      "stateMutability": "view",
      "type": "function"
    },
    {
      "inputs": [],
      "name": "pause",
      "outputs": [],
      "stateMutability": "nonpayable",
      "type": "function"
    },
    {
      "inputs": [],
      "name": "paused",
      "outputs": [
        {
          "internalType": "bool",
          "name": "",
          "type": "bool"
        }
      ],
      "stateMutability": "view",
      "type": "function"
    },
    {
      "inputs": [
        {
          "internalType": "uint32",
          "name": "_distributionId",
          "type": "uint32"
        },
        {
          "internalType": "bytes32",
          "name": "_merkleRoot",
          "type": "bytes32"
        },
        {
          "internalType": "uint256",
          "name": "_startTimestamp",
          "type": "uint256"
        },
        {
          "internalType": "bytes",
          "name": "_ipfsCid",
          "type": "bytes"
        }
      ],
      "name": "proposeRoot",
      "outputs": [],
      "stateMutability": "nonpayable",
      "type": "function"
    },
    {
      "inputs": [],
      "name": "proxiableUUID",
      "outputs": [
        {
          "internalType": "bytes32",
          "name": "",
          "type": "bytes32"
        }
      ],
      "stateMutability": "view",
      "type": "function"
    },
    {
      "inputs": [
        {
          "internalType": "bytes32",
          "name": "role",
          "type": "bytes32"
        },
        {
          "internalType": "address",
          "name": "callerConfirmation",
          "type": "address"
        }
      ],
      "name": "renounceRole",
      "outputs": [],
      "stateMutability": "nonpayable",
      "type": "function"
    },
    {
      "inputs": [
        {
          "internalType": "bytes32",
          "name": "role",
          "type": "bytes32"
        },
        {
          "internalType": "address",
          "name": "account",
          "type": "address"
        }
      ],
      "name": "revokeRole",
      "outputs": [],
      "stateMutability": "nonpayable",
      "type": "function"
    },
    {
      "inputs": [
        {
          "internalType": "address",
          "name": "_occAdaptor",
          "type": "address"
        }
      ],
      "name": "setOccAdaptor",
      "outputs": [],
      "stateMutability": "nonpayable",
      "type": "function"
    },
    {
      "inputs": [
        {
          "internalType": "address",
          "name": "_orderCollector",
          "type": "address"
        }
      ],
      "name": "setOrderCollector",
      "outputs": [],
      "stateMutability": "nonpayable",
      "type": "function"
    },
    {
      "inputs": [
        {
          "internalType": "contract IOFT",
          "name": "_orderTokenOft",
          "type": "address"
        }
      ],
      "name": "setOrderTokenOft",
      "outputs": [],
      "stateMutability": "nonpayable",
      "type": "function"
    },
    {
      "inputs": [
        {
          "internalType": "uint256",
          "name": "_totalUsdcInTreasure",
          "type": "uint256"
        }
      ],
      "name": "setTotalUsdcInTreasure",
      "outputs": [],
      "stateMutability": "nonpayable",
      "type": "function"
    },
    {
      "inputs": [
        {
          "internalType": "address",
          "name": "_usdcUpdaterAddress",
          "type": "address"
        }
      ],
      "name": "setUsdcUpdaterAddress",
      "outputs": [],
      "stateMutability": "nonpayable",
      "type": "function"
    },
    {
      "inputs": [
        {
          "internalType": "uint256",
          "name": "",
          "type": "uint256"
        }
      ],
      "name": "srcChainIdToEventId",
      "outputs": [
        {
          "internalType": "uint256",
          "name": "",
          "type": "uint256"
        }
      ],
      "stateMutability": "view",
      "type": "function"
    },
    {
      "inputs": [
        {
          "internalType": "bytes4",
          "name": "interfaceId",
          "type": "bytes4"
        }
      ],
      "name": "supportsInterface",
      "outputs": [
        {
          "internalType": "bool",
          "name": "",
          "type": "bool"
        }
      ],
      "stateMutability": "view",
      "type": "function"
    },
    {
      "inputs": [],
      "name": "totalStakedAmount",
      "outputs": [
        {
          "internalType": "uint256",
          "name": "",
          "type": "uint256"
        }
      ],
      "stateMutability": "view",
      "type": "function"
    },
    {
      "inputs": [],
      "name": "totalUsdcInTreasure",
      "outputs": [
        {
          "internalType": "uint256",
          "name": "",
          "type": "uint256"
        }
      ],
      "stateMutability": "view",
      "type": "function"
    },
    {
      "inputs": [],
      "name": "totalValorAmount",
      "outputs": [
        {
          "internalType": "uint256",
          "name": "",
          "type": "uint256"
        }
      ],
      "stateMutability": "view",
      "type": "function"
    },
    {
      "inputs": [],
      "name": "totalValorEmitted",
      "outputs": [
        {
          "internalType": "uint256",
          "name": "",
          "type": "uint256"
        }
      ],
      "stateMutability": "view",
      "type": "function"
    },
    {
      "inputs": [],
      "name": "unpause",
      "outputs": [],
      "stateMutability": "nonpayable",
      "type": "function"
    },
    {
      "inputs": [],
      "name": "unstakeLockPeriod",
      "outputs": [
        {
          "internalType": "uint256",
          "name": "",
          "type": "uint256"
        }
      ],
      "stateMutability": "view",
      "type": "function"
    },
    {
      "inputs": [
        {
          "internalType": "uint32",
          "name": "_distributionId",
          "type": "uint32"
        }
      ],
      "name": "updateRoot",
      "outputs": [],
      "stateMutability": "nonpayable",
      "type": "function"
    },
    {
      "inputs": [],
      "name": "updateValorVars",
      "outputs": [],
      "stateMutability": "nonpayable",
      "type": "function"
    },
    {
      "inputs": [
        {
          "internalType": "address",
          "name": "newImplementation",
          "type": "address"
        },
        {
          "internalType": "bytes",
          "name": "data",
          "type": "bytes"
        }
      ],
      "name": "upgradeToAndCall",
      "outputs": [],
      "stateMutability": "payable",
      "type": "function"
    },
    {
      "inputs": [],
      "name": "usdcUpdaterAddress",
      "outputs": [
        {
          "internalType": "address",
          "name": "",
          "type": "address"
        }
      ],
      "stateMutability": "view",
      "type": "function"
    },
    {
      "inputs": [
        {
          "internalType": "address",
          "name": "",
          "type": "address"
        }
      ],
      "name": "userPendingUnstake",
      "outputs": [
        {
          "internalType": "uint256",
          "name": "balanceOrder",
          "type": "uint256"
        },
        {
          "internalType": "uint256",
          "name": "unlockTimestamp",
          "type": "uint256"
        }
      ],
      "stateMutability": "view",
      "type": "function"
    },
    {
      "inputs": [
        {
          "internalType": "address",
          "name": "_user",
          "type": "address"
        }
      ],
      "name": "userTotalStakingBalance",
      "outputs": [
        {
          "internalType": "uint256",
          "name": "",
          "type": "uint256"
        }
      ],
      "stateMutability": "view",
      "type": "function"
    },
    {
      "inputs": [],
      "name": "valorPerSecond",
      "outputs": [
        {
          "internalType": "uint256",
          "name": "",
          "type": "uint256"
        }
      ],
      "stateMutability": "view",
      "type": "function"
    },
    {
      "inputs": [],
      "name": "valorToUsdcRateScaled",
      "outputs": [
        {
          "internalType": "uint256",
          "name": "",
          "type": "uint256"
        }
      ],
      "stateMutability": "view",
      "type": "function"
    },
    {
      "inputs": [],
      "name": "vestingLinearPeriod",
      "outputs": [
        {
          "internalType": "uint256",
          "name": "",
          "type": "uint256"
        }
      ],
      "stateMutability": "view",
      "type": "function"
    },
    {
      "inputs": [],
      "name": "vestingLockPeriod",
      "outputs": [
        {
          "internalType": "uint256",
          "name": "",
          "type": "uint256"
        }
      ],
      "stateMutability": "view",
      "type": "function"
    }
  ],
  "transactionHash": "0x7a749314a0ec0fca7ff1d8d4680216cff60b63059be3a0d00d8632a038201198",
  "args": [],
  "numDeployments": 2,
  "solcInputHash": "63b8b3f31d5f3df99093c799d8e76d0c",
  "bytecode": "0x60a06040523060805234801561001457600080fd5b50608051615eda6200003f600039600081816132580152818161328101526133c50152615eda6000f3fe6080604052600436106104105760003560e01c80638456cb591161021e578063b32c4d8d11610123578063d9ab2c5c116100ab578063e7bacc301161007a578063e7bacc3014610d17578063ec81bf9314610d37578063f5a634ef14610d4d578063f9d60e2114610d6d578063ffa1ad7414610d8d57600080fd5b8063d9ab2c5c14610c97578063dccfd38d14610cb9578063e0d519db14610ccf578063e720ac8e14610cef57600080fd5b8063ccd4cf12116100f2578063ccd4cf1214610c0b578063d0c01ccd14610c21578063d547741f14610c41578063d7c41c7914610c61578063d84aaaff14610c8157600080fd5b8063b32c4d8d14610b80578063b62a7d8014610bbd578063be98ad5714610bd3578063caefe41314610be957600080fd5b80639d91c0e7116101a6578063aa4704f311610175578063aa4704f314610a9e578063ab7b18be14610adc578063ad3cb1cc14610af2578063b15fb23914610b30578063b2077fe814610b5057600080fd5b80639d91c0e714610a00578063a0cd44c314610a20578063a217fddf14610a69578063a2c7d9ae14610a7e57600080fd5b8063909d1909116101ed578063909d19091461097e57806391d148541461099457806393401216146109b45780639aefd886146109d45780639c9563a2146109ea57600080fd5b80638456cb59146108fc578063892735ed146109115780638e9a2dd21461093157806390999c4f1461095157600080fd5b80634f1ef286116103245780635dc5e052116102ac5780636b1f8c0d1161027b5780636b1f8c0d146108515780636dd373ed1461087157806373250c081461089157806374ae2e2e146108a75780637d143b52146108c757600080fd5b80635dc5e052146107db5780635e4db885146107f1578063628a794d1461081157806364f4463c1461083157600080fd5b806352d1902d116102f357806352d1902d1461074b578063562a54f814610760578063567e98f9146107805780635b97527f146107965780635c975abb146107b657600080fd5b80634f1ef286146106a95780634f60032e146106bc578063512bb3651461070b57806352580b5a1461072b57600080fd5b806330b667a6116103a75780633f93d261116103765780633f93d261146105ed578063415a483f1461060d578063443c96231461062257806349c99b721461065a5780634d1d882a1461067a57600080fd5b806330b667a61461056b57806336568abe146105985780633cef26ec146105b85780633f4ba83a146105d857600080fd5b806328a9fdec116103e357806328a9fdec146104bb57806328bcd70e146105065780632c3a2e971461051c5780632f2ff15d1461054957600080fd5b806301ffc9a7146104155780630877bc851461044a578063248a9ca31461047757806326bf1c03146104a5575b600080fd5b34801561042157600080fd5b50610435610430366004614ff5565b610dbb565b60405190151581526020015b60405180910390f35b34801561045657600080fd5b5061046a610465366004615036565b610df2565b6040516104419190615051565b34801561048357600080fd5b506104976104923660046150a0565b610e71565b604051908152602001610441565b3480156104b157600080fd5b5061049760125481565b3480156104c757600080fd5b506104976104d63660046150e0565b63ffffffff821660009081526003602090815260408083206001600160a01b038516845290915290205492915050565b34801561051257600080fd5b5061049760095481565b34801561052857600080fd5b5061053c610537366004615119565b610e93565b6040516104419190615136565b34801561055557600080fd5b50610569610564366004615182565b610f1e565b005b34801561057757600080fd5b50610497610586366004615119565b600b6020526000908152604090205481565b3480156105a457600080fd5b506105696105b3366004615182565b610f40565b3480156105c457600080fd5b506104976105d33660046151a7565b610f78565b3480156105e457600080fd5b50610569610fb5565b3480156105f957600080fd5b506105696106083660046152f2565b610fcb565b34801561061957600080fd5b506105696112b6565b34801561062e57600080fd5b50601b54610642906001600160a01b031681565b6040516001600160a01b039091168152602001610441565b34801561066657600080fd5b50610569610675366004615119565b611317565b34801561068657600080fd5b5061069a6106953660046153a7565b611345565b60405161044193929190615414565b6105696106b7366004615433565b61140a565b3480156106c857600080fd5b506106dc6106d7366004615036565b611425565b604051610441959493929190948552602085019390935290151560408401526060830152608082015260a00190565b34801561071757600080fd5b50601a54610642906001600160a01b031681565b34801561073757600080fd5b50610497610746366004615119565b6114ab565b34801561075757600080fd5b506104976114ec565b34801561076c57600080fd5b5061056961077b366004615119565b611509565b34801561078c57600080fd5b50610497600f5481565b3480156107a257600080fd5b506105696107b1366004615036565b611537565b3480156107c257600080fd5b50600080516020615e658339815191525460ff16610435565b3480156107e757600080fd5b5061049760075481565b3480156107fd57600080fd5b5061056961080c366004615482565b61164d565b34801561081d57600080fd5b50601c54610642906001600160a01b031681565b34801561083d57600080fd5b5061049761084c366004615119565b611741565b34801561085d57600080fd5b5061043561086c3660046153a7565b61176d565b34801561087d57600080fd5b5061056961088c366004615119565b6117ab565b34801561089d57600080fd5b50610497600a5481565b3480156108b357600080fd5b5061046a6108c2366004615036565b6117d9565b3480156108d357600080fd5b506104356108e23660046153a7565b63ffffffff16600090815260026020526040902054151590565b34801561090857600080fd5b506105696118a1565b34801561091d57600080fd5b5061043561092c3660046153a7565b6118b4565b34801561093d57600080fd5b5061056961094c3660046154dc565b6118e9565b34801561095d57600080fd5b5061049761096c3660046150a0565b60006020819052908152604090205481565b34801561098a57600080fd5b5061049760045481565b3480156109a057600080fd5b506104356109af366004615182565b611924565b3480156109c057600080fd5b506105696109cf366004615545565b61195c565b3480156109e057600080fd5b5061049760195481565b3480156109f657600080fd5b5061049760165481565b348015610a0c57600080fd5b50610569610a1b3660046150a0565b611b2d565b348015610a2c57600080fd5b50610a54610a3b366004615119565b600e602052600090815260409020805460019091015482565b60408051928352602083019190915201610441565b348015610a7557600080fd5b50610497600081565b348015610a8a57600080fd5b50610497610a99366004615119565b611b9d565b348015610aaa57600080fd5b50610a54610ab9366004615119565b6001600160a01b03166000908152600d6020526040902080546001909101549091565b348015610ae857600080fd5b5061049760105481565b348015610afe57600080fd5b50610b23604051806040016040528060058152602001640352e302e360dc1b81525081565b60405161044191906155be565b348015610b3c57600080fd5b50610497610b4b3660046155d1565b611bc6565b348015610b5c57600080fd5b50610b70610b6b3660046153a7565b611d77565b6040516104419493929190615647565b348015610b8c57600080fd5b50610ba0610b9b3660046150a0565b611f23565b604080519315158452602084019290925290820152606001610441565b348015610bc957600080fd5b5061049760185481565b348015610bdf57600080fd5b5061049760145481565b348015610bf557600080fd5b50610497600080516020615e8583398151915281565b348015610c1757600080fd5b5061049760115481565b348015610c2d57600080fd5b506104976b033b2e3c9fd0803ce800000081565b348015610c4d57600080fd5b50610569610c5c366004615182565b611f5a565b348015610c6d57600080fd5b50610569610c7c366004615673565b611f76565b348015610c8d57600080fd5b5061049760055481565b348015610ca357600080fd5b50610497600080516020615e0583398151915281565b348015610cc557600080fd5b5061049760065481565b348015610cdb57600080fd5b50610569610cea366004615119565b6120fa565b348015610cfb57600080fd5b50610d04612128565b60405161ffff9091168152602001610441565b348015610d2357600080fd5b50610569610d323660046153a7565b61215f565b348015610d4357600080fd5b5061049760085481565b348015610d5957600080fd5b50600c54610642906001600160a01b031681565b348015610d7957600080fd5b50610497610d88366004615036565b612278565b348015610d9957600080fd5b506040805180820190915260058152640312e302e360dc1b6020820152610b23565b60006001600160e01b03198216637965db0b60e01b1480610dec57506301ffc9a760e01b6001600160e01b03198316145b92915050565b6060610dfd82612324565b600301805480602002602001604051908101604052809291908181526020016000905b82821015610e6657838290600052602060002090600202016040518060400160405290816000820154815260200160018201548152505081526020019060010190610e20565b505050509050919050565b6000908152600080516020615e45833981519152602052604090206001015490565b6001600160a01b0381166000908152601760209081526040808320600101805482518185028101850190935280835260609492939192909184015b82821015610e665783829060005260206000209060030201604051806060016040529081600082015481526020016001820154815260200160028201548152505081526020019060010190610ece565b610f2782610e71565b610f3081612379565b610f3a8383612383565b50505050565b6001600160a01b0381163314610f695760405163334bd91960e11b815260040160405180910390fd5b610f738282612428565b505050565b6000610fae610f8784846124a4565b60408051606081018252825481526001830154602082015260029092015490820152612589565b9392505050565b6000610fc081612379565b610fc8612615565b50565b601b546001600160a01b0316331461101b5760405162461bcd60e51b815260206004820152600e60248201526d27b7363ca7a1a1a0b230b83a37b960911b60448201526064015b60405180910390fd5b608081015160ff166110645760008160a0015180602001905181019061104191906156e1565b8051606084015184516020840151604085015194955061106094612675565b5050565b600160ff16816080015160ff160361109257610fc8816060015182600001518360200151846040015161278e565b600260ff16816080015160ff16036110d35760008160a001518060200190518101906110be9190615811565b606083015183518251929350611060926128e1565b600360ff16816080015160ff16036110f75761106081606001518260000151612ac1565b600460ff16816080015160ff160361111b57610fc881606001518260000151612c42565b600560ff16816080015160ff160361115c5760008160a001518060200190518101906111479190615811565b60608301518351825192935061106092612d19565b600660ff16816080015160ff16036111ba5760008160a001518060200190518101906111889190615811565b905060006111a3836060015184600001518460000151612d2f565b9050610f738360600151846000015160018461278e565b600760ff16816080015160ff16036111f75760006111e082606001518360000151612e7a565b90506110608260600151836000015160018461278e565b600860ff16816080015160ff16036112385760008160a001518060200190518101906112239190615811565b6060830151835182519293506110609261302a565b600960ff16816080015160ff16036112795760008160a001518060200190518101906112649190615811565b60608301518351825192935061106092613118565b600a60ff16816080015160ff160361129d57610fc88160600151826000015161312c565b604051634440024f60e01b815260040160405180910390fd5b6112be613177565b601054421115611315576000806112d36131a8565b915091508160118190555080600660008282546112f09190615843565b9250508190555080600760008282546113099190615843565b90915550504260105550505b565b600061132281612379565b50600c80546001600160a01b0319166001600160a01b0392909216919091179055565b63ffffffff81166000908152600260208190526040822080546001820154919092018054849360609390929091819061137d90615856565b80601f01602080910402602001604051908101604052809291908181526020018280546113a990615856565b80156113f65780601f106113cb576101008083540402835291602001916113f6565b820191906000526020600020905b8154815290600101906020018083116113d957829003601f168201915b505050505090509250925092509193909250565b61141261324d565b61141b826132f2565b61106082826132fd565b60008060008060006016548661ffff1661143f919061588a565b60145461144c9190615843565b94506016548561145c9190615843565b60135490945061ffff8716101561149857600061147887612324565b8054600182015460029092015460ff909116955090935091506114a29050565b5060009150819050805b91939590929450565b6001600160a01b0381166000908152600e60205260408120600181015415806114d75750806001015442105b156114e55750600092915050565b5492915050565b60006114f66133ba565b50600080516020615e2583398151915290565b600061151481612379565b50601b80546001600160a01b0319166001600160a01b0392909216919091179055565b600061154281612379565b61154a612128565b61ffff168261ffff161061157157604051637dd2cb5d60e11b815260040160405180910390fd5b600061157c83612324565b905080600201546000036115a357604051631957b3ff60e31b815260040160405180910390fd5b805460ff16156115b257505050565b8060010154600760008282546115c891906158a1565b9091555050600281015460018201546b033b2e3c9fd0803ce8000000916115ee9161588a565b6115f891906158b4565b6009600082825461160991906158a1565b9091555050805460ff1916600117815560405161ffff8416907f6eac907c1eaf34119620cb19afb9703e14b837a593b2701476d771ce2250b13390600090a2505050565b600080516020615e8583398151915261166581612379565b6008546116749061a8c0615843565b42101561169457604051636c8b246360e01b815260040160405180910390fd5b6116b76116a6368490038401846158d6565b600c546001600160a01b0316613403565b426008819055508160600135600960008282546116d49190615843565b909155506116e2905061347b565b600954600754600a5460405142937fbbd8342b1e1fe32712ce056fbd76edab76635724aa81f9f63cae57b5918fb48293611735936060890135845260208401929092526040830152606082015260800190565b60405180910390a25050565b6001600160a01b0381166000908152600b6020526040812054611763836134b6565b610dec9190615843565b63ffffffff811660009081526002602052604081205415158015610dec57505063ffffffff1660009081526002602052604090206001015442101590565b60006117b681612379565b50601a80546001600160a01b0319166001600160a01b0392909216919091179055565b606060006117e683612324565b6003810180546040805160208084028201810190925282815293945060009084015b8282101561184e57838290600052602060002090600202016040518060400160405290816000820154815260200160018201548152505081526020019060010190611808565b50505050915060005b825181101561189a57816002015483828151811061187757611877615942565b602002602001015160200181815161188f919061588a565b905250600101611857565b5050919050565b60006118ac81612379565b610fc86134e5565b6000600163ffffffff831660009081526001602052604090205460ff1660038111156118e2576118e261560f565b1492915050565b6118f161352e565b611908600080516020615e05833981519152612379565b6119158585858585613578565b61191d613794565b5050505050565b6000918252600080516020615e45833981519152602090815260408084206001600160a01b0393909316845291905290205460ff1690565b61196461352e565b61197b600080516020615e05833981519152612379565b63ffffffff8616600090815260016020526040902060020154156119b257604051630ed16a0560e31b815260040160405180910390fd5b60008560038111156119c6576119c661560f565b141580156119e6575060018560038111156119e3576119e361560f565b14155b15611a045760405163a24e5e1360e01b815260040160405180910390fd5b6040518060400160405280866003811115611a2157611a2161560f565b81526040805160608101825260008082526001602083810182905284518082018652838152848601529485019290925263ffffffff8b1681529281905291208251815491929091839160ff1990911690836003811115611a8357611a8361560f565b021790555060208201518160010160008201518160000155602082015181600101556040820151816002019081611aba91906159a0565b505050905050611acd8685858585613578565b8563ffffffff16611ade60006137ba565b7f8d61f909218b17b213ad8a66ec2ae4b2ac62449ea7b35d9d6396cb7df96e95b88787878787604051611b15959493929190615a88565b60405180910390a3611b25613794565b505050505050565b600080516020615e85833981519152611b4581612379565b6009829055611b5261347b565b600954600754600a5460408051938452602084019290925282820152517fa032eeb49fe502e13b030998efb945ccf3ff68ec5729dfcada07a1149dffa1639181900360600190a15050565b6001600160a01b0381166000908152600d6020526040812060018101549054610dec9190615843565b6000805b6001600160a01b038516600090815260156020526040902060010154811015611d6c576001600160a01b0385166000908152601560205260409020600101805461ffff8616919083908110611c2157611c21615942565b600091825260209091206002909102015461ffff1603611d645760005b6001600160a01b0386166000908152601560205260409020600101805483908110611c6b57611c6b615942565b906000526020600020906002020160010180549050811015611d62576001600160a01b0386166000908152601560205260409020600101805485919084908110611cb757611cb7615942565b90600052602060002090600202016001018281548110611cd957611cd9615942565b90600052602060002090600202016000015403611d5a576001600160a01b0386166000908152601560205260409020600101805483908110611d1d57611d1d615942565b90600052602060002090600202016001018181548110611d3f57611d3f615942565b90600052602060002090600202016001015492505050610fae565b600101611c3e565b505b600101611bca565b506000949350505050565b60008060006060611d878561176d565b15611e555763ffffffff851660009081526001602081815260408084205460029283905293208054928101549101805460ff909416938190611dc890615856565b80601f0160208091040260200160405190810160405280929190818152602001828054611df490615856565b8015611e415780601f10611e1657610100808354040283529160200191611e41565b820191906000526020600020905b815481529060010190602001808311611e2457829003601f168201915b505050505090509350935093509350611f1c565b63ffffffff8516600090815260016020819052604090912080549181015460028201546003909201805460ff909416939192918190611e9390615856565b80601f0160208091040260200160405190810160405280929190818152602001828054611ebf90615856565b8015611f0c5780601f10611ee157610100808354040283529160200191611f0c565b820191906000526020600020905b815481529060010190602001808311611eef57829003601f168201915b5050505050905093509350935093505b9193509193565b60138181548110611f3357600080fd5b600091825260209091206004909102018054600182015460029092015460ff909116925083565b611f6382610e71565b611f6c81612379565b610f3a8383612428565b7ff0c57e16840df040f15088dc2f81fe391c3923bec73e23a9662efc9c229c6a008054600160401b810460ff1615906001600160401b0316600081158015611fbb5750825b90506000826001600160401b03166001148015611fd75750303b155b905081158015611fe5575080155b156120035760405163f92ee8a960e01b815260040160405180910390fd5b845467ffffffffffffffff19166001178555831561202d57845460ff60401b1916600160401b1785555b6120368b6137ed565b61203f8b613818565b61204a8b8888613838565b6120578b62093a80613865565b6120658b4262127500613877565b6120778b6213c6806262e0808c613897565b601c80546001600160a01b03808b166001600160a01b031992831617909255601b8054928d169290911691909117905583156120ed57845460ff60401b19168555604051600181527fc7f505b2f371ae2175ee4913f4499e1f2633a7b5936321eed1cdaeb6115181d29060200160405180910390a15b5050505050505050505050565b600061210581612379565b50601c80546001600160a01b0319166001600160a01b0392909216919091179055565b601454600090429081101561213f57600091505090565b60165460145461214f90836158a1565b61215991906158b4565b91505090565b612167613177565b6121708161176d565b61218d576040516326175e1b60e21b815260040160405180910390fd5b63ffffffff8116600090815260026020818152604080842060019283905293208354818301908155918401548184015590916003909101906121d190840182615ac0565b50505063ffffffff81166000908152600260208190526040822082815560018101839055919061220390830182614ec7565b50508063ffffffff1661221660006137ba565b63ffffffff831660009081526001602081905260409182902090810154600282015492517f01752a325882177ceb45901f8433de77f4e854bba0392f8454591ec8022517bc9361226d939091600390910190615b92565b60405180910390a350565b60008061228481612379565b61228c612128565b61ffff168361ffff16106122b357604051637dd2cb5d60e11b815260040160405180910390fd5b60006122be8461390c565b905080600201546000036122d557600a5460028201555b8361ffff167f605f4fc760dbfc8600370aa812edc813327cd01f0c909d737ae7cdd5397af377826002015460405161230f91815260200190565b60405180910390a26002015491505b50919050565b60135460009061ffff83161061234d576040516305b7010560e51b815260040160405180910390fd5b60138261ffff168154811061236457612364615942565b90600052602060002090600402019050919050565b610fc88133613936565b6000600080516020615e4583398151915261239e8484611924565b61241e576000848152602082815260408083206001600160a01b03871684529091529020805460ff191660011790556123d43390565b6001600160a01b0316836001600160a01b0316857f2f8788117e7eff1d82e926ec794901d17c78024a50270940304540a733656f0d60405160405180910390a46001915050610dec565b6000915050610dec565b6000600080516020615e458339815191526124438484611924565b1561241e576000848152602082815260408083206001600160a01b0387168085529252808320805460ff1916905551339287917ff6391f5c32d9c69d2a47ea670b442974b53935d1edc7fd64eb21e047a839171b9190a46001915050610dec565b6000805b6001600160a01b03841660009081526017602052604090206001015481101561255d576001600160a01b03841660009081526017602052604090206001018054849190839081106124fb576124fb615942565b90600052602060002090600302016000015403612555576001600160a01b038416600090815260176020526040902060010180548290811061253f5761253f615942565b9060005260206000209060030201915050610dec565b6001016124a8565b50604051632b8e927b60e01b81526001600160a01b038416600482015260248101839052604401611012565b60008160200151600014806125a15750816040015142105b156125ae57506000919050565b60008260400151426125c091906158a1565b90506019548111156125d157506019545b60026019548285602001516125e6919061588a565b6125f091906158b4565b6125fa91906158b4565b6002846020015161260b91906158b4565b610fae9190615843565b61261d61396f565b600080516020615e65833981519152805460ff191681557f5db9ee0a495bf2e6ff9c91a7834c1ba4fdd244a5e8aa4e537bd38aeae4b073aa335b6040516001600160a01b03909116815260200160405180910390a150565b600080612685878787878761399f565b91509150806000146127855760018260038111156126a5576126a561560f565b036126bb576126b68686848461278e565b612785565b60008260038111156126cf576126cf61560f565b03612785576040805160c08101825286815260006020808301919091528183018490526001600160a01b038981166060840152600b608084015283518085018552600381526203078360ec1b9281019290925260a0830191909152601b5492516316369c1960e11b815291921690632c6d383290612751908490600401615c31565b600060405180830381600087803b15801561276b57600080fd5b505af115801561277f573d6000803e3d6000fd5b50505050505b50505050505050565b61279661352e565b61279e613177565b806000036127bf576040516310eb483f60e21b815260040160405180910390fd5b60018260038111156127d3576127d361560f565b11156127f25760405163350b944160e11b815260040160405180910390fd5b6127fb84613b8d565b6001600160a01b0384166000908152600d6020526040902081908360038111156128275761282761560f565b6002811061283757612837615942565b0160008282546128479190615843565b90915550612856905084613c09565b6001600160a01b0385166000908152600d6020526040812060020191909155600f8054839290612887908490615843565b90915550506001600160a01b038416836128a0816137ba565b7f99f9c5a56f286a152d0b60bd8851853878e05bb243daeaf47f4c30001598791684866040516128d1929190615c92565b60405180910390a4610f3a613794565b6128e961352e565b6128f1613177565b80600003612912576040516310eb483f60e21b815260040160405180910390fd5b6001600160a01b0383166000908152600d602052604090205481111561294e57600060405163348ee39760e11b81526004016110129190615ca6565b61295783613b8d565b6001600160a01b0383166000908152600d60205260408120805483929061297f9084906158a1565b9091555061298e905083613c09565b6001600160a01b0384166000908152600d6020526040812060020191909155600f80548392906129bf9084906158a1565b90915550506001600160a01b0383166000908152600e6020526040812080548392906129ec908490615843565b90915550506012546129fe9042615843565b6001600160a01b0384166000818152600e602052604090206001019190915582612a27816137ba565b6040518481527f7956786f9c0614d721d7fd931301980a0399dfb0b38c81bafdfff0597c3290e49060200160405180910390a46001600160a01b0383166000818152600e602052604090819020805460019091015491517f7c2a5998b04a0c7a7d3a1ac3a0add65ac29f4647966110e357c7aa42e5e7ca2192612ab1928252602082015260400190565b60405180910390a2610f73613794565b6000612acb61352e565b612ad3613177565b6001600160a01b0383166000908152600e60205260408120600101549003612b0e576040516365e134c160e11b815260040160405180910390fd5b612b1783613b8d565b506001600160a01b0382166000908152600e6020908152604080832054600d9092528220805491928392612b4c908490615843565b90915550612b5b905083613c09565b6001600160a01b0384166000908152600d6020526040812060020191909155600f8054839290612b8c908490615843565b90915550506001600160a01b03831682612ba5816137ba565b6040518481527f45bc7039355216afb8dd7eb1bc73c6f9ebfcdf5b722d3b99055d05ce03847f6e906020015b60405180910390a46001600160a01b0383166000818152600e6020526040808220828155600101829055517f7c2a5998b04a0c7a7d3a1ac3a0add65ac29f4647966110e357c7aa42e5e7ca2191612c32918190918252602082015260400190565b60405180910390a2610dec613794565b6000612c4e8383613c3e565b90508015610f73576040805160c0810182528381526000602082018190529181018390526001600160a01b038516606082015260808101600c5b60ff168152604080518082018252600381526203078360ec1b60208281019190915290920191909152601b5490516316369c1960e11b81529192506001600160a01b031690632c6d383290612ce1908490600401615c31565b600060405180830381600087803b158015612cfb57600080fd5b505af1158015612d0f573d6000803e3d6000fd5b5050505050505050565b612d24838383613d33565b610f73838383613e6d565b6000612d39613177565b612d4161352e565b6000612d4d85846124a4565b6001808201546001600160a01b0388166000908152601760205260408120830180549296509394509291612d80916158a1565b81548110612d9057612d90615942565b600091825260208083206040805160608101825260039094029091018054808552600180830154868601819052600293840154878601819052928a5589820155918801556001600160a01b038b168552601790925290922090910180549192509080612dfe57612dfe615cb4565b600082815260208120600360001990930192830201818155600181018290556002015590556001600160a01b03861685612e37816137ba565b60408051888152602081018890527f3b3e48ba8b2a66a9706f50fc095a4fcb8f4c25da19c7a6aeab3df6a826d5bcd9910160405180910390a45050610fae613794565b6000612e84613177565b612e8c61352e565b6001600160a01b038316600090815260176020908152604080832081518083018352815481526001820180548451818702810187019095528085529194929385840193909290879084015b82821015612f275783829060005260206000209060030201604051806060016040529081600082015481526020016001820154815260200160028201548152505081526020019060010190612ed7565b5050505081525050905060005b816020015151811015612ff557600082602001518281518110612f5957612f59615942565b60200260200101516020015190508084612f739190615843565b9350856001600160a01b031685612f89876137ba565b7f3b3e48ba8b2a66a9706f50fc095a4fcb8f4c25da19c7a6aeab3df6a826d5bcd986602001518681518110612fc057612fc0615942565b60200260200101516000015185604051612fe4929190918252602082015260400190565b60405180910390a450600101612f34565b506001600160a01b03841660009081526017602052604081208181559061301f6001830182614f01565b505050610dec613794565b600080613038858585613f8f565b91509150816000146130f5576040805160c08101825285815260006020808301919091528183018590526001600160a01b038881166060840152600d608084015283518085018552600381526203078360ec1b9281019290925260a0830191909152601b5492516316369c1960e11b815291921690632c6d3832906130c1908490600401615c31565b600060405180830381600087803b1580156130db57600080fd5b505af11580156130ef573d6000803e3d6000fd5b50505050505b801561191d57601a54601c5461191d916001600160a01b0391821691168361413c565b61312183613b8d565b610f7383838361418e565b60006131388383614323565b90508015610f73576040805160c081018252838152600260208201529081018290526001600160a01b038416606082015260009060808101600e612c88565b600080516020615e658339815191525460ff16156113155760405163d93c066560e01b815260040160405180910390fd5b600080601054421115806131bc5750600f54155b156131cc57505060115490600090565b60115491506000601054426131e191906158a1565b9050600454816131f1919061588a565b9150600554826006546132049190615843565b111561321d5760065460055461321a91906158a1565b91505b600f54613232670de0b6b3a76400008461588a565b61323c91906158b4565b6132469084615843565b9250509091565b306001600160a01b037f00000000000000000000000000000000000000000000000000000000000000001614806132d457507f00000000000000000000000000000000000000000000000000000000000000006001600160a01b03166132c8600080516020615e25833981519152546001600160a01b031690565b6001600160a01b031614155b156113155760405163703e46dd60e11b815260040160405180910390fd5b600061106081612379565b816001600160a01b03166352d1902d6040518163ffffffff1660e01b8152600401602060405180830381865afa925050508015613357575060408051601f3d908101601f1916820190925261335491810190615cca565b60015b61337f57604051634c9c8ce360e01b81526001600160a01b0383166004820152602401611012565b600080516020615e2583398151915281146133b057604051632a87526960e21b815260048101829052602401611012565b610f7383836143ec565b306001600160a01b037f000000000000000000000000000000000000000000000000000000000000000016146113155760405163703e46dd60e11b815260040160405180910390fd5b611060613469836060015160405160200161342091815260200190565b604051602081830303815290604052805190602001207f19457468657265756d205369676e6564204d6573736167653a0a3332000000006000908152601c91909152603c902090565b83516020850151604086015185614442565b600754156134af576007546b033b2e3c9fd0803ce80000006009546134a0919061588a565b6134aa91906158b4565b600a55565b6000600a55565b6001600160a01b0381166000908152600d60205260408120600201546134db83613c09565b610dec91906158a1565b6134ed613177565b600080516020615e65833981519152805460ff191660011781557f62e78cea01bee320cd4e420270b5ea74000d11b0c9f74754ebdbfc544b05a25833612657565b7f9b779b17422d0df92223018b32b4d1fa46e071723d6817e2486d003becc55f0080546001190161357257604051633ee5aeb560e01b815260040160405180910390fd5b60029055565b63ffffffff85166000908152600160205260409020600201546135ae57604051633a35c2f960e01b815260040160405180910390fd5b836135cc57604051633f4b0e7b60e11b815260040160405180910390fd5b428310156135ed57604051631b8e7db960e11b815260040160405180910390fd5b63ffffffff851660009081526002602052604090205484148015613628575063ffffffff851660009081526002602052604090206001015483145b80156136805750600260008663ffffffff1663ffffffff16815260200190815260200160002060020160405161365e9190615ce3565b60405180910390208282604051613676929190615d59565b6040518091039020145b1561369e57604051630faec0d960e01b815260040160405180910390fd5b6136a78561176d565b156136b5576136b58561215f565b604051806060016040528085815260200184815260200183838080601f016020809104026020016040519081016040528093929190818152602001838380828437600092018290525093909452505063ffffffff8816815260026020818152604092839020855181559085015160018201559184015191925082019061373b90826159a0565b509050508463ffffffff1661375060006137ba565b7f6e036d1d8b54cadd52175820bedacecb3423ac485fa12c23c87321592bffb775868686866040516137859493929190615d69565b60405180910390a35050505050565b60017f9b779b17422d0df92223018b32b4d1fa46e071723d6817e2486d003becc55f0055565b6000818152602081905260408120805490826137d583615d89565b90915550505060009081526020819052604090205490565b6137f561447f565b6137fd6144c8565b6138056144d0565b61380d6144e0565b611060600082612383565b61382061447f565b611060600080516020615e0583398151915282612383565b61384061447f565b613858600080516020615e8583398151915284612383565b5060049190915560055550565b61386d61447f565b6012555042601055565b61387f61447f565b60149190915560165550601380546001018155600052565b61389f61447f565b826000036138c057604051631abc316360e21b815260040160405180910390fd5b816000036138e157604051638c400e3b60e01b815260040160405180910390fd5b601892909255601955601a80546001600160a01b0319166001600160a01b0390921691909117905550565b60005b60135461ffff83161061392d5760138054600101815560005261390f565b610dec82612324565b6139408282611924565b6110605760405163e2517d3f60e01b81526001600160a01b038216600482015260248101839052604401611012565b600080516020615e658339815191525460ff1661131557604051638dfc202b60e01b815260040160405180910390fd5b6000806139aa613177565b6139b261352e565b6139bb8761176d565b156139c9576139c98761215f565b63ffffffff87166000908152600160205260409020600201546139ff57604051633a35c2f960e01b815260040160405180910390fd5b63ffffffff87166000908152600160208190526040909120018054613a37576040516359bd390560e11b815260040160405180910390fd5b8054604080516001600160a01b038a16602082015290810187905260009060600160408051601f1981840301815282825280516020918201209083015201604051602081830303815290604052805190602001209050613a988683836144f0565b613ab55760405163582f497d60e11b815260040160405180910390fd5b50505063ffffffff871660009081526003602090815260408083206001600160a01b038a168452909152902054613aec90856158a1565b63ffffffff8816600090815260016020908152604080832054600383528184206001600160a01b038c16855290925290912086905560ff16925090508015613b7b578663ffffffff1685613b3f876137ba565b7f44a849f31027c891cb7e817e7c8df6b1541f745395ba940daeec387b283f39ab898587604051613b7293929190615da2565b60405180910390a45b613b83613794565b9550959350505050565b613b956112b6565b6000613ba0826134b6565b90508015611060576001600160a01b0382166000908152600d602052604081206002018054839290613bd3908490615843565b90915550506001600160a01b0382166000908152600b602052604081208054839290613c00908490615843565b90915550505050565b600080613c146131a8565b509050670de0b6b3a764000081613c2a85611b9d565b613c34919061588a565b610fae91906158b4565b6000613c4861352e565b613c50613177565b6001600160a01b0383166000908152600e60205260408120600101549003613c8b576040516365e134c160e11b815260040160405180910390fd5b6001600160a01b0383166000908152600e6020526040902060010154421015613cc757604051638a27b5a160e01b815260040160405180910390fd5b506001600160a01b0382166000908152600e60205260409020548015613d2b57826001600160a01b031682613cfb846137ba565b6040518481527f190e540afa0f1919c2b4de58858bd15ec79dde6231ca4b3be2cb0bde4eede0c790602001612bd1565b610dec613794565b613d3b61352e565b613d43613177565b80600003613d64576040516310eb483f60e21b815260040160405180910390fd5b6001600160a01b0383166000908152600d602052604090208190600101541015613da457600160405163348ee39760e11b81526004016110129190615ca6565b613dad83613b8d565b6001600160a01b0383166000908152600d6020526040902081906001016000828254613dd991906158a1565b90915550613de8905083613c09565b6001600160a01b0384166000908152600d6020526040812060020191909155600f8054839290613e199084906158a1565b90915550506001600160a01b03831682613e32816137ba565b6040518481527f1fa0c4284b9958e80cb828a1863b89b2a40ff9dc4cdc149ac88490bc609a91959060200160405180910390a4610f73613794565b613e75613177565b613e7d61352e565b80600003613e9e5760405163f7cb25ad60e01b815260040160405180910390fd5b6001600160a01b038316600090815260176020908152604080832081516060810183528154815292830185905260185490939291820190613edf9042615843565b905260018084018054808301825560009182526020808320855160039093020191825584015192810192909255604083015160029092019190915583549192508390613f2a83615d89565b9190505550846001600160a01b031684613f43866137ba565b835160408086015181519283526020830189905282820152517e3e50d6f730f8990dc97da68a86fea40220d3baa3f6689325a46beb5f5dc0f69181900360600190a45050610f73613794565b600080613f9a613177565b613fa261352e565b6000613fae86856124a4565b90508060020154421015613fd557604051633eb55fa360e01b815260040160405180910390fd5b60408051606081018252825481526001830154602082015260028301549181019190915261400290612589565b925082816001015461401491906158a1565b9150856001600160a01b03168561402a876137ba565b7f2f7d1a67d8436fa13ded14bf53703bed5c9b189232cd35530a5ce988bb55e40b8785600101548887600201544261406291906158a1565b60408051948552602085019390935291830152606082015260800160405180910390a46001600160a01b03861660009081526017602052604090206001908101805490916140af916158a1565b815481106140bf576140bf615942565b9060005260206000209060030201905060176000876001600160a01b03166001600160a01b0316815260200190815260200160002060010180548061410657614106615cb4565b6000828152602081206003600019909301928302018181556001810182905560020155905550614134613794565b935093915050565b604080516001600160a01b038416602482015260448082018490528251808303909101815260649091019091526020810180516001600160e01b031663a9059cbb60e01b179052610f73908490614506565b806000036141af57604051631c26cb0b60e01b815260040160405180910390fd5b6001600160a01b0383166000908152600b60205260409020548111156141e85760405163043f8ee560e41b815260040160405180910390fd5b6001600160a01b0383166000908152600b6020526040812080548392906142109084906158a1565b9091555061421f905083614569565b6000614229612128565b9050816142358261390c565b60010160008282546142479190615843565b9091555060009050614259858361484d565b90508261426982600101866149af565b600101600082825461427b9190615843565b92505081905550826142b460138461ffff168154811061429d5761429d615942565b9060005260206000209060040201600301866149af565b60010160008282546142c69190615843565b90915550506001600160a01b038516846142df816137ba565b6040805161ffff87168152602081018890527f6c16ad26e00ab1076e5532c6abddf1578121ec478b3129e556e064ff18de6229910160405180910390a45050505050565b600061432e83614569565b506001600160a01b0382166000908152601560209081526040808320848452909152812054908190036143855760405162d6360d60e11b81526001600160a01b038416600482015260248101839052604401611012565b6001600160a01b0383166000818152601560209081526040808320868452909152812055826143b3816137ba565b6040518481527f5160b630eaa30b010bf18a116a641cab7551c9bafdbd85748da5aaa421753a3c9060200160405180910390a492915050565b6143f582614a4a565b6040516001600160a01b038316907fbc7cd75a20ee27fd9adebab32041f755214dbc6bffa90cc0225b39da2e5c2d3b90600090a280511561443a57610f738282614aaf565b611060614b25565b806001600160a01b031661445886848787614b44565b6001600160a01b03161461191d57604051638baa579f60e01b815260040160405180910390fd5b7ff0c57e16840df040f15088dc2f81fe391c3923bec73e23a9662efc9c229c6a0054600160401b900460ff1661131557604051631afcd79f60e31b815260040160405180910390fd5b61131561447f565b6144d861447f565b611315614b74565b6144e861447f565b611315614b7c565b6000826144fd8584614b9d565b14949350505050565b600061451b6001600160a01b03841683614be0565b9050805160001415801561454057508080602001905181019061453e9190615dc6565b155b15610f7357604051635274afe760e01b81526001600160a01b0384166004820152602401611012565b60005b6001600160a01b038216600090815260156020526040902060010154811015611060576001600160a01b03821660009081526015602052604081206001018054839081106145bc576145bc615942565b600091825260209091206002909102018054601380549293509161ffff9091169081106145eb576145eb615942565b600091825260209091206004909102015460ff16156148445760005b600182015481101561470757600082600101828154811061462a5761462a615942565b9060005260206000209060020201600001549050600083600101838154811061465557614655615942565b600091825260208220600160029092020101548554601380549294506b033b2e3c9fd0803ce800000092909161ffff1690811061469457614694615942565b906000526020600020906004020160020154836146b1919061588a565b6146bb91906158b4565b6001600160a01b03881660009081526015602090815260408083208784529091528120805492935083929091906146f3908490615843565b909155505060019093019250614607915050565b506001600160a01b038316600090815260156020526040812060019081015461473091906158a1565b6001600160a01b03851660009081526015602052604090206001018054919250908290811061476157614761615942565b906000526020600020906002020160156000866001600160a01b03166001600160a01b0316815260200190815260200160002060010184815481106147a8576147a8615942565b600091825260209091208254600290920201805461ffff191661ffff909216919091178155600180830180546147e19284019190614f22565b5050506001600160a01b038416600090815260156020526040902060010180548061480e5761480e615cb4565b600082815260208120600260001990930192830201805461ffff191681559061483a6001830182614f82565b5050905550505050565b5060010161456c565b6000805b6001600160a01b03841660009081526015602052604090206001015481101561490d576001600160a01b0384166000908152601560205260409020600101805461ffff85169190839081106148a8576148a8615942565b600091825260209091206002909102015461ffff1603614905576001600160a01b03841660009081526015602052604090206001018054829081106148ef576148ef615942565b9060005260206000209060020201915050610dec565b600101614851565b506001600160a01b0383166000908152601560205260409020600190810180549182018082558491908390811061494657614946615942565b60009182526020808320600292909202909101805461ffff191661ffff94909416939093179092556001600160a01b038616815260159091526040902060010180548290811061499857614998615942565b906000526020600020906002020191505092915050565b6000805b8354811015614a0057828482815481106149cf576149cf615942565b906000526020600020906002020160000154036149f8578381815481106148ef576148ef615942565b6001016149b3565b5082546001810180855560008590528390859083908110614a2357614a23615942565b90600052602060002090600202016000018190555083818154811061499857614998615942565b806001600160a01b03163b600003614a8057604051634c9c8ce360e01b81526001600160a01b0382166004820152602401611012565b600080516020615e2583398151915280546001600160a01b0319166001600160a01b0392909216919091179055565b6060600080846001600160a01b031684604051614acc9190615de8565b600060405180830381855af49150503d8060008114614b07576040519150601f19603f3d011682016040523d82523d6000602084013e614b0c565b606091505b5091509150614b1c858383614bee565b95945050505050565b34156113155760405163b398979f60e01b815260040160405180910390fd5b600080600080614b5688888888614c4a565b925092509250614b668282614d19565b50909150505b949350505050565b61379461447f565b614b8461447f565b600080516020615e65833981519152805460ff19169055565b600081815b8451811015614bd857614bce82868381518110614bc157614bc1615942565b6020026020010151614dd2565b9150600101614ba2565b509392505050565b6060610fae83836000614e01565b606082614c0357614bfe82614e9e565b610fae565b8151158015614c1a57506001600160a01b0384163b155b15614c4357604051639996b31560e01b81526001600160a01b0385166004820152602401611012565b5080610fae565b600080807f7fffffffffffffffffffffffffffffff5d576e7357a4501ddfe92f46681b20a0841115614c855750600091506003905082614d0f565b604080516000808252602082018084528a905260ff891692820192909252606081018790526080810186905260019060a0016020604051602081039080840390855afa158015614cd9573d6000803e3d6000fd5b5050604051601f1901519150506001600160a01b038116614d0557506000925060019150829050614d0f565b9250600091508190505b9450945094915050565b6000826003811115614d2d57614d2d61560f565b03614d36575050565b6001826003811115614d4a57614d4a61560f565b03614d685760405163f645eedf60e01b815260040160405180910390fd5b6002826003811115614d7c57614d7c61560f565b03614d9d5760405163fce698f760e01b815260048101829052602401611012565b6003826003811115614db157614db161560f565b03611060576040516335e2f38360e21b815260048101829052602401611012565b6000818310614dee576000828152602084905260409020610fae565b6000838152602083905260409020610fae565b606081471015614e265760405163cd78605960e01b8152306004820152602401611012565b600080856001600160a01b03168486604051614e429190615de8565b60006040518083038185875af1925050503d8060008114614e7f576040519150601f19603f3d011682016040523d82523d6000602084013e614e84565b606091505b5091509150614e94868383614bee565b9695505050505050565b805115614eae5780518082602001fd5b604051630a12f52160e11b815260040160405180910390fd5b508054614ed390615856565b6000825580601f10614ee3575050565b601f016020900490600052602060002090810190610fc89190614fa3565b5080546000825560030290600052602060002090810190610fc89190614fb8565b828054828255906000526020600020906002028101928215614f725760005260206000209160020282015b82811115614f7257825482556001808401549083015560029283019290910190614f4d565b50614f7e929150614fda565b5090565b5080546000825560020290600052602060002090810190610fc89190614fda565b5b80821115614f7e5760008155600101614fa4565b5b80821115614f7e576000808255600182018190556002820155600301614fb9565b5b80821115614f7e5760008082556001820155600201614fdb565b60006020828403121561500757600080fd5b81356001600160e01b031981168114610fae57600080fd5b803561ffff8116811461503157600080fd5b919050565b60006020828403121561504857600080fd5b610fae8261501f565b602080825282518282018190526000919060409081850190868401855b828110156150935781518051855286015186850152928401929085019060010161506e565b5091979650505050505050565b6000602082840312156150b257600080fd5b5035919050565b63ffffffff81168114610fc857600080fd5b6001600160a01b0381168114610fc857600080fd5b600080604083850312156150f357600080fd5b82356150fe816150b9565b9150602083013561510e816150cb565b809150509250929050565b60006020828403121561512b57600080fd5b8135610fae816150cb565b602080825282518282018190526000919060409081850190868401855b828110156150935781518051855286810151878601528501518585015260609093019290850190600101615153565b6000806040838503121561519557600080fd5b82359150602083013561510e816150cb565b600080604083850312156151ba57600080fd5b82356151c5816150cb565b946020939093013593505050565b634e487b7160e01b600052604160045260246000fd5b60405160c081016001600160401b038111828210171561520b5761520b6151d3565b60405290565b604051606081016001600160401b038111828210171561520b5761520b6151d3565b604051601f8201601f191681016001600160401b038111828210171561525b5761525b6151d3565b604052919050565b80356004811061503157600080fd5b803560ff8116811461503157600080fd5b600082601f83011261529457600080fd5b81356001600160401b038111156152ad576152ad6151d3565b6152c0601f8201601f1916602001615233565b8181528460208386010111156152d557600080fd5b816020850160208301376000918101602001919091529392505050565b60006020828403121561530457600080fd5b81356001600160401b038082111561531b57600080fd5b9083019060c0828603121561532f57600080fd5b6153376151e9565b8235815261534760208401615263565b6020820152604083013560408201526060830135615364816150cb565b606082015261537560808401615272565b608082015260a08301358281111561538c57600080fd5b61539887828601615283565b60a08301525095945050505050565b6000602082840312156153b957600080fd5b8135610fae816150b9565b60005b838110156153df5781810151838201526020016153c7565b50506000910152565b600081518084526154008160208601602086016153c4565b601f01601f19169290920160200192915050565b838152826020820152606060408201526000614b1c60608301846153e8565b6000806040838503121561544657600080fd5b8235615451816150cb565b915060208301356001600160401b0381111561546c57600080fd5b61547885828601615283565b9150509250929050565b60006080828403121561231e57600080fd5b60008083601f8401126154a657600080fd5b5081356001600160401b038111156154bd57600080fd5b6020830191508360208285010111156154d557600080fd5b9250929050565b6000806000806000608086880312156154f457600080fd5b85356154ff816150b9565b9450602086013593506040860135925060608601356001600160401b0381111561552857600080fd5b61553488828901615494565b969995985093965092949392505050565b60008060008060008060a0878903121561555e57600080fd5b8635615569816150b9565b955061557760208801615263565b9450604087013593506060870135925060808701356001600160401b038111156155a057600080fd5b6155ac89828a01615494565b979a9699509497509295939492505050565b602081526000610fae60208301846153e8565b6000806000606084860312156155e657600080fd5b83356155f1816150cb565b92506155ff6020850161501f565b9150604084013590509250925092565b634e487b7160e01b600052602160045260246000fd5b6004811061564357634e487b7160e01b600052602160045260246000fd5b9052565b6156518186615625565b836020820152826040820152608060608201526000614e9460808301846153e8565b60008060008060008060c0878903121561568c57600080fd5b8635615697816150cb565b955060208701356156a7816150cb565b945060408701356156b7816150cb565b935060608701356156c7816150cb565b9598949750929560808101359460a0909101359350915050565b600060208083850312156156f457600080fd5b82516001600160401b038082111561570b57600080fd5b908401906060828703121561571f57600080fd5b615727615211565b8251615732816150b9565b8152828401518482015260408301518281111561574e57600080fd5b80840193505086601f84011261576357600080fd5b825182811115615775576157756151d3565b8060051b9250615786858401615233565b81815292840185019285810190898511156157a057600080fd5b948601945b848610156157be578551825294860194908601906157a5565b60408401525090979650505050505050565b6000602082840312156157e257600080fd5b604051602081018181106001600160401b0382111715615804576158046151d3565b6040529151825250919050565b60006020828403121561582357600080fd5b610fae83836157d0565b634e487b7160e01b600052601160045260246000fd5b80820180821115610dec57610dec61582d565b600181811c9082168061586a57607f821691505b60208210810361231e57634e487b7160e01b600052602260045260246000fd5b8082028115828204841417610dec57610dec61582d565b81810381811115610dec57610dec61582d565b6000826158d157634e487b7160e01b600052601260045260246000fd5b500490565b6000608082840312156158e857600080fd5b604051608081018181106001600160401b038211171561590a5761590a6151d3565b8060405250823581526020830135602082015261592960408401615272565b6040820152606083013560608201528091505092915050565b634e487b7160e01b600052603260045260246000fd5b601f821115610f73576000816000526020600020601f850160051c810160208610156159815750805b601f850160051c820191505b81811015611b255782815560010161598d565b81516001600160401b038111156159b9576159b96151d3565b6159cd816159c78454615856565b84615958565b602080601f831160018114615a0257600084156159ea5750858301515b600019600386901b1c1916600185901b178555611b25565b600085815260208120601f198616915b82811015615a3157888601518255948401946001909101908401615a12565b5085821015615a4f5787850151600019600388901b60f8161c191681555b5050505050600190811b01905550565b81835281816020850137506000828201602090810191909152601f909101601f19169091010190565b615a928187615625565b846020820152836040820152608060608201526000615ab5608083018486615a5f565b979650505050505050565b818103615acb575050565b615ad58254615856565b6001600160401b03811115615aec57615aec6151d3565b615afa816159c78454615856565b6000601f821160018114615b2e5760008315615b165750848201545b600019600385901b1c1916600184901b17845561191d565b600085815260209020601f19841690600086815260209020845b83811015615b685782860154825560019586019590910190602001615b48565b5085831015615a4f5793015460001960f8600387901b161c19169092555050600190811b01905550565b838152600060208460208401526060604084015260008454615bb381615856565b8060608701526080600180841660008114615bd55760018114615bf157615c21565b60ff19851660808a0152608084151560051b8a01019550615c21565b89600052602060002060005b85811015615c185781548b8201860152908301908801615bfd565b8a016080019650505b50939a9950505050505050505050565b602081528151602082015260006020830151615c506040840182615625565b506040830151606083015260018060a01b03606084015116608083015260ff60808401511660a083015260a083015160c080840152614b6c60e08401826153e8565b82815260408101610fae6020830184615625565b60208101610dec8284615625565b634e487b7160e01b600052603160045260246000fd5b600060208284031215615cdc57600080fd5b5051919050565b6000808354615cf181615856565b60018281168015615d095760018114615d1e57615d4d565b60ff1984168752821515830287019450615d4d565b8760005260208060002060005b85811015615d445781548a820152908401908201615d2b565b50505082870194505b50929695505050505050565b8183823760009101908152919050565b848152836020820152606060408201526000614e94606083018486615a5f565b600060018201615d9b57615d9b61582d565b5060010190565b6001600160a01b03841681526020810183905260608101614b6c6040830184615625565b600060208284031215615dd857600080fd5b81518015158114610fae57600080fd5b60008251615dfa8184602087016153c4565b919091019291505056fe009ab23a1010d07a0450a1fbea1d84169b57d2c2273b54bff0f20c3e90199b5d360894a13ba1a3210667c828492db98dca3e2076cc3735a920a3ca505d382bbc02dd7bc7dec4dceedda775e58dd541e08a116c6c53815c0bd028192f7b626800cd5ed15c6e187e77e9aee88184c21f4f2182ab5827cb3b7e07fbedcd63f03300d4633f2ee6e04337d84b8278c3b807b75336f88e5e4656e625419ef1258e9af1a26469706673582212202e3a02a1fb14759d2de11b180cbdca90da637a248473535fc26d964851c096af64736f6c63430008160033",
  "devdoc": {
    "errors": {
      "AccessControlBadConfirmation()": [
        {
          "details": "The caller of a function is not the expected one. NOTE: Don't confuse with {AccessControlUnauthorizedAccount}."
        }
      ],
      "AccessControlUnauthorizedAccount(address,bytes32)": [
        {
          "details": "The `account` is missing a role."
        }
      ],
      "AddressEmptyCode(address)": [
        {
          "details": "There's no code at `target` (it is not a contract)."
        }
      ],
      "AddressInsufficientBalance(address)": [
        {
          "details": "The ETH balance of the account is not enough to perform the operation."
        }
      ],
      "ECDSAInvalidSignature()": [
        {
          "details": "The signature derives the `address(0)`."
        }
      ],
      "ECDSAInvalidSignatureLength(uint256)": [
        {
          "details": "The signature has an invalid length."
        }
      ],
      "ECDSAInvalidSignatureS(bytes32)": [
        {
          "details": "The signature has an S value that is in the upper half order."
        }
      ],
      "ERC1967InvalidImplementation(address)": [
        {
          "details": "The `implementation` of the proxy is invalid."
        }
      ],
      "ERC1967NonPayable()": [
        {
          "details": "An upgrade function sees `msg.value > 0` that may be lost."
        }
      ],
      "EnforcedPause()": [
        {
          "details": "The operation failed because the contract is paused."
        }
      ],
      "ExpectedPause()": [
        {
          "details": "The operation failed because the contract is not paused."
        }
      ],
      "FailedInnerCall()": [
        {
          "details": "A call to an address target failed. The target may have reverted."
        }
      ],
      "InvalidInitialization()": [
        {
          "details": "The contract is already initialized."
        }
      ],
      "NotInitializing()": [
        {
          "details": "The contract is not initializing."
        }
      ],
      "ReentrancyGuardReentrantCall()": [
        {
          "details": "Unauthorized reentrant call."
        }
      ],
      "SafeERC20FailedOperation(address)": [
        {
          "details": "An operation with an ERC20 token failed."
        }
      ],
      "UUPSUnauthorizedCallContext()": [
        {
          "details": "The call is from an unauthorized context."
        }
      ],
      "UUPSUnsupportedProxiableUUID(bytes32)": [
        {
          "details": "The storage `slot` is unsupported as a UUID."
        }
      ]
    },
    "events": {
      "Initialized(uint64)": {
        "details": "Triggered when the contract has been initialized or reinitialized."
      },
      "Paused(address)": {
        "details": "Emitted when the pause is triggered by `account`."
      },
      "RoleAdminChanged(bytes32,bytes32,bytes32)": {
        "details": "Emitted when `newAdminRole` is set as ``role``'s admin role, replacing `previousAdminRole` `DEFAULT_ADMIN_ROLE` is the starting admin for all roles, despite {RoleAdminChanged} not being emitted signaling this."
      },
      "RoleGranted(bytes32,address,address)": {
        "details": "Emitted when `account` is granted `role`. `sender` is the account that originated the contract call, an admin role bearer except when using {AccessControl-_setupRole}."
      },
      "RoleRevoked(bytes32,address,address)": {
        "details": "Emitted when `account` is revoked `role`. `sender` is the account that originated the contract call:   - if using `revokeRole`, it is the admin role bearer   - if using `renounceRole`, it is the role bearer (i.e. `account`)"
      },
      "Unpaused(address)": {
        "details": "Emitted when the pause is lifted by `account`."
      },
      "Upgraded(address)": {
        "details": "Emitted when the implementation is upgraded."
      }
    },
    "kind": "dev",
    "methods": {
      "calculateVestingOrderAmount(address,uint256)": {
        "params": {
          "_user": "User address"
        }
      },
      "canUpdateRoot(uint32)": {
        "params": {
          "_distributionId": "The distribution id."
        },
        "returns": {
          "_0": "Boolean `true` if the active root can be updated to the proposed root, else `false`."
        }
      },
      "createDistribution(uint32,uint8,bytes32,uint256,bytes)": {
        "params": {
          "_distributionId": "The distribution id.",
          "_ipfsCid": "An IPFS CID pointing to the Merkle tree data. (optional, can be 0x0) Reverts if the distribution with the same id is already exists or Merkle root params are invalid. Reverts if the token is not supported for distribution. Currently only $ORDER and es$ORDER tokens are supported.",
          "_merkleRoot": "The Merkle root.",
          "_startTimestamp": "The timestamp when this Merkle root become active.",
          "_token": "The type of the token. Currently only $ORDER token and es$ORDER (record based) are supported."
        }
      },
      "getClaimed(uint32,address)": {
        "params": {
          "_distributionId": "The distribution id.",
          "_user": "The address of the user."
        },
        "returns": {
          "_0": "The amount tokens claimed so far by that user."
        }
      },
      "getDistribution(uint32)": {
        "params": {
          "_distributionId": "The distribution id."
        },
        "returns": {
          "ipfsCid": "       An IPFS CID pointing to the Merkle tree data (optional, can be 0x0).",
          "merkleRoot": "    The Merkle root.",
          "startTimestamp": "Timestamp when this Merkle root become active.",
          "token": "         The type of the distributed token. Currently only $ORDER token and es$ORDER (record based) are supported."
        }
      },
      "getProposedRoot(uint32)": {
        "params": {
          "_distributionId": "The distribution id."
        },
        "returns": {
          "ipfsCid": "       An IPFS CID pointing to the Merkle tree data (optional, can be 0x0).",
          "merkleRoot": "    The proposed Merkle root.",
          "startTimestamp": "Timestamp when this Merkle root become active."
        }
      },
      "getRoleAdmin(bytes32)": {
        "details": "Returns the admin role that controls `role`. See {grantRole} and {revokeRole}. To change a role's admin, use {_setRoleAdmin}."
      },
      "grantRole(bytes32,address)": {
        "details": "Grants `role` to `account`. If `account` had not been already granted `role`, emits a {RoleGranted} event. Requirements: - the caller must have ``role``'s admin role. May emit a {RoleGranted} event."
      },
      "hasPendingRoot(uint32)": {
        "params": {
          "_distributionId": "The distribution id."
        },
        "returns": {
          "_0": "Boolean `true` if there is a proposed root for given distribution waiting to become active, else `false`."
        }
      },
      "hasRole(bytes32,address)": {
        "details": "Returns `true` if `account` has been granted `role`."
      },
      "isDistributionRecordBased(uint32)": {
        "params": {
          "_distributionId": "The distribution id."
        },
        "returns": {
          "_0": "Boolean `true` if the distribution is record based, else `false`."
        }
      },
      "paused()": {
        "details": "Returns true if the contract is paused, and false otherwise."
      },
      "proposeRoot(uint32,bytes32,uint256,bytes)": {
        "params": {
          "_distributionId": "The distribution id.",
          "_ipfsCid": "An IPFS CID pointing to the Merkle tree data.  Reverts if the proposed root is bytes32(0).  Reverts if the proposed startTimestamp is in the past.  Reverts if the proposed root is already proposed.",
          "_merkleRoot": "The Merkle root.",
          "_startTimestamp": "The timestamp when this Merkle root become active"
        }
      },
      "proxiableUUID()": {
        "details": "Implementation of the ERC1822 {proxiableUUID} function. This returns the storage slot used by the implementation. It is used to validate the implementation's compatibility when performing an upgrade. IMPORTANT: A proxy pointing at a proxiable contract should not be considered proxiable itself, because this risks bricking a proxy that upgrades to it, by delegating to itself until out of gas. Thus it is critical that this function revert if invoked through a proxy. This is guaranteed by the `notDelegated` modifier."
      },
      "renounceRole(bytes32,address)": {
        "details": "Revokes `role` from the calling account. Roles are often managed via {grantRole} and {revokeRole}: this function's purpose is to provide a mechanism for accounts to lose their privileges if they are compromised (such as when a trusted device is misplaced). If the calling account had been revoked `role`, emits a {RoleRevoked} event. Requirements: - the caller must be `callerConfirmation`. May emit a {RoleRevoked} event."
      },
      "revokeRole(bytes32,address)": {
        "details": "Revokes `role` from `account`. If `account` had been granted `role`, emits a {RoleRevoked} event. Requirements: - the caller must have ``role``'s admin role. May emit a {RoleRevoked} event."
      },
      "supportsInterface(bytes4)": {
        "details": "See {IERC165-supportsInterface}."
      },
      "updateRoot(uint32)": {
        "params": {
          "_distributionId": "The distribution id.  Reverts if root updates are paused.  Reverts if the proposed root is bytes32(0).  Reverts if the waiting period for the proposed root has not elapsed."
        }
      },
      "upgradeToAndCall(address,bytes)": {
        "custom:oz-upgrades-unsafe-allow-reachable": "delegatecall",
        "details": "Upgrade the implementation of the proxy to `newImplementation`, and subsequently execute the function call encoded in `data`. Calls {_authorizeUpgrade}. Emits an {Upgraded} event."
      }
    },
    "version": 1
  },
  "userdoc": {
    "events": {
      "BatchPreparedToClaim(uint16)": {
        "notice": "Emitted when admin marks batch as claimable"
      },
      "BatchValorToUsdcRateIsFixed(uint16,uint256)": {
        "notice": "Emitted when admin fixes valor to USDC rate for the batch"
      },
      "DailyUsdcNetFeeRevenueUpdated(uint256,uint256,uint256,uint256,uint256)": {
        "notice": "Emmited, when the daily USDC net fee revenue has been updated"
      },
      "DistributionCreated(uint256,uint32,uint8,bytes32,uint256,bytes)": {
        "notice": "Emitted when a new distribution is created by the ROOT_UPDATER_ROLE from Ledger chain."
      },
      "EsOrderUnstake(uint256,uint256,address,uint256)": {
        "notice": "Emitted when user unstakes es$ORDER tokens"
      },
      "OrderUnstakeAmount(address,uint256,uint256)": {
        "notice": "Emitted for _createOrderUnstakeRequest, _cancelOrderUnstakeRequest and _withdrawOrder functions"
      },
      "OrderUnstakeCancelled(uint256,uint256,address,uint256)": {
        "notice": "Emitted when user cancels unstake $ORDER tokens request"
      },
      "OrderUnstakeRequested(uint256,uint256,address,uint256)": {
        "notice": "Emitted when user requests unstake $ORDER tokens"
      },
      "OrderWithdrawn(uint256,uint256,address,uint256)": {
        "notice": "Emitted when user withdraws $ORDER tokens"
      },
      "RewardsClaimed(uint256,uint256,uint32,address,uint256,uint8)": {
        "notice": "Emitted when a user claims rewards from Vault chains."
      },
      "RootProposed(uint256,uint32,bytes32,uint256,bytes)": {
        "notice": "Emitted when a new Merkle root is proposed by the ROOT_UPDATER_ROLE from Ledger chain."
      },
      "RootUpdated(uint256,uint32,bytes32,uint256,bytes)": {
        "notice": "Emitted when proposed Merkle root becomes active by the ROOT_UPDATER_ROLE from Ledger chain."
      },
      "Staked(uint256,uint256,address,uint256,uint8)": {
        "notice": "Emitted when user stakes $ORDER or es$ORDER tokens"
      },
      "UsdcRevenueClaimed(uint256,uint256,address,uint256)": {
        "notice": "Emitted when user claim collected USDC revenue from chain"
      },
      "ValorRedeemed(uint256,uint256,address,uint16,uint256)": {
        "notice": "Emitted when user redeem valor for the chain; batchId is the current batch"
      }
    },
    "kind": "user",
    "methods": {
      "TREASURE_UPDATER_ROLE()": {
        "notice": "The role, that is allowed to update USDC net fee revenue"
      },
      "accValorPerShareScaled()": {
        "notice": "The accrued valor share, scaled to `ACC_VALOR_PER_SHARE_PRECISION`"
      },
      "batchDuration()": {
        "notice": "Period of the batch in seconds"
      },
      "batchPreparedToClaim(uint16)": {
        "notice": "Admin marks batch as claimable when USDC is provided for the batch         This also reduce total valor amount and total USDC in treasure         This reduce shouldn't affect the valor to USDC rate because valor and USDC amounts are reduced proportionally"
      },
      "batchStartTimestamp()": {
        "notice": "The timestamp when the first batch starts"
      },
      "calculateVestingOrderAmount(address,uint256)": {
        "notice": "Return amount of $ORDER tokens for withdraw at the moment"
      },
      "canUpdateRoot(uint32)": {
        "notice": "Returns true if there is a proposed root for given distribution waiting to become active         and the start time has passed."
      },
      "collectedValor(address)": {
        "notice": "The amount of valor token, that has been collected by the user"
      },
      "createDistribution(uint32,uint8,bytes32,uint256,bytes)": {
        "notice": "Create a new distribution with the given token and propose Merkle root for it.         Locked for ROOT_UPDATER_ROLE.         Once created, distribution token can't be changed."
      },
      "dailyUsdcNetFeeRevenue((bytes32,bytes32,uint8,uint256))": {
        "notice": "CeFi updates the daily USDC net fee revenue          Function reverts, if the function is called too early - less than 12 hours after the last update          to prevent accidental double updates          Function updates the totalUsdcInTreasure, valorToUsdcRateScaled"
      },
      "fixBatchValorToUsdcRate(uint16)": {
        "notice": "CeFi fixes valor to USDC rate for the batch after providing daily USDC net fee amount after batch is finished         This suppose to avoid the last day gap in USDC treasure amount         that can lead to set incorrect valor to USDC rate for the batch         batch.fixedValorToUsdcRateScaled will be set to current valorToUsdcRateScaled"
      },
      "getBatchChainedValorAmount(uint16)": {
        "notice": "Returns the amount of valor that user can redeem for the chain"
      },
      "getBatchInfo(uint16)": {
        "notice": "Returns the batch structure by id without chained valor amount"
      },
      "getClaimed(uint32,address)": {
        "notice": "Get the tokens amount claimed so far for distribution by a given user."
      },
      "getCurrentBatchId()": {
        "notice": "Calculate and returns the current batch id based on the current timestamp, start timestamp and batch duration"
      },
      "getDistribution(uint32)": {
        "notice": "Get the active Merkle root for distribution id and associated parameters.         If distribution has proposed root and it's start timestamp has passed, proposed root will be returned.         It allows to reduce probability of collision when user claiming rewards from the old Merkle root.         Because it will be updated at the beginning of the next claimReward call and become active from that moment.         So, user will actually obtain the rewards from the proposed root and have to provide amount and proof for it."
      },
      "getOrderAvailableToWithdraw(address)": {
        "notice": "Get the amount of $ORDER ready to be withdrawn by `_user`"
      },
      "getProposedRoot(uint32)": {
        "notice": "Get the proposed Merkle root for token and associated parameters.         When the proposed root become active, it will be removed from the proposedRoots mapping.         So, this function will return non-zero values only if the proposed root is pending."
      },
      "getStakingInfo(address)": {
        "notice": "Get the staking balances for a given _user"
      },
      "getUsdcAmountForBatch(uint16)": {
        "notice": "Returns the amount of USDC required for batch on each chain"
      },
      "getUserRedeemedValorAmountForBatchAndChain(address,uint16,uint256)": {
        "notice": "Returns the amount of valor that user redeemed for the chain in the batch"
      },
      "getUserValor(address)": {
        "notice": "Get the pending amount of valor up to now for a given _user"
      },
      "hasPendingRoot(uint32)": {
        "notice": "Returns true if there is a proposed root for given distribution waiting to become active.         This is the case if the proposed root for given distribution is not zero."
      },
      "isDistributionRecordBased(uint32)": {
        "notice": "Check if the distribution is record based. Currently only es$ORDER token is record based."
      },
      "lastUsdcNetFeeRevenueUpdateTimestamp()": {
        "notice": "The timestamp of the last update of the USDC net fee revenue"
      },
      "lastValorUpdateTimestamp()": {
        "notice": "The last time that the valor variables were updated"
      },
      "ledgerRecvFromVault((uint256,uint8,uint256,address,uint8,bytes))": {
        "notice": "Receives message from OCCAdapter and dispatch it"
      },
      "maximumValorEmission()": {
        "notice": "The maximum amount of valor token, that can be emitted"
      },
      "orderCollector()": {
        "notice": "Address, that will collect unvested $ORDER when user prematurely withdraws"
      },
      "pause()": {
        "notice": "Pause external functionality"
      },
      "proposeRoot(uint32,bytes32,uint256,bytes)": {
        "notice": "Set the proposed root parameters.         Locked for ROOT_UPDATER_ROLE.         Allows to update proposed root for token before startTimestamp passed.         If startTimestamp passed, proposed root will be propogated to active root."
      },
      "setTotalUsdcInTreasure(uint256)": {
        "notice": "Set the totalUsdcInTreasure. Restricted to TREASURE_UPDATER_ROLE          Function updates the totalUsdcInTreasure, valorToUsdcRateScaled"
      },
      "setUsdcUpdaterAddress(address)": {
        "notice": "Owner can set address, that signed the USDC revenue updates"
      },
      "srcChainIdToEventId(uint256)": {
        "notice": "Mapping of srcChainId => event id"
      },
      "totalStakedAmount()": {
        "notice": "Total amount of staken $ORDER and es$ORDER"
      },
      "totalUsdcInTreasure()": {
        "notice": "The total amount of USDC, that has been collected in the treasure"
      },
      "totalValorAmount()": {
        "notice": "The total amount of valor token, that is currently in circulation"
      },
      "totalValorEmitted()": {
        "notice": "The total amount of valor token, that has been emitted"
      },
      "unpause()": {
        "notice": "Unpause external functionality"
      },
      "unstakeLockPeriod()": {
        "notice": "Period of time, that user have to wait after unstake request, before he can withdraw tokens"
      },
      "updateRoot(uint32)": {
        "notice": "Propagate proposed root to the distribution if it can be updated.         Non-reeentrant guard is disabled because this function is called from claimRewards."
      },
      "updateValorVars()": {
        "notice": "Calculate and update valor per share changed over time This function actually emits valor to users"
      },
      "usdcUpdaterAddress()": {
        "notice": "The address, that signed the USDC revenue updates"
      },
      "userTotalStakingBalance(address)": {
        "notice": "Get the total amount of $ORDER and es$ORDER staked by `_user`"
      },
      "valorPerSecond()": {
        "notice": "The amount of valor token, that will be emitted per second"
      },
      "valorToUsdcRateScaled()": {
        "notice": "The current rate of valor to USDC"
      },
      "vestingLinearPeriod()": {
        "notice": "Period after lock period, during which vesting $ORDER amount linearly increase from 50% to 100%"
      },
      "vestingLockPeriod()": {
        "notice": "Lock period where user can not withdraw vested $ORDER"
      }
    },
    "version": 1
  },
  "storageLayout": {
    "storage": [
      {
        "astId": 7097,
        "contract": "contracts/OmnichainLedgerV1.sol:OmnichainLedgerV1",
        "label": "srcChainIdToEventId",
        "offset": 0,
        "slot": "0",
        "type": "t_mapping(t_uint256,t_uint256)"
      },
      {
        "astId": 7290,
        "contract": "contracts/OmnichainLedgerV1.sol:OmnichainLedgerV1",
        "label": "activeDistributions",
        "offset": 0,
        "slot": "1",
        "type": "t_mapping(t_uint32,t_struct(Distribution)7284_storage)"
      },
      {
        "astId": 7296,
        "contract": "contracts/OmnichainLedgerV1.sol:OmnichainLedgerV1",
        "label": "proposedRoots",
        "offset": 0,
        "slot": "2",
        "type": "t_mapping(t_uint32,t_struct(MerkleTree)7275_storage)"
      },
      {
        "astId": 7303,
        "contract": "contracts/OmnichainLedgerV1.sol:OmnichainLedgerV1",
        "label": "claimedAmounts",
        "offset": 0,
        "slot": "3",
        "type": "t_mapping(t_uint32,t_mapping(t_address,t_uint256))"
      },
      {
        "astId": 9925,
        "contract": "contracts/OmnichainLedgerV1.sol:OmnichainLedgerV1",
        "label": "valorPerSecond",
        "offset": 0,
        "slot": "4",
        "type": "t_uint256"
      },
      {
        "astId": 9928,
        "contract": "contracts/OmnichainLedgerV1.sol:OmnichainLedgerV1",
        "label": "maximumValorEmission",
        "offset": 0,
        "slot": "5",
        "type": "t_uint256"
      },
      {
        "astId": 9931,
        "contract": "contracts/OmnichainLedgerV1.sol:OmnichainLedgerV1",
        "label": "totalValorEmitted",
        "offset": 0,
        "slot": "6",
        "type": "t_uint256"
      },
      {
        "astId": 9934,
        "contract": "contracts/OmnichainLedgerV1.sol:OmnichainLedgerV1",
        "label": "totalValorAmount",
        "offset": 0,
        "slot": "7",
        "type": "t_uint256"
      },
      {
        "astId": 9937,
        "contract": "contracts/OmnichainLedgerV1.sol:OmnichainLedgerV1",
        "label": "lastUsdcNetFeeRevenueUpdateTimestamp",
        "offset": 0,
        "slot": "8",
        "type": "t_uint256"
      },
      {
        "astId": 9940,
        "contract": "contracts/OmnichainLedgerV1.sol:OmnichainLedgerV1",
        "label": "totalUsdcInTreasure",
        "offset": 0,
        "slot": "9",
        "type": "t_uint256"
      },
      {
        "astId": 9943,
        "contract": "contracts/OmnichainLedgerV1.sol:OmnichainLedgerV1",
        "label": "valorToUsdcRateScaled",
        "offset": 0,
        "slot": "10",
        "type": "t_uint256"
      },
      {
        "astId": 9948,
        "contract": "contracts/OmnichainLedgerV1.sol:OmnichainLedgerV1",
        "label": "collectedValor",
        "offset": 0,
        "slot": "11",
        "type": "t_mapping(t_address,t_uint256)"
      },
      {
        "astId": 9951,
        "contract": "contracts/OmnichainLedgerV1.sol:OmnichainLedgerV1",
        "label": "usdcUpdaterAddress",
        "offset": 0,
        "slot": "12",
        "type": "t_address"
      },
      {
        "astId": 9062,
        "contract": "contracts/OmnichainLedgerV1.sol:OmnichainLedgerV1",
        "label": "userStakingInfo",
        "offset": 0,
        "slot": "13",
        "type": "t_mapping(t_address,t_struct(StakingInfo)9057_storage)"
      },
      {
        "astId": 9072,
        "contract": "contracts/OmnichainLedgerV1.sol:OmnichainLedgerV1",
        "label": "userPendingUnstake",
        "offset": 0,
        "slot": "14",
        "type": "t_mapping(t_address,t_struct(PendingUnstake)9067_storage)"
      },
      {
        "astId": 9075,
        "contract": "contracts/OmnichainLedgerV1.sol:OmnichainLedgerV1",
        "label": "totalStakedAmount",
        "offset": 0,
        "slot": "15",
        "type": "t_uint256"
      },
      {
        "astId": 9078,
        "contract": "contracts/OmnichainLedgerV1.sol:OmnichainLedgerV1",
        "label": "lastValorUpdateTimestamp",
        "offset": 0,
        "slot": "16",
        "type": "t_uint256"
      },
      {
        "astId": 9081,
        "contract": "contracts/OmnichainLedgerV1.sol:OmnichainLedgerV1",
        "label": "accValorPerShareScaled",
        "offset": 0,
        "slot": "17",
        "type": "t_uint256"
      },
      {
        "astId": 9084,
        "contract": "contracts/OmnichainLedgerV1.sol:OmnichainLedgerV1",
        "label": "unstakeLockPeriod",
        "offset": 0,
        "slot": "18",
        "type": "t_uint256"
      },
      {
        "astId": 8049,
        "contract": "contracts/OmnichainLedgerV1.sol:OmnichainLedgerV1",
        "label": "batches",
        "offset": 0,
        "slot": "19",
        "type": "t_array(t_struct(Batch)8045_storage)dyn_storage"
      },
      {
        "astId": 8052,
        "contract": "contracts/OmnichainLedgerV1.sol:OmnichainLedgerV1",
        "label": "batchStartTimestamp",
        "offset": 0,
        "slot": "20",
        "type": "t_uint256"
      },
      {
        "astId": 8073,
        "contract": "contracts/OmnichainLedgerV1.sol:OmnichainLedgerV1",
        "label": "userRevenue",
        "offset": 0,
        "slot": "21",
        "type": "t_mapping(t_address,t_struct(UserRevenueRecord)8068_storage)"
      },
      {
        "astId": 8076,
        "contract": "contracts/OmnichainLedgerV1.sol:OmnichainLedgerV1",
        "label": "batchDuration",
        "offset": 0,
        "slot": "22",
        "type": "t_uint256"
      },
      {
        "astId": 10148,
        "contract": "contracts/OmnichainLedgerV1.sol:OmnichainLedgerV1",
        "label": "userVestingInfos",
        "offset": 0,
        "slot": "23",
        "type": "t_mapping(t_address,t_struct(UserVestingInfo)10143_storage)"
      },
      {
        "astId": 10151,
        "contract": "contracts/OmnichainLedgerV1.sol:OmnichainLedgerV1",
        "label": "vestingLockPeriod",
        "offset": 0,
        "slot": "24",
        "type": "t_uint256"
      },
      {
        "astId": 10154,
        "contract": "contracts/OmnichainLedgerV1.sol:OmnichainLedgerV1",
        "label": "vestingLinearPeriod",
        "offset": 0,
        "slot": "25",
        "type": "t_uint256"
      },
      {
        "astId": 10157,
        "contract": "contracts/OmnichainLedgerV1.sol:OmnichainLedgerV1",
        "label": "orderCollector",
        "offset": 0,
        "slot": "26",
        "type": "t_address"
      },
      {
        "astId": 6358,
        "contract": "contracts/OmnichainLedgerV1.sol:OmnichainLedgerV1",
        "label": "occAdaptor",
        "offset": 0,
        "slot": "27",
        "type": "t_address"
      },
      {
        "astId": 6360,
        "contract": "contracts/OmnichainLedgerV1.sol:OmnichainLedgerV1",
        "label": "orderTokenOft",
        "offset": 0,
        "slot": "28",
        "type": "t_address"
      }
    ],
    "types": {
      "t_address": {
        "encoding": "inplace",
        "label": "address",
        "numberOfBytes": "20"
      },
      "t_array(t_struct(Batch)8045_storage)dyn_storage": {
        "base": "t_struct(Batch)8045_storage",
        "encoding": "dynamic_array",
        "label": "struct Revenue.Batch[]",
        "numberOfBytes": "32"
      },
      "t_array(t_struct(BatchedRedemptionRequest)8059_storage)dyn_storage": {
        "base": "t_struct(BatchedRedemptionRequest)8059_storage",
        "encoding": "dynamic_array",
        "label": "struct Revenue.BatchedRedemptionRequest[]",
        "numberOfBytes": "32"
      },
      "t_array(t_struct(ChainedAmount)8030_storage)dyn_storage": {
        "base": "t_struct(ChainedAmount)8030_storage",
        "encoding": "dynamic_array",
        "label": "struct Revenue.ChainedAmount[]",
        "numberOfBytes": "32"
      },
      "t_array(t_struct(VestingRequest)10136_storage)dyn_storage": {
        "base": "t_struct(VestingRequest)10136_storage",
        "encoding": "dynamic_array",
        "label": "struct Vesting.VestingRequest[]",
        "numberOfBytes": "32"
      },
      "t_array(t_uint256)2_storage": {
        "base": "t_uint256",
        "encoding": "inplace",
        "label": "uint256[2]",
        "numberOfBytes": "64"
      },
      "t_bool": {
        "encoding": "inplace",
        "label": "bool",
        "numberOfBytes": "1"
      },
      "t_bytes32": {
        "encoding": "inplace",
        "label": "bytes32",
        "numberOfBytes": "32"
      },
      "t_bytes_storage": {
        "encoding": "bytes",
        "label": "bytes",
        "numberOfBytes": "32"
      },
      "t_enum(LedgerToken)7966": {
        "encoding": "inplace",
        "label": "enum LedgerToken",
        "numberOfBytes": "1"
      },
      "t_mapping(t_address,t_struct(PendingUnstake)9067_storage)": {
        "encoding": "mapping",
        "key": "t_address",
        "label": "mapping(address => struct Staking.PendingUnstake)",
        "numberOfBytes": "32",
        "value": "t_struct(PendingUnstake)9067_storage"
      },
      "t_mapping(t_address,t_struct(StakingInfo)9057_storage)": {
        "encoding": "mapping",
        "key": "t_address",
        "label": "mapping(address => struct Staking.StakingInfo)",
        "numberOfBytes": "32",
        "value": "t_struct(StakingInfo)9057_storage"
      },
      "t_mapping(t_address,t_struct(UserRevenueRecord)8068_storage)": {
        "encoding": "mapping",
        "key": "t_address",
        "label": "mapping(address => struct Revenue.UserRevenueRecord)",
        "numberOfBytes": "32",
        "value": "t_struct(UserRevenueRecord)8068_storage"
      },
      "t_mapping(t_address,t_struct(UserVestingInfo)10143_storage)": {
        "encoding": "mapping",
        "key": "t_address",
        "label": "mapping(address => struct Vesting.UserVestingInfo)",
        "numberOfBytes": "32",
        "value": "t_struct(UserVestingInfo)10143_storage"
      },
      "t_mapping(t_address,t_uint256)": {
        "encoding": "mapping",
        "key": "t_address",
        "label": "mapping(address => uint256)",
        "numberOfBytes": "32",
        "value": "t_uint256"
      },
      "t_mapping(t_uint256,t_uint256)": {
        "encoding": "mapping",
        "key": "t_uint256",
        "label": "mapping(uint256 => uint256)",
        "numberOfBytes": "32",
        "value": "t_uint256"
      },
      "t_mapping(t_uint32,t_mapping(t_address,t_uint256))": {
        "encoding": "mapping",
        "key": "t_uint32",
        "label": "mapping(uint32 => mapping(address => uint256))",
        "numberOfBytes": "32",
        "value": "t_mapping(t_address,t_uint256)"
      },
      "t_mapping(t_uint32,t_struct(Distribution)7284_storage)": {
        "encoding": "mapping",
        "key": "t_uint32",
        "label": "mapping(uint32 => struct MerkleDistributor.Distribution)",
        "numberOfBytes": "32",
        "value": "t_struct(Distribution)7284_storage"
      },
      "t_mapping(t_uint32,t_struct(MerkleTree)7275_storage)": {
        "encoding": "mapping",
        "key": "t_uint32",
        "label": "mapping(uint32 => struct MerkleDistributor.MerkleTree)",
        "numberOfBytes": "32",
        "value": "t_struct(MerkleTree)7275_storage"
      },
      "t_struct(Batch)8045_storage": {
        "encoding": "inplace",
        "label": "struct Revenue.Batch",
        "members": [
          {
            "astId": 8033,
            "contract": "contracts/OmnichainLedgerV1.sol:OmnichainLedgerV1",
            "label": "claimable",
            "offset": 0,
            "slot": "0",
            "type": "t_bool"
          },
          {
            "astId": 8036,
            "contract": "contracts/OmnichainLedgerV1.sol:OmnichainLedgerV1",
            "label": "redeemedValorAmount",
            "offset": 0,
            "slot": "1",
            "type": "t_uint256"
          },
          {
            "astId": 8039,
            "contract": "contracts/OmnichainLedgerV1.sol:OmnichainLedgerV1",
            "label": "fixedValorToUsdcRateScaled",
            "offset": 0,
            "slot": "2",
            "type": "t_uint256"
          },
          {
            "astId": 8044,
            "contract": "contracts/OmnichainLedgerV1.sol:OmnichainLedgerV1",
            "label": "chainedValorAmount",
            "offset": 0,
            "slot": "3",
            "type": "t_array(t_struct(ChainedAmount)8030_storage)dyn_storage"
          }
        ],
        "numberOfBytes": "128"
      },
      "t_struct(BatchedRedemptionRequest)8059_storage": {
        "encoding": "inplace",
        "label": "struct Revenue.BatchedRedemptionRequest",
        "members": [
          {
            "astId": 8054,
            "contract": "contracts/OmnichainLedgerV1.sol:OmnichainLedgerV1",
            "label": "batchId",
            "offset": 0,
            "slot": "0",
            "type": "t_uint16"
          },
          {
            "astId": 8058,
            "contract": "contracts/OmnichainLedgerV1.sol:OmnichainLedgerV1",
            "label": "chainedValorAmount",
            "offset": 0,
            "slot": "1",
            "type": "t_array(t_struct(ChainedAmount)8030_storage)dyn_storage"
          }
        ],
        "numberOfBytes": "64"
      },
      "t_struct(ChainedAmount)8030_storage": {
        "encoding": "inplace",
        "label": "struct Revenue.ChainedAmount",
        "members": [
          {
            "astId": 8027,
            "contract": "contracts/OmnichainLedgerV1.sol:OmnichainLedgerV1",
            "label": "chainId",
            "offset": 0,
            "slot": "0",
            "type": "t_uint256"
          },
          {
            "astId": 8029,
            "contract": "contracts/OmnichainLedgerV1.sol:OmnichainLedgerV1",
            "label": "amount",
            "offset": 0,
            "slot": "1",
            "type": "t_uint256"
          }
        ],
        "numberOfBytes": "64"
      },
      "t_struct(Distribution)7284_storage": {
        "encoding": "inplace",
        "label": "struct MerkleDistributor.Distribution",
        "members": [
          {
            "astId": 7279,
            "contract": "contracts/OmnichainLedgerV1.sol:OmnichainLedgerV1",
            "label": "token",
            "offset": 0,
            "slot": "0",
            "type": "t_enum(LedgerToken)7966"
          },
          {
            "astId": 7283,
            "contract": "contracts/OmnichainLedgerV1.sol:OmnichainLedgerV1",
            "label": "merkleTree",
            "offset": 0,
            "slot": "1",
            "type": "t_struct(MerkleTree)7275_storage"
          }
        ],
        "numberOfBytes": "128"
      },
      "t_struct(MerkleTree)7275_storage": {
        "encoding": "inplace",
        "label": "struct MerkleDistributor.MerkleTree",
        "members": [
          {
            "astId": 7268,
            "contract": "contracts/OmnichainLedgerV1.sol:OmnichainLedgerV1",
            "label": "merkleRoot",
            "offset": 0,
            "slot": "0",
            "type": "t_bytes32"
          },
          {
            "astId": 7271,
            "contract": "contracts/OmnichainLedgerV1.sol:OmnichainLedgerV1",
            "label": "startTimestamp",
            "offset": 0,
            "slot": "1",
            "type": "t_uint256"
          },
          {
            "astId": 7274,
            "contract": "contracts/OmnichainLedgerV1.sol:OmnichainLedgerV1",
            "label": "ipfsCid",
            "offset": 0,
            "slot": "2",
            "type": "t_bytes_storage"
          }
        ],
        "numberOfBytes": "96"
      },
      "t_struct(PendingUnstake)9067_storage": {
        "encoding": "inplace",
        "label": "struct Staking.PendingUnstake",
        "members": [
          {
            "astId": 9064,
            "contract": "contracts/OmnichainLedgerV1.sol:OmnichainLedgerV1",
            "label": "balanceOrder",
            "offset": 0,
            "slot": "0",
            "type": "t_uint256"
          },
          {
            "astId": 9066,
            "contract": "contracts/OmnichainLedgerV1.sol:OmnichainLedgerV1",
            "label": "unlockTimestamp",
            "offset": 0,
            "slot": "1",
            "type": "t_uint256"
          }
        ],
        "numberOfBytes": "64"
      },
      "t_struct(StakingInfo)9057_storage": {
        "encoding": "inplace",
        "label": "struct Staking.StakingInfo",
        "members": [
          {
            "astId": 9054,
            "contract": "contracts/OmnichainLedgerV1.sol:OmnichainLedgerV1",
            "label": "balance",
            "offset": 0,
            "slot": "0",
            "type": "t_array(t_uint256)2_storage"
          },
          {
            "astId": 9056,
            "contract": "contracts/OmnichainLedgerV1.sol:OmnichainLedgerV1",
            "label": "valorDebt",
            "offset": 0,
            "slot": "2",
            "type": "t_uint256"
          }
        ],
        "numberOfBytes": "96"
      },
      "t_struct(UserRevenueRecord)8068_storage": {
        "encoding": "inplace",
        "label": "struct Revenue.UserRevenueRecord",
        "members": [
          {
            "astId": 8063,
            "contract": "contracts/OmnichainLedgerV1.sol:OmnichainLedgerV1",
            "label": "chainedUsdcRevenue",
            "offset": 0,
            "slot": "0",
            "type": "t_mapping(t_uint256,t_uint256)"
          },
          {
            "astId": 8067,
            "contract": "contracts/OmnichainLedgerV1.sol:OmnichainLedgerV1",
            "label": "requests",
            "offset": 0,
            "slot": "1",
            "type": "t_array(t_struct(BatchedRedemptionRequest)8059_storage)dyn_storage"
          }
        ],
        "numberOfBytes": "64"
      },
      "t_struct(UserVestingInfo)10143_storage": {
        "encoding": "inplace",
        "label": "struct Vesting.UserVestingInfo",
        "members": [
          {
            "astId": 10138,
            "contract": "contracts/OmnichainLedgerV1.sol:OmnichainLedgerV1",
            "label": "currentRequestId",
            "offset": 0,
            "slot": "0",
            "type": "t_uint256"
          },
          {
            "astId": 10142,
            "contract": "contracts/OmnichainLedgerV1.sol:OmnichainLedgerV1",
            "label": "requests",
            "offset": 0,
            "slot": "1",
            "type": "t_array(t_struct(VestingRequest)10136_storage)dyn_storage"
          }
        ],
        "numberOfBytes": "64"
      },
      "t_struct(VestingRequest)10136_storage": {
        "encoding": "inplace",
        "label": "struct Vesting.VestingRequest",
        "members": [
          {
            "astId": 10131,
            "contract": "contracts/OmnichainLedgerV1.sol:OmnichainLedgerV1",
            "label": "requestId",
            "offset": 0,
            "slot": "0",
            "type": "t_uint256"
          },
          {
            "astId": 10133,
            "contract": "contracts/OmnichainLedgerV1.sol:OmnichainLedgerV1",
            "label": "esOrderAmount",
            "offset": 0,
            "slot": "1",
            "type": "t_uint256"
          },
          {
            "astId": 10135,
            "contract": "contracts/OmnichainLedgerV1.sol:OmnichainLedgerV1",
            "label": "unlockTimestamp",
            "offset": 0,
            "slot": "2",
            "type": "t_uint256"
          }
        ],
        "numberOfBytes": "96"
      },
      "t_uint16": {
        "encoding": "inplace",
        "label": "uint16",
        "numberOfBytes": "2"
      },
      "t_uint256": {
        "encoding": "inplace",
        "label": "uint256",
        "numberOfBytes": "32"
      },
      "t_uint32": {
        "encoding": "inplace",
        "label": "uint32",
        "numberOfBytes": "4"
      }
    }
  }
}