{
  "address": "0x6459BCfaEefCDeFD6bFe6710e447172ad78304A3",
  "abi": [
    {
      "inputs": [],
      "stateMutability": "nonpayable",
      "type": "constructor"
    },
    {
      "inputs": [],
      "name": "AccessControlBadConfirmation",
      "type": "error"
    },
    {
      "inputs": [
        {
          "internalType": "address",
          "name": "account",
          "type": "address"
        },
        {
          "internalType": "bytes32",
          "name": "neededRole",
          "type": "bytes32"
        }
      ],
      "name": "AccessControlUnauthorizedAccount",
      "type": "error"
    },
    {
      "inputs": [
        {
          "internalType": "address",
          "name": "target",
          "type": "address"
        }
      ],
      "name": "AddressEmptyCode",
      "type": "error"
    },
    {
      "inputs": [],
      "name": "AmountIsGreaterThanCollectedValor",
      "type": "error"
    },
    {
      "inputs": [],
      "name": "AmountIsZero",
      "type": "error"
    },
    {
      "inputs": [],
      "name": "BatchIsNotCreatedYet",
      "type": "error"
    },
    {
      "inputs": [],
      "name": "BatchIsNotFinished",
      "type": "error"
    },
    {
      "inputs": [],
      "name": "BatchValorToUsdcRateIsNotFixed",
      "type": "error"
    },
    {
      "inputs": [],
      "name": "CannotUpdateRoot",
      "type": "error"
    },
    {
      "inputs": [],
      "name": "DistributionAlreadyExists",
      "type": "error"
    },
    {
      "inputs": [],
      "name": "DistributionNotFound",
      "type": "error"
    },
    {
      "inputs": [],
      "name": "ECDSAInvalidSignature",
      "type": "error"
    },
    {
      "inputs": [
        {
          "internalType": "uint256",
          "name": "length",
          "type": "uint256"
        }
      ],
      "name": "ECDSAInvalidSignatureLength",
      "type": "error"
    },
    {
      "inputs": [
        {
          "internalType": "bytes32",
          "name": "s",
          "type": "bytes32"
        }
      ],
      "name": "ECDSAInvalidSignatureS",
      "type": "error"
    },
    {
      "inputs": [
        {
          "internalType": "address",
          "name": "implementation",
          "type": "address"
        }
      ],
      "name": "ERC1967InvalidImplementation",
      "type": "error"
    },
    {
      "inputs": [],
      "name": "ERC1967NonPayable",
      "type": "error"
    },
    {
      "inputs": [],
      "name": "EnforcedPause",
      "type": "error"
    },
    {
      "inputs": [],
      "name": "ExpectedPause",
      "type": "error"
    },
    {
      "inputs": [],
      "name": "FailedInnerCall",
      "type": "error"
    },
    {
      "inputs": [],
      "name": "InvalidInitialization",
      "type": "error"
    },
    {
      "inputs": [],
      "name": "InvalidMerkleProof",
      "type": "error"
    },
    {
      "inputs": [],
      "name": "InvalidSignature",
      "type": "error"
    },
    {
      "inputs": [],
      "name": "NoActiveMerkleRoot",
      "type": "error"
    },
    {
      "inputs": [],
      "name": "NoPendingUnstakeRequest",
      "type": "error"
    },
    {
      "inputs": [],
      "name": "NotInitializing",
      "type": "error"
    },
    {
      "inputs": [
        {
          "internalType": "address",
          "name": "user",
          "type": "address"
        },
        {
          "internalType": "uint256",
          "name": "chainId",
          "type": "uint256"
        }
      ],
      "name": "NothingToClaim",
      "type": "error"
    },
    {
      "inputs": [],
      "name": "ProposedMerkleRootIsZero",
      "type": "error"
    },
    {
      "inputs": [],
      "name": "RedemptionAmountIsZero",
      "type": "error"
    },
    {
      "inputs": [],
      "name": "RedemptionIsNotStartedYet",
      "type": "error"
    },
    {
      "inputs": [],
      "name": "ReentrancyGuardReentrantCall",
      "type": "error"
    },
    {
      "inputs": [
        {
          "internalType": "enum LedgerToken",
          "name": "token",
          "type": "uint8"
        }
      ],
      "name": "StakingBalanceInsufficient",
      "type": "error"
    },
    {
      "inputs": [],
      "name": "StartTimestampIsInThePast",
      "type": "error"
    },
    {
      "inputs": [],
      "name": "ThisMerkleRootIsAlreadyProposed",
      "type": "error"
    },
    {
      "inputs": [],
      "name": "TokenIsNotSupportedForDistribution",
      "type": "error"
    },
    {
      "inputs": [],
      "name": "TooEarlyUsdcNetFeeRevenueUpdate",
      "type": "error"
    },
    {
      "inputs": [],
      "name": "UUPSUnauthorizedCallContext",
      "type": "error"
    },
    {
      "inputs": [
        {
          "internalType": "bytes32",
          "name": "slot",
          "type": "bytes32"
        }
      ],
      "name": "UUPSUnsupportedProxiableUUID",
      "type": "error"
    },
    {
      "inputs": [],
      "name": "UnlockTimeNotPassedYet",
      "type": "error"
    },
    {
      "inputs": [],
      "name": "UnsupportedPayloadType",
      "type": "error"
    },
    {
      "inputs": [],
      "name": "UnsupportedToken",
      "type": "error"
    },
    {
      "inputs": [
        {
          "internalType": "address",
          "name": "_user",
          "type": "address"
        },
        {
          "internalType": "uint256",
          "name": "_requestId",
          "type": "uint256"
        }
      ],
      "name": "UserDontHaveVestingRequest",
      "type": "error"
    },
    {
      "inputs": [],
      "name": "ValorEmissionAlreadyStarted",
      "type": "error"
    },
    {
      "inputs": [],
      "name": "ValorEmissionCouldNotStartInThePast",
      "type": "error"
    },
    {
      "inputs": [],
      "name": "VestingAmountIsZero",
      "type": "error"
    },
    {
      "inputs": [],
      "name": "VestingLinearPeriodIsZero",
      "type": "error"
    },
    {
      "inputs": [],
      "name": "VestingLockPeriodIsZero",
      "type": "error"
    },
    {
      "inputs": [],
      "name": "VestingLockPeriodNotPassed",
      "type": "error"
    },
    {
      "anonymous": false,
      "inputs": [
        {
          "indexed": true,
          "internalType": "uint16",
          "name": "batchId",
          "type": "uint16"
        }
      ],
      "name": "BatchPreparedToClaim",
      "type": "event"
    },
    {
      "anonymous": false,
      "inputs": [
        {
          "indexed": true,
          "internalType": "uint16",
          "name": "batchId",
          "type": "uint16"
        },
        {
          "indexed": false,
          "internalType": "uint256",
          "name": "fixedValorToUsdcRate",
          "type": "uint256"
        }
      ],
      "name": "BatchValorToUsdcRateIsFixed",
      "type": "event"
    },
    {
      "anonymous": false,
      "inputs": [
        {
          "indexed": true,
          "internalType": "uint256",
          "name": "timestamp",
          "type": "uint256"
        },
        {
          "indexed": false,
          "internalType": "uint256",
          "name": "usdcNetFeeRevenue",
          "type": "uint256"
        },
        {
          "indexed": false,
          "internalType": "uint256",
          "name": "totalUsdcInTreasure",
          "type": "uint256"
        },
        {
          "indexed": false,
          "internalType": "uint256",
          "name": "totalValorAmount",
          "type": "uint256"
        },
        {
          "indexed": false,
          "internalType": "uint256",
          "name": "valorToUsdcRateScaled",
          "type": "uint256"
        }
      ],
      "name": "DailyUsdcNetFeeRevenueUpdated",
      "type": "event"
    },
    {
      "anonymous": false,
      "inputs": [
        {
          "indexed": true,
          "internalType": "uint32",
          "name": "distributionId",
          "type": "uint32"
        },
        {
          "indexed": false,
          "internalType": "enum LedgerToken",
          "name": "token",
          "type": "uint8"
        },
        {
          "indexed": false,
          "internalType": "bytes32",
          "name": "merkleRoot",
          "type": "bytes32"
        },
        {
          "indexed": false,
          "internalType": "uint256",
          "name": "startTimestamp",
          "type": "uint256"
        },
        {
          "indexed": false,
          "internalType": "bytes",
          "name": "ipfsCid",
          "type": "bytes"
        }
      ],
      "name": "DistributionCreated",
      "type": "event"
    },
    {
      "anonymous": false,
      "inputs": [
        {
          "indexed": true,
          "internalType": "uint256",
          "name": "chainedEventId",
          "type": "uint256"
        },
        {
          "indexed": true,
          "internalType": "uint256",
          "name": "chainId",
          "type": "uint256"
        },
        {
          "indexed": true,
          "internalType": "address",
          "name": "staker",
          "type": "address"
        },
        {
          "indexed": false,
          "internalType": "uint256",
          "name": "amount",
          "type": "uint256"
        }
      ],
      "name": "EsOrderUnstake",
      "type": "event"
    },
    {
      "anonymous": false,
      "inputs": [
        {
          "indexed": false,
          "internalType": "uint64",
          "name": "version",
          "type": "uint64"
        }
      ],
      "name": "Initialized",
      "type": "event"
    },
    {
      "anonymous": false,
      "inputs": [
        {
          "indexed": true,
          "internalType": "address",
          "name": "staker",
          "type": "address"
        },
        {
          "indexed": false,
          "internalType": "uint256",
          "name": "totalUnstakedAmount",
          "type": "uint256"
        },
        {
          "indexed": false,
          "internalType": "uint256",
          "name": "unlockTimestamp",
          "type": "uint256"
        }
      ],
      "name": "OrderUnstakeAmount",
      "type": "event"
    },
    {
      "anonymous": false,
      "inputs": [
        {
          "indexed": true,
          "internalType": "uint256",
          "name": "chainedEventId",
          "type": "uint256"
        },
        {
          "indexed": true,
          "internalType": "uint256",
          "name": "chainId",
          "type": "uint256"
        },
        {
          "indexed": true,
          "internalType": "address",
          "name": "staker",
          "type": "address"
        },
        {
          "indexed": false,
          "internalType": "uint256",
          "name": "pendingOrderAmount",
          "type": "uint256"
        }
      ],
      "name": "OrderUnstakeCancelled",
      "type": "event"
    },
    {
      "anonymous": false,
      "inputs": [
        {
          "indexed": true,
          "internalType": "uint256",
          "name": "chainedEventId",
          "type": "uint256"
        },
        {
          "indexed": true,
          "internalType": "uint256",
          "name": "chainId",
          "type": "uint256"
        },
        {
          "indexed": true,
          "internalType": "address",
          "name": "staker",
          "type": "address"
        },
        {
          "indexed": false,
          "internalType": "uint256",
          "name": "amount",
          "type": "uint256"
        }
      ],
      "name": "OrderUnstakeRequested",
      "type": "event"
    },
    {
      "anonymous": false,
      "inputs": [
        {
          "indexed": true,
          "internalType": "uint256",
          "name": "chainedEventId",
          "type": "uint256"
        },
        {
          "indexed": true,
          "internalType": "uint256",
          "name": "chainId",
          "type": "uint256"
        },
        {
          "indexed": true,
          "internalType": "address",
          "name": "staker",
          "type": "address"
        },
        {
          "indexed": false,
          "internalType": "uint256",
          "name": "amount",
          "type": "uint256"
        }
      ],
      "name": "OrderWithdrawn",
      "type": "event"
    },
    {
      "anonymous": false,
      "inputs": [
        {
          "indexed": false,
          "internalType": "address",
          "name": "account",
          "type": "address"
        }
      ],
      "name": "Paused",
      "type": "event"
    },
    {
      "anonymous": false,
      "inputs": [
        {
          "indexed": true,
          "internalType": "uint256",
          "name": "chainedEventId",
          "type": "uint256"
        },
        {
          "indexed": true,
          "internalType": "uint256",
          "name": "chainId",
          "type": "uint256"
        },
        {
          "indexed": true,
          "internalType": "uint32",
          "name": "distributionId",
          "type": "uint32"
        },
        {
          "indexed": false,
          "internalType": "address",
          "name": "account",
          "type": "address"
        },
        {
          "indexed": false,
          "internalType": "uint256",
          "name": "amount",
          "type": "uint256"
        },
        {
          "indexed": false,
          "internalType": "enum LedgerToken",
          "name": "token",
          "type": "uint8"
        }
      ],
      "name": "RewardsClaimed",
      "type": "event"
    },
    {
      "anonymous": false,
      "inputs": [
        {
          "indexed": true,
          "internalType": "bytes32",
          "name": "role",
          "type": "bytes32"
        },
        {
          "indexed": true,
          "internalType": "bytes32",
          "name": "previousAdminRole",
          "type": "bytes32"
        },
        {
          "indexed": true,
          "internalType": "bytes32",
          "name": "newAdminRole",
          "type": "bytes32"
        }
      ],
      "name": "RoleAdminChanged",
      "type": "event"
    },
    {
      "anonymous": false,
      "inputs": [
        {
          "indexed": true,
          "internalType": "bytes32",
          "name": "role",
          "type": "bytes32"
        },
        {
          "indexed": true,
          "internalType": "address",
          "name": "account",
          "type": "address"
        },
        {
          "indexed": true,
          "internalType": "address",
          "name": "sender",
          "type": "address"
        }
      ],
      "name": "RoleGranted",
      "type": "event"
    },
    {
      "anonymous": false,
      "inputs": [
        {
          "indexed": true,
          "internalType": "bytes32",
          "name": "role",
          "type": "bytes32"
        },
        {
          "indexed": true,
          "internalType": "address",
          "name": "account",
          "type": "address"
        },
        {
          "indexed": true,
          "internalType": "address",
          "name": "sender",
          "type": "address"
        }
      ],
      "name": "RoleRevoked",
      "type": "event"
    },
    {
      "anonymous": false,
      "inputs": [
        {
          "indexed": true,
          "internalType": "uint32",
          "name": "distributionId",
          "type": "uint32"
        },
        {
          "indexed": false,
          "internalType": "bytes32",
          "name": "merkleRoot",
          "type": "bytes32"
        },
        {
          "indexed": false,
          "internalType": "uint256",
          "name": "startTimestamp",
          "type": "uint256"
        },
        {
          "indexed": false,
          "internalType": "bytes",
          "name": "ipfsCid",
          "type": "bytes"
        }
      ],
      "name": "RootProposed",
      "type": "event"
    },
    {
      "anonymous": false,
      "inputs": [
        {
          "indexed": true,
          "internalType": "uint32",
          "name": "distributionId",
          "type": "uint32"
        },
        {
          "indexed": false,
          "internalType": "bytes32",
          "name": "merkleRoot",
          "type": "bytes32"
        },
        {
          "indexed": false,
          "internalType": "uint256",
          "name": "startTimestamp",
          "type": "uint256"
        },
        {
          "indexed": false,
          "internalType": "bytes",
          "name": "ipfsCid",
          "type": "bytes"
        }
      ],
      "name": "RootUpdated",
      "type": "event"
    },
    {
      "anonymous": false,
      "inputs": [
        {
          "indexed": true,
          "internalType": "uint256",
          "name": "chainedEventId",
          "type": "uint256"
        },
        {
          "indexed": true,
          "internalType": "uint256",
          "name": "chainId",
          "type": "uint256"
        },
        {
          "indexed": true,
          "internalType": "address",
          "name": "staker",
          "type": "address"
        },
        {
          "indexed": false,
          "internalType": "uint256",
          "name": "amount",
          "type": "uint256"
        },
        {
          "indexed": false,
          "internalType": "enum LedgerToken",
          "name": "token",
          "type": "uint8"
        }
      ],
      "name": "Staked",
      "type": "event"
    },
    {
      "anonymous": false,
      "inputs": [
        {
          "indexed": false,
          "internalType": "uint256",
          "name": "totalUsdcInTreasure",
          "type": "uint256"
        },
        {
          "indexed": false,
          "internalType": "uint256",
          "name": "totalValorAmount",
          "type": "uint256"
        },
        {
          "indexed": false,
          "internalType": "uint256",
          "name": "valorToUsdcRateScaled",
          "type": "uint256"
        }
      ],
      "name": "TotalUsdcInTreasureUpdated",
      "type": "event"
    },
    {
      "anonymous": false,
      "inputs": [
        {
          "indexed": false,
          "internalType": "address",
          "name": "account",
          "type": "address"
        }
      ],
      "name": "Unpaused",
      "type": "event"
    },
    {
      "anonymous": false,
      "inputs": [
        {
          "indexed": true,
          "internalType": "address",
          "name": "implementation",
          "type": "address"
        }
      ],
      "name": "Upgraded",
      "type": "event"
    },
    {
      "anonymous": false,
      "inputs": [
        {
          "indexed": true,
          "internalType": "uint256",
          "name": "chainEventId",
          "type": "uint256"
        },
        {
          "indexed": true,
          "internalType": "uint256",
          "name": "chainId",
          "type": "uint256"
        },
        {
          "indexed": true,
          "internalType": "address",
          "name": "user",
          "type": "address"
        },
        {
          "indexed": false,
          "internalType": "uint256",
          "name": "usdcAmount",
          "type": "uint256"
        }
      ],
      "name": "UsdcRevenueClaimed",
      "type": "event"
    },
    {
      "anonymous": false,
      "inputs": [
        {
          "indexed": true,
          "internalType": "uint256",
          "name": "chainEventId",
          "type": "uint256"
        },
        {
          "indexed": true,
          "internalType": "uint256",
          "name": "chainId",
          "type": "uint256"
        },
        {
          "indexed": true,
          "internalType": "address",
          "name": "user",
          "type": "address"
        },
        {
          "indexed": false,
          "internalType": "uint16",
          "name": "batchId",
          "type": "uint16"
        },
        {
          "indexed": false,
          "internalType": "uint256",
          "name": "valorAmount",
          "type": "uint256"
        }
      ],
      "name": "ValorRedeemed",
      "type": "event"
    },
    {
      "anonymous": false,
      "inputs": [
        {
          "indexed": true,
          "internalType": "uint256",
          "name": "chainEventId",
          "type": "uint256"
        },
        {
          "indexed": true,
          "internalType": "uint256",
          "name": "chainId",
          "type": "uint256"
        },
        {
          "indexed": true,
          "internalType": "address",
          "name": "user",
          "type": "address"
        },
        {
          "indexed": false,
          "internalType": "uint256",
          "name": "requestId",
          "type": "uint256"
        },
        {
          "indexed": false,
          "internalType": "uint256",
          "name": "amountEsorderStakedBack",
          "type": "uint256"
        }
      ],
      "name": "VestingCanceled",
      "type": "event"
    },
    {
      "anonymous": false,
      "inputs": [
        {
          "indexed": true,
          "internalType": "uint256",
          "name": "chainEventId",
          "type": "uint256"
        },
        {
          "indexed": true,
          "internalType": "uint256",
          "name": "chainId",
          "type": "uint256"
        },
        {
          "indexed": true,
          "internalType": "address",
          "name": "user",
          "type": "address"
        },
        {
          "indexed": false,
          "internalType": "uint256",
          "name": "requestId",
          "type": "uint256"
        },
        {
          "indexed": false,
          "internalType": "uint256",
          "name": "amountEsorderBurned",
          "type": "uint256"
        },
        {
          "indexed": false,
          "internalType": "uint256",
          "name": "amountOrderVested",
          "type": "uint256"
        },
        {
          "indexed": false,
          "internalType": "uint256",
          "name": "vestedPeriod",
          "type": "uint256"
        }
      ],
      "name": "VestingClaimed",
      "type": "event"
    },
    {
      "anonymous": false,
      "inputs": [
        {
          "indexed": true,
          "internalType": "uint256",
          "name": "chainEventId",
          "type": "uint256"
        },
        {
          "indexed": true,
          "internalType": "uint256",
          "name": "chainId",
          "type": "uint256"
        },
        {
          "indexed": true,
          "internalType": "address",
          "name": "user",
          "type": "address"
        },
        {
          "indexed": false,
          "internalType": "uint256",
          "name": "requestId",
          "type": "uint256"
        },
        {
          "indexed": false,
          "internalType": "uint256",
          "name": "amountEsorderRequested",
          "type": "uint256"
        },
        {
          "indexed": false,
          "internalType": "uint256",
          "name": "unlockTimestamp",
          "type": "uint256"
        }
      ],
      "name": "VestingRequested",
      "type": "event"
    },
    {
      "inputs": [],
      "name": "DEFAULT_ADMIN_ROLE",
      "outputs": [
        {
          "internalType": "bytes32",
          "name": "",
          "type": "bytes32"
        }
      ],
      "stateMutability": "view",
      "type": "function"
    },
    {
      "inputs": [],
      "name": "ROOT_UPDATER_ROLE",
      "outputs": [
        {
          "internalType": "bytes32",
          "name": "",
          "type": "bytes32"
        }
      ],
      "stateMutability": "view",
      "type": "function"
    },
    {
      "inputs": [],
      "name": "TREASURE_UPDATER_ROLE",
      "outputs": [
        {
          "internalType": "bytes32",
          "name": "",
          "type": "bytes32"
        }
      ],
      "stateMutability": "view",
      "type": "function"
    },
    {
      "inputs": [],
      "name": "UPGRADE_INTERFACE_VERSION",
      "outputs": [
        {
          "internalType": "string",
          "name": "",
          "type": "string"
        }
      ],
      "stateMutability": "view",
      "type": "function"
    },
    {
      "inputs": [],
      "name": "VALOR_TO_USDC_RATE_PRECISION",
      "outputs": [
        {
          "internalType": "uint256",
          "name": "",
          "type": "uint256"
        }
      ],
      "stateMutability": "view",
      "type": "function"
    },
    {
      "inputs": [],
      "name": "VERSION",
      "outputs": [
        {
          "internalType": "string",
          "name": "",
          "type": "string"
        }
      ],
      "stateMutability": "pure",
      "type": "function"
    },
    {
      "inputs": [],
      "name": "accValorPerShareScaled",
      "outputs": [
        {
          "internalType": "uint256",
          "name": "",
          "type": "uint256"
        }
      ],
      "stateMutability": "view",
      "type": "function"
    },
    {
      "inputs": [],
      "name": "batchDuration",
      "outputs": [
        {
          "internalType": "uint256",
          "name": "",
          "type": "uint256"
        }
      ],
      "stateMutability": "view",
      "type": "function"
    },
    {
      "inputs": [
        {
          "internalType": "uint16",
          "name": "_batchId",
          "type": "uint16"
        }
      ],
      "name": "batchPreparedToClaim",
      "outputs": [],
      "stateMutability": "nonpayable",
      "type": "function"
    },
    {
      "inputs": [
        {
          "internalType": "uint256",
          "name": "",
          "type": "uint256"
        }
      ],
      "name": "batches",
      "outputs": [
        {
          "internalType": "bool",
          "name": "claimable",
          "type": "bool"
        },
        {
          "internalType": "uint256",
          "name": "redeemedValorAmount",
          "type": "uint256"
        },
        {
          "internalType": "uint256",
          "name": "fixedValorToUsdcRateScaled",
          "type": "uint256"
        }
      ],
      "stateMutability": "view",
      "type": "function"
    },
    {
      "inputs": [
        {
          "internalType": "address",
          "name": "_user",
          "type": "address"
        },
        {
          "internalType": "uint256",
          "name": "_requestId",
          "type": "uint256"
        }
      ],
      "name": "calculateVestingOrderAmount",
      "outputs": [
        {
          "internalType": "uint256",
          "name": "",
          "type": "uint256"
        }
      ],
      "stateMutability": "view",
      "type": "function"
    },
    {
      "inputs": [
        {
          "internalType": "uint32",
          "name": "_distributionId",
          "type": "uint32"
        }
      ],
      "name": "canUpdateRoot",
      "outputs": [
        {
          "internalType": "bool",
          "name": "",
          "type": "bool"
        }
      ],
      "stateMutability": "view",
      "type": "function"
    },
    {
      "inputs": [
        {
          "internalType": "address",
          "name": "",
          "type": "address"
        }
      ],
      "name": "collectedValor",
      "outputs": [
        {
          "internalType": "uint256",
          "name": "",
          "type": "uint256"
        }
      ],
      "stateMutability": "view",
      "type": "function"
    },
    {
      "inputs": [
        {
          "internalType": "uint32",
          "name": "_distributionId",
          "type": "uint32"
        },
        {
          "internalType": "enum LedgerToken",
          "name": "_token",
          "type": "uint8"
        },
        {
          "internalType": "bytes32",
          "name": "_merkleRoot",
          "type": "bytes32"
        },
        {
          "internalType": "uint256",
          "name": "_startTimestamp",
          "type": "uint256"
        },
        {
          "internalType": "bytes",
          "name": "_ipfsCid",
          "type": "bytes"
        }
      ],
      "name": "createDistribution",
      "outputs": [],
      "stateMutability": "nonpayable",
      "type": "function"
    },
    {
      "inputs": [
        {
          "components": [
            {
              "internalType": "bytes32",
              "name": "r",
              "type": "bytes32"
            },
            {
              "internalType": "bytes32",
              "name": "s",
              "type": "bytes32"
            },
            {
              "internalType": "uint8",
              "name": "v",
              "type": "uint8"
            },
            {
              "internalType": "uint256",
              "name": "value",
              "type": "uint256"
            },
            {
              "internalType": "uint64",
              "name": "timestamp",
              "type": "uint64"
            }
          ],
          "internalType": "struct LedgerSignedTypes.UintValueData",
          "name": "data",
          "type": "tuple"
        }
      ],
      "name": "dailyUsdcNetFeeRevenue",
      "outputs": [],
      "stateMutability": "nonpayable",
      "type": "function"
    },
    {
      "inputs": [
        {
          "internalType": "uint16",
          "name": "_batchId",
          "type": "uint16"
        }
      ],
      "name": "getBatchChainedValorAmount",
      "outputs": [
        {
          "components": [
            {
              "internalType": "uint256",
              "name": "chainId",
              "type": "uint256"
            },
            {
              "internalType": "uint256",
              "name": "amount",
              "type": "uint256"
            }
          ],
          "internalType": "struct Revenue.ChainedAmount[]",
          "name": "",
          "type": "tuple[]"
        }
      ],
      "stateMutability": "view",
      "type": "function"
    },
    {
      "inputs": [
        {
          "internalType": "uint16",
          "name": "_batchId",
          "type": "uint16"
        }
      ],
      "name": "getBatchInfo",
      "outputs": [
        {
          "internalType": "uint256",
          "name": "batchStartTime",
          "type": "uint256"
        },
        {
          "internalType": "uint256",
          "name": "batchEndTime",
          "type": "uint256"
        },
        {
          "internalType": "bool",
          "name": "claimable",
          "type": "bool"
        },
        {
          "internalType": "uint256",
          "name": "redeemedValorAmount",
          "type": "uint256"
        },
        {
          "internalType": "uint256",
          "name": "fixedValorToUsdcRateScaled",
          "type": "uint256"
        }
      ],
      "stateMutability": "view",
      "type": "function"
    },
    {
      "inputs": [
        {
          "internalType": "uint32",
          "name": "_distributionId",
          "type": "uint32"
        },
        {
          "internalType": "address",
          "name": "_user",
          "type": "address"
        }
      ],
      "name": "getClaimed",
      "outputs": [
        {
          "internalType": "uint256",
          "name": "",
          "type": "uint256"
        }
      ],
      "stateMutability": "view",
      "type": "function"
    },
    {
      "inputs": [],
      "name": "getCurrentBatchId",
      "outputs": [
        {
          "internalType": "uint16",
          "name": "",
          "type": "uint16"
        }
      ],
      "stateMutability": "view",
      "type": "function"
    },
    {
      "inputs": [
        {
          "internalType": "uint32",
          "name": "_distributionId",
          "type": "uint32"
        }
      ],
      "name": "getDistribution",
      "outputs": [
        {
          "internalType": "enum LedgerToken",
          "name": "token",
          "type": "uint8"
        },
        {
          "internalType": "bytes32",
          "name": "merkleRoot",
          "type": "bytes32"
        },
        {
          "internalType": "uint256",
          "name": "startTimestamp",
          "type": "uint256"
        },
        {
          "internalType": "bytes",
          "name": "ipfsCid",
          "type": "bytes"
        }
      ],
      "stateMutability": "view",
      "type": "function"
    },
    {
      "inputs": [
        {
          "internalType": "address",
          "name": "_user",
          "type": "address"
        }
      ],
      "name": "getOrderAvailableToWithdraw",
      "outputs": [
        {
          "internalType": "uint256",
          "name": "orderAmount",
          "type": "uint256"
        }
      ],
      "stateMutability": "view",
      "type": "function"
    },
    {
      "inputs": [
        {
          "internalType": "uint32",
          "name": "_distributionId",
          "type": "uint32"
        }
      ],
      "name": "getProposedRoot",
      "outputs": [
        {
          "internalType": "bytes32",
          "name": "merkleRoot",
          "type": "bytes32"
        },
        {
          "internalType": "uint256",
          "name": "startTimestamp",
          "type": "uint256"
        },
        {
          "internalType": "bytes",
          "name": "ipfsCid",
          "type": "bytes"
        }
      ],
      "stateMutability": "view",
      "type": "function"
    },
    {
      "inputs": [
        {
          "internalType": "bytes32",
          "name": "role",
          "type": "bytes32"
        }
      ],
      "name": "getRoleAdmin",
      "outputs": [
        {
          "internalType": "bytes32",
          "name": "",
          "type": "bytes32"
        }
      ],
      "stateMutability": "view",
      "type": "function"
    },
    {
      "inputs": [
        {
          "internalType": "address",
          "name": "_user",
          "type": "address"
        }
      ],
      "name": "getStakingInfo",
      "outputs": [
        {
          "internalType": "uint256",
          "name": "orderBalance",
          "type": "uint256"
        },
        {
          "internalType": "uint256",
          "name": "esOrderBalance",
          "type": "uint256"
        }
      ],
      "stateMutability": "view",
      "type": "function"
    },
    {
      "inputs": [],
      "name": "getTotalValorAmount",
      "outputs": [
        {
          "internalType": "uint256",
          "name": "",
          "type": "uint256"
        }
      ],
      "stateMutability": "view",
      "type": "function"
    },
    {
      "inputs": [],
      "name": "getTotalValorEmitted",
      "outputs": [
        {
          "internalType": "uint256",
          "name": "",
          "type": "uint256"
        }
      ],
      "stateMutability": "view",
      "type": "function"
    },
    {
      "inputs": [
        {
          "internalType": "uint16",
          "name": "_batchId",
          "type": "uint16"
        }
      ],
      "name": "getUsdcAmountForBatch",
      "outputs": [
        {
          "components": [
            {
              "internalType": "uint256",
              "name": "chainId",
              "type": "uint256"
            },
            {
              "internalType": "uint256",
              "name": "amount",
              "type": "uint256"
            }
          ],
          "internalType": "struct Revenue.ChainedAmount[]",
          "name": "chainedUsdcAmount",
          "type": "tuple[]"
        }
      ],
      "stateMutability": "view",
      "type": "function"
    },
    {
      "inputs": [
        {
          "internalType": "address",
          "name": "_user",
          "type": "address"
        }
      ],
      "name": "getUserValor",
      "outputs": [
        {
          "internalType": "uint256",
          "name": "",
          "type": "uint256"
        }
      ],
      "stateMutability": "view",
      "type": "function"
    },
    {
      "inputs": [
        {
          "internalType": "address",
          "name": "_user",
          "type": "address"
        }
      ],
      "name": "getUserVestingRequests",
      "outputs": [
        {
          "components": [
            {
              "internalType": "uint256",
              "name": "requestId",
              "type": "uint256"
            },
            {
              "internalType": "uint256",
              "name": "esOrderAmount",
              "type": "uint256"
            },
            {
              "internalType": "uint256",
              "name": "unlockTimestamp",
              "type": "uint256"
            }
          ],
          "internalType": "struct Vesting.VestingRequest[]",
          "name": "",
          "type": "tuple[]"
        }
      ],
      "stateMutability": "view",
      "type": "function"
    },
    {
      "inputs": [
        {
          "internalType": "bytes32",
          "name": "role",
          "type": "bytes32"
        },
        {
          "internalType": "address",
          "name": "account",
          "type": "address"
        }
      ],
      "name": "grantRole",
      "outputs": [],
      "stateMutability": "nonpayable",
      "type": "function"
    },
    {
      "inputs": [
        {
          "internalType": "uint32",
          "name": "_distributionId",
          "type": "uint32"
        }
      ],
      "name": "hasPendingRoot",
      "outputs": [
        {
          "internalType": "bool",
          "name": "",
          "type": "bool"
        }
      ],
      "stateMutability": "view",
      "type": "function"
    },
    {
      "inputs": [
        {
          "internalType": "bytes32",
          "name": "role",
          "type": "bytes32"
        },
        {
          "internalType": "address",
          "name": "account",
          "type": "address"
        }
      ],
      "name": "hasRole",
      "outputs": [
        {
          "internalType": "bool",
          "name": "",
          "type": "bool"
        }
      ],
      "stateMutability": "view",
      "type": "function"
    },
    {
      "inputs": [
        {
          "internalType": "address",
          "name": "_owner",
          "type": "address"
        },
        {
          "internalType": "address",
          "name": "_occAdaptor",
          "type": "address"
        },
        {
          "internalType": "uint256",
          "name": "_valorPerSecond",
          "type": "uint256"
        },
        {
          "internalType": "uint256",
          "name": "_maximumValorEmission",
          "type": "uint256"
        }
      ],
      "name": "initialize",
      "outputs": [],
      "stateMutability": "nonpayable",
      "type": "function"
    },
    {
      "inputs": [
        {
          "internalType": "uint32",
          "name": "_distributionId",
          "type": "uint32"
        }
      ],
      "name": "isDistributionRecordBased",
      "outputs": [
        {
          "internalType": "bool",
          "name": "",
          "type": "bool"
        }
      ],
      "stateMutability": "view",
      "type": "function"
    },
    {
      "inputs": [],
      "name": "lastUsdcNetFeeRevenueUpdateTimestamp",
      "outputs": [
        {
          "internalType": "uint256",
          "name": "",
          "type": "uint256"
        }
      ],
      "stateMutability": "view",
      "type": "function"
    },
    {
      "inputs": [],
      "name": "lastValorUpdateTimestamp",
      "outputs": [
        {
          "internalType": "uint256",
          "name": "",
          "type": "uint256"
        }
      ],
      "stateMutability": "view",
      "type": "function"
    },
    {
      "inputs": [
        {
          "components": [
            {
              "internalType": "uint256",
              "name": "chainedEventId",
              "type": "uint256"
            },
            {
              "internalType": "uint256",
              "name": "srcChainId",
              "type": "uint256"
            },
            {
              "internalType": "enum LedgerToken",
              "name": "token",
              "type": "uint8"
            },
            {
              "internalType": "uint256",
              "name": "tokenAmount",
              "type": "uint256"
            },
            {
              "internalType": "address",
              "name": "sender",
              "type": "address"
            },
            {
              "internalType": "uint8",
              "name": "payloadType",
              "type": "uint8"
            },
            {
              "internalType": "bytes",
              "name": "payload",
              "type": "bytes"
            }
          ],
          "internalType": "struct OCCVaultMessage",
          "name": "message",
          "type": "tuple"
        }
      ],
      "name": "ledgerRecvFromVault",
      "outputs": [],
      "stateMutability": "nonpayable",
      "type": "function"
    },
    {
      "inputs": [],
      "name": "maximumValorEmission",
      "outputs": [
        {
          "internalType": "uint256",
          "name": "",
          "type": "uint256"
        }
      ],
      "stateMutability": "view",
      "type": "function"
    },
    {
      "inputs": [],
      "name": "occAdaptor",
      "outputs": [
        {
          "internalType": "address",
          "name": "",
          "type": "address"
        }
      ],
      "stateMutability": "view",
      "type": "function"
    },
    {
      "inputs": [],
      "name": "pause",
      "outputs": [],
      "stateMutability": "nonpayable",
      "type": "function"
    },
    {
      "inputs": [],
      "name": "paused",
      "outputs": [
        {
          "internalType": "bool",
          "name": "",
          "type": "bool"
        }
      ],
      "stateMutability": "view",
      "type": "function"
    },
    {
      "inputs": [
        {
          "internalType": "uint32",
          "name": "_distributionId",
          "type": "uint32"
        },
        {
          "internalType": "bytes32",
          "name": "_merkleRoot",
          "type": "bytes32"
        },
        {
          "internalType": "uint256",
          "name": "_startTimestamp",
          "type": "uint256"
        },
        {
          "internalType": "bytes",
          "name": "_ipfsCid",
          "type": "bytes"
        }
      ],
      "name": "proposeRoot",
      "outputs": [],
      "stateMutability": "nonpayable",
      "type": "function"
    },
    {
      "inputs": [],
      "name": "proxiableUUID",
      "outputs": [
        {
          "internalType": "bytes32",
          "name": "",
          "type": "bytes32"
        }
      ],
      "stateMutability": "view",
      "type": "function"
    },
    {
      "inputs": [
        {
          "internalType": "bytes32",
          "name": "role",
          "type": "bytes32"
        },
        {
          "internalType": "address",
          "name": "callerConfirmation",
          "type": "address"
        }
      ],
      "name": "renounceRole",
      "outputs": [],
      "stateMutability": "nonpayable",
      "type": "function"
    },
    {
      "inputs": [
        {
          "internalType": "bytes32",
          "name": "role",
          "type": "bytes32"
        },
        {
          "internalType": "address",
          "name": "account",
          "type": "address"
        }
      ],
      "name": "revokeRole",
      "outputs": [],
      "stateMutability": "nonpayable",
      "type": "function"
    },
    {
      "inputs": [
        {
          "internalType": "address",
          "name": "_occAdaptor",
          "type": "address"
        }
      ],
      "name": "setOccAdaptor",
      "outputs": [],
      "stateMutability": "nonpayable",
      "type": "function"
    },
    {
      "inputs": [
        {
          "internalType": "uint256",
          "name": "_totalUsdcInTreasure",
          "type": "uint256"
        }
      ],
      "name": "setTotalUsdcInTreasure",
      "outputs": [],
      "stateMutability": "nonpayable",
      "type": "function"
    },
    {
      "inputs": [
        {
          "internalType": "address",
          "name": "_usdcUpdaterAddress",
          "type": "address"
        }
      ],
      "name": "setUsdcUpdaterAddress",
      "outputs": [],
      "stateMutability": "nonpayable",
      "type": "function"
    },
    {
      "inputs": [
        {
          "internalType": "uint256",
          "name": "_valorEmissionStartTimestamp",
          "type": "uint256"
        }
      ],
      "name": "setValorEmissionStartTimestamp",
      "outputs": [],
      "stateMutability": "nonpayable",
      "type": "function"
    },
    {
      "inputs": [
        {
          "internalType": "uint256",
          "name": "",
          "type": "uint256"
        }
      ],
      "name": "srcChainIdToEventId",
      "outputs": [
        {
          "internalType": "uint256",
          "name": "",
          "type": "uint256"
        }
      ],
      "stateMutability": "view",
      "type": "function"
    },
    {
      "inputs": [
        {
          "internalType": "bytes4",
          "name": "interfaceId",
          "type": "bytes4"
        }
      ],
      "name": "supportsInterface",
      "outputs": [
        {
          "internalType": "bool",
          "name": "",
          "type": "bool"
        }
      ],
      "stateMutability": "view",
      "type": "function"
    },
    {
      "inputs": [],
      "name": "totalStakedAmount",
      "outputs": [
        {
          "internalType": "uint256",
          "name": "",
          "type": "uint256"
        }
      ],
      "stateMutability": "view",
      "type": "function"
    },
    {
      "inputs": [],
      "name": "totalUsdcInTreasure",
      "outputs": [
        {
          "internalType": "uint256",
          "name": "",
          "type": "uint256"
        }
      ],
      "stateMutability": "view",
      "type": "function"
    },
    {
      "inputs": [],
      "name": "totalValorRedeemed",
      "outputs": [
        {
          "internalType": "uint256",
          "name": "",
          "type": "uint256"
        }
      ],
      "stateMutability": "view",
      "type": "function"
    },
    {
      "inputs": [],
      "name": "unpause",
      "outputs": [],
      "stateMutability": "nonpayable",
      "type": "function"
    },
    {
      "inputs": [],
      "name": "unstakeLockPeriod",
      "outputs": [
        {
          "internalType": "uint256",
          "name": "",
          "type": "uint256"
        }
      ],
      "stateMutability": "view",
      "type": "function"
    },
    {
      "inputs": [
        {
          "internalType": "uint32",
          "name": "_distributionId",
          "type": "uint32"
        }
      ],
      "name": "updateRoot",
      "outputs": [],
      "stateMutability": "nonpayable",
      "type": "function"
    },
    {
      "inputs": [],
      "name": "updateValorVars",
      "outputs": [],
      "stateMutability": "nonpayable",
      "type": "function"
    },
    {
      "inputs": [
        {
          "internalType": "address",
          "name": "newImplementation",
          "type": "address"
        },
        {
          "internalType": "bytes",
          "name": "data",
          "type": "bytes"
        }
      ],
      "name": "upgradeToAndCall",
      "outputs": [],
      "stateMutability": "payable",
      "type": "function"
    },
    {
      "inputs": [],
      "name": "usdcUpdaterAddress",
      "outputs": [
        {
          "internalType": "address",
          "name": "",
          "type": "address"
        }
      ],
      "stateMutability": "view",
      "type": "function"
    },
    {
      "inputs": [
        {
          "internalType": "address",
          "name": "",
          "type": "address"
        }
      ],
      "name": "userPendingUnstake",
      "outputs": [
        {
          "internalType": "uint256",
          "name": "balanceOrder",
          "type": "uint256"
        },
        {
          "internalType": "uint256",
          "name": "unlockTimestamp",
          "type": "uint256"
        }
      ],
      "stateMutability": "view",
      "type": "function"
    },
    {
      "inputs": [
        {
          "internalType": "address",
          "name": "_user",
          "type": "address"
        }
      ],
      "name": "userTotalStakingBalance",
      "outputs": [
        {
          "internalType": "uint256",
          "name": "",
          "type": "uint256"
        }
      ],
      "stateMutability": "view",
      "type": "function"
    },
    {
      "inputs": [],
      "name": "valorEmissionStartTimestamp",
      "outputs": [
        {
          "internalType": "uint256",
          "name": "",
          "type": "uint256"
        }
      ],
      "stateMutability": "view",
      "type": "function"
    },
    {
      "inputs": [],
      "name": "valorPerSecond",
      "outputs": [
        {
          "internalType": "uint256",
          "name": "",
          "type": "uint256"
        }
      ],
      "stateMutability": "view",
      "type": "function"
    },
    {
      "inputs": [],
      "name": "valorToUsdcRateScaled",
      "outputs": [
        {
          "internalType": "uint256",
          "name": "",
          "type": "uint256"
        }
      ],
      "stateMutability": "view",
      "type": "function"
    },
    {
      "inputs": [],
      "name": "vestingLinearPeriod",
      "outputs": [
        {
          "internalType": "uint256",
          "name": "",
          "type": "uint256"
        }
      ],
      "stateMutability": "view",
      "type": "function"
    },
    {
      "inputs": [],
      "name": "vestingLockPeriod",
      "outputs": [
        {
          "internalType": "uint256",
          "name": "",
          "type": "uint256"
        }
      ],
      "stateMutability": "view",
      "type": "function"
    }
  ],
  "transactionHash": "0xe3b36874b0262c9f20ba1c7104118770795cf7a05af6ec0d336da127ce4fc579",
  "args": [],
  "numDeployments": 1,
  "solcInputHash": "1653b378dd476e07c97d240d3d640e87",
  "bytecode": "0x60a0604052306080523480156200001557600080fd5b506200002062000026565b620000da565b7ff0c57e16840df040f15088dc2f81fe391c3923bec73e23a9662efc9c229c6a00805468010000000000000000900460ff1615620000775760405163f92ee8a960e01b815260040160405180910390fd5b80546001600160401b0390811614620000d75780546001600160401b0319166001600160401b0390811782556040519081527fc7f505b2f371ae2175ee4913f4499e1f2633a7b5936321eed1cdaeb6115181d29060200160405180910390a15b50565b608051615bba62000104600039600081816123d0015281816123f90152612fc30152615bba6000f3fe6080604052600436106103e45760003560e01c80638456cb5911610208578063b2077fe811610118578063d547741f116100ab578063e7bacc301161007a578063e7bacc3014610c72578063eb990c5914610c92578063ec81bf9314610cb2578063f5a634ef14610cc8578063ffa1ad7414610ce857600080fd5b8063d547741f14610bf2578063d84aaaff14610c12578063d9ab2c5c14610c28578063e720ac8e14610c4a57600080fd5b8063ba7a2a49116100e7578063ba7a2a4914610b68578063caefe41314610b88578063ccd4cf1214610bbc578063d0c01ccd14610bd257600080fd5b8063b2077fe814610acf578063b32c4d8d14610aff578063b42ea79a14610b3c578063b62a7d8014610b5257600080fd5b80639c9563a21161019b578063a217fddf1161016a578063a217fddf14610a08578063a2c7d9ae14610a1d578063aa4704f314610a3d578063ab7b18be14610a7b578063ad3cb1cc14610a9157600080fd5b80639c9563a2146109735780639d91c0e7146109895780639def3f1a146109a9578063a0cd44c3146109bf57600080fd5b8063909d1909116101d7578063909d19091461090757806391d148541461091d578063934012161461093d5780639aefd8861461095d57600080fd5b80638456cb5914610885578063892735ed1461089a5780638e9a2dd2146108ba57806390999c4f146108da57600080fd5b80634d1d882a116103035780635b97527f116102965780636b1f8c0d116102655780636b1f8c0d146107e557806373250c081461080557806374ae2e2e1461081b5780637cef68921461083b5780637d143b521461085057600080fd5b80635b97527f146107605780635c975abb1461078057806364f4463c146107a557806367dfb317146107c557600080fd5b806352580b5a116102d257806352580b5a146106f557806352d1902d14610715578063562a54f81461072a578063567e98f91461074a57600080fd5b80634d1d882a146106445780634f1ef286146106735780634f60032e14610686578063521c9527146106d557600080fd5b80632f2ff15d1161037b5780633f4ba83a1161034a5780633f4ba83a146105c1578063415a483f146105d6578063443c9623146105eb57806349c99b721461062457600080fd5b80632f2ff15d1461053257806330b667a61461055457806336568abe146105815780633cef26ec146105a157600080fd5b806326bf1c03116103b757806326bf1c031461048e57806328a9fdec146104a457806328bcd70e146104ef5780632c3a2e971461050557600080fd5b806301ffc9a7146103e95780630877bc851461041e5780630b24ea0e1461044b578063248a9ca31461046e575b600080fd5b3480156103f557600080fd5b50610409610404366004614cf0565b610d16565b60405190151581526020015b60405180910390f35b34801561042a57600080fd5b5061043e610439366004614d1a565b610d4d565b6040516104159190614d3e565b34801561045757600080fd5b50610460610dcc565b604051908152602001610415565b34801561047a57600080fd5b50610460610489366004614d8d565b610de8565b34801561049a57600080fd5b5061046060815481565b3480156104b057600080fd5b506104606104bf366004614dd4565b63ffffffff82166000908152600d602090815260408083206001600160a01b038516845290915290205492915050565b3480156104fb57600080fd5b5061046060465481565b34801561051157600080fd5b50610525610520366004614e09565b610e0a565b6040516104159190614e24565b34801561053e57600080fd5b5061055261054d366004614e70565b610e95565b005b34801561056057600080fd5b5061046061056f366004614e09565b60416020526000908152604090205481565b34801561058d57600080fd5b5061055261059c366004614e70565b610eb7565b3480156105ad57600080fd5b506104606105bc366004614e93565b610eef565b3480156105cd57600080fd5b50610552610f2c565b3480156105e257600080fd5b50610552610f42565b3480156105f757600080fd5b5061011e5461060c906001600160a01b031681565b6040516001600160a01b039091168152602001610415565b34801561063057600080fd5b5061055261063f366004614e09565b610f6b565b34801561065057600080fd5b5061066461065f366004614ebd565b610fa1565b60405161041593929190614f2a565b610552610681366004615048565b611064565b34801561069257600080fd5b506106a66106a1366004614d1a565b611083565b604051610415959493929190948552602085019390935290151560408401526060830152608082015260a00190565b3480156106e157600080fd5b506105526106f03660046150b5565b611109565b34801561070157600080fd5b50610460610710366004614e09565b611432565b34801561072157600080fd5b50610460611473565b34801561073657600080fd5b50610552610745366004614e09565b611491565b34801561075657600080fd5b50610460607f5481565b34801561076c57600080fd5b5061055261077b366004614d1a565b6114c0565b34801561078c57600080fd5b50600080516020615b658339815191525460ff16610409565b3480156107b157600080fd5b506104606107c0366004614e09565b611582565b3480156107d157600080fd5b506105526107e0366004614d8d565b6115ae565b3480156107f157600080fd5b50610409610800366004614ebd565b611610565b34801561081157600080fd5b5061046060475481565b34801561082757600080fd5b5061043e610836366004614d1a565b61164e565b34801561084757600080fd5b50610460611748565b34801561085c57600080fd5b5061040961086b366004614ebd565b63ffffffff166000908152600c6020526040902054151590565b34801561089157600080fd5b5061055261175f565b3480156108a657600080fd5b506104096108b5366004614ebd565b611772565b3480156108c657600080fd5b506105526108d53660046151ba565b6117a7565b3480156108e657600080fd5b506104606108f5366004614d8d565b60056020526000908152604090205481565b34801561091357600080fd5b5061046060425481565b34801561092957600080fd5b50610409610938366004614e70565b6117ea565b34801561094957600080fd5b50610552610958366004615223565b611822565b34801561096957600080fd5b5061046060eb5481565b34801561097f57600080fd5b5061046060b65481565b34801561099557600080fd5b506105526109a4366004614d8d565b6119f2565b3480156109b557600080fd5b5061046060485481565b3480156109cb57600080fd5b506109f36109da366004614e09565b607e602052600090815260409020805460019091015482565b60408051928352602083019190915201610415565b348015610a1457600080fd5b50610460600081565b348015610a2957600080fd5b50610460610a38366004614e09565b611a63565b348015610a4957600080fd5b506109f3610a58366004614e09565b6001600160a01b03166000908152607d6020526040902080546001909101549091565b348015610a8757600080fd5b5061046060495481565b348015610a9d57600080fd5b50610ac2604051806040016040528060058152602001640352e302e360dc1b81525081565b604051610415919061529c565b348015610adb57600080fd5b50610aef610aea366004614ebd565b611a8c565b60405161041594939291906152e7565b348015610b0b57600080fd5b50610b1f610b1a366004614d8d565b611c3c565b604080519315158452602084019290925290820152606001610415565b348015610b4857600080fd5b5061046060455481565b348015610b5e57600080fd5b5061046060ea5481565b348015610b7457600080fd5b50610552610b8336600461531d565b611c73565b348015610b9457600080fd5b506104607fd4633f2ee6e04337d84b8278c3b807b75336f88e5e4656e625419ef1258e9af181565b348015610bc857600080fd5b5061046060805481565b348015610bde57600080fd5b506104606b033b2e3c9fd0803ce800000081565b348015610bfe57600080fd5b50610552610c0d366004614e70565b611c84565b348015610c1e57600080fd5b5061046060435481565b348015610c3457600080fd5b50610460600080516020615b0583398151915281565b348015610c5657600080fd5b50610c5f611ca0565b60405161ffff9091168152602001610415565b348015610c7e57600080fd5b50610552610c8d366004614ebd565b611ce8565b348015610c9e57600080fd5b50610552610cad366004615335565b611df1565b348015610cbe57600080fd5b50610460604a5481565b348015610cd457600080fd5b5060405461060c906001600160a01b031681565b348015610cf457600080fd5b50604080518082019091526005815264189718171960d91b6020820152610ac2565b60006001600160e01b03198216637965db0b60e01b1480610d4757506301ffc9a760e01b6001600160e01b03198316145b92915050565b6060610d5882611f5d565b600301805480602002602001604051908101604052809291908181526020016000905b82821015610dc157838290600052602060002090600202016040518060400160405290816000820154815260200160018201548152505081526020019060010190610d7b565b505050509050919050565b6000610dd6611fb2565b604454610de3919061538d565b905090565b6000908152600080516020615b45833981519152602052604090206001015490565b6001600160a01b038116600090815260e960209081526040808320600101805482518185028101850190935280835260609492939192909184015b82821015610dc15783829060005260206000209060030201604051806060016040529081600082015481526020016001820154815260200160028201548152505081526020019060010190610e45565b610e9e82610de8565b610ea781612010565b610eb1838361201a565b50505050565b6001600160a01b0381163314610ee05760405163334bd91960e11b815260040160405180910390fd5b610eea82826120bf565b505050565b6000610f25610efe848461213b565b60408051606081018252825481526001830154602082015260029092015490820152612220565b9392505050565b6000610f3781612010565b610f3f6122af565b50565b610f4a61230f565b6000610f54612342565b90508015610f3f57610f658161237a565b60805550565b610f7361230f565b6000610f7e81612010565b50604080546001600160a01b0319166001600160a01b0392909216919091179055565b63ffffffff81166000908152600c60205260408120805460018201546002909201805484936060939290918190610fd7906153a0565b80601f0160208091040260200160405190810160405280929190818152602001828054611003906153a0565b80156110505780601f1061102557610100808354040283529160200191611050565b820191906000526020600020905b81548152906001019060200180831161103357829003601f168201915b505050505090509250925092509193909250565b61106c6123c5565b6110758261246a565b61107f8282612475565b5050565b600080600080600060b6548661ffff1661109d91906153d4565b6048546110aa919061538d565b945060b654856110ba919061538d565b60b45490945061ffff871610156110f65760006110d687611f5d565b8054600182015460029092015460ff909116955090935091506111009050565b5060009150819050805b91939590929450565b61011e546001600160a01b0316331461115a5760405162461bcd60e51b815260206004820152600e60248201526d27b7363ca7a1a1a0b230b83a37b960911b60448201526064015b60405180910390fd5b60a081015160ff166111a45760008160c0015180602001905181019061118091906153eb565b80516080840151845160208087015190850151604086015195965061107f95612532565b600160ff168160a0015160ff16036111d757610f3f8160800151826000015183602001518460400151856060015161264f565b600260ff168160a0015160ff160361121d5760008160c00151806020019051810190611203919061551b565b608083015183516020850151835193945061107f9361279c565b600360ff168160a0015160ff16036112465761107f81608001518260000151836020015161297e565b600460ff168160a0015160ff160361126f57610f3f816080015182600001518360200151612afe565b600560ff168160a0015160ff16036112b55760008160c0015180602001905181019061129b919061551b565b608083015183516020850151835193945061107f93612bcd565b600660ff168160a0015160ff160361131d5760008160c001518060200190518101906112e1919061551b565b905060006113018360800151846000015185602001518560000151612be5565b9050610eea83608001518460000151856020015160018561264f565b600760ff168160a0015160ff1603611364576000611348826080015183600001518460200151612c75565b905061107f82608001518360000151846020015160018561264f565b600860ff168160a0015160ff16036113aa5760008160c00151806020019051810190611390919061551b565b608083015183516020850151835193945061107f93612e1d565b600960ff168160a0015160ff16036113f05760008160c001518060200190518101906113d6919061551b565b608083015183516020850151835193945061107f93612f57565b600a60ff168160a0015160ff160361141957610f3f816080015182600001518360200151612f6c565b604051634440024f60e01b815260040160405180910390fd5b6001600160a01b0381166000908152607e602052604081206001810154158061145e5750806001015442105b1561146c5750600092915050565b5492915050565b600061147d612fb8565b50600080516020615b258339815191525b90565b600061149c81612010565b5061011e80546001600160a01b0319166001600160a01b0392909216919091179055565b6114c861230f565b60006114d381612010565b6114db611ca0565b61ffff168261ffff161061150257604051637dd2cb5d60e11b815260040160405180910390fd5b600061150d83611f5d565b9050806002015460000361153457604051631957b3ff60e31b815260040160405180910390fd5b805460ff161561154357505050565b805460ff1916600117815560405161ffff8416907f6eac907c1eaf34119620cb19afb9703e14b837a593b2701476d771ce2250b13390600090a2505050565b6001600160a01b0381166000908152604160205260408120546115a483613001565b610d47919061538d565b6115b661230f565b60006115c181612010565b6048544211156115e457604051634c65ea0560e11b815260040160405180910390fd5b814211156116055760405163f0a6a15760e01b815260040160405180910390fd5b506048819055604955565b63ffffffff81166000908152600c602052604081205415158015610d4757505063ffffffff166000908152600c602052604090206001015442101590565b6060600061165b83611f5d565b6003810180546040805160208084028201810190925282815293945060009084015b828210156116c35783829060005260206000209060020201604051806040016040529081600082015481526020016001820154815250508152602001906001019061167d565b50505050915060005b8251811015611741576b033b2e3c9fd0803ce800000082600201548483815181106116f9576116f9615537565b60200260200101516020015161170f91906153d4565b6117199190615563565b83828151811061172b5761172b615537565b60209081029190910181015101526001016116cc565b5050919050565b6000604554611755610dcc565b610de39190615577565b600061176a81612010565b610f3f613030565b6000600163ffffffff83166000908152600b602052604090205460ff1660038111156117a0576117a06152af565b1492915050565b6117af61230f565b6117b7613079565b6117ce600080516020615b05833981519152612010565b6117db85858585856130c3565b6117e36132ce565b5050505050565b6000918252600080516020615b45833981519152602090815260408084206001600160a01b0393909316845291905290205460ff1690565b61182a61230f565b611832613079565b611849600080516020615b05833981519152612010565b63ffffffff86166000908152600b60205260409020600201541561188057604051630ed16a0560e31b815260040160405180910390fd5b6000856003811115611894576118946152af565b141580156118b4575060018560038111156118b1576118b16152af565b14155b156118d25760405163a24e5e1360e01b815260040160405180910390fd5b60405180604001604052808660038111156118ef576118ef6152af565b81526040805160608101825260008082526001602083810182905284518082018652838152848601529485019290925263ffffffff8b168152600b90935291208251815491929091839160ff1990911690836003811115611952576119526152af565b02179055506020820151816001016000820151816000015560208201518160010155604082015181600201908161198991906155d2565b50505090505061199c86858585856130c3565b8563ffffffff167f73abe366fa506a9b0fd0a71d141c93c00ac8ae17bdb4e183daf8a54f9485e13186868686866040516119da9594939291906156ba565b60405180910390a26119ea6132ce565b505050505050565b6119fa61230f565b6000611a0581612010565b6046829055611a126132f4565b7fa032eeb49fe502e13b030998efb945ccf3ff68ec5729dfcada07a1149dffa163604654611a3e611748565b6047546040805193845260208401929092529082015260600160405180910390a15050565b6001600160a01b0381166000908152607d6020526040812060018101549054610d47919061538d565b60008060006060611a9c85611610565b15611b715763ffffffff85166000908152600b6020908152604080832054600c909252909120805460018201546002909201805460ff909416939192918190611ae4906153a0565b80601f0160208091040260200160405190810160405280929190818152602001828054611b10906153a0565b8015611b5d5780601f10611b3257610100808354040283529160200191611b5d565b820191906000526020600020905b815481529060010190602001808311611b4057829003601f168201915b505050505090509350935093509350611c35565b63ffffffff85166000908152600b602052604090208054600182015460028301546003909301805460ff9093169391928190611bac906153a0565b80601f0160208091040260200160405190810160405280929190818152602001828054611bd8906153a0565b8015611c255780601f10611bfa57610100808354040283529160200191611c25565b820191906000526020600020905b815481529060010190602001808311611c0857829003601f168201915b5050505050905093509350935093505b9193509193565b60b48181548110611c4c57600080fd5b600091825260209091206004909102018054600182015460029092015460ff909116925083565b611c7c81613339565b610f3f613491565b611c8d82610de8565b611c9681612010565b610eb183836120bf565b6048546000904290811015611cc857604051635bf137b760e11b815260040160405180910390fd5b60b654604854611cd89083615577565b611ce29190615563565b91505090565b611cf061230f565b611cf981611610565b611d16576040516326175e1b60e21b815260040160405180910390fd5b63ffffffff81166000908152600c60209081526040808320600b90925290912081546001808301918255830154600280840191909155909160030190611d5e908401826156f2565b50505063ffffffff81166000908152600c602052604081208181556001810182905590611d8e6002830182614bc6565b505063ffffffff81166000818152600b6020526040908190206001810154600282015492517f43d2a184e3aaf126308f2331fae38de7ba49706274732ed39b7903d1b61757bd93611de69390916003909101906157c4565b60405180910390a250565b7ff0c57e16840df040f15088dc2f81fe391c3923bec73e23a9662efc9c229c6a008054600160401b810460ff1615906001600160401b0316600081158015611e365750825b90506000826001600160401b03166001148015611e525750303b155b905081158015611e60575080155b15611e7e5760405163f92ee8a960e01b815260040160405180910390fd5b845467ffffffffffffffff191660011785558315611ea857845460ff60401b1916600160401b1785555b611eb189613588565b611eba896135b3565b611ec58988886135d3565b611ed28962093a8061362a565b611edf8962127500613638565b611ef0896213c6806262e080613652565b61011e80546001600160a01b0319166001600160a01b038a161790558315611f5257845460ff60401b19168555604051600181527fc7f505b2f371ae2175ee4913f4499e1f2633a7b5936321eed1cdaeb6115181d29060200160405180910390a15b505050505050505050565b60b45460009061ffff831610611f86576040516305b7010560e51b815260040160405180910390fd5b60b48261ffff1681548110611f9d57611f9d615537565b90600052602060002090600402019050919050565b60006049544211611fc35750600090565b600060495442611fd39190615577565b905060425481611fe391906153d4565b915060435482604454611ff6919061538d565b111561200c57604454604354611ce29190615577565b5090565b610f3f81336136a8565b6000600080516020615b4583398151915261203584846117ea565b6120b5576000848152602082815260408083206001600160a01b03871684529091529020805460ff1916600117905561206b3390565b6001600160a01b0316836001600160a01b0316857f2f8788117e7eff1d82e926ec794901d17c78024a50270940304540a733656f0d60405160405180910390a46001915050610d47565b6000915050610d47565b6000600080516020615b458339815191526120da84846117ea565b156120b5576000848152602082815260408083206001600160a01b0387168085529252808320805460ff1916905551339287917ff6391f5c32d9c69d2a47ea670b442974b53935d1edc7fd64eb21e047a839171b9190a46001915050610d47565b6000805b6001600160a01b038416600090815260e960205260409020600101548110156121f4576001600160a01b038416600090815260e96020526040902060010180548491908390811061219257612192615537565b906000526020600020906003020160000154036121ec576001600160a01b038416600090815260e9602052604090206001018054829081106121d6576121d6615537565b9060005260206000209060030201915050610d47565b60010161213f565b50604051632b8e927b60e01b81526001600160a01b038416600482015260248101839052604401611151565b60008160200151600014806122385750816040015142105b1561224557506000919050565b60008260400151426122579190615577565b905060eb54811061226b5750506020015190565b600260eb5482856020015161228091906153d4565b61228a9190615563565b6122949190615563565b600284602001516122a59190615563565b610f25919061538d565b6122b76136e1565b600080516020615b65833981519152805460ff191681557f5db9ee0a495bf2e6ff9c91a7834c1ba4fdd244a5e8aa4e537bd38aeae4b073aa335b6040516001600160a01b03909116815260200160405180910390a150565b600080516020615b658339815191525460ff16156123405760405163d93c066560e01b815260040160405180910390fd5b565b600061234c61230f565b612354611fb2565b9050801561148e57806044600082825461236e919061538d565b90915550504260495590565b6000607f546000148061238b575081155b1561239857505060805490565b607f546123ae683635c9adc5dea00000846153d4565b6123b89190615563565b608054610d47919061538d565b306001600160a01b037f000000000000000000000000000000000000000000000000000000000000000016148061244c57507f00000000000000000000000000000000000000000000000000000000000000006001600160a01b0316612440600080516020615b25833981519152546001600160a01b031690565b6001600160a01b031614155b156123405760405163703e46dd60e11b815260040160405180910390fd5b600061107f81612010565b816001600160a01b03166352d1902d6040518163ffffffff1660e01b8152600401602060405180830381865afa9250505080156124cf575060408051601f3d908101601f191682019092526124cc91810190615863565b60015b6124f757604051634c9c8ce360e01b81526001600160a01b0383166004820152602401611151565b600080516020615b25833981519152811461252857604051632a87526960e21b815260048101829052602401611151565b610eea8383613711565b600080612543888888888888613767565b9150915080600014612645576001826003811115612563576125636152af565b0361257a57612575878787858561264f565b612645565b600082600381111561258e5761258e6152af565b03612645576040805160c08101825286815260006020808301919091528183018490526001600160a01b038a81166060840152600b608084015283518085018552600381526203078360ec1b9281019290925260a083019190915261011e5492516316369c1960e11b815291921690632c6d38329061261190849060040161587c565b600060405180830381600087803b15801561262b57600080fd5b505af115801561263f573d6000803e3d6000fd5b50505050505b5050505050505050565b612657613079565b61265f61230f565b80600003612680576040516310eb483f60e21b815260040160405180910390fd5b6001826003811115612694576126946152af565b11156126b35760405163350b944160e11b815260040160405180910390fd5b6126bc8561394d565b6001600160a01b0385166000908152607d6020526040902081908360038111156126e8576126e86152af565b600281106126f8576126f8615537565b016000828254612708919061538d565b909155506127179050856139c9565b6001600160a01b0386166000908152607d6020526040812060020191909155607f805483929061274890849061538d565b92505081905550846001600160a01b031683857f99f9c5a56f286a152d0b60bd8851853878e05bb243daeaf47f4c300015987916848660405161278c9291906158dd565b60405180910390a46117e36132ce565b6127a4613079565b6127ac61230f565b806000036127cd576040516310eb483f60e21b815260040160405180910390fd5b6001600160a01b0384166000908152607d602052604090205481111561280957600060405163348ee39760e11b815260040161115191906158f1565b6128128461394d565b6001600160a01b0384166000908152607d60205260408120805483929061283a908490615577565b909155506128499050846139c9565b6001600160a01b0385166000908152607d6020526040812060020191909155607f805483929061287a908490615577565b90915550506001600160a01b0384166000908152607e6020526040812080548392906128a790849061538d565b90915550506081546128b9904261538d565b6001600160a01b0385166000818152607e602052604090819020600101929092559051839085907f7956786f9c0614d721d7fd931301980a0399dfb0b38c81bafdfff0597c3290e49061290f9086815260200190565b60405180910390a46001600160a01b0384166000818152607e602052604090819020805460019091015491517f7c2a5998b04a0c7a7d3a1ac3a0add65ac29f4647966110e357c7aa42e5e7ca219261296e928252602082015260400190565b60405180910390a2610eb16132ce565b6000612988613079565b61299061230f565b6001600160a01b0384166000908152607e602052604081206001015490036129cb576040516365e134c160e11b815260040160405180910390fd5b6129d48461394d565b506001600160a01b0383166000908152607e6020908152604080832054607d9092528220805491928392612a0990849061538d565b90915550612a189050846139c9565b6001600160a01b0385166000908152607d6020526040812060020191909155607f8054839290612a4990849061538d565b92505081905550836001600160a01b031682847f45bc7039355216afb8dd7eb1bc73c6f9ebfcdf5b722d3b99055d05ce03847f6e84604051612a8d91815260200190565b60405180910390a46001600160a01b0384166000818152607e6020526040808220828155600101829055517f7c2a5998b04a0c7a7d3a1ac3a0add65ac29f4647966110e357c7aa42e5e7ca2191612aee918190918252602082015260400190565b60405180910390a2610f256132ce565b6000612b0b848484613a06565b90508015610eb1576040805160c0810182528381526000602082018190529181018390526001600160a01b038616606082015260808101600c5b60ff168152604080518082018252600381526203078360ec1b6020828101919091529092019190915261011e5490516316369c1960e11b81529192506001600160a01b031690632c6d383290612b9f90849060040161587c565b600060405180830381600087803b158015612bb957600080fd5b505af1158015611f52573d6000803e3d6000fd5b612bd984848484613af4565b610eb184848484613c2e565b6000612bef61230f565b612bf7613079565b6000612c03868461213b565b905080600101549150612c168682613d4d565b856001600160a01b031684867f3b3e48ba8b2a66a9706f50fc095a4fcb8f4c25da19c7a6aeab3df6a826d5bcd98686604051612c5c929190918252602082015260400190565b60405180910390a450612c6d6132ce565b949350505050565b6000612c7f61230f565b612c87613079565b6001600160a01b038416600090815260e96020908152604080832081518083018352815481526001820180548451818702810187019095528085529194929385840193909290879084015b82821015612d225783829060005260206000209060030201604051806060016040529081600082015481526020016001820154815260200160028201548152505081526020019060010190612cd2565b5050505081525050905060005b816020015151811015612de857600082602001518281518110612d5457612d54615537565b60200260200101516020015190508084612d6e919061538d565b9350866001600160a01b031685877f3b3e48ba8b2a66a9706f50fc095a4fcb8f4c25da19c7a6aeab3df6a826d5bcd986602001518681518110612db357612db3615537565b60200260200101516000015185604051612dd7929190918252602082015260400190565b60405180910390a450600101612d2f565b506001600160a01b038516600090815260e96020526040812081815590612e126001830182614c00565b505050610f256132ce565b600080612e2c86868686613e1f565b9150915081600014612eea576040805160c08101825285815260006020808301919091528183018590526001600160a01b038981166060840152600d608084015283518085018552600381526203078360ec1b9281019290925260a083019190915261011e5492516316369c1960e11b815291921690632c6d383290612eb690849060040161587c565b600060405180830381600087803b158015612ed057600080fd5b505af1158015612ee4573d6000803e3d6000fd5b50505050505b80156119ea5761011e5460405163a6df61f360e01b8152600481018390526001600160a01b039091169063a6df61f390602401600060405180830381600087803b158015612f3757600080fd5b505af1158015612f4b573d6000803e3d6000fd5b50505050505050505050565b612f608461394d565b610eb184848484613f29565b6000612f798484846140c2565b90508015610eb1576040805160c081018252838152600260208201529081018290526001600160a01b038516606082015260009060808101600e612b45565b306001600160a01b037f000000000000000000000000000000000000000000000000000000000000000016146123405760405163703e46dd60e11b815260040160405180910390fd5b6001600160a01b0381166000908152607d6020526040812060020154613026836139c9565b610d479190615577565b61303861230f565b600080516020615b65833981519152805460ff191660011781557f62e78cea01bee320cd4e420270b5ea74000d11b0c9f74754ebdbfc544b05a258336122f1565b7f9b779b17422d0df92223018b32b4d1fa46e071723d6817e2486d003becc55f008054600119016130bd57604051633ee5aeb560e01b815260040160405180910390fd5b60029055565b63ffffffff85166000908152600b60205260409020600201546130f957604051633a35c2f960e01b815260040160405180910390fd5b8361311757604051633f4b0e7b60e11b815260040160405180910390fd5b4283101561313857604051631b8e7db960e11b815260040160405180910390fd5b63ffffffff85166000908152600c602052604090205484148015613173575063ffffffff85166000908152600c602052604090206001015483145b80156131c2575063ffffffff85166000908152600c60205260409081902090516131a091600201906158ff565b604051809103902082826040516131b8929190615975565b6040518091039020145b156131e057604051630faec0d960e01b815260040160405180910390fd5b6131e985611610565b156131f7576131f785611ce8565b604051806060016040528085815260200184815260200183838080601f016020809104026020016040519081016040528093929190818152602001838380828437600092018290525093909452505063ffffffff88168152600c60209081526040918290208451815590840151600182015590830151909150600282019061327f90826155d2565b509050508463ffffffff167f58c769792f372f2700837a45ceeb881cdeeec998e18a3cb0895f5a4780f2f7d6858585856040516132bf9493929190615985565b60405180910390a25050505050565b60017f9b779b17422d0df92223018b32b4d1fa46e071723d6817e2486d003becc55f0055565b60006132fe611748565b9050801561333057806b033b2e3c9fd0803ce800000060465461332191906153d4565b61332b9190615563565b613333565b60005b60475550565b61334161230f565b7fd4633f2ee6e04337d84b8278c3b807b75336f88e5e4656e625419ef1258e9af161336b81612010565b60006103e861338060a08501608086016159bc565b61338a91906159d7565b9050604a5461a8c061339c919061538d565b816001600160401b031610156133c557604051636c8b246360e01b815260040160405180910390fd5b6133e86133d7368590038501856159fd565b6040546001600160a01b031661418e565b806001600160401b0316604a8190555082606001356046600082825461340e919061538d565b9091555061341c90506132f4565b61342c60a08401608085016159bc565b6001600160401b03167fbbd8342b1e1fe32712ce056fbd76edab76635724aa81f9f63cae57b5918fb4828460600135604654613466611748565b60475460408051948552602085019390935291830152606082015260800160405180910390a2505050565b61349961230f565b60485442106123405760006134ac611ca0565b90505b61ffff811615610f3f57806134c381615a77565b91505060006134d18261421c565b9050806002015460000361107f5760475460028201556001810154604580546000906134fe90849061538d565b9091555050600281015460018201546b033b2e3c9fd0803ce800000091613524916153d4565b61352e9190615563565b6046600082825461353f9190615577565b9091555050600281015460405190815261ffff8316907f605f4fc760dbfc8600370aa812edc813327cd01f0c909d737ae7cdd5397af3779060200160405180910390a2506134af565b613590614246565b61359861428f565b6135a0614297565b6135a86142a7565b61107f60008261201a565b6135bb614246565b61107f600080516020615b058339815191528261201a565b6135db614246565b6136057fd4633f2ee6e04337d84b8278c3b807b75336f88e5e4656e625419ef1258e9af18461201a565b506042829055604381905561361d426201518061538d565b6048819055604955505050565b613632614246565b60815550565b613640614246565b60b6555060b480546001018155600052565b61365a614246565b8160000361367b57604051631abc316360e21b815260040160405180910390fd5b8060000361369c57604051638c400e3b60e01b815260040160405180910390fd5b60ea9190915560eb5550565b6136b282826117ea565b61107f5760405163e2517d3f60e01b81526001600160a01b038216600482015260248101839052604401611151565b600080516020615b658339815191525460ff1661234057604051638dfc202b60e01b815260040160405180910390fd5b61371a826142b7565b6040516001600160a01b038316907fbc7cd75a20ee27fd9adebab32041f755214dbc6bffa90cc0225b39da2e5c2d3b90600090a280511561375f57610eea828261431c565b61107f614392565b60008061377261230f565b61377a613079565b61378388611610565b156137915761379188611ce8565b63ffffffff88166000908152600b60205260409020600201546137c757604051633a35c2f960e01b815260040160405180910390fd5b63ffffffff88166000908152600b6020526040902060010180546137fe576040516359bd390560e11b815260040160405180910390fd5b8054604080516001600160a01b038b16602082015290810187905260009060600160408051601f198184030181528282528051602091820120908301520160405160208183030381529060405280519060200120905061385f8683836143b1565b61387c5760405163582f497d60e11b815260040160405180910390fd5b50505063ffffffff88166000908152600d602090815260408083206001600160a01b038b1684529091529020546138b39085615577565b63ffffffff89166000908152600b6020908152604080832054600d83528184206001600160a01b038d16855290925290912086905560ff1692509050801561393a578763ffffffff1685877f44a849f31027c891cb7e817e7c8df6b1541f745395ba940daeec387b283f39ab8a858760405161393193929190615a95565b60405180910390a45b6139426132ce565b965096945050505050565b613955610f42565b600061396082613001565b9050801561107f576001600160a01b0382166000908152607d60205260408120600201805483929061399390849061538d565b90915550506001600160a01b038216600090815260416020526040812080548392906139c090849061538d565b90915550505050565b6000806139dc6139d7611fb2565b61237a565b9050683635c9adc5dea00000816139f285611a63565b6139fc91906153d4565b610f259190615563565b6000613a10613079565b613a1861230f565b6001600160a01b0384166000908152607e60205260408120600101549003613a53576040516365e134c160e11b815260040160405180910390fd5b6001600160a01b0384166000908152607e6020526040902060010154421015613a8f57604051638a27b5a160e01b815260040160405180910390fd5b506001600160a01b0383166000908152607e60205260409020548015613aec57836001600160a01b031682847f190e540afa0f1919c2b4de58858bd15ec79dde6231ca4b3be2cb0bde4eede0c784604051612a8d91815260200190565b610f256132ce565b613afc613079565b613b0461230f565b80600003613b25576040516310eb483f60e21b815260040160405180910390fd5b6001600160a01b0384166000908152607d602052604090208190600101541015613b6557600160405163348ee39760e11b815260040161115191906158f1565b613b6e8461394d565b6001600160a01b0384166000908152607d6020526040902081906001016000828254613b9a9190615577565b90915550613ba99050846139c9565b6001600160a01b0385166000908152607d6020526040812060020191909155607f8054839290613bda908490615577565b92505081905550836001600160a01b031682847f1fa0c4284b9958e80cb828a1863b89b2a40ff9dc4cdc149ac88490bc609a919584604051613c1e91815260200190565b60405180910390a4610eb16132ce565b613c3661230f565b613c3e613079565b80600003613c5f5760405163f7cb25ad60e01b815260040160405180910390fd5b6001600160a01b038416600090815260e96020908152604080832081516060810183528154815292830185905260ea5490939291820190613ca0904261538d565b905260018084018054808301825560009182526020808320855160039093020191825584015192810192909255604083015160029092019190915583549192508390613ceb83615ab9565b90915550508051604080830151815192835260208301869052908201526001600160a01b03871690859087907e3e50d6f730f8990dc97da68a86fea40220d3baa3f6689325a46beb5f5dc0f69060600160405180910390a45050610eb16132ce565b6001600160a01b038216600090815260e960205260408120600190810180549091613d7791615577565b81548110613d8757613d87615537565b600091825260208083206040805160608101825260039094029091018054808552600180830154868601819052600293840154878601819052928a5589820155918801556001600160a01b038816855260e990925290922090910180549192509080613df557613df5615ad2565b60008281526020812060036000199093019283020181815560018101829055600201559055505050565b600080613e2a61230f565b613e32613079565b6000613e3e878561213b565b90508060020154421015613e6557604051633eb55fa360e01b815260040160405180910390fd5b604080516060810182528254815260018301546020820152600283015491810191909152613e9290612220565b9250828160010154613ea49190615577565b9150866001600160a01b031685877f2f7d1a67d8436fa13ded14bf53703bed5c9b189232cd35530a5ce988bb55e40b87856001015488876002015442613eea9190615577565b60408051948552602085019390935291830152606082015260800160405180910390a4613f178782613d4d565b50613f206132ce565b94509492505050565b613f3161230f565b80600003613f5257604051631c26cb0b60e01b815260040160405180910390fd5b6001600160a01b038416600090815260416020526040902054811115613f8b5760405163043f8ee560e41b815260040160405180910390fd5b6001600160a01b03841660009081526041602052604081208054839290613fb3908490615577565b90915550613fc29050846143c7565b6000613fcc611ca0565b905081613fd88261421c565b6001016000828254613fea919061538d565b9091555060009050613ffc86836146b6565b90508261400c8260010186614818565b600101600082825461401e919061538d565b925050819055508261405760b48461ffff168154811061404057614040615537565b906000526020600020906004020160030186614818565b6001016000828254614069919061538d565b90915550506040805161ffff84168152602081018590526001600160a01b03881691869188917f6c16ad26e00ab1076e5532c6abddf1578121ec478b3129e556e064ff18de6229910160405180910390a4505050505050565b60006140cc61230f565b6140d5846143c7565b506001600160a01b038316600090815260b5602090815260408083208484529091528120549081900361412c5760405162d6360d60e11b81526001600160a01b038516600482015260248101839052604401611151565b6001600160a01b038416600081815260b5602090815260408083208684528252808320929092559051838152849186917f5160b630eaa30b010bf18a116a641cab7551c9bafdbd85748da5aaa421753a3c910160405180910390a49392505050565b61107f61420a836060015184608001516040516020016141c19291909182526001600160401b0316602082015260400190565b604051602081830303815290604052805190602001207f19457468657265756d205369676e6564204d6573736167653a0a3332000000006000908152601c91909152603c902090565b835160208501516040860151856148b3565b60005b60b45461ffff83161061423d5760b48054600101815560005261421f565b610d4782611f5d565b7ff0c57e16840df040f15088dc2f81fe391c3923bec73e23a9662efc9c229c6a0054600160401b900460ff1661234057604051631afcd79f60e31b815260040160405180910390fd5b612340614246565b61429f614246565b6123406148f0565b6142af614246565b6123406148f8565b806001600160a01b03163b6000036142ed57604051634c9c8ce360e01b81526001600160a01b0382166004820152602401611151565b600080516020615b2583398151915280546001600160a01b0319166001600160a01b0392909216919091179055565b6060600080846001600160a01b0316846040516143399190615ae8565b600060405180830381855af49150503d8060008114614374576040519150601f19603f3d011682016040523d82523d6000602084013e614379565b606091505b5091509150614389858383614919565b95945050505050565b34156123405760405163b398979f60e01b815260040160405180910390fd5b6000826143be8584614975565b14949350505050565b60005b6001600160a01b038216600090815260b5602052604090206001015481101561107f576001600160a01b038216600090815260b56020526040812060010180548390811061441a5761441a615537565b60009182526020909120600290910201805460b480549293509161ffff90911690811061444957614449615537565b600091825260209091206004909102015460ff16156146a25760005b600182015481101561456557600082600101828154811061448857614488615537565b906000526020600020906002020160000154905060008360010183815481106144b3576144b3615537565b60009182526020822060016002909202010154855460b480549294506b033b2e3c9fd0803ce800000092909161ffff169081106144f2576144f2615537565b9060005260206000209060040201600201548361450f91906153d4565b6145199190615563565b6001600160a01b038816600090815260b56020908152604080832087845290915281208054929350839290919061455190849061538d565b909155505060019093019250614465915050565b506001600160a01b038316600090815260b56020526040812060019081015461458e9190615577565b6001600160a01b038516600090815260b560205260409020600101805491925090829081106145bf576145bf615537565b906000526020600020906002020160b56000866001600160a01b03166001600160a01b03168152602001908152602001600020600101848154811061460657614606615537565b600091825260209091208254600290920201805461ffff191661ffff9092169190911781556001808301805461463f9284019190614c21565b5050506001600160a01b038416600090815260b56020526040902060010180548061466c5761466c615ad2565b600082815260208120600260001990930192830201805461ffff19168155906146986001830182614c7d565b50509055506146b0565b816146ac81615ab9565b9250505b506143ca565b6000805b6001600160a01b038416600090815260b56020526040902060010154811015614776576001600160a01b038416600090815260b560205260409020600101805461ffff851691908390811061471157614711615537565b600091825260209091206002909102015461ffff160361476e576001600160a01b038416600090815260b56020526040902060010180548290811061475857614758615537565b9060005260206000209060020201915050610d47565b6001016146ba565b506001600160a01b038316600090815260b56020526040902060019081018054918201808255849190839081106147af576147af615537565b60009182526020808320600292909202909101805461ffff191661ffff94909416939093179092556001600160a01b038616815260b59091526040902060010180548290811061480157614801615537565b906000526020600020906002020191505092915050565b6000805b8354811015614869578284828154811061483857614838615537565b906000526020600020906002020160000154036148615783818154811061475857614758615537565b60010161481c565b508254600181018085556000859052839085908390811061488c5761488c615537565b90600052602060002090600202016000018190555083818154811061480157614801615537565b806001600160a01b03166148c9868487876149b8565b6001600160a01b0316146117e357604051638baa579f60e01b815260040160405180910390fd5b6132ce614246565b614900614246565b600080516020615b65833981519152805460ff19169055565b60608261492e57614929826149e6565b610f25565b815115801561494557506001600160a01b0384163b155b1561496e57604051639996b31560e01b81526001600160a01b0385166004820152602401611151565b5080610f25565b600081815b84518110156149b0576149a68286838151811061499957614999615537565b6020026020010151614a0f565b915060010161497a565b509392505050565b6000806000806149ca88888888614a3e565b9250925092506149da8282614b0d565b50909695505050505050565b8051156149f65780518082602001fd5b604051630a12f52160e11b815260040160405180910390fd5b6000818310614a2b576000828152602084905260409020610f25565b6000838152602083905260409020610f25565b600080807f7fffffffffffffffffffffffffffffff5d576e7357a4501ddfe92f46681b20a0841115614a795750600091506003905082614b03565b604080516000808252602082018084528a905260ff891692820192909252606081018790526080810186905260019060a0016020604051602081039080840390855afa158015614acd573d6000803e3d6000fd5b5050604051601f1901519150506001600160a01b038116614af957506000925060019150829050614b03565b9250600091508190505b9450945094915050565b6000826003811115614b2157614b216152af565b03614b2a575050565b6001826003811115614b3e57614b3e6152af565b03614b5c5760405163f645eedf60e01b815260040160405180910390fd5b6002826003811115614b7057614b706152af565b03614b915760405163fce698f760e01b815260048101829052602401611151565b6003826003811115614ba557614ba56152af565b0361107f576040516335e2f38360e21b815260048101829052602401611151565b508054614bd2906153a0565b6000825580601f10614be2575050565b601f016020900490600052602060002090810190610f3f9190614c9e565b5080546000825560030290600052602060002090810190610f3f9190614cb3565b828054828255906000526020600020906002028101928215614c715760005260206000209160020282015b82811115614c7157825482556001808401549083015560029283019290910190614c4c565b5061200c929150614cd5565b5080546000825560020290600052602060002090810190610f3f9190614cd5565b5b8082111561200c5760008155600101614c9f565b5b8082111561200c576000808255600182018190556002820155600301614cb4565b5b8082111561200c5760008082556001820155600201614cd6565b600060208284031215614d0257600080fd5b81356001600160e01b031981168114610f2557600080fd5b600060208284031215614d2c57600080fd5b813561ffff81168114610f2557600080fd5b602080825282518282018190526000919060409081850190868401855b82811015614d8057815180518552860151868501529284019290850190600101614d5b565b5091979650505050505050565b600060208284031215614d9f57600080fd5b5035919050565b63ffffffff81168114610f3f57600080fd5b80356001600160a01b0381168114614dcf57600080fd5b919050565b60008060408385031215614de757600080fd5b8235614df281614da6565b9150614e0060208401614db8565b90509250929050565b600060208284031215614e1b57600080fd5b610f2582614db8565b602080825282518282018190526000919060409081850190868401855b82811015614d805781518051855286810151878601528501518585015260609093019290850190600101614e41565b60008060408385031215614e8357600080fd5b82359150614e0060208401614db8565b60008060408385031215614ea657600080fd5b614eaf83614db8565b946020939093013593505050565b600060208284031215614ecf57600080fd5b8135610f2581614da6565b60005b83811015614ef5578181015183820152602001614edd565b50506000910152565b60008151808452614f16816020860160208601614eda565b601f01601f19169290920160200192915050565b8381528260208201526060604082015260006143896060830184614efe565b634e487b7160e01b600052604160045260246000fd5b60405160e081016001600160401b0381118282101715614f8157614f81614f49565b60405290565b604051606081016001600160401b0381118282101715614f8157614f81614f49565b604051601f8201601f191681016001600160401b0381118282101715614fd157614fd1614f49565b604052919050565b600082601f830112614fea57600080fd5b81356001600160401b0381111561500357615003614f49565b615016601f8201601f1916602001614fa9565b81815284602083860101111561502b57600080fd5b816020850160208301376000918101602001919091529392505050565b6000806040838503121561505b57600080fd5b61506483614db8565b915060208301356001600160401b0381111561507f57600080fd5b61508b85828601614fd9565b9150509250929050565b803560048110614dcf57600080fd5b803560ff81168114614dcf57600080fd5b6000602082840312156150c757600080fd5b81356001600160401b03808211156150de57600080fd5b9083019060e082860312156150f257600080fd5b6150fa614f5f565b823581526020830135602082015261511460408401615095565b60408201526060830135606082015261512f60808401614db8565b608082015261514060a084016150a4565b60a082015260c08301358281111561515757600080fd5b61516387828601614fd9565b60c08301525095945050505050565b60008083601f84011261518457600080fd5b5081356001600160401b0381111561519b57600080fd5b6020830191508360208285010111156151b357600080fd5b9250929050565b6000806000806000608086880312156151d257600080fd5b85356151dd81614da6565b9450602086013593506040860135925060608601356001600160401b0381111561520657600080fd5b61521288828901615172565b969995985093965092949392505050565b60008060008060008060a0878903121561523c57600080fd5b863561524781614da6565b955061525560208801615095565b9450604087013593506060870135925060808701356001600160401b0381111561527e57600080fd5b61528a89828a01615172565b979a9699509497509295939492505050565b602081526000610f256020830184614efe565b634e487b7160e01b600052602160045260246000fd5b600481106152e357634e487b7160e01b600052602160045260246000fd5b9052565b6152f181866152c5565b8360208201528260408201526080606082015260006153136080830184614efe565b9695505050505050565b600060a0828403121561532f57600080fd5b50919050565b6000806000806080858703121561534b57600080fd5b61535485614db8565b935061536260208601614db8565b93969395505050506040820135916060013590565b634e487b7160e01b600052601160045260246000fd5b80820180821115610d4757610d47615377565b600181811c908216806153b457607f821691505b60208210810361532f57634e487b7160e01b600052602260045260246000fd5b8082028115828204841417610d4757610d47615377565b600060208083850312156153fe57600080fd5b82516001600160401b038082111561541557600080fd5b908401906060828703121561542957600080fd5b615431614f87565b825161543c81614da6565b8152828401518482015260408301518281111561545857600080fd5b80840193505086601f84011261546d57600080fd5b82518281111561547f5761547f614f49565b8060051b9250615490858401614fa9565b81815292840185019285810190898511156154aa57600080fd5b948601945b848610156154c8578551825294860194908601906154af565b60408401525090979650505050505050565b6000602082840312156154ec57600080fd5b604051602081018181106001600160401b038211171561550e5761550e614f49565b6040529151825250919050565b60006020828403121561552d57600080fd5b610f2583836154da565b634e487b7160e01b600052603260045260246000fd5b634e487b7160e01b600052601260045260246000fd5b6000826155725761557261554d565b500490565b81810381811115610d4757610d47615377565b601f821115610eea576000816000526020600020601f850160051c810160208610156155b35750805b601f850160051c820191505b818110156119ea578281556001016155bf565b81516001600160401b038111156155eb576155eb614f49565b6155ff816155f984546153a0565b8461558a565b602080601f831160018114615634576000841561561c5750858301515b600019600386901b1c1916600185901b1785556119ea565b600085815260208120601f198616915b8281101561566357888601518255948401946001909101908401615644565b50858210156156815787850151600019600388901b60f8161c191681555b5050505050600190811b01905550565b81835281816020850137506000828201602090810191909152601f909101601f19169091010190565b6156c481876152c5565b8460208201528360408201526080606082015260006156e7608083018486615691565b979650505050505050565b8181036156fd575050565b61570782546153a0565b6001600160401b0381111561571e5761571e614f49565b61572c816155f984546153a0565b6000601f82116001811461576057600083156157485750848201545b600019600385901b1c1916600184901b1784556117e3565b600085815260209020601f19841690600086815260209020845b8381101561579a578286015482556001958601959091019060200161577a565b50858310156156815793015460001960f8600387901b161c19169092555050600190811b01905550565b8381526000602084602084015260606040840152600084546157e5816153a0565b8060608701526080600180841660008114615807576001811461582357615853565b60ff19851660808a0152608084151560051b8a01019550615853565b89600052602060002060005b8581101561584a5781548b820186015290830190880161582f565b8a016080019650505b50939a9950505050505050505050565b60006020828403121561587557600080fd5b5051919050565b60208152815160208201526000602083015161589b60408401826152c5565b506040830151606083015260018060a01b03606084015116608083015260ff60808401511660a083015260a083015160c080840152612c6d60e0840182614efe565b82815260408101610f2560208301846152c5565b60208101610d4782846152c5565b600080835461590d816153a0565b60018281168015615925576001811461593a57615969565b60ff1984168752821515830287019450615969565b8760005260208060002060005b858110156159605781548a820152908401908201615947565b50505082870194505b50929695505050505050565b8183823760009101908152919050565b848152836020820152606060408201526000615313606083018486615691565b80356001600160401b0381168114614dcf57600080fd5b6000602082840312156159ce57600080fd5b610f25826159a5565b60006001600160401b03808416806159f1576159f161554d565b92169190910492915050565b600060a08284031215615a0f57600080fd5b60405160a081018181106001600160401b0382111715615a3157615a31614f49565b80604052508235815260208301356020820152615a50604084016150a4565b604082015260608301356060820152615a6b608084016159a5565b60808201529392505050565b600061ffff821680615a8b57615a8b615377565b6000190192915050565b6001600160a01b03841681526020810183905260608101612c6d60408301846152c5565b600060018201615acb57615acb615377565b5060010190565b634e487b7160e01b600052603160045260246000fd5b60008251615afa818460208701614eda565b919091019291505056fe009ab23a1010d07a0450a1fbea1d84169b57d2c2273b54bff0f20c3e90199b5d360894a13ba1a3210667c828492db98dca3e2076cc3735a920a3ca505d382bbc02dd7bc7dec4dceedda775e58dd541e08a116c6c53815c0bd028192f7b626800cd5ed15c6e187e77e9aee88184c21f4f2182ab5827cb3b7e07fbedcd63f03300a2646970667358221220129697474aa595b2647f4d378aa1f879253f7778f50b3b58aa61a0a0fa3f05f464736f6c63430008160033",
  "devdoc": {
    "errors": {
      "AccessControlBadConfirmation()": [
        {
          "details": "The caller of a function is not the expected one. NOTE: Don't confuse with {AccessControlUnauthorizedAccount}."
        }
      ],
      "AccessControlUnauthorizedAccount(address,bytes32)": [
        {
          "details": "The `account` is missing a role."
        }
      ],
      "AddressEmptyCode(address)": [
        {
          "details": "There's no code at `target` (it is not a contract)."
        }
      ],
      "ECDSAInvalidSignature()": [
        {
          "details": "The signature derives the `address(0)`."
        }
      ],
      "ECDSAInvalidSignatureLength(uint256)": [
        {
          "details": "The signature has an invalid length."
        }
      ],
      "ECDSAInvalidSignatureS(bytes32)": [
        {
          "details": "The signature has an S value that is in the upper half order."
        }
      ],
      "ERC1967InvalidImplementation(address)": [
        {
          "details": "The `implementation` of the proxy is invalid."
        }
      ],
      "ERC1967NonPayable()": [
        {
          "details": "An upgrade function sees `msg.value > 0` that may be lost."
        }
      ],
      "EnforcedPause()": [
        {
          "details": "The operation failed because the contract is paused."
        }
      ],
      "ExpectedPause()": [
        {
          "details": "The operation failed because the contract is not paused."
        }
      ],
      "FailedInnerCall()": [
        {
          "details": "A call to an address target failed. The target may have reverted."
        }
      ],
      "InvalidInitialization()": [
        {
          "details": "The contract is already initialized."
        }
      ],
      "NotInitializing()": [
        {
          "details": "The contract is not initializing."
        }
      ],
      "ReentrancyGuardReentrantCall()": [
        {
          "details": "Unauthorized reentrant call."
        }
      ],
      "UUPSUnauthorizedCallContext()": [
        {
          "details": "The call is from an unauthorized context."
        }
      ],
      "UUPSUnsupportedProxiableUUID(bytes32)": [
        {
          "details": "The storage `slot` is unsupported as a UUID."
        }
      ]
    },
    "events": {
      "Initialized(uint64)": {
        "details": "Triggered when the contract has been initialized or reinitialized."
      },
      "Paused(address)": {
        "details": "Emitted when the pause is triggered by `account`."
      },
      "RoleAdminChanged(bytes32,bytes32,bytes32)": {
        "details": "Emitted when `newAdminRole` is set as ``role``'s admin role, replacing `previousAdminRole` `DEFAULT_ADMIN_ROLE` is the starting admin for all roles, despite {RoleAdminChanged} not being emitted signaling this."
      },
      "RoleGranted(bytes32,address,address)": {
        "details": "Emitted when `account` is granted `role`. `sender` is the account that originated the contract call, an admin role bearer except when using {AccessControl-_setupRole}."
      },
      "RoleRevoked(bytes32,address,address)": {
        "details": "Emitted when `account` is revoked `role`. `sender` is the account that originated the contract call:   - if using `revokeRole`, it is the admin role bearer   - if using `renounceRole`, it is the role bearer (i.e. `account`)"
      },
      "Unpaused(address)": {
        "details": "Emitted when the pause is lifted by `account`."
      },
      "Upgraded(address)": {
        "details": "Emitted when the implementation is upgraded."
      }
    },
    "kind": "dev",
    "methods": {
      "calculateVestingOrderAmount(address,uint256)": {
        "params": {
          "_user": "User address"
        }
      },
      "canUpdateRoot(uint32)": {
        "params": {
          "_distributionId": "The distribution id."
        },
        "returns": {
          "_0": "Boolean `true` if the active root can be updated to the proposed root, else `false`."
        }
      },
      "constructor": {
        "custom:oz-upgrades-unsafe-allow": "constructor"
      },
      "createDistribution(uint32,uint8,bytes32,uint256,bytes)": {
        "params": {
          "_distributionId": "The distribution id.",
          "_ipfsCid": "An IPFS CID pointing to the Merkle tree data. (optional, can be 0x0) Reverts if the distribution with the same id is already exists or Merkle root params are invalid. Reverts if the token is not supported for distribution. Currently only $ORDER and es$ORDER tokens are supported.",
          "_merkleRoot": "The Merkle root.",
          "_startTimestamp": "The timestamp when this Merkle root become active.",
          "_token": "The type of the token. Currently only $ORDER token and es$ORDER (record based) are supported."
        }
      },
      "getClaimed(uint32,address)": {
        "params": {
          "_distributionId": "The distribution id.",
          "_user": "The address of the user."
        },
        "returns": {
          "_0": "The amount tokens claimed so far by that user."
        }
      },
      "getCurrentBatchId()": {
        "details": "Revert if the redemption is not started yet to prevent redemption before the start"
      },
      "getDistribution(uint32)": {
        "params": {
          "_distributionId": "The distribution id."
        },
        "returns": {
          "ipfsCid": "       An IPFS CID pointing to the Merkle tree data (optional, can be 0x0).",
          "merkleRoot": "    The Merkle root.",
          "startTimestamp": "Timestamp when this Merkle root become active.",
          "token": "         The type of the distributed token. Currently only $ORDER token and es$ORDER (record based) are supported."
        }
      },
      "getProposedRoot(uint32)": {
        "params": {
          "_distributionId": "The distribution id."
        },
        "returns": {
          "ipfsCid": "       An IPFS CID pointing to the Merkle tree data (optional, can be 0x0).",
          "merkleRoot": "    The proposed Merkle root.",
          "startTimestamp": "Timestamp when this Merkle root become active."
        }
      },
      "getRoleAdmin(bytes32)": {
        "details": "Returns the admin role that controls `role`. See {grantRole} and {revokeRole}. To change a role's admin, use {_setRoleAdmin}."
      },
      "grantRole(bytes32,address)": {
        "details": "Grants `role` to `account`. If `account` had not been already granted `role`, emits a {RoleGranted} event. Requirements: - the caller must have ``role``'s admin role. May emit a {RoleGranted} event."
      },
      "hasPendingRoot(uint32)": {
        "params": {
          "_distributionId": "The distribution id."
        },
        "returns": {
          "_0": "Boolean `true` if there is a proposed root for given distribution waiting to become active, else `false`."
        }
      },
      "hasRole(bytes32,address)": {
        "details": "Returns `true` if `account` has been granted `role`."
      },
      "isDistributionRecordBased(uint32)": {
        "params": {
          "_distributionId": "The distribution id."
        },
        "returns": {
          "_0": "Boolean `true` if the distribution is record based, else `false`."
        }
      },
      "paused()": {
        "details": "Returns true if the contract is paused, and false otherwise."
      },
      "proposeRoot(uint32,bytes32,uint256,bytes)": {
        "params": {
          "_distributionId": "The distribution id.",
          "_ipfsCid": "An IPFS CID pointing to the Merkle tree data.  Reverts if the proposed root is bytes32(0).  Reverts if the proposed startTimestamp is in the past.  Reverts if the proposed root is already proposed.",
          "_merkleRoot": "The Merkle root.",
          "_startTimestamp": "The timestamp when this Merkle root become active"
        }
      },
      "proxiableUUID()": {
        "details": "Implementation of the ERC1822 {proxiableUUID} function. This returns the storage slot used by the implementation. It is used to validate the implementation's compatibility when performing an upgrade. IMPORTANT: A proxy pointing at a proxiable contract should not be considered proxiable itself, because this risks bricking a proxy that upgrades to it, by delegating to itself until out of gas. Thus it is critical that this function revert if invoked through a proxy. This is guaranteed by the `notDelegated` modifier."
      },
      "renounceRole(bytes32,address)": {
        "details": "Revokes `role` from the calling account. Roles are often managed via {grantRole} and {revokeRole}: this function's purpose is to provide a mechanism for accounts to lose their privileges if they are compromised (such as when a trusted device is misplaced). If the calling account had been revoked `role`, emits a {RoleRevoked} event. Requirements: - the caller must be `callerConfirmation`. May emit a {RoleRevoked} event."
      },
      "revokeRole(bytes32,address)": {
        "details": "Revokes `role` from `account`. If `account` had been granted `role`, emits a {RoleRevoked} event. Requirements: - the caller must have ``role``'s admin role. May emit a {RoleRevoked} event."
      },
      "supportsInterface(bytes4)": {
        "details": "See {IERC165-supportsInterface}."
      },
      "updateRoot(uint32)": {
        "params": {
          "_distributionId": "The distribution id.  Reverts if root updates are paused.  Reverts if the proposed root is bytes32(0).  Reverts if the waiting period for the proposed root has not elapsed."
        }
      },
      "upgradeToAndCall(address,bytes)": {
        "custom:oz-upgrades-unsafe-allow-reachable": "delegatecall",
        "details": "Upgrade the implementation of the proxy to `newImplementation`, and subsequently execute the function call encoded in `data`. Calls {_authorizeUpgrade}. Emits an {Upgraded} event."
      }
    },
    "version": 1
  },
  "userdoc": {
    "events": {
      "BatchPreparedToClaim(uint16)": {
        "notice": "Emitted when admin marks batch as claimable"
      },
      "BatchValorToUsdcRateIsFixed(uint16,uint256)": {
        "notice": "Emitted when admin fixes valor to USDC rate for the batch"
      },
      "DailyUsdcNetFeeRevenueUpdated(uint256,uint256,uint256,uint256,uint256)": {
        "notice": "Emmited, when the daily USDC net fee revenue has been updated"
      },
      "DistributionCreated(uint32,uint8,bytes32,uint256,bytes)": {
        "notice": "Emitted when a new distribution is created by the ROOT_UPDATER_ROLE from Ledger chain."
      },
      "EsOrderUnstake(uint256,uint256,address,uint256)": {
        "notice": "Emitted when user unstakes es$ORDER tokens"
      },
      "OrderUnstakeAmount(address,uint256,uint256)": {
        "notice": "Emitted for _createOrderUnstakeRequest, _cancelOrderUnstakeRequest and _withdrawOrder functions"
      },
      "OrderUnstakeCancelled(uint256,uint256,address,uint256)": {
        "notice": "Emitted when user cancels unstake $ORDER tokens request"
      },
      "OrderUnstakeRequested(uint256,uint256,address,uint256)": {
        "notice": "Emitted when user requests unstake $ORDER tokens"
      },
      "OrderWithdrawn(uint256,uint256,address,uint256)": {
        "notice": "Emitted when user withdraws $ORDER tokens"
      },
      "RewardsClaimed(uint256,uint256,uint32,address,uint256,uint8)": {
        "notice": "Emitted when a user claims rewards from Vault chains."
      },
      "RootProposed(uint32,bytes32,uint256,bytes)": {
        "notice": "Emitted when a new Merkle root is proposed by the ROOT_UPDATER_ROLE from Ledger chain."
      },
      "RootUpdated(uint32,bytes32,uint256,bytes)": {
        "notice": "Emitted when proposed Merkle root becomes active by the ROOT_UPDATER_ROLE from Ledger chain."
      },
      "Staked(uint256,uint256,address,uint256,uint8)": {
        "notice": "Emitted when user stakes $ORDER or es$ORDER tokens"
      },
      "UsdcRevenueClaimed(uint256,uint256,address,uint256)": {
        "notice": "Emitted when user claim collected USDC revenue from chain"
      },
      "ValorRedeemed(uint256,uint256,address,uint16,uint256)": {
        "notice": "Emitted when user redeem valor for the chain; batchId is the current batch"
      }
    },
    "kind": "user",
    "methods": {
      "TREASURE_UPDATER_ROLE()": {
        "notice": "The role, that is allowed to update USDC net fee revenue"
      },
      "accValorPerShareScaled()": {
        "notice": "The accrued valor share, scaled to `ACC_VALOR_PER_SHARE_PRECISION`"
      },
      "batchDuration()": {
        "notice": "Period of the batch in seconds"
      },
      "batchPreparedToClaim(uint16)": {
        "notice": "Admin marks batch as claimable when USDC is provided for the batch         This also reduce total valor amount and total USDC in treasure         This reduce shouldn't affect the valor to USDC rate because valor and USDC amounts are reduced proportionally"
      },
      "calculateVestingOrderAmount(address,uint256)": {
        "notice": "Return amount of $ORDER tokens for withdraw at the moment"
      },
      "canUpdateRoot(uint32)": {
        "notice": "Returns true if there is a proposed root for given distribution waiting to become active         and the start time has passed."
      },
      "collectedValor(address)": {
        "notice": "The amount of valor token, that has been collected by the user"
      },
      "createDistribution(uint32,uint8,bytes32,uint256,bytes)": {
        "notice": "Create a new distribution with the given token and propose Merkle root for it.         Locked for ROOT_UPDATER_ROLE.         Once created, distribution token can't be changed."
      },
      "dailyUsdcNetFeeRevenue((bytes32,bytes32,uint8,uint256,uint64))": {
        "notice": "CeFi updates the daily USDC net fee revenue, define Then check if it was last day in batch, and if so, fix this price for the batch Internally restricted to TREASURE_UPDATER_ROLE"
      },
      "getBatchChainedValorAmount(uint16)": {
        "notice": "Returns the amount of valor that user can redeem for the chain"
      },
      "getBatchInfo(uint16)": {
        "notice": "Returns the batch structure by id without chained valor amount"
      },
      "getClaimed(uint32,address)": {
        "notice": "Get the tokens amount claimed so far for distribution by a given user."
      },
      "getCurrentBatchId()": {
        "notice": "Calculate and returns the current batch id based on the current timestamp, start timestamp and batch duration"
      },
      "getDistribution(uint32)": {
        "notice": "Get the active Merkle root for distribution id and associated parameters.         If distribution has proposed root and it's start timestamp has passed, proposed root will be returned.         It allows to reduce probability of collision when user claiming rewards from the old Merkle root.         Because it will be updated at the beginning of the next claimReward call and become active from that moment.         So, user will actually obtain the rewards from the proposed root and have to provide amount and proof for it."
      },
      "getOrderAvailableToWithdraw(address)": {
        "notice": "Get the amount of $ORDER ready to be withdrawn by `_user`"
      },
      "getProposedRoot(uint32)": {
        "notice": "Get the proposed Merkle root for token and associated parameters.         When the proposed root become active, it will be removed from the proposedRoots mapping.         So, this function will return non-zero values only if the proposed root is pending."
      },
      "getStakingInfo(address)": {
        "notice": "Get the staking balances for a given _user"
      },
      "getTotalValorAmount()": {
        "notice": "Get the total amount of Valor that is currently in circulation"
      },
      "getTotalValorEmitted()": {
        "notice": "Get the total amount of Valor that should be emitted to the moment"
      },
      "getUsdcAmountForBatch(uint16)": {
        "notice": "Returns the amount of USDC required for batch on each chain"
      },
      "getUserValor(address)": {
        "notice": "Get the pending amount of valor up to now for a given _user"
      },
      "hasPendingRoot(uint32)": {
        "notice": "Returns true if there is a proposed root for given distribution waiting to become active.         This is the case if the proposed root for given distribution is not zero."
      },
      "isDistributionRecordBased(uint32)": {
        "notice": "Check if the distribution is record based. Currently only es$ORDER token is record based."
      },
      "lastUsdcNetFeeRevenueUpdateTimestamp()": {
        "notice": "The timestamp of the last update of the USDC net fee revenue"
      },
      "lastValorUpdateTimestamp()": {
        "notice": "The last time that the valor variables were updated"
      },
      "ledgerRecvFromVault((uint256,uint256,uint8,uint256,address,uint8,bytes))": {
        "notice": "Receives message from OCCAdapter and dispatch it"
      },
      "maximumValorEmission()": {
        "notice": "The maximum amount of valor token, that can be emitted"
      },
      "pause()": {
        "notice": "Pause external functionality"
      },
      "proposeRoot(uint32,bytes32,uint256,bytes)": {
        "notice": "Set the proposed root parameters.         Locked for ROOT_UPDATER_ROLE.         Allows to update proposed root for token before startTimestamp passed.         If startTimestamp passed, proposed root will be propogated to active root."
      },
      "setTotalUsdcInTreasure(uint256)": {
        "notice": "Set the totalUsdcInTreasure. Restricted to DEFAULT_ADMIN_ROLE          Function updates the totalUsdcInTreasure, valorToUsdcRateScaled"
      },
      "setUsdcUpdaterAddress(address)": {
        "notice": "Owner can set address, that signed the USDC revenue updates"
      },
      "setValorEmissionStartTimestamp(uint256)": {
        "notice": "Owner can set the valor emission start timestamp if it is not passed yet"
      },
      "srcChainIdToEventId(uint256)": {
        "notice": "Mapping of srcChainId => event id"
      },
      "totalStakedAmount()": {
        "notice": "Total amount of staken $ORDER and es$ORDER"
      },
      "totalUsdcInTreasure()": {
        "notice": "The total amount of USDC, that has been collected in the treasure"
      },
      "totalValorRedeemed()": {
        "notice": "The total amount of valor token, that has been redeemed"
      },
      "unpause()": {
        "notice": "Unpause external functionality"
      },
      "unstakeLockPeriod()": {
        "notice": "Period of time, that user have to wait after unstake request, before he can withdraw tokens"
      },
      "updateRoot(uint32)": {
        "notice": "Propagate proposed root to the distribution if it can be updated.         Non-reeentrant guard is disabled because this function is called from claimRewards."
      },
      "updateValorVars()": {
        "notice": "Calculate and update valor per share changed over time This function actually emits valor to users"
      },
      "usdcUpdaterAddress()": {
        "notice": "The address, that signed the USDC revenue updates"
      },
      "userTotalStakingBalance(address)": {
        "notice": "Get the total amount of $ORDER and es$ORDER staked by `_user`"
      },
      "valorEmissionStartTimestamp()": {
        "notice": "Valor emission starts at this time"
      },
      "valorPerSecond()": {
        "notice": "The amount of valor token, that will be emitted per second"
      },
      "valorToUsdcRateScaled()": {
        "notice": "The current rate of valor to USDC"
      },
      "vestingLinearPeriod()": {
        "notice": "Period after lock period, during which vesting $ORDER amount linearly increase from 50% to 100%"
      },
      "vestingLockPeriod()": {
        "notice": "Lock period where user can not withdraw vested $ORDER"
      }
    },
    "version": 1
  },
  "storageLayout": {
    "storage": [
      {
        "astId": 8048,
        "contract": "contracts/OmnichainLedgerV1.sol:OmnichainLedgerV1",
        "label": "__gap",
        "offset": 0,
        "slot": "0",
        "type": "t_array(t_uint256)5_storage"
      },
      {
        "astId": 7921,
        "contract": "contracts/OmnichainLedgerV1.sol:OmnichainLedgerV1",
        "label": "srcChainIdToEventId",
        "offset": 0,
        "slot": "5",
        "type": "t_mapping(t_uint256,t_uint256)"
      },
      {
        "astId": 7943,
        "contract": "contracts/OmnichainLedgerV1.sol:OmnichainLedgerV1",
        "label": "__gap",
        "offset": 0,
        "slot": "6",
        "type": "t_array(t_uint256)5_storage"
      },
      {
        "astId": 8151,
        "contract": "contracts/OmnichainLedgerV1.sol:OmnichainLedgerV1",
        "label": "activeDistributions",
        "offset": 0,
        "slot": "11",
        "type": "t_mapping(t_uint32,t_struct(Distribution)8145_storage)"
      },
      {
        "astId": 8157,
        "contract": "contracts/OmnichainLedgerV1.sol:OmnichainLedgerV1",
        "label": "proposedRoots",
        "offset": 0,
        "slot": "12",
        "type": "t_mapping(t_uint32,t_struct(MerkleTree)8136_storage)"
      },
      {
        "astId": 8164,
        "contract": "contracts/OmnichainLedgerV1.sol:OmnichainLedgerV1",
        "label": "claimedAmounts",
        "offset": 0,
        "slot": "13",
        "type": "t_mapping(t_uint32,t_mapping(t_address,t_uint256))"
      },
      {
        "astId": 8811,
        "contract": "contracts/OmnichainLedgerV1.sol:OmnichainLedgerV1",
        "label": "__gap",
        "offset": 0,
        "slot": "14",
        "type": "t_array(t_uint256)50_storage"
      },
      {
        "astId": 10666,
        "contract": "contracts/OmnichainLedgerV1.sol:OmnichainLedgerV1",
        "label": "usdcUpdaterAddress",
        "offset": 0,
        "slot": "64",
        "type": "t_address"
      },
      {
        "astId": 10671,
        "contract": "contracts/OmnichainLedgerV1.sol:OmnichainLedgerV1",
        "label": "collectedValor",
        "offset": 0,
        "slot": "65",
        "type": "t_mapping(t_address,t_uint256)"
      },
      {
        "astId": 10674,
        "contract": "contracts/OmnichainLedgerV1.sol:OmnichainLedgerV1",
        "label": "valorPerSecond",
        "offset": 0,
        "slot": "66",
        "type": "t_uint256"
      },
      {
        "astId": 10677,
        "contract": "contracts/OmnichainLedgerV1.sol:OmnichainLedgerV1",
        "label": "maximumValorEmission",
        "offset": 0,
        "slot": "67",
        "type": "t_uint256"
      },
      {
        "astId": 10680,
        "contract": "contracts/OmnichainLedgerV1.sol:OmnichainLedgerV1",
        "label": "totalValorEmitted",
        "offset": 0,
        "slot": "68",
        "type": "t_uint256"
      },
      {
        "astId": 10683,
        "contract": "contracts/OmnichainLedgerV1.sol:OmnichainLedgerV1",
        "label": "totalValorRedeemed",
        "offset": 0,
        "slot": "69",
        "type": "t_uint256"
      },
      {
        "astId": 10686,
        "contract": "contracts/OmnichainLedgerV1.sol:OmnichainLedgerV1",
        "label": "totalUsdcInTreasure",
        "offset": 0,
        "slot": "70",
        "type": "t_uint256"
      },
      {
        "astId": 10689,
        "contract": "contracts/OmnichainLedgerV1.sol:OmnichainLedgerV1",
        "label": "valorToUsdcRateScaled",
        "offset": 0,
        "slot": "71",
        "type": "t_uint256"
      },
      {
        "astId": 10692,
        "contract": "contracts/OmnichainLedgerV1.sol:OmnichainLedgerV1",
        "label": "valorEmissionStartTimestamp",
        "offset": 0,
        "slot": "72",
        "type": "t_uint256"
      },
      {
        "astId": 10695,
        "contract": "contracts/OmnichainLedgerV1.sol:OmnichainLedgerV1",
        "label": "lastValorUpdateTimestamp",
        "offset": 0,
        "slot": "73",
        "type": "t_uint256"
      },
      {
        "astId": 10698,
        "contract": "contracts/OmnichainLedgerV1.sol:OmnichainLedgerV1",
        "label": "lastUsdcNetFeeRevenueUpdateTimestamp",
        "offset": 0,
        "slot": "74",
        "type": "t_uint256"
      },
      {
        "astId": 11017,
        "contract": "contracts/OmnichainLedgerV1.sol:OmnichainLedgerV1",
        "label": "__gap",
        "offset": 0,
        "slot": "75",
        "type": "t_array(t_uint256)50_storage"
      },
      {
        "astId": 9850,
        "contract": "contracts/OmnichainLedgerV1.sol:OmnichainLedgerV1",
        "label": "userStakingInfo",
        "offset": 0,
        "slot": "125",
        "type": "t_mapping(t_address,t_struct(StakingInfo)9845_storage)"
      },
      {
        "astId": 9860,
        "contract": "contracts/OmnichainLedgerV1.sol:OmnichainLedgerV1",
        "label": "userPendingUnstake",
        "offset": 0,
        "slot": "126",
        "type": "t_mapping(t_address,t_struct(PendingUnstake)9855_storage)"
      },
      {
        "astId": 9863,
        "contract": "contracts/OmnichainLedgerV1.sol:OmnichainLedgerV1",
        "label": "totalStakedAmount",
        "offset": 0,
        "slot": "127",
        "type": "t_uint256"
      },
      {
        "astId": 9866,
        "contract": "contracts/OmnichainLedgerV1.sol:OmnichainLedgerV1",
        "label": "accValorPerShareScaled",
        "offset": 0,
        "slot": "128",
        "type": "t_uint256"
      },
      {
        "astId": 9869,
        "contract": "contracts/OmnichainLedgerV1.sol:OmnichainLedgerV1",
        "label": "unstakeLockPeriod",
        "offset": 0,
        "slot": "129",
        "type": "t_uint256"
      },
      {
        "astId": 10642,
        "contract": "contracts/OmnichainLedgerV1.sol:OmnichainLedgerV1",
        "label": "__gap",
        "offset": 0,
        "slot": "130",
        "type": "t_array(t_uint256)50_storage"
      },
      {
        "astId": 8906,
        "contract": "contracts/OmnichainLedgerV1.sol:OmnichainLedgerV1",
        "label": "batches",
        "offset": 0,
        "slot": "180",
        "type": "t_array(t_struct(Batch)8902_storage)dyn_storage"
      },
      {
        "astId": 8927,
        "contract": "contracts/OmnichainLedgerV1.sol:OmnichainLedgerV1",
        "label": "userRevenue",
        "offset": 0,
        "slot": "181",
        "type": "t_mapping(t_address,t_struct(UserRevenueRecord)8922_storage)"
      },
      {
        "astId": 8930,
        "contract": "contracts/OmnichainLedgerV1.sol:OmnichainLedgerV1",
        "label": "batchDuration",
        "offset": 0,
        "slot": "182",
        "type": "t_uint256"
      },
      {
        "astId": 9744,
        "contract": "contracts/OmnichainLedgerV1.sol:OmnichainLedgerV1",
        "label": "__gap",
        "offset": 0,
        "slot": "183",
        "type": "t_array(t_uint256)50_storage"
      },
      {
        "astId": 11058,
        "contract": "contracts/OmnichainLedgerV1.sol:OmnichainLedgerV1",
        "label": "userVestingInfos",
        "offset": 0,
        "slot": "233",
        "type": "t_mapping(t_address,t_struct(UserVestingInfo)11053_storage)"
      },
      {
        "astId": 11061,
        "contract": "contracts/OmnichainLedgerV1.sol:OmnichainLedgerV1",
        "label": "vestingLockPeriod",
        "offset": 0,
        "slot": "234",
        "type": "t_uint256"
      },
      {
        "astId": 11064,
        "contract": "contracts/OmnichainLedgerV1.sol:OmnichainLedgerV1",
        "label": "vestingLinearPeriod",
        "offset": 0,
        "slot": "235",
        "type": "t_uint256"
      },
      {
        "astId": 11601,
        "contract": "contracts/OmnichainLedgerV1.sol:OmnichainLedgerV1",
        "label": "__gap",
        "offset": 0,
        "slot": "236",
        "type": "t_array(t_uint256)50_storage"
      },
      {
        "astId": 7148,
        "contract": "contracts/OmnichainLedgerV1.sol:OmnichainLedgerV1",
        "label": "occAdaptor",
        "offset": 0,
        "slot": "286",
        "type": "t_address"
      }
    ],
    "types": {
      "t_address": {
        "encoding": "inplace",
        "label": "address",
        "numberOfBytes": "20"
      },
      "t_array(t_struct(Batch)8902_storage)dyn_storage": {
        "base": "t_struct(Batch)8902_storage",
        "encoding": "dynamic_array",
        "label": "struct Revenue.Batch[]",
        "numberOfBytes": "32"
      },
      "t_array(t_struct(BatchedRedemptionRequest)8913_storage)dyn_storage": {
        "base": "t_struct(BatchedRedemptionRequest)8913_storage",
        "encoding": "dynamic_array",
        "label": "struct Revenue.BatchedRedemptionRequest[]",
        "numberOfBytes": "32"
      },
      "t_array(t_struct(ChainedAmount)8887_storage)dyn_storage": {
        "base": "t_struct(ChainedAmount)8887_storage",
        "encoding": "dynamic_array",
        "label": "struct Revenue.ChainedAmount[]",
        "numberOfBytes": "32"
      },
      "t_array(t_struct(VestingRequest)11046_storage)dyn_storage": {
        "base": "t_struct(VestingRequest)11046_storage",
        "encoding": "dynamic_array",
        "label": "struct Vesting.VestingRequest[]",
        "numberOfBytes": "32"
      },
      "t_array(t_uint256)2_storage": {
        "base": "t_uint256",
        "encoding": "inplace",
        "label": "uint256[2]",
        "numberOfBytes": "64"
      },
      "t_array(t_uint256)50_storage": {
        "base": "t_uint256",
        "encoding": "inplace",
        "label": "uint256[50]",
        "numberOfBytes": "1600"
      },
      "t_array(t_uint256)5_storage": {
        "base": "t_uint256",
        "encoding": "inplace",
        "label": "uint256[5]",
        "numberOfBytes": "160"
      },
      "t_bool": {
        "encoding": "inplace",
        "label": "bool",
        "numberOfBytes": "1"
      },
      "t_bytes32": {
        "encoding": "inplace",
        "label": "bytes32",
        "numberOfBytes": "32"
      },
      "t_bytes_storage": {
        "encoding": "bytes",
        "label": "bytes",
        "numberOfBytes": "32"
      },
      "t_enum(LedgerToken)8820": {
        "encoding": "inplace",
        "label": "enum LedgerToken",
        "numberOfBytes": "1"
      },
      "t_mapping(t_address,t_struct(PendingUnstake)9855_storage)": {
        "encoding": "mapping",
        "key": "t_address",
        "label": "mapping(address => struct Staking.PendingUnstake)",
        "numberOfBytes": "32",
        "value": "t_struct(PendingUnstake)9855_storage"
      },
      "t_mapping(t_address,t_struct(StakingInfo)9845_storage)": {
        "encoding": "mapping",
        "key": "t_address",
        "label": "mapping(address => struct Staking.StakingInfo)",
        "numberOfBytes": "32",
        "value": "t_struct(StakingInfo)9845_storage"
      },
      "t_mapping(t_address,t_struct(UserRevenueRecord)8922_storage)": {
        "encoding": "mapping",
        "key": "t_address",
        "label": "mapping(address => struct Revenue.UserRevenueRecord)",
        "numberOfBytes": "32",
        "value": "t_struct(UserRevenueRecord)8922_storage"
      },
      "t_mapping(t_address,t_struct(UserVestingInfo)11053_storage)": {
        "encoding": "mapping",
        "key": "t_address",
        "label": "mapping(address => struct Vesting.UserVestingInfo)",
        "numberOfBytes": "32",
        "value": "t_struct(UserVestingInfo)11053_storage"
      },
      "t_mapping(t_address,t_uint256)": {
        "encoding": "mapping",
        "key": "t_address",
        "label": "mapping(address => uint256)",
        "numberOfBytes": "32",
        "value": "t_uint256"
      },
      "t_mapping(t_uint256,t_uint256)": {
        "encoding": "mapping",
        "key": "t_uint256",
        "label": "mapping(uint256 => uint256)",
        "numberOfBytes": "32",
        "value": "t_uint256"
      },
      "t_mapping(t_uint32,t_mapping(t_address,t_uint256))": {
        "encoding": "mapping",
        "key": "t_uint32",
        "label": "mapping(uint32 => mapping(address => uint256))",
        "numberOfBytes": "32",
        "value": "t_mapping(t_address,t_uint256)"
      },
      "t_mapping(t_uint32,t_struct(Distribution)8145_storage)": {
        "encoding": "mapping",
        "key": "t_uint32",
        "label": "mapping(uint32 => struct MerkleDistributor.Distribution)",
        "numberOfBytes": "32",
        "value": "t_struct(Distribution)8145_storage"
      },
      "t_mapping(t_uint32,t_struct(MerkleTree)8136_storage)": {
        "encoding": "mapping",
        "key": "t_uint32",
        "label": "mapping(uint32 => struct MerkleDistributor.MerkleTree)",
        "numberOfBytes": "32",
        "value": "t_struct(MerkleTree)8136_storage"
      },
      "t_struct(Batch)8902_storage": {
        "encoding": "inplace",
        "label": "struct Revenue.Batch",
        "members": [
          {
            "astId": 8890,
            "contract": "contracts/OmnichainLedgerV1.sol:OmnichainLedgerV1",
            "label": "claimable",
            "offset": 0,
            "slot": "0",
            "type": "t_bool"
          },
          {
            "astId": 8893,
            "contract": "contracts/OmnichainLedgerV1.sol:OmnichainLedgerV1",
            "label": "redeemedValorAmount",
            "offset": 0,
            "slot": "1",
            "type": "t_uint256"
          },
          {
            "astId": 8896,
            "contract": "contracts/OmnichainLedgerV1.sol:OmnichainLedgerV1",
            "label": "fixedValorToUsdcRateScaled",
            "offset": 0,
            "slot": "2",
            "type": "t_uint256"
          },
          {
            "astId": 8901,
            "contract": "contracts/OmnichainLedgerV1.sol:OmnichainLedgerV1",
            "label": "chainedValorAmount",
            "offset": 0,
            "slot": "3",
            "type": "t_array(t_struct(ChainedAmount)8887_storage)dyn_storage"
          }
        ],
        "numberOfBytes": "128"
      },
      "t_struct(BatchedRedemptionRequest)8913_storage": {
        "encoding": "inplace",
        "label": "struct Revenue.BatchedRedemptionRequest",
        "members": [
          {
            "astId": 8908,
            "contract": "contracts/OmnichainLedgerV1.sol:OmnichainLedgerV1",
            "label": "batchId",
            "offset": 0,
            "slot": "0",
            "type": "t_uint16"
          },
          {
            "astId": 8912,
            "contract": "contracts/OmnichainLedgerV1.sol:OmnichainLedgerV1",
            "label": "chainedValorAmount",
            "offset": 0,
            "slot": "1",
            "type": "t_array(t_struct(ChainedAmount)8887_storage)dyn_storage"
          }
        ],
        "numberOfBytes": "64"
      },
      "t_struct(ChainedAmount)8887_storage": {
        "encoding": "inplace",
        "label": "struct Revenue.ChainedAmount",
        "members": [
          {
            "astId": 8884,
            "contract": "contracts/OmnichainLedgerV1.sol:OmnichainLedgerV1",
            "label": "chainId",
            "offset": 0,
            "slot": "0",
            "type": "t_uint256"
          },
          {
            "astId": 8886,
            "contract": "contracts/OmnichainLedgerV1.sol:OmnichainLedgerV1",
            "label": "amount",
            "offset": 0,
            "slot": "1",
            "type": "t_uint256"
          }
        ],
        "numberOfBytes": "64"
      },
      "t_struct(Distribution)8145_storage": {
        "encoding": "inplace",
        "label": "struct MerkleDistributor.Distribution",
        "members": [
          {
            "astId": 8140,
            "contract": "contracts/OmnichainLedgerV1.sol:OmnichainLedgerV1",
            "label": "token",
            "offset": 0,
            "slot": "0",
            "type": "t_enum(LedgerToken)8820"
          },
          {
            "astId": 8144,
            "contract": "contracts/OmnichainLedgerV1.sol:OmnichainLedgerV1",
            "label": "merkleTree",
            "offset": 0,
            "slot": "1",
            "type": "t_struct(MerkleTree)8136_storage"
          }
        ],
        "numberOfBytes": "128"
      },
      "t_struct(MerkleTree)8136_storage": {
        "encoding": "inplace",
        "label": "struct MerkleDistributor.MerkleTree",
        "members": [
          {
            "astId": 8129,
            "contract": "contracts/OmnichainLedgerV1.sol:OmnichainLedgerV1",
            "label": "merkleRoot",
            "offset": 0,
            "slot": "0",
            "type": "t_bytes32"
          },
          {
            "astId": 8132,
            "contract": "contracts/OmnichainLedgerV1.sol:OmnichainLedgerV1",
            "label": "startTimestamp",
            "offset": 0,
            "slot": "1",
            "type": "t_uint256"
          },
          {
            "astId": 8135,
            "contract": "contracts/OmnichainLedgerV1.sol:OmnichainLedgerV1",
            "label": "ipfsCid",
            "offset": 0,
            "slot": "2",
            "type": "t_bytes_storage"
          }
        ],
        "numberOfBytes": "96"
      },
      "t_struct(PendingUnstake)9855_storage": {
        "encoding": "inplace",
        "label": "struct Staking.PendingUnstake",
        "members": [
          {
            "astId": 9852,
            "contract": "contracts/OmnichainLedgerV1.sol:OmnichainLedgerV1",
            "label": "balanceOrder",
            "offset": 0,
            "slot": "0",
            "type": "t_uint256"
          },
          {
            "astId": 9854,
            "contract": "contracts/OmnichainLedgerV1.sol:OmnichainLedgerV1",
            "label": "unlockTimestamp",
            "offset": 0,
            "slot": "1",
            "type": "t_uint256"
          }
        ],
        "numberOfBytes": "64"
      },
      "t_struct(StakingInfo)9845_storage": {
        "encoding": "inplace",
        "label": "struct Staking.StakingInfo",
        "members": [
          {
            "astId": 9842,
            "contract": "contracts/OmnichainLedgerV1.sol:OmnichainLedgerV1",
            "label": "balance",
            "offset": 0,
            "slot": "0",
            "type": "t_array(t_uint256)2_storage"
          },
          {
            "astId": 9844,
            "contract": "contracts/OmnichainLedgerV1.sol:OmnichainLedgerV1",
            "label": "valorDebt",
            "offset": 0,
            "slot": "2",
            "type": "t_uint256"
          }
        ],
        "numberOfBytes": "96"
      },
      "t_struct(UserRevenueRecord)8922_storage": {
        "encoding": "inplace",
        "label": "struct Revenue.UserRevenueRecord",
        "members": [
          {
            "astId": 8917,
            "contract": "contracts/OmnichainLedgerV1.sol:OmnichainLedgerV1",
            "label": "chainedUsdcRevenue",
            "offset": 0,
            "slot": "0",
            "type": "t_mapping(t_uint256,t_uint256)"
          },
          {
            "astId": 8921,
            "contract": "contracts/OmnichainLedgerV1.sol:OmnichainLedgerV1",
            "label": "requests",
            "offset": 0,
            "slot": "1",
            "type": "t_array(t_struct(BatchedRedemptionRequest)8913_storage)dyn_storage"
          }
        ],
        "numberOfBytes": "64"
      },
      "t_struct(UserVestingInfo)11053_storage": {
        "encoding": "inplace",
        "label": "struct Vesting.UserVestingInfo",
        "members": [
          {
            "astId": 11048,
            "contract": "contracts/OmnichainLedgerV1.sol:OmnichainLedgerV1",
            "label": "currentRequestId",
            "offset": 0,
            "slot": "0",
            "type": "t_uint256"
          },
          {
            "astId": 11052,
            "contract": "contracts/OmnichainLedgerV1.sol:OmnichainLedgerV1",
            "label": "requests",
            "offset": 0,
            "slot": "1",
            "type": "t_array(t_struct(VestingRequest)11046_storage)dyn_storage"
          }
        ],
        "numberOfBytes": "64"
      },
      "t_struct(VestingRequest)11046_storage": {
        "encoding": "inplace",
        "label": "struct Vesting.VestingRequest",
        "members": [
          {
            "astId": 11041,
            "contract": "contracts/OmnichainLedgerV1.sol:OmnichainLedgerV1",
            "label": "requestId",
            "offset": 0,
            "slot": "0",
            "type": "t_uint256"
          },
          {
            "astId": 11043,
            "contract": "contracts/OmnichainLedgerV1.sol:OmnichainLedgerV1",
            "label": "esOrderAmount",
            "offset": 0,
            "slot": "1",
            "type": "t_uint256"
          },
          {
            "astId": 11045,
            "contract": "contracts/OmnichainLedgerV1.sol:OmnichainLedgerV1",
            "label": "unlockTimestamp",
            "offset": 0,
            "slot": "2",
            "type": "t_uint256"
          }
        ],
        "numberOfBytes": "96"
      },
      "t_uint16": {
        "encoding": "inplace",
        "label": "uint16",
        "numberOfBytes": "2"
      },
      "t_uint256": {
        "encoding": "inplace",
        "label": "uint256",
        "numberOfBytes": "32"
      },
      "t_uint32": {
        "encoding": "inplace",
        "label": "uint32",
        "numberOfBytes": "4"
      }
    }
  }
}