{
  "address": "0xa168A69B137402a4E9C0E8dBaEbEeD829242e766",
  "abi": [
    {
      "inputs": [],
      "name": "AccessControlBadConfirmation",
      "type": "error"
    },
    {
      "inputs": [
        {
          "internalType": "address",
          "name": "account",
          "type": "address"
        },
        {
          "internalType": "bytes32",
          "name": "neededRole",
          "type": "bytes32"
        }
      ],
      "name": "AccessControlUnauthorizedAccount",
      "type": "error"
    },
    {
      "inputs": [
        {
          "internalType": "address",
          "name": "target",
          "type": "address"
        }
      ],
      "name": "AddressEmptyCode",
      "type": "error"
    },
    {
      "inputs": [],
      "name": "AmountIsGreaterThanCollectedValor",
      "type": "error"
    },
    {
      "inputs": [],
      "name": "AmountIsZero",
      "type": "error"
    },
    {
      "inputs": [],
      "name": "BatchIsNotCreatedYet",
      "type": "error"
    },
    {
      "inputs": [],
      "name": "BatchIsNotFinished",
      "type": "error"
    },
    {
      "inputs": [],
      "name": "BatchValorToUsdcRateIsNotFixed",
      "type": "error"
    },
    {
      "inputs": [],
      "name": "CannotUpdateRoot",
      "type": "error"
    },
    {
      "inputs": [],
      "name": "DistributionAlreadyExists",
      "type": "error"
    },
    {
      "inputs": [],
      "name": "DistributionNotFound",
      "type": "error"
    },
    {
      "inputs": [],
      "name": "ECDSAInvalidSignature",
      "type": "error"
    },
    {
      "inputs": [
        {
          "internalType": "uint256",
          "name": "length",
          "type": "uint256"
        }
      ],
      "name": "ECDSAInvalidSignatureLength",
      "type": "error"
    },
    {
      "inputs": [
        {
          "internalType": "bytes32",
          "name": "s",
          "type": "bytes32"
        }
      ],
      "name": "ECDSAInvalidSignatureS",
      "type": "error"
    },
    {
      "inputs": [
        {
          "internalType": "address",
          "name": "implementation",
          "type": "address"
        }
      ],
      "name": "ERC1967InvalidImplementation",
      "type": "error"
    },
    {
      "inputs": [],
      "name": "ERC1967NonPayable",
      "type": "error"
    },
    {
      "inputs": [],
      "name": "EnforcedPause",
      "type": "error"
    },
    {
      "inputs": [],
      "name": "ExpectedPause",
      "type": "error"
    },
    {
      "inputs": [],
      "name": "FailedInnerCall",
      "type": "error"
    },
    {
      "inputs": [],
      "name": "InvalidInitialization",
      "type": "error"
    },
    {
      "inputs": [],
      "name": "InvalidMerkleProof",
      "type": "error"
    },
    {
      "inputs": [],
      "name": "InvalidSignature",
      "type": "error"
    },
    {
      "inputs": [],
      "name": "NoActiveMerkleRoot",
      "type": "error"
    },
    {
      "inputs": [],
      "name": "NoPendingUnstakeRequest",
      "type": "error"
    },
    {
      "inputs": [],
      "name": "NotInitializing",
      "type": "error"
    },
    {
      "inputs": [
        {
          "internalType": "address",
          "name": "user",
          "type": "address"
        },
        {
          "internalType": "uint256",
          "name": "chainId",
          "type": "uint256"
        }
      ],
      "name": "NothingToClaim",
      "type": "error"
    },
    {
      "inputs": [],
      "name": "ProposedMerkleRootIsZero",
      "type": "error"
    },
    {
      "inputs": [],
      "name": "RedemptionAmountIsZero",
      "type": "error"
    },
    {
      "inputs": [],
      "name": "RedemptionIsNotStartedYet",
      "type": "error"
    },
    {
      "inputs": [],
      "name": "ReentrancyGuardReentrantCall",
      "type": "error"
    },
    {
      "inputs": [
        {
          "internalType": "enum LedgerToken",
          "name": "token",
          "type": "uint8"
        }
      ],
      "name": "StakingBalanceInsufficient",
      "type": "error"
    },
    {
      "inputs": [],
      "name": "StartTimestampIsInThePast",
      "type": "error"
    },
    {
      "inputs": [],
      "name": "ThisMerkleRootIsAlreadyProposed",
      "type": "error"
    },
    {
      "inputs": [],
      "name": "TokenIsNotSupportedForDistribution",
      "type": "error"
    },
    {
      "inputs": [],
      "name": "TooEarlyUsdcNetFeeRevenueUpdate",
      "type": "error"
    },
    {
      "inputs": [],
      "name": "UUPSUnauthorizedCallContext",
      "type": "error"
    },
    {
      "inputs": [
        {
          "internalType": "bytes32",
          "name": "slot",
          "type": "bytes32"
        }
      ],
      "name": "UUPSUnsupportedProxiableUUID",
      "type": "error"
    },
    {
      "inputs": [],
      "name": "UnlockTimeNotPassedYet",
      "type": "error"
    },
    {
      "inputs": [],
      "name": "UnsupportedPayloadType",
      "type": "error"
    },
    {
      "inputs": [],
      "name": "UnsupportedToken",
      "type": "error"
    },
    {
      "inputs": [
        {
          "internalType": "address",
          "name": "_user",
          "type": "address"
        },
        {
          "internalType": "uint256",
          "name": "_requestId",
          "type": "uint256"
        }
      ],
      "name": "UserDontHaveVestingRequest",
      "type": "error"
    },
    {
      "inputs": [],
      "name": "ValorEmissionAlreadyStarted",
      "type": "error"
    },
    {
      "inputs": [],
      "name": "ValorEmissionCouldNotStartInThePast",
      "type": "error"
    },
    {
      "inputs": [],
      "name": "VestingAmountIsZero",
      "type": "error"
    },
    {
      "inputs": [],
      "name": "VestingLinearPeriodIsZero",
      "type": "error"
    },
    {
      "inputs": [],
      "name": "VestingLockPeriodIsZero",
      "type": "error"
    },
    {
      "inputs": [],
      "name": "VestingLockPeriodNotPassed",
      "type": "error"
    },
    {
      "anonymous": false,
      "inputs": [
        {
          "indexed": true,
          "internalType": "uint16",
          "name": "batchId",
          "type": "uint16"
        }
      ],
      "name": "BatchPreparedToClaim",
      "type": "event"
    },
    {
      "anonymous": false,
      "inputs": [
        {
          "indexed": true,
          "internalType": "uint16",
          "name": "batchId",
          "type": "uint16"
        },
        {
          "indexed": false,
          "internalType": "uint256",
          "name": "fixedValorToUsdcRate",
          "type": "uint256"
        }
      ],
      "name": "BatchValorToUsdcRateIsFixed",
      "type": "event"
    },
    {
      "anonymous": false,
      "inputs": [
        {
          "indexed": true,
          "internalType": "uint256",
          "name": "timestamp",
          "type": "uint256"
        },
        {
          "indexed": false,
          "internalType": "uint256",
          "name": "usdcNetFeeRevenue",
          "type": "uint256"
        },
        {
          "indexed": false,
          "internalType": "uint256",
          "name": "totalUsdcInTreasure",
          "type": "uint256"
        },
        {
          "indexed": false,
          "internalType": "uint256",
          "name": "totalValorAmount",
          "type": "uint256"
        },
        {
          "indexed": false,
          "internalType": "uint256",
          "name": "valorToUsdcRateScaled",
          "type": "uint256"
        }
      ],
      "name": "DailyUsdcNetFeeRevenueUpdated",
      "type": "event"
    },
    {
      "anonymous": false,
      "inputs": [
        {
          "indexed": true,
          "internalType": "uint32",
          "name": "distributionId",
          "type": "uint32"
        },
        {
          "indexed": false,
          "internalType": "enum LedgerToken",
          "name": "token",
          "type": "uint8"
        },
        {
          "indexed": false,
          "internalType": "bytes32",
          "name": "merkleRoot",
          "type": "bytes32"
        },
        {
          "indexed": false,
          "internalType": "uint256",
          "name": "startTimestamp",
          "type": "uint256"
        },
        {
          "indexed": false,
          "internalType": "bytes",
          "name": "ipfsCid",
          "type": "bytes"
        }
      ],
      "name": "DistributionCreated",
      "type": "event"
    },
    {
      "anonymous": false,
      "inputs": [
        {
          "indexed": true,
          "internalType": "uint256",
          "name": "chainedEventId",
          "type": "uint256"
        },
        {
          "indexed": true,
          "internalType": "uint256",
          "name": "chainId",
          "type": "uint256"
        },
        {
          "indexed": true,
          "internalType": "address",
          "name": "staker",
          "type": "address"
        },
        {
          "indexed": false,
          "internalType": "uint256",
          "name": "amount",
          "type": "uint256"
        }
      ],
      "name": "EsOrderUnstake",
      "type": "event"
    },
    {
      "anonymous": false,
      "inputs": [
        {
          "indexed": false,
          "internalType": "uint64",
          "name": "version",
          "type": "uint64"
        }
      ],
      "name": "Initialized",
      "type": "event"
    },
    {
      "anonymous": false,
      "inputs": [
        {
          "indexed": true,
          "internalType": "address",
          "name": "staker",
          "type": "address"
        },
        {
          "indexed": false,
          "internalType": "uint256",
          "name": "totalUnstakedAmount",
          "type": "uint256"
        },
        {
          "indexed": false,
          "internalType": "uint256",
          "name": "unlockTimestamp",
          "type": "uint256"
        }
      ],
      "name": "OrderUnstakeAmount",
      "type": "event"
    },
    {
      "anonymous": false,
      "inputs": [
        {
          "indexed": true,
          "internalType": "uint256",
          "name": "chainedEventId",
          "type": "uint256"
        },
        {
          "indexed": true,
          "internalType": "uint256",
          "name": "chainId",
          "type": "uint256"
        },
        {
          "indexed": true,
          "internalType": "address",
          "name": "staker",
          "type": "address"
        },
        {
          "indexed": false,
          "internalType": "uint256",
          "name": "pendingOrderAmount",
          "type": "uint256"
        }
      ],
      "name": "OrderUnstakeCancelled",
      "type": "event"
    },
    {
      "anonymous": false,
      "inputs": [
        {
          "indexed": true,
          "internalType": "uint256",
          "name": "chainedEventId",
          "type": "uint256"
        },
        {
          "indexed": true,
          "internalType": "uint256",
          "name": "chainId",
          "type": "uint256"
        },
        {
          "indexed": true,
          "internalType": "address",
          "name": "staker",
          "type": "address"
        },
        {
          "indexed": false,
          "internalType": "uint256",
          "name": "amount",
          "type": "uint256"
        }
      ],
      "name": "OrderUnstakeRequested",
      "type": "event"
    },
    {
      "anonymous": false,
      "inputs": [
        {
          "indexed": true,
          "internalType": "uint256",
          "name": "chainedEventId",
          "type": "uint256"
        },
        {
          "indexed": true,
          "internalType": "uint256",
          "name": "chainId",
          "type": "uint256"
        },
        {
          "indexed": true,
          "internalType": "address",
          "name": "staker",
          "type": "address"
        },
        {
          "indexed": false,
          "internalType": "uint256",
          "name": "amount",
          "type": "uint256"
        }
      ],
      "name": "OrderWithdrawn",
      "type": "event"
    },
    {
      "anonymous": false,
      "inputs": [
        {
          "indexed": false,
          "internalType": "address",
          "name": "account",
          "type": "address"
        }
      ],
      "name": "Paused",
      "type": "event"
    },
    {
      "anonymous": false,
      "inputs": [
        {
          "indexed": true,
          "internalType": "uint256",
          "name": "chainedEventId",
          "type": "uint256"
        },
        {
          "indexed": true,
          "internalType": "uint256",
          "name": "chainId",
          "type": "uint256"
        },
        {
          "indexed": true,
          "internalType": "uint32",
          "name": "distributionId",
          "type": "uint32"
        },
        {
          "indexed": false,
          "internalType": "address",
          "name": "account",
          "type": "address"
        },
        {
          "indexed": false,
          "internalType": "uint256",
          "name": "amount",
          "type": "uint256"
        },
        {
          "indexed": false,
          "internalType": "enum LedgerToken",
          "name": "token",
          "type": "uint8"
        }
      ],
      "name": "RewardsClaimed",
      "type": "event"
    },
    {
      "anonymous": false,
      "inputs": [
        {
          "indexed": true,
          "internalType": "bytes32",
          "name": "role",
          "type": "bytes32"
        },
        {
          "indexed": true,
          "internalType": "bytes32",
          "name": "previousAdminRole",
          "type": "bytes32"
        },
        {
          "indexed": true,
          "internalType": "bytes32",
          "name": "newAdminRole",
          "type": "bytes32"
        }
      ],
      "name": "RoleAdminChanged",
      "type": "event"
    },
    {
      "anonymous": false,
      "inputs": [
        {
          "indexed": true,
          "internalType": "bytes32",
          "name": "role",
          "type": "bytes32"
        },
        {
          "indexed": true,
          "internalType": "address",
          "name": "account",
          "type": "address"
        },
        {
          "indexed": true,
          "internalType": "address",
          "name": "sender",
          "type": "address"
        }
      ],
      "name": "RoleGranted",
      "type": "event"
    },
    {
      "anonymous": false,
      "inputs": [
        {
          "indexed": true,
          "internalType": "bytes32",
          "name": "role",
          "type": "bytes32"
        },
        {
          "indexed": true,
          "internalType": "address",
          "name": "account",
          "type": "address"
        },
        {
          "indexed": true,
          "internalType": "address",
          "name": "sender",
          "type": "address"
        }
      ],
      "name": "RoleRevoked",
      "type": "event"
    },
    {
      "anonymous": false,
      "inputs": [
        {
          "indexed": true,
          "internalType": "uint32",
          "name": "distributionId",
          "type": "uint32"
        },
        {
          "indexed": false,
          "internalType": "bytes32",
          "name": "merkleRoot",
          "type": "bytes32"
        },
        {
          "indexed": false,
          "internalType": "uint256",
          "name": "startTimestamp",
          "type": "uint256"
        },
        {
          "indexed": false,
          "internalType": "bytes",
          "name": "ipfsCid",
          "type": "bytes"
        }
      ],
      "name": "RootProposed",
      "type": "event"
    },
    {
      "anonymous": false,
      "inputs": [
        {
          "indexed": true,
          "internalType": "uint32",
          "name": "distributionId",
          "type": "uint32"
        },
        {
          "indexed": false,
          "internalType": "bytes32",
          "name": "merkleRoot",
          "type": "bytes32"
        },
        {
          "indexed": false,
          "internalType": "uint256",
          "name": "startTimestamp",
          "type": "uint256"
        },
        {
          "indexed": false,
          "internalType": "bytes",
          "name": "ipfsCid",
          "type": "bytes"
        }
      ],
      "name": "RootUpdated",
      "type": "event"
    },
    {
      "anonymous": false,
      "inputs": [
        {
          "indexed": true,
          "internalType": "uint256",
          "name": "chainedEventId",
          "type": "uint256"
        },
        {
          "indexed": true,
          "internalType": "uint256",
          "name": "chainId",
          "type": "uint256"
        },
        {
          "indexed": true,
          "internalType": "address",
          "name": "staker",
          "type": "address"
        },
        {
          "indexed": false,
          "internalType": "uint256",
          "name": "amount",
          "type": "uint256"
        },
        {
          "indexed": false,
          "internalType": "enum LedgerToken",
          "name": "token",
          "type": "uint8"
        }
      ],
      "name": "Staked",
      "type": "event"
    },
    {
      "anonymous": false,
      "inputs": [
        {
          "indexed": false,
          "internalType": "uint256",
          "name": "totalUsdcInTreasure",
          "type": "uint256"
        },
        {
          "indexed": false,
          "internalType": "uint256",
          "name": "totalValorAmount",
          "type": "uint256"
        },
        {
          "indexed": false,
          "internalType": "uint256",
          "name": "valorToUsdcRateScaled",
          "type": "uint256"
        }
      ],
      "name": "TotalUsdcInTreasureUpdated",
      "type": "event"
    },
    {
      "anonymous": false,
      "inputs": [
        {
          "indexed": false,
          "internalType": "address",
          "name": "account",
          "type": "address"
        }
      ],
      "name": "Unpaused",
      "type": "event"
    },
    {
      "anonymous": false,
      "inputs": [
        {
          "indexed": true,
          "internalType": "address",
          "name": "implementation",
          "type": "address"
        }
      ],
      "name": "Upgraded",
      "type": "event"
    },
    {
      "anonymous": false,
      "inputs": [
        {
          "indexed": true,
          "internalType": "uint256",
          "name": "chainEventId",
          "type": "uint256"
        },
        {
          "indexed": true,
          "internalType": "uint256",
          "name": "chainId",
          "type": "uint256"
        },
        {
          "indexed": true,
          "internalType": "address",
          "name": "user",
          "type": "address"
        },
        {
          "indexed": false,
          "internalType": "uint256",
          "name": "usdcAmount",
          "type": "uint256"
        }
      ],
      "name": "UsdcRevenueClaimed",
      "type": "event"
    },
    {
      "anonymous": false,
      "inputs": [
        {
          "indexed": true,
          "internalType": "uint256",
          "name": "chainEventId",
          "type": "uint256"
        },
        {
          "indexed": true,
          "internalType": "uint256",
          "name": "chainId",
          "type": "uint256"
        },
        {
          "indexed": true,
          "internalType": "address",
          "name": "user",
          "type": "address"
        },
        {
          "indexed": false,
          "internalType": "uint16",
          "name": "batchId",
          "type": "uint16"
        },
        {
          "indexed": false,
          "internalType": "uint256",
          "name": "valorAmount",
          "type": "uint256"
        }
      ],
      "name": "ValorRedeemed",
      "type": "event"
    },
    {
      "anonymous": false,
      "inputs": [
        {
          "indexed": true,
          "internalType": "uint256",
          "name": "chainEventId",
          "type": "uint256"
        },
        {
          "indexed": true,
          "internalType": "uint256",
          "name": "chainId",
          "type": "uint256"
        },
        {
          "indexed": true,
          "internalType": "address",
          "name": "user",
          "type": "address"
        },
        {
          "indexed": false,
          "internalType": "uint256",
          "name": "requestId",
          "type": "uint256"
        },
        {
          "indexed": false,
          "internalType": "uint256",
          "name": "amountEsorderStakedBack",
          "type": "uint256"
        }
      ],
      "name": "VestingCanceled",
      "type": "event"
    },
    {
      "anonymous": false,
      "inputs": [
        {
          "indexed": true,
          "internalType": "uint256",
          "name": "chainEventId",
          "type": "uint256"
        },
        {
          "indexed": true,
          "internalType": "uint256",
          "name": "chainId",
          "type": "uint256"
        },
        {
          "indexed": true,
          "internalType": "address",
          "name": "user",
          "type": "address"
        },
        {
          "indexed": false,
          "internalType": "uint256",
          "name": "requestId",
          "type": "uint256"
        },
        {
          "indexed": false,
          "internalType": "uint256",
          "name": "amountEsorderBurned",
          "type": "uint256"
        },
        {
          "indexed": false,
          "internalType": "uint256",
          "name": "amountOrderVested",
          "type": "uint256"
        },
        {
          "indexed": false,
          "internalType": "uint256",
          "name": "vestedPeriod",
          "type": "uint256"
        }
      ],
      "name": "VestingClaimed",
      "type": "event"
    },
    {
      "anonymous": false,
      "inputs": [
        {
          "indexed": true,
          "internalType": "uint256",
          "name": "chainEventId",
          "type": "uint256"
        },
        {
          "indexed": true,
          "internalType": "uint256",
          "name": "chainId",
          "type": "uint256"
        },
        {
          "indexed": true,
          "internalType": "address",
          "name": "user",
          "type": "address"
        },
        {
          "indexed": false,
          "internalType": "uint256",
          "name": "requestId",
          "type": "uint256"
        },
        {
          "indexed": false,
          "internalType": "uint256",
          "name": "amountEsorderRequested",
          "type": "uint256"
        },
        {
          "indexed": false,
          "internalType": "uint256",
          "name": "unlockTimestamp",
          "type": "uint256"
        }
      ],
      "name": "VestingRequested",
      "type": "event"
    },
    {
      "inputs": [],
      "name": "DEFAULT_ADMIN_ROLE",
      "outputs": [
        {
          "internalType": "bytes32",
          "name": "",
          "type": "bytes32"
        }
      ],
      "stateMutability": "view",
      "type": "function"
    },
    {
      "inputs": [],
      "name": "ROOT_UPDATER_ROLE",
      "outputs": [
        {
          "internalType": "bytes32",
          "name": "",
          "type": "bytes32"
        }
      ],
      "stateMutability": "view",
      "type": "function"
    },
    {
      "inputs": [],
      "name": "TREASURE_UPDATER_ROLE",
      "outputs": [
        {
          "internalType": "bytes32",
          "name": "",
          "type": "bytes32"
        }
      ],
      "stateMutability": "view",
      "type": "function"
    },
    {
      "inputs": [],
      "name": "UPGRADE_INTERFACE_VERSION",
      "outputs": [
        {
          "internalType": "string",
          "name": "",
          "type": "string"
        }
      ],
      "stateMutability": "view",
      "type": "function"
    },
    {
      "inputs": [],
      "name": "VALOR_TO_USDC_RATE_PRECISION",
      "outputs": [
        {
          "internalType": "uint256",
          "name": "",
          "type": "uint256"
        }
      ],
      "stateMutability": "view",
      "type": "function"
    },
    {
      "inputs": [],
      "name": "VERSION",
      "outputs": [
        {
          "internalType": "string",
          "name": "",
          "type": "string"
        }
      ],
      "stateMutability": "pure",
      "type": "function"
    },
    {
      "inputs": [
        {
          "internalType": "uint256",
          "name": "_usdcNetFeeRevenue",
          "type": "uint256"
        },
        {
          "internalType": "uint256",
          "name": "_timestamp",
          "type": "uint256"
        }
      ],
      "name": "_dailyUsdcNetFeeRevenueTest",
      "outputs": [],
      "stateMutability": "nonpayable",
      "type": "function"
    },
    {
      "inputs": [],
      "name": "accValorPerShareScaled",
      "outputs": [
        {
          "internalType": "uint256",
          "name": "",
          "type": "uint256"
        }
      ],
      "stateMutability": "view",
      "type": "function"
    },
    {
      "inputs": [],
      "name": "batchDuration",
      "outputs": [
        {
          "internalType": "uint256",
          "name": "",
          "type": "uint256"
        }
      ],
      "stateMutability": "view",
      "type": "function"
    },
    {
      "inputs": [
        {
          "internalType": "uint16",
          "name": "_batchId",
          "type": "uint16"
        }
      ],
      "name": "batchPreparedToClaim",
      "outputs": [],
      "stateMutability": "nonpayable",
      "type": "function"
    },
    {
      "inputs": [
        {
          "internalType": "uint256",
          "name": "",
          "type": "uint256"
        }
      ],
      "name": "batches",
      "outputs": [
        {
          "internalType": "bool",
          "name": "claimable",
          "type": "bool"
        },
        {
          "internalType": "uint256",
          "name": "redeemedValorAmount",
          "type": "uint256"
        },
        {
          "internalType": "uint256",
          "name": "fixedValorToUsdcRateScaled",
          "type": "uint256"
        }
      ],
      "stateMutability": "view",
      "type": "function"
    },
    {
      "inputs": [
        {
          "internalType": "address",
          "name": "_user",
          "type": "address"
        },
        {
          "internalType": "uint256",
          "name": "_requestId",
          "type": "uint256"
        }
      ],
      "name": "calculateVestingOrderAmount",
      "outputs": [
        {
          "internalType": "uint256",
          "name": "",
          "type": "uint256"
        }
      ],
      "stateMutability": "view",
      "type": "function"
    },
    {
      "inputs": [
        {
          "internalType": "uint32",
          "name": "_distributionId",
          "type": "uint32"
        }
      ],
      "name": "canUpdateRoot",
      "outputs": [
        {
          "internalType": "bool",
          "name": "",
          "type": "bool"
        }
      ],
      "stateMutability": "view",
      "type": "function"
    },
    {
      "inputs": [
        {
          "internalType": "address",
          "name": "",
          "type": "address"
        }
      ],
      "name": "collectedValor",
      "outputs": [
        {
          "internalType": "uint256",
          "name": "",
          "type": "uint256"
        }
      ],
      "stateMutability": "view",
      "type": "function"
    },
    {
      "inputs": [
        {
          "internalType": "uint32",
          "name": "_distributionId",
          "type": "uint32"
        },
        {
          "internalType": "enum LedgerToken",
          "name": "_token",
          "type": "uint8"
        },
        {
          "internalType": "bytes32",
          "name": "_merkleRoot",
          "type": "bytes32"
        },
        {
          "internalType": "uint256",
          "name": "_startTimestamp",
          "type": "uint256"
        },
        {
          "internalType": "bytes",
          "name": "_ipfsCid",
          "type": "bytes"
        }
      ],
      "name": "createDistribution",
      "outputs": [],
      "stateMutability": "nonpayable",
      "type": "function"
    },
    {
      "inputs": [
        {
          "components": [
            {
              "internalType": "bytes32",
              "name": "r",
              "type": "bytes32"
            },
            {
              "internalType": "bytes32",
              "name": "s",
              "type": "bytes32"
            },
            {
              "internalType": "uint8",
              "name": "v",
              "type": "uint8"
            },
            {
              "internalType": "uint256",
              "name": "value",
              "type": "uint256"
            },
            {
              "internalType": "uint64",
              "name": "timestamp",
              "type": "uint64"
            }
          ],
          "internalType": "struct LedgerSignedTypes.UintValueData",
          "name": "data",
          "type": "tuple"
        }
      ],
      "name": "dailyUsdcNetFeeRevenue",
      "outputs": [],
      "stateMutability": "nonpayable",
      "type": "function"
    },
    {
      "inputs": [
        {
          "internalType": "uint256",
          "name": "_usdcNetFeeRevenue",
          "type": "uint256"
        },
        {
          "internalType": "uint256",
          "name": "_timestamp",
          "type": "uint256"
        }
      ],
      "name": "dailyUsdcNetFeeRevenueTestNoSignatureCheck",
      "outputs": [],
      "stateMutability": "nonpayable",
      "type": "function"
    },
    {
      "inputs": [
        {
          "components": [
            {
              "internalType": "bytes32",
              "name": "r",
              "type": "bytes32"
            },
            {
              "internalType": "bytes32",
              "name": "s",
              "type": "bytes32"
            },
            {
              "internalType": "uint8",
              "name": "v",
              "type": "uint8"
            },
            {
              "internalType": "uint256",
              "name": "value",
              "type": "uint256"
            },
            {
              "internalType": "uint64",
              "name": "timestamp",
              "type": "uint64"
            }
          ],
          "internalType": "struct LedgerSignedTypes.UintValueData",
          "name": "data",
          "type": "tuple"
        }
      ],
      "name": "dailyUsdcNetFeeRevenueTestNoTimeCheck",
      "outputs": [],
      "stateMutability": "nonpayable",
      "type": "function"
    },
    {
      "inputs": [
        {
          "internalType": "uint16",
          "name": "_batchId",
          "type": "uint16"
        }
      ],
      "name": "getBatchChainedValorAmount",
      "outputs": [
        {
          "components": [
            {
              "internalType": "uint256",
              "name": "chainId",
              "type": "uint256"
            },
            {
              "internalType": "uint256",
              "name": "amount",
              "type": "uint256"
            }
          ],
          "internalType": "struct Revenue.ChainedAmount[]",
          "name": "",
          "type": "tuple[]"
        }
      ],
      "stateMutability": "view",
      "type": "function"
    },
    {
      "inputs": [
        {
          "internalType": "uint16",
          "name": "_batchId",
          "type": "uint16"
        }
      ],
      "name": "getBatchInfo",
      "outputs": [
        {
          "internalType": "uint256",
          "name": "batchStartTime",
          "type": "uint256"
        },
        {
          "internalType": "uint256",
          "name": "batchEndTime",
          "type": "uint256"
        },
        {
          "internalType": "bool",
          "name": "claimable",
          "type": "bool"
        },
        {
          "internalType": "uint256",
          "name": "redeemedValorAmount",
          "type": "uint256"
        },
        {
          "internalType": "uint256",
          "name": "fixedValorToUsdcRateScaled",
          "type": "uint256"
        }
      ],
      "stateMutability": "view",
      "type": "function"
    },
    {
      "inputs": [
        {
          "internalType": "uint32",
          "name": "_distributionId",
          "type": "uint32"
        },
        {
          "internalType": "address",
          "name": "_user",
          "type": "address"
        }
      ],
      "name": "getClaimed",
      "outputs": [
        {
          "internalType": "uint256",
          "name": "",
          "type": "uint256"
        }
      ],
      "stateMutability": "view",
      "type": "function"
    },
    {
      "inputs": [],
      "name": "getCurrentBatchId",
      "outputs": [
        {
          "internalType": "uint16",
          "name": "",
          "type": "uint16"
        }
      ],
      "stateMutability": "view",
      "type": "function"
    },
    {
      "inputs": [
        {
          "internalType": "uint32",
          "name": "_distributionId",
          "type": "uint32"
        }
      ],
      "name": "getDistribution",
      "outputs": [
        {
          "internalType": "enum LedgerToken",
          "name": "token",
          "type": "uint8"
        },
        {
          "internalType": "bytes32",
          "name": "merkleRoot",
          "type": "bytes32"
        },
        {
          "internalType": "uint256",
          "name": "startTimestamp",
          "type": "uint256"
        },
        {
          "internalType": "bytes",
          "name": "ipfsCid",
          "type": "bytes"
        }
      ],
      "stateMutability": "view",
      "type": "function"
    },
    {
      "inputs": [
        {
          "internalType": "address",
          "name": "_user",
          "type": "address"
        }
      ],
      "name": "getOrderAvailableToWithdraw",
      "outputs": [
        {
          "internalType": "uint256",
          "name": "orderAmount",
          "type": "uint256"
        }
      ],
      "stateMutability": "view",
      "type": "function"
    },
    {
      "inputs": [
        {
          "internalType": "uint32",
          "name": "_distributionId",
          "type": "uint32"
        }
      ],
      "name": "getProposedRoot",
      "outputs": [
        {
          "internalType": "bytes32",
          "name": "merkleRoot",
          "type": "bytes32"
        },
        {
          "internalType": "uint256",
          "name": "startTimestamp",
          "type": "uint256"
        },
        {
          "internalType": "bytes",
          "name": "ipfsCid",
          "type": "bytes"
        }
      ],
      "stateMutability": "view",
      "type": "function"
    },
    {
      "inputs": [
        {
          "internalType": "bytes32",
          "name": "role",
          "type": "bytes32"
        }
      ],
      "name": "getRoleAdmin",
      "outputs": [
        {
          "internalType": "bytes32",
          "name": "",
          "type": "bytes32"
        }
      ],
      "stateMutability": "view",
      "type": "function"
    },
    {
      "inputs": [
        {
          "internalType": "address",
          "name": "_user",
          "type": "address"
        }
      ],
      "name": "getStakingInfo",
      "outputs": [
        {
          "internalType": "uint256",
          "name": "orderBalance",
          "type": "uint256"
        },
        {
          "internalType": "uint256",
          "name": "esOrderBalance",
          "type": "uint256"
        }
      ],
      "stateMutability": "view",
      "type": "function"
    },
    {
      "inputs": [],
      "name": "getTotalValorAmount",
      "outputs": [
        {
          "internalType": "uint256",
          "name": "",
          "type": "uint256"
        }
      ],
      "stateMutability": "view",
      "type": "function"
    },
    {
      "inputs": [],
      "name": "getTotalValorEmitted",
      "outputs": [
        {
          "internalType": "uint256",
          "name": "",
          "type": "uint256"
        }
      ],
      "stateMutability": "view",
      "type": "function"
    },
    {
      "inputs": [
        {
          "internalType": "uint16",
          "name": "_batchId",
          "type": "uint16"
        }
      ],
      "name": "getUsdcAmountForBatch",
      "outputs": [
        {
          "components": [
            {
              "internalType": "uint256",
              "name": "chainId",
              "type": "uint256"
            },
            {
              "internalType": "uint256",
              "name": "amount",
              "type": "uint256"
            }
          ],
          "internalType": "struct Revenue.ChainedAmount[]",
          "name": "chainedUsdcAmount",
          "type": "tuple[]"
        }
      ],
      "stateMutability": "view",
      "type": "function"
    },
    {
      "inputs": [
        {
          "internalType": "address",
          "name": "_user",
          "type": "address"
        }
      ],
      "name": "getUserValor",
      "outputs": [
        {
          "internalType": "uint256",
          "name": "",
          "type": "uint256"
        }
      ],
      "stateMutability": "view",
      "type": "function"
    },
    {
      "inputs": [
        {
          "internalType": "address",
          "name": "_user",
          "type": "address"
        }
      ],
      "name": "getUserVestingRequests",
      "outputs": [
        {
          "components": [
            {
              "internalType": "uint256",
              "name": "requestId",
              "type": "uint256"
            },
            {
              "internalType": "uint256",
              "name": "esOrderAmount",
              "type": "uint256"
            },
            {
              "internalType": "uint256",
              "name": "unlockTimestamp",
              "type": "uint256"
            }
          ],
          "internalType": "struct Vesting.VestingRequest[]",
          "name": "",
          "type": "tuple[]"
        }
      ],
      "stateMutability": "view",
      "type": "function"
    },
    {
      "inputs": [
        {
          "internalType": "bytes32",
          "name": "role",
          "type": "bytes32"
        },
        {
          "internalType": "address",
          "name": "account",
          "type": "address"
        }
      ],
      "name": "grantRole",
      "outputs": [],
      "stateMutability": "nonpayable",
      "type": "function"
    },
    {
      "inputs": [
        {
          "internalType": "uint32",
          "name": "_distributionId",
          "type": "uint32"
        }
      ],
      "name": "hasPendingRoot",
      "outputs": [
        {
          "internalType": "bool",
          "name": "",
          "type": "bool"
        }
      ],
      "stateMutability": "view",
      "type": "function"
    },
    {
      "inputs": [
        {
          "internalType": "bytes32",
          "name": "role",
          "type": "bytes32"
        },
        {
          "internalType": "address",
          "name": "account",
          "type": "address"
        }
      ],
      "name": "hasRole",
      "outputs": [
        {
          "internalType": "bool",
          "name": "",
          "type": "bool"
        }
      ],
      "stateMutability": "view",
      "type": "function"
    },
    {
      "inputs": [
        {
          "internalType": "address",
          "name": "_owner",
          "type": "address"
        },
        {
          "internalType": "address",
          "name": "_occAdaptor",
          "type": "address"
        },
        {
          "internalType": "uint256",
          "name": "_valorPerSecond",
          "type": "uint256"
        },
        {
          "internalType": "uint256",
          "name": "_maximumValorEmission",
          "type": "uint256"
        }
      ],
      "name": "initialize",
      "outputs": [],
      "stateMutability": "nonpayable",
      "type": "function"
    },
    {
      "inputs": [
        {
          "internalType": "uint32",
          "name": "_distributionId",
          "type": "uint32"
        }
      ],
      "name": "isDistributionRecordBased",
      "outputs": [
        {
          "internalType": "bool",
          "name": "",
          "type": "bool"
        }
      ],
      "stateMutability": "view",
      "type": "function"
    },
    {
      "inputs": [],
      "name": "lastUsdcNetFeeRevenueUpdateTimestamp",
      "outputs": [
        {
          "internalType": "uint256",
          "name": "",
          "type": "uint256"
        }
      ],
      "stateMutability": "view",
      "type": "function"
    },
    {
      "inputs": [],
      "name": "lastValorUpdateTimestamp",
      "outputs": [
        {
          "internalType": "uint256",
          "name": "",
          "type": "uint256"
        }
      ],
      "stateMutability": "view",
      "type": "function"
    },
    {
      "inputs": [
        {
          "components": [
            {
              "internalType": "uint256",
              "name": "chainedEventId",
              "type": "uint256"
            },
            {
              "internalType": "uint256",
              "name": "srcChainId",
              "type": "uint256"
            },
            {
              "internalType": "enum LedgerToken",
              "name": "token",
              "type": "uint8"
            },
            {
              "internalType": "uint256",
              "name": "tokenAmount",
              "type": "uint256"
            },
            {
              "internalType": "address",
              "name": "sender",
              "type": "address"
            },
            {
              "internalType": "uint8",
              "name": "payloadType",
              "type": "uint8"
            },
            {
              "internalType": "bytes",
              "name": "payload",
              "type": "bytes"
            }
          ],
          "internalType": "struct OCCVaultMessage",
          "name": "message",
          "type": "tuple"
        }
      ],
      "name": "ledgerRecvFromVault",
      "outputs": [],
      "stateMutability": "nonpayable",
      "type": "function"
    },
    {
      "inputs": [],
      "name": "maximumValorEmission",
      "outputs": [
        {
          "internalType": "uint256",
          "name": "",
          "type": "uint256"
        }
      ],
      "stateMutability": "view",
      "type": "function"
    },
    {
      "inputs": [],
      "name": "occAdaptor",
      "outputs": [
        {
          "internalType": "address",
          "name": "",
          "type": "address"
        }
      ],
      "stateMutability": "view",
      "type": "function"
    },
    {
      "inputs": [],
      "name": "pause",
      "outputs": [],
      "stateMutability": "nonpayable",
      "type": "function"
    },
    {
      "inputs": [],
      "name": "paused",
      "outputs": [
        {
          "internalType": "bool",
          "name": "",
          "type": "bool"
        }
      ],
      "stateMutability": "view",
      "type": "function"
    },
    {
      "inputs": [
        {
          "internalType": "uint32",
          "name": "_distributionId",
          "type": "uint32"
        },
        {
          "internalType": "bytes32",
          "name": "_merkleRoot",
          "type": "bytes32"
        },
        {
          "internalType": "uint256",
          "name": "_startTimestamp",
          "type": "uint256"
        },
        {
          "internalType": "bytes",
          "name": "_ipfsCid",
          "type": "bytes"
        }
      ],
      "name": "proposeRoot",
      "outputs": [],
      "stateMutability": "nonpayable",
      "type": "function"
    },
    {
      "inputs": [],
      "name": "proxiableUUID",
      "outputs": [
        {
          "internalType": "bytes32",
          "name": "",
          "type": "bytes32"
        }
      ],
      "stateMutability": "view",
      "type": "function"
    },
    {
      "inputs": [
        {
          "internalType": "bytes32",
          "name": "role",
          "type": "bytes32"
        },
        {
          "internalType": "address",
          "name": "callerConfirmation",
          "type": "address"
        }
      ],
      "name": "renounceRole",
      "outputs": [],
      "stateMutability": "nonpayable",
      "type": "function"
    },
    {
      "inputs": [
        {
          "internalType": "bytes32",
          "name": "role",
          "type": "bytes32"
        },
        {
          "internalType": "address",
          "name": "account",
          "type": "address"
        }
      ],
      "name": "revokeRole",
      "outputs": [],
      "stateMutability": "nonpayable",
      "type": "function"
    },
    {
      "inputs": [
        {
          "internalType": "uint256",
          "name": "_batchDuration",
          "type": "uint256"
        }
      ],
      "name": "setBatchDuration",
      "outputs": [],
      "stateMutability": "nonpayable",
      "type": "function"
    },
    {
      "inputs": [
        {
          "internalType": "address",
          "name": "_occAdaptor",
          "type": "address"
        }
      ],
      "name": "setOccAdaptor",
      "outputs": [],
      "stateMutability": "nonpayable",
      "type": "function"
    },
    {
      "inputs": [
        {
          "internalType": "uint256",
          "name": "_totalUsdcInTreasure",
          "type": "uint256"
        }
      ],
      "name": "setTotalUsdcInTreasure",
      "outputs": [],
      "stateMutability": "nonpayable",
      "type": "function"
    },
    {
      "inputs": [
        {
          "internalType": "uint256",
          "name": "_unstakeLockPeriod",
          "type": "uint256"
        }
      ],
      "name": "setUnstakeLockPeriod",
      "outputs": [],
      "stateMutability": "nonpayable",
      "type": "function"
    },
    {
      "inputs": [
        {
          "internalType": "address",
          "name": "_usdcUpdaterAddress",
          "type": "address"
        }
      ],
      "name": "setUsdcUpdaterAddress",
      "outputs": [],
      "stateMutability": "nonpayable",
      "type": "function"
    },
    {
      "inputs": [
        {
          "internalType": "uint256",
          "name": "_valorEmissionStartTimestamp",
          "type": "uint256"
        }
      ],
      "name": "setValorEmissionStartTimestamp",
      "outputs": [],
      "stateMutability": "nonpayable",
      "type": "function"
    },
    {
      "inputs": [
        {
          "internalType": "uint256",
          "name": "_vestingLinearPeriod",
          "type": "uint256"
        }
      ],
      "name": "setVestingLinearPeriod",
      "outputs": [],
      "stateMutability": "nonpayable",
      "type": "function"
    },
    {
      "inputs": [
        {
          "internalType": "uint256",
          "name": "_vestingLockPeriod",
          "type": "uint256"
        }
      ],
      "name": "setVestingLockPeriod",
      "outputs": [],
      "stateMutability": "nonpayable",
      "type": "function"
    },
    {
      "inputs": [
        {
          "internalType": "uint256",
          "name": "",
          "type": "uint256"
        }
      ],
      "name": "srcChainIdToEventId",
      "outputs": [
        {
          "internalType": "uint256",
          "name": "",
          "type": "uint256"
        }
      ],
      "stateMutability": "view",
      "type": "function"
    },
    {
      "inputs": [
        {
          "internalType": "bytes4",
          "name": "interfaceId",
          "type": "bytes4"
        }
      ],
      "name": "supportsInterface",
      "outputs": [
        {
          "internalType": "bool",
          "name": "",
          "type": "bool"
        }
      ],
      "stateMutability": "view",
      "type": "function"
    },
    {
      "inputs": [],
      "name": "totalStakedAmount",
      "outputs": [
        {
          "internalType": "uint256",
          "name": "",
          "type": "uint256"
        }
      ],
      "stateMutability": "view",
      "type": "function"
    },
    {
      "inputs": [],
      "name": "totalUsdcInTreasure",
      "outputs": [
        {
          "internalType": "uint256",
          "name": "",
          "type": "uint256"
        }
      ],
      "stateMutability": "view",
      "type": "function"
    },
    {
      "inputs": [],
      "name": "totalValorRedeemed",
      "outputs": [
        {
          "internalType": "uint256",
          "name": "",
          "type": "uint256"
        }
      ],
      "stateMutability": "view",
      "type": "function"
    },
    {
      "inputs": [],
      "name": "unpause",
      "outputs": [],
      "stateMutability": "nonpayable",
      "type": "function"
    },
    {
      "inputs": [],
      "name": "unstakeLockPeriod",
      "outputs": [
        {
          "internalType": "uint256",
          "name": "",
          "type": "uint256"
        }
      ],
      "stateMutability": "view",
      "type": "function"
    },
    {
      "inputs": [
        {
          "internalType": "uint32",
          "name": "_distributionId",
          "type": "uint32"
        }
      ],
      "name": "updateRoot",
      "outputs": [],
      "stateMutability": "nonpayable",
      "type": "function"
    },
    {
      "inputs": [],
      "name": "updateValorVars",
      "outputs": [],
      "stateMutability": "nonpayable",
      "type": "function"
    },
    {
      "inputs": [
        {
          "internalType": "address",
          "name": "newImplementation",
          "type": "address"
        },
        {
          "internalType": "bytes",
          "name": "data",
          "type": "bytes"
        }
      ],
      "name": "upgradeToAndCall",
      "outputs": [],
      "stateMutability": "payable",
      "type": "function"
    },
    {
      "inputs": [],
      "name": "usdcUpdaterAddress",
      "outputs": [
        {
          "internalType": "address",
          "name": "",
          "type": "address"
        }
      ],
      "stateMutability": "view",
      "type": "function"
    },
    {
      "inputs": [
        {
          "internalType": "address",
          "name": "",
          "type": "address"
        }
      ],
      "name": "userPendingUnstake",
      "outputs": [
        {
          "internalType": "uint256",
          "name": "balanceOrder",
          "type": "uint256"
        },
        {
          "internalType": "uint256",
          "name": "unlockTimestamp",
          "type": "uint256"
        }
      ],
      "stateMutability": "view",
      "type": "function"
    },
    {
      "inputs": [
        {
          "internalType": "address",
          "name": "_user",
          "type": "address"
        }
      ],
      "name": "userTotalStakingBalance",
      "outputs": [
        {
          "internalType": "uint256",
          "name": "",
          "type": "uint256"
        }
      ],
      "stateMutability": "view",
      "type": "function"
    },
    {
      "inputs": [],
      "name": "valorEmissionStartTimestamp",
      "outputs": [
        {
          "internalType": "uint256",
          "name": "",
          "type": "uint256"
        }
      ],
      "stateMutability": "view",
      "type": "function"
    },
    {
      "inputs": [],
      "name": "valorPerSecond",
      "outputs": [
        {
          "internalType": "uint256",
          "name": "",
          "type": "uint256"
        }
      ],
      "stateMutability": "view",
      "type": "function"
    },
    {
      "inputs": [],
      "name": "valorToUsdcRateScaled",
      "outputs": [
        {
          "internalType": "uint256",
          "name": "",
          "type": "uint256"
        }
      ],
      "stateMutability": "view",
      "type": "function"
    },
    {
      "inputs": [],
      "name": "vestingLinearPeriod",
      "outputs": [
        {
          "internalType": "uint256",
          "name": "",
          "type": "uint256"
        }
      ],
      "stateMutability": "view",
      "type": "function"
    },
    {
      "inputs": [],
      "name": "vestingLockPeriod",
      "outputs": [
        {
          "internalType": "uint256",
          "name": "",
          "type": "uint256"
        }
      ],
      "stateMutability": "view",
      "type": "function"
    }
  ],
  "transactionHash": "0x21f47ccc3a879bbff2675032e9f114b57bd8c8c6165ba4bc328c3a4f9da23566",
  "args": [],
  "numDeployments": 1,
  "solcInputHash": "1653b378dd476e07c97d240d3d640e87",
  "bytecode": "0x60a0604052306080523480156200001557600080fd5b506200002062000026565b620000da565b7ff0c57e16840df040f15088dc2f81fe391c3923bec73e23a9662efc9c229c6a00805468010000000000000000900460ff1615620000775760405163f92ee8a960e01b815260040160405180910390fd5b80546001600160401b0390811614620000d75780546001600160401b0319166001600160401b0390811782556040519081527fc7f505b2f371ae2175ee4913f4499e1f2633a7b5936321eed1cdaeb6115181d29060200160405180910390a15b50565b608051615e0062000104600039600081816126090152818161263201526131fc0152615e006000f3fe6080604052600436106104315760003560e01c80638456cb5911610229578063b32c4d8d1161012e578063d84aaaff116100b6578063eb990c591161007a578063eb990c5914610d8d578063ec81bf9314610dad578063efc9cd8214610dc3578063f5a634ef14610de3578063ffa1ad7414610e0357600080fd5b8063d84aaaff14610ced578063d9ab2c5c14610d03578063e720ac8e14610d25578063e7bacc3014610d4d578063e7cd7dda14610d6d57600080fd5b8063ba7a2a49116100fd578063ba7a2a4914610c55578063caefe41314610c75578063ccd4cf1214610c97578063d0c01ccd14610cad578063d547741f14610ccd57600080fd5b8063b32c4d8d14610bcc578063b42ea79a14610c09578063b58bccc414610c1f578063b62a7d8014610c3f57600080fd5b80639d91c0e7116101b1578063a2c7d9ae11610180578063a2c7d9ae14610aea578063aa4704f314610b0a578063ab7b18be14610b48578063ad3cb1cc14610b5e578063b2077fe814610b9c57600080fd5b80639d91c0e714610a565780639def3f1a14610a76578063a0cd44c314610a8c578063a217fddf14610ad557600080fd5b8063909d1909116101f8578063909d1909146109d457806391d14854146109ea5780639340121614610a0a5780639aefd88614610a2a5780639c9563a214610a4057600080fd5b80638456cb5914610952578063892735ed146109675780638e9a2dd21461098757806390999c4f146109a757600080fd5b80634f60032e1161033a57806365923b10116102c257806374ae2e2e1161028657806374ae2e2e146108a85780637a5ecc00146108c85780637cef6892146108e85780637d143b52146108fd57806380213de71461093257600080fd5b806365923b101461081257806367dfb317146108325780636b1f8c0d146108525780636d0ef8d41461087257806373250c081461089257600080fd5b8063562a54f811610309578063562a54f814610777578063567e98f9146107975780635b97527f146107ad5780635c975abb146107cd57806364f4463c146107f257600080fd5b80634f60032e146106d3578063521c95271461072257806352580b5a1461074257806352d1902d1461076257600080fd5b806330b667a6116103bd578063415a483f1161038c578063415a483f14610623578063443c96231461063857806349c99b72146106715780634d1d882a146106915780634f1ef286146106c057600080fd5b806330b667a6146105a157806336568abe146105ce5780633cef26ec146105ee5780633f4ba83a1461060e57600080fd5b806326bf1c031161040457806326bf1c03146104db57806328a9fdec146104f157806328bcd70e1461053c5780632c3a2e97146105525780632f2ff15d1461057f57600080fd5b806301ffc9a7146104365780630877bc851461046b5780630b24ea0e14610498578063248a9ca3146104bb575b600080fd5b34801561044257600080fd5b50610456610451366004614ef4565b610e31565b60405190151581526020015b60405180910390f35b34801561047757600080fd5b5061048b610486366004614f1e565b610e68565b6040516104629190614f42565b3480156104a457600080fd5b506104ad610ee7565b604051908152602001610462565b3480156104c757600080fd5b506104ad6104d6366004614f91565b610f03565b3480156104e757600080fd5b506104ad60815481565b3480156104fd57600080fd5b506104ad61050c366004614fd8565b63ffffffff82166000908152600d602090815260408083206001600160a01b038516845290915290205492915050565b34801561054857600080fd5b506104ad60465481565b34801561055e57600080fd5b5061057261056d36600461500d565b610f25565b6040516104629190615028565b34801561058b57600080fd5b5061059f61059a366004615074565b610fb0565b005b3480156105ad57600080fd5b506104ad6105bc36600461500d565b60416020526000908152604090205481565b3480156105da57600080fd5b5061059f6105e9366004615074565b610fd2565b3480156105fa57600080fd5b506104ad610609366004615097565b61100a565b34801561061a57600080fd5b5061059f611047565b34801561062f57600080fd5b5061059f61105d565b34801561064457600080fd5b5061011e54610659906001600160a01b031681565b6040516001600160a01b039091168152602001610462565b34801561067d57600080fd5b5061059f61068c36600461500d565b611086565b34801561069d57600080fd5b506106b16106ac3660046150c1565b6110bc565b6040516104629392919061512e565b61059f6106ce36600461524c565b61117f565b3480156106df57600080fd5b506106f36106ee366004614f1e565b61119e565b604051610462959493929190948552602085019390935290151560408401526060830152608082015260a00190565b34801561072e57600080fd5b5061059f61073d3660046152b9565b611224565b34801561074e57600080fd5b506104ad61075d36600461500d565b61154d565b34801561076e57600080fd5b506104ad61158e565b34801561078357600080fd5b5061059f61079236600461500d565b6115ac565b3480156107a357600080fd5b506104ad607f5481565b3480156107b957600080fd5b5061059f6107c8366004614f1e565b6115db565b3480156107d957600080fd5b50600080516020615d8b8339815191525460ff16610456565b3480156107fe57600080fd5b506104ad61080d36600461500d565b61169d565b34801561081e57600080fd5b5061059f61082d366004615376565b6116c9565b34801561083e57600080fd5b5061059f61084d366004614f91565b611764565b34801561085e57600080fd5b5061045661086d3660046150c1565b6117c6565b34801561087e57600080fd5b5061059f61088d366004614f91565b608155565b34801561089e57600080fd5b506104ad60475481565b3480156108b457600080fd5b5061048b6108c3366004614f1e565b611804565b3480156108d457600080fd5b5061059f6108e3366004615398565b6118fe565b3480156108f457600080fd5b506104ad61195f565b34801561090957600080fd5b506104566109183660046150c1565b63ffffffff166000908152600c6020526040902054151590565b34801561093e57600080fd5b5061059f61094d366004614f91565b60ea55565b34801561095e57600080fd5b5061059f611976565b34801561097357600080fd5b506104566109823660046150c1565b611989565b34801561099357600080fd5b5061059f6109a23660046153f8565b6119be565b3480156109b357600080fd5b506104ad6109c2366004614f91565b60056020526000908152604090205481565b3480156109e057600080fd5b506104ad60425481565b3480156109f657600080fd5b50610456610a05366004615074565b611a01565b348015610a1657600080fd5b5061059f610a25366004615461565b611a39565b348015610a3657600080fd5b506104ad60eb5481565b348015610a4c57600080fd5b506104ad60b65481565b348015610a6257600080fd5b5061059f610a71366004614f91565b611c09565b348015610a8257600080fd5b506104ad60485481565b348015610a9857600080fd5b50610ac0610aa736600461500d565b607e602052600090815260409020805460019091015482565b60408051928352602083019190915201610462565b348015610ae157600080fd5b506104ad600081565b348015610af657600080fd5b506104ad610b0536600461500d565b611c7a565b348015610b1657600080fd5b50610ac0610b2536600461500d565b6001600160a01b03166000908152607d6020526040902080546001909101549091565b348015610b5457600080fd5b506104ad60495481565b348015610b6a57600080fd5b50610b8f604051806040016040528060058152602001640352e302e360dc1b81525081565b60405161046291906154da565b348015610ba857600080fd5b50610bbc610bb73660046150c1565b611ca3565b6040516104629493929190615525565b348015610bd857600080fd5b50610bec610be7366004614f91565b611e53565b604080519315158452602084019290925290820152606001610462565b348015610c1557600080fd5b506104ad60455481565b348015610c2b57600080fd5b5061059f610c3a366004614f91565b60b655565b348015610c4b57600080fd5b506104ad60ea5481565b348015610c6157600080fd5b5061059f610c70366004615398565b611e8a565b348015610c8157600080fd5b506104ad600080516020615dab83398151915281565b348015610ca357600080fd5b506104ad60805481565b348015610cb957600080fd5b506104ad6b033b2e3c9fd0803ce800000081565b348015610cd957600080fd5b5061059f610ce8366004615074565b611e9b565b348015610cf957600080fd5b506104ad60435481565b348015610d0f57600080fd5b506104ad600080516020615d2b83398151915281565b348015610d3157600080fd5b50610d3a611eb7565b60405161ffff9091168152602001610462565b348015610d5957600080fd5b5061059f610d683660046150c1565b611eff565b348015610d7957600080fd5b5061059f610d88366004614f91565b60eb55565b348015610d9957600080fd5b5061059f610da836600461555b565b612008565b348015610db957600080fd5b506104ad604a5481565b348015610dcf57600080fd5b5061059f610dde366004615376565b612174565b348015610def57600080fd5b50604054610659906001600160a01b031681565b348015610e0f57600080fd5b50604080518082019091526005815264189718171960d91b6020820152610b8f565b60006001600160e01b03198216637965db0b60e01b1480610e6257506301ffc9a760e01b6001600160e01b03198316145b92915050565b6060610e7382612196565b600301805480602002602001604051908101604052809291908181526020016000905b82821015610edc57838290600052602060002090600202016040518060400160405290816000820154815260200160018201548152505081526020019060010190610e96565b505050509050919050565b6000610ef16121eb565b604454610efe91906155b3565b905090565b6000908152600080516020615d6b833981519152602052604090206001015490565b6001600160a01b038116600090815260e960209081526040808320600101805482518185028101850190935280835260609492939192909184015b82821015610edc5783829060005260206000209060030201604051806060016040529081600082015481526020016001820154815260200160028201548152505081526020019060010190610f60565b610fb982610f03565b610fc281612249565b610fcc8383612253565b50505050565b6001600160a01b0381163314610ffb5760405163334bd91960e11b815260040160405180910390fd5b61100582826122f8565b505050565b60006110406110198484612374565b60408051606081018252825481526001830154602082015260029092015490820152612459565b9392505050565b600061105281612249565b61105a6124e8565b50565b611065612548565b600061106f61257b565b9050801561105a57611080816125b3565b60805550565b61108e612548565b600061109981612249565b50604080546001600160a01b0319166001600160a01b0392909216919091179055565b63ffffffff81166000908152600c602052604081208054600182015460029092018054849360609392909181906110f2906155c6565b80601f016020809104026020016040519081016040528092919081815260200182805461111e906155c6565b801561116b5780601f106111405761010080835404028352916020019161116b565b820191906000526020600020905b81548152906001019060200180831161114e57829003601f168201915b505050505090509250925092509193909250565b6111876125fe565b611190826126a3565b61119a82826126ae565b5050565b600080600080600060b6548661ffff166111b891906155fa565b6048546111c591906155b3565b945060b654856111d591906155b3565b60b45490945061ffff871610156112115760006111f187612196565b8054600182015460029092015460ff9091169550909350915061121b9050565b5060009150819050805b91939590929450565b61011e546001600160a01b031633146112755760405162461bcd60e51b815260206004820152600e60248201526d27b7363ca7a1a1a0b230b83a37b960911b60448201526064015b60405180910390fd5b60a081015160ff166112bf5760008160c0015180602001905181019061129b9190615611565b80516080840151845160208087015190850151604086015195965061119a9561276b565b600160ff168160a0015160ff16036112f25761105a81608001518260000151836020015184604001518560600151612888565b600260ff168160a0015160ff16036113385760008160c0015180602001905181019061131e9190615741565b608083015183516020850151835193945061119a936129d5565b600360ff168160a0015160ff16036113615761119a816080015182600001518360200151612bb7565b600460ff168160a0015160ff160361138a5761105a816080015182600001518360200151612d37565b600560ff168160a0015160ff16036113d05760008160c001518060200190518101906113b69190615741565b608083015183516020850151835193945061119a93612e06565b600660ff168160a0015160ff16036114385760008160c001518060200190518101906113fc9190615741565b9050600061141c8360800151846000015185602001518560000151612e1e565b9050611005836080015184600001518560200151600185612888565b600760ff168160a0015160ff160361147f576000611463826080015183600001518460200151612eae565b905061119a826080015183600001518460200151600185612888565b600860ff168160a0015160ff16036114c55760008160c001518060200190518101906114ab9190615741565b608083015183516020850151835193945061119a93613056565b600960ff168160a0015160ff160361150b5760008160c001518060200190518101906114f19190615741565b608083015183516020850151835193945061119a93613190565b600a60ff168160a0015160ff16036115345761105a8160800151826000015183602001516131a5565b604051634440024f60e01b815260040160405180910390fd5b6001600160a01b0381166000908152607e60205260408120600181015415806115795750806001015442105b156115875750600092915050565b5492915050565b60006115986131f1565b50600080516020615d4b8339815191525b90565b60006115b781612249565b5061011e80546001600160a01b0319166001600160a01b0392909216919091179055565b6115e3612548565b60006115ee81612249565b6115f6611eb7565b61ffff168261ffff161061161d57604051637dd2cb5d60e11b815260040160405180910390fd5b600061162883612196565b9050806002015460000361164f57604051631957b3ff60e31b815260040160405180910390fd5b805460ff161561165e57505050565b805460ff1916600117815560405161ffff8416907f6eac907c1eaf34119620cb19afb9703e14b837a593b2701476d771ce2250b13390600090a2505050565b6001600160a01b0381166000908152604160205260408120546116bf8361323a565b610e6291906155b3565b600080516020615dab8339815191526116e181612249565b42604a8190555082604660008282546116fa91906155b3565b909155506117089050613269565b817fbbd8342b1e1fe32712ce056fbd76edab76635724aa81f9f63cae57b5918fb4828460465461173661195f565b60475460408051948552602085019390935291830152606082015260800160405180910390a26110056132ae565b61176c612548565b600061177781612249565b60485442111561179a57604051634c65ea0560e11b815260040160405180910390fd5b814211156117bb5760405163f0a6a15760e01b815260040160405180910390fd5b506048819055604955565b63ffffffff81166000908152600c602052604081205415158015610e6257505063ffffffff166000908152600c602052604090206001015442101590565b6060600061181183612196565b6003810180546040805160208084028201810190925282815293945060009084015b8282101561187957838290600052602060002090600202016040518060400160405290816000820154815260200160018201548152505081526020019060010190611833565b50505050915060005b82518110156118f7576b033b2e3c9fd0803ce800000082600201548483815181106118af576118af61575d565b6020026020010151602001516118c591906155fa565b6118cf9190615789565b8382815181106118e1576118e161575d565b6020908102919091018101510152600101611882565b5050919050565b600080516020615dab83398151915261191681612249565b611939611928368490038401846157b4565b6040546001600160a01b03166133a5565b61119a606083013561195160a085016080860161582e565b6001600160401b03166116c9565b600060455461196c610ee7565b610efe9190615849565b600061198181612249565b61105a613433565b6000600163ffffffff83166000908152600b602052604090205460ff1660038111156119b7576119b76154ed565b1492915050565b6119c6612548565b6119ce61347c565b6119e5600080516020615d2b833981519152612249565b6119f285858585856134c6565b6119fa6136d1565b5050505050565b6000918252600080516020615d6b833981519152602090815260408084206001600160a01b0393909316845291905290205460ff1690565b611a41612548565b611a4961347c565b611a60600080516020615d2b833981519152612249565b63ffffffff86166000908152600b602052604090206002015415611a9757604051630ed16a0560e31b815260040160405180910390fd5b6000856003811115611aab57611aab6154ed565b14158015611acb57506001856003811115611ac857611ac86154ed565b14155b15611ae95760405163a24e5e1360e01b815260040160405180910390fd5b6040518060400160405280866003811115611b0657611b066154ed565b81526040805160608101825260008082526001602083810182905284518082018652838152848601529485019290925263ffffffff8b168152600b90935291208251815491929091839160ff1990911690836003811115611b6957611b696154ed565b021790555060208201518160010160008201518160000155602082015181600101556040820151816002019081611ba091906158a4565b505050905050611bb386858585856134c6565b8563ffffffff167f73abe366fa506a9b0fd0a71d141c93c00ac8ae17bdb4e183daf8a54f9485e1318686868686604051611bf195949392919061598c565b60405180910390a2611c016136d1565b505050505050565b611c11612548565b6000611c1c81612249565b6046829055611c29613269565b7fa032eeb49fe502e13b030998efb945ccf3ff68ec5729dfcada07a1149dffa163604654611c5561195f565b6047546040805193845260208401929092529082015260600160405180910390a15050565b6001600160a01b0381166000908152607d6020526040812060018101549054610e6291906155b3565b60008060006060611cb3856117c6565b15611d885763ffffffff85166000908152600b6020908152604080832054600c909252909120805460018201546002909201805460ff909416939192918190611cfb906155c6565b80601f0160208091040260200160405190810160405280929190818152602001828054611d27906155c6565b8015611d745780601f10611d4957610100808354040283529160200191611d74565b820191906000526020600020905b815481529060010190602001808311611d5757829003601f168201915b505050505090509350935093509350611e4c565b63ffffffff85166000908152600b602052604090208054600182015460028301546003909301805460ff9093169391928190611dc3906155c6565b80601f0160208091040260200160405190810160405280929190818152602001828054611def906155c6565b8015611e3c5780601f10611e1157610100808354040283529160200191611e3c565b820191906000526020600020905b815481529060010190602001808311611e1f57829003601f168201915b5050505050905093509350935093505b9193509193565b60b48181548110611e6357600080fd5b600091825260209091206004909102018054600182015460029092015460ff909116925083565b611e93816136f7565b61105a6132ae565b611ea482610f03565b611ead81612249565b610fcc83836122f8565b6048546000904290811015611edf57604051635bf137b760e11b815260040160405180910390fd5b60b654604854611eef9083615849565b611ef99190615789565b91505090565b611f07612548565b611f10816117c6565b611f2d576040516326175e1b60e21b815260040160405180910390fd5b63ffffffff81166000908152600c60209081526040808320600b90925290912081546001808301918255830154600280840191909155909160030190611f75908401826159c4565b50505063ffffffff81166000908152600c602052604081208181556001810182905590611fa56002830182614dca565b505063ffffffff81166000818152600b6020526040908190206001810154600282015492517f43d2a184e3aaf126308f2331fae38de7ba49706274732ed39b7903d1b61757bd93611ffd939091600390910190615a96565b60405180910390a250565b7ff0c57e16840df040f15088dc2f81fe391c3923bec73e23a9662efc9c229c6a008054600160401b810460ff1615906001600160401b031660008115801561204d5750825b90506000826001600160401b031660011480156120695750303b155b905081158015612077575080155b156120955760405163f92ee8a960e01b815260040160405180910390fd5b845467ffffffffffffffff1916600117855583156120bf57845460ff60401b1916600160401b1785555b6120c88961382c565b6120d189613857565b6120dc898888613877565b6120e98962093a806138bc565b6120f689621275006138ca565b612107896213c6806262e0806138e4565b61011e80546001600160a01b0319166001600160a01b038a16179055831561216957845460ff60401b19168555604051600181527fc7f505b2f371ae2175ee4913f4499e1f2633a7b5936321eed1cdaeb6115181d29060200160405180910390a15b505050505050505050565b600080516020615dab83398151915261218c81612249565b61100583836116c9565b60b45460009061ffff8316106121bf576040516305b7010560e51b815260040160405180910390fd5b60b48261ffff16815481106121d6576121d661575d565b90600052602060002090600402019050919050565b600060495442116121fc5750600090565b60006049544261220c9190615849565b90506042548161221c91906155fa565b91506043548260445461222f91906155b3565b111561224557604454604354611ef99190615849565b5090565b61105a813361393a565b6000600080516020615d6b83398151915261226e8484611a01565b6122ee576000848152602082815260408083206001600160a01b03871684529091529020805460ff191660011790556122a43390565b6001600160a01b0316836001600160a01b0316857f2f8788117e7eff1d82e926ec794901d17c78024a50270940304540a733656f0d60405160405180910390a46001915050610e62565b6000915050610e62565b6000600080516020615d6b8339815191526123138484611a01565b156122ee576000848152602082815260408083206001600160a01b0387168085529252808320805460ff1916905551339287917ff6391f5c32d9c69d2a47ea670b442974b53935d1edc7fd64eb21e047a839171b9190a46001915050610e62565b6000805b6001600160a01b038416600090815260e9602052604090206001015481101561242d576001600160a01b038416600090815260e9602052604090206001018054849190839081106123cb576123cb61575d565b90600052602060002090600302016000015403612425576001600160a01b038416600090815260e96020526040902060010180548290811061240f5761240f61575d565b9060005260206000209060030201915050610e62565b600101612378565b50604051632b8e927b60e01b81526001600160a01b03841660048201526024810183905260440161126c565b60008160200151600014806124715750816040015142105b1561247e57506000919050565b60008260400151426124909190615849565b905060eb5481106124a45750506020015190565b600260eb548285602001516124b991906155fa565b6124c39190615789565b6124cd9190615789565b600284602001516124de9190615789565b61104091906155b3565b6124f0613973565b600080516020615d8b833981519152805460ff191681557f5db9ee0a495bf2e6ff9c91a7834c1ba4fdd244a5e8aa4e537bd38aeae4b073aa335b6040516001600160a01b03909116815260200160405180910390a150565b600080516020615d8b8339815191525460ff16156125795760405163d93c066560e01b815260040160405180910390fd5b565b6000612585612548565b61258d6121eb565b905080156115a95780604460008282546125a791906155b3565b90915550504260495590565b6000607f54600014806125c4575081155b156125d157505060805490565b607f546125e7683635c9adc5dea00000846155fa565b6125f19190615789565b608054610e6291906155b3565b306001600160a01b037f000000000000000000000000000000000000000000000000000000000000000016148061268557507f00000000000000000000000000000000000000000000000000000000000000006001600160a01b0316612679600080516020615d4b833981519152546001600160a01b031690565b6001600160a01b031614155b156125795760405163703e46dd60e11b815260040160405180910390fd5b600061119a81612249565b816001600160a01b03166352d1902d6040518163ffffffff1660e01b8152600401602060405180830381865afa925050508015612708575060408051601f3d908101601f1916820190925261270591810190615b35565b60015b61273057604051634c9c8ce360e01b81526001600160a01b038316600482015260240161126c565b600080516020615d4b833981519152811461276157604051632a87526960e21b81526004810182905260240161126c565b61100583836139a3565b60008061277c8888888888886139f9565b915091508060001461287e57600182600381111561279c5761279c6154ed565b036127b3576127ae8787878585612888565b61287e565b60008260038111156127c7576127c76154ed565b0361287e576040805160c08101825286815260006020808301919091528183018490526001600160a01b038a81166060840152600b608084015283518085018552600381526203078360ec1b9281019290925260a083019190915261011e5492516316369c1960e11b815291921690632c6d38329061284a908490600401615b4e565b600060405180830381600087803b15801561286457600080fd5b505af1158015612878573d6000803e3d6000fd5b50505050505b5050505050505050565b61289061347c565b612898612548565b806000036128b9576040516310eb483f60e21b815260040160405180910390fd5b60018260038111156128cd576128cd6154ed565b11156128ec5760405163350b944160e11b815260040160405180910390fd5b6128f585613bdf565b6001600160a01b0385166000908152607d602052604090208190836003811115612921576129216154ed565b600281106129315761293161575d565b01600082825461294191906155b3565b90915550612950905085613c5b565b6001600160a01b0386166000908152607d6020526040812060020191909155607f80548392906129819084906155b3565b92505081905550846001600160a01b031683857f99f9c5a56f286a152d0b60bd8851853878e05bb243daeaf47f4c30001598791684866040516129c5929190615baf565b60405180910390a46119fa6136d1565b6129dd61347c565b6129e5612548565b80600003612a06576040516310eb483f60e21b815260040160405180910390fd5b6001600160a01b0384166000908152607d6020526040902054811115612a4257600060405163348ee39760e11b815260040161126c9190615bc3565b612a4b84613bdf565b6001600160a01b0384166000908152607d602052604081208054839290612a73908490615849565b90915550612a82905084613c5b565b6001600160a01b0385166000908152607d6020526040812060020191909155607f8054839290612ab3908490615849565b90915550506001600160a01b0384166000908152607e602052604081208054839290612ae09084906155b3565b9091555050608154612af290426155b3565b6001600160a01b0385166000818152607e602052604090819020600101929092559051839085907f7956786f9c0614d721d7fd931301980a0399dfb0b38c81bafdfff0597c3290e490612b489086815260200190565b60405180910390a46001600160a01b0384166000818152607e602052604090819020805460019091015491517f7c2a5998b04a0c7a7d3a1ac3a0add65ac29f4647966110e357c7aa42e5e7ca2192612ba7928252602082015260400190565b60405180910390a2610fcc6136d1565b6000612bc161347c565b612bc9612548565b6001600160a01b0384166000908152607e60205260408120600101549003612c04576040516365e134c160e11b815260040160405180910390fd5b612c0d84613bdf565b506001600160a01b0383166000908152607e6020908152604080832054607d9092528220805491928392612c429084906155b3565b90915550612c51905084613c5b565b6001600160a01b0385166000908152607d6020526040812060020191909155607f8054839290612c829084906155b3565b92505081905550836001600160a01b031682847f45bc7039355216afb8dd7eb1bc73c6f9ebfcdf5b722d3b99055d05ce03847f6e84604051612cc691815260200190565b60405180910390a46001600160a01b0384166000818152607e6020526040808220828155600101829055517f7c2a5998b04a0c7a7d3a1ac3a0add65ac29f4647966110e357c7aa42e5e7ca2191612d27918190918252602082015260400190565b60405180910390a26110406136d1565b6000612d44848484613c98565b90508015610fcc576040805160c0810182528381526000602082018190529181018390526001600160a01b038616606082015260808101600c5b60ff168152604080518082018252600381526203078360ec1b6020828101919091529092019190915261011e5490516316369c1960e11b81529192506001600160a01b031690632c6d383290612dd8908490600401615b4e565b600060405180830381600087803b158015612df257600080fd5b505af1158015612169573d6000803e3d6000fd5b612e1284848484613d86565b610fcc84848484613ec0565b6000612e28612548565b612e3061347c565b6000612e3c8684612374565b905080600101549150612e4f8682613fdf565b856001600160a01b031684867f3b3e48ba8b2a66a9706f50fc095a4fcb8f4c25da19c7a6aeab3df6a826d5bcd98686604051612e95929190918252602082015260400190565b60405180910390a450612ea66136d1565b949350505050565b6000612eb8612548565b612ec061347c565b6001600160a01b038416600090815260e96020908152604080832081518083018352815481526001820180548451818702810187019095528085529194929385840193909290879084015b82821015612f5b5783829060005260206000209060030201604051806060016040529081600082015481526020016001820154815260200160028201548152505081526020019060010190612f0b565b5050505081525050905060005b81602001515181101561302157600082602001518281518110612f8d57612f8d61575d565b60200260200101516020015190508084612fa791906155b3565b9350866001600160a01b031685877f3b3e48ba8b2a66a9706f50fc095a4fcb8f4c25da19c7a6aeab3df6a826d5bcd986602001518681518110612fec57612fec61575d565b60200260200101516000015185604051613010929190918252602082015260400190565b60405180910390a450600101612f68565b506001600160a01b038516600090815260e9602052604081208181559061304b6001830182614e04565b5050506110406136d1565b600080613065868686866140b1565b9150915081600014613123576040805160c08101825285815260006020808301919091528183018590526001600160a01b038981166060840152600d608084015283518085018552600381526203078360ec1b9281019290925260a083019190915261011e5492516316369c1960e11b815291921690632c6d3832906130ef908490600401615b4e565b600060405180830381600087803b15801561310957600080fd5b505af115801561311d573d6000803e3d6000fd5b50505050505b8015611c015761011e5460405163a6df61f360e01b8152600481018390526001600160a01b039091169063a6df61f390602401600060405180830381600087803b15801561317057600080fd5b505af1158015613184573d6000803e3d6000fd5b50505050505050505050565b61319984613bdf565b610fcc848484846141bb565b60006131b2848484614354565b90508015610fcc576040805160c081018252838152600260208201529081018290526001600160a01b038516606082015260009060808101600e612d7e565b306001600160a01b037f000000000000000000000000000000000000000000000000000000000000000016146125795760405163703e46dd60e11b815260040160405180910390fd5b6001600160a01b0381166000908152607d602052604081206002015461325f83613c5b565b610e629190615849565b600061327361195f565b905080156132a557806b033b2e3c9fd0803ce800000060465461329691906155fa565b6132a09190615789565b6132a8565b60005b60475550565b6132b6612548565b60485442106125795760006132c9611eb7565b90505b61ffff81161561105a57806132e081615bd1565b91505060006132ee82614420565b9050806002015460000361119a57604754600282015560018101546045805460009061331b9084906155b3565b9091555050600281015460018201546b033b2e3c9fd0803ce800000091613341916155fa565b61334b9190615789565b6046600082825461335c9190615849565b9091555050600281015460405190815261ffff8316907f605f4fc760dbfc8600370aa812edc813327cd01f0c909d737ae7cdd5397af3779060200160405180910390a2506132cc565b61119a613421836060015184608001516040516020016133d89291909182526001600160401b0316602082015260400190565b604051602081830303815290604052805190602001207f19457468657265756d205369676e6564204d6573736167653a0a3332000000006000908152601c91909152603c902090565b8351602085015160408601518561444a565b61343b612548565b600080516020615d8b833981519152805460ff191660011781557f62e78cea01bee320cd4e420270b5ea74000d11b0c9f74754ebdbfc544b05a2583361252a565b7f9b779b17422d0df92223018b32b4d1fa46e071723d6817e2486d003becc55f008054600119016134c057604051633ee5aeb560e01b815260040160405180910390fd5b60029055565b63ffffffff85166000908152600b60205260409020600201546134fc57604051633a35c2f960e01b815260040160405180910390fd5b8361351a57604051633f4b0e7b60e11b815260040160405180910390fd5b4283101561353b57604051631b8e7db960e11b815260040160405180910390fd5b63ffffffff85166000908152600c602052604090205484148015613576575063ffffffff85166000908152600c602052604090206001015483145b80156135c5575063ffffffff85166000908152600c60205260409081902090516135a39160020190615bef565b604051809103902082826040516135bb929190615c65565b6040518091039020145b156135e357604051630faec0d960e01b815260040160405180910390fd5b6135ec856117c6565b156135fa576135fa85611eff565b604051806060016040528085815260200184815260200183838080601f016020809104026020016040519081016040528093929190818152602001838380828437600092018290525093909452505063ffffffff88168152600c60209081526040918290208451815590840151600182015590830151909150600282019061368290826158a4565b509050508463ffffffff167f58c769792f372f2700837a45ceeb881cdeeec998e18a3cb0895f5a4780f2f7d6858585856040516136c29493929190615c75565b60405180910390a25050505050565b60017f9b779b17422d0df92223018b32b4d1fa46e071723d6817e2486d003becc55f0055565b6136ff612548565b600080516020615dab83398151915261371781612249565b60006103e861372c60a085016080860161582e565b6137369190615c95565b9050604a5461a8c061374891906155b3565b816001600160401b0316101561377157604051636c8b246360e01b815260040160405180910390fd5b613783611928368590038501856157b4565b806001600160401b0316604a819055508260600135604660008282546137a991906155b3565b909155506137b79050613269565b6137c760a084016080850161582e565b6001600160401b03167fbbd8342b1e1fe32712ce056fbd76edab76635724aa81f9f63cae57b5918fb482846060013560465461380161195f565b60475460408051948552602085019390935291830152606082015260800160405180910390a2505050565b613834614487565b61383c6144d0565b6138446144d8565b61384c6144e8565b61119a600082612253565b61385f614487565b61119a600080516020615d2b83398151915282612253565b61387f614487565b613897600080516020615dab83398151915284612253565b50604282905560438190556138af42620151806155b3565b6048819055604955505050565b6138c4614487565b60815550565b6138d2614487565b60b6555060b480546001018155600052565b6138ec614487565b8160000361390d57604051631abc316360e21b815260040160405180910390fd5b8060000361392e57604051638c400e3b60e01b815260040160405180910390fd5b60ea9190915560eb5550565b6139448282611a01565b61119a5760405163e2517d3f60e01b81526001600160a01b03821660048201526024810183905260440161126c565b600080516020615d8b8339815191525460ff1661257957604051638dfc202b60e01b815260040160405180910390fd5b6139ac826144f8565b6040516001600160a01b038316907fbc7cd75a20ee27fd9adebab32041f755214dbc6bffa90cc0225b39da2e5c2d3b90600090a28051156139f157611005828261455d565b61119a6145d3565b600080613a04612548565b613a0c61347c565b613a15886117c6565b15613a2357613a2388611eff565b63ffffffff88166000908152600b6020526040902060020154613a5957604051633a35c2f960e01b815260040160405180910390fd5b63ffffffff88166000908152600b602052604090206001018054613a90576040516359bd390560e11b815260040160405180910390fd5b8054604080516001600160a01b038b16602082015290810187905260009060600160408051601f1981840301815282825280516020918201209083015201604051602081830303815290604052805190602001209050613af18683836145f2565b613b0e5760405163582f497d60e11b815260040160405180910390fd5b50505063ffffffff88166000908152600d602090815260408083206001600160a01b038b168452909152902054613b459085615849565b63ffffffff89166000908152600b6020908152604080832054600d83528184206001600160a01b038d16855290925290912086905560ff16925090508015613bcc578763ffffffff1685877f44a849f31027c891cb7e817e7c8df6b1541f745395ba940daeec387b283f39ab8a8587604051613bc393929190615cbb565b60405180910390a45b613bd46136d1565b965096945050505050565b613be761105d565b6000613bf28261323a565b9050801561119a576001600160a01b0382166000908152607d602052604081206002018054839290613c259084906155b3565b90915550506001600160a01b03821660009081526041602052604081208054839290613c529084906155b3565b90915550505050565b600080613c6e613c696121eb565b6125b3565b9050683635c9adc5dea0000081613c8485611c7a565b613c8e91906155fa565b6110409190615789565b6000613ca261347c565b613caa612548565b6001600160a01b0384166000908152607e60205260408120600101549003613ce5576040516365e134c160e11b815260040160405180910390fd5b6001600160a01b0384166000908152607e6020526040902060010154421015613d2157604051638a27b5a160e01b815260040160405180910390fd5b506001600160a01b0383166000908152607e60205260409020548015613d7e57836001600160a01b031682847f190e540afa0f1919c2b4de58858bd15ec79dde6231ca4b3be2cb0bde4eede0c784604051612cc691815260200190565b6110406136d1565b613d8e61347c565b613d96612548565b80600003613db7576040516310eb483f60e21b815260040160405180910390fd5b6001600160a01b0384166000908152607d602052604090208190600101541015613df757600160405163348ee39760e11b815260040161126c9190615bc3565b613e0084613bdf565b6001600160a01b0384166000908152607d6020526040902081906001016000828254613e2c9190615849565b90915550613e3b905084613c5b565b6001600160a01b0385166000908152607d6020526040812060020191909155607f8054839290613e6c908490615849565b92505081905550836001600160a01b031682847f1fa0c4284b9958e80cb828a1863b89b2a40ff9dc4cdc149ac88490bc609a919584604051613eb091815260200190565b60405180910390a4610fcc6136d1565b613ec8612548565b613ed061347c565b80600003613ef15760405163f7cb25ad60e01b815260040160405180910390fd5b6001600160a01b038416600090815260e96020908152604080832081516060810183528154815292830185905260ea5490939291820190613f3290426155b3565b905260018084018054808301825560009182526020808320855160039093020191825584015192810192909255604083015160029092019190915583549192508390613f7d83615cdf565b90915550508051604080830151815192835260208301869052908201526001600160a01b03871690859087907e3e50d6f730f8990dc97da68a86fea40220d3baa3f6689325a46beb5f5dc0f69060600160405180910390a45050610fcc6136d1565b6001600160a01b038216600090815260e96020526040812060019081018054909161400991615849565b815481106140195761401961575d565b600091825260208083206040805160608101825260039094029091018054808552600180830154868601819052600293840154878601819052928a5589820155918801556001600160a01b038816855260e99092529092209091018054919250908061408757614087615cf8565b60008281526020812060036000199093019283020181815560018101829055600201559055505050565b6000806140bc612548565b6140c461347c565b60006140d08785612374565b905080600201544210156140f757604051633eb55fa360e01b815260040160405180910390fd5b60408051606081018252825481526001830154602082015260028301549181019190915261412490612459565b92508281600101546141369190615849565b9150866001600160a01b031685877f2f7d1a67d8436fa13ded14bf53703bed5c9b189232cd35530a5ce988bb55e40b8785600101548887600201544261417c9190615849565b60408051948552602085019390935291830152606082015260800160405180910390a46141a98782613fdf565b506141b26136d1565b94509492505050565b6141c3612548565b806000036141e457604051631c26cb0b60e01b815260040160405180910390fd5b6001600160a01b03841660009081526041602052604090205481111561421d5760405163043f8ee560e41b815260040160405180910390fd5b6001600160a01b03841660009081526041602052604081208054839290614245908490615849565b90915550614254905084614608565b600061425e611eb7565b90508161426a82614420565b600101600082825461427c91906155b3565b909155506000905061428e86836148f7565b90508261429e8260010186614a59565b60010160008282546142b091906155b3565b92505081905550826142e960b48461ffff16815481106142d2576142d261575d565b906000526020600020906004020160030186614a59565b60010160008282546142fb91906155b3565b90915550506040805161ffff84168152602081018590526001600160a01b03881691869188917f6c16ad26e00ab1076e5532c6abddf1578121ec478b3129e556e064ff18de6229910160405180910390a4505050505050565b600061435e612548565b61436784614608565b506001600160a01b038316600090815260b560209081526040808320848452909152812054908190036143be5760405162d6360d60e11b81526001600160a01b03851660048201526024810183905260440161126c565b6001600160a01b038416600081815260b5602090815260408083208684528252808320929092559051838152849186917f5160b630eaa30b010bf18a116a641cab7551c9bafdbd85748da5aaa421753a3c910160405180910390a49392505050565b60005b60b45461ffff8316106144415760b480546001018155600052614423565b610e6282612196565b806001600160a01b031661446086848787614af4565b6001600160a01b0316146119fa57604051638baa579f60e01b815260040160405180910390fd5b7ff0c57e16840df040f15088dc2f81fe391c3923bec73e23a9662efc9c229c6a0054600160401b900460ff1661257957604051631afcd79f60e31b815260040160405180910390fd5b612579614487565b6144e0614487565b612579614b22565b6144f0614487565b612579614b2a565b806001600160a01b03163b60000361452e57604051634c9c8ce360e01b81526001600160a01b038216600482015260240161126c565b600080516020615d4b83398151915280546001600160a01b0319166001600160a01b0392909216919091179055565b6060600080846001600160a01b03168460405161457a9190615d0e565b600060405180830381855af49150503d80600081146145b5576040519150601f19603f3d011682016040523d82523d6000602084013e6145ba565b606091505b50915091506145ca858383614b4b565b95945050505050565b34156125795760405163b398979f60e01b815260040160405180910390fd5b6000826145ff8584614ba7565b14949350505050565b60005b6001600160a01b038216600090815260b5602052604090206001015481101561119a576001600160a01b038216600090815260b56020526040812060010180548390811061465b5761465b61575d565b60009182526020909120600290910201805460b480549293509161ffff90911690811061468a5761468a61575d565b600091825260209091206004909102015460ff16156148e35760005b60018201548110156147a65760008260010182815481106146c9576146c961575d565b906000526020600020906002020160000154905060008360010183815481106146f4576146f461575d565b60009182526020822060016002909202010154855460b480549294506b033b2e3c9fd0803ce800000092909161ffff169081106147335761473361575d565b9060005260206000209060040201600201548361475091906155fa565b61475a9190615789565b6001600160a01b038816600090815260b5602090815260408083208784529091528120805492935083929091906147929084906155b3565b9091555050600190930192506146a6915050565b506001600160a01b038316600090815260b5602052604081206001908101546147cf9190615849565b6001600160a01b038516600090815260b560205260409020600101805491925090829081106148005761480061575d565b906000526020600020906002020160b56000866001600160a01b03166001600160a01b0316815260200190815260200160002060010184815481106148475761484761575d565b600091825260209091208254600290920201805461ffff191661ffff909216919091178155600180830180546148809284019190614e25565b5050506001600160a01b038416600090815260b5602052604090206001018054806148ad576148ad615cf8565b600082815260208120600260001990930192830201805461ffff19168155906148d96001830182614e81565b50509055506148f1565b816148ed81615cdf565b9250505b5061460b565b6000805b6001600160a01b038416600090815260b560205260409020600101548110156149b7576001600160a01b038416600090815260b560205260409020600101805461ffff85169190839081106149525761495261575d565b600091825260209091206002909102015461ffff16036149af576001600160a01b038416600090815260b5602052604090206001018054829081106149995761499961575d565b9060005260206000209060020201915050610e62565b6001016148fb565b506001600160a01b038316600090815260b56020526040902060019081018054918201808255849190839081106149f0576149f061575d565b60009182526020808320600292909202909101805461ffff191661ffff94909416939093179092556001600160a01b038616815260b590915260409020600101805482908110614a4257614a4261575d565b906000526020600020906002020191505092915050565b6000805b8354811015614aaa5782848281548110614a7957614a7961575d565b90600052602060002090600202016000015403614aa2578381815481106149995761499961575d565b600101614a5d565b5082546001810180855560008590528390859083908110614acd57614acd61575d565b906000526020600020906002020160000181905550838181548110614a4257614a4261575d565b600080600080614b0688888888614bea565b925092509250614b168282614cb9565b50909695505050505050565b6136d1614487565b614b32614487565b600080516020615d8b833981519152805460ff19169055565b606082614b6057614b5b82614d72565b611040565b8151158015614b7757506001600160a01b0384163b155b15614ba057604051639996b31560e01b81526001600160a01b038516600482015260240161126c565b5080611040565b600081815b8451811015614be257614bd882868381518110614bcb57614bcb61575d565b6020026020010151614d9b565b9150600101614bac565b509392505050565b600080807f7fffffffffffffffffffffffffffffff5d576e7357a4501ddfe92f46681b20a0841115614c255750600091506003905082614caf565b604080516000808252602082018084528a905260ff891692820192909252606081018790526080810186905260019060a0016020604051602081039080840390855afa158015614c79573d6000803e3d6000fd5b5050604051601f1901519150506001600160a01b038116614ca557506000925060019150829050614caf565b9250600091508190505b9450945094915050565b6000826003811115614ccd57614ccd6154ed565b03614cd6575050565b6001826003811115614cea57614cea6154ed565b03614d085760405163f645eedf60e01b815260040160405180910390fd5b6002826003811115614d1c57614d1c6154ed565b03614d3d5760405163fce698f760e01b81526004810182905260240161126c565b6003826003811115614d5157614d516154ed565b0361119a576040516335e2f38360e21b81526004810182905260240161126c565b805115614d825780518082602001fd5b604051630a12f52160e11b815260040160405180910390fd5b6000818310614db7576000828152602084905260409020611040565b6000838152602083905260409020611040565b508054614dd6906155c6565b6000825580601f10614de6575050565b601f01602090049060005260206000209081019061105a9190614ea2565b508054600082556003029060005260206000209081019061105a9190614eb7565b828054828255906000526020600020906002028101928215614e755760005260206000209160020282015b82811115614e7557825482556001808401549083015560029283019290910190614e50565b50612245929150614ed9565b508054600082556002029060005260206000209081019061105a9190614ed9565b5b808211156122455760008155600101614ea3565b5b80821115612245576000808255600182018190556002820155600301614eb8565b5b808211156122455760008082556001820155600201614eda565b600060208284031215614f0657600080fd5b81356001600160e01b03198116811461104057600080fd5b600060208284031215614f3057600080fd5b813561ffff8116811461104057600080fd5b602080825282518282018190526000919060409081850190868401855b82811015614f8457815180518552860151868501529284019290850190600101614f5f565b5091979650505050505050565b600060208284031215614fa357600080fd5b5035919050565b63ffffffff8116811461105a57600080fd5b80356001600160a01b0381168114614fd357600080fd5b919050565b60008060408385031215614feb57600080fd5b8235614ff681614faa565b915061500460208401614fbc565b90509250929050565b60006020828403121561501f57600080fd5b61104082614fbc565b602080825282518282018190526000919060409081850190868401855b82811015614f845781518051855286810151878601528501518585015260609093019290850190600101615045565b6000806040838503121561508757600080fd5b8235915061500460208401614fbc565b600080604083850312156150aa57600080fd5b6150b383614fbc565b946020939093013593505050565b6000602082840312156150d357600080fd5b813561104081614faa565b60005b838110156150f95781810151838201526020016150e1565b50506000910152565b6000815180845261511a8160208601602086016150de565b601f01601f19169290920160200192915050565b8381528260208201526060604082015260006145ca6060830184615102565b634e487b7160e01b600052604160045260246000fd5b60405160e081016001600160401b03811182821017156151855761518561514d565b60405290565b604051606081016001600160401b03811182821017156151855761518561514d565b604051601f8201601f191681016001600160401b03811182821017156151d5576151d561514d565b604052919050565b600082601f8301126151ee57600080fd5b81356001600160401b038111156152075761520761514d565b61521a601f8201601f19166020016151ad565b81815284602083860101111561522f57600080fd5b816020850160208301376000918101602001919091529392505050565b6000806040838503121561525f57600080fd5b61526883614fbc565b915060208301356001600160401b0381111561528357600080fd5b61528f858286016151dd565b9150509250929050565b803560048110614fd357600080fd5b803560ff81168114614fd357600080fd5b6000602082840312156152cb57600080fd5b81356001600160401b03808211156152e257600080fd5b9083019060e082860312156152f657600080fd5b6152fe615163565b823581526020830135602082015261531860408401615299565b60408201526060830135606082015261533360808401614fbc565b608082015261534460a084016152a8565b60a082015260c08301358281111561535b57600080fd5b615367878286016151dd565b60c08301525095945050505050565b6000806040838503121561538957600080fd5b50508035926020909101359150565b600060a082840312156153aa57600080fd5b50919050565b60008083601f8401126153c257600080fd5b5081356001600160401b038111156153d957600080fd5b6020830191508360208285010111156153f157600080fd5b9250929050565b60008060008060006080868803121561541057600080fd5b853561541b81614faa565b9450602086013593506040860135925060608601356001600160401b0381111561544457600080fd5b615450888289016153b0565b969995985093965092949392505050565b60008060008060008060a0878903121561547a57600080fd5b863561548581614faa565b955061549360208801615299565b9450604087013593506060870135925060808701356001600160401b038111156154bc57600080fd5b6154c889828a016153b0565b979a9699509497509295939492505050565b6020815260006110406020830184615102565b634e487b7160e01b600052602160045260246000fd5b6004811061552157634e487b7160e01b600052602160045260246000fd5b9052565b61552f8186615503565b8360208201528260408201526080606082015260006155516080830184615102565b9695505050505050565b6000806000806080858703121561557157600080fd5b61557a85614fbc565b935061558860208601614fbc565b93969395505050506040820135916060013590565b634e487b7160e01b600052601160045260246000fd5b80820180821115610e6257610e6261559d565b600181811c908216806155da57607f821691505b6020821081036153aa57634e487b7160e01b600052602260045260246000fd5b8082028115828204841417610e6257610e6261559d565b6000602080838503121561562457600080fd5b82516001600160401b038082111561563b57600080fd5b908401906060828703121561564f57600080fd5b61565761518b565b825161566281614faa565b8152828401518482015260408301518281111561567e57600080fd5b80840193505086601f84011261569357600080fd5b8251828111156156a5576156a561514d565b8060051b92506156b68584016151ad565b81815292840185019285810190898511156156d057600080fd5b948601945b848610156156ee578551825294860194908601906156d5565b60408401525090979650505050505050565b60006020828403121561571257600080fd5b604051602081018181106001600160401b03821117156157345761573461514d565b6040529151825250919050565b60006020828403121561575357600080fd5b6110408383615700565b634e487b7160e01b600052603260045260246000fd5b634e487b7160e01b600052601260045260246000fd5b60008261579857615798615773565b500490565b80356001600160401b0381168114614fd357600080fd5b600060a082840312156157c657600080fd5b60405160a081018181106001600160401b03821117156157e8576157e861514d565b80604052508235815260208301356020820152615807604084016152a8565b6040820152606083013560608201526158226080840161579d565b60808201529392505050565b60006020828403121561584057600080fd5b6110408261579d565b81810381811115610e6257610e6261559d565b601f821115611005576000816000526020600020601f850160051c810160208610156158855750805b601f850160051c820191505b81811015611c0157828155600101615891565b81516001600160401b038111156158bd576158bd61514d565b6158d1816158cb84546155c6565b8461585c565b602080601f83116001811461590657600084156158ee5750858301515b600019600386901b1c1916600185901b178555611c01565b600085815260208120601f198616915b8281101561593557888601518255948401946001909101908401615916565b50858210156159535787850151600019600388901b60f8161c191681555b5050505050600190811b01905550565b81835281816020850137506000828201602090810191909152601f909101601f19169091010190565b6159968187615503565b8460208201528360408201526080606082015260006159b9608083018486615963565b979650505050505050565b8181036159cf575050565b6159d982546155c6565b6001600160401b038111156159f0576159f061514d565b6159fe816158cb84546155c6565b6000601f821160018114615a325760008315615a1a5750848201545b600019600385901b1c1916600184901b1784556119fa565b600085815260209020601f19841690600086815260209020845b83811015615a6c5782860154825560019586019590910190602001615a4c565b50858310156159535793015460001960f8600387901b161c19169092555050600190811b01905550565b838152600060208460208401526060604084015260008454615ab7816155c6565b8060608701526080600180841660008114615ad95760018114615af557615b25565b60ff19851660808a0152608084151560051b8a01019550615b25565b89600052602060002060005b85811015615b1c5781548b8201860152908301908801615b01565b8a016080019650505b50939a9950505050505050505050565b600060208284031215615b4757600080fd5b5051919050565b602081528151602082015260006020830151615b6d6040840182615503565b506040830151606083015260018060a01b03606084015116608083015260ff60808401511660a083015260a083015160c080840152612ea660e0840182615102565b828152604081016110406020830184615503565b60208101610e628284615503565b600061ffff821680615be557615be561559d565b6000190192915050565b6000808354615bfd816155c6565b60018281168015615c155760018114615c2a57615c59565b60ff1984168752821515830287019450615c59565b8760005260208060002060005b85811015615c505781548a820152908401908201615c37565b50505082870194505b50929695505050505050565b8183823760009101908152919050565b848152836020820152606060408201526000615551606083018486615963565b60006001600160401b0380841680615caf57615caf615773565b92169190910492915050565b6001600160a01b03841681526020810183905260608101612ea66040830184615503565b600060018201615cf157615cf161559d565b5060010190565b634e487b7160e01b600052603160045260246000fd5b60008251615d208184602087016150de565b919091019291505056fe009ab23a1010d07a0450a1fbea1d84169b57d2c2273b54bff0f20c3e90199b5d360894a13ba1a3210667c828492db98dca3e2076cc3735a920a3ca505d382bbc02dd7bc7dec4dceedda775e58dd541e08a116c6c53815c0bd028192f7b626800cd5ed15c6e187e77e9aee88184c21f4f2182ab5827cb3b7e07fbedcd63f03300d4633f2ee6e04337d84b8278c3b807b75336f88e5e4656e625419ef1258e9af1a2646970667358221220d6f40c5ca68fd56001e934090091a746e6c051f4f01e78e5fc7801e71c43f48a64736f6c63430008160033",
  "devdoc": {
    "errors": {
      "AccessControlBadConfirmation()": [
        {
          "details": "The caller of a function is not the expected one. NOTE: Don't confuse with {AccessControlUnauthorizedAccount}."
        }
      ],
      "AccessControlUnauthorizedAccount(address,bytes32)": [
        {
          "details": "The `account` is missing a role."
        }
      ],
      "AddressEmptyCode(address)": [
        {
          "details": "There's no code at `target` (it is not a contract)."
        }
      ],
      "ECDSAInvalidSignature()": [
        {
          "details": "The signature derives the `address(0)`."
        }
      ],
      "ECDSAInvalidSignatureLength(uint256)": [
        {
          "details": "The signature has an invalid length."
        }
      ],
      "ECDSAInvalidSignatureS(bytes32)": [
        {
          "details": "The signature has an S value that is in the upper half order."
        }
      ],
      "ERC1967InvalidImplementation(address)": [
        {
          "details": "The `implementation` of the proxy is invalid."
        }
      ],
      "ERC1967NonPayable()": [
        {
          "details": "An upgrade function sees `msg.value > 0` that may be lost."
        }
      ],
      "EnforcedPause()": [
        {
          "details": "The operation failed because the contract is paused."
        }
      ],
      "ExpectedPause()": [
        {
          "details": "The operation failed because the contract is not paused."
        }
      ],
      "FailedInnerCall()": [
        {
          "details": "A call to an address target failed. The target may have reverted."
        }
      ],
      "InvalidInitialization()": [
        {
          "details": "The contract is already initialized."
        }
      ],
      "NotInitializing()": [
        {
          "details": "The contract is not initializing."
        }
      ],
      "ReentrancyGuardReentrantCall()": [
        {
          "details": "Unauthorized reentrant call."
        }
      ],
      "UUPSUnauthorizedCallContext()": [
        {
          "details": "The call is from an unauthorized context."
        }
      ],
      "UUPSUnsupportedProxiableUUID(bytes32)": [
        {
          "details": "The storage `slot` is unsupported as a UUID."
        }
      ]
    },
    "events": {
      "Initialized(uint64)": {
        "details": "Triggered when the contract has been initialized or reinitialized."
      },
      "Paused(address)": {
        "details": "Emitted when the pause is triggered by `account`."
      },
      "RoleAdminChanged(bytes32,bytes32,bytes32)": {
        "details": "Emitted when `newAdminRole` is set as ``role``'s admin role, replacing `previousAdminRole` `DEFAULT_ADMIN_ROLE` is the starting admin for all roles, despite {RoleAdminChanged} not being emitted signaling this."
      },
      "RoleGranted(bytes32,address,address)": {
        "details": "Emitted when `account` is granted `role`. `sender` is the account that originated the contract call, an admin role bearer except when using {AccessControl-_setupRole}."
      },
      "RoleRevoked(bytes32,address,address)": {
        "details": "Emitted when `account` is revoked `role`. `sender` is the account that originated the contract call:   - if using `revokeRole`, it is the admin role bearer   - if using `renounceRole`, it is the role bearer (i.e. `account`)"
      },
      "Unpaused(address)": {
        "details": "Emitted when the pause is lifted by `account`."
      },
      "Upgraded(address)": {
        "details": "Emitted when the implementation is upgraded."
      }
    },
    "kind": "dev",
    "methods": {
      "calculateVestingOrderAmount(address,uint256)": {
        "params": {
          "_user": "User address"
        }
      },
      "canUpdateRoot(uint32)": {
        "params": {
          "_distributionId": "The distribution id."
        },
        "returns": {
          "_0": "Boolean `true` if the active root can be updated to the proposed root, else `false`."
        }
      },
      "createDistribution(uint32,uint8,bytes32,uint256,bytes)": {
        "params": {
          "_distributionId": "The distribution id.",
          "_ipfsCid": "An IPFS CID pointing to the Merkle tree data. (optional, can be 0x0) Reverts if the distribution with the same id is already exists or Merkle root params are invalid. Reverts if the token is not supported for distribution. Currently only $ORDER and es$ORDER tokens are supported.",
          "_merkleRoot": "The Merkle root.",
          "_startTimestamp": "The timestamp when this Merkle root become active.",
          "_token": "The type of the token. Currently only $ORDER token and es$ORDER (record based) are supported."
        }
      },
      "getClaimed(uint32,address)": {
        "params": {
          "_distributionId": "The distribution id.",
          "_user": "The address of the user."
        },
        "returns": {
          "_0": "The amount tokens claimed so far by that user."
        }
      },
      "getCurrentBatchId()": {
        "details": "Revert if the redemption is not started yet to prevent redemption before the start"
      },
      "getDistribution(uint32)": {
        "params": {
          "_distributionId": "The distribution id."
        },
        "returns": {
          "ipfsCid": "       An IPFS CID pointing to the Merkle tree data (optional, can be 0x0).",
          "merkleRoot": "    The Merkle root.",
          "startTimestamp": "Timestamp when this Merkle root become active.",
          "token": "         The type of the distributed token. Currently only $ORDER token and es$ORDER (record based) are supported."
        }
      },
      "getProposedRoot(uint32)": {
        "params": {
          "_distributionId": "The distribution id."
        },
        "returns": {
          "ipfsCid": "       An IPFS CID pointing to the Merkle tree data (optional, can be 0x0).",
          "merkleRoot": "    The proposed Merkle root.",
          "startTimestamp": "Timestamp when this Merkle root become active."
        }
      },
      "getRoleAdmin(bytes32)": {
        "details": "Returns the admin role that controls `role`. See {grantRole} and {revokeRole}. To change a role's admin, use {_setRoleAdmin}."
      },
      "grantRole(bytes32,address)": {
        "details": "Grants `role` to `account`. If `account` had not been already granted `role`, emits a {RoleGranted} event. Requirements: - the caller must have ``role``'s admin role. May emit a {RoleGranted} event."
      },
      "hasPendingRoot(uint32)": {
        "params": {
          "_distributionId": "The distribution id."
        },
        "returns": {
          "_0": "Boolean `true` if there is a proposed root for given distribution waiting to become active, else `false`."
        }
      },
      "hasRole(bytes32,address)": {
        "details": "Returns `true` if `account` has been granted `role`."
      },
      "isDistributionRecordBased(uint32)": {
        "params": {
          "_distributionId": "The distribution id."
        },
        "returns": {
          "_0": "Boolean `true` if the distribution is record based, else `false`."
        }
      },
      "paused()": {
        "details": "Returns true if the contract is paused, and false otherwise."
      },
      "proposeRoot(uint32,bytes32,uint256,bytes)": {
        "params": {
          "_distributionId": "The distribution id.",
          "_ipfsCid": "An IPFS CID pointing to the Merkle tree data.  Reverts if the proposed root is bytes32(0).  Reverts if the proposed startTimestamp is in the past.  Reverts if the proposed root is already proposed.",
          "_merkleRoot": "The Merkle root.",
          "_startTimestamp": "The timestamp when this Merkle root become active"
        }
      },
      "proxiableUUID()": {
        "details": "Implementation of the ERC1822 {proxiableUUID} function. This returns the storage slot used by the implementation. It is used to validate the implementation's compatibility when performing an upgrade. IMPORTANT: A proxy pointing at a proxiable contract should not be considered proxiable itself, because this risks bricking a proxy that upgrades to it, by delegating to itself until out of gas. Thus it is critical that this function revert if invoked through a proxy. This is guaranteed by the `notDelegated` modifier."
      },
      "renounceRole(bytes32,address)": {
        "details": "Revokes `role` from the calling account. Roles are often managed via {grantRole} and {revokeRole}: this function's purpose is to provide a mechanism for accounts to lose their privileges if they are compromised (such as when a trusted device is misplaced). If the calling account had been revoked `role`, emits a {RoleRevoked} event. Requirements: - the caller must be `callerConfirmation`. May emit a {RoleRevoked} event."
      },
      "revokeRole(bytes32,address)": {
        "details": "Revokes `role` from `account`. If `account` had been granted `role`, emits a {RoleRevoked} event. Requirements: - the caller must have ``role``'s admin role. May emit a {RoleRevoked} event."
      },
      "supportsInterface(bytes4)": {
        "details": "See {IERC165-supportsInterface}."
      },
      "updateRoot(uint32)": {
        "params": {
          "_distributionId": "The distribution id.  Reverts if root updates are paused.  Reverts if the proposed root is bytes32(0).  Reverts if the waiting period for the proposed root has not elapsed."
        }
      },
      "upgradeToAndCall(address,bytes)": {
        "custom:oz-upgrades-unsafe-allow-reachable": "delegatecall",
        "details": "Upgrade the implementation of the proxy to `newImplementation`, and subsequently execute the function call encoded in `data`. Calls {_authorizeUpgrade}. Emits an {Upgraded} event."
      }
    },
    "version": 1
  },
  "userdoc": {
    "events": {
      "BatchPreparedToClaim(uint16)": {
        "notice": "Emitted when admin marks batch as claimable"
      },
      "BatchValorToUsdcRateIsFixed(uint16,uint256)": {
        "notice": "Emitted when admin fixes valor to USDC rate for the batch"
      },
      "DailyUsdcNetFeeRevenueUpdated(uint256,uint256,uint256,uint256,uint256)": {
        "notice": "Emmited, when the daily USDC net fee revenue has been updated"
      },
      "DistributionCreated(uint32,uint8,bytes32,uint256,bytes)": {
        "notice": "Emitted when a new distribution is created by the ROOT_UPDATER_ROLE from Ledger chain."
      },
      "EsOrderUnstake(uint256,uint256,address,uint256)": {
        "notice": "Emitted when user unstakes es$ORDER tokens"
      },
      "OrderUnstakeAmount(address,uint256,uint256)": {
        "notice": "Emitted for _createOrderUnstakeRequest, _cancelOrderUnstakeRequest and _withdrawOrder functions"
      },
      "OrderUnstakeCancelled(uint256,uint256,address,uint256)": {
        "notice": "Emitted when user cancels unstake $ORDER tokens request"
      },
      "OrderUnstakeRequested(uint256,uint256,address,uint256)": {
        "notice": "Emitted when user requests unstake $ORDER tokens"
      },
      "OrderWithdrawn(uint256,uint256,address,uint256)": {
        "notice": "Emitted when user withdraws $ORDER tokens"
      },
      "RewardsClaimed(uint256,uint256,uint32,address,uint256,uint8)": {
        "notice": "Emitted when a user claims rewards from Vault chains."
      },
      "RootProposed(uint32,bytes32,uint256,bytes)": {
        "notice": "Emitted when a new Merkle root is proposed by the ROOT_UPDATER_ROLE from Ledger chain."
      },
      "RootUpdated(uint32,bytes32,uint256,bytes)": {
        "notice": "Emitted when proposed Merkle root becomes active by the ROOT_UPDATER_ROLE from Ledger chain."
      },
      "Staked(uint256,uint256,address,uint256,uint8)": {
        "notice": "Emitted when user stakes $ORDER or es$ORDER tokens"
      },
      "UsdcRevenueClaimed(uint256,uint256,address,uint256)": {
        "notice": "Emitted when user claim collected USDC revenue from chain"
      },
      "ValorRedeemed(uint256,uint256,address,uint16,uint256)": {
        "notice": "Emitted when user redeem valor for the chain; batchId is the current batch"
      }
    },
    "kind": "user",
    "methods": {
      "TREASURE_UPDATER_ROLE()": {
        "notice": "The role, that is allowed to update USDC net fee revenue"
      },
      "accValorPerShareScaled()": {
        "notice": "The accrued valor share, scaled to `ACC_VALOR_PER_SHARE_PRECISION`"
      },
      "batchDuration()": {
        "notice": "Period of the batch in seconds"
      },
      "batchPreparedToClaim(uint16)": {
        "notice": "Admin marks batch as claimable when USDC is provided for the batch         This also reduce total valor amount and total USDC in treasure         This reduce shouldn't affect the valor to USDC rate because valor and USDC amounts are reduced proportionally"
      },
      "calculateVestingOrderAmount(address,uint256)": {
        "notice": "Return amount of $ORDER tokens for withdraw at the moment"
      },
      "canUpdateRoot(uint32)": {
        "notice": "Returns true if there is a proposed root for given distribution waiting to become active         and the start time has passed."
      },
      "collectedValor(address)": {
        "notice": "The amount of valor token, that has been collected by the user"
      },
      "createDistribution(uint32,uint8,bytes32,uint256,bytes)": {
        "notice": "Create a new distribution with the given token and propose Merkle root for it.         Locked for ROOT_UPDATER_ROLE.         Once created, distribution token can't be changed."
      },
      "dailyUsdcNetFeeRevenue((bytes32,bytes32,uint8,uint256,uint64))": {
        "notice": "CeFi updates the daily USDC net fee revenue, define Then check if it was last day in batch, and if so, fix this price for the batch Internally restricted to TREASURE_UPDATER_ROLE"
      },
      "getBatchChainedValorAmount(uint16)": {
        "notice": "Returns the amount of valor that user can redeem for the chain"
      },
      "getBatchInfo(uint16)": {
        "notice": "Returns the batch structure by id without chained valor amount"
      },
      "getClaimed(uint32,address)": {
        "notice": "Get the tokens amount claimed so far for distribution by a given user."
      },
      "getCurrentBatchId()": {
        "notice": "Calculate and returns the current batch id based on the current timestamp, start timestamp and batch duration"
      },
      "getDistribution(uint32)": {
        "notice": "Get the active Merkle root for distribution id and associated parameters.         If distribution has proposed root and it's start timestamp has passed, proposed root will be returned.         It allows to reduce probability of collision when user claiming rewards from the old Merkle root.         Because it will be updated at the beginning of the next claimReward call and become active from that moment.         So, user will actually obtain the rewards from the proposed root and have to provide amount and proof for it."
      },
      "getOrderAvailableToWithdraw(address)": {
        "notice": "Get the amount of $ORDER ready to be withdrawn by `_user`"
      },
      "getProposedRoot(uint32)": {
        "notice": "Get the proposed Merkle root for token and associated parameters.         When the proposed root become active, it will be removed from the proposedRoots mapping.         So, this function will return non-zero values only if the proposed root is pending."
      },
      "getStakingInfo(address)": {
        "notice": "Get the staking balances for a given _user"
      },
      "getTotalValorAmount()": {
        "notice": "Get the total amount of Valor that is currently in circulation"
      },
      "getTotalValorEmitted()": {
        "notice": "Get the total amount of Valor that should be emitted to the moment"
      },
      "getUsdcAmountForBatch(uint16)": {
        "notice": "Returns the amount of USDC required for batch on each chain"
      },
      "getUserValor(address)": {
        "notice": "Get the pending amount of valor up to now for a given _user"
      },
      "hasPendingRoot(uint32)": {
        "notice": "Returns true if there is a proposed root for given distribution waiting to become active.         This is the case if the proposed root for given distribution is not zero."
      },
      "isDistributionRecordBased(uint32)": {
        "notice": "Check if the distribution is record based. Currently only es$ORDER token is record based."
      },
      "lastUsdcNetFeeRevenueUpdateTimestamp()": {
        "notice": "The timestamp of the last update of the USDC net fee revenue"
      },
      "lastValorUpdateTimestamp()": {
        "notice": "The last time that the valor variables were updated"
      },
      "ledgerRecvFromVault((uint256,uint256,uint8,uint256,address,uint8,bytes))": {
        "notice": "Receives message from OCCAdapter and dispatch it"
      },
      "maximumValorEmission()": {
        "notice": "The maximum amount of valor token, that can be emitted"
      },
      "pause()": {
        "notice": "Pause external functionality"
      },
      "proposeRoot(uint32,bytes32,uint256,bytes)": {
        "notice": "Set the proposed root parameters.         Locked for ROOT_UPDATER_ROLE.         Allows to update proposed root for token before startTimestamp passed.         If startTimestamp passed, proposed root will be propogated to active root."
      },
      "setTotalUsdcInTreasure(uint256)": {
        "notice": "Set the totalUsdcInTreasure. Restricted to DEFAULT_ADMIN_ROLE          Function updates the totalUsdcInTreasure, valorToUsdcRateScaled"
      },
      "setUsdcUpdaterAddress(address)": {
        "notice": "Owner can set address, that signed the USDC revenue updates"
      },
      "setValorEmissionStartTimestamp(uint256)": {
        "notice": "Owner can set the valor emission start timestamp if it is not passed yet"
      },
      "srcChainIdToEventId(uint256)": {
        "notice": "Mapping of srcChainId => event id"
      },
      "totalStakedAmount()": {
        "notice": "Total amount of staken $ORDER and es$ORDER"
      },
      "totalUsdcInTreasure()": {
        "notice": "The total amount of USDC, that has been collected in the treasure"
      },
      "totalValorRedeemed()": {
        "notice": "The total amount of valor token, that has been redeemed"
      },
      "unpause()": {
        "notice": "Unpause external functionality"
      },
      "unstakeLockPeriod()": {
        "notice": "Period of time, that user have to wait after unstake request, before he can withdraw tokens"
      },
      "updateRoot(uint32)": {
        "notice": "Propagate proposed root to the distribution if it can be updated.         Non-reeentrant guard is disabled because this function is called from claimRewards."
      },
      "updateValorVars()": {
        "notice": "Calculate and update valor per share changed over time This function actually emits valor to users"
      },
      "usdcUpdaterAddress()": {
        "notice": "The address, that signed the USDC revenue updates"
      },
      "userTotalStakingBalance(address)": {
        "notice": "Get the total amount of $ORDER and es$ORDER staked by `_user`"
      },
      "valorEmissionStartTimestamp()": {
        "notice": "Valor emission starts at this time"
      },
      "valorPerSecond()": {
        "notice": "The amount of valor token, that will be emitted per second"
      },
      "valorToUsdcRateScaled()": {
        "notice": "The current rate of valor to USDC"
      },
      "vestingLinearPeriod()": {
        "notice": "Period after lock period, during which vesting $ORDER amount linearly increase from 50% to 100%"
      },
      "vestingLockPeriod()": {
        "notice": "Lock period where user can not withdraw vested $ORDER"
      }
    },
    "version": 1
  },
  "storageLayout": {
    "storage": [
      {
        "astId": 8048,
        "contract": "contracts/test/OmnichainLedgerTestV1.sol:OmnichainLedgerTestV1",
        "label": "__gap",
        "offset": 0,
        "slot": "0",
        "type": "t_array(t_uint256)5_storage"
      },
      {
        "astId": 7921,
        "contract": "contracts/test/OmnichainLedgerTestV1.sol:OmnichainLedgerTestV1",
        "label": "srcChainIdToEventId",
        "offset": 0,
        "slot": "5",
        "type": "t_mapping(t_uint256,t_uint256)"
      },
      {
        "astId": 7943,
        "contract": "contracts/test/OmnichainLedgerTestV1.sol:OmnichainLedgerTestV1",
        "label": "__gap",
        "offset": 0,
        "slot": "6",
        "type": "t_array(t_uint256)5_storage"
      },
      {
        "astId": 8151,
        "contract": "contracts/test/OmnichainLedgerTestV1.sol:OmnichainLedgerTestV1",
        "label": "activeDistributions",
        "offset": 0,
        "slot": "11",
        "type": "t_mapping(t_uint32,t_struct(Distribution)8145_storage)"
      },
      {
        "astId": 8157,
        "contract": "contracts/test/OmnichainLedgerTestV1.sol:OmnichainLedgerTestV1",
        "label": "proposedRoots",
        "offset": 0,
        "slot": "12",
        "type": "t_mapping(t_uint32,t_struct(MerkleTree)8136_storage)"
      },
      {
        "astId": 8164,
        "contract": "contracts/test/OmnichainLedgerTestV1.sol:OmnichainLedgerTestV1",
        "label": "claimedAmounts",
        "offset": 0,
        "slot": "13",
        "type": "t_mapping(t_uint32,t_mapping(t_address,t_uint256))"
      },
      {
        "astId": 8811,
        "contract": "contracts/test/OmnichainLedgerTestV1.sol:OmnichainLedgerTestV1",
        "label": "__gap",
        "offset": 0,
        "slot": "14",
        "type": "t_array(t_uint256)50_storage"
      },
      {
        "astId": 10666,
        "contract": "contracts/test/OmnichainLedgerTestV1.sol:OmnichainLedgerTestV1",
        "label": "usdcUpdaterAddress",
        "offset": 0,
        "slot": "64",
        "type": "t_address"
      },
      {
        "astId": 10671,
        "contract": "contracts/test/OmnichainLedgerTestV1.sol:OmnichainLedgerTestV1",
        "label": "collectedValor",
        "offset": 0,
        "slot": "65",
        "type": "t_mapping(t_address,t_uint256)"
      },
      {
        "astId": 10674,
        "contract": "contracts/test/OmnichainLedgerTestV1.sol:OmnichainLedgerTestV1",
        "label": "valorPerSecond",
        "offset": 0,
        "slot": "66",
        "type": "t_uint256"
      },
      {
        "astId": 10677,
        "contract": "contracts/test/OmnichainLedgerTestV1.sol:OmnichainLedgerTestV1",
        "label": "maximumValorEmission",
        "offset": 0,
        "slot": "67",
        "type": "t_uint256"
      },
      {
        "astId": 10680,
        "contract": "contracts/test/OmnichainLedgerTestV1.sol:OmnichainLedgerTestV1",
        "label": "totalValorEmitted",
        "offset": 0,
        "slot": "68",
        "type": "t_uint256"
      },
      {
        "astId": 10683,
        "contract": "contracts/test/OmnichainLedgerTestV1.sol:OmnichainLedgerTestV1",
        "label": "totalValorRedeemed",
        "offset": 0,
        "slot": "69",
        "type": "t_uint256"
      },
      {
        "astId": 10686,
        "contract": "contracts/test/OmnichainLedgerTestV1.sol:OmnichainLedgerTestV1",
        "label": "totalUsdcInTreasure",
        "offset": 0,
        "slot": "70",
        "type": "t_uint256"
      },
      {
        "astId": 10689,
        "contract": "contracts/test/OmnichainLedgerTestV1.sol:OmnichainLedgerTestV1",
        "label": "valorToUsdcRateScaled",
        "offset": 0,
        "slot": "71",
        "type": "t_uint256"
      },
      {
        "astId": 10692,
        "contract": "contracts/test/OmnichainLedgerTestV1.sol:OmnichainLedgerTestV1",
        "label": "valorEmissionStartTimestamp",
        "offset": 0,
        "slot": "72",
        "type": "t_uint256"
      },
      {
        "astId": 10695,
        "contract": "contracts/test/OmnichainLedgerTestV1.sol:OmnichainLedgerTestV1",
        "label": "lastValorUpdateTimestamp",
        "offset": 0,
        "slot": "73",
        "type": "t_uint256"
      },
      {
        "astId": 10698,
        "contract": "contracts/test/OmnichainLedgerTestV1.sol:OmnichainLedgerTestV1",
        "label": "lastUsdcNetFeeRevenueUpdateTimestamp",
        "offset": 0,
        "slot": "74",
        "type": "t_uint256"
      },
      {
        "astId": 11017,
        "contract": "contracts/test/OmnichainLedgerTestV1.sol:OmnichainLedgerTestV1",
        "label": "__gap",
        "offset": 0,
        "slot": "75",
        "type": "t_array(t_uint256)50_storage"
      },
      {
        "astId": 9850,
        "contract": "contracts/test/OmnichainLedgerTestV1.sol:OmnichainLedgerTestV1",
        "label": "userStakingInfo",
        "offset": 0,
        "slot": "125",
        "type": "t_mapping(t_address,t_struct(StakingInfo)9845_storage)"
      },
      {
        "astId": 9860,
        "contract": "contracts/test/OmnichainLedgerTestV1.sol:OmnichainLedgerTestV1",
        "label": "userPendingUnstake",
        "offset": 0,
        "slot": "126",
        "type": "t_mapping(t_address,t_struct(PendingUnstake)9855_storage)"
      },
      {
        "astId": 9863,
        "contract": "contracts/test/OmnichainLedgerTestV1.sol:OmnichainLedgerTestV1",
        "label": "totalStakedAmount",
        "offset": 0,
        "slot": "127",
        "type": "t_uint256"
      },
      {
        "astId": 9866,
        "contract": "contracts/test/OmnichainLedgerTestV1.sol:OmnichainLedgerTestV1",
        "label": "accValorPerShareScaled",
        "offset": 0,
        "slot": "128",
        "type": "t_uint256"
      },
      {
        "astId": 9869,
        "contract": "contracts/test/OmnichainLedgerTestV1.sol:OmnichainLedgerTestV1",
        "label": "unstakeLockPeriod",
        "offset": 0,
        "slot": "129",
        "type": "t_uint256"
      },
      {
        "astId": 10642,
        "contract": "contracts/test/OmnichainLedgerTestV1.sol:OmnichainLedgerTestV1",
        "label": "__gap",
        "offset": 0,
        "slot": "130",
        "type": "t_array(t_uint256)50_storage"
      },
      {
        "astId": 8906,
        "contract": "contracts/test/OmnichainLedgerTestV1.sol:OmnichainLedgerTestV1",
        "label": "batches",
        "offset": 0,
        "slot": "180",
        "type": "t_array(t_struct(Batch)8902_storage)dyn_storage"
      },
      {
        "astId": 8927,
        "contract": "contracts/test/OmnichainLedgerTestV1.sol:OmnichainLedgerTestV1",
        "label": "userRevenue",
        "offset": 0,
        "slot": "181",
        "type": "t_mapping(t_address,t_struct(UserRevenueRecord)8922_storage)"
      },
      {
        "astId": 8930,
        "contract": "contracts/test/OmnichainLedgerTestV1.sol:OmnichainLedgerTestV1",
        "label": "batchDuration",
        "offset": 0,
        "slot": "182",
        "type": "t_uint256"
      },
      {
        "astId": 9744,
        "contract": "contracts/test/OmnichainLedgerTestV1.sol:OmnichainLedgerTestV1",
        "label": "__gap",
        "offset": 0,
        "slot": "183",
        "type": "t_array(t_uint256)50_storage"
      },
      {
        "astId": 11058,
        "contract": "contracts/test/OmnichainLedgerTestV1.sol:OmnichainLedgerTestV1",
        "label": "userVestingInfos",
        "offset": 0,
        "slot": "233",
        "type": "t_mapping(t_address,t_struct(UserVestingInfo)11053_storage)"
      },
      {
        "astId": 11061,
        "contract": "contracts/test/OmnichainLedgerTestV1.sol:OmnichainLedgerTestV1",
        "label": "vestingLockPeriod",
        "offset": 0,
        "slot": "234",
        "type": "t_uint256"
      },
      {
        "astId": 11064,
        "contract": "contracts/test/OmnichainLedgerTestV1.sol:OmnichainLedgerTestV1",
        "label": "vestingLinearPeriod",
        "offset": 0,
        "slot": "235",
        "type": "t_uint256"
      },
      {
        "astId": 11601,
        "contract": "contracts/test/OmnichainLedgerTestV1.sol:OmnichainLedgerTestV1",
        "label": "__gap",
        "offset": 0,
        "slot": "236",
        "type": "t_array(t_uint256)50_storage"
      },
      {
        "astId": 7148,
        "contract": "contracts/test/OmnichainLedgerTestV1.sol:OmnichainLedgerTestV1",
        "label": "occAdaptor",
        "offset": 0,
        "slot": "286",
        "type": "t_address"
      }
    ],
    "types": {
      "t_address": {
        "encoding": "inplace",
        "label": "address",
        "numberOfBytes": "20"
      },
      "t_array(t_struct(Batch)8902_storage)dyn_storage": {
        "base": "t_struct(Batch)8902_storage",
        "encoding": "dynamic_array",
        "label": "struct Revenue.Batch[]",
        "numberOfBytes": "32"
      },
      "t_array(t_struct(BatchedRedemptionRequest)8913_storage)dyn_storage": {
        "base": "t_struct(BatchedRedemptionRequest)8913_storage",
        "encoding": "dynamic_array",
        "label": "struct Revenue.BatchedRedemptionRequest[]",
        "numberOfBytes": "32"
      },
      "t_array(t_struct(ChainedAmount)8887_storage)dyn_storage": {
        "base": "t_struct(ChainedAmount)8887_storage",
        "encoding": "dynamic_array",
        "label": "struct Revenue.ChainedAmount[]",
        "numberOfBytes": "32"
      },
      "t_array(t_struct(VestingRequest)11046_storage)dyn_storage": {
        "base": "t_struct(VestingRequest)11046_storage",
        "encoding": "dynamic_array",
        "label": "struct Vesting.VestingRequest[]",
        "numberOfBytes": "32"
      },
      "t_array(t_uint256)2_storage": {
        "base": "t_uint256",
        "encoding": "inplace",
        "label": "uint256[2]",
        "numberOfBytes": "64"
      },
      "t_array(t_uint256)50_storage": {
        "base": "t_uint256",
        "encoding": "inplace",
        "label": "uint256[50]",
        "numberOfBytes": "1600"
      },
      "t_array(t_uint256)5_storage": {
        "base": "t_uint256",
        "encoding": "inplace",
        "label": "uint256[5]",
        "numberOfBytes": "160"
      },
      "t_bool": {
        "encoding": "inplace",
        "label": "bool",
        "numberOfBytes": "1"
      },
      "t_bytes32": {
        "encoding": "inplace",
        "label": "bytes32",
        "numberOfBytes": "32"
      },
      "t_bytes_storage": {
        "encoding": "bytes",
        "label": "bytes",
        "numberOfBytes": "32"
      },
      "t_enum(LedgerToken)8820": {
        "encoding": "inplace",
        "label": "enum LedgerToken",
        "numberOfBytes": "1"
      },
      "t_mapping(t_address,t_struct(PendingUnstake)9855_storage)": {
        "encoding": "mapping",
        "key": "t_address",
        "label": "mapping(address => struct Staking.PendingUnstake)",
        "numberOfBytes": "32",
        "value": "t_struct(PendingUnstake)9855_storage"
      },
      "t_mapping(t_address,t_struct(StakingInfo)9845_storage)": {
        "encoding": "mapping",
        "key": "t_address",
        "label": "mapping(address => struct Staking.StakingInfo)",
        "numberOfBytes": "32",
        "value": "t_struct(StakingInfo)9845_storage"
      },
      "t_mapping(t_address,t_struct(UserRevenueRecord)8922_storage)": {
        "encoding": "mapping",
        "key": "t_address",
        "label": "mapping(address => struct Revenue.UserRevenueRecord)",
        "numberOfBytes": "32",
        "value": "t_struct(UserRevenueRecord)8922_storage"
      },
      "t_mapping(t_address,t_struct(UserVestingInfo)11053_storage)": {
        "encoding": "mapping",
        "key": "t_address",
        "label": "mapping(address => struct Vesting.UserVestingInfo)",
        "numberOfBytes": "32",
        "value": "t_struct(UserVestingInfo)11053_storage"
      },
      "t_mapping(t_address,t_uint256)": {
        "encoding": "mapping",
        "key": "t_address",
        "label": "mapping(address => uint256)",
        "numberOfBytes": "32",
        "value": "t_uint256"
      },
      "t_mapping(t_uint256,t_uint256)": {
        "encoding": "mapping",
        "key": "t_uint256",
        "label": "mapping(uint256 => uint256)",
        "numberOfBytes": "32",
        "value": "t_uint256"
      },
      "t_mapping(t_uint32,t_mapping(t_address,t_uint256))": {
        "encoding": "mapping",
        "key": "t_uint32",
        "label": "mapping(uint32 => mapping(address => uint256))",
        "numberOfBytes": "32",
        "value": "t_mapping(t_address,t_uint256)"
      },
      "t_mapping(t_uint32,t_struct(Distribution)8145_storage)": {
        "encoding": "mapping",
        "key": "t_uint32",
        "label": "mapping(uint32 => struct MerkleDistributor.Distribution)",
        "numberOfBytes": "32",
        "value": "t_struct(Distribution)8145_storage"
      },
      "t_mapping(t_uint32,t_struct(MerkleTree)8136_storage)": {
        "encoding": "mapping",
        "key": "t_uint32",
        "label": "mapping(uint32 => struct MerkleDistributor.MerkleTree)",
        "numberOfBytes": "32",
        "value": "t_struct(MerkleTree)8136_storage"
      },
      "t_struct(Batch)8902_storage": {
        "encoding": "inplace",
        "label": "struct Revenue.Batch",
        "members": [
          {
            "astId": 8890,
            "contract": "contracts/test/OmnichainLedgerTestV1.sol:OmnichainLedgerTestV1",
            "label": "claimable",
            "offset": 0,
            "slot": "0",
            "type": "t_bool"
          },
          {
            "astId": 8893,
            "contract": "contracts/test/OmnichainLedgerTestV1.sol:OmnichainLedgerTestV1",
            "label": "redeemedValorAmount",
            "offset": 0,
            "slot": "1",
            "type": "t_uint256"
          },
          {
            "astId": 8896,
            "contract": "contracts/test/OmnichainLedgerTestV1.sol:OmnichainLedgerTestV1",
            "label": "fixedValorToUsdcRateScaled",
            "offset": 0,
            "slot": "2",
            "type": "t_uint256"
          },
          {
            "astId": 8901,
            "contract": "contracts/test/OmnichainLedgerTestV1.sol:OmnichainLedgerTestV1",
            "label": "chainedValorAmount",
            "offset": 0,
            "slot": "3",
            "type": "t_array(t_struct(ChainedAmount)8887_storage)dyn_storage"
          }
        ],
        "numberOfBytes": "128"
      },
      "t_struct(BatchedRedemptionRequest)8913_storage": {
        "encoding": "inplace",
        "label": "struct Revenue.BatchedRedemptionRequest",
        "members": [
          {
            "astId": 8908,
            "contract": "contracts/test/OmnichainLedgerTestV1.sol:OmnichainLedgerTestV1",
            "label": "batchId",
            "offset": 0,
            "slot": "0",
            "type": "t_uint16"
          },
          {
            "astId": 8912,
            "contract": "contracts/test/OmnichainLedgerTestV1.sol:OmnichainLedgerTestV1",
            "label": "chainedValorAmount",
            "offset": 0,
            "slot": "1",
            "type": "t_array(t_struct(ChainedAmount)8887_storage)dyn_storage"
          }
        ],
        "numberOfBytes": "64"
      },
      "t_struct(ChainedAmount)8887_storage": {
        "encoding": "inplace",
        "label": "struct Revenue.ChainedAmount",
        "members": [
          {
            "astId": 8884,
            "contract": "contracts/test/OmnichainLedgerTestV1.sol:OmnichainLedgerTestV1",
            "label": "chainId",
            "offset": 0,
            "slot": "0",
            "type": "t_uint256"
          },
          {
            "astId": 8886,
            "contract": "contracts/test/OmnichainLedgerTestV1.sol:OmnichainLedgerTestV1",
            "label": "amount",
            "offset": 0,
            "slot": "1",
            "type": "t_uint256"
          }
        ],
        "numberOfBytes": "64"
      },
      "t_struct(Distribution)8145_storage": {
        "encoding": "inplace",
        "label": "struct MerkleDistributor.Distribution",
        "members": [
          {
            "astId": 8140,
            "contract": "contracts/test/OmnichainLedgerTestV1.sol:OmnichainLedgerTestV1",
            "label": "token",
            "offset": 0,
            "slot": "0",
            "type": "t_enum(LedgerToken)8820"
          },
          {
            "astId": 8144,
            "contract": "contracts/test/OmnichainLedgerTestV1.sol:OmnichainLedgerTestV1",
            "label": "merkleTree",
            "offset": 0,
            "slot": "1",
            "type": "t_struct(MerkleTree)8136_storage"
          }
        ],
        "numberOfBytes": "128"
      },
      "t_struct(MerkleTree)8136_storage": {
        "encoding": "inplace",
        "label": "struct MerkleDistributor.MerkleTree",
        "members": [
          {
            "astId": 8129,
            "contract": "contracts/test/OmnichainLedgerTestV1.sol:OmnichainLedgerTestV1",
            "label": "merkleRoot",
            "offset": 0,
            "slot": "0",
            "type": "t_bytes32"
          },
          {
            "astId": 8132,
            "contract": "contracts/test/OmnichainLedgerTestV1.sol:OmnichainLedgerTestV1",
            "label": "startTimestamp",
            "offset": 0,
            "slot": "1",
            "type": "t_uint256"
          },
          {
            "astId": 8135,
            "contract": "contracts/test/OmnichainLedgerTestV1.sol:OmnichainLedgerTestV1",
            "label": "ipfsCid",
            "offset": 0,
            "slot": "2",
            "type": "t_bytes_storage"
          }
        ],
        "numberOfBytes": "96"
      },
      "t_struct(PendingUnstake)9855_storage": {
        "encoding": "inplace",
        "label": "struct Staking.PendingUnstake",
        "members": [
          {
            "astId": 9852,
            "contract": "contracts/test/OmnichainLedgerTestV1.sol:OmnichainLedgerTestV1",
            "label": "balanceOrder",
            "offset": 0,
            "slot": "0",
            "type": "t_uint256"
          },
          {
            "astId": 9854,
            "contract": "contracts/test/OmnichainLedgerTestV1.sol:OmnichainLedgerTestV1",
            "label": "unlockTimestamp",
            "offset": 0,
            "slot": "1",
            "type": "t_uint256"
          }
        ],
        "numberOfBytes": "64"
      },
      "t_struct(StakingInfo)9845_storage": {
        "encoding": "inplace",
        "label": "struct Staking.StakingInfo",
        "members": [
          {
            "astId": 9842,
            "contract": "contracts/test/OmnichainLedgerTestV1.sol:OmnichainLedgerTestV1",
            "label": "balance",
            "offset": 0,
            "slot": "0",
            "type": "t_array(t_uint256)2_storage"
          },
          {
            "astId": 9844,
            "contract": "contracts/test/OmnichainLedgerTestV1.sol:OmnichainLedgerTestV1",
            "label": "valorDebt",
            "offset": 0,
            "slot": "2",
            "type": "t_uint256"
          }
        ],
        "numberOfBytes": "96"
      },
      "t_struct(UserRevenueRecord)8922_storage": {
        "encoding": "inplace",
        "label": "struct Revenue.UserRevenueRecord",
        "members": [
          {
            "astId": 8917,
            "contract": "contracts/test/OmnichainLedgerTestV1.sol:OmnichainLedgerTestV1",
            "label": "chainedUsdcRevenue",
            "offset": 0,
            "slot": "0",
            "type": "t_mapping(t_uint256,t_uint256)"
          },
          {
            "astId": 8921,
            "contract": "contracts/test/OmnichainLedgerTestV1.sol:OmnichainLedgerTestV1",
            "label": "requests",
            "offset": 0,
            "slot": "1",
            "type": "t_array(t_struct(BatchedRedemptionRequest)8913_storage)dyn_storage"
          }
        ],
        "numberOfBytes": "64"
      },
      "t_struct(UserVestingInfo)11053_storage": {
        "encoding": "inplace",
        "label": "struct Vesting.UserVestingInfo",
        "members": [
          {
            "astId": 11048,
            "contract": "contracts/test/OmnichainLedgerTestV1.sol:OmnichainLedgerTestV1",
            "label": "currentRequestId",
            "offset": 0,
            "slot": "0",
            "type": "t_uint256"
          },
          {
            "astId": 11052,
            "contract": "contracts/test/OmnichainLedgerTestV1.sol:OmnichainLedgerTestV1",
            "label": "requests",
            "offset": 0,
            "slot": "1",
            "type": "t_array(t_struct(VestingRequest)11046_storage)dyn_storage"
          }
        ],
        "numberOfBytes": "64"
      },
      "t_struct(VestingRequest)11046_storage": {
        "encoding": "inplace",
        "label": "struct Vesting.VestingRequest",
        "members": [
          {
            "astId": 11041,
            "contract": "contracts/test/OmnichainLedgerTestV1.sol:OmnichainLedgerTestV1",
            "label": "requestId",
            "offset": 0,
            "slot": "0",
            "type": "t_uint256"
          },
          {
            "astId": 11043,
            "contract": "contracts/test/OmnichainLedgerTestV1.sol:OmnichainLedgerTestV1",
            "label": "esOrderAmount",
            "offset": 0,
            "slot": "1",
            "type": "t_uint256"
          },
          {
            "astId": 11045,
            "contract": "contracts/test/OmnichainLedgerTestV1.sol:OmnichainLedgerTestV1",
            "label": "unlockTimestamp",
            "offset": 0,
            "slot": "2",
            "type": "t_uint256"
          }
        ],
        "numberOfBytes": "96"
      },
      "t_uint16": {
        "encoding": "inplace",
        "label": "uint16",
        "numberOfBytes": "2"
      },
      "t_uint256": {
        "encoding": "inplace",
        "label": "uint256",
        "numberOfBytes": "32"
      },
      "t_uint32": {
        "encoding": "inplace",
        "label": "uint32",
        "numberOfBytes": "4"
      }
    }
  }
}