{
  "address": "0x863539c6BB91b086045Ec99457D8280822EE7453",
  "abi": [
    {
      "inputs": [],
      "name": "AccessControlBadConfirmation",
      "type": "error"
    },
    {
      "inputs": [
        {
          "internalType": "address",
          "name": "account",
          "type": "address"
        },
        {
          "internalType": "bytes32",
          "name": "neededRole",
          "type": "bytes32"
        }
      ],
      "name": "AccessControlUnauthorizedAccount",
      "type": "error"
    },
    {
      "inputs": [
        {
          "internalType": "address",
          "name": "target",
          "type": "address"
        }
      ],
      "name": "AddressEmptyCode",
      "type": "error"
    },
    {
      "inputs": [
        {
          "internalType": "address",
          "name": "account",
          "type": "address"
        }
      ],
      "name": "AddressInsufficientBalance",
      "type": "error"
    },
    {
      "inputs": [],
      "name": "AmountIsGreaterThanCollectedValor",
      "type": "error"
    },
    {
      "inputs": [],
      "name": "AmountIsZero",
      "type": "error"
    },
    {
      "inputs": [],
      "name": "BatchIsNotCreatedYet",
      "type": "error"
    },
    {
      "inputs": [],
      "name": "BatchIsNotFinished",
      "type": "error"
    },
    {
      "inputs": [],
      "name": "BatchValorToUsdcRateIsNotFixed",
      "type": "error"
    },
    {
      "inputs": [],
      "name": "CannotUpdateRoot",
      "type": "error"
    },
    {
      "inputs": [
        {
          "internalType": "uint256",
          "name": "amountEsorderDeposited",
          "type": "uint256"
        },
        {
          "internalType": "uint256",
          "name": "amountEsorderRequested",
          "type": "uint256"
        }
      ],
      "name": "DepositNotEnough",
      "type": "error"
    },
    {
      "inputs": [],
      "name": "DistributionAlreadyExists",
      "type": "error"
    },
    {
      "inputs": [],
      "name": "DistributionNotFound",
      "type": "error"
    },
    {
      "inputs": [
        {
          "internalType": "address",
          "name": "implementation",
          "type": "address"
        }
      ],
      "name": "ERC1967InvalidImplementation",
      "type": "error"
    },
    {
      "inputs": [],
      "name": "ERC1967NonPayable",
      "type": "error"
    },
    {
      "inputs": [],
      "name": "EnforcedPause",
      "type": "error"
    },
    {
      "inputs": [],
      "name": "ExpectedPause",
      "type": "error"
    },
    {
      "inputs": [],
      "name": "FailedInnerCall",
      "type": "error"
    },
    {
      "inputs": [],
      "name": "InvalidInitialization",
      "type": "error"
    },
    {
      "inputs": [],
      "name": "InvalidMerkleProof",
      "type": "error"
    },
    {
      "inputs": [],
      "name": "NoActiveMerkleRoot",
      "type": "error"
    },
    {
      "inputs": [],
      "name": "NoPendingUnstakeRequest",
      "type": "error"
    },
    {
      "inputs": [],
      "name": "NotInitializing",
      "type": "error"
    },
    {
      "inputs": [
        {
          "internalType": "address",
          "name": "user",
          "type": "address"
        },
        {
          "internalType": "uint256",
          "name": "chainId",
          "type": "uint256"
        }
      ],
      "name": "NothingToClaim",
      "type": "error"
    },
    {
      "inputs": [],
      "name": "ProposedMerkleRootIsZero",
      "type": "error"
    },
    {
      "inputs": [],
      "name": "RedemptionAmountIsZero",
      "type": "error"
    },
    {
      "inputs": [],
      "name": "ReentrancyGuardReentrantCall",
      "type": "error"
    },
    {
      "inputs": [
        {
          "internalType": "address",
          "name": "token",
          "type": "address"
        }
      ],
      "name": "SafeERC20FailedOperation",
      "type": "error"
    },
    {
      "inputs": [
        {
          "internalType": "enum LedgerToken",
          "name": "token",
          "type": "uint8"
        }
      ],
      "name": "StakingBalanceInsufficient",
      "type": "error"
    },
    {
      "inputs": [],
      "name": "StartTimestampIsInThePast",
      "type": "error"
    },
    {
      "inputs": [],
      "name": "ThisMerkleRootIsAlreadyProposed",
      "type": "error"
    },
    {
      "inputs": [],
      "name": "TokenIsNotSupportedForDistribution",
      "type": "error"
    },
    {
      "inputs": [],
      "name": "TooEarlyUsdcNetFeeRevenueUpdate",
      "type": "error"
    },
    {
      "inputs": [],
      "name": "UUPSUnauthorizedCallContext",
      "type": "error"
    },
    {
      "inputs": [
        {
          "internalType": "bytes32",
          "name": "slot",
          "type": "bytes32"
        }
      ],
      "name": "UUPSUnsupportedProxiableUUID",
      "type": "error"
    },
    {
      "inputs": [],
      "name": "UnlockTimeNotPassedYet",
      "type": "error"
    },
    {
      "inputs": [],
      "name": "UnsupportedPayloadType",
      "type": "error"
    },
    {
      "inputs": [],
      "name": "UnsupportedToken",
      "type": "error"
    },
    {
      "inputs": [
        {
          "internalType": "address",
          "name": "_user",
          "type": "address"
        },
        {
          "internalType": "uint256",
          "name": "_requestId",
          "type": "uint256"
        }
      ],
      "name": "UserDontHaveVestingRequest",
      "type": "error"
    },
    {
      "inputs": [],
      "name": "ValorPerSecondExceedsMaxValue",
      "type": "error"
    },
    {
      "inputs": [],
      "name": "VestingAmountIsZero",
      "type": "error"
    },
    {
      "inputs": [],
      "name": "VestingLinearPeriodIsZero",
      "type": "error"
    },
    {
      "inputs": [],
      "name": "VestingLockPeriodIsZero",
      "type": "error"
    },
    {
      "inputs": [],
      "name": "VestingLockPeriodNotPassed",
      "type": "error"
    },
    {
      "inputs": [],
      "name": "VestingPeriodIsOutOfRange",
      "type": "error"
    },
    {
      "anonymous": false,
      "inputs": [
        {
          "indexed": true,
          "internalType": "uint16",
          "name": "batchId",
          "type": "uint16"
        }
      ],
      "name": "BatchPreparedToClaim",
      "type": "event"
    },
    {
      "anonymous": false,
      "inputs": [
        {
          "indexed": true,
          "internalType": "uint16",
          "name": "batchId",
          "type": "uint16"
        },
        {
          "indexed": false,
          "internalType": "uint256",
          "name": "fixedValorToUsdcRate",
          "type": "uint256"
        }
      ],
      "name": "BatchValorToUsdcRateIsFixed",
      "type": "event"
    },
    {
      "anonymous": false,
      "inputs": [
        {
          "indexed": true,
          "internalType": "uint256",
          "name": "timestamp",
          "type": "uint256"
        },
        {
          "indexed": false,
          "internalType": "uint256",
          "name": "usdcNetFeeRevenue",
          "type": "uint256"
        },
        {
          "indexed": false,
          "internalType": "uint256",
          "name": "totalUsdcInTreasure",
          "type": "uint256"
        },
        {
          "indexed": false,
          "internalType": "uint256",
          "name": "totalValorAmount",
          "type": "uint256"
        },
        {
          "indexed": false,
          "internalType": "uint256",
          "name": "valorToUsdcRateScaled",
          "type": "uint256"
        }
      ],
      "name": "DailyUsdcNetFeeRevenueUpdated",
      "type": "event"
    },
    {
      "anonymous": false,
      "inputs": [
        {
          "indexed": true,
          "internalType": "uint256",
          "name": "eventId",
          "type": "uint256"
        },
        {
          "indexed": true,
          "internalType": "uint32",
          "name": "distributionId",
          "type": "uint32"
        },
        {
          "indexed": false,
          "internalType": "enum LedgerToken",
          "name": "token",
          "type": "uint8"
        },
        {
          "indexed": false,
          "internalType": "bytes32",
          "name": "merkleRoot",
          "type": "bytes32"
        },
        {
          "indexed": false,
          "internalType": "uint256",
          "name": "startTimestamp",
          "type": "uint256"
        },
        {
          "indexed": false,
          "internalType": "bytes",
          "name": "ipfsCid",
          "type": "bytes"
        }
      ],
      "name": "DistributionCreated",
      "type": "event"
    },
    {
      "anonymous": false,
      "inputs": [
        {
          "indexed": true,
          "internalType": "uint256",
          "name": "chainedEventId",
          "type": "uint256"
        },
        {
          "indexed": true,
          "internalType": "uint256",
          "name": "chainId",
          "type": "uint256"
        },
        {
          "indexed": true,
          "internalType": "address",
          "name": "staker",
          "type": "address"
        },
        {
          "indexed": false,
          "internalType": "uint256",
          "name": "amount",
          "type": "uint256"
        }
      ],
      "name": "EsOrderUnstake",
      "type": "event"
    },
    {
      "anonymous": false,
      "inputs": [
        {
          "indexed": false,
          "internalType": "uint64",
          "name": "version",
          "type": "uint64"
        }
      ],
      "name": "Initialized",
      "type": "event"
    },
    {
      "anonymous": false,
      "inputs": [
        {
          "indexed": true,
          "internalType": "address",
          "name": "staker",
          "type": "address"
        },
        {
          "indexed": false,
          "internalType": "uint256",
          "name": "totalUnstakedAmount",
          "type": "uint256"
        },
        {
          "indexed": false,
          "internalType": "uint256",
          "name": "unlockTimestamp",
          "type": "uint256"
        }
      ],
      "name": "OrderUnstakeAmount",
      "type": "event"
    },
    {
      "anonymous": false,
      "inputs": [
        {
          "indexed": true,
          "internalType": "uint256",
          "name": "chainedEventId",
          "type": "uint256"
        },
        {
          "indexed": true,
          "internalType": "uint256",
          "name": "chainId",
          "type": "uint256"
        },
        {
          "indexed": true,
          "internalType": "address",
          "name": "staker",
          "type": "address"
        },
        {
          "indexed": false,
          "internalType": "uint256",
          "name": "pendingOrderAmount",
          "type": "uint256"
        }
      ],
      "name": "OrderUnstakeCancelled",
      "type": "event"
    },
    {
      "anonymous": false,
      "inputs": [
        {
          "indexed": true,
          "internalType": "uint256",
          "name": "chainedEventId",
          "type": "uint256"
        },
        {
          "indexed": true,
          "internalType": "uint256",
          "name": "chainId",
          "type": "uint256"
        },
        {
          "indexed": true,
          "internalType": "address",
          "name": "staker",
          "type": "address"
        },
        {
          "indexed": false,
          "internalType": "uint256",
          "name": "amount",
          "type": "uint256"
        }
      ],
      "name": "OrderUnstakeRequested",
      "type": "event"
    },
    {
      "anonymous": false,
      "inputs": [
        {
          "indexed": true,
          "internalType": "uint256",
          "name": "chainedEventId",
          "type": "uint256"
        },
        {
          "indexed": true,
          "internalType": "uint256",
          "name": "chainId",
          "type": "uint256"
        },
        {
          "indexed": true,
          "internalType": "address",
          "name": "staker",
          "type": "address"
        },
        {
          "indexed": false,
          "internalType": "uint256",
          "name": "amount",
          "type": "uint256"
        }
      ],
      "name": "OrderWithdrawn",
      "type": "event"
    },
    {
      "anonymous": false,
      "inputs": [
        {
          "indexed": false,
          "internalType": "address",
          "name": "account",
          "type": "address"
        }
      ],
      "name": "Paused",
      "type": "event"
    },
    {
      "anonymous": false,
      "inputs": [
        {
          "indexed": true,
          "internalType": "uint256",
          "name": "chainedEventId",
          "type": "uint256"
        },
        {
          "indexed": true,
          "internalType": "uint256",
          "name": "chainId",
          "type": "uint256"
        },
        {
          "indexed": true,
          "internalType": "uint32",
          "name": "distributionId",
          "type": "uint32"
        },
        {
          "indexed": false,
          "internalType": "address",
          "name": "account",
          "type": "address"
        },
        {
          "indexed": false,
          "internalType": "uint256",
          "name": "amount",
          "type": "uint256"
        },
        {
          "indexed": false,
          "internalType": "enum LedgerToken",
          "name": "token",
          "type": "uint8"
        }
      ],
      "name": "RewardsClaimed",
      "type": "event"
    },
    {
      "anonymous": false,
      "inputs": [
        {
          "indexed": true,
          "internalType": "bytes32",
          "name": "role",
          "type": "bytes32"
        },
        {
          "indexed": true,
          "internalType": "bytes32",
          "name": "previousAdminRole",
          "type": "bytes32"
        },
        {
          "indexed": true,
          "internalType": "bytes32",
          "name": "newAdminRole",
          "type": "bytes32"
        }
      ],
      "name": "RoleAdminChanged",
      "type": "event"
    },
    {
      "anonymous": false,
      "inputs": [
        {
          "indexed": true,
          "internalType": "bytes32",
          "name": "role",
          "type": "bytes32"
        },
        {
          "indexed": true,
          "internalType": "address",
          "name": "account",
          "type": "address"
        },
        {
          "indexed": true,
          "internalType": "address",
          "name": "sender",
          "type": "address"
        }
      ],
      "name": "RoleGranted",
      "type": "event"
    },
    {
      "anonymous": false,
      "inputs": [
        {
          "indexed": true,
          "internalType": "bytes32",
          "name": "role",
          "type": "bytes32"
        },
        {
          "indexed": true,
          "internalType": "address",
          "name": "account",
          "type": "address"
        },
        {
          "indexed": true,
          "internalType": "address",
          "name": "sender",
          "type": "address"
        }
      ],
      "name": "RoleRevoked",
      "type": "event"
    },
    {
      "anonymous": false,
      "inputs": [
        {
          "indexed": true,
          "internalType": "uint256",
          "name": "eventId",
          "type": "uint256"
        },
        {
          "indexed": true,
          "internalType": "uint32",
          "name": "distributionId",
          "type": "uint32"
        },
        {
          "indexed": false,
          "internalType": "bytes32",
          "name": "merkleRoot",
          "type": "bytes32"
        },
        {
          "indexed": false,
          "internalType": "uint256",
          "name": "startTimestamp",
          "type": "uint256"
        },
        {
          "indexed": false,
          "internalType": "bytes",
          "name": "ipfsCid",
          "type": "bytes"
        }
      ],
      "name": "RootProposed",
      "type": "event"
    },
    {
      "anonymous": false,
      "inputs": [
        {
          "indexed": true,
          "internalType": "uint256",
          "name": "eventId",
          "type": "uint256"
        },
        {
          "indexed": true,
          "internalType": "uint32",
          "name": "distributionId",
          "type": "uint32"
        },
        {
          "indexed": false,
          "internalType": "bytes32",
          "name": "merkleRoot",
          "type": "bytes32"
        },
        {
          "indexed": false,
          "internalType": "uint256",
          "name": "startTimestamp",
          "type": "uint256"
        },
        {
          "indexed": false,
          "internalType": "bytes",
          "name": "ipfsCid",
          "type": "bytes"
        }
      ],
      "name": "RootUpdated",
      "type": "event"
    },
    {
      "anonymous": false,
      "inputs": [
        {
          "indexed": true,
          "internalType": "uint256",
          "name": "chainedEventId",
          "type": "uint256"
        },
        {
          "indexed": true,
          "internalType": "uint256",
          "name": "chainId",
          "type": "uint256"
        },
        {
          "indexed": true,
          "internalType": "address",
          "name": "staker",
          "type": "address"
        },
        {
          "indexed": false,
          "internalType": "uint256",
          "name": "amount",
          "type": "uint256"
        },
        {
          "indexed": false,
          "internalType": "enum LedgerToken",
          "name": "token",
          "type": "uint8"
        }
      ],
      "name": "Staked",
      "type": "event"
    },
    {
      "anonymous": false,
      "inputs": [
        {
          "indexed": false,
          "internalType": "address",
          "name": "account",
          "type": "address"
        }
      ],
      "name": "Unpaused",
      "type": "event"
    },
    {
      "anonymous": false,
      "inputs": [
        {
          "indexed": true,
          "internalType": "address",
          "name": "implementation",
          "type": "address"
        }
      ],
      "name": "Upgraded",
      "type": "event"
    },
    {
      "anonymous": false,
      "inputs": [
        {
          "indexed": true,
          "internalType": "uint256",
          "name": "chainEventId",
          "type": "uint256"
        },
        {
          "indexed": true,
          "internalType": "uint256",
          "name": "chainId",
          "type": "uint256"
        },
        {
          "indexed": true,
          "internalType": "address",
          "name": "user",
          "type": "address"
        },
        {
          "indexed": false,
          "internalType": "uint256",
          "name": "usdcAmount",
          "type": "uint256"
        }
      ],
      "name": "UsdcRevenueClaimed",
      "type": "event"
    },
    {
      "anonymous": false,
      "inputs": [
        {
          "indexed": true,
          "internalType": "uint256",
          "name": "chainEventId",
          "type": "uint256"
        },
        {
          "indexed": true,
          "internalType": "uint256",
          "name": "chainId",
          "type": "uint256"
        },
        {
          "indexed": true,
          "internalType": "address",
          "name": "user",
          "type": "address"
        },
        {
          "indexed": false,
          "internalType": "uint16",
          "name": "batchId",
          "type": "uint16"
        },
        {
          "indexed": false,
          "internalType": "uint256",
          "name": "valorAmount",
          "type": "uint256"
        }
      ],
      "name": "ValorRedeemed",
      "type": "event"
    },
    {
      "anonymous": false,
      "inputs": [
        {
          "indexed": true,
          "internalType": "uint256",
          "name": "chainEventId",
          "type": "uint256"
        },
        {
          "indexed": true,
          "internalType": "uint256",
          "name": "chainId",
          "type": "uint256"
        },
        {
          "indexed": true,
          "internalType": "address",
          "name": "user",
          "type": "address"
        },
        {
          "indexed": false,
          "internalType": "uint256",
          "name": "requestId",
          "type": "uint256"
        },
        {
          "indexed": false,
          "internalType": "uint256",
          "name": "amountEsorderStakedBack",
          "type": "uint256"
        }
      ],
      "name": "VestingCanceled",
      "type": "event"
    },
    {
      "anonymous": false,
      "inputs": [
        {
          "indexed": true,
          "internalType": "uint256",
          "name": "chainEventId",
          "type": "uint256"
        },
        {
          "indexed": true,
          "internalType": "uint256",
          "name": "chainId",
          "type": "uint256"
        },
        {
          "indexed": true,
          "internalType": "address",
          "name": "user",
          "type": "address"
        },
        {
          "indexed": false,
          "internalType": "uint256",
          "name": "requestId",
          "type": "uint256"
        },
        {
          "indexed": false,
          "internalType": "uint256",
          "name": "amountEsorderBurned",
          "type": "uint256"
        },
        {
          "indexed": false,
          "internalType": "uint256",
          "name": "amountOrderVested",
          "type": "uint256"
        },
        {
          "indexed": false,
          "internalType": "uint256",
          "name": "vestedPeriod",
          "type": "uint256"
        }
      ],
      "name": "VestingClaimed",
      "type": "event"
    },
    {
      "anonymous": false,
      "inputs": [
        {
          "indexed": true,
          "internalType": "uint256",
          "name": "chainEventId",
          "type": "uint256"
        },
        {
          "indexed": true,
          "internalType": "uint256",
          "name": "chainId",
          "type": "uint256"
        },
        {
          "indexed": true,
          "internalType": "address",
          "name": "user",
          "type": "address"
        },
        {
          "indexed": false,
          "internalType": "uint256",
          "name": "requestId",
          "type": "uint256"
        },
        {
          "indexed": false,
          "internalType": "uint256",
          "name": "amountEsorderRequested",
          "type": "uint256"
        },
        {
          "indexed": false,
          "internalType": "uint256",
          "name": "unlockTimestamp",
          "type": "uint256"
        }
      ],
      "name": "VestingRequested",
      "type": "event"
    },
    {
      "inputs": [],
      "name": "DEFAULT_ADMIN_ROLE",
      "outputs": [
        {
          "internalType": "bytes32",
          "name": "",
          "type": "bytes32"
        }
      ],
      "stateMutability": "view",
      "type": "function"
    },
    {
      "inputs": [],
      "name": "ROOT_UPDATER_ROLE",
      "outputs": [
        {
          "internalType": "bytes32",
          "name": "",
          "type": "bytes32"
        }
      ],
      "stateMutability": "view",
      "type": "function"
    },
    {
      "inputs": [],
      "name": "TREASURE_UPDATER_ROLE",
      "outputs": [
        {
          "internalType": "bytes32",
          "name": "",
          "type": "bytes32"
        }
      ],
      "stateMutability": "view",
      "type": "function"
    },
    {
      "inputs": [],
      "name": "UPGRADE_INTERFACE_VERSION",
      "outputs": [
        {
          "internalType": "string",
          "name": "",
          "type": "string"
        }
      ],
      "stateMutability": "view",
      "type": "function"
    },
    {
      "inputs": [],
      "name": "VALOR_TO_USDC_RATE_PRECISION",
      "outputs": [
        {
          "internalType": "uint256",
          "name": "",
          "type": "uint256"
        }
      ],
      "stateMutability": "view",
      "type": "function"
    },
    {
      "inputs": [],
      "name": "VERSION",
      "outputs": [
        {
          "internalType": "string",
          "name": "",
          "type": "string"
        }
      ],
      "stateMutability": "pure",
      "type": "function"
    },
    {
      "inputs": [],
      "name": "accValorPerShareScaled",
      "outputs": [
        {
          "internalType": "uint256",
          "name": "",
          "type": "uint256"
        }
      ],
      "stateMutability": "view",
      "type": "function"
    },
    {
      "inputs": [
        {
          "internalType": "uint16",
          "name": "_batchId",
          "type": "uint16"
        }
      ],
      "name": "batchPreparedToClaim",
      "outputs": [],
      "stateMutability": "nonpayable",
      "type": "function"
    },
    {
      "inputs": [
        {
          "internalType": "uint256",
          "name": "",
          "type": "uint256"
        }
      ],
      "name": "batches",
      "outputs": [
        {
          "internalType": "bool",
          "name": "claimable",
          "type": "bool"
        },
        {
          "internalType": "uint256",
          "name": "redeemedValorAmount",
          "type": "uint256"
        },
        {
          "internalType": "uint256",
          "name": "fixedValorToUsdcRateScaled",
          "type": "uint256"
        }
      ],
      "stateMutability": "view",
      "type": "function"
    },
    {
      "inputs": [
        {
          "internalType": "address",
          "name": "_user",
          "type": "address"
        },
        {
          "internalType": "uint256",
          "name": "_requestId",
          "type": "uint256"
        }
      ],
      "name": "calculateVestingOrderAmount",
      "outputs": [
        {
          "internalType": "uint256",
          "name": "",
          "type": "uint256"
        }
      ],
      "stateMutability": "view",
      "type": "function"
    },
    {
      "inputs": [
        {
          "internalType": "uint32",
          "name": "_distributionId",
          "type": "uint32"
        }
      ],
      "name": "canUpdateRoot",
      "outputs": [
        {
          "internalType": "bool",
          "name": "",
          "type": "bool"
        }
      ],
      "stateMutability": "view",
      "type": "function"
    },
    {
      "inputs": [
        {
          "internalType": "address",
          "name": "",
          "type": "address"
        }
      ],
      "name": "collectedValor",
      "outputs": [
        {
          "internalType": "uint256",
          "name": "",
          "type": "uint256"
        }
      ],
      "stateMutability": "view",
      "type": "function"
    },
    {
      "inputs": [
        {
          "internalType": "uint32",
          "name": "_distributionId",
          "type": "uint32"
        },
        {
          "internalType": "enum LedgerToken",
          "name": "_token",
          "type": "uint8"
        },
        {
          "internalType": "bytes32",
          "name": "_merkleRoot",
          "type": "bytes32"
        },
        {
          "internalType": "uint256",
          "name": "_startTimestamp",
          "type": "uint256"
        },
        {
          "internalType": "bytes",
          "name": "_ipfsCid",
          "type": "bytes"
        }
      ],
      "name": "createDistribution",
      "outputs": [],
      "stateMutability": "nonpayable",
      "type": "function"
    },
    {
      "inputs": [
        {
          "internalType": "uint256",
          "name": "_usdcNetFeeRevenue",
          "type": "uint256"
        }
      ],
      "name": "dailyUsdcNetFeeRevenue",
      "outputs": [],
      "stateMutability": "nonpayable",
      "type": "function"
    },
    {
      "inputs": [
        {
          "internalType": "uint16",
          "name": "_batchId",
          "type": "uint16"
        }
      ],
      "name": "fixBatchValorToUsdcRate",
      "outputs": [
        {
          "internalType": "uint256",
          "name": "",
          "type": "uint256"
        }
      ],
      "stateMutability": "nonpayable",
      "type": "function"
    },
    {
      "inputs": [
        {
          "internalType": "uint16",
          "name": "_batchId",
          "type": "uint16"
        }
      ],
      "name": "getBatchChainedValorAmount",
      "outputs": [
        {
          "components": [
            {
              "internalType": "uint256",
              "name": "chainId",
              "type": "uint256"
            },
            {
              "internalType": "uint256",
              "name": "amount",
              "type": "uint256"
            }
          ],
          "internalType": "struct Revenue.ChainedAmount[]",
          "name": "",
          "type": "tuple[]"
        }
      ],
      "stateMutability": "view",
      "type": "function"
    },
    {
      "inputs": [
        {
          "internalType": "uint16",
          "name": "_batchId",
          "type": "uint16"
        }
      ],
      "name": "getBatchInfo",
      "outputs": [
        {
          "internalType": "uint256",
          "name": "batchStartTime",
          "type": "uint256"
        },
        {
          "internalType": "uint256",
          "name": "batchEndTime",
          "type": "uint256"
        },
        {
          "internalType": "bool",
          "name": "claimable",
          "type": "bool"
        },
        {
          "internalType": "uint256",
          "name": "redeemedValorAmount",
          "type": "uint256"
        },
        {
          "internalType": "uint256",
          "name": "fixedValorToUsdcRateScaled",
          "type": "uint256"
        }
      ],
      "stateMutability": "view",
      "type": "function"
    },
    {
      "inputs": [
        {
          "internalType": "uint32",
          "name": "_distributionId",
          "type": "uint32"
        },
        {
          "internalType": "address",
          "name": "_user",
          "type": "address"
        }
      ],
      "name": "getClaimed",
      "outputs": [
        {
          "internalType": "uint256",
          "name": "",
          "type": "uint256"
        }
      ],
      "stateMutability": "view",
      "type": "function"
    },
    {
      "inputs": [],
      "name": "getCurrentBatchId",
      "outputs": [
        {
          "internalType": "uint16",
          "name": "",
          "type": "uint16"
        }
      ],
      "stateMutability": "view",
      "type": "function"
    },
    {
      "inputs": [
        {
          "internalType": "uint32",
          "name": "_distributionId",
          "type": "uint32"
        }
      ],
      "name": "getDistribution",
      "outputs": [
        {
          "internalType": "enum LedgerToken",
          "name": "token",
          "type": "uint8"
        },
        {
          "internalType": "bytes32",
          "name": "merkleRoot",
          "type": "bytes32"
        },
        {
          "internalType": "uint256",
          "name": "startTimestamp",
          "type": "uint256"
        },
        {
          "internalType": "bytes",
          "name": "ipfsCid",
          "type": "bytes"
        }
      ],
      "stateMutability": "view",
      "type": "function"
    },
    {
      "inputs": [
        {
          "internalType": "address",
          "name": "_user",
          "type": "address"
        }
      ],
      "name": "getOrderAvailableToWithdraw",
      "outputs": [
        {
          "internalType": "uint256",
          "name": "orderAmount",
          "type": "uint256"
        }
      ],
      "stateMutability": "view",
      "type": "function"
    },
    {
      "inputs": [
        {
          "internalType": "uint32",
          "name": "_distributionId",
          "type": "uint32"
        }
      ],
      "name": "getProposedRoot",
      "outputs": [
        {
          "internalType": "bytes32",
          "name": "merkleRoot",
          "type": "bytes32"
        },
        {
          "internalType": "uint256",
          "name": "startTimestamp",
          "type": "uint256"
        },
        {
          "internalType": "bytes",
          "name": "ipfsCid",
          "type": "bytes"
        }
      ],
      "stateMutability": "view",
      "type": "function"
    },
    {
      "inputs": [
        {
          "internalType": "bytes32",
          "name": "role",
          "type": "bytes32"
        }
      ],
      "name": "getRoleAdmin",
      "outputs": [
        {
          "internalType": "bytes32",
          "name": "",
          "type": "bytes32"
        }
      ],
      "stateMutability": "view",
      "type": "function"
    },
    {
      "inputs": [
        {
          "internalType": "address",
          "name": "_user",
          "type": "address"
        }
      ],
      "name": "getStakingInfo",
      "outputs": [
        {
          "internalType": "uint256",
          "name": "orderBalance",
          "type": "uint256"
        },
        {
          "internalType": "uint256",
          "name": "esOrderBalance",
          "type": "uint256"
        }
      ],
      "stateMutability": "view",
      "type": "function"
    },
    {
      "inputs": [
        {
          "internalType": "uint16",
          "name": "_batchId",
          "type": "uint16"
        }
      ],
      "name": "getUsdcAmountForBatch",
      "outputs": [
        {
          "components": [
            {
              "internalType": "uint256",
              "name": "chainId",
              "type": "uint256"
            },
            {
              "internalType": "uint256",
              "name": "amount",
              "type": "uint256"
            }
          ],
          "internalType": "struct Revenue.ChainedAmount[]",
          "name": "chainedUsdcAmount",
          "type": "tuple[]"
        }
      ],
      "stateMutability": "view",
      "type": "function"
    },
    {
      "inputs": [
        {
          "internalType": "address",
          "name": "_user",
          "type": "address"
        },
        {
          "internalType": "uint16",
          "name": "_batchId",
          "type": "uint16"
        },
        {
          "internalType": "uint256",
          "name": "_chainId",
          "type": "uint256"
        }
      ],
      "name": "getUserRedeemedValorAmountForBatchAndChain",
      "outputs": [
        {
          "internalType": "uint256",
          "name": "",
          "type": "uint256"
        }
      ],
      "stateMutability": "view",
      "type": "function"
    },
    {
      "inputs": [
        {
          "internalType": "address",
          "name": "_user",
          "type": "address"
        }
      ],
      "name": "getUserValor",
      "outputs": [
        {
          "internalType": "uint256",
          "name": "",
          "type": "uint256"
        }
      ],
      "stateMutability": "view",
      "type": "function"
    },
    {
      "inputs": [
        {
          "internalType": "address",
          "name": "_user",
          "type": "address"
        }
      ],
      "name": "getUserVestingRequests",
      "outputs": [
        {
          "components": [
            {
              "internalType": "uint256",
              "name": "requestId",
              "type": "uint256"
            },
            {
              "internalType": "uint256",
              "name": "esOrderAmount",
              "type": "uint256"
            },
            {
              "internalType": "uint256",
              "name": "unlockTimestamp",
              "type": "uint256"
            }
          ],
          "internalType": "struct Vesting.VestingRequest[]",
          "name": "",
          "type": "tuple[]"
        }
      ],
      "stateMutability": "view",
      "type": "function"
    },
    {
      "inputs": [
        {
          "internalType": "bytes32",
          "name": "role",
          "type": "bytes32"
        },
        {
          "internalType": "address",
          "name": "account",
          "type": "address"
        }
      ],
      "name": "grantRole",
      "outputs": [],
      "stateMutability": "nonpayable",
      "type": "function"
    },
    {
      "inputs": [
        {
          "internalType": "uint32",
          "name": "_distributionId",
          "type": "uint32"
        }
      ],
      "name": "hasPendingRoot",
      "outputs": [
        {
          "internalType": "bool",
          "name": "",
          "type": "bool"
        }
      ],
      "stateMutability": "view",
      "type": "function"
    },
    {
      "inputs": [
        {
          "internalType": "bytes32",
          "name": "role",
          "type": "bytes32"
        },
        {
          "internalType": "address",
          "name": "account",
          "type": "address"
        }
      ],
      "name": "hasRole",
      "outputs": [
        {
          "internalType": "bool",
          "name": "",
          "type": "bool"
        }
      ],
      "stateMutability": "view",
      "type": "function"
    },
    {
      "inputs": [
        {
          "internalType": "address",
          "name": "_owner",
          "type": "address"
        },
        {
          "internalType": "address",
          "name": "_occAdaptor",
          "type": "address"
        },
        {
          "internalType": "address",
          "name": "_orderCollector",
          "type": "address"
        },
        {
          "internalType": "contract IOFT",
          "name": "_orderTokenOft",
          "type": "address"
        },
        {
          "internalType": "uint256",
          "name": "_valorPerSecond",
          "type": "uint256"
        },
        {
          "internalType": "uint256",
          "name": "_maximumValorEmission",
          "type": "uint256"
        }
      ],
      "name": "initialize",
      "outputs": [],
      "stateMutability": "nonpayable",
      "type": "function"
    },
    {
      "inputs": [
        {
          "internalType": "uint32",
          "name": "_distributionId",
          "type": "uint32"
        }
      ],
      "name": "isDistributionRecordBased",
      "outputs": [
        {
          "internalType": "bool",
          "name": "",
          "type": "bool"
        }
      ],
      "stateMutability": "view",
      "type": "function"
    },
    {
      "inputs": [],
      "name": "lastUsdcNetFeeRevenueUpdateTimestamp",
      "outputs": [
        {
          "internalType": "uint256",
          "name": "",
          "type": "uint256"
        }
      ],
      "stateMutability": "view",
      "type": "function"
    },
    {
      "inputs": [],
      "name": "lastValorUpdateTimestamp",
      "outputs": [
        {
          "internalType": "uint256",
          "name": "",
          "type": "uint256"
        }
      ],
      "stateMutability": "view",
      "type": "function"
    },
    {
      "inputs": [
        {
          "components": [
            {
              "internalType": "uint256",
              "name": "srcChainId",
              "type": "uint256"
            },
            {
              "internalType": "enum LedgerToken",
              "name": "token",
              "type": "uint8"
            },
            {
              "internalType": "uint256",
              "name": "tokenAmount",
              "type": "uint256"
            },
            {
              "internalType": "address",
              "name": "sender",
              "type": "address"
            },
            {
              "internalType": "uint8",
              "name": "payloadType",
              "type": "uint8"
            },
            {
              "internalType": "bytes",
              "name": "payload",
              "type": "bytes"
            }
          ],
          "internalType": "struct OCCVaultMessage",
          "name": "message",
          "type": "tuple"
        }
      ],
      "name": "ledgerRecvFromVault",
      "outputs": [],
      "stateMutability": "nonpayable",
      "type": "function"
    },
    {
      "inputs": [],
      "name": "maximumValorEmission",
      "outputs": [
        {
          "internalType": "uint256",
          "name": "",
          "type": "uint256"
        }
      ],
      "stateMutability": "view",
      "type": "function"
    },
    {
      "inputs": [],
      "name": "occAdaptor",
      "outputs": [
        {
          "internalType": "address",
          "name": "",
          "type": "address"
        }
      ],
      "stateMutability": "view",
      "type": "function"
    },
    {
      "inputs": [],
      "name": "orderCollector",
      "outputs": [
        {
          "internalType": "address",
          "name": "",
          "type": "address"
        }
      ],
      "stateMutability": "view",
      "type": "function"
    },
    {
      "inputs": [],
      "name": "orderTokenOft",
      "outputs": [
        {
          "internalType": "address",
          "name": "",
          "type": "address"
        }
      ],
      "stateMutability": "view",
      "type": "function"
    },
    {
      "inputs": [],
      "name": "pause",
      "outputs": [],
      "stateMutability": "nonpayable",
      "type": "function"
    },
    {
      "inputs": [],
      "name": "paused",
      "outputs": [
        {
          "internalType": "bool",
          "name": "",
          "type": "bool"
        }
      ],
      "stateMutability": "view",
      "type": "function"
    },
    {
      "inputs": [
        {
          "internalType": "uint32",
          "name": "_distributionId",
          "type": "uint32"
        },
        {
          "internalType": "bytes32",
          "name": "_merkleRoot",
          "type": "bytes32"
        },
        {
          "internalType": "uint256",
          "name": "_startTimestamp",
          "type": "uint256"
        },
        {
          "internalType": "bytes",
          "name": "_ipfsCid",
          "type": "bytes"
        }
      ],
      "name": "proposeRoot",
      "outputs": [],
      "stateMutability": "nonpayable",
      "type": "function"
    },
    {
      "inputs": [],
      "name": "proxiableUUID",
      "outputs": [
        {
          "internalType": "bytes32",
          "name": "",
          "type": "bytes32"
        }
      ],
      "stateMutability": "view",
      "type": "function"
    },
    {
      "inputs": [
        {
          "internalType": "bytes32",
          "name": "role",
          "type": "bytes32"
        },
        {
          "internalType": "address",
          "name": "callerConfirmation",
          "type": "address"
        }
      ],
      "name": "renounceRole",
      "outputs": [],
      "stateMutability": "nonpayable",
      "type": "function"
    },
    {
      "inputs": [
        {
          "internalType": "bytes32",
          "name": "role",
          "type": "bytes32"
        },
        {
          "internalType": "address",
          "name": "account",
          "type": "address"
        }
      ],
      "name": "revokeRole",
      "outputs": [],
      "stateMutability": "nonpayable",
      "type": "function"
    },
    {
      "inputs": [
        {
          "internalType": "address",
          "name": "_occAdaptor",
          "type": "address"
        }
      ],
      "name": "setOccAdaptor",
      "outputs": [],
      "stateMutability": "nonpayable",
      "type": "function"
    },
    {
      "inputs": [
        {
          "internalType": "address",
          "name": "_orderCollector",
          "type": "address"
        }
      ],
      "name": "setOrderCollector",
      "outputs": [],
      "stateMutability": "nonpayable",
      "type": "function"
    },
    {
      "inputs": [
        {
          "internalType": "contract IOFT",
          "name": "_orderTokenOft",
          "type": "address"
        }
      ],
      "name": "setOrderTokenOft",
      "outputs": [],
      "stateMutability": "nonpayable",
      "type": "function"
    },
    {
      "inputs": [
        {
          "internalType": "uint256",
          "name": "_valorPerSecond",
          "type": "uint256"
        }
      ],
      "name": "setValorPerSecond",
      "outputs": [],
      "stateMutability": "nonpayable",
      "type": "function"
    },
    {
      "inputs": [
        {
          "internalType": "uint256",
          "name": "",
          "type": "uint256"
        }
      ],
      "name": "srcChainIdToEventId",
      "outputs": [
        {
          "internalType": "uint256",
          "name": "",
          "type": "uint256"
        }
      ],
      "stateMutability": "view",
      "type": "function"
    },
    {
      "inputs": [],
      "name": "startTimestamp",
      "outputs": [
        {
          "internalType": "uint256",
          "name": "",
          "type": "uint256"
        }
      ],
      "stateMutability": "view",
      "type": "function"
    },
    {
      "inputs": [
        {
          "internalType": "bytes4",
          "name": "interfaceId",
          "type": "bytes4"
        }
      ],
      "name": "supportsInterface",
      "outputs": [
        {
          "internalType": "bool",
          "name": "",
          "type": "bool"
        }
      ],
      "stateMutability": "view",
      "type": "function"
    },
    {
      "inputs": [],
      "name": "totalStakedAmount",
      "outputs": [
        {
          "internalType": "uint256",
          "name": "",
          "type": "uint256"
        }
      ],
      "stateMutability": "view",
      "type": "function"
    },
    {
      "inputs": [],
      "name": "totalUsdcInTreasure",
      "outputs": [
        {
          "internalType": "uint256",
          "name": "",
          "type": "uint256"
        }
      ],
      "stateMutability": "view",
      "type": "function"
    },
    {
      "inputs": [],
      "name": "totalValorAmount",
      "outputs": [
        {
          "internalType": "uint256",
          "name": "",
          "type": "uint256"
        }
      ],
      "stateMutability": "view",
      "type": "function"
    },
    {
      "inputs": [],
      "name": "totalValorEmitted",
      "outputs": [
        {
          "internalType": "uint256",
          "name": "",
          "type": "uint256"
        }
      ],
      "stateMutability": "view",
      "type": "function"
    },
    {
      "inputs": [],
      "name": "unpause",
      "outputs": [],
      "stateMutability": "nonpayable",
      "type": "function"
    },
    {
      "inputs": [],
      "name": "unstakeLockPeriod",
      "outputs": [
        {
          "internalType": "uint256",
          "name": "",
          "type": "uint256"
        }
      ],
      "stateMutability": "view",
      "type": "function"
    },
    {
      "inputs": [
        {
          "internalType": "uint32",
          "name": "_distributionId",
          "type": "uint32"
        }
      ],
      "name": "updateRoot",
      "outputs": [],
      "stateMutability": "nonpayable",
      "type": "function"
    },
    {
      "inputs": [],
      "name": "updateValorVars",
      "outputs": [],
      "stateMutability": "nonpayable",
      "type": "function"
    },
    {
      "inputs": [
        {
          "internalType": "address",
          "name": "newImplementation",
          "type": "address"
        },
        {
          "internalType": "bytes",
          "name": "data",
          "type": "bytes"
        }
      ],
      "name": "upgradeToAndCall",
      "outputs": [],
      "stateMutability": "payable",
      "type": "function"
    },
    {
      "inputs": [
        {
          "internalType": "address",
          "name": "",
          "type": "address"
        }
      ],
      "name": "userPendingUnstake",
      "outputs": [
        {
          "internalType": "uint256",
          "name": "balanceOrder",
          "type": "uint256"
        },
        {
          "internalType": "uint256",
          "name": "unlockTimestamp",
          "type": "uint256"
        }
      ],
      "stateMutability": "view",
      "type": "function"
    },
    {
      "inputs": [
        {
          "internalType": "address",
          "name": "_user",
          "type": "address"
        }
      ],
      "name": "userTotalStakingBalance",
      "outputs": [
        {
          "internalType": "uint256",
          "name": "",
          "type": "uint256"
        }
      ],
      "stateMutability": "view",
      "type": "function"
    },
    {
      "inputs": [],
      "name": "valorPerSecond",
      "outputs": [
        {
          "internalType": "uint256",
          "name": "",
          "type": "uint256"
        }
      ],
      "stateMutability": "view",
      "type": "function"
    },
    {
      "inputs": [],
      "name": "valorToUsdcRateScaled",
      "outputs": [
        {
          "internalType": "uint256",
          "name": "",
          "type": "uint256"
        }
      ],
      "stateMutability": "view",
      "type": "function"
    },
    {
      "inputs": [],
      "name": "vestingLinearPeriod",
      "outputs": [
        {
          "internalType": "uint256",
          "name": "",
          "type": "uint256"
        }
      ],
      "stateMutability": "view",
      "type": "function"
    },
    {
      "inputs": [],
      "name": "vestingLockPeriod",
      "outputs": [
        {
          "internalType": "uint256",
          "name": "",
          "type": "uint256"
        }
      ],
      "stateMutability": "view",
      "type": "function"
    }
  ],
  "transactionHash": "0x1ab9c88f1ead0e11d5315a3239e0e5e898a411043c598c98ed70d90954623d55",
  "args": [],
  "numDeployments": 1,
  "solcInputHash": "1ab4dc6fe829248545e35f40cb6d823f",
  "bytecode": "0x60a06040523060805234801561001457600080fd5b506080516159d86200003f600039600081816131670152818161319001526132d401526159d86000f3fe6080604052600436106103ef5760003560e01c80638015647f11610208578063b32c4d8d11610118578063d9ab2c5c116100ab578063e720ac8e1161007a578063e720ac8e14610ca6578063e7bacc3014610cce578063ec81bf9314610cee578063f9d60e2114610d04578063ffa1ad7414610d2457600080fd5b8063d9ab2c5c14610c38578063dccfd38d14610c5a578063e0d519db14610c70578063e6fd48bc14610c9057600080fd5b8063d0c01ccd116100e7578063d0c01ccd14610bc6578063d547741f14610be2578063d7c41c7914610c02578063d84aaaff14610c2257600080fd5b8063b32c4d8d14610b29578063b62a7d8014610b66578063caefe41314610b7c578063ccd4cf1214610bb057600080fd5b80639aefd8861161019b578063aa4704f31161016a578063aa4704f314610a47578063ab7b18be14610a85578063ad3cb1cc14610a9b578063b15fb23914610ad9578063b2077fe814610af957600080fd5b80639aefd886146109b3578063a0cd44c3146109c9578063a217fddf14610a12578063a2c7d9ae14610a2757600080fd5b806390999c4f116101d757806390999c4f14610930578063909d19091461095d57806391d1485414610973578063934012161461099357600080fd5b80638015647f146108bb5780638456cb59146108db578063892735ed146108f05780638e9a2dd21461091057600080fd5b80634f1ef286116103035780635c975abb116102965780636b1f8c0d116102655780636b1f8c0d146108105780636dd373ed1461083057806373250c081461085057806374ae2e2e146108665780637d143b521461088657600080fd5b80635c975abb146107955780635dc5e052146107ba578063628a794d146107d057806364f4463c146107f057600080fd5b806352d1902d116102d257806352d1902d1461072a578063562a54f81461073f578063567e98f91461075f5780635b97527f1461077557600080fd5b80634f1ef286146106885780634f60032e1461069b578063512bb365146106ea57806352580b5a1461070a57600080fd5b806330b667a6116103865780633f93d261116103555780633f93d261146105cc578063415a483f146105ec578063443c96231461060157806346582865146106395780634d1d882a1461065957600080fd5b806330b667a61461054a57806336568abe146105775780633cef26ec146105975780633f4ba83a146105b757600080fd5b806328a9fdec116103c257806328a9fdec1461049a57806328bcd70e146104e55780632c3a2e97146104fb5780632f2ff15d1461052857600080fd5b806301ffc9a7146103f45780630877bc8514610429578063248a9ca31461045657806326bf1c0314610484575b600080fd5b34801561040057600080fd5b5061041461040f366004614b9a565b610d52565b60405190151581526020015b60405180910390f35b34801561043557600080fd5b50610449610444366004614bdb565b610d89565b6040516104209190614bf6565b34801561046257600080fd5b50610476610471366004614c45565b610e08565b604051908152602001610420565b34801561049057600080fd5b5061047660115481565b3480156104a657600080fd5b506104766104b5366004614c85565b63ffffffff821660009081526003602090815260408083206001600160a01b038516845290915290205492915050565b3480156104f157600080fd5b5061047660095481565b34801561050757600080fd5b5061051b610516366004614cbe565b610e2a565b6040516104209190614cdb565b34801561053457600080fd5b50610548610543366004614d27565b610eb5565b005b34801561055657600080fd5b50610476610565366004614cbe565b600b6020526000908152604090205481565b34801561058357600080fd5b50610548610592366004614d27565b610ed7565b3480156105a357600080fd5b506104766105b2366004614d4c565b610f0f565b3480156105c357600080fd5b50610548610f4c565b3480156105d857600080fd5b506105486105e7366004614e86565b610f62565b3480156105f857600080fd5b5061054861124d565b34801561060d57600080fd5b50601954610621906001600160a01b031681565b6040516001600160a01b039091168152602001610420565b34801561064557600080fd5b50610548610654366004614c45565b611271565b34801561066557600080fd5b50610679610674366004614f43565b611373565b60405161042093929190614fb0565b610548610696366004614fcf565b611438565b3480156106a757600080fd5b506106bb6106b6366004614bdb565b611453565b604051610420959493929190948552602085019390935290151560408401526060830152608082015260a00190565b3480156106f657600080fd5b50601854610621906001600160a01b031681565b34801561071657600080fd5b50610476610725366004614cbe565b6114d5565b34801561073657600080fd5b50610476611516565b34801561074b57600080fd5b5061054861075a366004614cbe565b611533565b34801561076b57600080fd5b50610476600e5481565b34801561078157600080fd5b50610548610790366004614bdb565b611561565b3480156107a157600080fd5b506000805160206159838339815191525460ff16610414565b3480156107c657600080fd5b5061047660075481565b3480156107dc57600080fd5b50601a54610621906001600160a01b031681565b3480156107fc57600080fd5b5061047661080b366004614cbe565b611673565b34801561081c57600080fd5b5061041461082b366004614f43565b61169f565b34801561083c57600080fd5b5061054861084b366004614cbe565b6116dd565b34801561085c57600080fd5b50610476600a5481565b34801561087257600080fd5b50610449610881366004614bdb565b61170b565b34801561089257600080fd5b506104146108a1366004614f43565b63ffffffff16600090815260026020526040902054151590565b3480156108c757600080fd5b506105486108d6366004614c45565b6117d3565b3480156108e757600080fd5b506105486117e4565b3480156108fc57600080fd5b5061041461090b366004614f43565b6117f7565b34801561091c57600080fd5b5061054861092b366004615066565b61182c565b34801561093c57600080fd5b5061047661094b366004614c45565b60006020819052908152604090205481565b34801561096957600080fd5b5061047660045481565b34801561097f57600080fd5b5061041461098e366004614d27565b611867565b34801561099f57600080fd5b506105486109ae3660046150cf565b61189f565b3480156109bf57600080fd5b5061047660175481565b3480156109d557600080fd5b506109fd6109e4366004614cbe565b600d602052600090815260409020805460019091015482565b60408051928352602083019190915201610420565b348015610a1e57600080fd5b50610476600081565b348015610a3357600080fd5b50610476610a42366004614cbe565b611a70565b348015610a5357600080fd5b506109fd610a62366004614cbe565b6001600160a01b03166000908152600c6020526040902080546001909101549091565b348015610a9157600080fd5b50610476600f5481565b348015610aa757600080fd5b50610acc604051806040016040528060058152602001640352e302e360dc1b81525081565b6040516104209190615148565b348015610ae557600080fd5b50610476610af436600461515b565b611a99565b348015610b0557600080fd5b50610b19610b14366004614f43565b611c4a565b60405161042094939291906151d1565b348015610b3557600080fd5b50610b49610b44366004614c45565b611df6565b604080519315158452602084019290925290820152606001610420565b348015610b7257600080fd5b5061047660165481565b348015610b8857600080fd5b506104767fd4633f2ee6e04337d84b8278c3b807b75336f88e5e4656e625419ef1258e9af181565b348015610bbc57600080fd5b5061047660105481565b348015610bd257600080fd5b50610476670de0b6b3a764000081565b348015610bee57600080fd5b50610548610bfd366004614d27565b611e2d565b348015610c0e57600080fd5b50610548610c1d3660046151fd565b611e49565b348015610c2e57600080fd5b5061047660055481565b348015610c4457600080fd5b5061047660008051602061592383398151915281565b348015610c6657600080fd5b5061047660065481565b348015610c7c57600080fd5b50610548610c8b366004614cbe565b611fc4565b348015610c9c57600080fd5b5061047660135481565b348015610cb257600080fd5b50610cbb611ff2565b60405161ffff9091168152602001610420565b348015610cda57600080fd5b50610548610ce9366004614f43565b61202b565b348015610cfa57600080fd5b5061047660085481565b348015610d1057600080fd5b50610476610d1f366004614bdb565b612144565b348015610d3057600080fd5b506040805180820190915260058152640312e302e360dc1b6020820152610acc565b60006001600160e01b03198216637965db0b60e01b1480610d8357506301ffc9a760e01b6001600160e01b03198316145b92915050565b6060610d94826121f0565b600301805480602002602001604051908101604052809291908181526020016000905b82821015610dfd57838290600052602060002090600202016040518060400160405290816000820154815260200160018201548152505081526020019060010190610db7565b505050509050919050565b6000908152600080516020615963833981519152602052604090206001015490565b6001600160a01b0381166000908152601560209081526040808320600101805482518185028101850190935280835260609492939192909184015b82821015610dfd5783829060005260206000209060030201604051806060016040529081600082015481526020016001820154815260200160028201548152505081526020019060010190610e65565b610ebe82610e08565b610ec781612245565b610ed1838361224f565b50505050565b6001600160a01b0381163314610f005760405163334bd91960e11b815260040160405180910390fd5b610f0a82826122f4565b505050565b6000610f45610f1e8484612370565b60408051606081018252825481526001830154602082015260029092015490820152612455565b9392505050565b6000610f5781612245565b610f5f6124e1565b50565b6019546001600160a01b03163314610fb25760405162461bcd60e51b815260206004820152600e60248201526d27b7363ca7a1a1a0b230b83a37b960911b60448201526064015b60405180910390fd5b608081015160ff16610ffb5760008160a00151806020019051810190610fd8919061526b565b80516060840151845160208401516040850151949550610ff794612541565b5050565b600160ff16816080015160ff160361102957610f5f816060015182600001518360200151846040015161265a565b600260ff16816080015160ff160361106a5760008160a00151806020019051810190611055919061539b565b606083015183518251929350610ff7926127ad565b600360ff16816080015160ff160361108e57610ff78160600151826000015161298d565b600460ff16816080015160ff16036110b257610f5f81606001518260000151612b0e565b600560ff16816080015160ff16036110f35760008160a001518060200190518101906110de919061539b565b606083015183518251929350610ff792612bd7565b600660ff16816080015160ff16036111515760008160a0015180602001905181019061111f919061539b565b9050600061113a836060015184600001518460000151612bed565b9050610f0a8360600151846000015160018461265a565b600760ff16816080015160ff160361118e57600061117782606001518360000151612d0f565b9050610ff78260600151836000015160018461265a565b600860ff16816080015160ff16036111cf5760008160a001518060200190518101906111ba919061539b565b606083015183518251929350610ff792612ebf565b600960ff16816080015160ff16036112105760008160a001518060200190518101906111fb919061539b565b606083015183518251929350610ff792612fad565b600a60ff16816080015160ff160361123457610ff781606001518260000151612fc1565b604051634440024f60e01b815260040160405180910390fd5b61125561308a565b600f5442111561126f576112676130bb565b60105542600f555b565b7fd4633f2ee6e04337d84b8278c3b807b75336f88e5e4656e625419ef1258e9af161129b81612245565b6008546112aa9061a8c06153cd565b4210156112ca57604051636c8b246360e01b815260040160405180910390fd5b4260088190555081600960008282546112e391906153cd565b90915550506007541561131857600754670de0b6b3a764000060095461130991906153e0565b61131391906153f7565b61131b565b60005b600a819055600954600754604080518681526020810193909352820152606081019190915242907fbbd8342b1e1fe32712ce056fbd76edab76635724aa81f9f63cae57b5918fb4829060800160405180910390a25050565b63ffffffff8116600090815260026020819052604082208054600182015491909201805484936060939092909181906113ab90615419565b80601f01602080910402602001604051908101604052809291908181526020018280546113d790615419565b80156114245780601f106113f957610100808354040283529160200191611424565b820191906000526020600020905b81548152906001019060200180831161140757829003601f168201915b505050505090509250925092509193909250565b61144061315c565b61144982613201565b610ff7828261320c565b60008080808061146a6212750061ffff88166153e0565b60135461147791906153cd565b945061148662127500866153cd565b60125490945061ffff871610156114c25760006114a2876121f0565b8054600182015460029092015460ff909116955090935091506114cc9050565b5060009150819050805b91939590929450565b6001600160a01b0381166000908152600d60205260408120600181015415806115015750806001015442105b1561150f5750600092915050565b5492915050565b60006115206132c9565b5060008051602061594383398151915290565b600061153e81612245565b50601980546001600160a01b0319166001600160a01b0392909216919091179055565b600061156c81612245565b611574611ff2565b61ffff168261ffff161061159b57604051637dd2cb5d60e11b815260040160405180910390fd5b60006115a6836121f0565b905080600201546000036115cd57604051631957b3ff60e31b815260040160405180910390fd5b805460ff16156115dc57505050565b8060010154600760008282546115f2919061544d565b909155505060028101546001820154670de0b6b3a764000091611614916153e0565b61161e91906153f7565b6009600082825461162f919061544d565b9091555050805460ff1916600117815560405161ffff8416907f6eac907c1eaf34119620cb19afb9703e14b837a593b2701476d771ce2250b13390600090a2505050565b6001600160a01b0381166000908152600b602052604081205461169583613312565b610d8391906153cd565b63ffffffff811660009081526002602052604081205415158015610d8357505063ffffffff1660009081526002602052604090206001015442101590565b60006116e881612245565b50601880546001600160a01b0319166001600160a01b0392909216919091179055565b60606000611718836121f0565b6003810180546040805160208084028201810190925282815293945060009084015b828210156117805783829060005260206000209060020201604051806040016040529081600082015481526020016001820154815250508152602001906001019061173a565b50505050915060005b82518110156117cc5781600201548382815181106117a9576117a9615460565b60200260200101516020018181516117c191906153e0565b905250600101611789565b5050919050565b60006117de81612245565b50600455565b60006117ef81612245565b610f5f613341565b6000600163ffffffff831660009081526001602052604090205460ff16600381111561182557611825615199565b1492915050565b61183461338a565b61184b600080516020615923833981519152612245565b61185885858585856133d4565b6118606135f0565b5050505050565b6000918252600080516020615963833981519152602090815260408084206001600160a01b0393909316845291905290205460ff1690565b6118a761338a565b6118be600080516020615923833981519152612245565b63ffffffff8616600090815260016020526040902060020154156118f557604051630ed16a0560e31b815260040160405180910390fd5b600085600381111561190957611909615199565b141580156119295750600185600381111561192657611926615199565b14155b156119475760405163a24e5e1360e01b815260040160405180910390fd5b604051806040016040528086600381111561196457611964615199565b81526040805160608101825260008082526001602083810182905284518082018652838152848601529485019290925263ffffffff8b1681529281905291208251815491929091839160ff19909116908360038111156119c6576119c6615199565b0217905550602082015181600101600082015181600001556020820151816001015560408201518160020190816119fd91906154be565b505050905050611a1086858585856133d4565b8563ffffffff16611a216000613616565b7f8d61f909218b17b213ad8a66ec2ae4b2ac62449ea7b35d9d6396cb7df96e95b88787878787604051611a589594939291906155a6565b60405180910390a3611a686135f0565b505050505050565b6001600160a01b0381166000908152600c6020526040812060018101549054610d8391906153cd565b6000805b6001600160a01b038516600090815260146020526040902060010154811015611c3f576001600160a01b0385166000908152601460205260409020600101805461ffff8616919083908110611af457611af4615460565b600091825260209091206002909102015461ffff1603611c375760005b6001600160a01b0386166000908152601460205260409020600101805483908110611b3e57611b3e615460565b906000526020600020906002020160010180549050811015611c35576001600160a01b0386166000908152601460205260409020600101805485919084908110611b8a57611b8a615460565b90600052602060002090600202016001018281548110611bac57611bac615460565b90600052602060002090600202016000015403611c2d576001600160a01b0386166000908152601460205260409020600101805483908110611bf057611bf0615460565b90600052602060002090600202016001018181548110611c1257611c12615460565b90600052602060002090600202016001015492505050610f45565b600101611b11565b505b600101611a9d565b506000949350505050565b60008060006060611c5a8561169f565b15611d285763ffffffff851660009081526001602081815260408084205460029283905293208054928101549101805460ff909416938190611c9b90615419565b80601f0160208091040260200160405190810160405280929190818152602001828054611cc790615419565b8015611d145780601f10611ce957610100808354040283529160200191611d14565b820191906000526020600020905b815481529060010190602001808311611cf757829003601f168201915b505050505090509350935093509350611def565b63ffffffff8516600090815260016020819052604090912080549181015460028201546003909201805460ff909416939192918190611d6690615419565b80601f0160208091040260200160405190810160405280929190818152602001828054611d9290615419565b8015611ddf5780601f10611db457610100808354040283529160200191611ddf565b820191906000526020600020905b815481529060010190602001808311611dc257829003601f168201915b5050505050905093509350935093505b9193509193565b60128181548110611e0657600080fd5b600091825260209091206004909102018054600182015460029092015460ff909116925083565b611e3682610e08565b611e3f81612245565b610ed183836122f4565b7ff0c57e16840df040f15088dc2f81fe391c3923bec73e23a9662efc9c229c6a008054600160401b810460ff1615906001600160401b0316600081158015611e8e5750825b90506000826001600160401b03166001148015611eaa5750303b155b905081158015611eb8575080155b15611ed65760405163f92ee8a960e01b815260040160405180910390fd5b845467ffffffffffffffff191660011785558315611f0057845460ff60401b1916600160401b1785555b611f098b613649565b611f128b613674565b611f1d8b8888613694565b611f268b6136d3565b611f308b426136e9565b611f416213c6806262e0808b613703565b601a80546001600160a01b03808b166001600160a01b03199283161790925560198054928d16929091169190911790558315611fb757845460ff60401b19168555604051600181527fc7f505b2f371ae2175ee4913f4499e1f2633a7b5936321eed1cdaeb6115181d29060200160405180910390a15b5050505050505050505050565b6000611fcf81612245565b50601a80546001600160a01b0319166001600160a01b0392909216919091179055565b601354600090429081101561200957600091505090565b621275006013548261201b919061544d565b61202591906153f7565b91505090565b61203361308a565b61203c8161169f565b612059576040516326175e1b60e21b815260040160405180910390fd5b63ffffffff81166000908152600260208181526040808420600192839052932083548183019081559184015481840155909160039091019061209d908401826155de565b50505063ffffffff8116600090815260026020819052604082208281556001810183905591906120cf90830182614a6c565b50508063ffffffff166120e26000613616565b63ffffffff831660009081526001602081905260409182902090810154600282015492517f01752a325882177ceb45901f8433de77f4e854bba0392f8454591ec8022517bc936121399390916003909101906156b0565b60405180910390a350565b60008061215081612245565b612158611ff2565b61ffff168361ffff161061217f57604051637dd2cb5d60e11b815260040160405180910390fd5b600061218a84613777565b905080600201546000036121a157600a5460028201555b8361ffff167f605f4fc760dbfc8600370aa812edc813327cd01f0c909d737ae7cdd5397af37782600201546040516121db91815260200190565b60405180910390a26002015491505b50919050565b60125460009061ffff831610612219576040516305b7010560e51b815260040160405180910390fd5b60128261ffff168154811061223057612230615460565b90600052602060002090600402019050919050565b610f5f81336137a1565b600060008051602061596383398151915261226a8484611867565b6122ea576000848152602082815260408083206001600160a01b03871684529091529020805460ff191660011790556122a03390565b6001600160a01b0316836001600160a01b0316857f2f8788117e7eff1d82e926ec794901d17c78024a50270940304540a733656f0d60405160405180910390a46001915050610d83565b6000915050610d83565b600060008051602061596383398151915261230f8484611867565b156122ea576000848152602082815260408083206001600160a01b0387168085529252808320805460ff1916905551339287917ff6391f5c32d9c69d2a47ea670b442974b53935d1edc7fd64eb21e047a839171b9190a46001915050610d83565b6000805b6001600160a01b038416600090815260156020526040902060010154811015612429576001600160a01b03841660009081526015602052604090206001018054849190839081106123c7576123c7615460565b90600052602060002090600302016000015403612421576001600160a01b038416600090815260156020526040902060010180548290811061240b5761240b615460565b9060005260206000209060030201915050610d83565b600101612374565b50604051632b8e927b60e01b81526001600160a01b038416600482015260248101839052604401610fa9565b600081602001516000148061246d5750816040015142105b1561247a57506000919050565b600082604001514261248c919061544d565b905060175481111561249d57506017545b60026017548285602001516124b291906153e0565b6124bc91906153f7565b6124c691906153f7565b600284602001516124d791906153f7565b610f4591906153cd565b6124e96137da565b600080516020615983833981519152805460ff191681557f5db9ee0a495bf2e6ff9c91a7834c1ba4fdd244a5e8aa4e537bd38aeae4b073aa335b6040516001600160a01b03909116815260200160405180910390a150565b600080612551878787878761380a565b915091508060001461265157600182600381111561257157612571615199565b03612582576125828686848461265a565b60006040518060c001604052808781526020018460038111156125a7576125a7615199565b8152602081018490526001600160a01b0389166040820152606001600b60ff168152604080518082018252600381526203078360ec1b6020828101919091529092019190915260195490516316369c1960e11b81529192506001600160a01b031690632c6d38329061261d90849060040161574f565b600060405180830381600087803b15801561263757600080fd5b505af115801561264b573d6000803e3d6000fd5b50505050505b50505050505050565b61266261338a565b61266a61308a565b8060000361268b576040516310eb483f60e21b815260040160405180910390fd5b600182600381111561269f5761269f615199565b11156126be5760405163350b944160e11b815260040160405180910390fd5b6126c7846139f8565b6001600160a01b0384166000908152600c6020526040902081908360038111156126f3576126f3615199565b6002811061270357612703615460565b01600082825461271391906153cd565b90915550612722905084613a74565b6001600160a01b0385166000908152600c6020526040812060020191909155600e80548392906127539084906153cd565b90915550506001600160a01b0384168361276c81613616565b7f99f9c5a56f286a152d0b60bd8851853878e05bb243daeaf47f4c300015987916848660405161279d9291906157b0565b60405180910390a4610ed16135f0565b6127b561338a565b6127bd61308a565b806000036127de576040516310eb483f60e21b815260040160405180910390fd5b6001600160a01b0383166000908152600c602052604090205481111561281a57600060405163348ee39760e11b8152600401610fa991906157c4565b612823836139f8565b6001600160a01b0383166000908152600c60205260408120805483929061284b90849061544d565b9091555061285a905083613a74565b6001600160a01b0384166000908152600c6020526040812060020191909155600e805483929061288b90849061544d565b90915550506001600160a01b0383166000908152600d6020526040812080548392906128b89084906153cd565b90915550506011546128ca90426153cd565b6001600160a01b0384166000818152600d6020526040902060010191909155826128f381613616565b6040518481527f7956786f9c0614d721d7fd931301980a0399dfb0b38c81bafdfff0597c3290e49060200160405180910390a46001600160a01b0383166000818152600d602052604090819020805460019091015491517f7c2a5998b04a0c7a7d3a1ac3a0add65ac29f4647966110e357c7aa42e5e7ca219261297d928252602082015260400190565b60405180910390a2610f0a6135f0565b600061299761338a565b61299f61308a565b6001600160a01b0383166000908152600d602052604081206001015490036129da576040516365e134c160e11b815260040160405180910390fd5b6129e3836139f8565b506001600160a01b0382166000908152600d6020908152604080832054600c9092528220805491928392612a189084906153cd565b90915550612a27905083613a74565b6001600160a01b0384166000908152600c6020526040812060020191909155600e8054839290612a589084906153cd565b90915550506001600160a01b03831682612a7181613616565b6040518481527f45bc7039355216afb8dd7eb1bc73c6f9ebfcdf5b722d3b99055d05ce03847f6e906020015b60405180910390a46001600160a01b0383166000818152600d6020526040808220828155600101829055517f7c2a5998b04a0c7a7d3a1ac3a0add65ac29f4647966110e357c7aa42e5e7ca2191612afe918190918252602082015260400190565b60405180910390a2610d836135f0565b6000612b1a8383613aa4565b90508015610f0a576040805160c08101825283815260006020808301919091528183018490526001600160a01b038681166060840152600c608084015283518085018552600381526203078360ec1b9281019290925260a083019190915260195492516316369c1960e11b815291921690632c6d383290612b9f90849060040161574f565b600060405180830381600087803b158015612bb957600080fd5b505af1158015612bcd573d6000803e3d6000fd5b5050505050505050565b612be2838383613b99565b610f0a838383613cd3565b6000612bf761308a565b612bff61338a565b6000612c0b8584612370565b6001808201546001600160a01b038816600090815260156020526040902082018054919550929350612c3d919061544d565b81548110612c4d57612c4d615460565b9060005260206000209060030201905060156000866001600160a01b03166001600160a01b03168152602001908152602001600020600101805480612c9457612c946157d2565b600082815260208120600360001990930192830201818155600181018290556002015590556001600160a01b03851684612ccd81613616565b60408051878152602081018790527f3b3e48ba8b2a66a9706f50fc095a4fcb8f4c25da19c7a6aeab3df6a826d5bcd9910160405180910390a450610f456135f0565b6000612d1961308a565b612d2161338a565b6001600160a01b038316600090815260156020908152604080832081518083018352815481526001820180548451818702810187019095528085529194929385840193909290879084015b82821015612dbc5783829060005260206000209060030201604051806060016040529081600082015481526020016001820154815260200160028201548152505081526020019060010190612d6c565b5050505081525050905060005b816020015151811015612e8a57600082602001518281518110612dee57612dee615460565b60200260200101516020015190508084612e0891906153cd565b9350856001600160a01b031685612e1e87613616565b7f3b3e48ba8b2a66a9706f50fc095a4fcb8f4c25da19c7a6aeab3df6a826d5bcd986602001518681518110612e5557612e55615460565b60200260200101516000015185604051612e79929190918252602082015260400190565b60405180910390a450600101612dc9565b506001600160a01b038416600090815260156020526040812081815590612eb46001830182614aa6565b505050610d836135f0565b600080612ecd858585613df5565b9150915081600014612f8a576040805160c08101825285815260006020808301919091528183018590526001600160a01b038881166060840152600d608084015283518085018552600381526203078360ec1b9281019290925260a083019190915260195492516316369c1960e11b815291921690632c6d383290612f5690849060040161574f565b600060405180830381600087803b158015612f7057600080fd5b505af1158015612f84573d6000803e3d6000fd5b50505050505b801561186057601854601a54611860916001600160a01b03918216911683613fa2565b612fb6836139f8565b610f0a838383613ff4565b6000612fcc8361418a565b506001600160a01b0382166000908152601460209081526040808320848452909152812054908190036130235760405162d6360d60e11b81526001600160a01b038416600482015260248101839052604401610fa9565b6001600160a01b03831660008181526014602090815260408083208684529091528120558261305181613616565b6040518481527f5160b630eaa30b010bf18a116a641cab7551c9bafdbd85748da5aaa421753a3c9060200160405180910390a492915050565b6000805160206159838339815191525460ff161561126f5760405163d93c066560e01b815260040160405180910390fd5b6000600f54421115806130ce5750600e54155b156130da575060105490565b601054600f546000906130ed904261544d565b90506000600454826130ff91906153e0565b90506005548160065461311291906153cd565b111561312b57600654600554613128919061544d565b90505b600e54613140670de0b6b3a7640000836153e0565b61314a91906153f7565b61315490846153cd565b949350505050565b306001600160a01b037f00000000000000000000000000000000000000000000000000000000000000001614806131e357507f00000000000000000000000000000000000000000000000000000000000000006001600160a01b03166131d7600080516020615943833981519152546001600160a01b031690565b6001600160a01b031614155b1561126f5760405163703e46dd60e11b815260040160405180910390fd5b6000610ff781612245565b816001600160a01b03166352d1902d6040518163ffffffff1660e01b8152600401602060405180830381865afa925050508015613266575060408051601f3d908101601f19168201909252613263918101906157e8565b60015b61328e57604051634c9c8ce360e01b81526001600160a01b0383166004820152602401610fa9565b60008051602061594383398151915281146132bf57604051632a87526960e21b815260048101829052602401610fa9565b610f0a838361446a565b306001600160a01b037f0000000000000000000000000000000000000000000000000000000000000000161461126f5760405163703e46dd60e11b815260040160405180910390fd5b6001600160a01b0381166000908152600c602052604081206002015461333783613a74565b610d83919061544d565b61334961308a565b600080516020615983833981519152805460ff191660011781557f62e78cea01bee320cd4e420270b5ea74000d11b0c9f74754ebdbfc544b05a25833612523565b7f9b779b17422d0df92223018b32b4d1fa46e071723d6817e2486d003becc55f008054600119016133ce57604051633ee5aeb560e01b815260040160405180910390fd5b60029055565b63ffffffff851660009081526001602052604090206002015461340a57604051633a35c2f960e01b815260040160405180910390fd5b8361342857604051633f4b0e7b60e11b815260040160405180910390fd5b4283101561344957604051631b8e7db960e11b815260040160405180910390fd5b63ffffffff851660009081526002602052604090205484148015613484575063ffffffff851660009081526002602052604090206001015483145b80156134dc5750600260008663ffffffff1663ffffffff1681526020019081526020016000206002016040516134ba9190615801565b604051809103902082826040516134d2929190615877565b6040518091039020145b156134fa57604051630faec0d960e01b815260040160405180910390fd5b6135038561169f565b15613511576135118561202b565b604051806060016040528085815260200184815260200183838080601f016020809104026020016040519081016040528093929190818152602001838380828437600092018290525093909452505063ffffffff8816815260026020818152604092839020855181559085015160018201559184015191925082019061359790826154be565b509050508463ffffffff166135ac6000613616565b7f6e036d1d8b54cadd52175820bedacecb3423ac485fa12c23c87321592bffb775868686866040516135e19493929190615887565b60405180910390a35050505050565b60017f9b779b17422d0df92223018b32b4d1fa46e071723d6817e2486d003becc55f0055565b600081815260208190526040812080549082613631836158a7565b90915550505060009081526020819052604090205490565b6136516144c0565b613659614509565b613661614511565b613669614521565b610ff760008261224f565b61367c6144c0565b610ff76000805160206159238339815191528261224f565b61369c6144c0565b6136c67fd4633f2ee6e04337d84b8278c3b807b75336f88e5e4656e625419ef1258e9af18461224f565b5060049190915560055550565b6136db6144c0565b5062093a8060115542600f55565b6136f16144c0565b60135550601280546001018155600052565b61370b6144c0565b8260000361372c57604051631abc316360e21b815260040160405180910390fd5b8160000361374d57604051638c400e3b60e01b815260040160405180910390fd5b601692909255601755601880546001600160a01b0319166001600160a01b03909216919091179055565b60005b60125461ffff8316106137985760128054600101815560005261377a565b610d83826121f0565b6137ab8282611867565b610ff75760405163e2517d3f60e01b81526001600160a01b038216600482015260248101839052604401610fa9565b6000805160206159838339815191525460ff1661126f57604051638dfc202b60e01b815260040160405180910390fd5b60008061381561308a565b61381d61338a565b6138268761169f565b15613834576138348761202b565b63ffffffff871660009081526001602052604090206002015461386a57604051633a35c2f960e01b815260040160405180910390fd5b63ffffffff871660009081526001602081905260409091200180546138a2576040516359bd390560e11b815260040160405180910390fd5b8054604080516001600160a01b038a16602082015290810187905260009060600160408051601f1981840301815282825280516020918201209083015201604051602081830303815290604052805190602001209050613903868383614531565b6139205760405163582f497d60e11b815260040160405180910390fd5b50505063ffffffff871660009081526003602090815260408083206001600160a01b038a168452909152902054613957908561544d565b63ffffffff8816600090815260016020908152604080832054600383528184206001600160a01b038c16855290925290912086905560ff169250905080156139e6578663ffffffff16856139aa87613616565b7f44a849f31027c891cb7e817e7c8df6b1541f745395ba940daeec387b283f39ab8985876040516139dd939291906158c0565b60405180910390a45b6139ee6135f0565b9550959350505050565b613a0061124d565b6000613a0b82613312565b90508015610ff7576001600160a01b0382166000908152600c602052604081206002018054839290613a3e9084906153cd565b90915550506001600160a01b0382166000908152600b602052604081208054839290613a6b9084906153cd565b90915550505050565b6000670de0b6b3a7640000613a876130bb565b613a9084611a70565b613a9a91906153e0565b610d8391906153f7565b6000613aae61338a565b613ab661308a565b6001600160a01b0383166000908152600d60205260408120600101549003613af1576040516365e134c160e11b815260040160405180910390fd5b6001600160a01b0383166000908152600d6020526040902060010154421015613b2d57604051638a27b5a160e01b815260040160405180910390fd5b506001600160a01b0382166000908152600d60205260409020548015613b9157826001600160a01b031682613b6184613616565b6040518481527f190e540afa0f1919c2b4de58858bd15ec79dde6231ca4b3be2cb0bde4eede0c790602001612a9d565b610d836135f0565b613ba161338a565b613ba961308a565b80600003613bca576040516310eb483f60e21b815260040160405180910390fd5b6001600160a01b0383166000908152600c602052604090208190600101541015613c0a57600160405163348ee39760e11b8152600401610fa991906157c4565b613c13836139f8565b6001600160a01b0383166000908152600c6020526040902081906001016000828254613c3f919061544d565b90915550613c4e905083613a74565b6001600160a01b0384166000908152600c6020526040812060020191909155600e8054839290613c7f90849061544d565b90915550506001600160a01b03831682613c9881613616565b6040518481527f1fa0c4284b9958e80cb828a1863b89b2a40ff9dc4cdc149ac88490bc609a91959060200160405180910390a4610f0a6135f0565b613cdb61308a565b613ce361338a565b80600003613d045760405163f7cb25ad60e01b815260040160405180910390fd5b6001600160a01b038316600090815260156020908152604080832081516060810183528154815292830185905260165490939291820190613d4590426153cd565b905260018084018054808301825560009182526020808320855160039093020191825584015192810192909255604083015160029092019190915583549192508390613d90836158a7565b9190505550846001600160a01b031684613da986613616565b835160408086015181519283526020830189905282820152517e3e50d6f730f8990dc97da68a86fea40220d3baa3f6689325a46beb5f5dc0f69181900360600190a45050610f0a6135f0565b600080613e0061308a565b613e0861338a565b6000613e148685612370565b90508060020154421015613e3b57604051633eb55fa360e01b815260040160405180910390fd5b604080516060810182528254815260018301546020820152600283015491810191909152613e6890612455565b9250828160010154613e7a919061544d565b9150856001600160a01b031685613e9087613616565b7f2f7d1a67d8436fa13ded14bf53703bed5c9b189232cd35530a5ce988bb55e40b87856001015488876002015442613ec8919061544d565b60408051948552602085019390935291830152606082015260800160405180910390a46001600160a01b0386166000908152601560205260409020600190810180549091613f159161544d565b81548110613f2557613f25615460565b9060005260206000209060030201905060156000876001600160a01b03166001600160a01b03168152602001908152602001600020600101805480613f6c57613f6c6157d2565b6000828152602081206003600019909301928302018181556001810182905560020155905550613f9a6135f0565b935093915050565b604080516001600160a01b038416602482015260448082018490528251808303909101815260649091019091526020810180516001600160e01b031663a9059cbb60e01b179052610f0a908490614547565b8060000361401557604051631c26cb0b60e01b815260040160405180910390fd5b6001600160a01b0383166000908152600b602052604090205481111561404e5760405163043f8ee560e41b815260040160405180910390fd5b6001600160a01b0383166000908152600b60205260408120805483929061407690849061544d565b9091555061408590508361418a565b600061408f611ff2565b90508161409b82613777565b60010160008282546140ad91906153cd565b90915550600090506140bf85836145aa565b9050826140cf826001018661470c565b60010160008282546140e191906153cd565b925050819055508261411a60128461ffff168154811061410357614103615460565b90600052602060002090600402016003018661470c565b600101600082825461412c91906153cd565b90915550506001600160a01b038516846141466000613616565b6040805161ffff87168152602081018890527f6c16ad26e00ab1076e5532c6abddf1578121ec478b3129e556e064ff18de6229910160405180910390a45050505050565b60005b6001600160a01b038216600090815260146020526040902060010154811015610ff7576001600160a01b03821660009081526014602052604081206001018054839081106141dd576141dd615460565b600091825260209091206002909102018054601280549293509161ffff90911690811061420c5761420c615460565b600091825260209091206004909102015460ff16156144615760005b600182015481101561432457600082600101828154811061424b5761424b615460565b9060005260206000209060020201600001549050600083600101838154811061427657614276615460565b60009182526020822060016002909202010154855460128054929450670de0b6b3a764000092909161ffff169081106142b1576142b1615460565b906000526020600020906004020160020154836142ce91906153e0565b6142d891906153f7565b6001600160a01b03881660009081526014602090815260408083208784529091528120805492935083929091906143109084906153cd565b909155505060019093019250614228915050565b506001600160a01b038316600090815260146020526040812060019081015461434d919061544d565b6001600160a01b03851660009081526014602052604090206001018054919250908290811061437e5761437e615460565b906000526020600020906002020160146000866001600160a01b03166001600160a01b0316815260200190815260200160002060010184815481106143c5576143c5615460565b600091825260209091208254600290920201805461ffff191661ffff909216919091178155600180830180546143fe9284019190614ac7565b5050506001600160a01b038416600090815260146020526040902060010180548061442b5761442b6157d2565b600082815260208120600260001990930192830201805461ffff19168155906144576001830182614b27565b5050905550505050565b5060010161418d565b614473826147a7565b6040516001600160a01b038316907fbc7cd75a20ee27fd9adebab32041f755214dbc6bffa90cc0225b39da2e5c2d3b90600090a28051156144b857610f0a828261480c565b610ff7614882565b7ff0c57e16840df040f15088dc2f81fe391c3923bec73e23a9662efc9c229c6a0054600160401b900460ff1661126f57604051631afcd79f60e31b815260040160405180910390fd5b61126f6144c0565b6145196144c0565b61126f6148a1565b6145296144c0565b61126f6148a9565b60008261453e85846148ca565b14949350505050565b600061455c6001600160a01b0384168361490d565b9050805160001415801561458157508080602001905181019061457f91906158e4565b155b15610f0a57604051635274afe760e01b81526001600160a01b0384166004820152602401610fa9565b6000805b6001600160a01b03841660009081526014602052604090206001015481101561466a576001600160a01b0384166000908152601460205260409020600101805461ffff851691908390811061460557614605615460565b600091825260209091206002909102015461ffff1603614662576001600160a01b038416600090815260146020526040902060010180548290811061464c5761464c615460565b9060005260206000209060020201915050610d83565b6001016145ae565b506001600160a01b038316600090815260146020526040902060019081018054918201808255849190839081106146a3576146a3615460565b60009182526020808320600292909202909101805461ffff191661ffff94909416939093179092556001600160a01b03861681526014909152604090206001018054829081106146f5576146f5615460565b906000526020600020906002020191505092915050565b6000805b835481101561475d578284828154811061472c5761472c615460565b906000526020600020906002020160000154036147555783818154811061464c5761464c615460565b600101614710565b508254600181018085556000859052839085908390811061478057614780615460565b9060005260206000209060020201600001819055508381815481106146f5576146f5615460565b806001600160a01b03163b6000036147dd57604051634c9c8ce360e01b81526001600160a01b0382166004820152602401610fa9565b60008051602061594383398151915280546001600160a01b0319166001600160a01b0392909216919091179055565b6060600080846001600160a01b0316846040516148299190615906565b600060405180830381855af49150503d8060008114614864576040519150601f19603f3d011682016040523d82523d6000602084013e614869565b606091505b509150915061487985838361491b565b95945050505050565b341561126f5760405163b398979f60e01b815260040160405180910390fd5b6135f06144c0565b6148b16144c0565b600080516020615983833981519152805460ff19169055565b600081815b8451811015614905576148fb828683815181106148ee576148ee615460565b6020026020010151614977565b91506001016148cf565b509392505050565b6060610f45838360006149a6565b6060826149305761492b82614a43565b610f45565b815115801561494757506001600160a01b0384163b155b1561497057604051639996b31560e01b81526001600160a01b0385166004820152602401610fa9565b5080610f45565b6000818310614993576000828152602084905260409020610f45565b6000838152602083905260409020610f45565b6060814710156149cb5760405163cd78605960e01b8152306004820152602401610fa9565b600080856001600160a01b031684866040516149e79190615906565b60006040518083038185875af1925050503d8060008114614a24576040519150601f19603f3d011682016040523d82523d6000602084013e614a29565b606091505b5091509150614a3986838361491b565b9695505050505050565b805115614a535780518082602001fd5b604051630a12f52160e11b815260040160405180910390fd5b508054614a7890615419565b6000825580601f10614a88575050565b601f016020900490600052602060002090810190610f5f9190614b48565b5080546000825560030290600052602060002090810190610f5f9190614b5d565b828054828255906000526020600020906002028101928215614b175760005260206000209160020282015b82811115614b1757825482556001808401549083015560029283019290910190614af2565b50614b23929150614b7f565b5090565b5080546000825560020290600052602060002090810190610f5f9190614b7f565b5b80821115614b235760008155600101614b49565b5b80821115614b23576000808255600182018190556002820155600301614b5e565b5b80821115614b235760008082556001820155600201614b80565b600060208284031215614bac57600080fd5b81356001600160e01b031981168114610f4557600080fd5b803561ffff81168114614bd657600080fd5b919050565b600060208284031215614bed57600080fd5b610f4582614bc4565b602080825282518282018190526000919060409081850190868401855b82811015614c3857815180518552860151868501529284019290850190600101614c13565b5091979650505050505050565b600060208284031215614c5757600080fd5b5035919050565b63ffffffff81168114610f5f57600080fd5b6001600160a01b0381168114610f5f57600080fd5b60008060408385031215614c9857600080fd5b8235614ca381614c5e565b91506020830135614cb381614c70565b809150509250929050565b600060208284031215614cd057600080fd5b8135610f4581614c70565b602080825282518282018190526000919060409081850190868401855b82811015614c385781518051855286810151878601528501518585015260609093019290850190600101614cf8565b60008060408385031215614d3a57600080fd5b823591506020830135614cb381614c70565b60008060408385031215614d5f57600080fd5b8235614d6a81614c70565b946020939093013593505050565b634e487b7160e01b600052604160045260246000fd5b60405160c081016001600160401b0381118282101715614db057614db0614d78565b60405290565b604051606081016001600160401b0381118282101715614db057614db0614d78565b604051601f8201601f191681016001600160401b0381118282101715614e0057614e00614d78565b604052919050565b803560048110614bd657600080fd5b600082601f830112614e2857600080fd5b81356001600160401b03811115614e4157614e41614d78565b614e54601f8201601f1916602001614dd8565b818152846020838601011115614e6957600080fd5b816020850160208301376000918101602001919091529392505050565b600060208284031215614e9857600080fd5b81356001600160401b0380821115614eaf57600080fd5b9083019060c08286031215614ec357600080fd5b614ecb614d8e565b82358152614edb60208401614e08565b6020820152604083013560408201526060830135614ef881614c70565b6060820152608083013560ff81168114614f1157600080fd5b608082015260a083013582811115614f2857600080fd5b614f3487828601614e17565b60a08301525095945050505050565b600060208284031215614f5557600080fd5b8135610f4581614c5e565b60005b83811015614f7b578181015183820152602001614f63565b50506000910152565b60008151808452614f9c816020860160208601614f60565b601f01601f19169290920160200192915050565b8381528260208201526060604082015260006148796060830184614f84565b60008060408385031215614fe257600080fd5b8235614fed81614c70565b915060208301356001600160401b0381111561500857600080fd5b61501485828601614e17565b9150509250929050565b60008083601f84011261503057600080fd5b5081356001600160401b0381111561504757600080fd5b60208301915083602082850101111561505f57600080fd5b9250929050565b60008060008060006080868803121561507e57600080fd5b853561508981614c5e565b9450602086013593506040860135925060608601356001600160401b038111156150b257600080fd5b6150be8882890161501e565b969995985093965092949392505050565b60008060008060008060a087890312156150e857600080fd5b86356150f381614c5e565b955061510160208801614e08565b9450604087013593506060870135925060808701356001600160401b0381111561512a57600080fd5b61513689828a0161501e565b979a9699509497509295939492505050565b602081526000610f456020830184614f84565b60008060006060848603121561517057600080fd5b833561517b81614c70565b925061518960208501614bc4565b9150604084013590509250925092565b634e487b7160e01b600052602160045260246000fd5b600481106151cd57634e487b7160e01b600052602160045260246000fd5b9052565b6151db81866151af565b836020820152826040820152608060608201526000614a396080830184614f84565b60008060008060008060c0878903121561521657600080fd5b863561522181614c70565b9550602087013561523181614c70565b9450604087013561524181614c70565b9350606087013561525181614c70565b9598949750929560808101359460a0909101359350915050565b6000602080838503121561527e57600080fd5b82516001600160401b038082111561529557600080fd5b90840190606082870312156152a957600080fd5b6152b1614db6565b82516152bc81614c5e565b815282840151848201526040830151828111156152d857600080fd5b80840193505086601f8401126152ed57600080fd5b8251828111156152ff576152ff614d78565b8060051b9250615310858401614dd8565b818152928401850192858101908985111561532a57600080fd5b948601945b848610156153485785518252948601949086019061532f565b60408401525090979650505050505050565b60006020828403121561536c57600080fd5b604051602081018181106001600160401b038211171561538e5761538e614d78565b6040529151825250919050565b6000602082840312156153ad57600080fd5b610f45838361535a565b634e487b7160e01b600052601160045260246000fd5b80820180821115610d8357610d836153b7565b8082028115828204841417610d8357610d836153b7565b60008261541457634e487b7160e01b600052601260045260246000fd5b500490565b600181811c9082168061542d57607f821691505b6020821081036121ea57634e487b7160e01b600052602260045260246000fd5b81810381811115610d8357610d836153b7565b634e487b7160e01b600052603260045260246000fd5b601f821115610f0a576000816000526020600020601f850160051c8101602086101561549f5750805b601f850160051c820191505b81811015611a68578281556001016154ab565b81516001600160401b038111156154d7576154d7614d78565b6154eb816154e58454615419565b84615476565b602080601f83116001811461552057600084156155085750858301515b600019600386901b1c1916600185901b178555611a68565b600085815260208120601f198616915b8281101561554f57888601518255948401946001909101908401615530565b508582101561556d5787850151600019600388901b60f8161c191681555b5050505050600190811b01905550565b81835281816020850137506000828201602090810191909152601f909101601f19169091010190565b6155b081876151af565b8460208201528360408201526080606082015260006155d360808301848661557d565b979650505050505050565b8181036155e9575050565b6155f38254615419565b6001600160401b0381111561560a5761560a614d78565b615618816154e58454615419565b6000601f82116001811461564c57600083156156345750848201545b600019600385901b1c1916600184901b178455611860565b600085815260209020601f19841690600086815260209020845b838110156156865782860154825560019586019590910190602001615666565b508583101561556d5793015460001960f8600387901b161c19169092555050600190811b01905550565b8381526000602084602084015260606040840152600084546156d181615419565b80606087015260806001808416600081146156f3576001811461570f5761573f565b60ff19851660808a0152608084151560051b8a0101955061573f565b89600052602060002060005b858110156157365781548b820186015290830190880161571b565b8a016080019650505b50939a9950505050505050505050565b60208152815160208201526000602083015161576e60408401826151af565b506040830151606083015260018060a01b03606084015116608083015260ff60808401511660a083015260a083015160c08084015261315460e0840182614f84565b82815260408101610f4560208301846151af565b60208101610d8382846151af565b634e487b7160e01b600052603160045260246000fd5b6000602082840312156157fa57600080fd5b5051919050565b600080835461580f81615419565b60018281168015615827576001811461583c5761586b565b60ff198416875282151583028701945061586b565b8760005260208060002060005b858110156158625781548a820152908401908201615849565b50505082870194505b50929695505050505050565b8183823760009101908152919050565b848152836020820152606060408201526000614a3960608301848661557d565b6000600182016158b9576158b96153b7565b5060010190565b6001600160a01b0384168152602081018390526060810161315460408301846151af565b6000602082840312156158f657600080fd5b81518015158114610f4557600080fd5b60008251615918818460208701614f60565b919091019291505056fe009ab23a1010d07a0450a1fbea1d84169b57d2c2273b54bff0f20c3e90199b5d360894a13ba1a3210667c828492db98dca3e2076cc3735a920a3ca505d382bbc02dd7bc7dec4dceedda775e58dd541e08a116c6c53815c0bd028192f7b626800cd5ed15c6e187e77e9aee88184c21f4f2182ab5827cb3b7e07fbedcd63f03300a2646970667358221220ed12a48751f6522a0233c56ca64c363cc3d5e1eeedcef05d95c6076e562dcba564736f6c63430008160033",
  "devdoc": {
    "errors": {
      "AccessControlBadConfirmation()": [
        {
          "details": "The caller of a function is not the expected one. NOTE: Don't confuse with {AccessControlUnauthorizedAccount}."
        }
      ],
      "AccessControlUnauthorizedAccount(address,bytes32)": [
        {
          "details": "The `account` is missing a role."
        }
      ],
      "AddressEmptyCode(address)": [
        {
          "details": "There's no code at `target` (it is not a contract)."
        }
      ],
      "AddressInsufficientBalance(address)": [
        {
          "details": "The ETH balance of the account is not enough to perform the operation."
        }
      ],
      "ERC1967InvalidImplementation(address)": [
        {
          "details": "The `implementation` of the proxy is invalid."
        }
      ],
      "ERC1967NonPayable()": [
        {
          "details": "An upgrade function sees `msg.value > 0` that may be lost."
        }
      ],
      "EnforcedPause()": [
        {
          "details": "The operation failed because the contract is paused."
        }
      ],
      "ExpectedPause()": [
        {
          "details": "The operation failed because the contract is not paused."
        }
      ],
      "FailedInnerCall()": [
        {
          "details": "A call to an address target failed. The target may have reverted."
        }
      ],
      "InvalidInitialization()": [
        {
          "details": "The contract is already initialized."
        }
      ],
      "NotInitializing()": [
        {
          "details": "The contract is not initializing."
        }
      ],
      "ReentrancyGuardReentrantCall()": [
        {
          "details": "Unauthorized reentrant call."
        }
      ],
      "SafeERC20FailedOperation(address)": [
        {
          "details": "An operation with an ERC20 token failed."
        }
      ],
      "UUPSUnauthorizedCallContext()": [
        {
          "details": "The call is from an unauthorized context."
        }
      ],
      "UUPSUnsupportedProxiableUUID(bytes32)": [
        {
          "details": "The storage `slot` is unsupported as a UUID."
        }
      ]
    },
    "events": {
      "Initialized(uint64)": {
        "details": "Triggered when the contract has been initialized or reinitialized."
      },
      "Paused(address)": {
        "details": "Emitted when the pause is triggered by `account`."
      },
      "RoleAdminChanged(bytes32,bytes32,bytes32)": {
        "details": "Emitted when `newAdminRole` is set as ``role``'s admin role, replacing `previousAdminRole` `DEFAULT_ADMIN_ROLE` is the starting admin for all roles, despite {RoleAdminChanged} not being emitted signaling this."
      },
      "RoleGranted(bytes32,address,address)": {
        "details": "Emitted when `account` is granted `role`. `sender` is the account that originated the contract call, an admin role bearer except when using {AccessControl-_setupRole}."
      },
      "RoleRevoked(bytes32,address,address)": {
        "details": "Emitted when `account` is revoked `role`. `sender` is the account that originated the contract call:   - if using `revokeRole`, it is the admin role bearer   - if using `renounceRole`, it is the role bearer (i.e. `account`)"
      },
      "Unpaused(address)": {
        "details": "Emitted when the pause is lifted by `account`."
      },
      "Upgraded(address)": {
        "details": "Emitted when the implementation is upgraded."
      }
    },
    "kind": "dev",
    "methods": {
      "calculateVestingOrderAmount(address,uint256)": {
        "params": {
          "_user": "User address"
        }
      },
      "canUpdateRoot(uint32)": {
        "params": {
          "_distributionId": "The distribution id."
        },
        "returns": {
          "_0": "Boolean `true` if the active root can be updated to the proposed root, else `false`."
        }
      },
      "createDistribution(uint32,uint8,bytes32,uint256,bytes)": {
        "params": {
          "_distributionId": "The distribution id.",
          "_ipfsCid": "An IPFS CID pointing to the Merkle tree data. (optional, can be 0x0) Reverts if the distribution with the same id is already exists or Merkle root params are invalid. Reverts if the token is not supported for distribution. Currently only $ORDER and es$ORDER tokens are supported.",
          "_merkleRoot": "The Merkle root.",
          "_startTimestamp": "The timestamp when this Merkle root become active.",
          "_token": "The type of the token. Currently only $ORDER token and es$ORDER (record based) are supported."
        }
      },
      "getClaimed(uint32,address)": {
        "params": {
          "_distributionId": "The distribution id.",
          "_user": "The address of the user."
        },
        "returns": {
          "_0": "The amount tokens claimed so far by that user."
        }
      },
      "getDistribution(uint32)": {
        "params": {
          "_distributionId": "The distribution id."
        },
        "returns": {
          "ipfsCid": "       An IPFS CID pointing to the Merkle tree data (optional, can be 0x0).",
          "merkleRoot": "    The Merkle root.",
          "startTimestamp": "Timestamp when this Merkle root become active.",
          "token": "         The type of the distributed token. Currently only $ORDER token and es$ORDER (record based) are supported."
        }
      },
      "getProposedRoot(uint32)": {
        "params": {
          "_distributionId": "The distribution id."
        },
        "returns": {
          "ipfsCid": "       An IPFS CID pointing to the Merkle tree data (optional, can be 0x0).",
          "merkleRoot": "    The proposed Merkle root.",
          "startTimestamp": "Timestamp when this Merkle root become active."
        }
      },
      "getRoleAdmin(bytes32)": {
        "details": "Returns the admin role that controls `role`. See {grantRole} and {revokeRole}. To change a role's admin, use {_setRoleAdmin}."
      },
      "grantRole(bytes32,address)": {
        "details": "Grants `role` to `account`. If `account` had not been already granted `role`, emits a {RoleGranted} event. Requirements: - the caller must have ``role``'s admin role. May emit a {RoleGranted} event."
      },
      "hasPendingRoot(uint32)": {
        "params": {
          "_distributionId": "The distribution id."
        },
        "returns": {
          "_0": "Boolean `true` if there is a proposed root for given distribution waiting to become active, else `false`."
        }
      },
      "hasRole(bytes32,address)": {
        "details": "Returns `true` if `account` has been granted `role`."
      },
      "isDistributionRecordBased(uint32)": {
        "params": {
          "_distributionId": "The distribution id."
        },
        "returns": {
          "_0": "Boolean `true` if the distribution is record based, else `false`."
        }
      },
      "paused()": {
        "details": "Returns true if the contract is paused, and false otherwise."
      },
      "proposeRoot(uint32,bytes32,uint256,bytes)": {
        "params": {
          "_distributionId": "The distribution id.",
          "_ipfsCid": "An IPFS CID pointing to the Merkle tree data.  Reverts if the proposed root is bytes32(0).  Reverts if the proposed startTimestamp is in the past.  Reverts if the proposed root is already proposed.",
          "_merkleRoot": "The Merkle root.",
          "_startTimestamp": "The timestamp when this Merkle root become active"
        }
      },
      "proxiableUUID()": {
        "details": "Implementation of the ERC1822 {proxiableUUID} function. This returns the storage slot used by the implementation. It is used to validate the implementation's compatibility when performing an upgrade. IMPORTANT: A proxy pointing at a proxiable contract should not be considered proxiable itself, because this risks bricking a proxy that upgrades to it, by delegating to itself until out of gas. Thus it is critical that this function revert if invoked through a proxy. This is guaranteed by the `notDelegated` modifier."
      },
      "renounceRole(bytes32,address)": {
        "details": "Revokes `role` from the calling account. Roles are often managed via {grantRole} and {revokeRole}: this function's purpose is to provide a mechanism for accounts to lose their privileges if they are compromised (such as when a trusted device is misplaced). If the calling account had been revoked `role`, emits a {RoleRevoked} event. Requirements: - the caller must be `callerConfirmation`. May emit a {RoleRevoked} event."
      },
      "revokeRole(bytes32,address)": {
        "details": "Revokes `role` from `account`. If `account` had been granted `role`, emits a {RoleRevoked} event. Requirements: - the caller must have ``role``'s admin role. May emit a {RoleRevoked} event."
      },
      "supportsInterface(bytes4)": {
        "details": "See {IERC165-supportsInterface}."
      },
      "updateRoot(uint32)": {
        "params": {
          "_distributionId": "The distribution id.  Reverts if root updates are paused.  Reverts if the proposed root is bytes32(0).  Reverts if the waiting period for the proposed root has not elapsed."
        }
      },
      "upgradeToAndCall(address,bytes)": {
        "custom:oz-upgrades-unsafe-allow-reachable": "delegatecall",
        "details": "Upgrade the implementation of the proxy to `newImplementation`, and subsequently execute the function call encoded in `data`. Calls {_authorizeUpgrade}. Emits an {Upgraded} event."
      }
    },
    "version": 1
  },
  "userdoc": {
    "events": {
      "BatchPreparedToClaim(uint16)": {
        "notice": "Emitted when admin marks batch as claimable"
      },
      "BatchValorToUsdcRateIsFixed(uint16,uint256)": {
        "notice": "Emitted when admin fixes valor to USDC rate for the batch"
      },
      "DailyUsdcNetFeeRevenueUpdated(uint256,uint256,uint256,uint256,uint256)": {
        "notice": "Emmited, when the daily USDC net fee revenue has been updated"
      },
      "DistributionCreated(uint256,uint32,uint8,bytes32,uint256,bytes)": {
        "notice": "Emitted when a new distribution is created by the ROOT_UPDATER_ROLE from Ledger chain."
      },
      "EsOrderUnstake(uint256,uint256,address,uint256)": {
        "notice": "Emitted when user unstakes es$ORDER tokens"
      },
      "OrderUnstakeAmount(address,uint256,uint256)": {
        "notice": "Emitted for _createOrderUnstakeRequest, _cancelOrderUnstakeRequest and _withdrawOrder functions"
      },
      "OrderUnstakeCancelled(uint256,uint256,address,uint256)": {
        "notice": "Emitted when user cancels unstake $ORDER tokens request"
      },
      "OrderUnstakeRequested(uint256,uint256,address,uint256)": {
        "notice": "Emitted when user requests unstake $ORDER tokens"
      },
      "OrderWithdrawn(uint256,uint256,address,uint256)": {
        "notice": "Emitted when user withdraws $ORDER tokens"
      },
      "RewardsClaimed(uint256,uint256,uint32,address,uint256,uint8)": {
        "notice": "Emitted when a user claims rewards from Vault chains."
      },
      "RootProposed(uint256,uint32,bytes32,uint256,bytes)": {
        "notice": "Emitted when a new Merkle root is proposed by the ROOT_UPDATER_ROLE from Ledger chain."
      },
      "RootUpdated(uint256,uint32,bytes32,uint256,bytes)": {
        "notice": "Emitted when proposed Merkle root becomes active by the ROOT_UPDATER_ROLE from Ledger chain."
      },
      "Staked(uint256,uint256,address,uint256,uint8)": {
        "notice": "Emitted when user stakes $ORDER or es$ORDER tokens"
      },
      "UsdcRevenueClaimed(uint256,uint256,address,uint256)": {
        "notice": "Emitted when user claim collected USDC revenue from chain"
      },
      "ValorRedeemed(uint256,uint256,address,uint16,uint256)": {
        "notice": "Emitted when user redeem valor for the chain; batchId is the current batch"
      }
    },
    "kind": "user",
    "methods": {
      "TREASURE_UPDATER_ROLE()": {
        "notice": "The role, that is allowed to update USDC net fee revenue"
      },
      "accValorPerShareScaled()": {
        "notice": "The accrued valor share, scaled to `ACC_VALOR_PER_SHARE_PRECISION`"
      },
      "batchPreparedToClaim(uint16)": {
        "notice": "Admin marks batch as claimable when USDC is provided for the batch         This also reduce total valor amount and total USDC in treasure         This reduce shouldn't affect the valor to USDC rate because valor and USDC amounts are reduced proportionally"
      },
      "calculateVestingOrderAmount(address,uint256)": {
        "notice": "Return amount of $ORDER tokens for withdraw at the moment"
      },
      "canUpdateRoot(uint32)": {
        "notice": "Returns true if there is a proposed root for given distribution waiting to become active         and the start time has passed."
      },
      "collectedValor(address)": {
        "notice": "The amount of valor token, that has been collected by the user"
      },
      "createDistribution(uint32,uint8,bytes32,uint256,bytes)": {
        "notice": "Create a new distribution with the given token and propose Merkle root for it.         Locked for ROOT_UPDATER_ROLE.         Once created, distribution token can't be changed."
      },
      "dailyUsdcNetFeeRevenue(uint256)": {
        "notice": "CeFi updates the daily USDC net fee revenue          Function reverts, if the function is called too early - less than 12 hours after the last update          to prevent accidental double updates          Function updates the totalUsdcInTreasure, valorToUsdcRateScaled"
      },
      "fixBatchValorToUsdcRate(uint16)": {
        "notice": "CeFi fixes valor to USDC rate for the batch after providing daily USDC net fee amount after batch is finished         This suppose to avoid the last day gap in USDC treasure amount         that can lead to set incorrect valor to USDC rate for the batch         batch.fixedValorToUsdcRateScaled will be set to current valorToUsdcRateScaled"
      },
      "getBatchChainedValorAmount(uint16)": {
        "notice": "Returns the amount of valor that user can redeem for the chain"
      },
      "getBatchInfo(uint16)": {
        "notice": "Returns the batch structure by id without chained valor amount"
      },
      "getClaimed(uint32,address)": {
        "notice": "Get the tokens amount claimed so far for distribution by a given user."
      },
      "getCurrentBatchId()": {
        "notice": "Calculate and returns the current batch id based on the current timestamp, start timestamp and batch duration"
      },
      "getDistribution(uint32)": {
        "notice": "Get the active Merkle root for distribution id and associated parameters.         If distribution has proposed root and it's start timestamp has passed, proposed root will be returned.         It allows to reduce probability of collision when user claiming rewards from the old Merkle root.         Because it will be updated at the beginning of the next claimReward call and become active from that moment.         So, user will actually obtain the rewards from the proposed root and have to provide amount and proof for it."
      },
      "getOrderAvailableToWithdraw(address)": {
        "notice": "Get the amount of $ORDER ready to be withdrawn by `_user`"
      },
      "getProposedRoot(uint32)": {
        "notice": "Get the proposed Merkle root for token and associated parameters.         When the proposed root become active, it will be removed from the proposedRoots mapping.         So, this function will return non-zero values only if the proposed root is pending."
      },
      "getStakingInfo(address)": {
        "notice": "Get the staking balances for a given _user"
      },
      "getUsdcAmountForBatch(uint16)": {
        "notice": "Returns the amount of valor that user can redeem for the chain"
      },
      "getUserRedeemedValorAmountForBatchAndChain(address,uint16,uint256)": {
        "notice": "Returns the amount of valor that user redeemed for the chain in the batch"
      },
      "getUserValor(address)": {
        "notice": "Get the pending amount of valor up to now for a given _user"
      },
      "hasPendingRoot(uint32)": {
        "notice": "Returns true if there is a proposed root for given distribution waiting to become active.         This is the case if the proposed root for given distribution is not zero."
      },
      "isDistributionRecordBased(uint32)": {
        "notice": "Check if the distribution is record based. Currently only es$ORDER token is record based."
      },
      "lastUsdcNetFeeRevenueUpdateTimestamp()": {
        "notice": "The timestamp of the last update of the USDC net fee revenue"
      },
      "lastValorUpdateTimestamp()": {
        "notice": "The last time that the valor variables were updated"
      },
      "ledgerRecvFromVault((uint256,uint8,uint256,address,uint8,bytes))": {
        "notice": "Receives message from OCCAdapter and dispatch it"
      },
      "maximumValorEmission()": {
        "notice": "The maximum amount of valor token, that can be emitted"
      },
      "orderCollector()": {
        "notice": "Address, that will collect unvested $ORDER when user prematurely withdraws"
      },
      "pause()": {
        "notice": "Pause external functionality"
      },
      "proposeRoot(uint32,bytes32,uint256,bytes)": {
        "notice": "Set the proposed root parameters.         Locked for ROOT_UPDATER_ROLE.         Allows to update proposed root for token before startTimestamp passed.         If startTimestamp passed, proposed root will be propogated to active root."
      },
      "setValorPerSecond(uint256)": {
        "notice": "Allow the owner to update the valorPerSecond"
      },
      "srcChainIdToEventId(uint256)": {
        "notice": "Mapping of srcChainId => event id"
      },
      "startTimestamp()": {
        "notice": "The timestamp when the first batch starts"
      },
      "totalStakedAmount()": {
        "notice": "Total amount of staken $ORDER and es$ORDER"
      },
      "totalUsdcInTreasure()": {
        "notice": "The total amount of USDC, that has been collected in the treasure"
      },
      "totalValorAmount()": {
        "notice": "The total amount of valor token, that is currently in circulation"
      },
      "totalValorEmitted()": {
        "notice": "The total amount of valor token, that has been emitted"
      },
      "unpause()": {
        "notice": "Unpause external functionality"
      },
      "unstakeLockPeriod()": {
        "notice": "Period of time, that user have to wait after unstake request, before he can withdraw tokens"
      },
      "updateRoot(uint32)": {
        "notice": "Propagate proposed root to the distribution if it can be updated.         Non-reeentrant guard is disabled because this function is called from claimRewards."
      },
      "updateValorVars()": {
        "notice": "Calculate and update valor per share changed over time"
      },
      "userTotalStakingBalance(address)": {
        "notice": "Get the total amount of $ORDER and es$ORDER staked by `_user`"
      },
      "valorPerSecond()": {
        "notice": "The amount of valor token, that will be emitted per second"
      },
      "valorToUsdcRateScaled()": {
        "notice": "The current rate of valor to USDC"
      },
      "vestingLinearPeriod()": {
        "notice": "Period after lock period, during which vesting $ORDER amount linearly increase from 50% to 100%"
      },
      "vestingLockPeriod()": {
        "notice": "Lock period where user can not withdraw vested $ORDER"
      }
    },
    "version": 1
  },
  "storageLayout": {
    "storage": [
      {
        "astId": 5251,
        "contract": "contracts/OmnichainLedgerV1.sol:OmnichainLedgerV1",
        "label": "srcChainIdToEventId",
        "offset": 0,
        "slot": "0",
        "type": "t_mapping(t_uint256,t_uint256)"
      },
      {
        "astId": 5434,
        "contract": "contracts/OmnichainLedgerV1.sol:OmnichainLedgerV1",
        "label": "activeDistributions",
        "offset": 0,
        "slot": "1",
        "type": "t_mapping(t_uint32,t_struct(Distribution)5428_storage)"
      },
      {
        "astId": 5440,
        "contract": "contracts/OmnichainLedgerV1.sol:OmnichainLedgerV1",
        "label": "proposedRoots",
        "offset": 0,
        "slot": "2",
        "type": "t_mapping(t_uint32,t_struct(MerkleTree)5419_storage)"
      },
      {
        "astId": 5447,
        "contract": "contracts/OmnichainLedgerV1.sol:OmnichainLedgerV1",
        "label": "claimedAmounts",
        "offset": 0,
        "slot": "3",
        "type": "t_mapping(t_uint32,t_mapping(t_address,t_uint256))"
      },
      {
        "astId": 7966,
        "contract": "contracts/OmnichainLedgerV1.sol:OmnichainLedgerV1",
        "label": "valorPerSecond",
        "offset": 0,
        "slot": "4",
        "type": "t_uint256"
      },
      {
        "astId": 7969,
        "contract": "contracts/OmnichainLedgerV1.sol:OmnichainLedgerV1",
        "label": "maximumValorEmission",
        "offset": 0,
        "slot": "5",
        "type": "t_uint256"
      },
      {
        "astId": 7972,
        "contract": "contracts/OmnichainLedgerV1.sol:OmnichainLedgerV1",
        "label": "totalValorEmitted",
        "offset": 0,
        "slot": "6",
        "type": "t_uint256"
      },
      {
        "astId": 7975,
        "contract": "contracts/OmnichainLedgerV1.sol:OmnichainLedgerV1",
        "label": "totalValorAmount",
        "offset": 0,
        "slot": "7",
        "type": "t_uint256"
      },
      {
        "astId": 7978,
        "contract": "contracts/OmnichainLedgerV1.sol:OmnichainLedgerV1",
        "label": "lastUsdcNetFeeRevenueUpdateTimestamp",
        "offset": 0,
        "slot": "8",
        "type": "t_uint256"
      },
      {
        "astId": 7981,
        "contract": "contracts/OmnichainLedgerV1.sol:OmnichainLedgerV1",
        "label": "totalUsdcInTreasure",
        "offset": 0,
        "slot": "9",
        "type": "t_uint256"
      },
      {
        "astId": 7984,
        "contract": "contracts/OmnichainLedgerV1.sol:OmnichainLedgerV1",
        "label": "valorToUsdcRateScaled",
        "offset": 0,
        "slot": "10",
        "type": "t_uint256"
      },
      {
        "astId": 7989,
        "contract": "contracts/OmnichainLedgerV1.sol:OmnichainLedgerV1",
        "label": "collectedValor",
        "offset": 0,
        "slot": "11",
        "type": "t_mapping(t_address,t_uint256)"
      },
      {
        "astId": 7129,
        "contract": "contracts/OmnichainLedgerV1.sol:OmnichainLedgerV1",
        "label": "userStakingInfo",
        "offset": 0,
        "slot": "12",
        "type": "t_mapping(t_address,t_struct(StakingInfo)7124_storage)"
      },
      {
        "astId": 7139,
        "contract": "contracts/OmnichainLedgerV1.sol:OmnichainLedgerV1",
        "label": "userPendingUnstake",
        "offset": 0,
        "slot": "13",
        "type": "t_mapping(t_address,t_struct(PendingUnstake)7134_storage)"
      },
      {
        "astId": 7142,
        "contract": "contracts/OmnichainLedgerV1.sol:OmnichainLedgerV1",
        "label": "totalStakedAmount",
        "offset": 0,
        "slot": "14",
        "type": "t_uint256"
      },
      {
        "astId": 7145,
        "contract": "contracts/OmnichainLedgerV1.sol:OmnichainLedgerV1",
        "label": "lastValorUpdateTimestamp",
        "offset": 0,
        "slot": "15",
        "type": "t_uint256"
      },
      {
        "astId": 7148,
        "contract": "contracts/OmnichainLedgerV1.sol:OmnichainLedgerV1",
        "label": "accValorPerShareScaled",
        "offset": 0,
        "slot": "16",
        "type": "t_uint256"
      },
      {
        "astId": 7151,
        "contract": "contracts/OmnichainLedgerV1.sol:OmnichainLedgerV1",
        "label": "unstakeLockPeriod",
        "offset": 0,
        "slot": "17",
        "type": "t_uint256"
      },
      {
        "astId": 6193,
        "contract": "contracts/OmnichainLedgerV1.sol:OmnichainLedgerV1",
        "label": "batches",
        "offset": 0,
        "slot": "18",
        "type": "t_array(t_struct(Batch)6189_storage)dyn_storage"
      },
      {
        "astId": 6196,
        "contract": "contracts/OmnichainLedgerV1.sol:OmnichainLedgerV1",
        "label": "startTimestamp",
        "offset": 0,
        "slot": "19",
        "type": "t_uint256"
      },
      {
        "astId": 6217,
        "contract": "contracts/OmnichainLedgerV1.sol:OmnichainLedgerV1",
        "label": "userRevenue",
        "offset": 0,
        "slot": "20",
        "type": "t_mapping(t_address,t_struct(UserRevenueRecord)6212_storage)"
      },
      {
        "astId": 8138,
        "contract": "contracts/OmnichainLedgerV1.sol:OmnichainLedgerV1",
        "label": "userVestingInfos",
        "offset": 0,
        "slot": "21",
        "type": "t_mapping(t_address,t_struct(UserVestingInfo)8133_storage)"
      },
      {
        "astId": 8141,
        "contract": "contracts/OmnichainLedgerV1.sol:OmnichainLedgerV1",
        "label": "vestingLockPeriod",
        "offset": 0,
        "slot": "22",
        "type": "t_uint256"
      },
      {
        "astId": 8144,
        "contract": "contracts/OmnichainLedgerV1.sol:OmnichainLedgerV1",
        "label": "vestingLinearPeriod",
        "offset": 0,
        "slot": "23",
        "type": "t_uint256"
      },
      {
        "astId": 8147,
        "contract": "contracts/OmnichainLedgerV1.sol:OmnichainLedgerV1",
        "label": "orderCollector",
        "offset": 0,
        "slot": "24",
        "type": "t_address"
      },
      {
        "astId": 4522,
        "contract": "contracts/OmnichainLedgerV1.sol:OmnichainLedgerV1",
        "label": "occAdaptor",
        "offset": 0,
        "slot": "25",
        "type": "t_address"
      },
      {
        "astId": 4524,
        "contract": "contracts/OmnichainLedgerV1.sol:OmnichainLedgerV1",
        "label": "orderTokenOft",
        "offset": 0,
        "slot": "26",
        "type": "t_address"
      }
    ],
    "types": {
      "t_address": {
        "encoding": "inplace",
        "label": "address",
        "numberOfBytes": "20"
      },
      "t_array(t_struct(Batch)6189_storage)dyn_storage": {
        "base": "t_struct(Batch)6189_storage",
        "encoding": "dynamic_array",
        "label": "struct Revenue.Batch[]",
        "numberOfBytes": "32"
      },
      "t_array(t_struct(BatchedReremprionRequest)6203_storage)dyn_storage": {
        "base": "t_struct(BatchedReremprionRequest)6203_storage",
        "encoding": "dynamic_array",
        "label": "struct Revenue.BatchedReremprionRequest[]",
        "numberOfBytes": "32"
      },
      "t_array(t_struct(ChainedAmount)6174_storage)dyn_storage": {
        "base": "t_struct(ChainedAmount)6174_storage",
        "encoding": "dynamic_array",
        "label": "struct Revenue.ChainedAmount[]",
        "numberOfBytes": "32"
      },
      "t_array(t_struct(VestingRequest)8126_storage)dyn_storage": {
        "base": "t_struct(VestingRequest)8126_storage",
        "encoding": "dynamic_array",
        "label": "struct Vesting.VestingRequest[]",
        "numberOfBytes": "32"
      },
      "t_array(t_uint256)2_storage": {
        "base": "t_uint256",
        "encoding": "inplace",
        "label": "uint256[2]",
        "numberOfBytes": "64"
      },
      "t_bool": {
        "encoding": "inplace",
        "label": "bool",
        "numberOfBytes": "1"
      },
      "t_bytes32": {
        "encoding": "inplace",
        "label": "bytes32",
        "numberOfBytes": "32"
      },
      "t_bytes_storage": {
        "encoding": "bytes",
        "label": "bytes",
        "numberOfBytes": "32"
      },
      "t_enum(LedgerToken)6110": {
        "encoding": "inplace",
        "label": "enum LedgerToken",
        "numberOfBytes": "1"
      },
      "t_mapping(t_address,t_struct(PendingUnstake)7134_storage)": {
        "encoding": "mapping",
        "key": "t_address",
        "label": "mapping(address => struct Staking.PendingUnstake)",
        "numberOfBytes": "32",
        "value": "t_struct(PendingUnstake)7134_storage"
      },
      "t_mapping(t_address,t_struct(StakingInfo)7124_storage)": {
        "encoding": "mapping",
        "key": "t_address",
        "label": "mapping(address => struct Staking.StakingInfo)",
        "numberOfBytes": "32",
        "value": "t_struct(StakingInfo)7124_storage"
      },
      "t_mapping(t_address,t_struct(UserRevenueRecord)6212_storage)": {
        "encoding": "mapping",
        "key": "t_address",
        "label": "mapping(address => struct Revenue.UserRevenueRecord)",
        "numberOfBytes": "32",
        "value": "t_struct(UserRevenueRecord)6212_storage"
      },
      "t_mapping(t_address,t_struct(UserVestingInfo)8133_storage)": {
        "encoding": "mapping",
        "key": "t_address",
        "label": "mapping(address => struct Vesting.UserVestingInfo)",
        "numberOfBytes": "32",
        "value": "t_struct(UserVestingInfo)8133_storage"
      },
      "t_mapping(t_address,t_uint256)": {
        "encoding": "mapping",
        "key": "t_address",
        "label": "mapping(address => uint256)",
        "numberOfBytes": "32",
        "value": "t_uint256"
      },
      "t_mapping(t_uint256,t_uint256)": {
        "encoding": "mapping",
        "key": "t_uint256",
        "label": "mapping(uint256 => uint256)",
        "numberOfBytes": "32",
        "value": "t_uint256"
      },
      "t_mapping(t_uint32,t_mapping(t_address,t_uint256))": {
        "encoding": "mapping",
        "key": "t_uint32",
        "label": "mapping(uint32 => mapping(address => uint256))",
        "numberOfBytes": "32",
        "value": "t_mapping(t_address,t_uint256)"
      },
      "t_mapping(t_uint32,t_struct(Distribution)5428_storage)": {
        "encoding": "mapping",
        "key": "t_uint32",
        "label": "mapping(uint32 => struct MerkleDistributor.Distribution)",
        "numberOfBytes": "32",
        "value": "t_struct(Distribution)5428_storage"
      },
      "t_mapping(t_uint32,t_struct(MerkleTree)5419_storage)": {
        "encoding": "mapping",
        "key": "t_uint32",
        "label": "mapping(uint32 => struct MerkleDistributor.MerkleTree)",
        "numberOfBytes": "32",
        "value": "t_struct(MerkleTree)5419_storage"
      },
      "t_struct(Batch)6189_storage": {
        "encoding": "inplace",
        "label": "struct Revenue.Batch",
        "members": [
          {
            "astId": 6177,
            "contract": "contracts/OmnichainLedgerV1.sol:OmnichainLedgerV1",
            "label": "claimable",
            "offset": 0,
            "slot": "0",
            "type": "t_bool"
          },
          {
            "astId": 6180,
            "contract": "contracts/OmnichainLedgerV1.sol:OmnichainLedgerV1",
            "label": "redeemedValorAmount",
            "offset": 0,
            "slot": "1",
            "type": "t_uint256"
          },
          {
            "astId": 6183,
            "contract": "contracts/OmnichainLedgerV1.sol:OmnichainLedgerV1",
            "label": "fixedValorToUsdcRateScaled",
            "offset": 0,
            "slot": "2",
            "type": "t_uint256"
          },
          {
            "astId": 6188,
            "contract": "contracts/OmnichainLedgerV1.sol:OmnichainLedgerV1",
            "label": "chainedValorAmount",
            "offset": 0,
            "slot": "3",
            "type": "t_array(t_struct(ChainedAmount)6174_storage)dyn_storage"
          }
        ],
        "numberOfBytes": "128"
      },
      "t_struct(BatchedReremprionRequest)6203_storage": {
        "encoding": "inplace",
        "label": "struct Revenue.BatchedReremprionRequest",
        "members": [
          {
            "astId": 6198,
            "contract": "contracts/OmnichainLedgerV1.sol:OmnichainLedgerV1",
            "label": "batchId",
            "offset": 0,
            "slot": "0",
            "type": "t_uint16"
          },
          {
            "astId": 6202,
            "contract": "contracts/OmnichainLedgerV1.sol:OmnichainLedgerV1",
            "label": "chainedValorAmount",
            "offset": 0,
            "slot": "1",
            "type": "t_array(t_struct(ChainedAmount)6174_storage)dyn_storage"
          }
        ],
        "numberOfBytes": "64"
      },
      "t_struct(ChainedAmount)6174_storage": {
        "encoding": "inplace",
        "label": "struct Revenue.ChainedAmount",
        "members": [
          {
            "astId": 6171,
            "contract": "contracts/OmnichainLedgerV1.sol:OmnichainLedgerV1",
            "label": "chainId",
            "offset": 0,
            "slot": "0",
            "type": "t_uint256"
          },
          {
            "astId": 6173,
            "contract": "contracts/OmnichainLedgerV1.sol:OmnichainLedgerV1",
            "label": "amount",
            "offset": 0,
            "slot": "1",
            "type": "t_uint256"
          }
        ],
        "numberOfBytes": "64"
      },
      "t_struct(Distribution)5428_storage": {
        "encoding": "inplace",
        "label": "struct MerkleDistributor.Distribution",
        "members": [
          {
            "astId": 5423,
            "contract": "contracts/OmnichainLedgerV1.sol:OmnichainLedgerV1",
            "label": "token",
            "offset": 0,
            "slot": "0",
            "type": "t_enum(LedgerToken)6110"
          },
          {
            "astId": 5427,
            "contract": "contracts/OmnichainLedgerV1.sol:OmnichainLedgerV1",
            "label": "merkleTree",
            "offset": 0,
            "slot": "1",
            "type": "t_struct(MerkleTree)5419_storage"
          }
        ],
        "numberOfBytes": "128"
      },
      "t_struct(MerkleTree)5419_storage": {
        "encoding": "inplace",
        "label": "struct MerkleDistributor.MerkleTree",
        "members": [
          {
            "astId": 5412,
            "contract": "contracts/OmnichainLedgerV1.sol:OmnichainLedgerV1",
            "label": "merkleRoot",
            "offset": 0,
            "slot": "0",
            "type": "t_bytes32"
          },
          {
            "astId": 5415,
            "contract": "contracts/OmnichainLedgerV1.sol:OmnichainLedgerV1",
            "label": "startTimestamp",
            "offset": 0,
            "slot": "1",
            "type": "t_uint256"
          },
          {
            "astId": 5418,
            "contract": "contracts/OmnichainLedgerV1.sol:OmnichainLedgerV1",
            "label": "ipfsCid",
            "offset": 0,
            "slot": "2",
            "type": "t_bytes_storage"
          }
        ],
        "numberOfBytes": "96"
      },
      "t_struct(PendingUnstake)7134_storage": {
        "encoding": "inplace",
        "label": "struct Staking.PendingUnstake",
        "members": [
          {
            "astId": 7131,
            "contract": "contracts/OmnichainLedgerV1.sol:OmnichainLedgerV1",
            "label": "balanceOrder",
            "offset": 0,
            "slot": "0",
            "type": "t_uint256"
          },
          {
            "astId": 7133,
            "contract": "contracts/OmnichainLedgerV1.sol:OmnichainLedgerV1",
            "label": "unlockTimestamp",
            "offset": 0,
            "slot": "1",
            "type": "t_uint256"
          }
        ],
        "numberOfBytes": "64"
      },
      "t_struct(StakingInfo)7124_storage": {
        "encoding": "inplace",
        "label": "struct Staking.StakingInfo",
        "members": [
          {
            "astId": 7121,
            "contract": "contracts/OmnichainLedgerV1.sol:OmnichainLedgerV1",
            "label": "balance",
            "offset": 0,
            "slot": "0",
            "type": "t_array(t_uint256)2_storage"
          },
          {
            "astId": 7123,
            "contract": "contracts/OmnichainLedgerV1.sol:OmnichainLedgerV1",
            "label": "valorDebt",
            "offset": 0,
            "slot": "2",
            "type": "t_uint256"
          }
        ],
        "numberOfBytes": "96"
      },
      "t_struct(UserRevenueRecord)6212_storage": {
        "encoding": "inplace",
        "label": "struct Revenue.UserRevenueRecord",
        "members": [
          {
            "astId": 6207,
            "contract": "contracts/OmnichainLedgerV1.sol:OmnichainLedgerV1",
            "label": "chainedUsdcRevenue",
            "offset": 0,
            "slot": "0",
            "type": "t_mapping(t_uint256,t_uint256)"
          },
          {
            "astId": 6211,
            "contract": "contracts/OmnichainLedgerV1.sol:OmnichainLedgerV1",
            "label": "requests",
            "offset": 0,
            "slot": "1",
            "type": "t_array(t_struct(BatchedReremprionRequest)6203_storage)dyn_storage"
          }
        ],
        "numberOfBytes": "64"
      },
      "t_struct(UserVestingInfo)8133_storage": {
        "encoding": "inplace",
        "label": "struct Vesting.UserVestingInfo",
        "members": [
          {
            "astId": 8128,
            "contract": "contracts/OmnichainLedgerV1.sol:OmnichainLedgerV1",
            "label": "currentRequestId",
            "offset": 0,
            "slot": "0",
            "type": "t_uint256"
          },
          {
            "astId": 8132,
            "contract": "contracts/OmnichainLedgerV1.sol:OmnichainLedgerV1",
            "label": "requests",
            "offset": 0,
            "slot": "1",
            "type": "t_array(t_struct(VestingRequest)8126_storage)dyn_storage"
          }
        ],
        "numberOfBytes": "64"
      },
      "t_struct(VestingRequest)8126_storage": {
        "encoding": "inplace",
        "label": "struct Vesting.VestingRequest",
        "members": [
          {
            "astId": 8121,
            "contract": "contracts/OmnichainLedgerV1.sol:OmnichainLedgerV1",
            "label": "requestId",
            "offset": 0,
            "slot": "0",
            "type": "t_uint256"
          },
          {
            "astId": 8123,
            "contract": "contracts/OmnichainLedgerV1.sol:OmnichainLedgerV1",
            "label": "esOrderAmount",
            "offset": 0,
            "slot": "1",
            "type": "t_uint256"
          },
          {
            "astId": 8125,
            "contract": "contracts/OmnichainLedgerV1.sol:OmnichainLedgerV1",
            "label": "unlockTimestamp",
            "offset": 0,
            "slot": "2",
            "type": "t_uint256"
          }
        ],
        "numberOfBytes": "96"
      },
      "t_uint16": {
        "encoding": "inplace",
        "label": "uint16",
        "numberOfBytes": "2"
      },
      "t_uint256": {
        "encoding": "inplace",
        "label": "uint256",
        "numberOfBytes": "32"
      },
      "t_uint32": {
        "encoding": "inplace",
        "label": "uint32",
        "numberOfBytes": "4"
      }
    }
  }
}