{
  "address": "0x6775fB5E5b1450Ed94fF8edf8eAd6255d3DE4c93",
  "abi": [
    {
      "inputs": [],
      "name": "AccessControlBadConfirmation",
      "type": "error"
    },
    {
      "inputs": [
        {
          "internalType": "address",
          "name": "account",
          "type": "address"
        },
        {
          "internalType": "bytes32",
          "name": "neededRole",
          "type": "bytes32"
        }
      ],
      "name": "AccessControlUnauthorizedAccount",
      "type": "error"
    },
    {
      "inputs": [
        {
          "internalType": "address",
          "name": "target",
          "type": "address"
        }
      ],
      "name": "AddressEmptyCode",
      "type": "error"
    },
    {
      "inputs": [
        {
          "internalType": "address",
          "name": "account",
          "type": "address"
        }
      ],
      "name": "AddressInsufficientBalance",
      "type": "error"
    },
    {
      "inputs": [],
      "name": "AmountIsGreaterThanCollectedValor",
      "type": "error"
    },
    {
      "inputs": [],
      "name": "AmountIsZero",
      "type": "error"
    },
    {
      "inputs": [],
      "name": "BatchIsNotCreatedYet",
      "type": "error"
    },
    {
      "inputs": [],
      "name": "BatchIsNotFinished",
      "type": "error"
    },
    {
      "inputs": [],
      "name": "BatchValorToUsdcRateIsNotFixed",
      "type": "error"
    },
    {
      "inputs": [],
      "name": "CannotUpdateRoot",
      "type": "error"
    },
    {
      "inputs": [
        {
          "internalType": "uint256",
          "name": "amountEsorderDeposited",
          "type": "uint256"
        },
        {
          "internalType": "uint256",
          "name": "amountEsorderRequested",
          "type": "uint256"
        }
      ],
      "name": "DepositNotEnough",
      "type": "error"
    },
    {
      "inputs": [],
      "name": "DistributionAlreadyExists",
      "type": "error"
    },
    {
      "inputs": [],
      "name": "DistributionNotFound",
      "type": "error"
    },
    {
      "inputs": [
        {
          "internalType": "address",
          "name": "implementation",
          "type": "address"
        }
      ],
      "name": "ERC1967InvalidImplementation",
      "type": "error"
    },
    {
      "inputs": [],
      "name": "ERC1967NonPayable",
      "type": "error"
    },
    {
      "inputs": [],
      "name": "EnforcedPause",
      "type": "error"
    },
    {
      "inputs": [],
      "name": "ExpectedPause",
      "type": "error"
    },
    {
      "inputs": [],
      "name": "FailedInnerCall",
      "type": "error"
    },
    {
      "inputs": [],
      "name": "InvalidInitialization",
      "type": "error"
    },
    {
      "inputs": [],
      "name": "InvalidMerkleProof",
      "type": "error"
    },
    {
      "inputs": [],
      "name": "NoActiveMerkleRoot",
      "type": "error"
    },
    {
      "inputs": [],
      "name": "NoPendingUnstakeRequest",
      "type": "error"
    },
    {
      "inputs": [],
      "name": "NotInitializing",
      "type": "error"
    },
    {
      "inputs": [
        {
          "internalType": "address",
          "name": "user",
          "type": "address"
        },
        {
          "internalType": "uint256",
          "name": "chainId",
          "type": "uint256"
        }
      ],
      "name": "NothingToClaim",
      "type": "error"
    },
    {
      "inputs": [],
      "name": "ProposedMerkleRootIsZero",
      "type": "error"
    },
    {
      "inputs": [],
      "name": "RedemptionAmountIsZero",
      "type": "error"
    },
    {
      "inputs": [],
      "name": "ReentrancyGuardReentrantCall",
      "type": "error"
    },
    {
      "inputs": [
        {
          "internalType": "address",
          "name": "token",
          "type": "address"
        }
      ],
      "name": "SafeERC20FailedOperation",
      "type": "error"
    },
    {
      "inputs": [
        {
          "internalType": "enum LedgerToken",
          "name": "token",
          "type": "uint8"
        }
      ],
      "name": "StakingBalanceInsufficient",
      "type": "error"
    },
    {
      "inputs": [],
      "name": "StartTimestampIsInThePast",
      "type": "error"
    },
    {
      "inputs": [],
      "name": "ThisMerkleRootIsAlreadyProposed",
      "type": "error"
    },
    {
      "inputs": [],
      "name": "TokenIsNotSupportedForDistribution",
      "type": "error"
    },
    {
      "inputs": [],
      "name": "TooEarlyUsdcNetFeeRevenueUpdate",
      "type": "error"
    },
    {
      "inputs": [],
      "name": "UUPSUnauthorizedCallContext",
      "type": "error"
    },
    {
      "inputs": [
        {
          "internalType": "bytes32",
          "name": "slot",
          "type": "bytes32"
        }
      ],
      "name": "UUPSUnsupportedProxiableUUID",
      "type": "error"
    },
    {
      "inputs": [],
      "name": "UnlockTimeNotPassedYet",
      "type": "error"
    },
    {
      "inputs": [],
      "name": "UnsupportedPayloadType",
      "type": "error"
    },
    {
      "inputs": [],
      "name": "UnsupportedToken",
      "type": "error"
    },
    {
      "inputs": [
        {
          "internalType": "address",
          "name": "_user",
          "type": "address"
        },
        {
          "internalType": "uint256",
          "name": "_requestId",
          "type": "uint256"
        }
      ],
      "name": "UserDontHaveVestingRequest",
      "type": "error"
    },
    {
      "inputs": [],
      "name": "ValorPerSecondExceedsMaxValue",
      "type": "error"
    },
    {
      "inputs": [],
      "name": "VestingAmountIsZero",
      "type": "error"
    },
    {
      "inputs": [],
      "name": "VestingLinearPeriodIsZero",
      "type": "error"
    },
    {
      "inputs": [],
      "name": "VestingLockPeriodIsZero",
      "type": "error"
    },
    {
      "inputs": [],
      "name": "VestingLockPeriodNotPassed",
      "type": "error"
    },
    {
      "inputs": [],
      "name": "VestingPeriodIsOutOfRange",
      "type": "error"
    },
    {
      "anonymous": false,
      "inputs": [
        {
          "indexed": true,
          "internalType": "uint16",
          "name": "batchId",
          "type": "uint16"
        }
      ],
      "name": "BatchPreparedToClaim",
      "type": "event"
    },
    {
      "anonymous": false,
      "inputs": [
        {
          "indexed": true,
          "internalType": "uint16",
          "name": "batchId",
          "type": "uint16"
        },
        {
          "indexed": false,
          "internalType": "uint256",
          "name": "fixedValorToUsdcRate",
          "type": "uint256"
        }
      ],
      "name": "BatchValorToUsdcRateIsFixed",
      "type": "event"
    },
    {
      "anonymous": false,
      "inputs": [
        {
          "indexed": true,
          "internalType": "uint256",
          "name": "timestamp",
          "type": "uint256"
        },
        {
          "indexed": false,
          "internalType": "uint256",
          "name": "usdcNetFeeRevenue",
          "type": "uint256"
        },
        {
          "indexed": false,
          "internalType": "uint256",
          "name": "totalUsdcInTreasure",
          "type": "uint256"
        },
        {
          "indexed": false,
          "internalType": "uint256",
          "name": "totalValorAmount",
          "type": "uint256"
        },
        {
          "indexed": false,
          "internalType": "uint256",
          "name": "valorToUsdcRateScaled",
          "type": "uint256"
        }
      ],
      "name": "DailyUsdcNetFeeRevenueUpdated",
      "type": "event"
    },
    {
      "anonymous": false,
      "inputs": [
        {
          "indexed": true,
          "internalType": "uint256",
          "name": "eventId",
          "type": "uint256"
        },
        {
          "indexed": true,
          "internalType": "uint32",
          "name": "distributionId",
          "type": "uint32"
        },
        {
          "indexed": false,
          "internalType": "enum LedgerToken",
          "name": "token",
          "type": "uint8"
        },
        {
          "indexed": false,
          "internalType": "bytes32",
          "name": "merkleRoot",
          "type": "bytes32"
        },
        {
          "indexed": false,
          "internalType": "uint256",
          "name": "startTimestamp",
          "type": "uint256"
        },
        {
          "indexed": false,
          "internalType": "bytes",
          "name": "ipfsCid",
          "type": "bytes"
        }
      ],
      "name": "DistributionCreated",
      "type": "event"
    },
    {
      "anonymous": false,
      "inputs": [
        {
          "indexed": true,
          "internalType": "uint256",
          "name": "chainedEventId",
          "type": "uint256"
        },
        {
          "indexed": true,
          "internalType": "uint256",
          "name": "chainId",
          "type": "uint256"
        },
        {
          "indexed": true,
          "internalType": "address",
          "name": "staker",
          "type": "address"
        },
        {
          "indexed": false,
          "internalType": "uint256",
          "name": "amount",
          "type": "uint256"
        }
      ],
      "name": "EsOrderUnstake",
      "type": "event"
    },
    {
      "anonymous": false,
      "inputs": [
        {
          "indexed": false,
          "internalType": "uint64",
          "name": "version",
          "type": "uint64"
        }
      ],
      "name": "Initialized",
      "type": "event"
    },
    {
      "anonymous": false,
      "inputs": [
        {
          "indexed": true,
          "internalType": "address",
          "name": "staker",
          "type": "address"
        },
        {
          "indexed": false,
          "internalType": "uint256",
          "name": "totalUnstakedAmount",
          "type": "uint256"
        },
        {
          "indexed": false,
          "internalType": "uint256",
          "name": "unlockTimestamp",
          "type": "uint256"
        }
      ],
      "name": "OrderUnstakeAmount",
      "type": "event"
    },
    {
      "anonymous": false,
      "inputs": [
        {
          "indexed": true,
          "internalType": "uint256",
          "name": "chainedEventId",
          "type": "uint256"
        },
        {
          "indexed": true,
          "internalType": "uint256",
          "name": "chainId",
          "type": "uint256"
        },
        {
          "indexed": true,
          "internalType": "address",
          "name": "staker",
          "type": "address"
        },
        {
          "indexed": false,
          "internalType": "uint256",
          "name": "pendingOrderAmount",
          "type": "uint256"
        }
      ],
      "name": "OrderUnstakeCancelled",
      "type": "event"
    },
    {
      "anonymous": false,
      "inputs": [
        {
          "indexed": true,
          "internalType": "uint256",
          "name": "chainedEventId",
          "type": "uint256"
        },
        {
          "indexed": true,
          "internalType": "uint256",
          "name": "chainId",
          "type": "uint256"
        },
        {
          "indexed": true,
          "internalType": "address",
          "name": "staker",
          "type": "address"
        },
        {
          "indexed": false,
          "internalType": "uint256",
          "name": "amount",
          "type": "uint256"
        }
      ],
      "name": "OrderUnstakeRequested",
      "type": "event"
    },
    {
      "anonymous": false,
      "inputs": [
        {
          "indexed": true,
          "internalType": "uint256",
          "name": "chainedEventId",
          "type": "uint256"
        },
        {
          "indexed": true,
          "internalType": "uint256",
          "name": "chainId",
          "type": "uint256"
        },
        {
          "indexed": true,
          "internalType": "address",
          "name": "staker",
          "type": "address"
        },
        {
          "indexed": false,
          "internalType": "uint256",
          "name": "amount",
          "type": "uint256"
        }
      ],
      "name": "OrderWithdrawn",
      "type": "event"
    },
    {
      "anonymous": false,
      "inputs": [
        {
          "indexed": false,
          "internalType": "address",
          "name": "account",
          "type": "address"
        }
      ],
      "name": "Paused",
      "type": "event"
    },
    {
      "anonymous": false,
      "inputs": [
        {
          "indexed": true,
          "internalType": "uint256",
          "name": "chainedEventId",
          "type": "uint256"
        },
        {
          "indexed": true,
          "internalType": "uint256",
          "name": "chainId",
          "type": "uint256"
        },
        {
          "indexed": true,
          "internalType": "uint32",
          "name": "distributionId",
          "type": "uint32"
        },
        {
          "indexed": false,
          "internalType": "address",
          "name": "account",
          "type": "address"
        },
        {
          "indexed": false,
          "internalType": "uint256",
          "name": "amount",
          "type": "uint256"
        },
        {
          "indexed": false,
          "internalType": "enum LedgerToken",
          "name": "token",
          "type": "uint8"
        }
      ],
      "name": "RewardsClaimed",
      "type": "event"
    },
    {
      "anonymous": false,
      "inputs": [
        {
          "indexed": true,
          "internalType": "bytes32",
          "name": "role",
          "type": "bytes32"
        },
        {
          "indexed": true,
          "internalType": "bytes32",
          "name": "previousAdminRole",
          "type": "bytes32"
        },
        {
          "indexed": true,
          "internalType": "bytes32",
          "name": "newAdminRole",
          "type": "bytes32"
        }
      ],
      "name": "RoleAdminChanged",
      "type": "event"
    },
    {
      "anonymous": false,
      "inputs": [
        {
          "indexed": true,
          "internalType": "bytes32",
          "name": "role",
          "type": "bytes32"
        },
        {
          "indexed": true,
          "internalType": "address",
          "name": "account",
          "type": "address"
        },
        {
          "indexed": true,
          "internalType": "address",
          "name": "sender",
          "type": "address"
        }
      ],
      "name": "RoleGranted",
      "type": "event"
    },
    {
      "anonymous": false,
      "inputs": [
        {
          "indexed": true,
          "internalType": "bytes32",
          "name": "role",
          "type": "bytes32"
        },
        {
          "indexed": true,
          "internalType": "address",
          "name": "account",
          "type": "address"
        },
        {
          "indexed": true,
          "internalType": "address",
          "name": "sender",
          "type": "address"
        }
      ],
      "name": "RoleRevoked",
      "type": "event"
    },
    {
      "anonymous": false,
      "inputs": [
        {
          "indexed": true,
          "internalType": "uint256",
          "name": "eventId",
          "type": "uint256"
        },
        {
          "indexed": true,
          "internalType": "uint32",
          "name": "distributionId",
          "type": "uint32"
        },
        {
          "indexed": false,
          "internalType": "bytes32",
          "name": "merkleRoot",
          "type": "bytes32"
        },
        {
          "indexed": false,
          "internalType": "uint256",
          "name": "startTimestamp",
          "type": "uint256"
        },
        {
          "indexed": false,
          "internalType": "bytes",
          "name": "ipfsCid",
          "type": "bytes"
        }
      ],
      "name": "RootProposed",
      "type": "event"
    },
    {
      "anonymous": false,
      "inputs": [
        {
          "indexed": true,
          "internalType": "uint256",
          "name": "eventId",
          "type": "uint256"
        },
        {
          "indexed": true,
          "internalType": "uint32",
          "name": "distributionId",
          "type": "uint32"
        },
        {
          "indexed": false,
          "internalType": "bytes32",
          "name": "merkleRoot",
          "type": "bytes32"
        },
        {
          "indexed": false,
          "internalType": "uint256",
          "name": "startTimestamp",
          "type": "uint256"
        },
        {
          "indexed": false,
          "internalType": "bytes",
          "name": "ipfsCid",
          "type": "bytes"
        }
      ],
      "name": "RootUpdated",
      "type": "event"
    },
    {
      "anonymous": false,
      "inputs": [
        {
          "indexed": true,
          "internalType": "uint256",
          "name": "chainedEventId",
          "type": "uint256"
        },
        {
          "indexed": true,
          "internalType": "uint256",
          "name": "chainId",
          "type": "uint256"
        },
        {
          "indexed": true,
          "internalType": "address",
          "name": "staker",
          "type": "address"
        },
        {
          "indexed": false,
          "internalType": "uint256",
          "name": "amount",
          "type": "uint256"
        },
        {
          "indexed": false,
          "internalType": "enum LedgerToken",
          "name": "token",
          "type": "uint8"
        }
      ],
      "name": "Staked",
      "type": "event"
    },
    {
      "anonymous": false,
      "inputs": [
        {
          "indexed": false,
          "internalType": "address",
          "name": "account",
          "type": "address"
        }
      ],
      "name": "Unpaused",
      "type": "event"
    },
    {
      "anonymous": false,
      "inputs": [
        {
          "indexed": true,
          "internalType": "address",
          "name": "implementation",
          "type": "address"
        }
      ],
      "name": "Upgraded",
      "type": "event"
    },
    {
      "anonymous": false,
      "inputs": [
        {
          "indexed": true,
          "internalType": "uint256",
          "name": "chainEventId",
          "type": "uint256"
        },
        {
          "indexed": true,
          "internalType": "uint256",
          "name": "chainId",
          "type": "uint256"
        },
        {
          "indexed": true,
          "internalType": "address",
          "name": "user",
          "type": "address"
        },
        {
          "indexed": false,
          "internalType": "uint256",
          "name": "usdcAmount",
          "type": "uint256"
        }
      ],
      "name": "UsdcRevenueClaimed",
      "type": "event"
    },
    {
      "anonymous": false,
      "inputs": [
        {
          "indexed": true,
          "internalType": "uint256",
          "name": "chainEventId",
          "type": "uint256"
        },
        {
          "indexed": true,
          "internalType": "uint256",
          "name": "chainId",
          "type": "uint256"
        },
        {
          "indexed": true,
          "internalType": "address",
          "name": "user",
          "type": "address"
        },
        {
          "indexed": false,
          "internalType": "uint16",
          "name": "batchId",
          "type": "uint16"
        },
        {
          "indexed": false,
          "internalType": "uint256",
          "name": "valorAmount",
          "type": "uint256"
        }
      ],
      "name": "ValorRedeemed",
      "type": "event"
    },
    {
      "anonymous": false,
      "inputs": [
        {
          "indexed": true,
          "internalType": "uint256",
          "name": "chainEventId",
          "type": "uint256"
        },
        {
          "indexed": true,
          "internalType": "uint256",
          "name": "chainId",
          "type": "uint256"
        },
        {
          "indexed": true,
          "internalType": "address",
          "name": "user",
          "type": "address"
        },
        {
          "indexed": false,
          "internalType": "uint256",
          "name": "requestId",
          "type": "uint256"
        },
        {
          "indexed": false,
          "internalType": "uint256",
          "name": "amountEsorderStakedBack",
          "type": "uint256"
        }
      ],
      "name": "VestingCanceled",
      "type": "event"
    },
    {
      "anonymous": false,
      "inputs": [
        {
          "indexed": true,
          "internalType": "uint256",
          "name": "chainEventId",
          "type": "uint256"
        },
        {
          "indexed": true,
          "internalType": "uint256",
          "name": "chainId",
          "type": "uint256"
        },
        {
          "indexed": true,
          "internalType": "address",
          "name": "user",
          "type": "address"
        },
        {
          "indexed": false,
          "internalType": "uint256",
          "name": "requestId",
          "type": "uint256"
        },
        {
          "indexed": false,
          "internalType": "uint256",
          "name": "amountEsorderBurned",
          "type": "uint256"
        },
        {
          "indexed": false,
          "internalType": "uint256",
          "name": "amountOrderVested",
          "type": "uint256"
        },
        {
          "indexed": false,
          "internalType": "uint256",
          "name": "vestedPeriod",
          "type": "uint256"
        }
      ],
      "name": "VestingClaimed",
      "type": "event"
    },
    {
      "anonymous": false,
      "inputs": [
        {
          "indexed": true,
          "internalType": "uint256",
          "name": "chainEventId",
          "type": "uint256"
        },
        {
          "indexed": true,
          "internalType": "uint256",
          "name": "chainId",
          "type": "uint256"
        },
        {
          "indexed": true,
          "internalType": "address",
          "name": "user",
          "type": "address"
        },
        {
          "indexed": false,
          "internalType": "uint256",
          "name": "requestId",
          "type": "uint256"
        },
        {
          "indexed": false,
          "internalType": "uint256",
          "name": "amountEsorderRequested",
          "type": "uint256"
        },
        {
          "indexed": false,
          "internalType": "uint256",
          "name": "unlockTimestamp",
          "type": "uint256"
        }
      ],
      "name": "VestingRequested",
      "type": "event"
    },
    {
      "inputs": [],
      "name": "DEFAULT_ADMIN_ROLE",
      "outputs": [
        {
          "internalType": "bytes32",
          "name": "",
          "type": "bytes32"
        }
      ],
      "stateMutability": "view",
      "type": "function"
    },
    {
      "inputs": [],
      "name": "ROOT_UPDATER_ROLE",
      "outputs": [
        {
          "internalType": "bytes32",
          "name": "",
          "type": "bytes32"
        }
      ],
      "stateMutability": "view",
      "type": "function"
    },
    {
      "inputs": [],
      "name": "TREASURE_UPDATER_ROLE",
      "outputs": [
        {
          "internalType": "bytes32",
          "name": "",
          "type": "bytes32"
        }
      ],
      "stateMutability": "view",
      "type": "function"
    },
    {
      "inputs": [],
      "name": "UPGRADE_INTERFACE_VERSION",
      "outputs": [
        {
          "internalType": "string",
          "name": "",
          "type": "string"
        }
      ],
      "stateMutability": "view",
      "type": "function"
    },
    {
      "inputs": [],
      "name": "VALOR_TO_USDC_RATE_PRECISION",
      "outputs": [
        {
          "internalType": "uint256",
          "name": "",
          "type": "uint256"
        }
      ],
      "stateMutability": "view",
      "type": "function"
    },
    {
      "inputs": [],
      "name": "VERSION",
      "outputs": [
        {
          "internalType": "string",
          "name": "",
          "type": "string"
        }
      ],
      "stateMutability": "pure",
      "type": "function"
    },
    {
      "inputs": [],
      "name": "accValorPerShareScaled",
      "outputs": [
        {
          "internalType": "uint256",
          "name": "",
          "type": "uint256"
        }
      ],
      "stateMutability": "view",
      "type": "function"
    },
    {
      "inputs": [
        {
          "internalType": "uint16",
          "name": "_batchId",
          "type": "uint16"
        }
      ],
      "name": "batchPreparedToClaim",
      "outputs": [],
      "stateMutability": "nonpayable",
      "type": "function"
    },
    {
      "inputs": [
        {
          "internalType": "uint256",
          "name": "",
          "type": "uint256"
        }
      ],
      "name": "batches",
      "outputs": [
        {
          "internalType": "bool",
          "name": "claimable",
          "type": "bool"
        },
        {
          "internalType": "uint256",
          "name": "redeemedValorAmount",
          "type": "uint256"
        },
        {
          "internalType": "uint256",
          "name": "fixedValorToUsdcRateScaled",
          "type": "uint256"
        }
      ],
      "stateMutability": "view",
      "type": "function"
    },
    {
      "inputs": [
        {
          "internalType": "address",
          "name": "_user",
          "type": "address"
        },
        {
          "internalType": "uint256",
          "name": "_requestId",
          "type": "uint256"
        }
      ],
      "name": "calculateVestingOrderAmount",
      "outputs": [
        {
          "internalType": "uint256",
          "name": "",
          "type": "uint256"
        }
      ],
      "stateMutability": "view",
      "type": "function"
    },
    {
      "inputs": [
        {
          "internalType": "uint32",
          "name": "_distributionId",
          "type": "uint32"
        }
      ],
      "name": "canUpdateRoot",
      "outputs": [
        {
          "internalType": "bool",
          "name": "",
          "type": "bool"
        }
      ],
      "stateMutability": "view",
      "type": "function"
    },
    {
      "inputs": [
        {
          "internalType": "address",
          "name": "",
          "type": "address"
        }
      ],
      "name": "collectedValor",
      "outputs": [
        {
          "internalType": "uint256",
          "name": "",
          "type": "uint256"
        }
      ],
      "stateMutability": "view",
      "type": "function"
    },
    {
      "inputs": [
        {
          "internalType": "uint32",
          "name": "_distributionId",
          "type": "uint32"
        },
        {
          "internalType": "enum LedgerToken",
          "name": "_token",
          "type": "uint8"
        },
        {
          "internalType": "bytes32",
          "name": "_merkleRoot",
          "type": "bytes32"
        },
        {
          "internalType": "uint256",
          "name": "_startTimestamp",
          "type": "uint256"
        },
        {
          "internalType": "bytes",
          "name": "_ipfsCid",
          "type": "bytes"
        }
      ],
      "name": "createDistribution",
      "outputs": [],
      "stateMutability": "nonpayable",
      "type": "function"
    },
    {
      "inputs": [
        {
          "internalType": "uint256",
          "name": "_usdcNetFeeRevenue",
          "type": "uint256"
        }
      ],
      "name": "dailyUsdcNetFeeRevenue",
      "outputs": [],
      "stateMutability": "nonpayable",
      "type": "function"
    },
    {
      "inputs": [
        {
          "internalType": "uint16",
          "name": "_batchId",
          "type": "uint16"
        }
      ],
      "name": "fixBatchValorToUsdcRate",
      "outputs": [
        {
          "internalType": "uint256",
          "name": "",
          "type": "uint256"
        }
      ],
      "stateMutability": "nonpayable",
      "type": "function"
    },
    {
      "inputs": [
        {
          "internalType": "uint16",
          "name": "_batchId",
          "type": "uint16"
        }
      ],
      "name": "getBatchChainedValorAmount",
      "outputs": [
        {
          "components": [
            {
              "internalType": "uint256",
              "name": "chainId",
              "type": "uint256"
            },
            {
              "internalType": "uint256",
              "name": "amount",
              "type": "uint256"
            }
          ],
          "internalType": "struct Revenue.ChainedAmount[]",
          "name": "",
          "type": "tuple[]"
        }
      ],
      "stateMutability": "view",
      "type": "function"
    },
    {
      "inputs": [
        {
          "internalType": "uint16",
          "name": "_batchId",
          "type": "uint16"
        }
      ],
      "name": "getBatchInfo",
      "outputs": [
        {
          "internalType": "uint256",
          "name": "batchStartTime",
          "type": "uint256"
        },
        {
          "internalType": "uint256",
          "name": "batchEndTime",
          "type": "uint256"
        },
        {
          "internalType": "bool",
          "name": "claimable",
          "type": "bool"
        },
        {
          "internalType": "uint256",
          "name": "redeemedValorAmount",
          "type": "uint256"
        },
        {
          "internalType": "uint256",
          "name": "fixedValorToUsdcRateScaled",
          "type": "uint256"
        }
      ],
      "stateMutability": "view",
      "type": "function"
    },
    {
      "inputs": [
        {
          "internalType": "uint32",
          "name": "_distributionId",
          "type": "uint32"
        },
        {
          "internalType": "address",
          "name": "_user",
          "type": "address"
        }
      ],
      "name": "getClaimed",
      "outputs": [
        {
          "internalType": "uint256",
          "name": "",
          "type": "uint256"
        }
      ],
      "stateMutability": "view",
      "type": "function"
    },
    {
      "inputs": [],
      "name": "getCurrentBatchId",
      "outputs": [
        {
          "internalType": "uint16",
          "name": "",
          "type": "uint16"
        }
      ],
      "stateMutability": "view",
      "type": "function"
    },
    {
      "inputs": [
        {
          "internalType": "uint32",
          "name": "_distributionId",
          "type": "uint32"
        }
      ],
      "name": "getDistribution",
      "outputs": [
        {
          "internalType": "enum LedgerToken",
          "name": "token",
          "type": "uint8"
        },
        {
          "internalType": "bytes32",
          "name": "merkleRoot",
          "type": "bytes32"
        },
        {
          "internalType": "uint256",
          "name": "startTimestamp",
          "type": "uint256"
        },
        {
          "internalType": "bytes",
          "name": "ipfsCid",
          "type": "bytes"
        }
      ],
      "stateMutability": "view",
      "type": "function"
    },
    {
      "inputs": [
        {
          "internalType": "address",
          "name": "_user",
          "type": "address"
        }
      ],
      "name": "getOrderAvailableToWithdraw",
      "outputs": [
        {
          "internalType": "uint256",
          "name": "orderAmount",
          "type": "uint256"
        }
      ],
      "stateMutability": "view",
      "type": "function"
    },
    {
      "inputs": [
        {
          "internalType": "uint32",
          "name": "_distributionId",
          "type": "uint32"
        }
      ],
      "name": "getProposedRoot",
      "outputs": [
        {
          "internalType": "bytes32",
          "name": "merkleRoot",
          "type": "bytes32"
        },
        {
          "internalType": "uint256",
          "name": "startTimestamp",
          "type": "uint256"
        },
        {
          "internalType": "bytes",
          "name": "ipfsCid",
          "type": "bytes"
        }
      ],
      "stateMutability": "view",
      "type": "function"
    },
    {
      "inputs": [
        {
          "internalType": "bytes32",
          "name": "role",
          "type": "bytes32"
        }
      ],
      "name": "getRoleAdmin",
      "outputs": [
        {
          "internalType": "bytes32",
          "name": "",
          "type": "bytes32"
        }
      ],
      "stateMutability": "view",
      "type": "function"
    },
    {
      "inputs": [
        {
          "internalType": "address",
          "name": "_user",
          "type": "address"
        }
      ],
      "name": "getStakingInfo",
      "outputs": [
        {
          "internalType": "uint256",
          "name": "orderBalance",
          "type": "uint256"
        },
        {
          "internalType": "uint256",
          "name": "esOrderBalance",
          "type": "uint256"
        }
      ],
      "stateMutability": "view",
      "type": "function"
    },
    {
      "inputs": [
        {
          "internalType": "uint16",
          "name": "_batchId",
          "type": "uint16"
        }
      ],
      "name": "getUsdcAmountForBatch",
      "outputs": [
        {
          "components": [
            {
              "internalType": "uint256",
              "name": "chainId",
              "type": "uint256"
            },
            {
              "internalType": "uint256",
              "name": "amount",
              "type": "uint256"
            }
          ],
          "internalType": "struct Revenue.ChainedAmount[]",
          "name": "chainedUsdcAmount",
          "type": "tuple[]"
        }
      ],
      "stateMutability": "view",
      "type": "function"
    },
    {
      "inputs": [
        {
          "internalType": "address",
          "name": "_user",
          "type": "address"
        },
        {
          "internalType": "uint16",
          "name": "_batchId",
          "type": "uint16"
        },
        {
          "internalType": "uint256",
          "name": "_chainId",
          "type": "uint256"
        }
      ],
      "name": "getUserRedeemedValorAmountForBatchAndChain",
      "outputs": [
        {
          "internalType": "uint256",
          "name": "",
          "type": "uint256"
        }
      ],
      "stateMutability": "view",
      "type": "function"
    },
    {
      "inputs": [
        {
          "internalType": "address",
          "name": "_user",
          "type": "address"
        }
      ],
      "name": "getUserValor",
      "outputs": [
        {
          "internalType": "uint256",
          "name": "",
          "type": "uint256"
        }
      ],
      "stateMutability": "view",
      "type": "function"
    },
    {
      "inputs": [
        {
          "internalType": "address",
          "name": "_user",
          "type": "address"
        }
      ],
      "name": "getUserVestingRequests",
      "outputs": [
        {
          "components": [
            {
              "internalType": "uint256",
              "name": "requestId",
              "type": "uint256"
            },
            {
              "internalType": "uint256",
              "name": "esOrderAmount",
              "type": "uint256"
            },
            {
              "internalType": "uint256",
              "name": "unlockTimestamp",
              "type": "uint256"
            }
          ],
          "internalType": "struct Vesting.VestingRequest[]",
          "name": "",
          "type": "tuple[]"
        }
      ],
      "stateMutability": "view",
      "type": "function"
    },
    {
      "inputs": [
        {
          "internalType": "bytes32",
          "name": "role",
          "type": "bytes32"
        },
        {
          "internalType": "address",
          "name": "account",
          "type": "address"
        }
      ],
      "name": "grantRole",
      "outputs": [],
      "stateMutability": "nonpayable",
      "type": "function"
    },
    {
      "inputs": [
        {
          "internalType": "uint32",
          "name": "_distributionId",
          "type": "uint32"
        }
      ],
      "name": "hasPendingRoot",
      "outputs": [
        {
          "internalType": "bool",
          "name": "",
          "type": "bool"
        }
      ],
      "stateMutability": "view",
      "type": "function"
    },
    {
      "inputs": [
        {
          "internalType": "bytes32",
          "name": "role",
          "type": "bytes32"
        },
        {
          "internalType": "address",
          "name": "account",
          "type": "address"
        }
      ],
      "name": "hasRole",
      "outputs": [
        {
          "internalType": "bool",
          "name": "",
          "type": "bool"
        }
      ],
      "stateMutability": "view",
      "type": "function"
    },
    {
      "inputs": [
        {
          "internalType": "address",
          "name": "_owner",
          "type": "address"
        },
        {
          "internalType": "address",
          "name": "_occAdaptor",
          "type": "address"
        },
        {
          "internalType": "address",
          "name": "_orderCollector",
          "type": "address"
        },
        {
          "internalType": "contract IOFT",
          "name": "_orderTokenOft",
          "type": "address"
        },
        {
          "internalType": "uint256",
          "name": "_valorPerSecond",
          "type": "uint256"
        },
        {
          "internalType": "uint256",
          "name": "_maximumValorEmission",
          "type": "uint256"
        }
      ],
      "name": "initialize",
      "outputs": [],
      "stateMutability": "nonpayable",
      "type": "function"
    },
    {
      "inputs": [
        {
          "internalType": "uint32",
          "name": "_distributionId",
          "type": "uint32"
        }
      ],
      "name": "isDistributionRecordBased",
      "outputs": [
        {
          "internalType": "bool",
          "name": "",
          "type": "bool"
        }
      ],
      "stateMutability": "view",
      "type": "function"
    },
    {
      "inputs": [],
      "name": "lastUsdcNetFeeRevenueUpdateTimestamp",
      "outputs": [
        {
          "internalType": "uint256",
          "name": "",
          "type": "uint256"
        }
      ],
      "stateMutability": "view",
      "type": "function"
    },
    {
      "inputs": [],
      "name": "lastValorUpdateTimestamp",
      "outputs": [
        {
          "internalType": "uint256",
          "name": "",
          "type": "uint256"
        }
      ],
      "stateMutability": "view",
      "type": "function"
    },
    {
      "inputs": [
        {
          "components": [
            {
              "internalType": "uint256",
              "name": "srcChainId",
              "type": "uint256"
            },
            {
              "internalType": "enum LedgerToken",
              "name": "token",
              "type": "uint8"
            },
            {
              "internalType": "uint256",
              "name": "tokenAmount",
              "type": "uint256"
            },
            {
              "internalType": "address",
              "name": "sender",
              "type": "address"
            },
            {
              "internalType": "uint8",
              "name": "payloadType",
              "type": "uint8"
            },
            {
              "internalType": "bytes",
              "name": "payload",
              "type": "bytes"
            }
          ],
          "internalType": "struct OCCVaultMessage",
          "name": "message",
          "type": "tuple"
        }
      ],
      "name": "ledgerRecvFromVault",
      "outputs": [],
      "stateMutability": "nonpayable",
      "type": "function"
    },
    {
      "inputs": [],
      "name": "maximumValorEmission",
      "outputs": [
        {
          "internalType": "uint256",
          "name": "",
          "type": "uint256"
        }
      ],
      "stateMutability": "view",
      "type": "function"
    },
    {
      "inputs": [],
      "name": "occAdaptor",
      "outputs": [
        {
          "internalType": "address",
          "name": "",
          "type": "address"
        }
      ],
      "stateMutability": "view",
      "type": "function"
    },
    {
      "inputs": [],
      "name": "orderCollector",
      "outputs": [
        {
          "internalType": "address",
          "name": "",
          "type": "address"
        }
      ],
      "stateMutability": "view",
      "type": "function"
    },
    {
      "inputs": [],
      "name": "orderTokenOft",
      "outputs": [
        {
          "internalType": "address",
          "name": "",
          "type": "address"
        }
      ],
      "stateMutability": "view",
      "type": "function"
    },
    {
      "inputs": [],
      "name": "pause",
      "outputs": [],
      "stateMutability": "nonpayable",
      "type": "function"
    },
    {
      "inputs": [],
      "name": "paused",
      "outputs": [
        {
          "internalType": "bool",
          "name": "",
          "type": "bool"
        }
      ],
      "stateMutability": "view",
      "type": "function"
    },
    {
      "inputs": [
        {
          "internalType": "uint32",
          "name": "_distributionId",
          "type": "uint32"
        },
        {
          "internalType": "bytes32",
          "name": "_merkleRoot",
          "type": "bytes32"
        },
        {
          "internalType": "uint256",
          "name": "_startTimestamp",
          "type": "uint256"
        },
        {
          "internalType": "bytes",
          "name": "_ipfsCid",
          "type": "bytes"
        }
      ],
      "name": "proposeRoot",
      "outputs": [],
      "stateMutability": "nonpayable",
      "type": "function"
    },
    {
      "inputs": [],
      "name": "proxiableUUID",
      "outputs": [
        {
          "internalType": "bytes32",
          "name": "",
          "type": "bytes32"
        }
      ],
      "stateMutability": "view",
      "type": "function"
    },
    {
      "inputs": [
        {
          "internalType": "bytes32",
          "name": "role",
          "type": "bytes32"
        },
        {
          "internalType": "address",
          "name": "callerConfirmation",
          "type": "address"
        }
      ],
      "name": "renounceRole",
      "outputs": [],
      "stateMutability": "nonpayable",
      "type": "function"
    },
    {
      "inputs": [
        {
          "internalType": "bytes32",
          "name": "role",
          "type": "bytes32"
        },
        {
          "internalType": "address",
          "name": "account",
          "type": "address"
        }
      ],
      "name": "revokeRole",
      "outputs": [],
      "stateMutability": "nonpayable",
      "type": "function"
    },
    {
      "inputs": [
        {
          "internalType": "address",
          "name": "_occAdaptor",
          "type": "address"
        }
      ],
      "name": "setOccAdaptor",
      "outputs": [],
      "stateMutability": "nonpayable",
      "type": "function"
    },
    {
      "inputs": [
        {
          "internalType": "address",
          "name": "_orderCollector",
          "type": "address"
        }
      ],
      "name": "setOrderCollector",
      "outputs": [],
      "stateMutability": "nonpayable",
      "type": "function"
    },
    {
      "inputs": [
        {
          "internalType": "contract IOFT",
          "name": "_orderTokenOft",
          "type": "address"
        }
      ],
      "name": "setOrderTokenOft",
      "outputs": [],
      "stateMutability": "nonpayable",
      "type": "function"
    },
    {
      "inputs": [
        {
          "internalType": "uint256",
          "name": "_valorPerSecond",
          "type": "uint256"
        }
      ],
      "name": "setValorPerSecond",
      "outputs": [],
      "stateMutability": "nonpayable",
      "type": "function"
    },
    {
      "inputs": [
        {
          "internalType": "uint256",
          "name": "",
          "type": "uint256"
        }
      ],
      "name": "srcChainIdToEventId",
      "outputs": [
        {
          "internalType": "uint256",
          "name": "",
          "type": "uint256"
        }
      ],
      "stateMutability": "view",
      "type": "function"
    },
    {
      "inputs": [],
      "name": "startTimestamp",
      "outputs": [
        {
          "internalType": "uint256",
          "name": "",
          "type": "uint256"
        }
      ],
      "stateMutability": "view",
      "type": "function"
    },
    {
      "inputs": [
        {
          "internalType": "bytes4",
          "name": "interfaceId",
          "type": "bytes4"
        }
      ],
      "name": "supportsInterface",
      "outputs": [
        {
          "internalType": "bool",
          "name": "",
          "type": "bool"
        }
      ],
      "stateMutability": "view",
      "type": "function"
    },
    {
      "inputs": [],
      "name": "totalStakedAmount",
      "outputs": [
        {
          "internalType": "uint256",
          "name": "",
          "type": "uint256"
        }
      ],
      "stateMutability": "view",
      "type": "function"
    },
    {
      "inputs": [],
      "name": "totalUsdcInTreasure",
      "outputs": [
        {
          "internalType": "uint256",
          "name": "",
          "type": "uint256"
        }
      ],
      "stateMutability": "view",
      "type": "function"
    },
    {
      "inputs": [],
      "name": "totalValorAmount",
      "outputs": [
        {
          "internalType": "uint256",
          "name": "",
          "type": "uint256"
        }
      ],
      "stateMutability": "view",
      "type": "function"
    },
    {
      "inputs": [],
      "name": "totalValorEmitted",
      "outputs": [
        {
          "internalType": "uint256",
          "name": "",
          "type": "uint256"
        }
      ],
      "stateMutability": "view",
      "type": "function"
    },
    {
      "inputs": [],
      "name": "unpause",
      "outputs": [],
      "stateMutability": "nonpayable",
      "type": "function"
    },
    {
      "inputs": [],
      "name": "unstakeLockPeriod",
      "outputs": [
        {
          "internalType": "uint256",
          "name": "",
          "type": "uint256"
        }
      ],
      "stateMutability": "view",
      "type": "function"
    },
    {
      "inputs": [
        {
          "internalType": "uint32",
          "name": "_distributionId",
          "type": "uint32"
        }
      ],
      "name": "updateRoot",
      "outputs": [],
      "stateMutability": "nonpayable",
      "type": "function"
    },
    {
      "inputs": [],
      "name": "updateValorVars",
      "outputs": [],
      "stateMutability": "nonpayable",
      "type": "function"
    },
    {
      "inputs": [
        {
          "internalType": "address",
          "name": "newImplementation",
          "type": "address"
        },
        {
          "internalType": "bytes",
          "name": "data",
          "type": "bytes"
        }
      ],
      "name": "upgradeToAndCall",
      "outputs": [],
      "stateMutability": "payable",
      "type": "function"
    },
    {
      "inputs": [
        {
          "internalType": "address",
          "name": "",
          "type": "address"
        }
      ],
      "name": "userPendingUnstake",
      "outputs": [
        {
          "internalType": "uint256",
          "name": "balanceOrder",
          "type": "uint256"
        },
        {
          "internalType": "uint256",
          "name": "unlockTimestamp",
          "type": "uint256"
        }
      ],
      "stateMutability": "view",
      "type": "function"
    },
    {
      "inputs": [
        {
          "internalType": "address",
          "name": "_user",
          "type": "address"
        }
      ],
      "name": "userTotalStakingBalance",
      "outputs": [
        {
          "internalType": "uint256",
          "name": "",
          "type": "uint256"
        }
      ],
      "stateMutability": "view",
      "type": "function"
    },
    {
      "inputs": [],
      "name": "valorPerSecond",
      "outputs": [
        {
          "internalType": "uint256",
          "name": "",
          "type": "uint256"
        }
      ],
      "stateMutability": "view",
      "type": "function"
    },
    {
      "inputs": [],
      "name": "valorToUsdcRateScaled",
      "outputs": [
        {
          "internalType": "uint256",
          "name": "",
          "type": "uint256"
        }
      ],
      "stateMutability": "view",
      "type": "function"
    },
    {
      "inputs": [],
      "name": "vestingLinearPeriod",
      "outputs": [
        {
          "internalType": "uint256",
          "name": "",
          "type": "uint256"
        }
      ],
      "stateMutability": "view",
      "type": "function"
    },
    {
      "inputs": [],
      "name": "vestingLockPeriod",
      "outputs": [
        {
          "internalType": "uint256",
          "name": "",
          "type": "uint256"
        }
      ],
      "stateMutability": "view",
      "type": "function"
    }
  ],
  "transactionHash": "0x0ef5923f4185267abae52df98097e2ee274ed248f6d1c67a043275f480ec159f",
  "args": [],
  "numDeployments": 2,
  "solcInputHash": "ef52db56b6013d318e2f3e7cbf91f220",
  "bytecode": "0x60a06040523060805234801561001457600080fd5b50608051615a406200003f600039600081816131030152818161312c01526132700152615a406000f3fe6080604052600436106103ef5760003560e01c80638015647f11610208578063b32c4d8d11610118578063d9ab2c5c116100ab578063e720ac8e1161007a578063e720ac8e14610caa578063e7bacc3014610cd2578063ec81bf9314610cf2578063f9d60e2114610d08578063ffa1ad7414610d2857600080fd5b8063d9ab2c5c14610c3c578063dccfd38d14610c5e578063e0d519db14610c74578063e6fd48bc14610c9457600080fd5b8063d0c01ccd116100e7578063d0c01ccd14610bc6578063d547741f14610be6578063d7c41c7914610c06578063d84aaaff14610c2657600080fd5b8063b32c4d8d14610b29578063b62a7d8014610b66578063caefe41314610b7c578063ccd4cf1214610bb057600080fd5b80639aefd8861161019b578063aa4704f31161016a578063aa4704f314610a47578063ab7b18be14610a85578063ad3cb1cc14610a9b578063b15fb23914610ad9578063b2077fe814610af957600080fd5b80639aefd886146109b3578063a0cd44c3146109c9578063a217fddf14610a12578063a2c7d9ae14610a2757600080fd5b806390999c4f116101d757806390999c4f14610930578063909d19091461095d57806391d1485414610973578063934012161461099357600080fd5b80638015647f146108bb5780638456cb59146108db578063892735ed146108f05780638e9a2dd21461091057600080fd5b80634f1ef286116103035780635c975abb116102965780636b1f8c0d116102655780636b1f8c0d146108105780636dd373ed1461083057806373250c081461085057806374ae2e2e146108665780637d143b521461088657600080fd5b80635c975abb146107955780635dc5e052146107ba578063628a794d146107d057806364f4463c146107f057600080fd5b806352d1902d116102d257806352d1902d1461072a578063562a54f81461073f578063567e98f91461075f5780635b97527f1461077557600080fd5b80634f1ef286146106885780634f60032e1461069b578063512bb365146106ea57806352580b5a1461070a57600080fd5b806330b667a6116103865780633f93d261116103555780633f93d261146105cc578063415a483f146105ec578063443c96231461060157806346582865146106395780634d1d882a1461065957600080fd5b806330b667a61461054a57806336568abe146105775780633cef26ec146105975780633f4ba83a146105b757600080fd5b806328a9fdec116103c257806328a9fdec1461049a57806328bcd70e146104e55780632c3a2e97146104fb5780632f2ff15d1461052857600080fd5b806301ffc9a7146103f45780630877bc8514610429578063248a9ca31461045657806326bf1c0314610484575b600080fd5b34801561040057600080fd5b5061041461040f366004614c02565b610d56565b60405190151581526020015b60405180910390f35b34801561043557600080fd5b50610449610444366004614c43565b610d8d565b6040516104209190614c5e565b34801561046257600080fd5b50610476610471366004614cad565b610e0c565b604051908152602001610420565b34801561049057600080fd5b5061047660115481565b3480156104a657600080fd5b506104766104b5366004614ced565b63ffffffff821660009081526003602090815260408083206001600160a01b038516845290915290205492915050565b3480156104f157600080fd5b5061047660095481565b34801561050757600080fd5b5061051b610516366004614d26565b610e2e565b6040516104209190614d43565b34801561053457600080fd5b50610548610543366004614d8f565b610eb9565b005b34801561055657600080fd5b50610476610565366004614d26565b600b6020526000908152604090205481565b34801561058357600080fd5b50610548610592366004614d8f565b610edb565b3480156105a357600080fd5b506104766105b2366004614db4565b610f13565b3480156105c357600080fd5b50610548610f50565b3480156105d857600080fd5b506105486105e7366004614eee565b610f66565b3480156105f857600080fd5b50610548611251565b34801561060d57600080fd5b50601954610621906001600160a01b031681565b6040516001600160a01b039091168152602001610420565b34801561064557600080fd5b50610548610654366004614cad565b611275565b34801561066557600080fd5b50610679610674366004614fab565b61137b565b60405161042093929190615018565b610548610696366004615037565b611440565b3480156106a757600080fd5b506106bb6106b6366004614c43565b61145b565b604051610420959493929190948552602085019390935290151560408401526060830152608082015260a00190565b3480156106f657600080fd5b50601854610621906001600160a01b031681565b34801561071657600080fd5b50610476610725366004614d26565b6114dd565b34801561073657600080fd5b5061047661151e565b34801561074b57600080fd5b5061054861075a366004614d26565b61153b565b34801561076b57600080fd5b50610476600e5481565b34801561078157600080fd5b50610548610790366004614c43565b611569565b3480156107a157600080fd5b506000805160206159eb8339815191525460ff16610414565b3480156107c657600080fd5b5061047660075481565b3480156107dc57600080fd5b50601a54610621906001600160a01b031681565b3480156107fc57600080fd5b5061047661080b366004614d26565b61167f565b34801561081c57600080fd5b5061041461082b366004614fab565b6116ab565b34801561083c57600080fd5b5061054861084b366004614d26565b6116e9565b34801561085c57600080fd5b50610476600a5481565b34801561087257600080fd5b50610449610881366004614c43565b611717565b34801561089257600080fd5b506104146108a1366004614fab565b63ffffffff16600090815260026020526040902054151590565b3480156108c757600080fd5b506105486108d6366004614cad565b6117df565b3480156108e757600080fd5b506105486117f0565b3480156108fc57600080fd5b5061041461090b366004614fab565b611803565b34801561091c57600080fd5b5061054861092b3660046150ce565b611838565b34801561093c57600080fd5b5061047661094b366004614cad565b60006020819052908152604090205481565b34801561096957600080fd5b5061047660045481565b34801561097f57600080fd5b5061041461098e366004614d8f565b611873565b34801561099f57600080fd5b506105486109ae366004615137565b6118ab565b3480156109bf57600080fd5b5061047660175481565b3480156109d557600080fd5b506109fd6109e4366004614d26565b600d602052600090815260409020805460019091015482565b60408051928352602083019190915201610420565b348015610a1e57600080fd5b50610476600081565b348015610a3357600080fd5b50610476610a42366004614d26565b611a7c565b348015610a5357600080fd5b506109fd610a62366004614d26565b6001600160a01b03166000908152600c6020526040902080546001909101549091565b348015610a9157600080fd5b50610476600f5481565b348015610aa757600080fd5b50610acc604051806040016040528060058152602001640352e302e360dc1b81525081565b60405161042091906151b0565b348015610ae557600080fd5b50610476610af43660046151c3565b611aa5565b348015610b0557600080fd5b50610b19610b14366004614fab565b611c56565b6040516104209493929190615239565b348015610b3557600080fd5b50610b49610b44366004614cad565b611e02565b604080519315158452602084019290925290820152606001610420565b348015610b7257600080fd5b5061047660165481565b348015610b8857600080fd5b506104767fd4633f2ee6e04337d84b8278c3b807b75336f88e5e4656e625419ef1258e9af181565b348015610bbc57600080fd5b5061047660105481565b348015610bd257600080fd5b506104766b033b2e3c9fd0803ce800000081565b348015610bf257600080fd5b50610548610c01366004614d8f565b611e39565b348015610c1257600080fd5b50610548610c21366004615265565b611e55565b348015610c3257600080fd5b5061047660055481565b348015610c4857600080fd5b5061047660008051602061598b83398151915281565b348015610c6a57600080fd5b5061047660065481565b348015610c8057600080fd5b50610548610c8f366004614d26565b611fd0565b348015610ca057600080fd5b5061047660135481565b348015610cb657600080fd5b50610cbf611ffe565b60405161ffff9091168152602001610420565b348015610cde57600080fd5b50610548610ced366004614fab565b612037565b348015610cfe57600080fd5b5061047660085481565b348015610d1457600080fd5b50610476610d23366004614c43565b612150565b348015610d3457600080fd5b506040805180820190915260058152640312e302e360dc1b6020820152610acc565b60006001600160e01b03198216637965db0b60e01b1480610d8757506301ffc9a760e01b6001600160e01b03198316145b92915050565b6060610d98826121fc565b600301805480602002602001604051908101604052809291908181526020016000905b82821015610e0157838290600052602060002090600202016040518060400160405290816000820154815260200160018201548152505081526020019060010190610dbb565b505050509050919050565b60009081526000805160206159cb833981519152602052604090206001015490565b6001600160a01b0381166000908152601560209081526040808320600101805482518185028101850190935280835260609492939192909184015b82821015610e015783829060005260206000209060030201604051806060016040529081600082015481526020016001820154815260200160028201548152505081526020019060010190610e69565b610ec282610e0c565b610ecb81612251565b610ed5838361225b565b50505050565b6001600160a01b0381163314610f045760405163334bd91960e11b815260040160405180910390fd5b610f0e8282612300565b505050565b6000610f49610f22848461237c565b60408051606081018252825481526001830154602082015260029092015490820152612461565b9392505050565b6000610f5b81612251565b610f636124ed565b50565b6019546001600160a01b03163314610fb65760405162461bcd60e51b815260206004820152600e60248201526d27b7363ca7a1a1a0b230b83a37b960911b60448201526064015b60405180910390fd5b608081015160ff16610fff5760008160a00151806020019051810190610fdc91906152d3565b80516060840151845160208401516040850151949550610ffb9461254d565b5050565b600160ff16816080015160ff160361102d57610f638160600151826000015183602001518460400151612666565b600260ff16816080015160ff160361106e5760008160a001518060200190518101906110599190615403565b606083015183518251929350610ffb926127b9565b600360ff16816080015160ff160361109257610ffb81606001518260000151612999565b600460ff16816080015160ff16036110b657610f6381606001518260000151612b1a565b600560ff16816080015160ff16036110f75760008160a001518060200190518101906110e29190615403565b606083015183518251929350610ffb92612bf1565b600660ff16816080015160ff16036111555760008160a001518060200190518101906111239190615403565b9050600061113e836060015184600001518460000151612c07565b9050610f0e83606001518460000151600184612666565b600760ff16816080015160ff160361119257600061117b82606001518360000151612d29565b9050610ffb82606001518360000151600184612666565b600860ff16816080015160ff16036111d35760008160a001518060200190518101906111be9190615403565b606083015183518251929350610ffb92612ed9565b600960ff16816080015160ff16036112145760008160a001518060200190518101906111ff9190615403565b606083015183518251929350610ffb92612fc7565b600a60ff16816080015160ff160361123857610f6381606001518260000151612fdb565b604051634440024f60e01b815260040160405180910390fd5b611259613026565b600f544211156112735761126b613057565b60105542600f555b565b7fd4633f2ee6e04337d84b8278c3b807b75336f88e5e4656e625419ef1258e9af161129f81612251565b6008546112ae9061a8c0615435565b4210156112ce57604051636c8b246360e01b815260040160405180910390fd5b4260088190555081600960008282546112e79190615435565b909155505060075415611320576007546b033b2e3c9fd0803ce80000006009546113119190615448565b61131b919061545f565b611323565b60005b600a819055600954600754604080518681526020810193909352820152606081019190915242907fbbd8342b1e1fe32712ce056fbd76edab76635724aa81f9f63cae57b5918fb4829060800160405180910390a25050565b63ffffffff8116600090815260026020819052604082208054600182015491909201805484936060939092909181906113b390615481565b80601f01602080910402602001604051908101604052809291908181526020018280546113df90615481565b801561142c5780601f106114015761010080835404028352916020019161142c565b820191906000526020600020905b81548152906001019060200180831161140f57829003601f168201915b505050505090509250925092509193909250565b6114486130f8565b6114518261319d565b610ffb82826131a8565b6000808080806114726212750061ffff8816615448565b60135461147f9190615435565b945061148e6212750086615435565b60125490945061ffff871610156114ca5760006114aa876121fc565b8054600182015460029092015460ff909116955090935091506114d49050565b5060009150819050805b91939590929450565b6001600160a01b0381166000908152600d60205260408120600181015415806115095750806001015442105b156115175750600092915050565b5492915050565b6000611528613265565b506000805160206159ab83398151915290565b600061154681612251565b50601980546001600160a01b0319166001600160a01b0392909216919091179055565b600061157481612251565b61157c611ffe565b61ffff168261ffff16106115a357604051637dd2cb5d60e11b815260040160405180910390fd5b60006115ae836121fc565b905080600201546000036115d557604051631957b3ff60e31b815260040160405180910390fd5b805460ff16156115e457505050565b8060010154600760008282546115fa91906154b5565b9091555050600281015460018201546b033b2e3c9fd0803ce80000009161162091615448565b61162a919061545f565b6009600082825461163b91906154b5565b9091555050805460ff1916600117815560405161ffff8416907f6eac907c1eaf34119620cb19afb9703e14b837a593b2701476d771ce2250b13390600090a2505050565b6001600160a01b0381166000908152600b60205260408120546116a1836132ae565b610d879190615435565b63ffffffff811660009081526002602052604081205415158015610d8757505063ffffffff1660009081526002602052604090206001015442101590565b60006116f481612251565b50601880546001600160a01b0319166001600160a01b0392909216919091179055565b60606000611724836121fc565b6003810180546040805160208084028201810190925282815293945060009084015b8282101561178c57838290600052602060002090600202016040518060400160405290816000820154815260200160018201548152505081526020019060010190611746565b50505050915060005b82518110156117d85781600201548382815181106117b5576117b56154c8565b60200260200101516020018181516117cd9190615448565b905250600101611795565b5050919050565b60006117ea81612251565b50600455565b60006117fb81612251565b610f636132dd565b6000600163ffffffff831660009081526001602052604090205460ff16600381111561183157611831615201565b1492915050565b611840613326565b61185760008051602061598b833981519152612251565b6118648585858585613370565b61186c61358c565b5050505050565b60009182526000805160206159cb833981519152602090815260408084206001600160a01b0393909316845291905290205460ff1690565b6118b3613326565b6118ca60008051602061598b833981519152612251565b63ffffffff86166000908152600160205260409020600201541561190157604051630ed16a0560e31b815260040160405180910390fd5b600085600381111561191557611915615201565b141580156119355750600185600381111561193257611932615201565b14155b156119535760405163a24e5e1360e01b815260040160405180910390fd5b604051806040016040528086600381111561197057611970615201565b81526040805160608101825260008082526001602083810182905284518082018652838152848601529485019290925263ffffffff8b1681529281905291208251815491929091839160ff19909116908360038111156119d2576119d2615201565b021790555060208201518160010160008201518160000155602082015181600101556040820151816002019081611a099190615526565b505050905050611a1c8685858585613370565b8563ffffffff16611a2d60006135b2565b7f8d61f909218b17b213ad8a66ec2ae4b2ac62449ea7b35d9d6396cb7df96e95b88787878787604051611a6495949392919061560e565b60405180910390a3611a7461358c565b505050505050565b6001600160a01b0381166000908152600c6020526040812060018101549054610d879190615435565b6000805b6001600160a01b038516600090815260146020526040902060010154811015611c4b576001600160a01b0385166000908152601460205260409020600101805461ffff8616919083908110611b0057611b006154c8565b600091825260209091206002909102015461ffff1603611c435760005b6001600160a01b0386166000908152601460205260409020600101805483908110611b4a57611b4a6154c8565b906000526020600020906002020160010180549050811015611c41576001600160a01b0386166000908152601460205260409020600101805485919084908110611b9657611b966154c8565b90600052602060002090600202016001018281548110611bb857611bb86154c8565b90600052602060002090600202016000015403611c39576001600160a01b0386166000908152601460205260409020600101805483908110611bfc57611bfc6154c8565b90600052602060002090600202016001018181548110611c1e57611c1e6154c8565b90600052602060002090600202016001015492505050610f49565b600101611b1d565b505b600101611aa9565b506000949350505050565b60008060006060611c66856116ab565b15611d345763ffffffff851660009081526001602081815260408084205460029283905293208054928101549101805460ff909416938190611ca790615481565b80601f0160208091040260200160405190810160405280929190818152602001828054611cd390615481565b8015611d205780601f10611cf557610100808354040283529160200191611d20565b820191906000526020600020905b815481529060010190602001808311611d0357829003601f168201915b505050505090509350935093509350611dfb565b63ffffffff8516600090815260016020819052604090912080549181015460028201546003909201805460ff909416939192918190611d7290615481565b80601f0160208091040260200160405190810160405280929190818152602001828054611d9e90615481565b8015611deb5780601f10611dc057610100808354040283529160200191611deb565b820191906000526020600020905b815481529060010190602001808311611dce57829003601f168201915b5050505050905093509350935093505b9193509193565b60128181548110611e1257600080fd5b600091825260209091206004909102018054600182015460029092015460ff909116925083565b611e4282610e0c565b611e4b81612251565b610ed58383612300565b7ff0c57e16840df040f15088dc2f81fe391c3923bec73e23a9662efc9c229c6a008054600160401b810460ff1615906001600160401b0316600081158015611e9a5750825b90506000826001600160401b03166001148015611eb65750303b155b905081158015611ec4575080155b15611ee25760405163f92ee8a960e01b815260040160405180910390fd5b845467ffffffffffffffff191660011785558315611f0c57845460ff60401b1916600160401b1785555b611f158b6135e5565b611f1e8b613610565b611f298b8888613630565b611f328b61366f565b611f3c8b42613685565b611f4d6213c6806262e0808b61369f565b601a80546001600160a01b03808b166001600160a01b03199283161790925560198054928d16929091169190911790558315611fc357845460ff60401b19168555604051600181527fc7f505b2f371ae2175ee4913f4499e1f2633a7b5936321eed1cdaeb6115181d29060200160405180910390a15b5050505050505050505050565b6000611fdb81612251565b50601a80546001600160a01b0319166001600160a01b0392909216919091179055565b601354600090429081101561201557600091505090565b621275006013548261202791906154b5565b612031919061545f565b91505090565b61203f613026565b612048816116ab565b612065576040516326175e1b60e21b815260040160405180910390fd5b63ffffffff8116600090815260026020818152604080842060019283905293208354818301908155918401548184015590916003909101906120a990840182615646565b50505063ffffffff8116600090815260026020819052604082208281556001810183905591906120db90830182614ad4565b50508063ffffffff166120ee60006135b2565b63ffffffff831660009081526001602081905260409182902090810154600282015492517f01752a325882177ceb45901f8433de77f4e854bba0392f8454591ec8022517bc93612145939091600390910190615718565b60405180910390a350565b60008061215c81612251565b612164611ffe565b61ffff168361ffff161061218b57604051637dd2cb5d60e11b815260040160405180910390fd5b600061219684613713565b905080600201546000036121ad57600a5460028201555b8361ffff167f605f4fc760dbfc8600370aa812edc813327cd01f0c909d737ae7cdd5397af37782600201546040516121e791815260200190565b60405180910390a26002015491505b50919050565b60125460009061ffff831610612225576040516305b7010560e51b815260040160405180910390fd5b60128261ffff168154811061223c5761223c6154c8565b90600052602060002090600402019050919050565b610f63813361373d565b60006000805160206159cb8339815191526122768484611873565b6122f6576000848152602082815260408083206001600160a01b03871684529091529020805460ff191660011790556122ac3390565b6001600160a01b0316836001600160a01b0316857f2f8788117e7eff1d82e926ec794901d17c78024a50270940304540a733656f0d60405160405180910390a46001915050610d87565b6000915050610d87565b60006000805160206159cb83398151915261231b8484611873565b156122f6576000848152602082815260408083206001600160a01b0387168085529252808320805460ff1916905551339287917ff6391f5c32d9c69d2a47ea670b442974b53935d1edc7fd64eb21e047a839171b9190a46001915050610d87565b6000805b6001600160a01b038416600090815260156020526040902060010154811015612435576001600160a01b03841660009081526015602052604090206001018054849190839081106123d3576123d36154c8565b9060005260206000209060030201600001540361242d576001600160a01b0384166000908152601560205260409020600101805482908110612417576124176154c8565b9060005260206000209060030201915050610d87565b600101612380565b50604051632b8e927b60e01b81526001600160a01b038416600482015260248101839052604401610fad565b60008160200151600014806124795750816040015142105b1561248657506000919050565b600082604001514261249891906154b5565b90506017548111156124a957506017545b60026017548285602001516124be9190615448565b6124c8919061545f565b6124d2919061545f565b600284602001516124e3919061545f565b610f499190615435565b6124f5613776565b6000805160206159eb833981519152805460ff191681557f5db9ee0a495bf2e6ff9c91a7834c1ba4fdd244a5e8aa4e537bd38aeae4b073aa335b6040516001600160a01b03909116815260200160405180910390a150565b60008061255d87878787876137a6565b915091508060001461265d57600182600381111561257d5761257d615201565b0361258e5761258e86868484612666565b60006040518060c001604052808781526020018460038111156125b3576125b3615201565b8152602081018490526001600160a01b0389166040820152606001600b60ff168152604080518082018252600381526203078360ec1b6020828101919091529092019190915260195490516316369c1960e11b81529192506001600160a01b031690632c6d3832906126299084906004016157b7565b600060405180830381600087803b15801561264357600080fd5b505af1158015612657573d6000803e3d6000fd5b50505050505b50505050505050565b61266e613326565b612676613026565b80600003612697576040516310eb483f60e21b815260040160405180910390fd5b60018260038111156126ab576126ab615201565b11156126ca5760405163350b944160e11b815260040160405180910390fd5b6126d384613994565b6001600160a01b0384166000908152600c6020526040902081908360038111156126ff576126ff615201565b6002811061270f5761270f6154c8565b01600082825461271f9190615435565b9091555061272e905084613a10565b6001600160a01b0385166000908152600c6020526040812060020191909155600e805483929061275f908490615435565b90915550506001600160a01b03841683612778816135b2565b7f99f9c5a56f286a152d0b60bd8851853878e05bb243daeaf47f4c30001598791684866040516127a9929190615818565b60405180910390a4610ed561358c565b6127c1613326565b6127c9613026565b806000036127ea576040516310eb483f60e21b815260040160405180910390fd5b6001600160a01b0383166000908152600c602052604090205481111561282657600060405163348ee39760e11b8152600401610fad919061582c565b61282f83613994565b6001600160a01b0383166000908152600c6020526040812080548392906128579084906154b5565b90915550612866905083613a10565b6001600160a01b0384166000908152600c6020526040812060020191909155600e80548392906128979084906154b5565b90915550506001600160a01b0383166000908152600d6020526040812080548392906128c4908490615435565b90915550506011546128d69042615435565b6001600160a01b0384166000818152600d6020526040902060010191909155826128ff816135b2565b6040518481527f7956786f9c0614d721d7fd931301980a0399dfb0b38c81bafdfff0597c3290e49060200160405180910390a46001600160a01b0383166000818152600d602052604090819020805460019091015491517f7c2a5998b04a0c7a7d3a1ac3a0add65ac29f4647966110e357c7aa42e5e7ca2192612989928252602082015260400190565b60405180910390a2610f0e61358c565b60006129a3613326565b6129ab613026565b6001600160a01b0383166000908152600d602052604081206001015490036129e6576040516365e134c160e11b815260040160405180910390fd5b6129ef83613994565b506001600160a01b0382166000908152600d6020908152604080832054600c9092528220805491928392612a24908490615435565b90915550612a33905083613a10565b6001600160a01b0384166000908152600c6020526040812060020191909155600e8054839290612a64908490615435565b90915550506001600160a01b03831682612a7d816135b2565b6040518481527f45bc7039355216afb8dd7eb1bc73c6f9ebfcdf5b722d3b99055d05ce03847f6e906020015b60405180910390a46001600160a01b0383166000818152600d6020526040808220828155600101829055517f7c2a5998b04a0c7a7d3a1ac3a0add65ac29f4647966110e357c7aa42e5e7ca2191612b0a918190918252602082015260400190565b60405180910390a2610d8761358c565b6000612b268383613a40565b90508015610f0e576040805160c0810182528381526000602082018190529181018390526001600160a01b038516606082015260808101600c5b60ff168152604080518082018252600381526203078360ec1b6020828101919091529092019190915260195490516316369c1960e11b81529192506001600160a01b031690632c6d383290612bb99084906004016157b7565b600060405180830381600087803b158015612bd357600080fd5b505af1158015612be7573d6000803e3d6000fd5b5050505050505050565b612bfc838383613b35565b610f0e838383613c6f565b6000612c11613026565b612c19613326565b6000612c25858461237c565b6001808201546001600160a01b038816600090815260156020526040902082018054919550929350612c5791906154b5565b81548110612c6757612c676154c8565b9060005260206000209060030201905060156000866001600160a01b03166001600160a01b03168152602001908152602001600020600101805480612cae57612cae61583a565b600082815260208120600360001990930192830201818155600181018290556002015590556001600160a01b03851684612ce7816135b2565b60408051878152602081018790527f3b3e48ba8b2a66a9706f50fc095a4fcb8f4c25da19c7a6aeab3df6a826d5bcd9910160405180910390a450610f4961358c565b6000612d33613026565b612d3b613326565b6001600160a01b038316600090815260156020908152604080832081518083018352815481526001820180548451818702810187019095528085529194929385840193909290879084015b82821015612dd65783829060005260206000209060030201604051806060016040529081600082015481526020016001820154815260200160028201548152505081526020019060010190612d86565b5050505081525050905060005b816020015151811015612ea457600082602001518281518110612e0857612e086154c8565b60200260200101516020015190508084612e229190615435565b9350856001600160a01b031685612e38876135b2565b7f3b3e48ba8b2a66a9706f50fc095a4fcb8f4c25da19c7a6aeab3df6a826d5bcd986602001518681518110612e6f57612e6f6154c8565b60200260200101516000015185604051612e93929190918252602082015260400190565b60405180910390a450600101612de3565b506001600160a01b038416600090815260156020526040812081815590612ece6001830182614b0e565b505050610d8761358c565b600080612ee7858585613d91565b9150915081600014612fa4576040805160c08101825285815260006020808301919091528183018590526001600160a01b038881166060840152600d608084015283518085018552600381526203078360ec1b9281019290925260a083019190915260195492516316369c1960e11b815291921690632c6d383290612f709084906004016157b7565b600060405180830381600087803b158015612f8a57600080fd5b505af1158015612f9e573d6000803e3d6000fd5b50505050505b801561186c57601854601a5461186c916001600160a01b03918216911683613f3e565b612fd083613994565b610f0e838383613f90565b6000612fe78383614125565b90508015610f0e576040805160c081018252838152600260208201529081018290526001600160a01b038416606082015260009060808101600e612b60565b6000805160206159eb8339815191525460ff16156112735760405163d93c066560e01b815260040160405180910390fd5b6000600f544211158061306a5750600e54155b15613076575060105490565b601054600f5460009061308990426154b5565b905060006004548261309b9190615448565b9050600554816006546130ae9190615435565b11156130c7576006546005546130c491906154b5565b90505b600e546130dc670de0b6b3a764000083615448565b6130e6919061545f565b6130f09084615435565b949350505050565b306001600160a01b037f000000000000000000000000000000000000000000000000000000000000000016148061317f57507f00000000000000000000000000000000000000000000000000000000000000006001600160a01b03166131736000805160206159ab833981519152546001600160a01b031690565b6001600160a01b031614155b156112735760405163703e46dd60e11b815260040160405180910390fd5b6000610ffb81612251565b816001600160a01b03166352d1902d6040518163ffffffff1660e01b8152600401602060405180830381865afa925050508015613202575060408051601f3d908101601f191682019092526131ff91810190615850565b60015b61322a57604051634c9c8ce360e01b81526001600160a01b0383166004820152602401610fad565b6000805160206159ab833981519152811461325b57604051632a87526960e21b815260048101829052602401610fad565b610f0e83836141ee565b306001600160a01b037f000000000000000000000000000000000000000000000000000000000000000016146112735760405163703e46dd60e11b815260040160405180910390fd5b6001600160a01b0381166000908152600c60205260408120600201546132d383613a10565b610d8791906154b5565b6132e5613026565b6000805160206159eb833981519152805460ff191660011781557f62e78cea01bee320cd4e420270b5ea74000d11b0c9f74754ebdbfc544b05a2583361252f565b7f9b779b17422d0df92223018b32b4d1fa46e071723d6817e2486d003becc55f0080546001190161336a57604051633ee5aeb560e01b815260040160405180910390fd5b60029055565b63ffffffff85166000908152600160205260409020600201546133a657604051633a35c2f960e01b815260040160405180910390fd5b836133c457604051633f4b0e7b60e11b815260040160405180910390fd5b428310156133e557604051631b8e7db960e11b815260040160405180910390fd5b63ffffffff851660009081526002602052604090205484148015613420575063ffffffff851660009081526002602052604090206001015483145b80156134785750600260008663ffffffff1663ffffffff1681526020019081526020016000206002016040516134569190615869565b6040518091039020828260405161346e9291906158df565b6040518091039020145b1561349657604051630faec0d960e01b815260040160405180910390fd5b61349f856116ab565b156134ad576134ad85612037565b604051806060016040528085815260200184815260200183838080601f016020809104026020016040519081016040528093929190818152602001838380828437600092018290525093909452505063ffffffff881681526002602081815260409283902085518155908501516001820155918401519192508201906135339082615526565b509050508463ffffffff1661354860006135b2565b7f6e036d1d8b54cadd52175820bedacecb3423ac485fa12c23c87321592bffb7758686868660405161357d94939291906158ef565b60405180910390a35050505050565b60017f9b779b17422d0df92223018b32b4d1fa46e071723d6817e2486d003becc55f0055565b6000818152602081905260408120805490826135cd8361590f565b90915550505060009081526020819052604090205490565b6135ed614244565b6135f561428d565b6135fd614295565b6136056142a5565b610ffb60008261225b565b613618614244565b610ffb60008051602061598b8339815191528261225b565b613638614244565b6136627fd4633f2ee6e04337d84b8278c3b807b75336f88e5e4656e625419ef1258e9af18461225b565b5060049190915560055550565b613677614244565b5062093a8060115542600f55565b61368d614244565b60135550601280546001018155600052565b6136a7614244565b826000036136c857604051631abc316360e21b815260040160405180910390fd5b816000036136e957604051638c400e3b60e01b815260040160405180910390fd5b601692909255601755601880546001600160a01b0319166001600160a01b03909216919091179055565b60005b60125461ffff83161061373457601280546001018155600052613716565b610d87826121fc565b6137478282611873565b610ffb5760405163e2517d3f60e01b81526001600160a01b038216600482015260248101839052604401610fad565b6000805160206159eb8339815191525460ff1661127357604051638dfc202b60e01b815260040160405180910390fd5b6000806137b1613026565b6137b9613326565b6137c2876116ab565b156137d0576137d087612037565b63ffffffff871660009081526001602052604090206002015461380657604051633a35c2f960e01b815260040160405180910390fd5b63ffffffff8716600090815260016020819052604090912001805461383e576040516359bd390560e11b815260040160405180910390fd5b8054604080516001600160a01b038a16602082015290810187905260009060600160408051601f198184030181528282528051602091820120908301520160405160208183030381529060405280519060200120905061389f8683836142b5565b6138bc5760405163582f497d60e11b815260040160405180910390fd5b50505063ffffffff871660009081526003602090815260408083206001600160a01b038a1684529091529020546138f390856154b5565b63ffffffff8816600090815260016020908152604080832054600383528184206001600160a01b038c16855290925290912086905560ff16925090508015613982578663ffffffff1685613946876135b2565b7f44a849f31027c891cb7e817e7c8df6b1541f745395ba940daeec387b283f39ab89858760405161397993929190615928565b60405180910390a45b61398a61358c565b9550959350505050565b61399c611251565b60006139a7826132ae565b90508015610ffb576001600160a01b0382166000908152600c6020526040812060020180548392906139da908490615435565b90915550506001600160a01b0382166000908152600b602052604081208054839290613a07908490615435565b90915550505050565b6000670de0b6b3a7640000613a23613057565b613a2c84611a7c565b613a369190615448565b610d87919061545f565b6000613a4a613326565b613a52613026565b6001600160a01b0383166000908152600d60205260408120600101549003613a8d576040516365e134c160e11b815260040160405180910390fd5b6001600160a01b0383166000908152600d6020526040902060010154421015613ac957604051638a27b5a160e01b815260040160405180910390fd5b506001600160a01b0382166000908152600d60205260409020548015613b2d57826001600160a01b031682613afd846135b2565b6040518481527f190e540afa0f1919c2b4de58858bd15ec79dde6231ca4b3be2cb0bde4eede0c790602001612aa9565b610d8761358c565b613b3d613326565b613b45613026565b80600003613b66576040516310eb483f60e21b815260040160405180910390fd5b6001600160a01b0383166000908152600c602052604090208190600101541015613ba657600160405163348ee39760e11b8152600401610fad919061582c565b613baf83613994565b6001600160a01b0383166000908152600c6020526040902081906001016000828254613bdb91906154b5565b90915550613bea905083613a10565b6001600160a01b0384166000908152600c6020526040812060020191909155600e8054839290613c1b9084906154b5565b90915550506001600160a01b03831682613c34816135b2565b6040518481527f1fa0c4284b9958e80cb828a1863b89b2a40ff9dc4cdc149ac88490bc609a91959060200160405180910390a4610f0e61358c565b613c77613026565b613c7f613326565b80600003613ca05760405163f7cb25ad60e01b815260040160405180910390fd5b6001600160a01b038316600090815260156020908152604080832081516060810183528154815292830185905260165490939291820190613ce19042615435565b905260018084018054808301825560009182526020808320855160039093020191825584015192810192909255604083015160029092019190915583549192508390613d2c8361590f565b9190505550846001600160a01b031684613d45866135b2565b835160408086015181519283526020830189905282820152517e3e50d6f730f8990dc97da68a86fea40220d3baa3f6689325a46beb5f5dc0f69181900360600190a45050610f0e61358c565b600080613d9c613026565b613da4613326565b6000613db0868561237c565b90508060020154421015613dd757604051633eb55fa360e01b815260040160405180910390fd5b604080516060810182528254815260018301546020820152600283015491810191909152613e0490612461565b9250828160010154613e1691906154b5565b9150856001600160a01b031685613e2c876135b2565b7f2f7d1a67d8436fa13ded14bf53703bed5c9b189232cd35530a5ce988bb55e40b87856001015488876002015442613e6491906154b5565b60408051948552602085019390935291830152606082015260800160405180910390a46001600160a01b0386166000908152601560205260409020600190810180549091613eb1916154b5565b81548110613ec157613ec16154c8565b9060005260206000209060030201905060156000876001600160a01b03166001600160a01b03168152602001908152602001600020600101805480613f0857613f0861583a565b6000828152602081206003600019909301928302018181556001810182905560020155905550613f3661358c565b935093915050565b604080516001600160a01b038416602482015260448082018490528251808303909101815260649091019091526020810180516001600160e01b031663a9059cbb60e01b179052610f0e9084906142cb565b80600003613fb157604051631c26cb0b60e01b815260040160405180910390fd5b6001600160a01b0383166000908152600b6020526040902054811115613fea5760405163043f8ee560e41b815260040160405180910390fd5b6001600160a01b0383166000908152600b6020526040812080548392906140129084906154b5565b9091555061402190508361432e565b600061402b611ffe565b90508161403782613713565b60010160008282546140499190615435565b909155506000905061405b8583614612565b90508261406b8260010186614774565b600101600082825461407d9190615435565b92505081905550826140b660128461ffff168154811061409f5761409f6154c8565b906000526020600020906004020160030186614774565b60010160008282546140c89190615435565b90915550506001600160a01b038516846140e1816135b2565b6040805161ffff87168152602081018890527f6c16ad26e00ab1076e5532c6abddf1578121ec478b3129e556e064ff18de6229910160405180910390a45050505050565b60006141308361432e565b506001600160a01b0382166000908152601460209081526040808320848452909152812054908190036141875760405162d6360d60e11b81526001600160a01b038416600482015260248101839052604401610fad565b6001600160a01b0383166000818152601460209081526040808320868452909152812055826141b5816135b2565b6040518481527f5160b630eaa30b010bf18a116a641cab7551c9bafdbd85748da5aaa421753a3c9060200160405180910390a492915050565b6141f78261480f565b6040516001600160a01b038316907fbc7cd75a20ee27fd9adebab32041f755214dbc6bffa90cc0225b39da2e5c2d3b90600090a280511561423c57610f0e8282614874565b610ffb6148ea565b7ff0c57e16840df040f15088dc2f81fe391c3923bec73e23a9662efc9c229c6a0054600160401b900460ff1661127357604051631afcd79f60e31b815260040160405180910390fd5b611273614244565b61429d614244565b611273614909565b6142ad614244565b611273614911565b6000826142c28584614932565b14949350505050565b60006142e06001600160a01b03841683614975565b90508051600014158015614305575080806020019051810190614303919061594c565b155b15610f0e57604051635274afe760e01b81526001600160a01b0384166004820152602401610fad565b60005b6001600160a01b038216600090815260146020526040902060010154811015610ffb576001600160a01b0382166000908152601460205260408120600101805483908110614381576143816154c8565b600091825260209091206002909102018054601280549293509161ffff9091169081106143b0576143b06154c8565b600091825260209091206004909102015460ff16156146095760005b60018201548110156144cc5760008260010182815481106143ef576143ef6154c8565b9060005260206000209060020201600001549050600083600101838154811061441a5761441a6154c8565b600091825260208220600160029092020101548554601280549294506b033b2e3c9fd0803ce800000092909161ffff16908110614459576144596154c8565b906000526020600020906004020160020154836144769190615448565b614480919061545f565b6001600160a01b03881660009081526014602090815260408083208784529091528120805492935083929091906144b8908490615435565b9091555050600190930192506143cc915050565b506001600160a01b03831660009081526014602052604081206001908101546144f591906154b5565b6001600160a01b038516600090815260146020526040902060010180549192509082908110614526576145266154c8565b906000526020600020906002020160146000866001600160a01b03166001600160a01b03168152602001908152602001600020600101848154811061456d5761456d6154c8565b600091825260209091208254600290920201805461ffff191661ffff909216919091178155600180830180546145a69284019190614b2f565b5050506001600160a01b03841660009081526014602052604090206001018054806145d3576145d361583a565b600082815260208120600260001990930192830201805461ffff19168155906145ff6001830182614b8f565b5050905550505050565b50600101614331565b6000805b6001600160a01b0384166000908152601460205260409020600101548110156146d2576001600160a01b0384166000908152601460205260409020600101805461ffff851691908390811061466d5761466d6154c8565b600091825260209091206002909102015461ffff16036146ca576001600160a01b03841660009081526014602052604090206001018054829081106146b4576146b46154c8565b9060005260206000209060020201915050610d87565b600101614616565b506001600160a01b0383166000908152601460205260409020600190810180549182018082558491908390811061470b5761470b6154c8565b60009182526020808320600292909202909101805461ffff191661ffff94909416939093179092556001600160a01b038616815260149091526040902060010180548290811061475d5761475d6154c8565b906000526020600020906002020191505092915050565b6000805b83548110156147c55782848281548110614794576147946154c8565b906000526020600020906002020160000154036147bd578381815481106146b4576146b46154c8565b600101614778565b50825460018101808555600085905283908590839081106147e8576147e86154c8565b90600052602060002090600202016000018190555083818154811061475d5761475d6154c8565b806001600160a01b03163b60000361484557604051634c9c8ce360e01b81526001600160a01b0382166004820152602401610fad565b6000805160206159ab83398151915280546001600160a01b0319166001600160a01b0392909216919091179055565b6060600080846001600160a01b031684604051614891919061596e565b600060405180830381855af49150503d80600081146148cc576040519150601f19603f3d011682016040523d82523d6000602084013e6148d1565b606091505b50915091506148e1858383614983565b95945050505050565b34156112735760405163b398979f60e01b815260040160405180910390fd5b61358c614244565b614919614244565b6000805160206159eb833981519152805460ff19169055565b600081815b845181101561496d5761496382868381518110614956576149566154c8565b60200260200101516149df565b9150600101614937565b509392505050565b6060610f4983836000614a0e565b6060826149985761499382614aab565b610f49565b81511580156149af57506001600160a01b0384163b155b156149d857604051639996b31560e01b81526001600160a01b0385166004820152602401610fad565b5080610f49565b60008183106149fb576000828152602084905260409020610f49565b6000838152602083905260409020610f49565b606081471015614a335760405163cd78605960e01b8152306004820152602401610fad565b600080856001600160a01b03168486604051614a4f919061596e565b60006040518083038185875af1925050503d8060008114614a8c576040519150601f19603f3d011682016040523d82523d6000602084013e614a91565b606091505b5091509150614aa1868383614983565b9695505050505050565b805115614abb5780518082602001fd5b604051630a12f52160e11b815260040160405180910390fd5b508054614ae090615481565b6000825580601f10614af0575050565b601f016020900490600052602060002090810190610f639190614bb0565b5080546000825560030290600052602060002090810190610f639190614bc5565b828054828255906000526020600020906002028101928215614b7f5760005260206000209160020282015b82811115614b7f57825482556001808401549083015560029283019290910190614b5a565b50614b8b929150614be7565b5090565b5080546000825560020290600052602060002090810190610f639190614be7565b5b80821115614b8b5760008155600101614bb1565b5b80821115614b8b576000808255600182018190556002820155600301614bc6565b5b80821115614b8b5760008082556001820155600201614be8565b600060208284031215614c1457600080fd5b81356001600160e01b031981168114610f4957600080fd5b803561ffff81168114614c3e57600080fd5b919050565b600060208284031215614c5557600080fd5b610f4982614c2c565b602080825282518282018190526000919060409081850190868401855b82811015614ca057815180518552860151868501529284019290850190600101614c7b565b5091979650505050505050565b600060208284031215614cbf57600080fd5b5035919050565b63ffffffff81168114610f6357600080fd5b6001600160a01b0381168114610f6357600080fd5b60008060408385031215614d0057600080fd5b8235614d0b81614cc6565b91506020830135614d1b81614cd8565b809150509250929050565b600060208284031215614d3857600080fd5b8135610f4981614cd8565b602080825282518282018190526000919060409081850190868401855b82811015614ca05781518051855286810151878601528501518585015260609093019290850190600101614d60565b60008060408385031215614da257600080fd5b823591506020830135614d1b81614cd8565b60008060408385031215614dc757600080fd5b8235614dd281614cd8565b946020939093013593505050565b634e487b7160e01b600052604160045260246000fd5b60405160c081016001600160401b0381118282101715614e1857614e18614de0565b60405290565b604051606081016001600160401b0381118282101715614e1857614e18614de0565b604051601f8201601f191681016001600160401b0381118282101715614e6857614e68614de0565b604052919050565b803560048110614c3e57600080fd5b600082601f830112614e9057600080fd5b81356001600160401b03811115614ea957614ea9614de0565b614ebc601f8201601f1916602001614e40565b818152846020838601011115614ed157600080fd5b816020850160208301376000918101602001919091529392505050565b600060208284031215614f0057600080fd5b81356001600160401b0380821115614f1757600080fd5b9083019060c08286031215614f2b57600080fd5b614f33614df6565b82358152614f4360208401614e70565b6020820152604083013560408201526060830135614f6081614cd8565b6060820152608083013560ff81168114614f7957600080fd5b608082015260a083013582811115614f9057600080fd5b614f9c87828601614e7f565b60a08301525095945050505050565b600060208284031215614fbd57600080fd5b8135610f4981614cc6565b60005b83811015614fe3578181015183820152602001614fcb565b50506000910152565b60008151808452615004816020860160208601614fc8565b601f01601f19169290920160200192915050565b8381528260208201526060604082015260006148e16060830184614fec565b6000806040838503121561504a57600080fd5b823561505581614cd8565b915060208301356001600160401b0381111561507057600080fd5b61507c85828601614e7f565b9150509250929050565b60008083601f84011261509857600080fd5b5081356001600160401b038111156150af57600080fd5b6020830191508360208285010111156150c757600080fd5b9250929050565b6000806000806000608086880312156150e657600080fd5b85356150f181614cc6565b9450602086013593506040860135925060608601356001600160401b0381111561511a57600080fd5b61512688828901615086565b969995985093965092949392505050565b60008060008060008060a0878903121561515057600080fd5b863561515b81614cc6565b955061516960208801614e70565b9450604087013593506060870135925060808701356001600160401b0381111561519257600080fd5b61519e89828a01615086565b979a9699509497509295939492505050565b602081526000610f496020830184614fec565b6000806000606084860312156151d857600080fd5b83356151e381614cd8565b92506151f160208501614c2c565b9150604084013590509250925092565b634e487b7160e01b600052602160045260246000fd5b6004811061523557634e487b7160e01b600052602160045260246000fd5b9052565b6152438186615217565b836020820152826040820152608060608201526000614aa16080830184614fec565b60008060008060008060c0878903121561527e57600080fd5b863561528981614cd8565b9550602087013561529981614cd8565b945060408701356152a981614cd8565b935060608701356152b981614cd8565b9598949750929560808101359460a0909101359350915050565b600060208083850312156152e657600080fd5b82516001600160401b03808211156152fd57600080fd5b908401906060828703121561531157600080fd5b615319614e1e565b825161532481614cc6565b8152828401518482015260408301518281111561534057600080fd5b80840193505086601f84011261535557600080fd5b82518281111561536757615367614de0565b8060051b9250615378858401614e40565b818152928401850192858101908985111561539257600080fd5b948601945b848610156153b057855182529486019490860190615397565b60408401525090979650505050505050565b6000602082840312156153d457600080fd5b604051602081018181106001600160401b03821117156153f6576153f6614de0565b6040529151825250919050565b60006020828403121561541557600080fd5b610f4983836153c2565b634e487b7160e01b600052601160045260246000fd5b80820180821115610d8757610d8761541f565b8082028115828204841417610d8757610d8761541f565b60008261547c57634e487b7160e01b600052601260045260246000fd5b500490565b600181811c9082168061549557607f821691505b6020821081036121f657634e487b7160e01b600052602260045260246000fd5b81810381811115610d8757610d8761541f565b634e487b7160e01b600052603260045260246000fd5b601f821115610f0e576000816000526020600020601f850160051c810160208610156155075750805b601f850160051c820191505b81811015611a7457828155600101615513565b81516001600160401b0381111561553f5761553f614de0565b6155538161554d8454615481565b846154de565b602080601f83116001811461558857600084156155705750858301515b600019600386901b1c1916600185901b178555611a74565b600085815260208120601f198616915b828110156155b757888601518255948401946001909101908401615598565b50858210156155d55787850151600019600388901b60f8161c191681555b5050505050600190811b01905550565b81835281816020850137506000828201602090810191909152601f909101601f19169091010190565b6156188187615217565b84602082015283604082015260806060820152600061563b6080830184866155e5565b979650505050505050565b818103615651575050565b61565b8254615481565b6001600160401b0381111561567257615672614de0565b6156808161554d8454615481565b6000601f8211600181146156b4576000831561569c5750848201545b600019600385901b1c1916600184901b17845561186c565b600085815260209020601f19841690600086815260209020845b838110156156ee57828601548255600195860195909101906020016156ce565b50858310156155d55793015460001960f8600387901b161c19169092555050600190811b01905550565b83815260006020846020840152606060408401526000845461573981615481565b806060870152608060018084166000811461575b5760018114615777576157a7565b60ff19851660808a0152608084151560051b8a010195506157a7565b89600052602060002060005b8581101561579e5781548b8201860152908301908801615783565b8a016080019650505b50939a9950505050505050505050565b6020815281516020820152600060208301516157d66040840182615217565b506040830151606083015260018060a01b03606084015116608083015260ff60808401511660a083015260a083015160c0808401526130f060e0840182614fec565b82815260408101610f496020830184615217565b60208101610d878284615217565b634e487b7160e01b600052603160045260246000fd5b60006020828403121561586257600080fd5b5051919050565b600080835461587781615481565b6001828116801561588f57600181146158a4576158d3565b60ff19841687528215158302870194506158d3565b8760005260208060002060005b858110156158ca5781548a8201529084019082016158b1565b50505082870194505b50929695505050505050565b8183823760009101908152919050565b848152836020820152606060408201526000614aa16060830184866155e5565b6000600182016159215761592161541f565b5060010190565b6001600160a01b038416815260208101839052606081016130f06040830184615217565b60006020828403121561595e57600080fd5b81518015158114610f4957600080fd5b60008251615980818460208701614fc8565b919091019291505056fe009ab23a1010d07a0450a1fbea1d84169b57d2c2273b54bff0f20c3e90199b5d360894a13ba1a3210667c828492db98dca3e2076cc3735a920a3ca505d382bbc02dd7bc7dec4dceedda775e58dd541e08a116c6c53815c0bd028192f7b626800cd5ed15c6e187e77e9aee88184c21f4f2182ab5827cb3b7e07fbedcd63f03300a26469706673582212202181890ee08bd822924b7938b22f24e74cd72f95d880969121de3dca74cdd5fc64736f6c63430008160033",
  "devdoc": {
    "errors": {
      "AccessControlBadConfirmation()": [
        {
          "details": "The caller of a function is not the expected one. NOTE: Don't confuse with {AccessControlUnauthorizedAccount}."
        }
      ],
      "AccessControlUnauthorizedAccount(address,bytes32)": [
        {
          "details": "The `account` is missing a role."
        }
      ],
      "AddressEmptyCode(address)": [
        {
          "details": "There's no code at `target` (it is not a contract)."
        }
      ],
      "AddressInsufficientBalance(address)": [
        {
          "details": "The ETH balance of the account is not enough to perform the operation."
        }
      ],
      "ERC1967InvalidImplementation(address)": [
        {
          "details": "The `implementation` of the proxy is invalid."
        }
      ],
      "ERC1967NonPayable()": [
        {
          "details": "An upgrade function sees `msg.value > 0` that may be lost."
        }
      ],
      "EnforcedPause()": [
        {
          "details": "The operation failed because the contract is paused."
        }
      ],
      "ExpectedPause()": [
        {
          "details": "The operation failed because the contract is not paused."
        }
      ],
      "FailedInnerCall()": [
        {
          "details": "A call to an address target failed. The target may have reverted."
        }
      ],
      "InvalidInitialization()": [
        {
          "details": "The contract is already initialized."
        }
      ],
      "NotInitializing()": [
        {
          "details": "The contract is not initializing."
        }
      ],
      "ReentrancyGuardReentrantCall()": [
        {
          "details": "Unauthorized reentrant call."
        }
      ],
      "SafeERC20FailedOperation(address)": [
        {
          "details": "An operation with an ERC20 token failed."
        }
      ],
      "UUPSUnauthorizedCallContext()": [
        {
          "details": "The call is from an unauthorized context."
        }
      ],
      "UUPSUnsupportedProxiableUUID(bytes32)": [
        {
          "details": "The storage `slot` is unsupported as a UUID."
        }
      ]
    },
    "events": {
      "Initialized(uint64)": {
        "details": "Triggered when the contract has been initialized or reinitialized."
      },
      "Paused(address)": {
        "details": "Emitted when the pause is triggered by `account`."
      },
      "RoleAdminChanged(bytes32,bytes32,bytes32)": {
        "details": "Emitted when `newAdminRole` is set as ``role``'s admin role, replacing `previousAdminRole` `DEFAULT_ADMIN_ROLE` is the starting admin for all roles, despite {RoleAdminChanged} not being emitted signaling this."
      },
      "RoleGranted(bytes32,address,address)": {
        "details": "Emitted when `account` is granted `role`. `sender` is the account that originated the contract call, an admin role bearer except when using {AccessControl-_setupRole}."
      },
      "RoleRevoked(bytes32,address,address)": {
        "details": "Emitted when `account` is revoked `role`. `sender` is the account that originated the contract call:   - if using `revokeRole`, it is the admin role bearer   - if using `renounceRole`, it is the role bearer (i.e. `account`)"
      },
      "Unpaused(address)": {
        "details": "Emitted when the pause is lifted by `account`."
      },
      "Upgraded(address)": {
        "details": "Emitted when the implementation is upgraded."
      }
    },
    "kind": "dev",
    "methods": {
      "calculateVestingOrderAmount(address,uint256)": {
        "params": {
          "_user": "User address"
        }
      },
      "canUpdateRoot(uint32)": {
        "params": {
          "_distributionId": "The distribution id."
        },
        "returns": {
          "_0": "Boolean `true` if the active root can be updated to the proposed root, else `false`."
        }
      },
      "createDistribution(uint32,uint8,bytes32,uint256,bytes)": {
        "params": {
          "_distributionId": "The distribution id.",
          "_ipfsCid": "An IPFS CID pointing to the Merkle tree data. (optional, can be 0x0) Reverts if the distribution with the same id is already exists or Merkle root params are invalid. Reverts if the token is not supported for distribution. Currently only $ORDER and es$ORDER tokens are supported.",
          "_merkleRoot": "The Merkle root.",
          "_startTimestamp": "The timestamp when this Merkle root become active.",
          "_token": "The type of the token. Currently only $ORDER token and es$ORDER (record based) are supported."
        }
      },
      "getClaimed(uint32,address)": {
        "params": {
          "_distributionId": "The distribution id.",
          "_user": "The address of the user."
        },
        "returns": {
          "_0": "The amount tokens claimed so far by that user."
        }
      },
      "getDistribution(uint32)": {
        "params": {
          "_distributionId": "The distribution id."
        },
        "returns": {
          "ipfsCid": "       An IPFS CID pointing to the Merkle tree data (optional, can be 0x0).",
          "merkleRoot": "    The Merkle root.",
          "startTimestamp": "Timestamp when this Merkle root become active.",
          "token": "         The type of the distributed token. Currently only $ORDER token and es$ORDER (record based) are supported."
        }
      },
      "getProposedRoot(uint32)": {
        "params": {
          "_distributionId": "The distribution id."
        },
        "returns": {
          "ipfsCid": "       An IPFS CID pointing to the Merkle tree data (optional, can be 0x0).",
          "merkleRoot": "    The proposed Merkle root.",
          "startTimestamp": "Timestamp when this Merkle root become active."
        }
      },
      "getRoleAdmin(bytes32)": {
        "details": "Returns the admin role that controls `role`. See {grantRole} and {revokeRole}. To change a role's admin, use {_setRoleAdmin}."
      },
      "grantRole(bytes32,address)": {
        "details": "Grants `role` to `account`. If `account` had not been already granted `role`, emits a {RoleGranted} event. Requirements: - the caller must have ``role``'s admin role. May emit a {RoleGranted} event."
      },
      "hasPendingRoot(uint32)": {
        "params": {
          "_distributionId": "The distribution id."
        },
        "returns": {
          "_0": "Boolean `true` if there is a proposed root for given distribution waiting to become active, else `false`."
        }
      },
      "hasRole(bytes32,address)": {
        "details": "Returns `true` if `account` has been granted `role`."
      },
      "isDistributionRecordBased(uint32)": {
        "params": {
          "_distributionId": "The distribution id."
        },
        "returns": {
          "_0": "Boolean `true` if the distribution is record based, else `false`."
        }
      },
      "paused()": {
        "details": "Returns true if the contract is paused, and false otherwise."
      },
      "proposeRoot(uint32,bytes32,uint256,bytes)": {
        "params": {
          "_distributionId": "The distribution id.",
          "_ipfsCid": "An IPFS CID pointing to the Merkle tree data.  Reverts if the proposed root is bytes32(0).  Reverts if the proposed startTimestamp is in the past.  Reverts if the proposed root is already proposed.",
          "_merkleRoot": "The Merkle root.",
          "_startTimestamp": "The timestamp when this Merkle root become active"
        }
      },
      "proxiableUUID()": {
        "details": "Implementation of the ERC1822 {proxiableUUID} function. This returns the storage slot used by the implementation. It is used to validate the implementation's compatibility when performing an upgrade. IMPORTANT: A proxy pointing at a proxiable contract should not be considered proxiable itself, because this risks bricking a proxy that upgrades to it, by delegating to itself until out of gas. Thus it is critical that this function revert if invoked through a proxy. This is guaranteed by the `notDelegated` modifier."
      },
      "renounceRole(bytes32,address)": {
        "details": "Revokes `role` from the calling account. Roles are often managed via {grantRole} and {revokeRole}: this function's purpose is to provide a mechanism for accounts to lose their privileges if they are compromised (such as when a trusted device is misplaced). If the calling account had been revoked `role`, emits a {RoleRevoked} event. Requirements: - the caller must be `callerConfirmation`. May emit a {RoleRevoked} event."
      },
      "revokeRole(bytes32,address)": {
        "details": "Revokes `role` from `account`. If `account` had been granted `role`, emits a {RoleRevoked} event. Requirements: - the caller must have ``role``'s admin role. May emit a {RoleRevoked} event."
      },
      "supportsInterface(bytes4)": {
        "details": "See {IERC165-supportsInterface}."
      },
      "updateRoot(uint32)": {
        "params": {
          "_distributionId": "The distribution id.  Reverts if root updates are paused.  Reverts if the proposed root is bytes32(0).  Reverts if the waiting period for the proposed root has not elapsed."
        }
      },
      "upgradeToAndCall(address,bytes)": {
        "custom:oz-upgrades-unsafe-allow-reachable": "delegatecall",
        "details": "Upgrade the implementation of the proxy to `newImplementation`, and subsequently execute the function call encoded in `data`. Calls {_authorizeUpgrade}. Emits an {Upgraded} event."
      }
    },
    "version": 1
  },
  "userdoc": {
    "events": {
      "BatchPreparedToClaim(uint16)": {
        "notice": "Emitted when admin marks batch as claimable"
      },
      "BatchValorToUsdcRateIsFixed(uint16,uint256)": {
        "notice": "Emitted when admin fixes valor to USDC rate for the batch"
      },
      "DailyUsdcNetFeeRevenueUpdated(uint256,uint256,uint256,uint256,uint256)": {
        "notice": "Emmited, when the daily USDC net fee revenue has been updated"
      },
      "DistributionCreated(uint256,uint32,uint8,bytes32,uint256,bytes)": {
        "notice": "Emitted when a new distribution is created by the ROOT_UPDATER_ROLE from Ledger chain."
      },
      "EsOrderUnstake(uint256,uint256,address,uint256)": {
        "notice": "Emitted when user unstakes es$ORDER tokens"
      },
      "OrderUnstakeAmount(address,uint256,uint256)": {
        "notice": "Emitted for _createOrderUnstakeRequest, _cancelOrderUnstakeRequest and _withdrawOrder functions"
      },
      "OrderUnstakeCancelled(uint256,uint256,address,uint256)": {
        "notice": "Emitted when user cancels unstake $ORDER tokens request"
      },
      "OrderUnstakeRequested(uint256,uint256,address,uint256)": {
        "notice": "Emitted when user requests unstake $ORDER tokens"
      },
      "OrderWithdrawn(uint256,uint256,address,uint256)": {
        "notice": "Emitted when user withdraws $ORDER tokens"
      },
      "RewardsClaimed(uint256,uint256,uint32,address,uint256,uint8)": {
        "notice": "Emitted when a user claims rewards from Vault chains."
      },
      "RootProposed(uint256,uint32,bytes32,uint256,bytes)": {
        "notice": "Emitted when a new Merkle root is proposed by the ROOT_UPDATER_ROLE from Ledger chain."
      },
      "RootUpdated(uint256,uint32,bytes32,uint256,bytes)": {
        "notice": "Emitted when proposed Merkle root becomes active by the ROOT_UPDATER_ROLE from Ledger chain."
      },
      "Staked(uint256,uint256,address,uint256,uint8)": {
        "notice": "Emitted when user stakes $ORDER or es$ORDER tokens"
      },
      "UsdcRevenueClaimed(uint256,uint256,address,uint256)": {
        "notice": "Emitted when user claim collected USDC revenue from chain"
      },
      "ValorRedeemed(uint256,uint256,address,uint16,uint256)": {
        "notice": "Emitted when user redeem valor for the chain; batchId is the current batch"
      }
    },
    "kind": "user",
    "methods": {
      "TREASURE_UPDATER_ROLE()": {
        "notice": "The role, that is allowed to update USDC net fee revenue"
      },
      "accValorPerShareScaled()": {
        "notice": "The accrued valor share, scaled to `ACC_VALOR_PER_SHARE_PRECISION`"
      },
      "batchPreparedToClaim(uint16)": {
        "notice": "Admin marks batch as claimable when USDC is provided for the batch         This also reduce total valor amount and total USDC in treasure         This reduce shouldn't affect the valor to USDC rate because valor and USDC amounts are reduced proportionally"
      },
      "calculateVestingOrderAmount(address,uint256)": {
        "notice": "Return amount of $ORDER tokens for withdraw at the moment"
      },
      "canUpdateRoot(uint32)": {
        "notice": "Returns true if there is a proposed root for given distribution waiting to become active         and the start time has passed."
      },
      "collectedValor(address)": {
        "notice": "The amount of valor token, that has been collected by the user"
      },
      "createDistribution(uint32,uint8,bytes32,uint256,bytes)": {
        "notice": "Create a new distribution with the given token and propose Merkle root for it.         Locked for ROOT_UPDATER_ROLE.         Once created, distribution token can't be changed."
      },
      "dailyUsdcNetFeeRevenue(uint256)": {
        "notice": "CeFi updates the daily USDC net fee revenue          Function reverts, if the function is called too early - less than 12 hours after the last update          to prevent accidental double updates          Function updates the totalUsdcInTreasure, valorToUsdcRateScaled"
      },
      "fixBatchValorToUsdcRate(uint16)": {
        "notice": "CeFi fixes valor to USDC rate for the batch after providing daily USDC net fee amount after batch is finished         This suppose to avoid the last day gap in USDC treasure amount         that can lead to set incorrect valor to USDC rate for the batch         batch.fixedValorToUsdcRateScaled will be set to current valorToUsdcRateScaled"
      },
      "getBatchChainedValorAmount(uint16)": {
        "notice": "Returns the amount of valor that user can redeem for the chain"
      },
      "getBatchInfo(uint16)": {
        "notice": "Returns the batch structure by id without chained valor amount"
      },
      "getClaimed(uint32,address)": {
        "notice": "Get the tokens amount claimed so far for distribution by a given user."
      },
      "getCurrentBatchId()": {
        "notice": "Calculate and returns the current batch id based on the current timestamp, start timestamp and batch duration"
      },
      "getDistribution(uint32)": {
        "notice": "Get the active Merkle root for distribution id and associated parameters.         If distribution has proposed root and it's start timestamp has passed, proposed root will be returned.         It allows to reduce probability of collision when user claiming rewards from the old Merkle root.         Because it will be updated at the beginning of the next claimReward call and become active from that moment.         So, user will actually obtain the rewards from the proposed root and have to provide amount and proof for it."
      },
      "getOrderAvailableToWithdraw(address)": {
        "notice": "Get the amount of $ORDER ready to be withdrawn by `_user`"
      },
      "getProposedRoot(uint32)": {
        "notice": "Get the proposed Merkle root for token and associated parameters.         When the proposed root become active, it will be removed from the proposedRoots mapping.         So, this function will return non-zero values only if the proposed root is pending."
      },
      "getStakingInfo(address)": {
        "notice": "Get the staking balances for a given _user"
      },
      "getUsdcAmountForBatch(uint16)": {
        "notice": "Returns the amount of valor that user can redeem for the chain"
      },
      "getUserRedeemedValorAmountForBatchAndChain(address,uint16,uint256)": {
        "notice": "Returns the amount of valor that user redeemed for the chain in the batch"
      },
      "getUserValor(address)": {
        "notice": "Get the pending amount of valor up to now for a given _user"
      },
      "hasPendingRoot(uint32)": {
        "notice": "Returns true if there is a proposed root for given distribution waiting to become active.         This is the case if the proposed root for given distribution is not zero."
      },
      "isDistributionRecordBased(uint32)": {
        "notice": "Check if the distribution is record based. Currently only es$ORDER token is record based."
      },
      "lastUsdcNetFeeRevenueUpdateTimestamp()": {
        "notice": "The timestamp of the last update of the USDC net fee revenue"
      },
      "lastValorUpdateTimestamp()": {
        "notice": "The last time that the valor variables were updated"
      },
      "ledgerRecvFromVault((uint256,uint8,uint256,address,uint8,bytes))": {
        "notice": "Receives message from OCCAdapter and dispatch it"
      },
      "maximumValorEmission()": {
        "notice": "The maximum amount of valor token, that can be emitted"
      },
      "orderCollector()": {
        "notice": "Address, that will collect unvested $ORDER when user prematurely withdraws"
      },
      "pause()": {
        "notice": "Pause external functionality"
      },
      "proposeRoot(uint32,bytes32,uint256,bytes)": {
        "notice": "Set the proposed root parameters.         Locked for ROOT_UPDATER_ROLE.         Allows to update proposed root for token before startTimestamp passed.         If startTimestamp passed, proposed root will be propogated to active root."
      },
      "setValorPerSecond(uint256)": {
        "notice": "Allow the owner to update the valorPerSecond"
      },
      "srcChainIdToEventId(uint256)": {
        "notice": "Mapping of srcChainId => event id"
      },
      "startTimestamp()": {
        "notice": "The timestamp when the first batch starts"
      },
      "totalStakedAmount()": {
        "notice": "Total amount of staken $ORDER and es$ORDER"
      },
      "totalUsdcInTreasure()": {
        "notice": "The total amount of USDC, that has been collected in the treasure"
      },
      "totalValorAmount()": {
        "notice": "The total amount of valor token, that is currently in circulation"
      },
      "totalValorEmitted()": {
        "notice": "The total amount of valor token, that has been emitted"
      },
      "unpause()": {
        "notice": "Unpause external functionality"
      },
      "unstakeLockPeriod()": {
        "notice": "Period of time, that user have to wait after unstake request, before he can withdraw tokens"
      },
      "updateRoot(uint32)": {
        "notice": "Propagate proposed root to the distribution if it can be updated.         Non-reeentrant guard is disabled because this function is called from claimRewards."
      },
      "updateValorVars()": {
        "notice": "Calculate and update valor per share changed over time"
      },
      "userTotalStakingBalance(address)": {
        "notice": "Get the total amount of $ORDER and es$ORDER staked by `_user`"
      },
      "valorPerSecond()": {
        "notice": "The amount of valor token, that will be emitted per second"
      },
      "valorToUsdcRateScaled()": {
        "notice": "The current rate of valor to USDC"
      },
      "vestingLinearPeriod()": {
        "notice": "Period after lock period, during which vesting $ORDER amount linearly increase from 50% to 100%"
      },
      "vestingLockPeriod()": {
        "notice": "Lock period where user can not withdraw vested $ORDER"
      }
    },
    "version": 1
  },
  "storageLayout": {
    "storage": [
      {
        "astId": 5251,
        "contract": "contracts/OmnichainLedgerV1.sol:OmnichainLedgerV1",
        "label": "srcChainIdToEventId",
        "offset": 0,
        "slot": "0",
        "type": "t_mapping(t_uint256,t_uint256)"
      },
      {
        "astId": 5434,
        "contract": "contracts/OmnichainLedgerV1.sol:OmnichainLedgerV1",
        "label": "activeDistributions",
        "offset": 0,
        "slot": "1",
        "type": "t_mapping(t_uint32,t_struct(Distribution)5428_storage)"
      },
      {
        "astId": 5440,
        "contract": "contracts/OmnichainLedgerV1.sol:OmnichainLedgerV1",
        "label": "proposedRoots",
        "offset": 0,
        "slot": "2",
        "type": "t_mapping(t_uint32,t_struct(MerkleTree)5419_storage)"
      },
      {
        "astId": 5447,
        "contract": "contracts/OmnichainLedgerV1.sol:OmnichainLedgerV1",
        "label": "claimedAmounts",
        "offset": 0,
        "slot": "3",
        "type": "t_mapping(t_uint32,t_mapping(t_address,t_uint256))"
      },
      {
        "astId": 7966,
        "contract": "contracts/OmnichainLedgerV1.sol:OmnichainLedgerV1",
        "label": "valorPerSecond",
        "offset": 0,
        "slot": "4",
        "type": "t_uint256"
      },
      {
        "astId": 7969,
        "contract": "contracts/OmnichainLedgerV1.sol:OmnichainLedgerV1",
        "label": "maximumValorEmission",
        "offset": 0,
        "slot": "5",
        "type": "t_uint256"
      },
      {
        "astId": 7972,
        "contract": "contracts/OmnichainLedgerV1.sol:OmnichainLedgerV1",
        "label": "totalValorEmitted",
        "offset": 0,
        "slot": "6",
        "type": "t_uint256"
      },
      {
        "astId": 7975,
        "contract": "contracts/OmnichainLedgerV1.sol:OmnichainLedgerV1",
        "label": "totalValorAmount",
        "offset": 0,
        "slot": "7",
        "type": "t_uint256"
      },
      {
        "astId": 7978,
        "contract": "contracts/OmnichainLedgerV1.sol:OmnichainLedgerV1",
        "label": "lastUsdcNetFeeRevenueUpdateTimestamp",
        "offset": 0,
        "slot": "8",
        "type": "t_uint256"
      },
      {
        "astId": 7981,
        "contract": "contracts/OmnichainLedgerV1.sol:OmnichainLedgerV1",
        "label": "totalUsdcInTreasure",
        "offset": 0,
        "slot": "9",
        "type": "t_uint256"
      },
      {
        "astId": 7984,
        "contract": "contracts/OmnichainLedgerV1.sol:OmnichainLedgerV1",
        "label": "valorToUsdcRateScaled",
        "offset": 0,
        "slot": "10",
        "type": "t_uint256"
      },
      {
        "astId": 7989,
        "contract": "contracts/OmnichainLedgerV1.sol:OmnichainLedgerV1",
        "label": "collectedValor",
        "offset": 0,
        "slot": "11",
        "type": "t_mapping(t_address,t_uint256)"
      },
      {
        "astId": 7129,
        "contract": "contracts/OmnichainLedgerV1.sol:OmnichainLedgerV1",
        "label": "userStakingInfo",
        "offset": 0,
        "slot": "12",
        "type": "t_mapping(t_address,t_struct(StakingInfo)7124_storage)"
      },
      {
        "astId": 7139,
        "contract": "contracts/OmnichainLedgerV1.sol:OmnichainLedgerV1",
        "label": "userPendingUnstake",
        "offset": 0,
        "slot": "13",
        "type": "t_mapping(t_address,t_struct(PendingUnstake)7134_storage)"
      },
      {
        "astId": 7142,
        "contract": "contracts/OmnichainLedgerV1.sol:OmnichainLedgerV1",
        "label": "totalStakedAmount",
        "offset": 0,
        "slot": "14",
        "type": "t_uint256"
      },
      {
        "astId": 7145,
        "contract": "contracts/OmnichainLedgerV1.sol:OmnichainLedgerV1",
        "label": "lastValorUpdateTimestamp",
        "offset": 0,
        "slot": "15",
        "type": "t_uint256"
      },
      {
        "astId": 7148,
        "contract": "contracts/OmnichainLedgerV1.sol:OmnichainLedgerV1",
        "label": "accValorPerShareScaled",
        "offset": 0,
        "slot": "16",
        "type": "t_uint256"
      },
      {
        "astId": 7151,
        "contract": "contracts/OmnichainLedgerV1.sol:OmnichainLedgerV1",
        "label": "unstakeLockPeriod",
        "offset": 0,
        "slot": "17",
        "type": "t_uint256"
      },
      {
        "astId": 6193,
        "contract": "contracts/OmnichainLedgerV1.sol:OmnichainLedgerV1",
        "label": "batches",
        "offset": 0,
        "slot": "18",
        "type": "t_array(t_struct(Batch)6189_storage)dyn_storage"
      },
      {
        "astId": 6196,
        "contract": "contracts/OmnichainLedgerV1.sol:OmnichainLedgerV1",
        "label": "startTimestamp",
        "offset": 0,
        "slot": "19",
        "type": "t_uint256"
      },
      {
        "astId": 6217,
        "contract": "contracts/OmnichainLedgerV1.sol:OmnichainLedgerV1",
        "label": "userRevenue",
        "offset": 0,
        "slot": "20",
        "type": "t_mapping(t_address,t_struct(UserRevenueRecord)6212_storage)"
      },
      {
        "astId": 8138,
        "contract": "contracts/OmnichainLedgerV1.sol:OmnichainLedgerV1",
        "label": "userVestingInfos",
        "offset": 0,
        "slot": "21",
        "type": "t_mapping(t_address,t_struct(UserVestingInfo)8133_storage)"
      },
      {
        "astId": 8141,
        "contract": "contracts/OmnichainLedgerV1.sol:OmnichainLedgerV1",
        "label": "vestingLockPeriod",
        "offset": 0,
        "slot": "22",
        "type": "t_uint256"
      },
      {
        "astId": 8144,
        "contract": "contracts/OmnichainLedgerV1.sol:OmnichainLedgerV1",
        "label": "vestingLinearPeriod",
        "offset": 0,
        "slot": "23",
        "type": "t_uint256"
      },
      {
        "astId": 8147,
        "contract": "contracts/OmnichainLedgerV1.sol:OmnichainLedgerV1",
        "label": "orderCollector",
        "offset": 0,
        "slot": "24",
        "type": "t_address"
      },
      {
        "astId": 4522,
        "contract": "contracts/OmnichainLedgerV1.sol:OmnichainLedgerV1",
        "label": "occAdaptor",
        "offset": 0,
        "slot": "25",
        "type": "t_address"
      },
      {
        "astId": 4524,
        "contract": "contracts/OmnichainLedgerV1.sol:OmnichainLedgerV1",
        "label": "orderTokenOft",
        "offset": 0,
        "slot": "26",
        "type": "t_address"
      }
    ],
    "types": {
      "t_address": {
        "encoding": "inplace",
        "label": "address",
        "numberOfBytes": "20"
      },
      "t_array(t_struct(Batch)6189_storage)dyn_storage": {
        "base": "t_struct(Batch)6189_storage",
        "encoding": "dynamic_array",
        "label": "struct Revenue.Batch[]",
        "numberOfBytes": "32"
      },
      "t_array(t_struct(BatchedRedemptionRequest)6203_storage)dyn_storage": {
        "base": "t_struct(BatchedRedemptionRequest)6203_storage",
        "encoding": "dynamic_array",
        "label": "struct Revenue.BatchedRedemptionRequest[]",
        "numberOfBytes": "32"
      },
      "t_array(t_struct(ChainedAmount)6174_storage)dyn_storage": {
        "base": "t_struct(ChainedAmount)6174_storage",
        "encoding": "dynamic_array",
        "label": "struct Revenue.ChainedAmount[]",
        "numberOfBytes": "32"
      },
      "t_array(t_struct(VestingRequest)8126_storage)dyn_storage": {
        "base": "t_struct(VestingRequest)8126_storage",
        "encoding": "dynamic_array",
        "label": "struct Vesting.VestingRequest[]",
        "numberOfBytes": "32"
      },
      "t_array(t_uint256)2_storage": {
        "base": "t_uint256",
        "encoding": "inplace",
        "label": "uint256[2]",
        "numberOfBytes": "64"
      },
      "t_bool": {
        "encoding": "inplace",
        "label": "bool",
        "numberOfBytes": "1"
      },
      "t_bytes32": {
        "encoding": "inplace",
        "label": "bytes32",
        "numberOfBytes": "32"
      },
      "t_bytes_storage": {
        "encoding": "bytes",
        "label": "bytes",
        "numberOfBytes": "32"
      },
      "t_enum(LedgerToken)6110": {
        "encoding": "inplace",
        "label": "enum LedgerToken",
        "numberOfBytes": "1"
      },
      "t_mapping(t_address,t_struct(PendingUnstake)7134_storage)": {
        "encoding": "mapping",
        "key": "t_address",
        "label": "mapping(address => struct Staking.PendingUnstake)",
        "numberOfBytes": "32",
        "value": "t_struct(PendingUnstake)7134_storage"
      },
      "t_mapping(t_address,t_struct(StakingInfo)7124_storage)": {
        "encoding": "mapping",
        "key": "t_address",
        "label": "mapping(address => struct Staking.StakingInfo)",
        "numberOfBytes": "32",
        "value": "t_struct(StakingInfo)7124_storage"
      },
      "t_mapping(t_address,t_struct(UserRevenueRecord)6212_storage)": {
        "encoding": "mapping",
        "key": "t_address",
        "label": "mapping(address => struct Revenue.UserRevenueRecord)",
        "numberOfBytes": "32",
        "value": "t_struct(UserRevenueRecord)6212_storage"
      },
      "t_mapping(t_address,t_struct(UserVestingInfo)8133_storage)": {
        "encoding": "mapping",
        "key": "t_address",
        "label": "mapping(address => struct Vesting.UserVestingInfo)",
        "numberOfBytes": "32",
        "value": "t_struct(UserVestingInfo)8133_storage"
      },
      "t_mapping(t_address,t_uint256)": {
        "encoding": "mapping",
        "key": "t_address",
        "label": "mapping(address => uint256)",
        "numberOfBytes": "32",
        "value": "t_uint256"
      },
      "t_mapping(t_uint256,t_uint256)": {
        "encoding": "mapping",
        "key": "t_uint256",
        "label": "mapping(uint256 => uint256)",
        "numberOfBytes": "32",
        "value": "t_uint256"
      },
      "t_mapping(t_uint32,t_mapping(t_address,t_uint256))": {
        "encoding": "mapping",
        "key": "t_uint32",
        "label": "mapping(uint32 => mapping(address => uint256))",
        "numberOfBytes": "32",
        "value": "t_mapping(t_address,t_uint256)"
      },
      "t_mapping(t_uint32,t_struct(Distribution)5428_storage)": {
        "encoding": "mapping",
        "key": "t_uint32",
        "label": "mapping(uint32 => struct MerkleDistributor.Distribution)",
        "numberOfBytes": "32",
        "value": "t_struct(Distribution)5428_storage"
      },
      "t_mapping(t_uint32,t_struct(MerkleTree)5419_storage)": {
        "encoding": "mapping",
        "key": "t_uint32",
        "label": "mapping(uint32 => struct MerkleDistributor.MerkleTree)",
        "numberOfBytes": "32",
        "value": "t_struct(MerkleTree)5419_storage"
      },
      "t_struct(Batch)6189_storage": {
        "encoding": "inplace",
        "label": "struct Revenue.Batch",
        "members": [
          {
            "astId": 6177,
            "contract": "contracts/OmnichainLedgerV1.sol:OmnichainLedgerV1",
            "label": "claimable",
            "offset": 0,
            "slot": "0",
            "type": "t_bool"
          },
          {
            "astId": 6180,
            "contract": "contracts/OmnichainLedgerV1.sol:OmnichainLedgerV1",
            "label": "redeemedValorAmount",
            "offset": 0,
            "slot": "1",
            "type": "t_uint256"
          },
          {
            "astId": 6183,
            "contract": "contracts/OmnichainLedgerV1.sol:OmnichainLedgerV1",
            "label": "fixedValorToUsdcRateScaled",
            "offset": 0,
            "slot": "2",
            "type": "t_uint256"
          },
          {
            "astId": 6188,
            "contract": "contracts/OmnichainLedgerV1.sol:OmnichainLedgerV1",
            "label": "chainedValorAmount",
            "offset": 0,
            "slot": "3",
            "type": "t_array(t_struct(ChainedAmount)6174_storage)dyn_storage"
          }
        ],
        "numberOfBytes": "128"
      },
      "t_struct(BatchedRedemptionRequest)6203_storage": {
        "encoding": "inplace",
        "label": "struct Revenue.BatchedRedemptionRequest",
        "members": [
          {
            "astId": 6198,
            "contract": "contracts/OmnichainLedgerV1.sol:OmnichainLedgerV1",
            "label": "batchId",
            "offset": 0,
            "slot": "0",
            "type": "t_uint16"
          },
          {
            "astId": 6202,
            "contract": "contracts/OmnichainLedgerV1.sol:OmnichainLedgerV1",
            "label": "chainedValorAmount",
            "offset": 0,
            "slot": "1",
            "type": "t_array(t_struct(ChainedAmount)6174_storage)dyn_storage"
          }
        ],
        "numberOfBytes": "64"
      },
      "t_struct(ChainedAmount)6174_storage": {
        "encoding": "inplace",
        "label": "struct Revenue.ChainedAmount",
        "members": [
          {
            "astId": 6171,
            "contract": "contracts/OmnichainLedgerV1.sol:OmnichainLedgerV1",
            "label": "chainId",
            "offset": 0,
            "slot": "0",
            "type": "t_uint256"
          },
          {
            "astId": 6173,
            "contract": "contracts/OmnichainLedgerV1.sol:OmnichainLedgerV1",
            "label": "amount",
            "offset": 0,
            "slot": "1",
            "type": "t_uint256"
          }
        ],
        "numberOfBytes": "64"
      },
      "t_struct(Distribution)5428_storage": {
        "encoding": "inplace",
        "label": "struct MerkleDistributor.Distribution",
        "members": [
          {
            "astId": 5423,
            "contract": "contracts/OmnichainLedgerV1.sol:OmnichainLedgerV1",
            "label": "token",
            "offset": 0,
            "slot": "0",
            "type": "t_enum(LedgerToken)6110"
          },
          {
            "astId": 5427,
            "contract": "contracts/OmnichainLedgerV1.sol:OmnichainLedgerV1",
            "label": "merkleTree",
            "offset": 0,
            "slot": "1",
            "type": "t_struct(MerkleTree)5419_storage"
          }
        ],
        "numberOfBytes": "128"
      },
      "t_struct(MerkleTree)5419_storage": {
        "encoding": "inplace",
        "label": "struct MerkleDistributor.MerkleTree",
        "members": [
          {
            "astId": 5412,
            "contract": "contracts/OmnichainLedgerV1.sol:OmnichainLedgerV1",
            "label": "merkleRoot",
            "offset": 0,
            "slot": "0",
            "type": "t_bytes32"
          },
          {
            "astId": 5415,
            "contract": "contracts/OmnichainLedgerV1.sol:OmnichainLedgerV1",
            "label": "startTimestamp",
            "offset": 0,
            "slot": "1",
            "type": "t_uint256"
          },
          {
            "astId": 5418,
            "contract": "contracts/OmnichainLedgerV1.sol:OmnichainLedgerV1",
            "label": "ipfsCid",
            "offset": 0,
            "slot": "2",
            "type": "t_bytes_storage"
          }
        ],
        "numberOfBytes": "96"
      },
      "t_struct(PendingUnstake)7134_storage": {
        "encoding": "inplace",
        "label": "struct Staking.PendingUnstake",
        "members": [
          {
            "astId": 7131,
            "contract": "contracts/OmnichainLedgerV1.sol:OmnichainLedgerV1",
            "label": "balanceOrder",
            "offset": 0,
            "slot": "0",
            "type": "t_uint256"
          },
          {
            "astId": 7133,
            "contract": "contracts/OmnichainLedgerV1.sol:OmnichainLedgerV1",
            "label": "unlockTimestamp",
            "offset": 0,
            "slot": "1",
            "type": "t_uint256"
          }
        ],
        "numberOfBytes": "64"
      },
      "t_struct(StakingInfo)7124_storage": {
        "encoding": "inplace",
        "label": "struct Staking.StakingInfo",
        "members": [
          {
            "astId": 7121,
            "contract": "contracts/OmnichainLedgerV1.sol:OmnichainLedgerV1",
            "label": "balance",
            "offset": 0,
            "slot": "0",
            "type": "t_array(t_uint256)2_storage"
          },
          {
            "astId": 7123,
            "contract": "contracts/OmnichainLedgerV1.sol:OmnichainLedgerV1",
            "label": "valorDebt",
            "offset": 0,
            "slot": "2",
            "type": "t_uint256"
          }
        ],
        "numberOfBytes": "96"
      },
      "t_struct(UserRevenueRecord)6212_storage": {
        "encoding": "inplace",
        "label": "struct Revenue.UserRevenueRecord",
        "members": [
          {
            "astId": 6207,
            "contract": "contracts/OmnichainLedgerV1.sol:OmnichainLedgerV1",
            "label": "chainedUsdcRevenue",
            "offset": 0,
            "slot": "0",
            "type": "t_mapping(t_uint256,t_uint256)"
          },
          {
            "astId": 6211,
            "contract": "contracts/OmnichainLedgerV1.sol:OmnichainLedgerV1",
            "label": "requests",
            "offset": 0,
            "slot": "1",
            "type": "t_array(t_struct(BatchedRedemptionRequest)6203_storage)dyn_storage"
          }
        ],
        "numberOfBytes": "64"
      },
      "t_struct(UserVestingInfo)8133_storage": {
        "encoding": "inplace",
        "label": "struct Vesting.UserVestingInfo",
        "members": [
          {
            "astId": 8128,
            "contract": "contracts/OmnichainLedgerV1.sol:OmnichainLedgerV1",
            "label": "currentRequestId",
            "offset": 0,
            "slot": "0",
            "type": "t_uint256"
          },
          {
            "astId": 8132,
            "contract": "contracts/OmnichainLedgerV1.sol:OmnichainLedgerV1",
            "label": "requests",
            "offset": 0,
            "slot": "1",
            "type": "t_array(t_struct(VestingRequest)8126_storage)dyn_storage"
          }
        ],
        "numberOfBytes": "64"
      },
      "t_struct(VestingRequest)8126_storage": {
        "encoding": "inplace",
        "label": "struct Vesting.VestingRequest",
        "members": [
          {
            "astId": 8121,
            "contract": "contracts/OmnichainLedgerV1.sol:OmnichainLedgerV1",
            "label": "requestId",
            "offset": 0,
            "slot": "0",
            "type": "t_uint256"
          },
          {
            "astId": 8123,
            "contract": "contracts/OmnichainLedgerV1.sol:OmnichainLedgerV1",
            "label": "esOrderAmount",
            "offset": 0,
            "slot": "1",
            "type": "t_uint256"
          },
          {
            "astId": 8125,
            "contract": "contracts/OmnichainLedgerV1.sol:OmnichainLedgerV1",
            "label": "unlockTimestamp",
            "offset": 0,
            "slot": "2",
            "type": "t_uint256"
          }
        ],
        "numberOfBytes": "96"
      },
      "t_uint16": {
        "encoding": "inplace",
        "label": "uint16",
        "numberOfBytes": "2"
      },
      "t_uint256": {
        "encoding": "inplace",
        "label": "uint256",
        "numberOfBytes": "32"
      },
      "t_uint32": {
        "encoding": "inplace",
        "label": "uint32",
        "numberOfBytes": "4"
      }
    }
  }
}