{
  "address": "0xea99E60fF5dcE69b7c9C6B96Ae8fcD0768cED218",
  "abi": [
    {
      "inputs": [],
      "stateMutability": "nonpayable",
      "type": "constructor"
    },
    {
      "inputs": [
        {
          "internalType": "address",
          "name": "target",
          "type": "address"
        }
      ],
      "name": "AddressEmptyCode",
      "type": "error"
    },
    {
      "inputs": [
        {
          "internalType": "address",
          "name": "account",
          "type": "address"
        }
      ],
      "name": "AddressInsufficientBalance",
      "type": "error"
    },
    {
      "inputs": [],
      "name": "CannotUpdateRoot",
      "type": "error"
    },
    {
      "inputs": [],
      "name": "DistributionHasEnded",
      "type": "error"
    },
    {
      "inputs": [],
      "name": "DistributionStillActive",
      "type": "error"
    },
    {
      "inputs": [
        {
          "internalType": "address",
          "name": "implementation",
          "type": "address"
        }
      ],
      "name": "ERC1967InvalidImplementation",
      "type": "error"
    },
    {
      "inputs": [],
      "name": "ERC1967NonPayable",
      "type": "error"
    },
    {
      "inputs": [],
      "name": "EnforcedPause",
      "type": "error"
    },
    {
      "inputs": [],
      "name": "ExpectedPause",
      "type": "error"
    },
    {
      "inputs": [],
      "name": "FailedInnerCall",
      "type": "error"
    },
    {
      "inputs": [],
      "name": "InvalidEndTimestamp",
      "type": "error"
    },
    {
      "inputs": [],
      "name": "InvalidInitialization",
      "type": "error"
    },
    {
      "inputs": [],
      "name": "InvalidMerkleProof",
      "type": "error"
    },
    {
      "inputs": [],
      "name": "NoActiveMerkleRoot",
      "type": "error"
    },
    {
      "inputs": [],
      "name": "NotInitializing",
      "type": "error"
    },
    {
      "inputs": [
        {
          "internalType": "address",
          "name": "owner",
          "type": "address"
        }
      ],
      "name": "OwnableInvalidOwner",
      "type": "error"
    },
    {
      "inputs": [
        {
          "internalType": "address",
          "name": "account",
          "type": "address"
        }
      ],
      "name": "OwnableUnauthorizedAccount",
      "type": "error"
    },
    {
      "inputs": [],
      "name": "ProposedMerkleRootIsZero",
      "type": "error"
    },
    {
      "inputs": [],
      "name": "ReentrancyGuardReentrantCall",
      "type": "error"
    },
    {
      "inputs": [
        {
          "internalType": "address",
          "name": "token",
          "type": "address"
        }
      ],
      "name": "SafeERC20FailedOperation",
      "type": "error"
    },
    {
      "inputs": [],
      "name": "StartTimestampIsInThePast",
      "type": "error"
    },
    {
      "inputs": [],
      "name": "ThisMerkleRootIsAlreadyProposed",
      "type": "error"
    },
    {
      "inputs": [],
      "name": "TokenAddressAlreadySet",
      "type": "error"
    },
    {
      "inputs": [],
      "name": "TokenAddressNotSet",
      "type": "error"
    },
    {
      "inputs": [],
      "name": "UUPSUnauthorizedCallContext",
      "type": "error"
    },
    {
      "inputs": [
        {
          "internalType": "bytes32",
          "name": "slot",
          "type": "bytes32"
        }
      ],
      "name": "UUPSUnsupportedProxiableUUID",
      "type": "error"
    },
    {
      "inputs": [],
      "name": "ZeroClaim",
      "type": "error"
    },
    {
      "anonymous": false,
      "inputs": [
        {
          "indexed": false,
          "internalType": "uint64",
          "name": "version",
          "type": "uint64"
        }
      ],
      "name": "Initialized",
      "type": "event"
    },
    {
      "anonymous": false,
      "inputs": [
        {
          "indexed": true,
          "internalType": "address",
          "name": "previousOwner",
          "type": "address"
        },
        {
          "indexed": true,
          "internalType": "address",
          "name": "newOwner",
          "type": "address"
        }
      ],
      "name": "OwnershipTransferred",
      "type": "event"
    },
    {
      "anonymous": false,
      "inputs": [
        {
          "indexed": false,
          "internalType": "address",
          "name": "account",
          "type": "address"
        }
      ],
      "name": "Paused",
      "type": "event"
    },
    {
      "anonymous": false,
      "inputs": [
        {
          "indexed": false,
          "internalType": "uint256",
          "name": "eventId",
          "type": "uint256"
        },
        {
          "indexed": false,
          "internalType": "address",
          "name": "account",
          "type": "address"
        },
        {
          "indexed": false,
          "internalType": "uint256",
          "name": "amount",
          "type": "uint256"
        }
      ],
      "name": "RewardsClaimed",
      "type": "event"
    },
    {
      "anonymous": false,
      "inputs": [
        {
          "indexed": false,
          "internalType": "uint256",
          "name": "eventId",
          "type": "uint256"
        },
        {
          "indexed": false,
          "internalType": "bytes32",
          "name": "merkleRoot",
          "type": "bytes32"
        },
        {
          "indexed": false,
          "internalType": "uint256",
          "name": "startTimestamp",
          "type": "uint256"
        },
        {
          "indexed": false,
          "internalType": "uint256",
          "name": "endTimestamp",
          "type": "uint256"
        },
        {
          "indexed": false,
          "internalType": "bytes",
          "name": "ipfsCid",
          "type": "bytes"
        }
      ],
      "name": "RootProposed",
      "type": "event"
    },
    {
      "anonymous": false,
      "inputs": [
        {
          "indexed": false,
          "internalType": "uint256",
          "name": "eventId",
          "type": "uint256"
        },
        {
          "indexed": false,
          "internalType": "bytes32",
          "name": "merkleRoot",
          "type": "bytes32"
        },
        {
          "indexed": false,
          "internalType": "uint256",
          "name": "startTimestamp",
          "type": "uint256"
        },
        {
          "indexed": false,
          "internalType": "uint256",
          "name": "endTimestamp",
          "type": "uint256"
        },
        {
          "indexed": false,
          "internalType": "bytes",
          "name": "ipfsCid",
          "type": "bytes"
        }
      ],
      "name": "RootUpdated",
      "type": "event"
    },
    {
      "anonymous": false,
      "inputs": [
        {
          "indexed": false,
          "internalType": "address",
          "name": "account",
          "type": "address"
        }
      ],
      "name": "Unpaused",
      "type": "event"
    },
    {
      "anonymous": false,
      "inputs": [
        {
          "indexed": true,
          "internalType": "address",
          "name": "implementation",
          "type": "address"
        }
      ],
      "name": "Upgraded",
      "type": "event"
    },
    {
      "inputs": [],
      "name": "UPGRADE_INTERFACE_VERSION",
      "outputs": [
        {
          "internalType": "string",
          "name": "",
          "type": "string"
        }
      ],
      "stateMutability": "view",
      "type": "function"
    },
    {
      "inputs": [],
      "name": "VERSION",
      "outputs": [
        {
          "internalType": "string",
          "name": "",
          "type": "string"
        }
      ],
      "stateMutability": "pure",
      "type": "function"
    },
    {
      "inputs": [],
      "name": "canUpdateRoot",
      "outputs": [
        {
          "internalType": "bool",
          "name": "",
          "type": "bool"
        }
      ],
      "stateMutability": "view",
      "type": "function"
    },
    {
      "inputs": [
        {
          "internalType": "uint256",
          "name": "_cumulativeAmount",
          "type": "uint256"
        },
        {
          "internalType": "bytes32[]",
          "name": "_merkleProof",
          "type": "bytes32[]"
        }
      ],
      "name": "claimRewards",
      "outputs": [
        {
          "internalType": "uint256",
          "name": "",
          "type": "uint256"
        }
      ],
      "stateMutability": "nonpayable",
      "type": "function"
    },
    {
      "inputs": [],
      "name": "eventId",
      "outputs": [
        {
          "internalType": "uint256",
          "name": "",
          "type": "uint256"
        }
      ],
      "stateMutability": "view",
      "type": "function"
    },
    {
      "inputs": [],
      "name": "getActualRoot",
      "outputs": [
        {
          "internalType": "bytes32",
          "name": "merkleRoot",
          "type": "bytes32"
        },
        {
          "internalType": "uint256",
          "name": "startTimestamp",
          "type": "uint256"
        },
        {
          "internalType": "uint256",
          "name": "endTimestamp",
          "type": "uint256"
        },
        {
          "internalType": "bytes",
          "name": "ipfsCid",
          "type": "bytes"
        }
      ],
      "stateMutability": "view",
      "type": "function"
    },
    {
      "inputs": [
        {
          "internalType": "address",
          "name": "_user",
          "type": "address"
        }
      ],
      "name": "getClaimed",
      "outputs": [
        {
          "internalType": "uint256",
          "name": "",
          "type": "uint256"
        }
      ],
      "stateMutability": "view",
      "type": "function"
    },
    {
      "inputs": [],
      "name": "getProposedRoot",
      "outputs": [
        {
          "internalType": "bytes32",
          "name": "merkleRoot",
          "type": "bytes32"
        },
        {
          "internalType": "uint256",
          "name": "startTimestamp",
          "type": "uint256"
        },
        {
          "internalType": "uint256",
          "name": "endTimestamp",
          "type": "uint256"
        },
        {
          "internalType": "bytes",
          "name": "ipfsCid",
          "type": "bytes"
        }
      ],
      "stateMutability": "view",
      "type": "function"
    },
    {
      "inputs": [],
      "name": "hasPendingRoot",
      "outputs": [
        {
          "internalType": "bool",
          "name": "",
          "type": "bool"
        }
      ],
      "stateMutability": "view",
      "type": "function"
    },
    {
      "inputs": [
        {
          "internalType": "address",
          "name": "owner",
          "type": "address"
        },
        {
          "internalType": "contract IERC20",
          "name": "_token",
          "type": "address"
        }
      ],
      "name": "initialize",
      "outputs": [],
      "stateMutability": "nonpayable",
      "type": "function"
    },
    {
      "inputs": [],
      "name": "owner",
      "outputs": [
        {
          "internalType": "address",
          "name": "",
          "type": "address"
        }
      ],
      "stateMutability": "view",
      "type": "function"
    },
    {
      "inputs": [],
      "name": "pause",
      "outputs": [],
      "stateMutability": "nonpayable",
      "type": "function"
    },
    {
      "inputs": [],
      "name": "paused",
      "outputs": [
        {
          "internalType": "bool",
          "name": "",
          "type": "bool"
        }
      ],
      "stateMutability": "view",
      "type": "function"
    },
    {
      "inputs": [
        {
          "internalType": "bytes32",
          "name": "_merkleRoot",
          "type": "bytes32"
        },
        {
          "internalType": "uint256",
          "name": "_startTimestamp",
          "type": "uint256"
        },
        {
          "internalType": "uint256",
          "name": "_endTimestamp",
          "type": "uint256"
        },
        {
          "internalType": "bytes",
          "name": "_ipfsCid",
          "type": "bytes"
        }
      ],
      "name": "proposeRoot",
      "outputs": [],
      "stateMutability": "nonpayable",
      "type": "function"
    },
    {
      "inputs": [],
      "name": "proxiableUUID",
      "outputs": [
        {
          "internalType": "bytes32",
          "name": "",
          "type": "bytes32"
        }
      ],
      "stateMutability": "view",
      "type": "function"
    },
    {
      "inputs": [],
      "name": "renounceOwnership",
      "outputs": [],
      "stateMutability": "nonpayable",
      "type": "function"
    },
    {
      "inputs": [
        {
          "internalType": "contract IERC20",
          "name": "_token",
          "type": "address"
        }
      ],
      "name": "setTokenAddress",
      "outputs": [],
      "stateMutability": "nonpayable",
      "type": "function"
    },
    {
      "inputs": [],
      "name": "token",
      "outputs": [
        {
          "internalType": "address",
          "name": "",
          "type": "address"
        }
      ],
      "stateMutability": "view",
      "type": "function"
    },
    {
      "inputs": [
        {
          "internalType": "address",
          "name": "newOwner",
          "type": "address"
        }
      ],
      "name": "transferOwnership",
      "outputs": [],
      "stateMutability": "nonpayable",
      "type": "function"
    },
    {
      "inputs": [],
      "name": "unpause",
      "outputs": [],
      "stateMutability": "nonpayable",
      "type": "function"
    },
    {
      "inputs": [],
      "name": "updateRoot",
      "outputs": [],
      "stateMutability": "nonpayable",
      "type": "function"
    },
    {
      "inputs": [
        {
          "internalType": "address",
          "name": "newImplementation",
          "type": "address"
        },
        {
          "internalType": "bytes",
          "name": "data",
          "type": "bytes"
        }
      ],
      "name": "upgradeToAndCall",
      "outputs": [],
      "stateMutability": "payable",
      "type": "function"
    },
    {
      "inputs": [],
      "name": "withdraw",
      "outputs": [],
      "stateMutability": "nonpayable",
      "type": "function"
    }
  ],
  "args": [],
  "numDeployments": 1,
  "solcInputHash": "369cef7d4fd1399c50e2a51e3cada58d",
  "bytecode": "0x60a06040523060805234801561001457600080fd5b5061001d610022565b6100d4565b7ff0c57e16840df040f15088dc2f81fe391c3923bec73e23a9662efc9c229c6a00805468010000000000000000900460ff16156100725760405163f92ee8a960e01b815260040160405180910390fd5b80546001600160401b03908116146100d15780546001600160401b0319166001600160401b0390811782556040519081527fc7f505b2f371ae2175ee4913f4499e1f2633a7b5936321eed1cdaeb6115181d29060200160405180910390a15b50565b608051611de66100fd6000396000818161102d0152818161105601526111970152611de66000f3fe6080604052600436106101405760003560e01c8063715018a6116100b6578063b1de16261161006f578063b1de162614610359578063eb46260e1461036e578063f2fde38b146103a4578063fc0c546a146103c4578063ff167f2b146103e4578063ffa1ad74146103f957600080fd5b8063715018a61461028f5780638456cb59146102a45780638da5cb5b146102b9578063a165e39a146102e6578063abd40e1e146102fb578063ad3cb1cc1461031b57600080fd5b80633ccfd60b116101085780633ccfd60b146101f85780633f4ba83a1461020d578063485cc955146102225780634f1ef2861461024257806352d1902d146102555780635c975abb1461026a57600080fd5b8063089cdd0c146101455780631f27734a1461016e57806326a4e8d2146101905780632a0739a5146101b05780632f37a774146101d5575b600080fd5b34801561015157600080fd5b5061015b60005481565b6040519081526020015b60405180910390f35b34801561017a57600080fd5b5061018e61018936600461162d565b610427565b005b34801561019c57600080fd5b5061018e6101ab3660046116cf565b610646565b3480156101bc57600080fd5b506101c5610699565b604051610165949392919061173c565b3480156101e157600080fd5b50600b5415155b6040519015158152602001610165565b34801561020457600080fd5b5061018e6107f9565b34801561021957600080fd5b5061018e6108bc565b34801561022e57600080fd5b5061018e61023d366004611761565b6108cc565b61018e6102503660046117b0565b610a08565b34801561026157600080fd5b5061015b610a27565b34801561027657600080fd5b50600080516020611d718339815191525460ff166101e8565b34801561029b57600080fd5b5061018e610a44565b3480156102b057600080fd5b5061018e610a56565b3480156102c557600080fd5b506102ce610a66565b6040516001600160a01b039091168152602001610165565b3480156102f257600080fd5b506101e8610a94565b34801561030757600080fd5b5061015b610316366004611874565b610ab4565b34801561032757600080fd5b5061034c604051806040016040528060058152602001640352e302e360dc1b81525081565b60405161016591906118f3565b34801561036557600080fd5b5061018e610cad565b34801561037a57600080fd5b5061015b6103893660046116cf565b6001600160a01b03166000908152600f602052604090205490565b3480156103b057600080fd5b5061018e6103bf3660046116cf565b610da2565b3480156103d057600080fd5b506006546102ce906001600160a01b031681565b3480156103f057600080fd5b506101c5610de5565b34801561040557600080fd5b50604080518082019091526005815264189718171960d91b602082015261034c565b61042f610e0f565b610437610e40565b61043f610e78565b6006546001600160a01b0316610468576040516344c490eb60e11b815260040160405180910390fd5b8461048657604051633f4b0e7b60e11b815260040160405180910390fd5b428410156104a757604051631b8e7db960e11b815260040160405180910390fd5b82158015906104b65750838311155b156104d45760405163417de2db60e01b815260040160405180910390fd5b600b54851480156104e65750600c5484145b80156104f35750600d5483145b801561052b575060405161050990600e90611940565b604051809103902082826040516105219291906119b6565b6040518091039020145b1561054957604051630faec0d960e01b815260040160405180910390fd5b610551610a94565b1561055e5761055e610cad565b604051806080016040528086815260200185815260200184815260200183838080601f01602080910402602001604051908101604052809392919081815260200183838082843760009201919091525050509152508051600b9081556020820151600c556040820151600d556060820151600e906105dc9082611a16565b509050507f9aa5839c21306c07018f8faa2b330b0f76ddd6c9447ab02cc6184fb6f5880983610609610eaa565b868686868660405161062096959493929190611ad6565b60405180910390a161063f6001600080516020611d9183398151915255565b5050505050565b61064e610e78565b6006546001600160a01b0316156106775760405162c933ef60e81b815260040160405180910390fd5b600680546001600160a01b0319166001600160a01b0392909216919091179055565b600080600060606106a8610a94565b1561075257600b54600c54600d54600e805481906106c590611906565b80601f01602080910402602001604051908101604052809291908181526020018280546106f190611906565b801561073e5780601f106107135761010080835404028352916020019161073e565b820191906000526020600020905b81548152906001019060200180831161072157829003601f168201915b5050505050905093509350935093506107f3565b600754600854600954600a8054819061076a90611906565b80601f016020809104026020016040519081016040528092919081815260200182805461079690611906565b80156107e35780601f106107b8576101008083540402835291602001916107e3565b820191906000526020600020905b8154815290600101906020018083116107c657829003601f168201915b5050505050905093509350935093505b90919293565b610801610e78565b600954158061081257506009544211155b15610830576040516302e3478160e51b815260040160405180910390fd5b6108ba61083b610a66565b6006546040516370a0823160e01b81523060048201526001600160a01b03909116906370a0823190602401602060405180830381865afa158015610883573d6000803e3d6000fd5b505050506040513d601f19601f820116820180604052508101906108a79190611b21565b6006546001600160a01b03169190610eda565b565b6108c4610e78565b6108ba610f31565b7ff0c57e16840df040f15088dc2f81fe391c3923bec73e23a9662efc9c229c6a008054600160401b810460ff16159067ffffffffffffffff166000811580156109125750825b905060008267ffffffffffffffff16600114801561092f5750303b155b90508115801561093d575080155b1561095b5760405163f92ee8a960e01b815260040160405180910390fd5b845467ffffffffffffffff19166001178555831561098557845460ff60401b1916600160401b1785555b61098e87610f91565b610996611002565b61099e611012565b600680546001600160a01b0319166001600160a01b03881617905583156109ff57845460ff60401b19168555604051600181527fc7f505b2f371ae2175ee4913f4499e1f2633a7b5936321eed1cdaeb6115181d29060200160405180910390a15b50505050505050565b610a10611022565b610a19826110c7565b610a2382826110cf565b5050565b6000610a3161118c565b50600080516020611d5183398151915290565b610a4c610e78565b6108ba6000610f91565b610a5e610e78565b6108ba6111d5565b7f9016d09d72d40fdae2fd8ceac6b6234c7706214fd39c1cd1e609a0528c199300546001600160a01b031690565b6000610aa1600b54151590565b8015610aaf5750600c544210155b905090565b6000610abe610e0f565b610ac6610e40565b610ace610a94565b15610adb57610adb610cad565b600754610afb576040516359bd390560e11b815260040160405180910390fd5b60095415801590610b0d575060095442115b15610b2b5760405163c68c1b6560e01b815260040160405180910390fd5b600033604080516001600160a01b039092166020830152810186905260600160408051601f1981840301815282825280516020918201209083015201604051602081830303815290604052805190602001209050610bc084848080602002602001604051908101604052809392919081815260200183836020028082843760009201919091525050600754915084905061121e565b610bdd5760405163582f497d60e11b815260040160405180910390fd5b336000908152600f6020526040812054610bf79087611b50565b90508015610c7357610c16336006546001600160a01b03169083610eda565b336000908152600f602052604090208690557f3300bdb359cfb956935bca32e9db727413eab1ca84341f2e36caea85bb796968610c51610eaa565b60408051918252336020830152818101849052519081900360600190a1610c8c565b6040516323f3c4e160e11b815260040160405180910390fd5b915050610ca66001600080516020611d9183398151915255565b9392505050565b610cb5610e0f565b610cbd610a94565b610cda576040516326175e1b60e21b815260040160405180910390fd5b600b80546007908155600c54600855600d54600955600a610cfc600e82611b63565b505060408051608081018252600080825260208083018281528385018381528551928301909552918152606083018190528251600b9081559151600c559251600d5590925090600e90610d4f9082611a16565b509050507fbdc2fe8a014eee22afedc5e3d937388bac0a837f0710feabfc9b904fc203ad4e610d7c610eaa565b600754600854600954604051610d989493929190600a90611c36565b60405180910390a1565b610daa610e78565b6001600160a01b038116610dd957604051631e4fbdf760e01b8152600060048201526024015b60405180910390fd5b610de281610f91565b50565b60008060006060600b60000154600b60010154600b60020154600b60030180805461076a90611906565b600080516020611d718339815191525460ff16156108ba5760405163d93c066560e01b815260040160405180910390fd5b600080516020611d91833981519152805460011901610e7257604051633ee5aeb560e01b815260040160405180910390fd5b60029055565b33610e81610a66565b6001600160a01b0316146108ba5760405163118cdaa760e01b8152336004820152602401610dd0565b600080548180610eb983611ce3565b9190505550600054905090565b6001600080516020611d9183398151915255565b604080516001600160a01b038416602482015260448082018490528251808303909101815260649091019091526020810180516001600160e01b031663a9059cbb60e01b179052610f2c908490611234565b505050565b610f39611297565b600080516020611d71833981519152805460ff191681557f5db9ee0a495bf2e6ff9c91a7834c1ba4fdd244a5e8aa4e537bd38aeae4b073aa335b6040516001600160a01b03909116815260200160405180910390a150565b7f9016d09d72d40fdae2fd8ceac6b6234c7706214fd39c1cd1e609a0528c19930080546001600160a01b031981166001600160a01b03848116918217845560405192169182907f8be0079c531659141344cd1fd0a4f28419497f9722a3daafe3b4186f6b6457e090600090a3505050565b61100a6112c7565b6108ba611310565b61101a6112c7565b6108ba611318565b306001600160a01b037f00000000000000000000000000000000000000000000000000000000000000001614806110a957507f00000000000000000000000000000000000000000000000000000000000000006001600160a01b031661109d600080516020611d51833981519152546001600160a01b031690565b6001600160a01b031614155b156108ba5760405163703e46dd60e11b815260040160405180910390fd5b610de2610e78565b816001600160a01b03166352d1902d6040518163ffffffff1660e01b8152600401602060405180830381865afa925050508015611129575060408051601f3d908101601f1916820190925261112691810190611b21565b60015b61115157604051634c9c8ce360e01b81526001600160a01b0383166004820152602401610dd0565b600080516020611d51833981519152811461118257604051632a87526960e21b815260048101829052602401610dd0565b610f2c8383611339565b306001600160a01b037f000000000000000000000000000000000000000000000000000000000000000016146108ba5760405163703e46dd60e11b815260040160405180910390fd5b6111dd610e0f565b600080516020611d71833981519152805460ff191660011781557f62e78cea01bee320cd4e420270b5ea74000d11b0c9f74754ebdbfc544b05a25833610f73565b60008261122b858461138f565b14949350505050565b60006112496001600160a01b038416836113d4565b9050805160001415801561126e57508080602001905181019061126c9190611cfc565b155b15610f2c57604051635274afe760e01b81526001600160a01b0384166004820152602401610dd0565b600080516020611d718339815191525460ff166108ba57604051638dfc202b60e01b815260040160405180910390fd5b7ff0c57e16840df040f15088dc2f81fe391c3923bec73e23a9662efc9c229c6a0054600160401b900460ff166108ba57604051631afcd79f60e31b815260040160405180910390fd5b610ec66112c7565b6113206112c7565b600080516020611d71833981519152805460ff19169055565b611342826113e2565b6040516001600160a01b038316907fbc7cd75a20ee27fd9adebab32041f755214dbc6bffa90cc0225b39da2e5c2d3b90600090a280511561138757610f2c8282611447565b610a236114bd565b600081815b84518110156113ca576113c0828683815181106113b3576113b3611d1e565b60200260200101516114dc565b9150600101611394565b5090505b92915050565b6060610ca68383600061150b565b806001600160a01b03163b60000361141857604051634c9c8ce360e01b81526001600160a01b0382166004820152602401610dd0565b600080516020611d5183398151915280546001600160a01b0319166001600160a01b0392909216919091179055565b6060600080846001600160a01b0316846040516114649190611d34565b600060405180830381855af49150503d806000811461149f576040519150601f19603f3d011682016040523d82523d6000602084013e6114a4565b606091505b50915091506114b48583836115a8565b95945050505050565b34156108ba5760405163b398979f60e01b815260040160405180910390fd5b60008183106114f8576000828152602084905260409020610ca6565b6000838152602083905260409020610ca6565b6060814710156115305760405163cd78605960e01b8152306004820152602401610dd0565b600080856001600160a01b0316848660405161154c9190611d34565b60006040518083038185875af1925050503d8060008114611589576040519150601f19603f3d011682016040523d82523d6000602084013e61158e565b606091505b509150915061159e8683836115a8565b9695505050505050565b6060826115bd576115b882611604565b610ca6565b81511580156115d457506001600160a01b0384163b155b156115fd57604051639996b31560e01b81526001600160a01b0385166004820152602401610dd0565b5080610ca6565b8051156116145780518082602001fd5b604051630a12f52160e11b815260040160405180910390fd5b60008060008060006080868803121561164557600080fd5b853594506020860135935060408601359250606086013567ffffffffffffffff8082111561167257600080fd5b818801915088601f83011261168657600080fd5b81358181111561169557600080fd5b8960208285010111156116a757600080fd5b9699959850939650602001949392505050565b6001600160a01b0381168114610de257600080fd5b6000602082840312156116e157600080fd5b8135610ca6816116ba565b60005b838110156117075781810151838201526020016116ef565b50506000910152565b600081518084526117288160208601602086016116ec565b601f01601f19169290920160200192915050565b84815283602082015282604082015260806060820152600061159e6080830184611710565b6000806040838503121561177457600080fd5b823561177f816116ba565b9150602083013561178f816116ba565b809150509250929050565b634e487b7160e01b600052604160045260246000fd5b600080604083850312156117c357600080fd5b82356117ce816116ba565b9150602083013567ffffffffffffffff808211156117eb57600080fd5b818501915085601f8301126117ff57600080fd5b8135818111156118115761181161179a565b604051601f8201601f19908116603f011681019083821181831017156118395761183961179a565b8160405282815288602084870101111561185257600080fd5b8260208601602083013760006020848301015280955050505050509250929050565b60008060006040848603121561188957600080fd5b83359250602084013567ffffffffffffffff808211156118a857600080fd5b818601915086601f8301126118bc57600080fd5b8135818111156118cb57600080fd5b8760208260051b85010111156118e057600080fd5b6020830194508093505050509250925092565b602081526000610ca66020830184611710565b600181811c9082168061191a57607f821691505b60208210810361193a57634e487b7160e01b600052602260045260246000fd5b50919050565b600080835461194e81611906565b60018281168015611966576001811461197b576119aa565b60ff19841687528215158302870194506119aa565b8760005260208060002060005b858110156119a15781548a820152908401908201611988565b50505082870194505b50929695505050505050565b8183823760009101908152919050565b601f821115610f2c576000816000526020600020601f850160051c810160208610156119ef5750805b601f850160051c820191505b81811015611a0e578281556001016119fb565b505050505050565b815167ffffffffffffffff811115611a3057611a3061179a565b611a4481611a3e8454611906565b846119c6565b602080601f831160018114611a795760008415611a615750858301515b600019600386901b1c1916600185901b178555611a0e565b600085815260208120601f198616915b82811015611aa857888601518255948401946001909101908401611a89565b5085821015611ac65787850151600019600388901b60f8161c191681555b5050505050600190811b01905550565b86815285602082015284604082015283606082015260a060808201528160a0820152818360c0830137600081830160c090810191909152601f909201601f1916010195945050505050565b600060208284031215611b3357600080fd5b5051919050565b634e487b7160e01b600052601160045260246000fd5b818103818111156113ce576113ce611b3a565b818103611b6e575050565b611b788254611906565b67ffffffffffffffff811115611b9057611b9061179a565b611b9e81611a3e8454611906565b6000601f821160018114611bd25760008315611bba5750848201545b600019600385901b1c1916600184901b17845561063f565b600085815260209020601f19841690600086815260209020845b83811015611c0c5782860154825560019586019590910190602001611bec565b5085831015611ac65793015460001960f8600387901b161c19169092555050600190811b01905550565b8581526000602086602084015285604084015284606084015260a0608084015260008454611c6381611906565b8060a087015260c0600180841660008114611c855760018114611ca157611cd1565b60ff19851660c08a015260c084151560051b8a01019550611cd1565b89600052602060002060005b85811015611cc85781548b8201860152908301908801611cad565b8a0160c0019650505b50939c9b505050505050505050505050565b600060018201611cf557611cf5611b3a565b5060010190565b600060208284031215611d0e57600080fd5b81518015158114610ca657600080fd5b634e487b7160e01b600052603260045260246000fd5b60008251611d468184602087016116ec565b919091019291505056fe360894a13ba1a3210667c828492db98dca3e2076cc3735a920a3ca505d382bbccd5ed15c6e187e77e9aee88184c21f4f2182ab5827cb3b7e07fbedcd63f033009b779b17422d0df92223018b32b4d1fa46e071723d6817e2486d003becc55f00a2646970667358221220aa21ac04fa57b68c2e52738bf1758878b787795c66b445cc68142dd06e8b371d64736f6c63430008160033",
  "devdoc": {
    "author": "Orderly Network",
    "errors": {
      "AddressEmptyCode(address)": [
        {
          "details": "There's no code at `target` (it is not a contract)."
        }
      ],
      "AddressInsufficientBalance(address)": [
        {
          "details": "The ETH balance of the account is not enough to perform the operation."
        }
      ],
      "ERC1967InvalidImplementation(address)": [
        {
          "details": "The `implementation` of the proxy is invalid."
        }
      ],
      "ERC1967NonPayable()": [
        {
          "details": "An upgrade function sees `msg.value > 0` that may be lost."
        }
      ],
      "EnforcedPause()": [
        {
          "details": "The operation failed because the contract is paused."
        }
      ],
      "ExpectedPause()": [
        {
          "details": "The operation failed because the contract is not paused."
        }
      ],
      "FailedInnerCall()": [
        {
          "details": "A call to an address target failed. The target may have reverted."
        }
      ],
      "InvalidInitialization()": [
        {
          "details": "The contract is already initialized."
        }
      ],
      "NotInitializing()": [
        {
          "details": "The contract is not initializing."
        }
      ],
      "OwnableInvalidOwner(address)": [
        {
          "details": "The owner is not a valid owner account. (eg. `address(0)`)"
        }
      ],
      "OwnableUnauthorizedAccount(address)": [
        {
          "details": "The caller account is not authorized to perform an operation."
        }
      ],
      "ReentrancyGuardReentrantCall()": [
        {
          "details": "Unauthorized reentrant call."
        }
      ],
      "SafeERC20FailedOperation(address)": [
        {
          "details": "An operation with an ERC20 token failed."
        }
      ],
      "UUPSUnauthorizedCallContext()": [
        {
          "details": "The call is from an unauthorized context."
        }
      ],
      "UUPSUnsupportedProxiableUUID(bytes32)": [
        {
          "details": "The storage `slot` is unsupported as a UUID."
        }
      ]
    },
    "events": {
      "Initialized(uint64)": {
        "details": "Triggered when the contract has been initialized or reinitialized."
      },
      "Paused(address)": {
        "details": "Emitted when the pause is triggered by `account`."
      },
      "Unpaused(address)": {
        "details": "Emitted when the pause is lifted by `account`."
      },
      "Upgraded(address)": {
        "details": "Emitted when the implementation is upgraded."
      }
    },
    "kind": "dev",
    "methods": {
      "canUpdateRoot()": {
        "returns": {
          "_0": "Boolean `true` if the active root can be updated to the proposed root, else `false`."
        }
      },
      "claimRewards(uint256,bytes32[])": {
        "params": {
          "_cumulativeAmount": "The total all-time rewards this user has earned.",
          "_merkleProof": "The Merkle proof for the user and cumulative amount."
        },
        "returns": {
          "_0": "The number of rewards tokens claimed.  Reverts if no active Merkle root is set.  Reverts if the provided Merkle proof is invalid."
        }
      },
      "constructor": {
        "custom:oz-upgrades-unsafe-allow": "constructor"
      },
      "getActualRoot()": {
        "returns": {
          "endTimestamp": "  Timestamp when distribution stops. Zero means no end time.",
          "ipfsCid": "       An IPFS CID pointing to the Merkle tree data.",
          "merkleRoot": "    The actual Merkle root.",
          "startTimestamp": "Timestamp when this Merkle root become active."
        }
      },
      "getClaimed(address)": {
        "params": {
          "_user": "The address of the user."
        },
        "returns": {
          "_0": "The amount tokens claimed so far by that user."
        }
      },
      "getProposedRoot()": {
        "returns": {
          "endTimestamp": "  Timestamp when distribution stops. Zero means no end time.",
          "ipfsCid": "       An IPFS CID pointing to the Merkle tree data.",
          "merkleRoot": "    The proposed Merkle root.",
          "startTimestamp": "Timestamp when this Merkle root become active."
        }
      },
      "owner()": {
        "details": "Returns the address of the current owner."
      },
      "paused()": {
        "details": "Returns true if the contract is paused, and false otherwise."
      },
      "proposeRoot(bytes32,uint256,uint256,bytes)": {
        "params": {
          "_endTimestamp": "Timestamp when distribution stops. Zero means no end time.",
          "_ipfsCid": "An IPFS CID pointing to the Merkle tree data.  Reverts if the proposed root is bytes32(0).  Reverts if the proposed startTimestamp is in the past.  Reverts if the proposed endTimestamp is less than or equal to the proposed startTimestamp.  Reverts if the proposed root is already proposed.",
          "_merkleRoot": "The Merkle root.",
          "_startTimestamp": "The timestamp when this Merkle root become active"
        }
      },
      "proxiableUUID()": {
        "details": "Implementation of the ERC1822 {proxiableUUID} function. This returns the storage slot used by the implementation. It is used to validate the implementation's compatibility when performing an upgrade. IMPORTANT: A proxy pointing at a proxiable contract should not be considered proxiable itself, because this risks bricking a proxy that upgrades to it, by delegating to itself until out of gas. Thus it is critical that this function revert if invoked through a proxy. This is guaranteed by the `notDelegated` modifier."
      },
      "renounceOwnership()": {
        "details": "Leaves the contract without owner. It will not be possible to call `onlyOwner` functions. Can only be called by the current owner. NOTE: Renouncing ownership will leave the contract without an owner, thereby disabling any functionality that is only available to the owner."
      },
      "transferOwnership(address)": {
        "details": "Transfers ownership of the contract to a new account (`newOwner`). Can only be called by the current owner."
      },
      "upgradeToAndCall(address,bytes)": {
        "custom:oz-upgrades-unsafe-allow-reachable": "delegatecall",
        "details": "Upgrade the implementation of the proxy to `newImplementation`, and subsequently execute the function call encoded in `data`. Calls {_authorizeUpgrade}. Emits an {Upgraded} event."
      }
    },
    "stateVariables": {
      "activeRoot": {
        "details": "The active Merkle root and associated parameters."
      },
      "claimedAmounts": {
        "details": "Mapping of (user address) => (number of tokens claimed)."
      },
      "proposedRoot": {
        "details": "The proposed Merkle root and associated parameters."
      }
    },
    "title": "Orderly MerkleDistributor for Layer 1",
    "version": 1
  },
  "userdoc": {
    "events": {
      "RewardsClaimed(uint256,address,uint256)": {
        "notice": "Emitted when a user claims rewards."
      },
      "RootProposed(uint256,bytes32,uint256,uint256,bytes)": {
        "notice": "Emitted when a new Merkle root is proposed."
      },
      "RootUpdated(uint256,bytes32,uint256,uint256,bytes)": {
        "notice": "Emitted when proposed Merkle root becomes active."
      }
    },
    "kind": "user",
    "methods": {
      "canUpdateRoot()": {
        "notice": "Returns true if there is a proposed root waiting to become active         and the start time has passed."
      },
      "claimRewards(uint256,bytes32[])": {
        "notice": "Claim the remaining unclaimed rewards for the sender."
      },
      "eventId()": {
        "notice": "Unique event id for event tracking"
      },
      "getActualRoot()": {
        "notice": "Get the actual Merkle root and associated parameters.         In most cases it will be the active Merkle root.         But if there is a proposed root and the start timestamp has passed, it will be the proposed root.         Because it will be updated at the beginning of the next claimReward call and become active from that moment.         So, user will actually obtain the rewards from the proposed root and have to provide amount and proof for it."
      },
      "getClaimed(address)": {
        "notice": "Get the tokens amount claimed so far by a given user."
      },
      "getProposedRoot()": {
        "notice": "Get the proposed Merkle root and associated parameters.         When the proposed root become active, it will be zeroed.         So, this function will return non-zero values only if the proposed root is pending."
      },
      "hasPendingRoot()": {
        "notice": "Returns true if there is a proposed root waiting to become active.         This is the case if the proposed root  is not zero."
      },
      "pause()": {
        "notice": "Pause external functionality"
      },
      "proposeRoot(bytes32,uint256,uint256,bytes)": {
        "notice": "Set the proposed root parameters.         Locked for owner.         Allows to update proposed root before startTimestamp passed.         If startTimestamp passed, proposed root will be propogated to active root."
      },
      "setTokenAddress(address)": {
        "notice": "Set the token address"
      },
      "unpause()": {
        "notice": "Unpause external functionality"
      },
      "updateRoot()": {
        "notice": "Set the active root parameters to the proposed root parameters.         Non-reeentrant guard is disabled because this function is called from claimRewards.  Reverts if root updates are paused.  Reverts if the proposed root is bytes32(0).  Reverts if the waiting period for the proposed root has not elapsed."
      },
      "withdraw()": {
        "notice": "Withdraw the remaining tokens from the contract after the distribution has ended."
      }
    },
    "notice": "This contract aimed for the distribution of airdrops for early orderly users, orderly NFT holders, target users         Distribution based on Merkle distribution mechanism similar to Uniswap's MerkleDistributor.         The Merkle root can be updated by owner.         It allows to distribute continuously growing rewards.         For that purpose Merkle tree contains leafs with cumulative non-decreasing reward amounts.         Contract is pausible by owner. It allows to pause claiming rewards.         The contract is upgradeable to allow for future changes to the rewards distribution mechanism.",
    "version": 1
  },
  "storageLayout": {
    "storage": [
      {
        "astId": 3255,
        "contract": "contracts/MerkleDistributorL1.sol:MerkleDistributorL1",
        "label": "eventId",
        "offset": 0,
        "slot": "0",
        "type": "t_uint256"
      },
      {
        "astId": 3271,
        "contract": "contracts/MerkleDistributorL1.sol:MerkleDistributorL1",
        "label": "__gap",
        "offset": 0,
        "slot": "1",
        "type": "t_array(t_uint256)5_storage"
      },
      {
        "astId": 2660,
        "contract": "contracts/MerkleDistributorL1.sol:MerkleDistributorL1",
        "label": "token",
        "offset": 0,
        "slot": "6",
        "type": "t_address"
      },
      {
        "astId": 2664,
        "contract": "contracts/MerkleDistributorL1.sol:MerkleDistributorL1",
        "label": "activeRoot",
        "offset": 0,
        "slot": "7",
        "type": "t_struct(MerkleTree)2658_storage"
      },
      {
        "astId": 2668,
        "contract": "contracts/MerkleDistributorL1.sol:MerkleDistributorL1",
        "label": "proposedRoot",
        "offset": 0,
        "slot": "11",
        "type": "t_struct(MerkleTree)2658_storage"
      },
      {
        "astId": 2673,
        "contract": "contracts/MerkleDistributorL1.sol:MerkleDistributorL1",
        "label": "claimedAmounts",
        "offset": 0,
        "slot": "15",
        "type": "t_mapping(t_address,t_uint256)"
      }
    ],
    "types": {
      "t_address": {
        "encoding": "inplace",
        "label": "address",
        "numberOfBytes": "20"
      },
      "t_array(t_uint256)5_storage": {
        "base": "t_uint256",
        "encoding": "inplace",
        "label": "uint256[5]",
        "numberOfBytes": "160"
      },
      "t_bytes32": {
        "encoding": "inplace",
        "label": "bytes32",
        "numberOfBytes": "32"
      },
      "t_bytes_storage": {
        "encoding": "bytes",
        "label": "bytes",
        "numberOfBytes": "32"
      },
      "t_mapping(t_address,t_uint256)": {
        "encoding": "mapping",
        "key": "t_address",
        "label": "mapping(address => uint256)",
        "numberOfBytes": "32",
        "value": "t_uint256"
      },
      "t_struct(MerkleTree)2658_storage": {
        "encoding": "inplace",
        "label": "struct MerkleDistributorL1.MerkleTree",
        "members": [
          {
            "astId": 2648,
            "contract": "contracts/MerkleDistributorL1.sol:MerkleDistributorL1",
            "label": "merkleRoot",
            "offset": 0,
            "slot": "0",
            "type": "t_bytes32"
          },
          {
            "astId": 2651,
            "contract": "contracts/MerkleDistributorL1.sol:MerkleDistributorL1",
            "label": "startTimestamp",
            "offset": 0,
            "slot": "1",
            "type": "t_uint256"
          },
          {
            "astId": 2654,
            "contract": "contracts/MerkleDistributorL1.sol:MerkleDistributorL1",
            "label": "endTimestamp",
            "offset": 0,
            "slot": "2",
            "type": "t_uint256"
          },
          {
            "astId": 2657,
            "contract": "contracts/MerkleDistributorL1.sol:MerkleDistributorL1",
            "label": "ipfsCid",
            "offset": 0,
            "slot": "3",
            "type": "t_bytes_storage"
          }
        ],
        "numberOfBytes": "128"
      },
      "t_uint256": {
        "encoding": "inplace",
        "label": "uint256",
        "numberOfBytes": "32"
      }
    }
  }
}