{
  "address": "0x0723f7fe8f0618EBf5A6c8bb385D3a1Fea8cba60",
  "abi": [
    {
      "inputs": [],
      "name": "AccessControlBadConfirmation",
      "type": "error"
    },
    {
      "inputs": [
        {
          "internalType": "address",
          "name": "account",
          "type": "address"
        },
        {
          "internalType": "bytes32",
          "name": "neededRole",
          "type": "bytes32"
        }
      ],
      "name": "AccessControlUnauthorizedAccount",
      "type": "error"
    },
    {
      "inputs": [
        {
          "internalType": "address",
          "name": "target",
          "type": "address"
        }
      ],
      "name": "AddressEmptyCode",
      "type": "error"
    },
    {
      "inputs": [],
      "name": "AmountIsGreaterThanCollectedValor",
      "type": "error"
    },
    {
      "inputs": [],
      "name": "AmountIsZero",
      "type": "error"
    },
    {
      "inputs": [],
      "name": "BatchIsNotCreatedYet",
      "type": "error"
    },
    {
      "inputs": [],
      "name": "BatchIsNotFinished",
      "type": "error"
    },
    {
      "inputs": [],
      "name": "BatchValorToUsdcRateIsNotFixed",
      "type": "error"
    },
    {
      "inputs": [],
      "name": "CannotUpdateRoot",
      "type": "error"
    },
    {
      "inputs": [
        {
          "internalType": "uint256",
          "name": "amountEsorderDeposited",
          "type": "uint256"
        },
        {
          "internalType": "uint256",
          "name": "amountEsorderRequested",
          "type": "uint256"
        }
      ],
      "name": "DepositNotEnough",
      "type": "error"
    },
    {
      "inputs": [],
      "name": "DistributionAlreadyExists",
      "type": "error"
    },
    {
      "inputs": [],
      "name": "DistributionNotFound",
      "type": "error"
    },
    {
      "inputs": [],
      "name": "ECDSAInvalidSignature",
      "type": "error"
    },
    {
      "inputs": [
        {
          "internalType": "uint256",
          "name": "length",
          "type": "uint256"
        }
      ],
      "name": "ECDSAInvalidSignatureLength",
      "type": "error"
    },
    {
      "inputs": [
        {
          "internalType": "bytes32",
          "name": "s",
          "type": "bytes32"
        }
      ],
      "name": "ECDSAInvalidSignatureS",
      "type": "error"
    },
    {
      "inputs": [
        {
          "internalType": "address",
          "name": "implementation",
          "type": "address"
        }
      ],
      "name": "ERC1967InvalidImplementation",
      "type": "error"
    },
    {
      "inputs": [],
      "name": "ERC1967NonPayable",
      "type": "error"
    },
    {
      "inputs": [],
      "name": "EnforcedPause",
      "type": "error"
    },
    {
      "inputs": [],
      "name": "ExpectedPause",
      "type": "error"
    },
    {
      "inputs": [],
      "name": "FailedInnerCall",
      "type": "error"
    },
    {
      "inputs": [],
      "name": "InvalidInitialization",
      "type": "error"
    },
    {
      "inputs": [],
      "name": "InvalidMerkleProof",
      "type": "error"
    },
    {
      "inputs": [],
      "name": "InvalidSignature",
      "type": "error"
    },
    {
      "inputs": [],
      "name": "NoActiveMerkleRoot",
      "type": "error"
    },
    {
      "inputs": [],
      "name": "NoPendingUnstakeRequest",
      "type": "error"
    },
    {
      "inputs": [],
      "name": "NotInitializing",
      "type": "error"
    },
    {
      "inputs": [
        {
          "internalType": "address",
          "name": "user",
          "type": "address"
        },
        {
          "internalType": "uint256",
          "name": "chainId",
          "type": "uint256"
        }
      ],
      "name": "NothingToClaim",
      "type": "error"
    },
    {
      "inputs": [],
      "name": "ProposedMerkleRootIsZero",
      "type": "error"
    },
    {
      "inputs": [],
      "name": "RedemptionAmountIsZero",
      "type": "error"
    },
    {
      "inputs": [],
      "name": "ReentrancyGuardReentrantCall",
      "type": "error"
    },
    {
      "inputs": [
        {
          "internalType": "enum LedgerToken",
          "name": "token",
          "type": "uint8"
        }
      ],
      "name": "StakingBalanceInsufficient",
      "type": "error"
    },
    {
      "inputs": [],
      "name": "StartTimestampIsInThePast",
      "type": "error"
    },
    {
      "inputs": [],
      "name": "ThisMerkleRootIsAlreadyProposed",
      "type": "error"
    },
    {
      "inputs": [],
      "name": "TokenIsNotSupportedForDistribution",
      "type": "error"
    },
    {
      "inputs": [],
      "name": "TooEarlyUsdcNetFeeRevenueUpdate",
      "type": "error"
    },
    {
      "inputs": [],
      "name": "UUPSUnauthorizedCallContext",
      "type": "error"
    },
    {
      "inputs": [
        {
          "internalType": "bytes32",
          "name": "slot",
          "type": "bytes32"
        }
      ],
      "name": "UUPSUnsupportedProxiableUUID",
      "type": "error"
    },
    {
      "inputs": [],
      "name": "UnlockTimeNotPassedYet",
      "type": "error"
    },
    {
      "inputs": [],
      "name": "UnsupportedPayloadType",
      "type": "error"
    },
    {
      "inputs": [],
      "name": "UnsupportedToken",
      "type": "error"
    },
    {
      "inputs": [
        {
          "internalType": "address",
          "name": "_user",
          "type": "address"
        },
        {
          "internalType": "uint256",
          "name": "_requestId",
          "type": "uint256"
        }
      ],
      "name": "UserDontHaveVestingRequest",
      "type": "error"
    },
    {
      "inputs": [],
      "name": "ValorPerSecondExceedsMaxValue",
      "type": "error"
    },
    {
      "inputs": [],
      "name": "VestingAmountIsZero",
      "type": "error"
    },
    {
      "inputs": [],
      "name": "VestingLinearPeriodIsZero",
      "type": "error"
    },
    {
      "inputs": [],
      "name": "VestingLockPeriodIsZero",
      "type": "error"
    },
    {
      "inputs": [],
      "name": "VestingLockPeriodNotPassed",
      "type": "error"
    },
    {
      "inputs": [],
      "name": "VestingPeriodIsOutOfRange",
      "type": "error"
    },
    {
      "anonymous": false,
      "inputs": [
        {
          "indexed": true,
          "internalType": "uint16",
          "name": "batchId",
          "type": "uint16"
        }
      ],
      "name": "BatchPreparedToClaim",
      "type": "event"
    },
    {
      "anonymous": false,
      "inputs": [
        {
          "indexed": true,
          "internalType": "uint16",
          "name": "batchId",
          "type": "uint16"
        },
        {
          "indexed": false,
          "internalType": "uint256",
          "name": "fixedValorToUsdcRate",
          "type": "uint256"
        }
      ],
      "name": "BatchValorToUsdcRateIsFixed",
      "type": "event"
    },
    {
      "anonymous": false,
      "inputs": [
        {
          "indexed": true,
          "internalType": "uint256",
          "name": "timestamp",
          "type": "uint256"
        },
        {
          "indexed": false,
          "internalType": "uint256",
          "name": "usdcNetFeeRevenue",
          "type": "uint256"
        },
        {
          "indexed": false,
          "internalType": "uint256",
          "name": "totalUsdcInTreasure",
          "type": "uint256"
        },
        {
          "indexed": false,
          "internalType": "uint256",
          "name": "totalValorAmount",
          "type": "uint256"
        },
        {
          "indexed": false,
          "internalType": "uint256",
          "name": "valorToUsdcRateScaled",
          "type": "uint256"
        }
      ],
      "name": "DailyUsdcNetFeeRevenueUpdated",
      "type": "event"
    },
    {
      "anonymous": false,
      "inputs": [
        {
          "indexed": true,
          "internalType": "uint256",
          "name": "eventId",
          "type": "uint256"
        },
        {
          "indexed": true,
          "internalType": "uint32",
          "name": "distributionId",
          "type": "uint32"
        },
        {
          "indexed": false,
          "internalType": "enum LedgerToken",
          "name": "token",
          "type": "uint8"
        },
        {
          "indexed": false,
          "internalType": "bytes32",
          "name": "merkleRoot",
          "type": "bytes32"
        },
        {
          "indexed": false,
          "internalType": "uint256",
          "name": "startTimestamp",
          "type": "uint256"
        },
        {
          "indexed": false,
          "internalType": "bytes",
          "name": "ipfsCid",
          "type": "bytes"
        }
      ],
      "name": "DistributionCreated",
      "type": "event"
    },
    {
      "anonymous": false,
      "inputs": [
        {
          "indexed": true,
          "internalType": "uint256",
          "name": "chainedEventId",
          "type": "uint256"
        },
        {
          "indexed": true,
          "internalType": "uint256",
          "name": "chainId",
          "type": "uint256"
        },
        {
          "indexed": true,
          "internalType": "address",
          "name": "staker",
          "type": "address"
        },
        {
          "indexed": false,
          "internalType": "uint256",
          "name": "amount",
          "type": "uint256"
        }
      ],
      "name": "EsOrderUnstake",
      "type": "event"
    },
    {
      "anonymous": false,
      "inputs": [
        {
          "indexed": false,
          "internalType": "uint64",
          "name": "version",
          "type": "uint64"
        }
      ],
      "name": "Initialized",
      "type": "event"
    },
    {
      "anonymous": false,
      "inputs": [
        {
          "indexed": true,
          "internalType": "address",
          "name": "staker",
          "type": "address"
        },
        {
          "indexed": false,
          "internalType": "uint256",
          "name": "totalUnstakedAmount",
          "type": "uint256"
        },
        {
          "indexed": false,
          "internalType": "uint256",
          "name": "unlockTimestamp",
          "type": "uint256"
        }
      ],
      "name": "OrderUnstakeAmount",
      "type": "event"
    },
    {
      "anonymous": false,
      "inputs": [
        {
          "indexed": true,
          "internalType": "uint256",
          "name": "chainedEventId",
          "type": "uint256"
        },
        {
          "indexed": true,
          "internalType": "uint256",
          "name": "chainId",
          "type": "uint256"
        },
        {
          "indexed": true,
          "internalType": "address",
          "name": "staker",
          "type": "address"
        },
        {
          "indexed": false,
          "internalType": "uint256",
          "name": "pendingOrderAmount",
          "type": "uint256"
        }
      ],
      "name": "OrderUnstakeCancelled",
      "type": "event"
    },
    {
      "anonymous": false,
      "inputs": [
        {
          "indexed": true,
          "internalType": "uint256",
          "name": "chainedEventId",
          "type": "uint256"
        },
        {
          "indexed": true,
          "internalType": "uint256",
          "name": "chainId",
          "type": "uint256"
        },
        {
          "indexed": true,
          "internalType": "address",
          "name": "staker",
          "type": "address"
        },
        {
          "indexed": false,
          "internalType": "uint256",
          "name": "amount",
          "type": "uint256"
        }
      ],
      "name": "OrderUnstakeRequested",
      "type": "event"
    },
    {
      "anonymous": false,
      "inputs": [
        {
          "indexed": true,
          "internalType": "uint256",
          "name": "chainedEventId",
          "type": "uint256"
        },
        {
          "indexed": true,
          "internalType": "uint256",
          "name": "chainId",
          "type": "uint256"
        },
        {
          "indexed": true,
          "internalType": "address",
          "name": "staker",
          "type": "address"
        },
        {
          "indexed": false,
          "internalType": "uint256",
          "name": "amount",
          "type": "uint256"
        }
      ],
      "name": "OrderWithdrawn",
      "type": "event"
    },
    {
      "anonymous": false,
      "inputs": [
        {
          "indexed": false,
          "internalType": "address",
          "name": "account",
          "type": "address"
        }
      ],
      "name": "Paused",
      "type": "event"
    },
    {
      "anonymous": false,
      "inputs": [
        {
          "indexed": true,
          "internalType": "uint256",
          "name": "chainedEventId",
          "type": "uint256"
        },
        {
          "indexed": true,
          "internalType": "uint256",
          "name": "chainId",
          "type": "uint256"
        },
        {
          "indexed": true,
          "internalType": "uint32",
          "name": "distributionId",
          "type": "uint32"
        },
        {
          "indexed": false,
          "internalType": "address",
          "name": "account",
          "type": "address"
        },
        {
          "indexed": false,
          "internalType": "uint256",
          "name": "amount",
          "type": "uint256"
        },
        {
          "indexed": false,
          "internalType": "enum LedgerToken",
          "name": "token",
          "type": "uint8"
        }
      ],
      "name": "RewardsClaimed",
      "type": "event"
    },
    {
      "anonymous": false,
      "inputs": [
        {
          "indexed": true,
          "internalType": "bytes32",
          "name": "role",
          "type": "bytes32"
        },
        {
          "indexed": true,
          "internalType": "bytes32",
          "name": "previousAdminRole",
          "type": "bytes32"
        },
        {
          "indexed": true,
          "internalType": "bytes32",
          "name": "newAdminRole",
          "type": "bytes32"
        }
      ],
      "name": "RoleAdminChanged",
      "type": "event"
    },
    {
      "anonymous": false,
      "inputs": [
        {
          "indexed": true,
          "internalType": "bytes32",
          "name": "role",
          "type": "bytes32"
        },
        {
          "indexed": true,
          "internalType": "address",
          "name": "account",
          "type": "address"
        },
        {
          "indexed": true,
          "internalType": "address",
          "name": "sender",
          "type": "address"
        }
      ],
      "name": "RoleGranted",
      "type": "event"
    },
    {
      "anonymous": false,
      "inputs": [
        {
          "indexed": true,
          "internalType": "bytes32",
          "name": "role",
          "type": "bytes32"
        },
        {
          "indexed": true,
          "internalType": "address",
          "name": "account",
          "type": "address"
        },
        {
          "indexed": true,
          "internalType": "address",
          "name": "sender",
          "type": "address"
        }
      ],
      "name": "RoleRevoked",
      "type": "event"
    },
    {
      "anonymous": false,
      "inputs": [
        {
          "indexed": true,
          "internalType": "uint256",
          "name": "eventId",
          "type": "uint256"
        },
        {
          "indexed": true,
          "internalType": "uint32",
          "name": "distributionId",
          "type": "uint32"
        },
        {
          "indexed": false,
          "internalType": "bytes32",
          "name": "merkleRoot",
          "type": "bytes32"
        },
        {
          "indexed": false,
          "internalType": "uint256",
          "name": "startTimestamp",
          "type": "uint256"
        },
        {
          "indexed": false,
          "internalType": "bytes",
          "name": "ipfsCid",
          "type": "bytes"
        }
      ],
      "name": "RootProposed",
      "type": "event"
    },
    {
      "anonymous": false,
      "inputs": [
        {
          "indexed": true,
          "internalType": "uint256",
          "name": "eventId",
          "type": "uint256"
        },
        {
          "indexed": true,
          "internalType": "uint32",
          "name": "distributionId",
          "type": "uint32"
        },
        {
          "indexed": false,
          "internalType": "bytes32",
          "name": "merkleRoot",
          "type": "bytes32"
        },
        {
          "indexed": false,
          "internalType": "uint256",
          "name": "startTimestamp",
          "type": "uint256"
        },
        {
          "indexed": false,
          "internalType": "bytes",
          "name": "ipfsCid",
          "type": "bytes"
        }
      ],
      "name": "RootUpdated",
      "type": "event"
    },
    {
      "anonymous": false,
      "inputs": [
        {
          "indexed": true,
          "internalType": "uint256",
          "name": "chainedEventId",
          "type": "uint256"
        },
        {
          "indexed": true,
          "internalType": "uint256",
          "name": "chainId",
          "type": "uint256"
        },
        {
          "indexed": true,
          "internalType": "address",
          "name": "staker",
          "type": "address"
        },
        {
          "indexed": false,
          "internalType": "uint256",
          "name": "amount",
          "type": "uint256"
        },
        {
          "indexed": false,
          "internalType": "enum LedgerToken",
          "name": "token",
          "type": "uint8"
        }
      ],
      "name": "Staked",
      "type": "event"
    },
    {
      "anonymous": false,
      "inputs": [
        {
          "indexed": false,
          "internalType": "uint256",
          "name": "totalUsdcInTreasure",
          "type": "uint256"
        },
        {
          "indexed": false,
          "internalType": "uint256",
          "name": "totalValorAmount",
          "type": "uint256"
        },
        {
          "indexed": false,
          "internalType": "uint256",
          "name": "valorToUsdcRateScaled",
          "type": "uint256"
        }
      ],
      "name": "TotalUsdcInTreasureUpdated",
      "type": "event"
    },
    {
      "anonymous": false,
      "inputs": [
        {
          "indexed": false,
          "internalType": "address",
          "name": "account",
          "type": "address"
        }
      ],
      "name": "Unpaused",
      "type": "event"
    },
    {
      "anonymous": false,
      "inputs": [
        {
          "indexed": true,
          "internalType": "address",
          "name": "implementation",
          "type": "address"
        }
      ],
      "name": "Upgraded",
      "type": "event"
    },
    {
      "anonymous": false,
      "inputs": [
        {
          "indexed": true,
          "internalType": "uint256",
          "name": "chainEventId",
          "type": "uint256"
        },
        {
          "indexed": true,
          "internalType": "uint256",
          "name": "chainId",
          "type": "uint256"
        },
        {
          "indexed": true,
          "internalType": "address",
          "name": "user",
          "type": "address"
        },
        {
          "indexed": false,
          "internalType": "uint256",
          "name": "usdcAmount",
          "type": "uint256"
        }
      ],
      "name": "UsdcRevenueClaimed",
      "type": "event"
    },
    {
      "anonymous": false,
      "inputs": [
        {
          "indexed": true,
          "internalType": "uint256",
          "name": "chainEventId",
          "type": "uint256"
        },
        {
          "indexed": true,
          "internalType": "uint256",
          "name": "chainId",
          "type": "uint256"
        },
        {
          "indexed": true,
          "internalType": "address",
          "name": "user",
          "type": "address"
        },
        {
          "indexed": false,
          "internalType": "uint16",
          "name": "batchId",
          "type": "uint16"
        },
        {
          "indexed": false,
          "internalType": "uint256",
          "name": "valorAmount",
          "type": "uint256"
        }
      ],
      "name": "ValorRedeemed",
      "type": "event"
    },
    {
      "anonymous": false,
      "inputs": [
        {
          "indexed": true,
          "internalType": "uint256",
          "name": "chainEventId",
          "type": "uint256"
        },
        {
          "indexed": true,
          "internalType": "uint256",
          "name": "chainId",
          "type": "uint256"
        },
        {
          "indexed": true,
          "internalType": "address",
          "name": "user",
          "type": "address"
        },
        {
          "indexed": false,
          "internalType": "uint256",
          "name": "requestId",
          "type": "uint256"
        },
        {
          "indexed": false,
          "internalType": "uint256",
          "name": "amountEsorderStakedBack",
          "type": "uint256"
        }
      ],
      "name": "VestingCanceled",
      "type": "event"
    },
    {
      "anonymous": false,
      "inputs": [
        {
          "indexed": true,
          "internalType": "uint256",
          "name": "chainEventId",
          "type": "uint256"
        },
        {
          "indexed": true,
          "internalType": "uint256",
          "name": "chainId",
          "type": "uint256"
        },
        {
          "indexed": true,
          "internalType": "address",
          "name": "user",
          "type": "address"
        },
        {
          "indexed": false,
          "internalType": "uint256",
          "name": "requestId",
          "type": "uint256"
        },
        {
          "indexed": false,
          "internalType": "uint256",
          "name": "amountEsorderBurned",
          "type": "uint256"
        },
        {
          "indexed": false,
          "internalType": "uint256",
          "name": "amountOrderVested",
          "type": "uint256"
        },
        {
          "indexed": false,
          "internalType": "uint256",
          "name": "vestedPeriod",
          "type": "uint256"
        }
      ],
      "name": "VestingClaimed",
      "type": "event"
    },
    {
      "anonymous": false,
      "inputs": [
        {
          "indexed": true,
          "internalType": "uint256",
          "name": "chainEventId",
          "type": "uint256"
        },
        {
          "indexed": true,
          "internalType": "uint256",
          "name": "chainId",
          "type": "uint256"
        },
        {
          "indexed": true,
          "internalType": "address",
          "name": "user",
          "type": "address"
        },
        {
          "indexed": false,
          "internalType": "uint256",
          "name": "requestId",
          "type": "uint256"
        },
        {
          "indexed": false,
          "internalType": "uint256",
          "name": "amountEsorderRequested",
          "type": "uint256"
        },
        {
          "indexed": false,
          "internalType": "uint256",
          "name": "unlockTimestamp",
          "type": "uint256"
        }
      ],
      "name": "VestingRequested",
      "type": "event"
    },
    {
      "inputs": [],
      "name": "DEFAULT_ADMIN_ROLE",
      "outputs": [
        {
          "internalType": "bytes32",
          "name": "",
          "type": "bytes32"
        }
      ],
      "stateMutability": "view",
      "type": "function"
    },
    {
      "inputs": [],
      "name": "ROOT_UPDATER_ROLE",
      "outputs": [
        {
          "internalType": "bytes32",
          "name": "",
          "type": "bytes32"
        }
      ],
      "stateMutability": "view",
      "type": "function"
    },
    {
      "inputs": [],
      "name": "TREASURE_UPDATER_ROLE",
      "outputs": [
        {
          "internalType": "bytes32",
          "name": "",
          "type": "bytes32"
        }
      ],
      "stateMutability": "view",
      "type": "function"
    },
    {
      "inputs": [],
      "name": "UPGRADE_INTERFACE_VERSION",
      "outputs": [
        {
          "internalType": "string",
          "name": "",
          "type": "string"
        }
      ],
      "stateMutability": "view",
      "type": "function"
    },
    {
      "inputs": [],
      "name": "VALOR_TO_USDC_RATE_PRECISION",
      "outputs": [
        {
          "internalType": "uint256",
          "name": "",
          "type": "uint256"
        }
      ],
      "stateMutability": "view",
      "type": "function"
    },
    {
      "inputs": [],
      "name": "VERSION",
      "outputs": [
        {
          "internalType": "string",
          "name": "",
          "type": "string"
        }
      ],
      "stateMutability": "pure",
      "type": "function"
    },
    {
      "inputs": [],
      "name": "accValorPerShareScaled",
      "outputs": [
        {
          "internalType": "uint256",
          "name": "",
          "type": "uint256"
        }
      ],
      "stateMutability": "view",
      "type": "function"
    },
    {
      "inputs": [],
      "name": "batchDuration",
      "outputs": [
        {
          "internalType": "uint256",
          "name": "",
          "type": "uint256"
        }
      ],
      "stateMutability": "view",
      "type": "function"
    },
    {
      "inputs": [
        {
          "internalType": "uint16",
          "name": "_batchId",
          "type": "uint16"
        }
      ],
      "name": "batchPreparedToClaim",
      "outputs": [],
      "stateMutability": "nonpayable",
      "type": "function"
    },
    {
      "inputs": [],
      "name": "batchStartTimestamp",
      "outputs": [
        {
          "internalType": "uint256",
          "name": "",
          "type": "uint256"
        }
      ],
      "stateMutability": "view",
      "type": "function"
    },
    {
      "inputs": [
        {
          "internalType": "uint256",
          "name": "",
          "type": "uint256"
        }
      ],
      "name": "batches",
      "outputs": [
        {
          "internalType": "bool",
          "name": "claimable",
          "type": "bool"
        },
        {
          "internalType": "uint256",
          "name": "redeemedValorAmount",
          "type": "uint256"
        },
        {
          "internalType": "uint256",
          "name": "fixedValorToUsdcRateScaled",
          "type": "uint256"
        }
      ],
      "stateMutability": "view",
      "type": "function"
    },
    {
      "inputs": [
        {
          "internalType": "address",
          "name": "_user",
          "type": "address"
        },
        {
          "internalType": "uint256",
          "name": "_requestId",
          "type": "uint256"
        }
      ],
      "name": "calculateVestingOrderAmount",
      "outputs": [
        {
          "internalType": "uint256",
          "name": "",
          "type": "uint256"
        }
      ],
      "stateMutability": "view",
      "type": "function"
    },
    {
      "inputs": [
        {
          "internalType": "uint32",
          "name": "_distributionId",
          "type": "uint32"
        }
      ],
      "name": "canUpdateRoot",
      "outputs": [
        {
          "internalType": "bool",
          "name": "",
          "type": "bool"
        }
      ],
      "stateMutability": "view",
      "type": "function"
    },
    {
      "inputs": [
        {
          "internalType": "address",
          "name": "",
          "type": "address"
        }
      ],
      "name": "collectedValor",
      "outputs": [
        {
          "internalType": "uint256",
          "name": "",
          "type": "uint256"
        }
      ],
      "stateMutability": "view",
      "type": "function"
    },
    {
      "inputs": [
        {
          "internalType": "uint32",
          "name": "_distributionId",
          "type": "uint32"
        },
        {
          "internalType": "enum LedgerToken",
          "name": "_token",
          "type": "uint8"
        },
        {
          "internalType": "bytes32",
          "name": "_merkleRoot",
          "type": "bytes32"
        },
        {
          "internalType": "uint256",
          "name": "_startTimestamp",
          "type": "uint256"
        },
        {
          "internalType": "bytes",
          "name": "_ipfsCid",
          "type": "bytes"
        }
      ],
      "name": "createDistribution",
      "outputs": [],
      "stateMutability": "nonpayable",
      "type": "function"
    },
    {
      "inputs": [
        {
          "components": [
            {
              "internalType": "bytes32",
              "name": "r",
              "type": "bytes32"
            },
            {
              "internalType": "bytes32",
              "name": "s",
              "type": "bytes32"
            },
            {
              "internalType": "uint8",
              "name": "v",
              "type": "uint8"
            },
            {
              "internalType": "uint256",
              "name": "value",
              "type": "uint256"
            },
            {
              "internalType": "uint64",
              "name": "timestamp",
              "type": "uint64"
            }
          ],
          "internalType": "struct LedgerSignedTypes.UintValueData",
          "name": "data",
          "type": "tuple"
        }
      ],
      "name": "dailyUsdcNetFeeRevenue",
      "outputs": [],
      "stateMutability": "nonpayable",
      "type": "function"
    },
    {
      "inputs": [
        {
          "internalType": "uint16",
          "name": "_batchId",
          "type": "uint16"
        }
      ],
      "name": "fixBatchValorToUsdcRate",
      "outputs": [
        {
          "internalType": "uint256",
          "name": "",
          "type": "uint256"
        }
      ],
      "stateMutability": "nonpayable",
      "type": "function"
    },
    {
      "inputs": [
        {
          "internalType": "uint16",
          "name": "_batchId",
          "type": "uint16"
        }
      ],
      "name": "getBatchChainedValorAmount",
      "outputs": [
        {
          "components": [
            {
              "internalType": "uint256",
              "name": "chainId",
              "type": "uint256"
            },
            {
              "internalType": "uint256",
              "name": "amount",
              "type": "uint256"
            }
          ],
          "internalType": "struct Revenue.ChainedAmount[]",
          "name": "",
          "type": "tuple[]"
        }
      ],
      "stateMutability": "view",
      "type": "function"
    },
    {
      "inputs": [
        {
          "internalType": "uint16",
          "name": "_batchId",
          "type": "uint16"
        }
      ],
      "name": "getBatchInfo",
      "outputs": [
        {
          "internalType": "uint256",
          "name": "batchStartTime",
          "type": "uint256"
        },
        {
          "internalType": "uint256",
          "name": "batchEndTime",
          "type": "uint256"
        },
        {
          "internalType": "bool",
          "name": "claimable",
          "type": "bool"
        },
        {
          "internalType": "uint256",
          "name": "redeemedValorAmount",
          "type": "uint256"
        },
        {
          "internalType": "uint256",
          "name": "fixedValorToUsdcRateScaled",
          "type": "uint256"
        }
      ],
      "stateMutability": "view",
      "type": "function"
    },
    {
      "inputs": [
        {
          "internalType": "uint32",
          "name": "_distributionId",
          "type": "uint32"
        },
        {
          "internalType": "address",
          "name": "_user",
          "type": "address"
        }
      ],
      "name": "getClaimed",
      "outputs": [
        {
          "internalType": "uint256",
          "name": "",
          "type": "uint256"
        }
      ],
      "stateMutability": "view",
      "type": "function"
    },
    {
      "inputs": [],
      "name": "getCurrentBatchId",
      "outputs": [
        {
          "internalType": "uint16",
          "name": "",
          "type": "uint16"
        }
      ],
      "stateMutability": "view",
      "type": "function"
    },
    {
      "inputs": [
        {
          "internalType": "uint32",
          "name": "_distributionId",
          "type": "uint32"
        }
      ],
      "name": "getDistribution",
      "outputs": [
        {
          "internalType": "enum LedgerToken",
          "name": "token",
          "type": "uint8"
        },
        {
          "internalType": "bytes32",
          "name": "merkleRoot",
          "type": "bytes32"
        },
        {
          "internalType": "uint256",
          "name": "startTimestamp",
          "type": "uint256"
        },
        {
          "internalType": "bytes",
          "name": "ipfsCid",
          "type": "bytes"
        }
      ],
      "stateMutability": "view",
      "type": "function"
    },
    {
      "inputs": [
        {
          "internalType": "address",
          "name": "_user",
          "type": "address"
        }
      ],
      "name": "getOrderAvailableToWithdraw",
      "outputs": [
        {
          "internalType": "uint256",
          "name": "orderAmount",
          "type": "uint256"
        }
      ],
      "stateMutability": "view",
      "type": "function"
    },
    {
      "inputs": [
        {
          "internalType": "uint32",
          "name": "_distributionId",
          "type": "uint32"
        }
      ],
      "name": "getProposedRoot",
      "outputs": [
        {
          "internalType": "bytes32",
          "name": "merkleRoot",
          "type": "bytes32"
        },
        {
          "internalType": "uint256",
          "name": "startTimestamp",
          "type": "uint256"
        },
        {
          "internalType": "bytes",
          "name": "ipfsCid",
          "type": "bytes"
        }
      ],
      "stateMutability": "view",
      "type": "function"
    },
    {
      "inputs": [
        {
          "internalType": "bytes32",
          "name": "role",
          "type": "bytes32"
        }
      ],
      "name": "getRoleAdmin",
      "outputs": [
        {
          "internalType": "bytes32",
          "name": "",
          "type": "bytes32"
        }
      ],
      "stateMutability": "view",
      "type": "function"
    },
    {
      "inputs": [
        {
          "internalType": "address",
          "name": "_user",
          "type": "address"
        }
      ],
      "name": "getStakingInfo",
      "outputs": [
        {
          "internalType": "uint256",
          "name": "orderBalance",
          "type": "uint256"
        },
        {
          "internalType": "uint256",
          "name": "esOrderBalance",
          "type": "uint256"
        }
      ],
      "stateMutability": "view",
      "type": "function"
    },
    {
      "inputs": [
        {
          "internalType": "uint16",
          "name": "_batchId",
          "type": "uint16"
        }
      ],
      "name": "getUsdcAmountForBatch",
      "outputs": [
        {
          "components": [
            {
              "internalType": "uint256",
              "name": "chainId",
              "type": "uint256"
            },
            {
              "internalType": "uint256",
              "name": "amount",
              "type": "uint256"
            }
          ],
          "internalType": "struct Revenue.ChainedAmount[]",
          "name": "chainedUsdcAmount",
          "type": "tuple[]"
        }
      ],
      "stateMutability": "view",
      "type": "function"
    },
    {
      "inputs": [
        {
          "internalType": "address",
          "name": "_user",
          "type": "address"
        },
        {
          "internalType": "uint16",
          "name": "_batchId",
          "type": "uint16"
        },
        {
          "internalType": "uint256",
          "name": "_chainId",
          "type": "uint256"
        }
      ],
      "name": "getUserRedeemedValorAmountForBatchAndChain",
      "outputs": [
        {
          "internalType": "uint256",
          "name": "",
          "type": "uint256"
        }
      ],
      "stateMutability": "view",
      "type": "function"
    },
    {
      "inputs": [
        {
          "internalType": "address",
          "name": "_user",
          "type": "address"
        }
      ],
      "name": "getUserValor",
      "outputs": [
        {
          "internalType": "uint256",
          "name": "",
          "type": "uint256"
        }
      ],
      "stateMutability": "view",
      "type": "function"
    },
    {
      "inputs": [
        {
          "internalType": "address",
          "name": "_user",
          "type": "address"
        }
      ],
      "name": "getUserVestingRequests",
      "outputs": [
        {
          "components": [
            {
              "internalType": "uint256",
              "name": "requestId",
              "type": "uint256"
            },
            {
              "internalType": "uint256",
              "name": "esOrderAmount",
              "type": "uint256"
            },
            {
              "internalType": "uint256",
              "name": "unlockTimestamp",
              "type": "uint256"
            }
          ],
          "internalType": "struct Vesting.VestingRequest[]",
          "name": "",
          "type": "tuple[]"
        }
      ],
      "stateMutability": "view",
      "type": "function"
    },
    {
      "inputs": [
        {
          "internalType": "bytes32",
          "name": "role",
          "type": "bytes32"
        },
        {
          "internalType": "address",
          "name": "account",
          "type": "address"
        }
      ],
      "name": "grantRole",
      "outputs": [],
      "stateMutability": "nonpayable",
      "type": "function"
    },
    {
      "inputs": [
        {
          "internalType": "uint32",
          "name": "_distributionId",
          "type": "uint32"
        }
      ],
      "name": "hasPendingRoot",
      "outputs": [
        {
          "internalType": "bool",
          "name": "",
          "type": "bool"
        }
      ],
      "stateMutability": "view",
      "type": "function"
    },
    {
      "inputs": [
        {
          "internalType": "bytes32",
          "name": "role",
          "type": "bytes32"
        },
        {
          "internalType": "address",
          "name": "account",
          "type": "address"
        }
      ],
      "name": "hasRole",
      "outputs": [
        {
          "internalType": "bool",
          "name": "",
          "type": "bool"
        }
      ],
      "stateMutability": "view",
      "type": "function"
    },
    {
      "inputs": [
        {
          "internalType": "address",
          "name": "_owner",
          "type": "address"
        },
        {
          "internalType": "address",
          "name": "_occAdaptor",
          "type": "address"
        },
        {
          "internalType": "uint256",
          "name": "_valorPerSecond",
          "type": "uint256"
        },
        {
          "internalType": "uint256",
          "name": "_maximumValorEmission",
          "type": "uint256"
        }
      ],
      "name": "initialize",
      "outputs": [],
      "stateMutability": "nonpayable",
      "type": "function"
    },
    {
      "inputs": [
        {
          "internalType": "uint32",
          "name": "_distributionId",
          "type": "uint32"
        }
      ],
      "name": "isDistributionRecordBased",
      "outputs": [
        {
          "internalType": "bool",
          "name": "",
          "type": "bool"
        }
      ],
      "stateMutability": "view",
      "type": "function"
    },
    {
      "inputs": [],
      "name": "lastUsdcNetFeeRevenueUpdateTimestamp",
      "outputs": [
        {
          "internalType": "uint256",
          "name": "",
          "type": "uint256"
        }
      ],
      "stateMutability": "view",
      "type": "function"
    },
    {
      "inputs": [],
      "name": "lastValorUpdateTimestamp",
      "outputs": [
        {
          "internalType": "uint256",
          "name": "",
          "type": "uint256"
        }
      ],
      "stateMutability": "view",
      "type": "function"
    },
    {
      "inputs": [
        {
          "components": [
            {
              "internalType": "uint256",
              "name": "srcChainId",
              "type": "uint256"
            },
            {
              "internalType": "enum LedgerToken",
              "name": "token",
              "type": "uint8"
            },
            {
              "internalType": "uint256",
              "name": "tokenAmount",
              "type": "uint256"
            },
            {
              "internalType": "address",
              "name": "sender",
              "type": "address"
            },
            {
              "internalType": "uint8",
              "name": "payloadType",
              "type": "uint8"
            },
            {
              "internalType": "bytes",
              "name": "payload",
              "type": "bytes"
            }
          ],
          "internalType": "struct OCCVaultMessage",
          "name": "message",
          "type": "tuple"
        }
      ],
      "name": "ledgerRecvFromVault",
      "outputs": [],
      "stateMutability": "nonpayable",
      "type": "function"
    },
    {
      "inputs": [],
      "name": "maximumValorEmission",
      "outputs": [
        {
          "internalType": "uint256",
          "name": "",
          "type": "uint256"
        }
      ],
      "stateMutability": "view",
      "type": "function"
    },
    {
      "inputs": [],
      "name": "occAdaptor",
      "outputs": [
        {
          "internalType": "address",
          "name": "",
          "type": "address"
        }
      ],
      "stateMutability": "view",
      "type": "function"
    },
    {
      "inputs": [],
      "name": "pause",
      "outputs": [],
      "stateMutability": "nonpayable",
      "type": "function"
    },
    {
      "inputs": [],
      "name": "paused",
      "outputs": [
        {
          "internalType": "bool",
          "name": "",
          "type": "bool"
        }
      ],
      "stateMutability": "view",
      "type": "function"
    },
    {
      "inputs": [
        {
          "internalType": "uint32",
          "name": "_distributionId",
          "type": "uint32"
        },
        {
          "internalType": "bytes32",
          "name": "_merkleRoot",
          "type": "bytes32"
        },
        {
          "internalType": "uint256",
          "name": "_startTimestamp",
          "type": "uint256"
        },
        {
          "internalType": "bytes",
          "name": "_ipfsCid",
          "type": "bytes"
        }
      ],
      "name": "proposeRoot",
      "outputs": [],
      "stateMutability": "nonpayable",
      "type": "function"
    },
    {
      "inputs": [],
      "name": "proxiableUUID",
      "outputs": [
        {
          "internalType": "bytes32",
          "name": "",
          "type": "bytes32"
        }
      ],
      "stateMutability": "view",
      "type": "function"
    },
    {
      "inputs": [
        {
          "internalType": "bytes32",
          "name": "role",
          "type": "bytes32"
        },
        {
          "internalType": "address",
          "name": "callerConfirmation",
          "type": "address"
        }
      ],
      "name": "renounceRole",
      "outputs": [],
      "stateMutability": "nonpayable",
      "type": "function"
    },
    {
      "inputs": [
        {
          "internalType": "bytes32",
          "name": "role",
          "type": "bytes32"
        },
        {
          "internalType": "address",
          "name": "account",
          "type": "address"
        }
      ],
      "name": "revokeRole",
      "outputs": [],
      "stateMutability": "nonpayable",
      "type": "function"
    },
    {
      "inputs": [
        {
          "internalType": "uint256",
          "name": "_batchDuration",
          "type": "uint256"
        }
      ],
      "name": "setBatchDuration",
      "outputs": [],
      "stateMutability": "nonpayable",
      "type": "function"
    },
    {
      "inputs": [
        {
          "internalType": "uint256",
          "name": "_batchStartTimestamp",
          "type": "uint256"
        }
      ],
      "name": "setBatchStartTimestamp",
      "outputs": [],
      "stateMutability": "nonpayable",
      "type": "function"
    },
    {
      "inputs": [
        {
          "internalType": "address",
          "name": "_occAdaptor",
          "type": "address"
        }
      ],
      "name": "setOccAdaptor",
      "outputs": [],
      "stateMutability": "nonpayable",
      "type": "function"
    },
    {
      "inputs": [
        {
          "internalType": "uint256",
          "name": "_totalUsdcInTreasure",
          "type": "uint256"
        }
      ],
      "name": "setTotalUsdcInTreasure",
      "outputs": [],
      "stateMutability": "nonpayable",
      "type": "function"
    },
    {
      "inputs": [
        {
          "internalType": "uint256",
          "name": "_unstakeLockPeriod",
          "type": "uint256"
        }
      ],
      "name": "setUnstakeLockPeriod",
      "outputs": [],
      "stateMutability": "nonpayable",
      "type": "function"
    },
    {
      "inputs": [
        {
          "internalType": "address",
          "name": "_usdcUpdaterAddress",
          "type": "address"
        }
      ],
      "name": "setUsdcUpdaterAddress",
      "outputs": [],
      "stateMutability": "nonpayable",
      "type": "function"
    },
    {
      "inputs": [
        {
          "internalType": "uint256",
          "name": "_vestingLinearPeriod",
          "type": "uint256"
        }
      ],
      "name": "setVestingLinearPeriod",
      "outputs": [],
      "stateMutability": "nonpayable",
      "type": "function"
    },
    {
      "inputs": [
        {
          "internalType": "uint256",
          "name": "_vestingLockPeriod",
          "type": "uint256"
        }
      ],
      "name": "setVestingLockPeriod",
      "outputs": [],
      "stateMutability": "nonpayable",
      "type": "function"
    },
    {
      "inputs": [
        {
          "internalType": "uint256",
          "name": "",
          "type": "uint256"
        }
      ],
      "name": "srcChainIdToEventId",
      "outputs": [
        {
          "internalType": "uint256",
          "name": "",
          "type": "uint256"
        }
      ],
      "stateMutability": "view",
      "type": "function"
    },
    {
      "inputs": [
        {
          "internalType": "bytes4",
          "name": "interfaceId",
          "type": "bytes4"
        }
      ],
      "name": "supportsInterface",
      "outputs": [
        {
          "internalType": "bool",
          "name": "",
          "type": "bool"
        }
      ],
      "stateMutability": "view",
      "type": "function"
    },
    {
      "inputs": [],
      "name": "totalStakedAmount",
      "outputs": [
        {
          "internalType": "uint256",
          "name": "",
          "type": "uint256"
        }
      ],
      "stateMutability": "view",
      "type": "function"
    },
    {
      "inputs": [],
      "name": "totalUsdcInTreasure",
      "outputs": [
        {
          "internalType": "uint256",
          "name": "",
          "type": "uint256"
        }
      ],
      "stateMutability": "view",
      "type": "function"
    },
    {
      "inputs": [],
      "name": "totalValorAmount",
      "outputs": [
        {
          "internalType": "uint256",
          "name": "",
          "type": "uint256"
        }
      ],
      "stateMutability": "view",
      "type": "function"
    },
    {
      "inputs": [],
      "name": "totalValorEmitted",
      "outputs": [
        {
          "internalType": "uint256",
          "name": "",
          "type": "uint256"
        }
      ],
      "stateMutability": "view",
      "type": "function"
    },
    {
      "inputs": [],
      "name": "unpause",
      "outputs": [],
      "stateMutability": "nonpayable",
      "type": "function"
    },
    {
      "inputs": [],
      "name": "unstakeLockPeriod",
      "outputs": [
        {
          "internalType": "uint256",
          "name": "",
          "type": "uint256"
        }
      ],
      "stateMutability": "view",
      "type": "function"
    },
    {
      "inputs": [
        {
          "internalType": "uint32",
          "name": "_distributionId",
          "type": "uint32"
        }
      ],
      "name": "updateRoot",
      "outputs": [],
      "stateMutability": "nonpayable",
      "type": "function"
    },
    {
      "inputs": [],
      "name": "updateValorVars",
      "outputs": [],
      "stateMutability": "nonpayable",
      "type": "function"
    },
    {
      "inputs": [
        {
          "internalType": "address",
          "name": "newImplementation",
          "type": "address"
        },
        {
          "internalType": "bytes",
          "name": "data",
          "type": "bytes"
        }
      ],
      "name": "upgradeToAndCall",
      "outputs": [],
      "stateMutability": "payable",
      "type": "function"
    },
    {
      "inputs": [],
      "name": "usdcUpdaterAddress",
      "outputs": [
        {
          "internalType": "address",
          "name": "",
          "type": "address"
        }
      ],
      "stateMutability": "view",
      "type": "function"
    },
    {
      "inputs": [
        {
          "internalType": "address",
          "name": "",
          "type": "address"
        }
      ],
      "name": "userPendingUnstake",
      "outputs": [
        {
          "internalType": "uint256",
          "name": "balanceOrder",
          "type": "uint256"
        },
        {
          "internalType": "uint256",
          "name": "unlockTimestamp",
          "type": "uint256"
        }
      ],
      "stateMutability": "view",
      "type": "function"
    },
    {
      "inputs": [
        {
          "internalType": "address",
          "name": "_user",
          "type": "address"
        }
      ],
      "name": "userTotalStakingBalance",
      "outputs": [
        {
          "internalType": "uint256",
          "name": "",
          "type": "uint256"
        }
      ],
      "stateMutability": "view",
      "type": "function"
    },
    {
      "inputs": [],
      "name": "valorPerSecond",
      "outputs": [
        {
          "internalType": "uint256",
          "name": "",
          "type": "uint256"
        }
      ],
      "stateMutability": "view",
      "type": "function"
    },
    {
      "inputs": [],
      "name": "valorToUsdcRateScaled",
      "outputs": [
        {
          "internalType": "uint256",
          "name": "",
          "type": "uint256"
        }
      ],
      "stateMutability": "view",
      "type": "function"
    },
    {
      "inputs": [],
      "name": "vestingLinearPeriod",
      "outputs": [
        {
          "internalType": "uint256",
          "name": "",
          "type": "uint256"
        }
      ],
      "stateMutability": "view",
      "type": "function"
    },
    {
      "inputs": [],
      "name": "vestingLockPeriod",
      "outputs": [
        {
          "internalType": "uint256",
          "name": "",
          "type": "uint256"
        }
      ],
      "stateMutability": "view",
      "type": "function"
    }
  ],
  "transactionHash": "0xe3ba846ebe1d9ad17ceb5664ff6af8b73f5f6f81e143aec4f7045846c13c2dcd",
  "args": [],
  "numDeployments": 1,
  "solcInputHash": "e3501c93e8bc4e9edcca48f2622e432c",
  "bytecode": "0x60a06040523060805234801561001457600080fd5b50608051615cf36200003f600039600081816131e40152818161320d01526133510152615cf36000f3fe60806040526004361061041b5760003560e01c806390999c4f1161021e578063ba7a2a4911610123578063e20a632f116100ab578063eb990c591161007a578063eb990c5914610d55578063ec81bf9314610d75578063f5a634ef14610d8b578063f9d60e2114610dab578063ffa1ad7414610dcb57600080fd5b8063e20a632f14610ccd578063e720ac8e14610ced578063e7bacc3014610d15578063e7cd7dda14610d3557600080fd5b8063d0c01ccd116100f2578063d0c01ccd14610c3f578063d547741f14610c5f578063d84aaaff14610c7f578063d9ab2c5c14610c95578063dccfd38d14610cb757600080fd5b8063ba7a2a4914610bbf578063be98ad5714610bdf578063caefe41314610bf5578063ccd4cf1214610c2957600080fd5b8063a2c7d9ae116101a6578063b15fb23911610175578063b15fb23914610afc578063b2077fe814610b1c578063b32c4d8d14610b4c578063b58bccc414610b89578063b62a7d8014610ba957600080fd5b8063a2c7d9ae14610a4a578063aa4704f314610a6a578063ab7b18be14610aa8578063ad3cb1cc14610abe57600080fd5b80639aefd886116101ed5780639aefd886146109a05780639c9563a2146109b65780639d91c0e7146109cc578063a0cd44c3146109ec578063a217fddf14610a3557600080fd5b806390999c4f1461091d578063909d19091461094a57806391d1485414610960578063934012161461098057600080fd5b80634f60032e116103245780636b1f8c0d116102ac5780637d143b521161027b5780637d143b521461087357806380213de7146108a85780638456cb59146108c8578063892735ed146108dd5780638e9a2dd2146108fd57600080fd5b80636b1f8c0d146107fd5780636d0ef8d41461081d57806373250c081461083d57806374ae2e2e1461085357600080fd5b8063567e98f9116102f3578063567e98f91461076c5780635b97527f146107825780635c975abb146107a25780635dc5e052146107c757806364f4463c146107dd57600080fd5b80634f60032e146106c857806352580b5a1461071757806352d1902d14610737578063562a54f81461074c57600080fd5b806336568abe116103a7578063415a483f11610376578063415a483f14610618578063443c96231461062d57806349c99b72146106665780634d1d882a146106865780634f1ef286146106b557600080fd5b806336568abe146105a35780633cef26ec146105c35780633f4ba83a146105e35780633f93d261146105f857600080fd5b806328a9fdec116103ee57806328a9fdec146104c657806328bcd70e146105115780632c3a2e97146105275780632f2ff15d1461055457806330b667a61461057657600080fd5b806301ffc9a7146104205780630877bc8514610455578063248a9ca31461048257806326bf1c03146104b0575b600080fd5b34801561042c57600080fd5b5061044061043b366004614e68565b610df9565b60405190151581526020015b60405180910390f35b34801561046157600080fd5b50610475610470366004614ea9565b610e30565b60405161044c9190614ec4565b34801561048e57600080fd5b506104a261049d366004614f13565b610eaf565b60405190815260200161044c565b3480156104bc57600080fd5b506104a260805481565b3480156104d257600080fd5b506104a26104e1366004614f55565b63ffffffff82166000908152600d602090815260408083206001600160a01b038516845290915290205492915050565b34801561051d57600080fd5b506104a260455481565b34801561053357600080fd5b50610547610542366004614f8a565b610ed1565b60405161044c9190614fa5565b34801561056057600080fd5b5061057461056f366004614ff1565b610f5c565b005b34801561058257600080fd5b506104a2610591366004614f8a565b60476020526000908152604090205481565b3480156105af57600080fd5b506105746105be366004614ff1565b610f7e565b3480156105cf57600080fd5b506104a26105de366004615014565b610fb6565b3480156105ef57600080fd5b50610574610ff3565b34801561060457600080fd5b5061057461061336600461515d565b611009565b34801561062457600080fd5b506105746112f5565b34801561063957600080fd5b5061011e5461064e906001600160a01b031681565b6040516001600160a01b03909116815260200161044c565b34801561067257600080fd5b50610574610681366004614f8a565b611356565b34801561069257600080fd5b506106a66106a1366004615210565b61138c565b60405161044c9392919061527d565b6105746106c336600461529c565b61144f565b3480156106d457600080fd5b506106e86106e3366004614ea9565b61146a565b60405161044c959493929190948552602085019390935290151560408401526060830152608082015260a00190565b34801561072357600080fd5b506104a2610732366004614f8a565b6114f0565b34801561074357600080fd5b506104a2611531565b34801561075857600080fd5b50610574610767366004614f8a565b61154e565b34801561077857600080fd5b506104a2607d5481565b34801561078e57600080fd5b5061057461079d366004614ea9565b61157d565b3480156107ae57600080fd5b50600080516020615c9e8339815191525460ff16610440565b3480156107d357600080fd5b506104a260435481565b3480156107e957600080fd5b506104a26107f8366004614f8a565b61169b565b34801561080957600080fd5b50610440610818366004615210565b6116c7565b34801561082957600080fd5b50610574610838366004614f13565b608055565b34801561084957600080fd5b506104a260465481565b34801561085f57600080fd5b5061047561086e366004614ea9565b611705565b34801561087f57600080fd5b5061044061088e366004615210565b63ffffffff166000908152600c6020526040902054151590565b3480156108b457600080fd5b506105746108c3366004614f13565b60ea55565b3480156108d457600080fd5b506105746117cd565b3480156108e957600080fd5b506104406108f8366004615210565b6117e0565b34801561090957600080fd5b50610574610918366004615331565b611815565b34801561092957600080fd5b506104a2610938366004614f13565b60056020526000908152604090205481565b34801561095657600080fd5b506104a260405481565b34801561096c57600080fd5b5061044061097b366004614ff1565b611858565b34801561098c57600080fd5b5061057461099b36600461539a565b611890565b3480156109ac57600080fd5b506104a260eb5481565b3480156109c257600080fd5b506104a260b65481565b3480156109d857600080fd5b506105746109e7366004614f13565b611a6a565b3480156109f857600080fd5b50610a20610a07366004614f8a565b607c602052600090815260409020805460019091015482565b6040805192835260208301919091520161044c565b348015610a4157600080fd5b506104a2600081565b348015610a5657600080fd5b506104a2610a65366004614f8a565b611ad5565b348015610a7657600080fd5b50610a20610a85366004614f8a565b6001600160a01b03166000908152607b6020526040902080546001909101549091565b348015610ab457600080fd5b506104a2607e5481565b348015610aca57600080fd5b50610aef604051806040016040528060058152602001640352e302e360dc1b81525081565b60405161044c9190615413565b348015610b0857600080fd5b506104a2610b17366004615426565b611afe565b348015610b2857600080fd5b50610b3c610b37366004615210565b611caf565b60405161044c949392919061549a565b348015610b5857600080fd5b50610b6c610b67366004614f13565b611e5f565b60408051931515845260208401929092529082015260600161044c565b348015610b9557600080fd5b50610574610ba4366004614f13565b60b655565b348015610bb557600080fd5b506104a260ea5481565b348015610bcb57600080fd5b50610574610bda3660046154d0565b611e96565b348015610beb57600080fd5b506104a260b45481565b348015610c0157600080fd5b506104a27fd4633f2ee6e04337d84b8278c3b807b75336f88e5e4656e625419ef1258e9af181565b348015610c3557600080fd5b506104a2607f5481565b348015610c4b57600080fd5b506104a26b033b2e3c9fd0803ce800000081565b348015610c6b57600080fd5b50610574610c7a366004614ff1565b611fa4565b348015610c8b57600080fd5b506104a260415481565b348015610ca157600080fd5b506104a2600080516020615c3e83398151915281565b348015610cc357600080fd5b506104a260425481565b348015610cd957600080fd5b50610574610ce8366004614f13565b60b455565b348015610cf957600080fd5b50610d02611fc0565b60405161ffff909116815260200161044c565b348015610d2157600080fd5b50610574610d30366004615210565b611ff7565b348015610d4157600080fd5b50610574610d50366004614f13565b60eb55565b348015610d6157600080fd5b50610574610d703660046154e2565b612111565b348015610d8157600080fd5b506104a260445481565b348015610d9757600080fd5b5060485461064e906001600160a01b031681565b348015610db757600080fd5b506104a2610dc6366004614ea9565b61227e565b348015610dd757600080fd5b506040805180820190915260058152640312e302e360dc1b6020820152610aef565b60006001600160e01b03198216637965db0b60e01b1480610e2a57506301ffc9a760e01b6001600160e01b03198316145b92915050565b6060610e3b82612333565b600301805480602002602001604051908101604052809291908181526020016000905b82821015610ea457838290600052602060002090600202016040518060400160405290816000820154815260200160018201548152505081526020019060010190610e5e565b505050509050919050565b6000908152600080516020615c7e833981519152602052604090206001015490565b6001600160a01b038116600090815260e960209081526040808320600101805482518185028101850190935280835260609492939192909184015b82821015610ea45783829060005260206000209060030201604051806060016040529081600082015481526020016001820154815260200160028201548152505081526020019060010190610f0c565b610f6582610eaf565b610f6e81612388565b610f788383612392565b50505050565b6001600160a01b0381163314610fa75760405163334bd91960e11b815260040160405180910390fd5b610fb18282612437565b505050565b6000610fec610fc584846124b3565b60408051606081018252825481526001830154602082015260029092015490820152612598565b9392505050565b6000610ffe81612388565b611006612624565b50565b61011e546001600160a01b0316331461105a5760405162461bcd60e51b815260206004820152600e60248201526d27b7363ca7a1a1a0b230b83a37b960911b60448201526064015b60405180910390fd5b608081015160ff166110a35760008160a001518060200190518101906110809190615524565b8051606084015184516020840151604085015194955061109f94612684565b5050565b600160ff16816080015160ff16036110d157611006816060015182600001518360200151846040015161279e565b600260ff16816080015160ff16036111125760008160a001518060200190518101906110fd9190615654565b60608301518351825192935061109f926128f1565b600360ff16816080015160ff16036111365761109f81606001518260000151612ad1565b600460ff16816080015160ff160361115a5761100681606001518260000151612c52565b600560ff16816080015160ff160361119b5760008160a001518060200190518101906111869190615654565b60608301518351825192935061109f92612d2a565b600660ff16816080015160ff16036111f95760008160a001518060200190518101906111c79190615654565b905060006111e2836060015184600001518460000151612d40565b9050610fb18360600151846000015160018461279e565b600760ff16816080015160ff160361123657600061121f82606001518360000151612dc7565b905061109f8260600151836000015160018461279e565b600860ff16816080015160ff16036112775760008160a001518060200190518101906112629190615654565b60608301518351825192935061109f92612f77565b600960ff16816080015160ff16036112b85760008160a001518060200190518101906112a39190615654565b60608301518351825192935061109f926130a4565b600a60ff16816080015160ff16036112dc57611006816060015182600001516130b8565b604051634440024f60e01b815260040160405180910390fd5b6112fd613103565b607e5442111561135457600080611312613134565b9150915081607f81905550806042600082825461132f9190615686565b9250508190555080604360008282546113489190615686565b909155505042607e5550505b565b61135e613103565b600061136981612388565b50604880546001600160a01b0319166001600160a01b0392909216919091179055565b63ffffffff81166000908152600c602052604081208054600182015460029092018054849360609392909181906113c290615699565b80601f01602080910402602001604051908101604052809291908181526020018280546113ee90615699565b801561143b5780601f106114105761010080835404028352916020019161143b565b820191906000526020600020905b81548152906001019060200180831161141e57829003601f168201915b505050505090509250925092509193909250565b6114576131d9565b6114608261327e565b61109f8282613289565b600080600080600060b6548661ffff1661148491906156cd565b60b4546114919190615686565b945060b654856114a19190615686565b60b35490945061ffff871610156114dd5760006114bd87612333565b8054600182015460029092015460ff909116955090935091506114e79050565b5060009150819050805b91939590929450565b6001600160a01b0381166000908152607c602052604081206001810154158061151c5750806001015442105b1561152a5750600092915050565b5492915050565b600061153b613346565b50600080516020615c5e83398151915290565b600061155981612388565b5061011e80546001600160a01b0319166001600160a01b0392909216919091179055565b611585613103565b600061159081612388565b611598611fc0565b61ffff168261ffff16106115bf57604051637dd2cb5d60e11b815260040160405180910390fd5b60006115ca83612333565b905080600201546000036115f157604051631957b3ff60e31b815260040160405180910390fd5b805460ff161561160057505050565b80600101546043600082825461161691906156e4565b9091555050600281015460018201546b033b2e3c9fd0803ce80000009161163c916156cd565b61164691906156f7565b6045600082825461165791906156e4565b9091555050805460ff1916600117815560405161ffff8416907f6eac907c1eaf34119620cb19afb9703e14b837a593b2701476d771ce2250b13390600090a2505050565b6001600160a01b0381166000908152604760205260408120546116bd8361338f565b610e2a9190615686565b63ffffffff81166000908152600c602052604081205415158015610e2a57505063ffffffff166000908152600c602052604090206001015442101590565b6060600061171283612333565b6003810180546040805160208084028201810190925282815293945060009084015b8282101561177a57838290600052602060002090600202016040518060400160405290816000820154815260200160018201548152505081526020019060010190611734565b50505050915060005b82518110156117c65781600201548382815181106117a3576117a3615719565b60200260200101516020018181516117bb91906156cd565b905250600101611783565b5050919050565b60006117d881612388565b6110066133be565b6000600163ffffffff83166000908152600b602052604090205460ff16600381111561180e5761180e615462565b1492915050565b61181d613103565b611825613407565b61183c600080516020615c3e833981519152612388565b6118498585858585613451565b611851613666565b5050505050565b6000918252600080516020615c7e833981519152602090815260408084206001600160a01b0393909316845291905290205460ff1690565b611898613103565b6118a0613407565b6118b7600080516020615c3e833981519152612388565b63ffffffff86166000908152600b6020526040902060020154156118ee57604051630ed16a0560e31b815260040160405180910390fd5b600085600381111561190257611902615462565b141580156119225750600185600381111561191f5761191f615462565b14155b156119405760405163a24e5e1360e01b815260040160405180910390fd5b604051806040016040528086600381111561195d5761195d615462565b81526040805160608101825260008082526001602083810182905284518082018652838152848601529485019290925263ffffffff8b168152600b90935291208251815491929091839160ff19909116908360038111156119c0576119c0615462565b0217905550602082015181600101600082015181600001556020820151816001015560408201518160020190816119f79190615777565b505050905050611a0a8685858585613451565b8563ffffffff16611a1b600061368c565b7f8d61f909218b17b213ad8a66ec2ae4b2ac62449ea7b35d9d6396cb7df96e95b88787878787604051611a5295949392919061585f565b60405180910390a3611a62613666565b505050505050565b611a72613103565b6000611a7d81612388565b6045829055611a8a6136bf565b60455460435460465460408051938452602084019290925282820152517fa032eeb49fe502e13b030998efb945ccf3ff68ec5729dfcada07a1149dffa1639181900360600190a15050565b6001600160a01b0381166000908152607b6020526040812060018101549054610e2a9190615686565b6000805b6001600160a01b038516600090815260b56020526040902060010154811015611ca4576001600160a01b038516600090815260b560205260409020600101805461ffff8616919083908110611b5957611b59615719565b600091825260209091206002909102015461ffff1603611c9c5760005b6001600160a01b038616600090815260b560205260409020600101805483908110611ba357611ba3615719565b906000526020600020906002020160010180549050811015611c9a576001600160a01b038616600090815260b560205260409020600101805485919084908110611bef57611bef615719565b90600052602060002090600202016001018281548110611c1157611c11615719565b90600052602060002090600202016000015403611c92576001600160a01b038616600090815260b560205260409020600101805483908110611c5557611c55615719565b90600052602060002090600202016001018181548110611c7757611c77615719565b90600052602060002090600202016001015492505050610fec565b600101611b76565b505b600101611b02565b506000949350505050565b60008060006060611cbf856116c7565b15611d945763ffffffff85166000908152600b6020908152604080832054600c909252909120805460018201546002909201805460ff909416939192918190611d0790615699565b80601f0160208091040260200160405190810160405280929190818152602001828054611d3390615699565b8015611d805780601f10611d5557610100808354040283529160200191611d80565b820191906000526020600020905b815481529060010190602001808311611d6357829003601f168201915b505050505090509350935093509350611e58565b63ffffffff85166000908152600b602052604090208054600182015460028301546003909301805460ff9093169391928190611dcf90615699565b80601f0160208091040260200160405190810160405280929190818152602001828054611dfb90615699565b8015611e485780601f10611e1d57610100808354040283529160200191611e48565b820191906000526020600020905b815481529060010190602001808311611e2b57829003601f168201915b5050505050905093509350935093505b9193509193565b60b38181548110611e6f57600080fd5b600091825260209091206004909102018054600182015460029092015460ff909116925083565b611e9e613103565b7fd4633f2ee6e04337d84b8278c3b807b75336f88e5e4656e625419ef1258e9af1611ec881612388565b604454611ed79061a8c0615686565b421015611ef757604051636c8b246360e01b815260040160405180910390fd5b611f1a611f0936849003840184615897565b6048546001600160a01b03166136fa565b42604481905550816060013560456000828254611f379190615686565b90915550611f4590506136bf565b60455460435460465460405142937fbbd8342b1e1fe32712ce056fbd76edab76635724aa81f9f63cae57b5918fb48293611f98936060890135845260208401929092526040830152606082015260800190565b60405180910390a25050565b611fad82610eaf565b611fb681612388565b610f788383612437565b60b4546000904290811015611fd757600091505090565b60b65460b454611fe790836156e4565b611ff191906156f7565b91505090565b611fff613103565b612008816116c7565b612025576040516326175e1b60e21b815260040160405180910390fd5b63ffffffff81166000908152600c60209081526040808320600b9092529091208154600180830191825583015460028084019190915590916003019061206d9084018261591b565b50505063ffffffff81166000908152600c60205260408120818155600181018290559061209d6002830182614d3a565b50508063ffffffff166120b0600061368c565b63ffffffff83166000908152600b6020526040908190206001810154600282015492517f01752a325882177ceb45901f8433de77f4e854bba0392f8454591ec8022517bc936121069390916003909101906159ed565b60405180910390a350565b7ff0c57e16840df040f15088dc2f81fe391c3923bec73e23a9662efc9c229c6a008054600160401b810460ff1615906001600160401b03166000811580156121565750825b90506000826001600160401b031660011480156121725750303b155b905081158015612180575080155b1561219e5760405163f92ee8a960e01b815260040160405180910390fd5b845467ffffffffffffffff1916600117855583156121c857845460ff60401b1916600160401b1785555b6121d189613788565b6121da896137b3565b6121e58988886137d3565b6121f28962093a80613812565b612200894262127500613824565b612211896213c6806262e080613844565b61011e80546001600160a01b0319166001600160a01b038a16179055831561227357845460ff60401b19168555604051600181527fc7f505b2f371ae2175ee4913f4499e1f2633a7b5936321eed1cdaeb6115181d29060200160405180910390a15b505050505050505050565b6000612288613103565b600061229381612388565b61229b611fc0565b61ffff168361ffff16106122c257604051637dd2cb5d60e11b815260040160405180910390fd5b60006122cd8461389a565b905080600201546000036122e45760465460028201555b8361ffff167f605f4fc760dbfc8600370aa812edc813327cd01f0c909d737ae7cdd5397af377826002015460405161231e91815260200190565b60405180910390a26002015491505b50919050565b60b35460009061ffff83161061235c576040516305b7010560e51b815260040160405180910390fd5b60b38261ffff168154811061237357612373615719565b90600052602060002090600402019050919050565b61100681336138c4565b6000600080516020615c7e8339815191526123ad8484611858565b61242d576000848152602082815260408083206001600160a01b03871684529091529020805460ff191660011790556123e33390565b6001600160a01b0316836001600160a01b0316857f2f8788117e7eff1d82e926ec794901d17c78024a50270940304540a733656f0d60405160405180910390a46001915050610e2a565b6000915050610e2a565b6000600080516020615c7e8339815191526124528484611858565b1561242d576000848152602082815260408083206001600160a01b0387168085529252808320805460ff1916905551339287917ff6391f5c32d9c69d2a47ea670b442974b53935d1edc7fd64eb21e047a839171b9190a46001915050610e2a565b6000805b6001600160a01b038416600090815260e9602052604090206001015481101561256c576001600160a01b038416600090815260e96020526040902060010180548491908390811061250a5761250a615719565b90600052602060002090600302016000015403612564576001600160a01b038416600090815260e96020526040902060010180548290811061254e5761254e615719565b9060005260206000209060030201915050610e2a565b6001016124b7565b50604051632b8e927b60e01b81526001600160a01b038416600482015260248101839052604401611051565b60008160200151600014806125b05750816040015142105b156125bd57506000919050565b60008260400151426125cf91906156e4565b905060eb548111156125e0575060eb545b600260eb548285602001516125f591906156cd565b6125ff91906156f7565b61260991906156f7565b6002846020015161261a91906156f7565b610fec9190615686565b61262c6138fd565b600080516020615c9e833981519152805460ff191681557f5db9ee0a495bf2e6ff9c91a7834c1ba4fdd244a5e8aa4e537bd38aeae4b073aa335b6040516001600160a01b03909116815260200160405180910390a150565b600080612694878787878761392d565b91509150806000146127955760018260038111156126b4576126b4615462565b036126ca576126c58686848461279e565b612795565b60008260038111156126de576126de615462565b03612795576040805160c08101825286815260006020808301919091528183018490526001600160a01b038981166060840152600b608084015283518085018552600381526203078360ec1b9281019290925260a083019190915261011e5492516316369c1960e11b815291921690632c6d383290612761908490600401615a8c565b600060405180830381600087803b15801561277b57600080fd5b505af115801561278f573d6000803e3d6000fd5b50505050505b50505050505050565b6127a6613407565b6127ae613103565b806000036127cf576040516310eb483f60e21b815260040160405180910390fd5b60018260038111156127e3576127e3615462565b11156128025760405163350b944160e11b815260040160405180910390fd5b61280b84613b1a565b6001600160a01b0384166000908152607b60205260409020819083600381111561283757612837615462565b6002811061284757612847615719565b0160008282546128579190615686565b90915550612866905084613b96565b6001600160a01b0385166000908152607b6020526040812060020191909155607d8054839290612897908490615686565b90915550506001600160a01b038416836128b08161368c565b7f99f9c5a56f286a152d0b60bd8851853878e05bb243daeaf47f4c30001598791684866040516128e1929190615aed565b60405180910390a4610f78613666565b6128f9613407565b612901613103565b80600003612922576040516310eb483f60e21b815260040160405180910390fd5b6001600160a01b0383166000908152607b602052604090205481111561295e57600060405163348ee39760e11b81526004016110519190615b01565b61296783613b1a565b6001600160a01b0383166000908152607b60205260408120805483929061298f9084906156e4565b9091555061299e905083613b96565b6001600160a01b0384166000908152607b6020526040812060020191909155607d80548392906129cf9084906156e4565b90915550506001600160a01b0383166000908152607c6020526040812080548392906129fc908490615686565b9091555050608054612a0e9042615686565b6001600160a01b0384166000818152607c602052604090206001019190915582612a378161368c565b6040518481527f7956786f9c0614d721d7fd931301980a0399dfb0b38c81bafdfff0597c3290e49060200160405180910390a46001600160a01b0383166000818152607c602052604090819020805460019091015491517f7c2a5998b04a0c7a7d3a1ac3a0add65ac29f4647966110e357c7aa42e5e7ca2192612ac1928252602082015260400190565b60405180910390a2610fb1613666565b6000612adb613407565b612ae3613103565b6001600160a01b0383166000908152607c60205260408120600101549003612b1e576040516365e134c160e11b815260040160405180910390fd5b612b2783613b1a565b506001600160a01b0382166000908152607c6020908152604080832054607b9092528220805491928392612b5c908490615686565b90915550612b6b905083613b96565b6001600160a01b0384166000908152607b6020526040812060020191909155607d8054839290612b9c908490615686565b90915550506001600160a01b03831682612bb58161368c565b6040518481527f45bc7039355216afb8dd7eb1bc73c6f9ebfcdf5b722d3b99055d05ce03847f6e906020015b60405180910390a46001600160a01b0383166000818152607c6020526040808220828155600101829055517f7c2a5998b04a0c7a7d3a1ac3a0add65ac29f4647966110e357c7aa42e5e7ca2191612c42918190918252602082015260400190565b60405180910390a2610e2a613666565b6000612c5e8383613bcb565b90508015610fb1576040805160c0810182528381526000602082018190529181018390526001600160a01b038516606082015260808101600c5b60ff168152604080518082018252600381526203078360ec1b6020828101919091529092019190915261011e5490516316369c1960e11b81529192506001600160a01b031690632c6d383290612cf2908490600401615a8c565b600060405180830381600087803b158015612d0c57600080fd5b505af1158015612d20573d6000803e3d6000fd5b5050505050505050565b612d35838383613cc0565b610fb1838383613dfa565b6000612d4a613103565b612d52613407565b6000612d5e85846124b3565b905080600101549150612d718582613f1c565b846001600160a01b031684612d858661368c565b60408051878152602081018790527f3b3e48ba8b2a66a9706f50fc095a4fcb8f4c25da19c7a6aeab3df6a826d5bcd9910160405180910390a450610fec613666565b6000612dd1613103565b612dd9613407565b6001600160a01b038316600090815260e96020908152604080832081518083018352815481526001820180548451818702810187019095528085529194929385840193909290879084015b82821015612e745783829060005260206000209060030201604051806060016040529081600082015481526020016001820154815260200160028201548152505081526020019060010190612e24565b5050505081525050905060005b816020015151811015612f4257600082602001518281518110612ea657612ea6615719565b60200260200101516020015190508084612ec09190615686565b9350856001600160a01b031685612ed68761368c565b7f3b3e48ba8b2a66a9706f50fc095a4fcb8f4c25da19c7a6aeab3df6a826d5bcd986602001518681518110612f0d57612f0d615719565b60200260200101516000015185604051612f31929190918252602082015260400190565b60405180910390a450600101612e81565b506001600160a01b038416600090815260e96020526040812081815590612f6c6001830182614d74565b505050610e2a613666565b600080612f85858585613fee565b9150915081600014613043576040805160c08101825285815260006020808301919091528183018590526001600160a01b038881166060840152600d608084015283518085018552600381526203078360ec1b9281019290925260a083019190915261011e5492516316369c1960e11b815291921690632c6d38329061300f908490600401615a8c565b600060405180830381600087803b15801561302957600080fd5b505af115801561303d573d6000803e3d6000fd5b50505050505b80156118515761011e5460405163a6df61f360e01b8152600481018390526001600160a01b039091169063a6df61f390602401600060405180830381600087803b15801561309057600080fd5b505af1158015612273573d6000803e3d6000fd5b6130ad83613b1a565b610fb18383836140ff565b60006130c4838361429c565b90508015610fb1576040805160c081018252838152600260208201529081018290526001600160a01b038416606082015260009060808101600e612c98565b600080516020615c9e8339815191525460ff16156113545760405163d93c066560e01b815260040160405180910390fd5b600080607e54421115806131485750607d54155b15613158575050607f5490600090565b607f5491506000607e544261316d91906156e4565b90506040548161317d91906156cd565b9150604154826042546131909190615686565b11156131a9576042546041546131a691906156e4565b91505b607d546131be670de0b6b3a7640000846156cd565b6131c891906156f7565b6131d29084615686565b9250509091565b306001600160a01b037f000000000000000000000000000000000000000000000000000000000000000016148061326057507f00000000000000000000000000000000000000000000000000000000000000006001600160a01b0316613254600080516020615c5e833981519152546001600160a01b031690565b6001600160a01b031614155b156113545760405163703e46dd60e11b815260040160405180910390fd5b600061109f81612388565b816001600160a01b03166352d1902d6040518163ffffffff1660e01b8152600401602060405180830381865afa9250505080156132e3575060408051601f3d908101601f191682019092526132e091810190615b0f565b60015b61330b57604051634c9c8ce360e01b81526001600160a01b0383166004820152602401611051565b600080516020615c5e833981519152811461333c57604051632a87526960e21b815260048101829052602401611051565b610fb1838361436d565b306001600160a01b037f000000000000000000000000000000000000000000000000000000000000000016146113545760405163703e46dd60e11b815260040160405180910390fd5b6001600160a01b0381166000908152607b60205260408120600201546133b483613b96565b610e2a91906156e4565b6133c6613103565b600080516020615c9e833981519152805460ff191660011781557f62e78cea01bee320cd4e420270b5ea74000d11b0c9f74754ebdbfc544b05a25833612666565b7f9b779b17422d0df92223018b32b4d1fa46e071723d6817e2486d003becc55f0080546001190161344b57604051633ee5aeb560e01b815260040160405180910390fd5b60029055565b63ffffffff85166000908152600b602052604090206002015461348757604051633a35c2f960e01b815260040160405180910390fd5b836134a557604051633f4b0e7b60e11b815260040160405180910390fd5b428310156134c657604051631b8e7db960e11b815260040160405180910390fd5b63ffffffff85166000908152600c602052604090205484148015613501575063ffffffff85166000908152600c602052604090206001015483145b8015613550575063ffffffff85166000908152600c602052604090819020905161352e9160020190615b28565b60405180910390208282604051613546929190615b9e565b6040518091039020145b1561356e57604051630faec0d960e01b815260040160405180910390fd5b613577856116c7565b156135855761358585611ff7565b604051806060016040528085815260200184815260200183838080601f016020809104026020016040519081016040528093929190818152602001838380828437600092018290525093909452505063ffffffff88168152600c60209081526040918290208451815590840151600182015590830151909150600282019061360d9082615777565b509050508463ffffffff16613622600061368c565b7f6e036d1d8b54cadd52175820bedacecb3423ac485fa12c23c87321592bffb775868686866040516136579493929190615bae565b60405180910390a35050505050565b60017f9b779b17422d0df92223018b32b4d1fa46e071723d6817e2486d003becc55f0055565b6000818152600560205260408120805490826136a783615bce565b90915550505060009081526005602052604090205490565b604354156136f3576043546b033b2e3c9fd0803ce80000006045546136e491906156cd565b6136ee91906156f7565b604655565b6000604655565b61109f6137768360600151846080015160405160200161372d9291909182526001600160401b0316602082015260400190565b604051602081830303815290604052805190602001207f19457468657265756d205369676e6564204d6573736167653a0a3332000000006000908152601c91909152603c902090565b835160208501516040860151856143c3565b613790614400565b613798614449565b6137a0614451565b6137a8614461565b61109f600082612392565b6137bb614400565b61109f600080516020615c3e83398151915282612392565b6137db614400565b6138057fd4633f2ee6e04337d84b8278c3b807b75336f88e5e4656e625419ef1258e9af184612392565b5060409190915560415550565b61381a614400565b6080555042607e55565b61382c614400565b60b49190915560b6555060b380546001018155600052565b61384c614400565b8160000361386d57604051631abc316360e21b815260040160405180910390fd5b8060000361388e57604051638c400e3b60e01b815260040160405180910390fd5b60ea9190915560eb5550565b60005b60b35461ffff8316106138bb5760b38054600101815560005261389d565b610e2a82612333565b6138ce8282611858565b61109f5760405163e2517d3f60e01b81526001600160a01b038216600482015260248101839052604401611051565b600080516020615c9e8339815191525460ff1661135457604051638dfc202b60e01b815260040160405180910390fd5b600080613938613103565b613940613407565b613949876116c7565b156139575761395787611ff7565b63ffffffff87166000908152600b602052604090206002015461398d57604051633a35c2f960e01b815260040160405180910390fd5b63ffffffff87166000908152600b6020526040902060010180546139c4576040516359bd390560e11b815260040160405180910390fd5b8054604080516001600160a01b038a16602082015290810187905260009060600160408051601f1981840301815282825280516020918201209083015201604051602081830303815290604052805190602001209050613a25868383614471565b613a425760405163582f497d60e11b815260040160405180910390fd5b50505063ffffffff87166000908152600d602090815260408083206001600160a01b038a168452909152902054613a7990856156e4565b63ffffffff88166000908152600b6020908152604080832054600d83528184206001600160a01b038c16855290925290912086905560ff16925090508015613b08578663ffffffff1685613acc8761368c565b7f44a849f31027c891cb7e817e7c8df6b1541f745395ba940daeec387b283f39ab898587604051613aff93929190615be7565b60405180910390a45b613b10613666565b9550959350505050565b613b226112f5565b6000613b2d8261338f565b9050801561109f576001600160a01b0382166000908152607b602052604081206002018054839290613b60908490615686565b90915550506001600160a01b03821660009081526047602052604081208054839290613b8d908490615686565b90915550505050565b600080613ba1613134565b509050670de0b6b3a764000081613bb785611ad5565b613bc191906156cd565b610fec91906156f7565b6000613bd5613407565b613bdd613103565b6001600160a01b0383166000908152607c60205260408120600101549003613c18576040516365e134c160e11b815260040160405180910390fd5b6001600160a01b0383166000908152607c6020526040902060010154421015613c5457604051638a27b5a160e01b815260040160405180910390fd5b506001600160a01b0382166000908152607c60205260409020548015613cb857826001600160a01b031682613c888461368c565b6040518481527f190e540afa0f1919c2b4de58858bd15ec79dde6231ca4b3be2cb0bde4eede0c790602001612be1565b610e2a613666565b613cc8613407565b613cd0613103565b80600003613cf1576040516310eb483f60e21b815260040160405180910390fd5b6001600160a01b0383166000908152607b602052604090208190600101541015613d3157600160405163348ee39760e11b81526004016110519190615b01565b613d3a83613b1a565b6001600160a01b0383166000908152607b6020526040902081906001016000828254613d6691906156e4565b90915550613d75905083613b96565b6001600160a01b0384166000908152607b6020526040812060020191909155607d8054839290613da69084906156e4565b90915550506001600160a01b03831682613dbf8161368c565b6040518481527f1fa0c4284b9958e80cb828a1863b89b2a40ff9dc4cdc149ac88490bc609a91959060200160405180910390a4610fb1613666565b613e02613103565b613e0a613407565b80600003613e2b5760405163f7cb25ad60e01b815260040160405180910390fd5b6001600160a01b038316600090815260e96020908152604080832081516060810183528154815292830185905260ea5490939291820190613e6c9042615686565b905260018084018054808301825560009182526020808320855160039093020191825584015192810192909255604083015160029092019190915583549192508390613eb783615bce565b9190505550846001600160a01b031684613ed08661368c565b835160408086015181519283526020830189905282820152517e3e50d6f730f8990dc97da68a86fea40220d3baa3f6689325a46beb5f5dc0f69181900360600190a45050610fb1613666565b6001600160a01b038216600090815260e960205260408120600190810180549091613f46916156e4565b81548110613f5657613f56615719565b600091825260208083206040805160608101825260039094029091018054808552600180830154868601819052600293840154878601819052928a5589820155918801556001600160a01b038816855260e990925290922090910180549192509080613fc457613fc4615c0b565b60008281526020812060036000199093019283020181815560018101829055600201559055505050565b600080613ff9613103565b614001613407565b600061400d86856124b3565b9050806002015442101561403457604051633eb55fa360e01b815260040160405180910390fd5b60408051606081018252825481526001830154602082015260028301549181019190915261406190612598565b925082816001015461407391906156e4565b9150856001600160a01b0316856140898761368c565b7f2f7d1a67d8436fa13ded14bf53703bed5c9b189232cd35530a5ce988bb55e40b878560010154888760020154426140c191906156e4565b60408051948552602085019390935291830152606082015260800160405180910390a46140ee8682613f1c565b506140f7613666565b935093915050565b614107613103565b8060000361412857604051631c26cb0b60e01b815260040160405180910390fd5b6001600160a01b0383166000908152604760205260409020548111156141615760405163043f8ee560e41b815260040160405180910390fd5b6001600160a01b038316600090815260476020526040812080548392906141899084906156e4565b90915550614198905083614487565b60006141a2611fc0565b9050816141ae8261389a565b60010160008282546141c09190615686565b90915550600090506141d2858361476b565b9050826141e282600101866148cd565b60010160008282546141f49190615686565b925050819055508261422d60b38461ffff168154811061421657614216615719565b9060005260206000209060040201600301866148cd565b600101600082825461423f9190615686565b90915550506001600160a01b038516846142588161368c565b6040805161ffff87168152602081018890527f6c16ad26e00ab1076e5532c6abddf1578121ec478b3129e556e064ff18de6229910160405180910390a45050505050565b60006142a6613103565b6142af83614487565b506001600160a01b038216600090815260b560209081526040808320848452909152812054908190036143065760405162d6360d60e11b81526001600160a01b038416600482015260248101839052604401611051565b6001600160a01b038316600081815260b560209081526040808320868452909152812055826143348161368c565b6040518481527f5160b630eaa30b010bf18a116a641cab7551c9bafdbd85748da5aaa421753a3c9060200160405180910390a492915050565b61437682614968565b6040516001600160a01b038316907fbc7cd75a20ee27fd9adebab32041f755214dbc6bffa90cc0225b39da2e5c2d3b90600090a28051156143bb57610fb182826149cd565b61109f614a43565b806001600160a01b03166143d986848787614a62565b6001600160a01b03161461185157604051638baa579f60e01b815260040160405180910390fd5b7ff0c57e16840df040f15088dc2f81fe391c3923bec73e23a9662efc9c229c6a0054600160401b900460ff1661135457604051631afcd79f60e31b815260040160405180910390fd5b611354614400565b614459614400565b611354614a92565b614469614400565b611354614a9a565b60008261447e8584614abb565b14949350505050565b60005b6001600160a01b038216600090815260b5602052604090206001015481101561109f576001600160a01b038216600090815260b5602052604081206001018054839081106144da576144da615719565b60009182526020909120600290910201805460b380549293509161ffff90911690811061450957614509615719565b600091825260209091206004909102015460ff16156147625760005b600182015481101561462557600082600101828154811061454857614548615719565b9060005260206000209060020201600001549050600083600101838154811061457357614573615719565b60009182526020822060016002909202010154855460b380549294506b033b2e3c9fd0803ce800000092909161ffff169081106145b2576145b2615719565b906000526020600020906004020160020154836145cf91906156cd565b6145d991906156f7565b6001600160a01b038816600090815260b560209081526040808320878452909152812080549293508392909190614611908490615686565b909155505060019093019250614525915050565b506001600160a01b038316600090815260b56020526040812060019081015461464e91906156e4565b6001600160a01b038516600090815260b5602052604090206001018054919250908290811061467f5761467f615719565b906000526020600020906002020160b56000866001600160a01b03166001600160a01b0316815260200190815260200160002060010184815481106146c6576146c6615719565b600091825260209091208254600290920201805461ffff191661ffff909216919091178155600180830180546146ff9284019190614d95565b5050506001600160a01b038416600090815260b56020526040902060010180548061472c5761472c615c0b565b600082815260208120600260001990930192830201805461ffff19168155906147586001830182614df5565b5050905550505050565b5060010161448a565b6000805b6001600160a01b038416600090815260b5602052604090206001015481101561482b576001600160a01b038416600090815260b560205260409020600101805461ffff85169190839081106147c6576147c6615719565b600091825260209091206002909102015461ffff1603614823576001600160a01b038416600090815260b56020526040902060010180548290811061480d5761480d615719565b9060005260206000209060020201915050610e2a565b60010161476f565b506001600160a01b038316600090815260b560205260409020600190810180549182018082558491908390811061486457614864615719565b60009182526020808320600292909202909101805461ffff191661ffff94909416939093179092556001600160a01b038616815260b5909152604090206001018054829081106148b6576148b6615719565b906000526020600020906002020191505092915050565b6000805b835481101561491e57828482815481106148ed576148ed615719565b906000526020600020906002020160000154036149165783818154811061480d5761480d615719565b6001016148d1565b508254600181018085556000859052839085908390811061494157614941615719565b9060005260206000209060020201600001819055508381815481106148b6576148b6615719565b806001600160a01b03163b60000361499e57604051634c9c8ce360e01b81526001600160a01b0382166004820152602401611051565b600080516020615c5e83398151915280546001600160a01b0319166001600160a01b0392909216919091179055565b6060600080846001600160a01b0316846040516149ea9190615c21565b600060405180830381855af49150503d8060008114614a25576040519150601f19603f3d011682016040523d82523d6000602084013e614a2a565b606091505b5091509150614a3a858383614afe565b95945050505050565b34156113545760405163b398979f60e01b815260040160405180910390fd5b600080600080614a7488888888614b5a565b925092509250614a848282614c29565b50909150505b949350505050565b613666614400565b614aa2614400565b600080516020615c9e833981519152805460ff19169055565b600081815b8451811015614af657614aec82868381518110614adf57614adf615719565b6020026020010151614ce2565b9150600101614ac0565b509392505050565b606082614b1357614b0e82614d11565b610fec565b8151158015614b2a57506001600160a01b0384163b155b15614b5357604051639996b31560e01b81526001600160a01b0385166004820152602401611051565b5080610fec565b600080807f7fffffffffffffffffffffffffffffff5d576e7357a4501ddfe92f46681b20a0841115614b955750600091506003905082614c1f565b604080516000808252602082018084528a905260ff891692820192909252606081018790526080810186905260019060a0016020604051602081039080840390855afa158015614be9573d6000803e3d6000fd5b5050604051601f1901519150506001600160a01b038116614c1557506000925060019150829050614c1f565b9250600091508190505b9450945094915050565b6000826003811115614c3d57614c3d615462565b03614c46575050565b6001826003811115614c5a57614c5a615462565b03614c785760405163f645eedf60e01b815260040160405180910390fd5b6002826003811115614c8c57614c8c615462565b03614cad5760405163fce698f760e01b815260048101829052602401611051565b6003826003811115614cc157614cc1615462565b0361109f576040516335e2f38360e21b815260048101829052602401611051565b6000818310614cfe576000828152602084905260409020610fec565b6000838152602083905260409020610fec565b805115614d215780518082602001fd5b604051630a12f52160e11b815260040160405180910390fd5b508054614d4690615699565b6000825580601f10614d56575050565b601f0160209004906000526020600020908101906110069190614e16565b50805460008255600302906000526020600020908101906110069190614e2b565b828054828255906000526020600020906002028101928215614de55760005260206000209160020282015b82811115614de557825482556001808401549083015560029283019290910190614dc0565b50614df1929150614e4d565b5090565b50805460008255600202906000526020600020908101906110069190614e4d565b5b80821115614df15760008155600101614e17565b5b80821115614df1576000808255600182018190556002820155600301614e2c565b5b80821115614df15760008082556001820155600201614e4e565b600060208284031215614e7a57600080fd5b81356001600160e01b031981168114610fec57600080fd5b803561ffff81168114614ea457600080fd5b919050565b600060208284031215614ebb57600080fd5b610fec82614e92565b602080825282518282018190526000919060409081850190868401855b82811015614f0657815180518552860151868501529284019290850190600101614ee1565b5091979650505050505050565b600060208284031215614f2557600080fd5b5035919050565b63ffffffff8116811461100657600080fd5b80356001600160a01b0381168114614ea457600080fd5b60008060408385031215614f6857600080fd5b8235614f7381614f2c565b9150614f8160208401614f3e565b90509250929050565b600060208284031215614f9c57600080fd5b610fec82614f3e565b602080825282518282018190526000919060409081850190868401855b82811015614f065781518051855286810151878601528501518585015260609093019290850190600101614fc2565b6000806040838503121561500457600080fd5b82359150614f8160208401614f3e565b6000806040838503121561502757600080fd5b61503083614f3e565b946020939093013593505050565b634e487b7160e01b600052604160045260246000fd5b60405160c081016001600160401b03811182821017156150765761507661503e565b60405290565b604051606081016001600160401b03811182821017156150765761507661503e565b604051601f8201601f191681016001600160401b03811182821017156150c6576150c661503e565b604052919050565b803560048110614ea457600080fd5b803560ff81168114614ea457600080fd5b600082601f8301126150ff57600080fd5b81356001600160401b038111156151185761511861503e565b61512b601f8201601f191660200161509e565b81815284602083860101111561514057600080fd5b816020850160208301376000918101602001919091529392505050565b60006020828403121561516f57600080fd5b81356001600160401b038082111561518657600080fd5b9083019060c0828603121561519a57600080fd5b6151a2615054565b823581526151b2602084016150ce565b6020820152604083013560408201526151cd60608401614f3e565b60608201526151de608084016150dd565b608082015260a0830135828111156151f557600080fd5b615201878286016150ee565b60a08301525095945050505050565b60006020828403121561522257600080fd5b8135610fec81614f2c565b60005b83811015615248578181015183820152602001615230565b50506000910152565b6000815180845261526981602086016020860161522d565b601f01601f19169290920160200192915050565b838152826020820152606060408201526000614a3a6060830184615251565b600080604083850312156152af57600080fd5b6152b883614f3e565b915060208301356001600160401b038111156152d357600080fd5b6152df858286016150ee565b9150509250929050565b60008083601f8401126152fb57600080fd5b5081356001600160401b0381111561531257600080fd5b60208301915083602082850101111561532a57600080fd5b9250929050565b60008060008060006080868803121561534957600080fd5b853561535481614f2c565b9450602086013593506040860135925060608601356001600160401b0381111561537d57600080fd5b615389888289016152e9565b969995985093965092949392505050565b60008060008060008060a087890312156153b357600080fd5b86356153be81614f2c565b95506153cc602088016150ce565b9450604087013593506060870135925060808701356001600160401b038111156153f557600080fd5b61540189828a016152e9565b979a9699509497509295939492505050565b602081526000610fec6020830184615251565b60008060006060848603121561543b57600080fd5b61544484614f3e565b925061545260208501614e92565b9150604084013590509250925092565b634e487b7160e01b600052602160045260246000fd5b6004811061549657634e487b7160e01b600052602160045260246000fd5b9052565b6154a48186615478565b8360208201528260408201526080606082015260006154c66080830184615251565b9695505050505050565b600060a0828403121561232d57600080fd5b600080600080608085870312156154f857600080fd5b61550185614f3e565b935061550f60208601614f3e565b93969395505050506040820135916060013590565b6000602080838503121561553757600080fd5b82516001600160401b038082111561554e57600080fd5b908401906060828703121561556257600080fd5b61556a61507c565b825161557581614f2c565b8152828401518482015260408301518281111561559157600080fd5b80840193505086601f8401126155a657600080fd5b8251828111156155b8576155b861503e565b8060051b92506155c985840161509e565b81815292840185019285810190898511156155e357600080fd5b948601945b84861015615601578551825294860194908601906155e8565b60408401525090979650505050505050565b60006020828403121561562557600080fd5b604051602081018181106001600160401b03821117156156475761564761503e565b6040529151825250919050565b60006020828403121561566657600080fd5b610fec8383615613565b634e487b7160e01b600052601160045260246000fd5b80820180821115610e2a57610e2a615670565b600181811c908216806156ad57607f821691505b60208210810361232d57634e487b7160e01b600052602260045260246000fd5b8082028115828204841417610e2a57610e2a615670565b81810381811115610e2a57610e2a615670565b60008261571457634e487b7160e01b600052601260045260246000fd5b500490565b634e487b7160e01b600052603260045260246000fd5b601f821115610fb1576000816000526020600020601f850160051c810160208610156157585750805b601f850160051c820191505b81811015611a6257828155600101615764565b81516001600160401b038111156157905761579061503e565b6157a48161579e8454615699565b8461572f565b602080601f8311600181146157d957600084156157c15750858301515b600019600386901b1c1916600185901b178555611a62565b600085815260208120601f198616915b82811015615808578886015182559484019460019091019084016157e9565b50858210156158265787850151600019600388901b60f8161c191681555b5050505050600190811b01905550565b81835281816020850137506000828201602090810191909152601f909101601f19169091010190565b6158698187615478565b84602082015283604082015260806060820152600061588c608083018486615836565b979650505050505050565b600060a082840312156158a957600080fd5b60405160a081016001600160401b0382821081831117156158cc576158cc61503e565b8160405284358352602085013560208401526158ea604086016150dd565b60408401526060850135606084015260808501359150808216821461590e57600080fd5b5060808201529392505050565b818103615926575050565b6159308254615699565b6001600160401b038111156159475761594761503e565b6159558161579e8454615699565b6000601f82116001811461598957600083156159715750848201545b600019600385901b1c1916600184901b178455611851565b600085815260209020601f19841690600086815260209020845b838110156159c357828601548255600195860195909101906020016159a3565b50858310156158265793015460001960f8600387901b161c19169092555050600190811b01905550565b838152600060208460208401526060604084015260008454615a0e81615699565b8060608701526080600180841660008114615a305760018114615a4c57615a7c565b60ff19851660808a0152608084151560051b8a01019550615a7c565b89600052602060002060005b85811015615a735781548b8201860152908301908801615a58565b8a016080019650505b50939a9950505050505050505050565b602081528151602082015260006020830151615aab6040840182615478565b506040830151606083015260018060a01b03606084015116608083015260ff60808401511660a083015260a083015160c080840152614a8a60e0840182615251565b82815260408101610fec6020830184615478565b60208101610e2a8284615478565b600060208284031215615b2157600080fd5b5051919050565b6000808354615b3681615699565b60018281168015615b4e5760018114615b6357615b92565b60ff1984168752821515830287019450615b92565b8760005260208060002060005b85811015615b895781548a820152908401908201615b70565b50505082870194505b50929695505050505050565b8183823760009101908152919050565b8481528360208201526060604082015260006154c6606083018486615836565b600060018201615be057615be0615670565b5060010190565b6001600160a01b03841681526020810183905260608101614a8a6040830184615478565b634e487b7160e01b600052603160045260246000fd5b60008251615c3381846020870161522d565b919091019291505056fe009ab23a1010d07a0450a1fbea1d84169b57d2c2273b54bff0f20c3e90199b5d360894a13ba1a3210667c828492db98dca3e2076cc3735a920a3ca505d382bbc02dd7bc7dec4dceedda775e58dd541e08a116c6c53815c0bd028192f7b626800cd5ed15c6e187e77e9aee88184c21f4f2182ab5827cb3b7e07fbedcd63f03300a2646970667358221220dc2b26b5f0f76a57e3e3e306c5db14d5b31aeef3d7d632ea80b7776e9a91f7fe64736f6c63430008160033",
  "devdoc": {
    "errors": {
      "AccessControlBadConfirmation()": [
        {
          "details": "The caller of a function is not the expected one. NOTE: Don't confuse with {AccessControlUnauthorizedAccount}."
        }
      ],
      "AccessControlUnauthorizedAccount(address,bytes32)": [
        {
          "details": "The `account` is missing a role."
        }
      ],
      "AddressEmptyCode(address)": [
        {
          "details": "There's no code at `target` (it is not a contract)."
        }
      ],
      "ECDSAInvalidSignature()": [
        {
          "details": "The signature derives the `address(0)`."
        }
      ],
      "ECDSAInvalidSignatureLength(uint256)": [
        {
          "details": "The signature has an invalid length."
        }
      ],
      "ECDSAInvalidSignatureS(bytes32)": [
        {
          "details": "The signature has an S value that is in the upper half order."
        }
      ],
      "ERC1967InvalidImplementation(address)": [
        {
          "details": "The `implementation` of the proxy is invalid."
        }
      ],
      "ERC1967NonPayable()": [
        {
          "details": "An upgrade function sees `msg.value > 0` that may be lost."
        }
      ],
      "EnforcedPause()": [
        {
          "details": "The operation failed because the contract is paused."
        }
      ],
      "ExpectedPause()": [
        {
          "details": "The operation failed because the contract is not paused."
        }
      ],
      "FailedInnerCall()": [
        {
          "details": "A call to an address target failed. The target may have reverted."
        }
      ],
      "InvalidInitialization()": [
        {
          "details": "The contract is already initialized."
        }
      ],
      "NotInitializing()": [
        {
          "details": "The contract is not initializing."
        }
      ],
      "ReentrancyGuardReentrantCall()": [
        {
          "details": "Unauthorized reentrant call."
        }
      ],
      "UUPSUnauthorizedCallContext()": [
        {
          "details": "The call is from an unauthorized context."
        }
      ],
      "UUPSUnsupportedProxiableUUID(bytes32)": [
        {
          "details": "The storage `slot` is unsupported as a UUID."
        }
      ]
    },
    "events": {
      "Initialized(uint64)": {
        "details": "Triggered when the contract has been initialized or reinitialized."
      },
      "Paused(address)": {
        "details": "Emitted when the pause is triggered by `account`."
      },
      "RoleAdminChanged(bytes32,bytes32,bytes32)": {
        "details": "Emitted when `newAdminRole` is set as ``role``'s admin role, replacing `previousAdminRole` `DEFAULT_ADMIN_ROLE` is the starting admin for all roles, despite {RoleAdminChanged} not being emitted signaling this."
      },
      "RoleGranted(bytes32,address,address)": {
        "details": "Emitted when `account` is granted `role`. `sender` is the account that originated the contract call, an admin role bearer except when using {AccessControl-_setupRole}."
      },
      "RoleRevoked(bytes32,address,address)": {
        "details": "Emitted when `account` is revoked `role`. `sender` is the account that originated the contract call:   - if using `revokeRole`, it is the admin role bearer   - if using `renounceRole`, it is the role bearer (i.e. `account`)"
      },
      "Unpaused(address)": {
        "details": "Emitted when the pause is lifted by `account`."
      },
      "Upgraded(address)": {
        "details": "Emitted when the implementation is upgraded."
      }
    },
    "kind": "dev",
    "methods": {
      "calculateVestingOrderAmount(address,uint256)": {
        "params": {
          "_user": "User address"
        }
      },
      "canUpdateRoot(uint32)": {
        "params": {
          "_distributionId": "The distribution id."
        },
        "returns": {
          "_0": "Boolean `true` if the active root can be updated to the proposed root, else `false`."
        }
      },
      "createDistribution(uint32,uint8,bytes32,uint256,bytes)": {
        "params": {
          "_distributionId": "The distribution id.",
          "_ipfsCid": "An IPFS CID pointing to the Merkle tree data. (optional, can be 0x0) Reverts if the distribution with the same id is already exists or Merkle root params are invalid. Reverts if the token is not supported for distribution. Currently only $ORDER and es$ORDER tokens are supported.",
          "_merkleRoot": "The Merkle root.",
          "_startTimestamp": "The timestamp when this Merkle root become active.",
          "_token": "The type of the token. Currently only $ORDER token and es$ORDER (record based) are supported."
        }
      },
      "getClaimed(uint32,address)": {
        "params": {
          "_distributionId": "The distribution id.",
          "_user": "The address of the user."
        },
        "returns": {
          "_0": "The amount tokens claimed so far by that user."
        }
      },
      "getDistribution(uint32)": {
        "params": {
          "_distributionId": "The distribution id."
        },
        "returns": {
          "ipfsCid": "       An IPFS CID pointing to the Merkle tree data (optional, can be 0x0).",
          "merkleRoot": "    The Merkle root.",
          "startTimestamp": "Timestamp when this Merkle root become active.",
          "token": "         The type of the distributed token. Currently only $ORDER token and es$ORDER (record based) are supported."
        }
      },
      "getProposedRoot(uint32)": {
        "params": {
          "_distributionId": "The distribution id."
        },
        "returns": {
          "ipfsCid": "       An IPFS CID pointing to the Merkle tree data (optional, can be 0x0).",
          "merkleRoot": "    The proposed Merkle root.",
          "startTimestamp": "Timestamp when this Merkle root become active."
        }
      },
      "getRoleAdmin(bytes32)": {
        "details": "Returns the admin role that controls `role`. See {grantRole} and {revokeRole}. To change a role's admin, use {_setRoleAdmin}."
      },
      "grantRole(bytes32,address)": {
        "details": "Grants `role` to `account`. If `account` had not been already granted `role`, emits a {RoleGranted} event. Requirements: - the caller must have ``role``'s admin role. May emit a {RoleGranted} event."
      },
      "hasPendingRoot(uint32)": {
        "params": {
          "_distributionId": "The distribution id."
        },
        "returns": {
          "_0": "Boolean `true` if there is a proposed root for given distribution waiting to become active, else `false`."
        }
      },
      "hasRole(bytes32,address)": {
        "details": "Returns `true` if `account` has been granted `role`."
      },
      "isDistributionRecordBased(uint32)": {
        "params": {
          "_distributionId": "The distribution id."
        },
        "returns": {
          "_0": "Boolean `true` if the distribution is record based, else `false`."
        }
      },
      "paused()": {
        "details": "Returns true if the contract is paused, and false otherwise."
      },
      "proposeRoot(uint32,bytes32,uint256,bytes)": {
        "params": {
          "_distributionId": "The distribution id.",
          "_ipfsCid": "An IPFS CID pointing to the Merkle tree data.  Reverts if the proposed root is bytes32(0).  Reverts if the proposed startTimestamp is in the past.  Reverts if the proposed root is already proposed.",
          "_merkleRoot": "The Merkle root.",
          "_startTimestamp": "The timestamp when this Merkle root become active"
        }
      },
      "proxiableUUID()": {
        "details": "Implementation of the ERC1822 {proxiableUUID} function. This returns the storage slot used by the implementation. It is used to validate the implementation's compatibility when performing an upgrade. IMPORTANT: A proxy pointing at a proxiable contract should not be considered proxiable itself, because this risks bricking a proxy that upgrades to it, by delegating to itself until out of gas. Thus it is critical that this function revert if invoked through a proxy. This is guaranteed by the `notDelegated` modifier."
      },
      "renounceRole(bytes32,address)": {
        "details": "Revokes `role` from the calling account. Roles are often managed via {grantRole} and {revokeRole}: this function's purpose is to provide a mechanism for accounts to lose their privileges if they are compromised (such as when a trusted device is misplaced). If the calling account had been revoked `role`, emits a {RoleRevoked} event. Requirements: - the caller must be `callerConfirmation`. May emit a {RoleRevoked} event."
      },
      "revokeRole(bytes32,address)": {
        "details": "Revokes `role` from `account`. If `account` had been granted `role`, emits a {RoleRevoked} event. Requirements: - the caller must have ``role``'s admin role. May emit a {RoleRevoked} event."
      },
      "supportsInterface(bytes4)": {
        "details": "See {IERC165-supportsInterface}."
      },
      "updateRoot(uint32)": {
        "params": {
          "_distributionId": "The distribution id.  Reverts if root updates are paused.  Reverts if the proposed root is bytes32(0).  Reverts if the waiting period for the proposed root has not elapsed."
        }
      },
      "upgradeToAndCall(address,bytes)": {
        "custom:oz-upgrades-unsafe-allow-reachable": "delegatecall",
        "details": "Upgrade the implementation of the proxy to `newImplementation`, and subsequently execute the function call encoded in `data`. Calls {_authorizeUpgrade}. Emits an {Upgraded} event."
      }
    },
    "version": 1
  },
  "userdoc": {
    "events": {
      "BatchPreparedToClaim(uint16)": {
        "notice": "Emitted when admin marks batch as claimable"
      },
      "BatchValorToUsdcRateIsFixed(uint16,uint256)": {
        "notice": "Emitted when admin fixes valor to USDC rate for the batch"
      },
      "DailyUsdcNetFeeRevenueUpdated(uint256,uint256,uint256,uint256,uint256)": {
        "notice": "Emmited, when the daily USDC net fee revenue has been updated"
      },
      "DistributionCreated(uint256,uint32,uint8,bytes32,uint256,bytes)": {
        "notice": "Emitted when a new distribution is created by the ROOT_UPDATER_ROLE from Ledger chain."
      },
      "EsOrderUnstake(uint256,uint256,address,uint256)": {
        "notice": "Emitted when user unstakes es$ORDER tokens"
      },
      "OrderUnstakeAmount(address,uint256,uint256)": {
        "notice": "Emitted for _createOrderUnstakeRequest, _cancelOrderUnstakeRequest and _withdrawOrder functions"
      },
      "OrderUnstakeCancelled(uint256,uint256,address,uint256)": {
        "notice": "Emitted when user cancels unstake $ORDER tokens request"
      },
      "OrderUnstakeRequested(uint256,uint256,address,uint256)": {
        "notice": "Emitted when user requests unstake $ORDER tokens"
      },
      "OrderWithdrawn(uint256,uint256,address,uint256)": {
        "notice": "Emitted when user withdraws $ORDER tokens"
      },
      "RewardsClaimed(uint256,uint256,uint32,address,uint256,uint8)": {
        "notice": "Emitted when a user claims rewards from Vault chains."
      },
      "RootProposed(uint256,uint32,bytes32,uint256,bytes)": {
        "notice": "Emitted when a new Merkle root is proposed by the ROOT_UPDATER_ROLE from Ledger chain."
      },
      "RootUpdated(uint256,uint32,bytes32,uint256,bytes)": {
        "notice": "Emitted when proposed Merkle root becomes active by the ROOT_UPDATER_ROLE from Ledger chain."
      },
      "Staked(uint256,uint256,address,uint256,uint8)": {
        "notice": "Emitted when user stakes $ORDER or es$ORDER tokens"
      },
      "UsdcRevenueClaimed(uint256,uint256,address,uint256)": {
        "notice": "Emitted when user claim collected USDC revenue from chain"
      },
      "ValorRedeemed(uint256,uint256,address,uint16,uint256)": {
        "notice": "Emitted when user redeem valor for the chain; batchId is the current batch"
      }
    },
    "kind": "user",
    "methods": {
      "TREASURE_UPDATER_ROLE()": {
        "notice": "The role, that is allowed to update USDC net fee revenue"
      },
      "accValorPerShareScaled()": {
        "notice": "The accrued valor share, scaled to `ACC_VALOR_PER_SHARE_PRECISION`"
      },
      "batchDuration()": {
        "notice": "Period of the batch in seconds"
      },
      "batchPreparedToClaim(uint16)": {
        "notice": "Admin marks batch as claimable when USDC is provided for the batch         This also reduce total valor amount and total USDC in treasure         This reduce shouldn't affect the valor to USDC rate because valor and USDC amounts are reduced proportionally"
      },
      "batchStartTimestamp()": {
        "notice": "The timestamp when the first batch starts"
      },
      "calculateVestingOrderAmount(address,uint256)": {
        "notice": "Return amount of $ORDER tokens for withdraw at the moment"
      },
      "canUpdateRoot(uint32)": {
        "notice": "Returns true if there is a proposed root for given distribution waiting to become active         and the start time has passed."
      },
      "collectedValor(address)": {
        "notice": "The amount of valor token, that has been collected by the user"
      },
      "createDistribution(uint32,uint8,bytes32,uint256,bytes)": {
        "notice": "Create a new distribution with the given token and propose Merkle root for it.         Locked for ROOT_UPDATER_ROLE.         Once created, distribution token can't be changed."
      },
      "dailyUsdcNetFeeRevenue((bytes32,bytes32,uint8,uint256,uint64))": {
        "notice": "CeFi updates the daily USDC net fee revenue          Function reverts, if the function is called too early - less than 12 hours after the last update          to prevent accidental double updates          Function updates the totalUsdcInTreasure, valorToUsdcRateScaled"
      },
      "fixBatchValorToUsdcRate(uint16)": {
        "notice": "CeFi fixes valor to USDC rate for the batch after providing daily USDC net fee amount after batch is finished         This suppose to avoid the last day gap in USDC treasure amount         that can lead to set incorrect valor to USDC rate for the batch         batch.fixedValorToUsdcRateScaled will be set to current valorToUsdcRateScaled"
      },
      "getBatchChainedValorAmount(uint16)": {
        "notice": "Returns the amount of valor that user can redeem for the chain"
      },
      "getBatchInfo(uint16)": {
        "notice": "Returns the batch structure by id without chained valor amount"
      },
      "getClaimed(uint32,address)": {
        "notice": "Get the tokens amount claimed so far for distribution by a given user."
      },
      "getCurrentBatchId()": {
        "notice": "Calculate and returns the current batch id based on the current timestamp, start timestamp and batch duration"
      },
      "getDistribution(uint32)": {
        "notice": "Get the active Merkle root for distribution id and associated parameters.         If distribution has proposed root and it's start timestamp has passed, proposed root will be returned.         It allows to reduce probability of collision when user claiming rewards from the old Merkle root.         Because it will be updated at the beginning of the next claimReward call and become active from that moment.         So, user will actually obtain the rewards from the proposed root and have to provide amount and proof for it."
      },
      "getOrderAvailableToWithdraw(address)": {
        "notice": "Get the amount of $ORDER ready to be withdrawn by `_user`"
      },
      "getProposedRoot(uint32)": {
        "notice": "Get the proposed Merkle root for token and associated parameters.         When the proposed root become active, it will be removed from the proposedRoots mapping.         So, this function will return non-zero values only if the proposed root is pending."
      },
      "getStakingInfo(address)": {
        "notice": "Get the staking balances for a given _user"
      },
      "getUsdcAmountForBatch(uint16)": {
        "notice": "Returns the amount of USDC required for batch on each chain"
      },
      "getUserRedeemedValorAmountForBatchAndChain(address,uint16,uint256)": {
        "notice": "Returns the amount of valor that user redeemed for the chain in the batch"
      },
      "getUserValor(address)": {
        "notice": "Get the pending amount of valor up to now for a given _user"
      },
      "hasPendingRoot(uint32)": {
        "notice": "Returns true if there is a proposed root for given distribution waiting to become active.         This is the case if the proposed root for given distribution is not zero."
      },
      "isDistributionRecordBased(uint32)": {
        "notice": "Check if the distribution is record based. Currently only es$ORDER token is record based."
      },
      "lastUsdcNetFeeRevenueUpdateTimestamp()": {
        "notice": "The timestamp of the last update of the USDC net fee revenue"
      },
      "lastValorUpdateTimestamp()": {
        "notice": "The last time that the valor variables were updated"
      },
      "ledgerRecvFromVault((uint256,uint8,uint256,address,uint8,bytes))": {
        "notice": "Receives message from OCCAdapter and dispatch it"
      },
      "maximumValorEmission()": {
        "notice": "The maximum amount of valor token, that can be emitted"
      },
      "pause()": {
        "notice": "Pause external functionality"
      },
      "proposeRoot(uint32,bytes32,uint256,bytes)": {
        "notice": "Set the proposed root parameters.         Locked for ROOT_UPDATER_ROLE.         Allows to update proposed root for token before startTimestamp passed.         If startTimestamp passed, proposed root will be propogated to active root."
      },
      "setTotalUsdcInTreasure(uint256)": {
        "notice": "Set the totalUsdcInTreasure. Restricted to DEFAULT_ADMIN_ROLE          Function updates the totalUsdcInTreasure, valorToUsdcRateScaled"
      },
      "setUsdcUpdaterAddress(address)": {
        "notice": "Owner can set address, that signed the USDC revenue updates"
      },
      "srcChainIdToEventId(uint256)": {
        "notice": "Mapping of srcChainId => event id"
      },
      "totalStakedAmount()": {
        "notice": "Total amount of staken $ORDER and es$ORDER"
      },
      "totalUsdcInTreasure()": {
        "notice": "The total amount of USDC, that has been collected in the treasure"
      },
      "totalValorAmount()": {
        "notice": "The total amount of valor token, that is currently in circulation"
      },
      "totalValorEmitted()": {
        "notice": "The total amount of valor token, that has been emitted"
      },
      "unpause()": {
        "notice": "Unpause external functionality"
      },
      "unstakeLockPeriod()": {
        "notice": "Period of time, that user have to wait after unstake request, before he can withdraw tokens"
      },
      "updateRoot(uint32)": {
        "notice": "Propagate proposed root to the distribution if it can be updated.         Non-reeentrant guard is disabled because this function is called from claimRewards."
      },
      "updateValorVars()": {
        "notice": "Calculate and update valor per share changed over time This function actually emits valor to users"
      },
      "usdcUpdaterAddress()": {
        "notice": "The address, that signed the USDC revenue updates"
      },
      "userTotalStakingBalance(address)": {
        "notice": "Get the total amount of $ORDER and es$ORDER staked by `_user`"
      },
      "valorPerSecond()": {
        "notice": "The amount of valor token, that will be emitted per second"
      },
      "valorToUsdcRateScaled()": {
        "notice": "The current rate of valor to USDC"
      },
      "vestingLinearPeriod()": {
        "notice": "Period after lock period, during which vesting $ORDER amount linearly increase from 50% to 100%"
      },
      "vestingLockPeriod()": {
        "notice": "Lock period where user can not withdraw vested $ORDER"
      }
    },
    "version": 1
  },
  "storageLayout": {
    "storage": [
      {
        "astId": 7162,
        "contract": "contracts/test/OmnichainLedgerTestV1.sol:OmnichainLedgerTestV1",
        "label": "__gap",
        "offset": 0,
        "slot": "0",
        "type": "t_array(t_uint256)5_storage"
      },
      {
        "astId": 7057,
        "contract": "contracts/test/OmnichainLedgerTestV1.sol:OmnichainLedgerTestV1",
        "label": "srcChainIdToEventId",
        "offset": 0,
        "slot": "5",
        "type": "t_mapping(t_uint256,t_uint256)"
      },
      {
        "astId": 7079,
        "contract": "contracts/test/OmnichainLedgerTestV1.sol:OmnichainLedgerTestV1",
        "label": "__gap",
        "offset": 0,
        "slot": "6",
        "type": "t_array(t_uint256)5_storage"
      },
      {
        "astId": 7265,
        "contract": "contracts/test/OmnichainLedgerTestV1.sol:OmnichainLedgerTestV1",
        "label": "activeDistributions",
        "offset": 0,
        "slot": "11",
        "type": "t_mapping(t_uint32,t_struct(Distribution)7259_storage)"
      },
      {
        "astId": 7271,
        "contract": "contracts/test/OmnichainLedgerTestV1.sol:OmnichainLedgerTestV1",
        "label": "proposedRoots",
        "offset": 0,
        "slot": "12",
        "type": "t_mapping(t_uint32,t_struct(MerkleTree)7250_storage)"
      },
      {
        "astId": 7278,
        "contract": "contracts/test/OmnichainLedgerTestV1.sol:OmnichainLedgerTestV1",
        "label": "claimedAmounts",
        "offset": 0,
        "slot": "13",
        "type": "t_mapping(t_uint32,t_mapping(t_address,t_uint256))"
      },
      {
        "astId": 7940,
        "contract": "contracts/test/OmnichainLedgerTestV1.sol:OmnichainLedgerTestV1",
        "label": "__gap",
        "offset": 0,
        "slot": "14",
        "type": "t_array(t_uint256)50_storage"
      },
      {
        "astId": 9926,
        "contract": "contracts/test/OmnichainLedgerTestV1.sol:OmnichainLedgerTestV1",
        "label": "valorPerSecond",
        "offset": 0,
        "slot": "64",
        "type": "t_uint256"
      },
      {
        "astId": 9929,
        "contract": "contracts/test/OmnichainLedgerTestV1.sol:OmnichainLedgerTestV1",
        "label": "maximumValorEmission",
        "offset": 0,
        "slot": "65",
        "type": "t_uint256"
      },
      {
        "astId": 9932,
        "contract": "contracts/test/OmnichainLedgerTestV1.sol:OmnichainLedgerTestV1",
        "label": "totalValorEmitted",
        "offset": 0,
        "slot": "66",
        "type": "t_uint256"
      },
      {
        "astId": 9935,
        "contract": "contracts/test/OmnichainLedgerTestV1.sol:OmnichainLedgerTestV1",
        "label": "totalValorAmount",
        "offset": 0,
        "slot": "67",
        "type": "t_uint256"
      },
      {
        "astId": 9938,
        "contract": "contracts/test/OmnichainLedgerTestV1.sol:OmnichainLedgerTestV1",
        "label": "lastUsdcNetFeeRevenueUpdateTimestamp",
        "offset": 0,
        "slot": "68",
        "type": "t_uint256"
      },
      {
        "astId": 9941,
        "contract": "contracts/test/OmnichainLedgerTestV1.sol:OmnichainLedgerTestV1",
        "label": "totalUsdcInTreasure",
        "offset": 0,
        "slot": "69",
        "type": "t_uint256"
      },
      {
        "astId": 9944,
        "contract": "contracts/test/OmnichainLedgerTestV1.sol:OmnichainLedgerTestV1",
        "label": "valorToUsdcRateScaled",
        "offset": 0,
        "slot": "70",
        "type": "t_uint256"
      },
      {
        "astId": 9949,
        "contract": "contracts/test/OmnichainLedgerTestV1.sol:OmnichainLedgerTestV1",
        "label": "collectedValor",
        "offset": 0,
        "slot": "71",
        "type": "t_mapping(t_address,t_uint256)"
      },
      {
        "astId": 9952,
        "contract": "contracts/test/OmnichainLedgerTestV1.sol:OmnichainLedgerTestV1",
        "label": "usdcUpdaterAddress",
        "offset": 0,
        "slot": "72",
        "type": "t_address"
      },
      {
        "astId": 10118,
        "contract": "contracts/test/OmnichainLedgerTestV1.sol:OmnichainLedgerTestV1",
        "label": "__gap",
        "offset": 0,
        "slot": "73",
        "type": "t_array(t_uint256)50_storage"
      },
      {
        "astId": 9059,
        "contract": "contracts/test/OmnichainLedgerTestV1.sol:OmnichainLedgerTestV1",
        "label": "userStakingInfo",
        "offset": 0,
        "slot": "123",
        "type": "t_mapping(t_address,t_struct(StakingInfo)9054_storage)"
      },
      {
        "astId": 9069,
        "contract": "contracts/test/OmnichainLedgerTestV1.sol:OmnichainLedgerTestV1",
        "label": "userPendingUnstake",
        "offset": 0,
        "slot": "124",
        "type": "t_mapping(t_address,t_struct(PendingUnstake)9064_storage)"
      },
      {
        "astId": 9072,
        "contract": "contracts/test/OmnichainLedgerTestV1.sol:OmnichainLedgerTestV1",
        "label": "totalStakedAmount",
        "offset": 0,
        "slot": "125",
        "type": "t_uint256"
      },
      {
        "astId": 9075,
        "contract": "contracts/test/OmnichainLedgerTestV1.sol:OmnichainLedgerTestV1",
        "label": "lastValorUpdateTimestamp",
        "offset": 0,
        "slot": "126",
        "type": "t_uint256"
      },
      {
        "astId": 9078,
        "contract": "contracts/test/OmnichainLedgerTestV1.sol:OmnichainLedgerTestV1",
        "label": "accValorPerShareScaled",
        "offset": 0,
        "slot": "127",
        "type": "t_uint256"
      },
      {
        "astId": 9081,
        "contract": "contracts/test/OmnichainLedgerTestV1.sol:OmnichainLedgerTestV1",
        "label": "unstakeLockPeriod",
        "offset": 0,
        "slot": "128",
        "type": "t_uint256"
      },
      {
        "astId": 9902,
        "contract": "contracts/test/OmnichainLedgerTestV1.sol:OmnichainLedgerTestV1",
        "label": "__gap",
        "offset": 0,
        "slot": "129",
        "type": "t_array(t_uint256)50_storage"
      },
      {
        "astId": 8032,
        "contract": "contracts/test/OmnichainLedgerTestV1.sol:OmnichainLedgerTestV1",
        "label": "batches",
        "offset": 0,
        "slot": "179",
        "type": "t_array(t_struct(Batch)8028_storage)dyn_storage"
      },
      {
        "astId": 8035,
        "contract": "contracts/test/OmnichainLedgerTestV1.sol:OmnichainLedgerTestV1",
        "label": "batchStartTimestamp",
        "offset": 0,
        "slot": "180",
        "type": "t_uint256"
      },
      {
        "astId": 8056,
        "contract": "contracts/test/OmnichainLedgerTestV1.sol:OmnichainLedgerTestV1",
        "label": "userRevenue",
        "offset": 0,
        "slot": "181",
        "type": "t_mapping(t_address,t_struct(UserRevenueRecord)8051_storage)"
      },
      {
        "astId": 8059,
        "contract": "contracts/test/OmnichainLedgerTestV1.sol:OmnichainLedgerTestV1",
        "label": "batchDuration",
        "offset": 0,
        "slot": "182",
        "type": "t_uint256"
      },
      {
        "astId": 8953,
        "contract": "contracts/test/OmnichainLedgerTestV1.sol:OmnichainLedgerTestV1",
        "label": "__gap",
        "offset": 0,
        "slot": "183",
        "type": "t_array(t_uint256)50_storage"
      },
      {
        "astId": 10159,
        "contract": "contracts/test/OmnichainLedgerTestV1.sol:OmnichainLedgerTestV1",
        "label": "userVestingInfos",
        "offset": 0,
        "slot": "233",
        "type": "t_mapping(t_address,t_struct(UserVestingInfo)10154_storage)"
      },
      {
        "astId": 10162,
        "contract": "contracts/test/OmnichainLedgerTestV1.sol:OmnichainLedgerTestV1",
        "label": "vestingLockPeriod",
        "offset": 0,
        "slot": "234",
        "type": "t_uint256"
      },
      {
        "astId": 10165,
        "contract": "contracts/test/OmnichainLedgerTestV1.sol:OmnichainLedgerTestV1",
        "label": "vestingLinearPeriod",
        "offset": 0,
        "slot": "235",
        "type": "t_uint256"
      },
      {
        "astId": 10710,
        "contract": "contracts/test/OmnichainLedgerTestV1.sol:OmnichainLedgerTestV1",
        "label": "__gap",
        "offset": 0,
        "slot": "236",
        "type": "t_array(t_uint256)50_storage"
      },
      {
        "astId": 6351,
        "contract": "contracts/test/OmnichainLedgerTestV1.sol:OmnichainLedgerTestV1",
        "label": "occAdaptor",
        "offset": 0,
        "slot": "286",
        "type": "t_address"
      }
    ],
    "types": {
      "t_address": {
        "encoding": "inplace",
        "label": "address",
        "numberOfBytes": "20"
      },
      "t_array(t_struct(Batch)8028_storage)dyn_storage": {
        "base": "t_struct(Batch)8028_storage",
        "encoding": "dynamic_array",
        "label": "struct Revenue.Batch[]",
        "numberOfBytes": "32"
      },
      "t_array(t_struct(BatchedRedemptionRequest)8042_storage)dyn_storage": {
        "base": "t_struct(BatchedRedemptionRequest)8042_storage",
        "encoding": "dynamic_array",
        "label": "struct Revenue.BatchedRedemptionRequest[]",
        "numberOfBytes": "32"
      },
      "t_array(t_struct(ChainedAmount)8013_storage)dyn_storage": {
        "base": "t_struct(ChainedAmount)8013_storage",
        "encoding": "dynamic_array",
        "label": "struct Revenue.ChainedAmount[]",
        "numberOfBytes": "32"
      },
      "t_array(t_struct(VestingRequest)10147_storage)dyn_storage": {
        "base": "t_struct(VestingRequest)10147_storage",
        "encoding": "dynamic_array",
        "label": "struct Vesting.VestingRequest[]",
        "numberOfBytes": "32"
      },
      "t_array(t_uint256)2_storage": {
        "base": "t_uint256",
        "encoding": "inplace",
        "label": "uint256[2]",
        "numberOfBytes": "64"
      },
      "t_array(t_uint256)50_storage": {
        "base": "t_uint256",
        "encoding": "inplace",
        "label": "uint256[50]",
        "numberOfBytes": "1600"
      },
      "t_array(t_uint256)5_storage": {
        "base": "t_uint256",
        "encoding": "inplace",
        "label": "uint256[5]",
        "numberOfBytes": "160"
      },
      "t_bool": {
        "encoding": "inplace",
        "label": "bool",
        "numberOfBytes": "1"
      },
      "t_bytes32": {
        "encoding": "inplace",
        "label": "bytes32",
        "numberOfBytes": "32"
      },
      "t_bytes_storage": {
        "encoding": "bytes",
        "label": "bytes",
        "numberOfBytes": "32"
      },
      "t_enum(LedgerToken)7949": {
        "encoding": "inplace",
        "label": "enum LedgerToken",
        "numberOfBytes": "1"
      },
      "t_mapping(t_address,t_struct(PendingUnstake)9064_storage)": {
        "encoding": "mapping",
        "key": "t_address",
        "label": "mapping(address => struct Staking.PendingUnstake)",
        "numberOfBytes": "32",
        "value": "t_struct(PendingUnstake)9064_storage"
      },
      "t_mapping(t_address,t_struct(StakingInfo)9054_storage)": {
        "encoding": "mapping",
        "key": "t_address",
        "label": "mapping(address => struct Staking.StakingInfo)",
        "numberOfBytes": "32",
        "value": "t_struct(StakingInfo)9054_storage"
      },
      "t_mapping(t_address,t_struct(UserRevenueRecord)8051_storage)": {
        "encoding": "mapping",
        "key": "t_address",
        "label": "mapping(address => struct Revenue.UserRevenueRecord)",
        "numberOfBytes": "32",
        "value": "t_struct(UserRevenueRecord)8051_storage"
      },
      "t_mapping(t_address,t_struct(UserVestingInfo)10154_storage)": {
        "encoding": "mapping",
        "key": "t_address",
        "label": "mapping(address => struct Vesting.UserVestingInfo)",
        "numberOfBytes": "32",
        "value": "t_struct(UserVestingInfo)10154_storage"
      },
      "t_mapping(t_address,t_uint256)": {
        "encoding": "mapping",
        "key": "t_address",
        "label": "mapping(address => uint256)",
        "numberOfBytes": "32",
        "value": "t_uint256"
      },
      "t_mapping(t_uint256,t_uint256)": {
        "encoding": "mapping",
        "key": "t_uint256",
        "label": "mapping(uint256 => uint256)",
        "numberOfBytes": "32",
        "value": "t_uint256"
      },
      "t_mapping(t_uint32,t_mapping(t_address,t_uint256))": {
        "encoding": "mapping",
        "key": "t_uint32",
        "label": "mapping(uint32 => mapping(address => uint256))",
        "numberOfBytes": "32",
        "value": "t_mapping(t_address,t_uint256)"
      },
      "t_mapping(t_uint32,t_struct(Distribution)7259_storage)": {
        "encoding": "mapping",
        "key": "t_uint32",
        "label": "mapping(uint32 => struct MerkleDistributor.Distribution)",
        "numberOfBytes": "32",
        "value": "t_struct(Distribution)7259_storage"
      },
      "t_mapping(t_uint32,t_struct(MerkleTree)7250_storage)": {
        "encoding": "mapping",
        "key": "t_uint32",
        "label": "mapping(uint32 => struct MerkleDistributor.MerkleTree)",
        "numberOfBytes": "32",
        "value": "t_struct(MerkleTree)7250_storage"
      },
      "t_struct(Batch)8028_storage": {
        "encoding": "inplace",
        "label": "struct Revenue.Batch",
        "members": [
          {
            "astId": 8016,
            "contract": "contracts/test/OmnichainLedgerTestV1.sol:OmnichainLedgerTestV1",
            "label": "claimable",
            "offset": 0,
            "slot": "0",
            "type": "t_bool"
          },
          {
            "astId": 8019,
            "contract": "contracts/test/OmnichainLedgerTestV1.sol:OmnichainLedgerTestV1",
            "label": "redeemedValorAmount",
            "offset": 0,
            "slot": "1",
            "type": "t_uint256"
          },
          {
            "astId": 8022,
            "contract": "contracts/test/OmnichainLedgerTestV1.sol:OmnichainLedgerTestV1",
            "label": "fixedValorToUsdcRateScaled",
            "offset": 0,
            "slot": "2",
            "type": "t_uint256"
          },
          {
            "astId": 8027,
            "contract": "contracts/test/OmnichainLedgerTestV1.sol:OmnichainLedgerTestV1",
            "label": "chainedValorAmount",
            "offset": 0,
            "slot": "3",
            "type": "t_array(t_struct(ChainedAmount)8013_storage)dyn_storage"
          }
        ],
        "numberOfBytes": "128"
      },
      "t_struct(BatchedRedemptionRequest)8042_storage": {
        "encoding": "inplace",
        "label": "struct Revenue.BatchedRedemptionRequest",
        "members": [
          {
            "astId": 8037,
            "contract": "contracts/test/OmnichainLedgerTestV1.sol:OmnichainLedgerTestV1",
            "label": "batchId",
            "offset": 0,
            "slot": "0",
            "type": "t_uint16"
          },
          {
            "astId": 8041,
            "contract": "contracts/test/OmnichainLedgerTestV1.sol:OmnichainLedgerTestV1",
            "label": "chainedValorAmount",
            "offset": 0,
            "slot": "1",
            "type": "t_array(t_struct(ChainedAmount)8013_storage)dyn_storage"
          }
        ],
        "numberOfBytes": "64"
      },
      "t_struct(ChainedAmount)8013_storage": {
        "encoding": "inplace",
        "label": "struct Revenue.ChainedAmount",
        "members": [
          {
            "astId": 8010,
            "contract": "contracts/test/OmnichainLedgerTestV1.sol:OmnichainLedgerTestV1",
            "label": "chainId",
            "offset": 0,
            "slot": "0",
            "type": "t_uint256"
          },
          {
            "astId": 8012,
            "contract": "contracts/test/OmnichainLedgerTestV1.sol:OmnichainLedgerTestV1",
            "label": "amount",
            "offset": 0,
            "slot": "1",
            "type": "t_uint256"
          }
        ],
        "numberOfBytes": "64"
      },
      "t_struct(Distribution)7259_storage": {
        "encoding": "inplace",
        "label": "struct MerkleDistributor.Distribution",
        "members": [
          {
            "astId": 7254,
            "contract": "contracts/test/OmnichainLedgerTestV1.sol:OmnichainLedgerTestV1",
            "label": "token",
            "offset": 0,
            "slot": "0",
            "type": "t_enum(LedgerToken)7949"
          },
          {
            "astId": 7258,
            "contract": "contracts/test/OmnichainLedgerTestV1.sol:OmnichainLedgerTestV1",
            "label": "merkleTree",
            "offset": 0,
            "slot": "1",
            "type": "t_struct(MerkleTree)7250_storage"
          }
        ],
        "numberOfBytes": "128"
      },
      "t_struct(MerkleTree)7250_storage": {
        "encoding": "inplace",
        "label": "struct MerkleDistributor.MerkleTree",
        "members": [
          {
            "astId": 7243,
            "contract": "contracts/test/OmnichainLedgerTestV1.sol:OmnichainLedgerTestV1",
            "label": "merkleRoot",
            "offset": 0,
            "slot": "0",
            "type": "t_bytes32"
          },
          {
            "astId": 7246,
            "contract": "contracts/test/OmnichainLedgerTestV1.sol:OmnichainLedgerTestV1",
            "label": "startTimestamp",
            "offset": 0,
            "slot": "1",
            "type": "t_uint256"
          },
          {
            "astId": 7249,
            "contract": "contracts/test/OmnichainLedgerTestV1.sol:OmnichainLedgerTestV1",
            "label": "ipfsCid",
            "offset": 0,
            "slot": "2",
            "type": "t_bytes_storage"
          }
        ],
        "numberOfBytes": "96"
      },
      "t_struct(PendingUnstake)9064_storage": {
        "encoding": "inplace",
        "label": "struct Staking.PendingUnstake",
        "members": [
          {
            "astId": 9061,
            "contract": "contracts/test/OmnichainLedgerTestV1.sol:OmnichainLedgerTestV1",
            "label": "balanceOrder",
            "offset": 0,
            "slot": "0",
            "type": "t_uint256"
          },
          {
            "astId": 9063,
            "contract": "contracts/test/OmnichainLedgerTestV1.sol:OmnichainLedgerTestV1",
            "label": "unlockTimestamp",
            "offset": 0,
            "slot": "1",
            "type": "t_uint256"
          }
        ],
        "numberOfBytes": "64"
      },
      "t_struct(StakingInfo)9054_storage": {
        "encoding": "inplace",
        "label": "struct Staking.StakingInfo",
        "members": [
          {
            "astId": 9051,
            "contract": "contracts/test/OmnichainLedgerTestV1.sol:OmnichainLedgerTestV1",
            "label": "balance",
            "offset": 0,
            "slot": "0",
            "type": "t_array(t_uint256)2_storage"
          },
          {
            "astId": 9053,
            "contract": "contracts/test/OmnichainLedgerTestV1.sol:OmnichainLedgerTestV1",
            "label": "valorDebt",
            "offset": 0,
            "slot": "2",
            "type": "t_uint256"
          }
        ],
        "numberOfBytes": "96"
      },
      "t_struct(UserRevenueRecord)8051_storage": {
        "encoding": "inplace",
        "label": "struct Revenue.UserRevenueRecord",
        "members": [
          {
            "astId": 8046,
            "contract": "contracts/test/OmnichainLedgerTestV1.sol:OmnichainLedgerTestV1",
            "label": "chainedUsdcRevenue",
            "offset": 0,
            "slot": "0",
            "type": "t_mapping(t_uint256,t_uint256)"
          },
          {
            "astId": 8050,
            "contract": "contracts/test/OmnichainLedgerTestV1.sol:OmnichainLedgerTestV1",
            "label": "requests",
            "offset": 0,
            "slot": "1",
            "type": "t_array(t_struct(BatchedRedemptionRequest)8042_storage)dyn_storage"
          }
        ],
        "numberOfBytes": "64"
      },
      "t_struct(UserVestingInfo)10154_storage": {
        "encoding": "inplace",
        "label": "struct Vesting.UserVestingInfo",
        "members": [
          {
            "astId": 10149,
            "contract": "contracts/test/OmnichainLedgerTestV1.sol:OmnichainLedgerTestV1",
            "label": "currentRequestId",
            "offset": 0,
            "slot": "0",
            "type": "t_uint256"
          },
          {
            "astId": 10153,
            "contract": "contracts/test/OmnichainLedgerTestV1.sol:OmnichainLedgerTestV1",
            "label": "requests",
            "offset": 0,
            "slot": "1",
            "type": "t_array(t_struct(VestingRequest)10147_storage)dyn_storage"
          }
        ],
        "numberOfBytes": "64"
      },
      "t_struct(VestingRequest)10147_storage": {
        "encoding": "inplace",
        "label": "struct Vesting.VestingRequest",
        "members": [
          {
            "astId": 10142,
            "contract": "contracts/test/OmnichainLedgerTestV1.sol:OmnichainLedgerTestV1",
            "label": "requestId",
            "offset": 0,
            "slot": "0",
            "type": "t_uint256"
          },
          {
            "astId": 10144,
            "contract": "contracts/test/OmnichainLedgerTestV1.sol:OmnichainLedgerTestV1",
            "label": "esOrderAmount",
            "offset": 0,
            "slot": "1",
            "type": "t_uint256"
          },
          {
            "astId": 10146,
            "contract": "contracts/test/OmnichainLedgerTestV1.sol:OmnichainLedgerTestV1",
            "label": "unlockTimestamp",
            "offset": 0,
            "slot": "2",
            "type": "t_uint256"
          }
        ],
        "numberOfBytes": "96"
      },
      "t_uint16": {
        "encoding": "inplace",
        "label": "uint16",
        "numberOfBytes": "2"
      },
      "t_uint256": {
        "encoding": "inplace",
        "label": "uint256",
        "numberOfBytes": "32"
      },
      "t_uint32": {
        "encoding": "inplace",
        "label": "uint32",
        "numberOfBytes": "4"
      }
    }
  }
}