{
  "address": "0x1B90f60AAfb5047617f45d6c8070123063fa4624",
  "abi": [
    {
      "inputs": [],
      "name": "AccessControlBadConfirmation",
      "type": "error"
    },
    {
      "inputs": [
        {
          "internalType": "address",
          "name": "account",
          "type": "address"
        },
        {
          "internalType": "bytes32",
          "name": "neededRole",
          "type": "bytes32"
        }
      ],
      "name": "AccessControlUnauthorizedAccount",
      "type": "error"
    },
    {
      "inputs": [
        {
          "internalType": "address",
          "name": "target",
          "type": "address"
        }
      ],
      "name": "AddressEmptyCode",
      "type": "error"
    },
    {
      "inputs": [
        {
          "internalType": "address",
          "name": "account",
          "type": "address"
        }
      ],
      "name": "AddressInsufficientBalance",
      "type": "error"
    },
    {
      "inputs": [],
      "name": "AmountIsGreaterThanCollectedValor",
      "type": "error"
    },
    {
      "inputs": [],
      "name": "AmountIsZero",
      "type": "error"
    },
    {
      "inputs": [],
      "name": "BatchIsNotCreatedYet",
      "type": "error"
    },
    {
      "inputs": [],
      "name": "BatchIsNotFinished",
      "type": "error"
    },
    {
      "inputs": [],
      "name": "BatchValorToUsdcRateIsNotFixed",
      "type": "error"
    },
    {
      "inputs": [],
      "name": "CannotUpdateRoot",
      "type": "error"
    },
    {
      "inputs": [
        {
          "internalType": "uint256",
          "name": "amountEsorderDeposited",
          "type": "uint256"
        },
        {
          "internalType": "uint256",
          "name": "amountEsorderRequested",
          "type": "uint256"
        }
      ],
      "name": "DepositNotEnough",
      "type": "error"
    },
    {
      "inputs": [],
      "name": "DistributionAlreadyExists",
      "type": "error"
    },
    {
      "inputs": [],
      "name": "DistributionNotFound",
      "type": "error"
    },
    {
      "inputs": [],
      "name": "ECDSAInvalidSignature",
      "type": "error"
    },
    {
      "inputs": [
        {
          "internalType": "uint256",
          "name": "length",
          "type": "uint256"
        }
      ],
      "name": "ECDSAInvalidSignatureLength",
      "type": "error"
    },
    {
      "inputs": [
        {
          "internalType": "bytes32",
          "name": "s",
          "type": "bytes32"
        }
      ],
      "name": "ECDSAInvalidSignatureS",
      "type": "error"
    },
    {
      "inputs": [
        {
          "internalType": "address",
          "name": "implementation",
          "type": "address"
        }
      ],
      "name": "ERC1967InvalidImplementation",
      "type": "error"
    },
    {
      "inputs": [],
      "name": "ERC1967NonPayable",
      "type": "error"
    },
    {
      "inputs": [],
      "name": "EnforcedPause",
      "type": "error"
    },
    {
      "inputs": [],
      "name": "ExpectedPause",
      "type": "error"
    },
    {
      "inputs": [],
      "name": "FailedInnerCall",
      "type": "error"
    },
    {
      "inputs": [],
      "name": "InvalidInitialization",
      "type": "error"
    },
    {
      "inputs": [],
      "name": "InvalidMerkleProof",
      "type": "error"
    },
    {
      "inputs": [],
      "name": "InvalidSignature",
      "type": "error"
    },
    {
      "inputs": [],
      "name": "NoActiveMerkleRoot",
      "type": "error"
    },
    {
      "inputs": [],
      "name": "NoPendingUnstakeRequest",
      "type": "error"
    },
    {
      "inputs": [],
      "name": "NotInitializing",
      "type": "error"
    },
    {
      "inputs": [
        {
          "internalType": "address",
          "name": "user",
          "type": "address"
        },
        {
          "internalType": "uint256",
          "name": "chainId",
          "type": "uint256"
        }
      ],
      "name": "NothingToClaim",
      "type": "error"
    },
    {
      "inputs": [],
      "name": "ProposedMerkleRootIsZero",
      "type": "error"
    },
    {
      "inputs": [],
      "name": "RedemptionAmountIsZero",
      "type": "error"
    },
    {
      "inputs": [],
      "name": "ReentrancyGuardReentrantCall",
      "type": "error"
    },
    {
      "inputs": [
        {
          "internalType": "address",
          "name": "token",
          "type": "address"
        }
      ],
      "name": "SafeERC20FailedOperation",
      "type": "error"
    },
    {
      "inputs": [
        {
          "internalType": "enum LedgerToken",
          "name": "token",
          "type": "uint8"
        }
      ],
      "name": "StakingBalanceInsufficient",
      "type": "error"
    },
    {
      "inputs": [],
      "name": "StartTimestampIsInThePast",
      "type": "error"
    },
    {
      "inputs": [],
      "name": "ThisMerkleRootIsAlreadyProposed",
      "type": "error"
    },
    {
      "inputs": [],
      "name": "TokenIsNotSupportedForDistribution",
      "type": "error"
    },
    {
      "inputs": [],
      "name": "TooEarlyUsdcNetFeeRevenueUpdate",
      "type": "error"
    },
    {
      "inputs": [],
      "name": "UUPSUnauthorizedCallContext",
      "type": "error"
    },
    {
      "inputs": [
        {
          "internalType": "bytes32",
          "name": "slot",
          "type": "bytes32"
        }
      ],
      "name": "UUPSUnsupportedProxiableUUID",
      "type": "error"
    },
    {
      "inputs": [],
      "name": "UnlockTimeNotPassedYet",
      "type": "error"
    },
    {
      "inputs": [],
      "name": "UnsupportedPayloadType",
      "type": "error"
    },
    {
      "inputs": [],
      "name": "UnsupportedToken",
      "type": "error"
    },
    {
      "inputs": [
        {
          "internalType": "address",
          "name": "_user",
          "type": "address"
        },
        {
          "internalType": "uint256",
          "name": "_requestId",
          "type": "uint256"
        }
      ],
      "name": "UserDontHaveVestingRequest",
      "type": "error"
    },
    {
      "inputs": [],
      "name": "ValorPerSecondExceedsMaxValue",
      "type": "error"
    },
    {
      "inputs": [],
      "name": "VestingAmountIsZero",
      "type": "error"
    },
    {
      "inputs": [],
      "name": "VestingLinearPeriodIsZero",
      "type": "error"
    },
    {
      "inputs": [],
      "name": "VestingLockPeriodIsZero",
      "type": "error"
    },
    {
      "inputs": [],
      "name": "VestingLockPeriodNotPassed",
      "type": "error"
    },
    {
      "inputs": [],
      "name": "VestingPeriodIsOutOfRange",
      "type": "error"
    },
    {
      "anonymous": false,
      "inputs": [
        {
          "indexed": true,
          "internalType": "uint16",
          "name": "batchId",
          "type": "uint16"
        }
      ],
      "name": "BatchPreparedToClaim",
      "type": "event"
    },
    {
      "anonymous": false,
      "inputs": [
        {
          "indexed": true,
          "internalType": "uint16",
          "name": "batchId",
          "type": "uint16"
        },
        {
          "indexed": false,
          "internalType": "uint256",
          "name": "fixedValorToUsdcRate",
          "type": "uint256"
        }
      ],
      "name": "BatchValorToUsdcRateIsFixed",
      "type": "event"
    },
    {
      "anonymous": false,
      "inputs": [
        {
          "indexed": true,
          "internalType": "uint256",
          "name": "timestamp",
          "type": "uint256"
        },
        {
          "indexed": false,
          "internalType": "uint256",
          "name": "usdcNetFeeRevenue",
          "type": "uint256"
        },
        {
          "indexed": false,
          "internalType": "uint256",
          "name": "totalUsdcInTreasure",
          "type": "uint256"
        },
        {
          "indexed": false,
          "internalType": "uint256",
          "name": "totalValorAmount",
          "type": "uint256"
        },
        {
          "indexed": false,
          "internalType": "uint256",
          "name": "valorToUsdcRateScaled",
          "type": "uint256"
        }
      ],
      "name": "DailyUsdcNetFeeRevenueUpdated",
      "type": "event"
    },
    {
      "anonymous": false,
      "inputs": [
        {
          "indexed": true,
          "internalType": "uint256",
          "name": "eventId",
          "type": "uint256"
        },
        {
          "indexed": true,
          "internalType": "uint32",
          "name": "distributionId",
          "type": "uint32"
        },
        {
          "indexed": false,
          "internalType": "enum LedgerToken",
          "name": "token",
          "type": "uint8"
        },
        {
          "indexed": false,
          "internalType": "bytes32",
          "name": "merkleRoot",
          "type": "bytes32"
        },
        {
          "indexed": false,
          "internalType": "uint256",
          "name": "startTimestamp",
          "type": "uint256"
        },
        {
          "indexed": false,
          "internalType": "bytes",
          "name": "ipfsCid",
          "type": "bytes"
        }
      ],
      "name": "DistributionCreated",
      "type": "event"
    },
    {
      "anonymous": false,
      "inputs": [
        {
          "indexed": true,
          "internalType": "uint256",
          "name": "chainedEventId",
          "type": "uint256"
        },
        {
          "indexed": true,
          "internalType": "uint256",
          "name": "chainId",
          "type": "uint256"
        },
        {
          "indexed": true,
          "internalType": "address",
          "name": "staker",
          "type": "address"
        },
        {
          "indexed": false,
          "internalType": "uint256",
          "name": "amount",
          "type": "uint256"
        }
      ],
      "name": "EsOrderUnstake",
      "type": "event"
    },
    {
      "anonymous": false,
      "inputs": [
        {
          "indexed": false,
          "internalType": "uint64",
          "name": "version",
          "type": "uint64"
        }
      ],
      "name": "Initialized",
      "type": "event"
    },
    {
      "anonymous": false,
      "inputs": [
        {
          "indexed": true,
          "internalType": "address",
          "name": "staker",
          "type": "address"
        },
        {
          "indexed": false,
          "internalType": "uint256",
          "name": "totalUnstakedAmount",
          "type": "uint256"
        },
        {
          "indexed": false,
          "internalType": "uint256",
          "name": "unlockTimestamp",
          "type": "uint256"
        }
      ],
      "name": "OrderUnstakeAmount",
      "type": "event"
    },
    {
      "anonymous": false,
      "inputs": [
        {
          "indexed": true,
          "internalType": "uint256",
          "name": "chainedEventId",
          "type": "uint256"
        },
        {
          "indexed": true,
          "internalType": "uint256",
          "name": "chainId",
          "type": "uint256"
        },
        {
          "indexed": true,
          "internalType": "address",
          "name": "staker",
          "type": "address"
        },
        {
          "indexed": false,
          "internalType": "uint256",
          "name": "pendingOrderAmount",
          "type": "uint256"
        }
      ],
      "name": "OrderUnstakeCancelled",
      "type": "event"
    },
    {
      "anonymous": false,
      "inputs": [
        {
          "indexed": true,
          "internalType": "uint256",
          "name": "chainedEventId",
          "type": "uint256"
        },
        {
          "indexed": true,
          "internalType": "uint256",
          "name": "chainId",
          "type": "uint256"
        },
        {
          "indexed": true,
          "internalType": "address",
          "name": "staker",
          "type": "address"
        },
        {
          "indexed": false,
          "internalType": "uint256",
          "name": "amount",
          "type": "uint256"
        }
      ],
      "name": "OrderUnstakeRequested",
      "type": "event"
    },
    {
      "anonymous": false,
      "inputs": [
        {
          "indexed": true,
          "internalType": "uint256",
          "name": "chainedEventId",
          "type": "uint256"
        },
        {
          "indexed": true,
          "internalType": "uint256",
          "name": "chainId",
          "type": "uint256"
        },
        {
          "indexed": true,
          "internalType": "address",
          "name": "staker",
          "type": "address"
        },
        {
          "indexed": false,
          "internalType": "uint256",
          "name": "amount",
          "type": "uint256"
        }
      ],
      "name": "OrderWithdrawn",
      "type": "event"
    },
    {
      "anonymous": false,
      "inputs": [
        {
          "indexed": false,
          "internalType": "address",
          "name": "account",
          "type": "address"
        }
      ],
      "name": "Paused",
      "type": "event"
    },
    {
      "anonymous": false,
      "inputs": [
        {
          "indexed": true,
          "internalType": "uint256",
          "name": "chainedEventId",
          "type": "uint256"
        },
        {
          "indexed": true,
          "internalType": "uint256",
          "name": "chainId",
          "type": "uint256"
        },
        {
          "indexed": true,
          "internalType": "uint32",
          "name": "distributionId",
          "type": "uint32"
        },
        {
          "indexed": false,
          "internalType": "address",
          "name": "account",
          "type": "address"
        },
        {
          "indexed": false,
          "internalType": "uint256",
          "name": "amount",
          "type": "uint256"
        },
        {
          "indexed": false,
          "internalType": "enum LedgerToken",
          "name": "token",
          "type": "uint8"
        }
      ],
      "name": "RewardsClaimed",
      "type": "event"
    },
    {
      "anonymous": false,
      "inputs": [
        {
          "indexed": true,
          "internalType": "bytes32",
          "name": "role",
          "type": "bytes32"
        },
        {
          "indexed": true,
          "internalType": "bytes32",
          "name": "previousAdminRole",
          "type": "bytes32"
        },
        {
          "indexed": true,
          "internalType": "bytes32",
          "name": "newAdminRole",
          "type": "bytes32"
        }
      ],
      "name": "RoleAdminChanged",
      "type": "event"
    },
    {
      "anonymous": false,
      "inputs": [
        {
          "indexed": true,
          "internalType": "bytes32",
          "name": "role",
          "type": "bytes32"
        },
        {
          "indexed": true,
          "internalType": "address",
          "name": "account",
          "type": "address"
        },
        {
          "indexed": true,
          "internalType": "address",
          "name": "sender",
          "type": "address"
        }
      ],
      "name": "RoleGranted",
      "type": "event"
    },
    {
      "anonymous": false,
      "inputs": [
        {
          "indexed": true,
          "internalType": "bytes32",
          "name": "role",
          "type": "bytes32"
        },
        {
          "indexed": true,
          "internalType": "address",
          "name": "account",
          "type": "address"
        },
        {
          "indexed": true,
          "internalType": "address",
          "name": "sender",
          "type": "address"
        }
      ],
      "name": "RoleRevoked",
      "type": "event"
    },
    {
      "anonymous": false,
      "inputs": [
        {
          "indexed": true,
          "internalType": "uint256",
          "name": "eventId",
          "type": "uint256"
        },
        {
          "indexed": true,
          "internalType": "uint32",
          "name": "distributionId",
          "type": "uint32"
        },
        {
          "indexed": false,
          "internalType": "bytes32",
          "name": "merkleRoot",
          "type": "bytes32"
        },
        {
          "indexed": false,
          "internalType": "uint256",
          "name": "startTimestamp",
          "type": "uint256"
        },
        {
          "indexed": false,
          "internalType": "bytes",
          "name": "ipfsCid",
          "type": "bytes"
        }
      ],
      "name": "RootProposed",
      "type": "event"
    },
    {
      "anonymous": false,
      "inputs": [
        {
          "indexed": true,
          "internalType": "uint256",
          "name": "eventId",
          "type": "uint256"
        },
        {
          "indexed": true,
          "internalType": "uint32",
          "name": "distributionId",
          "type": "uint32"
        },
        {
          "indexed": false,
          "internalType": "bytes32",
          "name": "merkleRoot",
          "type": "bytes32"
        },
        {
          "indexed": false,
          "internalType": "uint256",
          "name": "startTimestamp",
          "type": "uint256"
        },
        {
          "indexed": false,
          "internalType": "bytes",
          "name": "ipfsCid",
          "type": "bytes"
        }
      ],
      "name": "RootUpdated",
      "type": "event"
    },
    {
      "anonymous": false,
      "inputs": [
        {
          "indexed": true,
          "internalType": "uint256",
          "name": "chainedEventId",
          "type": "uint256"
        },
        {
          "indexed": true,
          "internalType": "uint256",
          "name": "chainId",
          "type": "uint256"
        },
        {
          "indexed": true,
          "internalType": "address",
          "name": "staker",
          "type": "address"
        },
        {
          "indexed": false,
          "internalType": "uint256",
          "name": "amount",
          "type": "uint256"
        },
        {
          "indexed": false,
          "internalType": "enum LedgerToken",
          "name": "token",
          "type": "uint8"
        }
      ],
      "name": "Staked",
      "type": "event"
    },
    {
      "anonymous": false,
      "inputs": [
        {
          "indexed": false,
          "internalType": "uint256",
          "name": "totalUsdcInTreasure",
          "type": "uint256"
        },
        {
          "indexed": false,
          "internalType": "uint256",
          "name": "totalValorAmount",
          "type": "uint256"
        },
        {
          "indexed": false,
          "internalType": "uint256",
          "name": "valorToUsdcRateScaled",
          "type": "uint256"
        }
      ],
      "name": "TotalUsdcInTreasureUpdated",
      "type": "event"
    },
    {
      "anonymous": false,
      "inputs": [
        {
          "indexed": false,
          "internalType": "address",
          "name": "account",
          "type": "address"
        }
      ],
      "name": "Unpaused",
      "type": "event"
    },
    {
      "anonymous": false,
      "inputs": [
        {
          "indexed": true,
          "internalType": "address",
          "name": "implementation",
          "type": "address"
        }
      ],
      "name": "Upgraded",
      "type": "event"
    },
    {
      "anonymous": false,
      "inputs": [
        {
          "indexed": true,
          "internalType": "uint256",
          "name": "chainEventId",
          "type": "uint256"
        },
        {
          "indexed": true,
          "internalType": "uint256",
          "name": "chainId",
          "type": "uint256"
        },
        {
          "indexed": true,
          "internalType": "address",
          "name": "user",
          "type": "address"
        },
        {
          "indexed": false,
          "internalType": "uint256",
          "name": "usdcAmount",
          "type": "uint256"
        }
      ],
      "name": "UsdcRevenueClaimed",
      "type": "event"
    },
    {
      "anonymous": false,
      "inputs": [
        {
          "indexed": true,
          "internalType": "uint256",
          "name": "chainEventId",
          "type": "uint256"
        },
        {
          "indexed": true,
          "internalType": "uint256",
          "name": "chainId",
          "type": "uint256"
        },
        {
          "indexed": true,
          "internalType": "address",
          "name": "user",
          "type": "address"
        },
        {
          "indexed": false,
          "internalType": "uint16",
          "name": "batchId",
          "type": "uint16"
        },
        {
          "indexed": false,
          "internalType": "uint256",
          "name": "valorAmount",
          "type": "uint256"
        }
      ],
      "name": "ValorRedeemed",
      "type": "event"
    },
    {
      "anonymous": false,
      "inputs": [
        {
          "indexed": true,
          "internalType": "uint256",
          "name": "chainEventId",
          "type": "uint256"
        },
        {
          "indexed": true,
          "internalType": "uint256",
          "name": "chainId",
          "type": "uint256"
        },
        {
          "indexed": true,
          "internalType": "address",
          "name": "user",
          "type": "address"
        },
        {
          "indexed": false,
          "internalType": "uint256",
          "name": "requestId",
          "type": "uint256"
        },
        {
          "indexed": false,
          "internalType": "uint256",
          "name": "amountEsorderStakedBack",
          "type": "uint256"
        }
      ],
      "name": "VestingCanceled",
      "type": "event"
    },
    {
      "anonymous": false,
      "inputs": [
        {
          "indexed": true,
          "internalType": "uint256",
          "name": "chainEventId",
          "type": "uint256"
        },
        {
          "indexed": true,
          "internalType": "uint256",
          "name": "chainId",
          "type": "uint256"
        },
        {
          "indexed": true,
          "internalType": "address",
          "name": "user",
          "type": "address"
        },
        {
          "indexed": false,
          "internalType": "uint256",
          "name": "requestId",
          "type": "uint256"
        },
        {
          "indexed": false,
          "internalType": "uint256",
          "name": "amountEsorderBurned",
          "type": "uint256"
        },
        {
          "indexed": false,
          "internalType": "uint256",
          "name": "amountOrderVested",
          "type": "uint256"
        },
        {
          "indexed": false,
          "internalType": "uint256",
          "name": "vestedPeriod",
          "type": "uint256"
        }
      ],
      "name": "VestingClaimed",
      "type": "event"
    },
    {
      "anonymous": false,
      "inputs": [
        {
          "indexed": true,
          "internalType": "uint256",
          "name": "chainEventId",
          "type": "uint256"
        },
        {
          "indexed": true,
          "internalType": "uint256",
          "name": "chainId",
          "type": "uint256"
        },
        {
          "indexed": true,
          "internalType": "address",
          "name": "user",
          "type": "address"
        },
        {
          "indexed": false,
          "internalType": "uint256",
          "name": "requestId",
          "type": "uint256"
        },
        {
          "indexed": false,
          "internalType": "uint256",
          "name": "amountEsorderRequested",
          "type": "uint256"
        },
        {
          "indexed": false,
          "internalType": "uint256",
          "name": "unlockTimestamp",
          "type": "uint256"
        }
      ],
      "name": "VestingRequested",
      "type": "event"
    },
    {
      "inputs": [],
      "name": "DEFAULT_ADMIN_ROLE",
      "outputs": [
        {
          "internalType": "bytes32",
          "name": "",
          "type": "bytes32"
        }
      ],
      "stateMutability": "view",
      "type": "function"
    },
    {
      "inputs": [],
      "name": "ROOT_UPDATER_ROLE",
      "outputs": [
        {
          "internalType": "bytes32",
          "name": "",
          "type": "bytes32"
        }
      ],
      "stateMutability": "view",
      "type": "function"
    },
    {
      "inputs": [],
      "name": "TREASURE_UPDATER_ROLE",
      "outputs": [
        {
          "internalType": "bytes32",
          "name": "",
          "type": "bytes32"
        }
      ],
      "stateMutability": "view",
      "type": "function"
    },
    {
      "inputs": [],
      "name": "UPGRADE_INTERFACE_VERSION",
      "outputs": [
        {
          "internalType": "string",
          "name": "",
          "type": "string"
        }
      ],
      "stateMutability": "view",
      "type": "function"
    },
    {
      "inputs": [],
      "name": "VALOR_TO_USDC_RATE_PRECISION",
      "outputs": [
        {
          "internalType": "uint256",
          "name": "",
          "type": "uint256"
        }
      ],
      "stateMutability": "view",
      "type": "function"
    },
    {
      "inputs": [],
      "name": "VERSION",
      "outputs": [
        {
          "internalType": "string",
          "name": "",
          "type": "string"
        }
      ],
      "stateMutability": "pure",
      "type": "function"
    },
    {
      "inputs": [],
      "name": "accValorPerShareScaled",
      "outputs": [
        {
          "internalType": "uint256",
          "name": "",
          "type": "uint256"
        }
      ],
      "stateMutability": "view",
      "type": "function"
    },
    {
      "inputs": [],
      "name": "batchDuration",
      "outputs": [
        {
          "internalType": "uint256",
          "name": "",
          "type": "uint256"
        }
      ],
      "stateMutability": "view",
      "type": "function"
    },
    {
      "inputs": [
        {
          "internalType": "uint16",
          "name": "_batchId",
          "type": "uint16"
        }
      ],
      "name": "batchPreparedToClaim",
      "outputs": [],
      "stateMutability": "nonpayable",
      "type": "function"
    },
    {
      "inputs": [
        {
          "internalType": "uint256",
          "name": "",
          "type": "uint256"
        }
      ],
      "name": "batches",
      "outputs": [
        {
          "internalType": "bool",
          "name": "claimable",
          "type": "bool"
        },
        {
          "internalType": "uint256",
          "name": "redeemedValorAmount",
          "type": "uint256"
        },
        {
          "internalType": "uint256",
          "name": "fixedValorToUsdcRateScaled",
          "type": "uint256"
        }
      ],
      "stateMutability": "view",
      "type": "function"
    },
    {
      "inputs": [
        {
          "internalType": "address",
          "name": "_user",
          "type": "address"
        },
        {
          "internalType": "uint256",
          "name": "_requestId",
          "type": "uint256"
        }
      ],
      "name": "calculateVestingOrderAmount",
      "outputs": [
        {
          "internalType": "uint256",
          "name": "",
          "type": "uint256"
        }
      ],
      "stateMutability": "view",
      "type": "function"
    },
    {
      "inputs": [
        {
          "internalType": "uint32",
          "name": "_distributionId",
          "type": "uint32"
        }
      ],
      "name": "canUpdateRoot",
      "outputs": [
        {
          "internalType": "bool",
          "name": "",
          "type": "bool"
        }
      ],
      "stateMutability": "view",
      "type": "function"
    },
    {
      "inputs": [
        {
          "internalType": "address",
          "name": "",
          "type": "address"
        }
      ],
      "name": "collectedValor",
      "outputs": [
        {
          "internalType": "uint256",
          "name": "",
          "type": "uint256"
        }
      ],
      "stateMutability": "view",
      "type": "function"
    },
    {
      "inputs": [
        {
          "internalType": "uint32",
          "name": "_distributionId",
          "type": "uint32"
        },
        {
          "internalType": "enum LedgerToken",
          "name": "_token",
          "type": "uint8"
        },
        {
          "internalType": "bytes32",
          "name": "_merkleRoot",
          "type": "bytes32"
        },
        {
          "internalType": "uint256",
          "name": "_startTimestamp",
          "type": "uint256"
        },
        {
          "internalType": "bytes",
          "name": "_ipfsCid",
          "type": "bytes"
        }
      ],
      "name": "createDistribution",
      "outputs": [],
      "stateMutability": "nonpayable",
      "type": "function"
    },
    {
      "inputs": [
        {
          "components": [
            {
              "internalType": "bytes32",
              "name": "r",
              "type": "bytes32"
            },
            {
              "internalType": "bytes32",
              "name": "s",
              "type": "bytes32"
            },
            {
              "internalType": "uint8",
              "name": "v",
              "type": "uint8"
            },
            {
              "internalType": "uint256",
              "name": "value",
              "type": "uint256"
            }
          ],
          "internalType": "struct LedgerSignedTypes.UintValueData",
          "name": "data",
          "type": "tuple"
        }
      ],
      "name": "dailyUsdcNetFeeRevenue",
      "outputs": [],
      "stateMutability": "nonpayable",
      "type": "function"
    },
    {
      "inputs": [
        {
          "internalType": "uint16",
          "name": "_batchId",
          "type": "uint16"
        }
      ],
      "name": "fixBatchValorToUsdcRate",
      "outputs": [
        {
          "internalType": "uint256",
          "name": "",
          "type": "uint256"
        }
      ],
      "stateMutability": "nonpayable",
      "type": "function"
    },
    {
      "inputs": [
        {
          "internalType": "uint16",
          "name": "_batchId",
          "type": "uint16"
        }
      ],
      "name": "getBatchChainedValorAmount",
      "outputs": [
        {
          "components": [
            {
              "internalType": "uint256",
              "name": "chainId",
              "type": "uint256"
            },
            {
              "internalType": "uint256",
              "name": "amount",
              "type": "uint256"
            }
          ],
          "internalType": "struct Revenue.ChainedAmount[]",
          "name": "",
          "type": "tuple[]"
        }
      ],
      "stateMutability": "view",
      "type": "function"
    },
    {
      "inputs": [
        {
          "internalType": "uint16",
          "name": "_batchId",
          "type": "uint16"
        }
      ],
      "name": "getBatchInfo",
      "outputs": [
        {
          "internalType": "uint256",
          "name": "batchStartTime",
          "type": "uint256"
        },
        {
          "internalType": "uint256",
          "name": "batchEndTime",
          "type": "uint256"
        },
        {
          "internalType": "bool",
          "name": "claimable",
          "type": "bool"
        },
        {
          "internalType": "uint256",
          "name": "redeemedValorAmount",
          "type": "uint256"
        },
        {
          "internalType": "uint256",
          "name": "fixedValorToUsdcRateScaled",
          "type": "uint256"
        }
      ],
      "stateMutability": "view",
      "type": "function"
    },
    {
      "inputs": [
        {
          "internalType": "uint32",
          "name": "_distributionId",
          "type": "uint32"
        },
        {
          "internalType": "address",
          "name": "_user",
          "type": "address"
        }
      ],
      "name": "getClaimed",
      "outputs": [
        {
          "internalType": "uint256",
          "name": "",
          "type": "uint256"
        }
      ],
      "stateMutability": "view",
      "type": "function"
    },
    {
      "inputs": [],
      "name": "getCurrentBatchId",
      "outputs": [
        {
          "internalType": "uint16",
          "name": "",
          "type": "uint16"
        }
      ],
      "stateMutability": "view",
      "type": "function"
    },
    {
      "inputs": [
        {
          "internalType": "uint32",
          "name": "_distributionId",
          "type": "uint32"
        }
      ],
      "name": "getDistribution",
      "outputs": [
        {
          "internalType": "enum LedgerToken",
          "name": "token",
          "type": "uint8"
        },
        {
          "internalType": "bytes32",
          "name": "merkleRoot",
          "type": "bytes32"
        },
        {
          "internalType": "uint256",
          "name": "startTimestamp",
          "type": "uint256"
        },
        {
          "internalType": "bytes",
          "name": "ipfsCid",
          "type": "bytes"
        }
      ],
      "stateMutability": "view",
      "type": "function"
    },
    {
      "inputs": [
        {
          "internalType": "address",
          "name": "_user",
          "type": "address"
        }
      ],
      "name": "getOrderAvailableToWithdraw",
      "outputs": [
        {
          "internalType": "uint256",
          "name": "orderAmount",
          "type": "uint256"
        }
      ],
      "stateMutability": "view",
      "type": "function"
    },
    {
      "inputs": [
        {
          "internalType": "uint32",
          "name": "_distributionId",
          "type": "uint32"
        }
      ],
      "name": "getProposedRoot",
      "outputs": [
        {
          "internalType": "bytes32",
          "name": "merkleRoot",
          "type": "bytes32"
        },
        {
          "internalType": "uint256",
          "name": "startTimestamp",
          "type": "uint256"
        },
        {
          "internalType": "bytes",
          "name": "ipfsCid",
          "type": "bytes"
        }
      ],
      "stateMutability": "view",
      "type": "function"
    },
    {
      "inputs": [
        {
          "internalType": "bytes32",
          "name": "role",
          "type": "bytes32"
        }
      ],
      "name": "getRoleAdmin",
      "outputs": [
        {
          "internalType": "bytes32",
          "name": "",
          "type": "bytes32"
        }
      ],
      "stateMutability": "view",
      "type": "function"
    },
    {
      "inputs": [
        {
          "internalType": "address",
          "name": "_user",
          "type": "address"
        }
      ],
      "name": "getStakingInfo",
      "outputs": [
        {
          "internalType": "uint256",
          "name": "orderBalance",
          "type": "uint256"
        },
        {
          "internalType": "uint256",
          "name": "esOrderBalance",
          "type": "uint256"
        }
      ],
      "stateMutability": "view",
      "type": "function"
    },
    {
      "inputs": [
        {
          "internalType": "uint16",
          "name": "_batchId",
          "type": "uint16"
        }
      ],
      "name": "getUsdcAmountForBatch",
      "outputs": [
        {
          "components": [
            {
              "internalType": "uint256",
              "name": "chainId",
              "type": "uint256"
            },
            {
              "internalType": "uint256",
              "name": "amount",
              "type": "uint256"
            }
          ],
          "internalType": "struct Revenue.ChainedAmount[]",
          "name": "chainedUsdcAmount",
          "type": "tuple[]"
        }
      ],
      "stateMutability": "view",
      "type": "function"
    },
    {
      "inputs": [
        {
          "internalType": "address",
          "name": "_user",
          "type": "address"
        },
        {
          "internalType": "uint16",
          "name": "_batchId",
          "type": "uint16"
        },
        {
          "internalType": "uint256",
          "name": "_chainId",
          "type": "uint256"
        }
      ],
      "name": "getUserRedeemedValorAmountForBatchAndChain",
      "outputs": [
        {
          "internalType": "uint256",
          "name": "",
          "type": "uint256"
        }
      ],
      "stateMutability": "view",
      "type": "function"
    },
    {
      "inputs": [
        {
          "internalType": "address",
          "name": "_user",
          "type": "address"
        }
      ],
      "name": "getUserValor",
      "outputs": [
        {
          "internalType": "uint256",
          "name": "",
          "type": "uint256"
        }
      ],
      "stateMutability": "view",
      "type": "function"
    },
    {
      "inputs": [
        {
          "internalType": "address",
          "name": "_user",
          "type": "address"
        }
      ],
      "name": "getUserVestingRequests",
      "outputs": [
        {
          "components": [
            {
              "internalType": "uint256",
              "name": "requestId",
              "type": "uint256"
            },
            {
              "internalType": "uint256",
              "name": "esOrderAmount",
              "type": "uint256"
            },
            {
              "internalType": "uint256",
              "name": "unlockTimestamp",
              "type": "uint256"
            }
          ],
          "internalType": "struct Vesting.VestingRequest[]",
          "name": "",
          "type": "tuple[]"
        }
      ],
      "stateMutability": "view",
      "type": "function"
    },
    {
      "inputs": [
        {
          "internalType": "bytes32",
          "name": "role",
          "type": "bytes32"
        },
        {
          "internalType": "address",
          "name": "account",
          "type": "address"
        }
      ],
      "name": "grantRole",
      "outputs": [],
      "stateMutability": "nonpayable",
      "type": "function"
    },
    {
      "inputs": [
        {
          "internalType": "uint32",
          "name": "_distributionId",
          "type": "uint32"
        }
      ],
      "name": "hasPendingRoot",
      "outputs": [
        {
          "internalType": "bool",
          "name": "",
          "type": "bool"
        }
      ],
      "stateMutability": "view",
      "type": "function"
    },
    {
      "inputs": [
        {
          "internalType": "bytes32",
          "name": "role",
          "type": "bytes32"
        },
        {
          "internalType": "address",
          "name": "account",
          "type": "address"
        }
      ],
      "name": "hasRole",
      "outputs": [
        {
          "internalType": "bool",
          "name": "",
          "type": "bool"
        }
      ],
      "stateMutability": "view",
      "type": "function"
    },
    {
      "inputs": [
        {
          "internalType": "address",
          "name": "_owner",
          "type": "address"
        },
        {
          "internalType": "address",
          "name": "_occAdaptor",
          "type": "address"
        },
        {
          "internalType": "address",
          "name": "_orderCollector",
          "type": "address"
        },
        {
          "internalType": "contract IOFT",
          "name": "_orderTokenOft",
          "type": "address"
        },
        {
          "internalType": "uint256",
          "name": "_valorPerSecond",
          "type": "uint256"
        },
        {
          "internalType": "uint256",
          "name": "_maximumValorEmission",
          "type": "uint256"
        }
      ],
      "name": "initialize",
      "outputs": [],
      "stateMutability": "nonpayable",
      "type": "function"
    },
    {
      "inputs": [
        {
          "internalType": "uint32",
          "name": "_distributionId",
          "type": "uint32"
        }
      ],
      "name": "isDistributionRecordBased",
      "outputs": [
        {
          "internalType": "bool",
          "name": "",
          "type": "bool"
        }
      ],
      "stateMutability": "view",
      "type": "function"
    },
    {
      "inputs": [],
      "name": "lastUsdcNetFeeRevenueUpdateTimestamp",
      "outputs": [
        {
          "internalType": "uint256",
          "name": "",
          "type": "uint256"
        }
      ],
      "stateMutability": "view",
      "type": "function"
    },
    {
      "inputs": [],
      "name": "lastValorUpdateTimestamp",
      "outputs": [
        {
          "internalType": "uint256",
          "name": "",
          "type": "uint256"
        }
      ],
      "stateMutability": "view",
      "type": "function"
    },
    {
      "inputs": [
        {
          "components": [
            {
              "internalType": "uint256",
              "name": "srcChainId",
              "type": "uint256"
            },
            {
              "internalType": "enum LedgerToken",
              "name": "token",
              "type": "uint8"
            },
            {
              "internalType": "uint256",
              "name": "tokenAmount",
              "type": "uint256"
            },
            {
              "internalType": "address",
              "name": "sender",
              "type": "address"
            },
            {
              "internalType": "uint8",
              "name": "payloadType",
              "type": "uint8"
            },
            {
              "internalType": "bytes",
              "name": "payload",
              "type": "bytes"
            }
          ],
          "internalType": "struct OCCVaultMessage",
          "name": "message",
          "type": "tuple"
        }
      ],
      "name": "ledgerRecvFromVault",
      "outputs": [],
      "stateMutability": "nonpayable",
      "type": "function"
    },
    {
      "inputs": [],
      "name": "maximumValorEmission",
      "outputs": [
        {
          "internalType": "uint256",
          "name": "",
          "type": "uint256"
        }
      ],
      "stateMutability": "view",
      "type": "function"
    },
    {
      "inputs": [],
      "name": "occAdaptor",
      "outputs": [
        {
          "internalType": "address",
          "name": "",
          "type": "address"
        }
      ],
      "stateMutability": "view",
      "type": "function"
    },
    {
      "inputs": [],
      "name": "orderCollector",
      "outputs": [
        {
          "internalType": "address",
          "name": "",
          "type": "address"
        }
      ],
      "stateMutability": "view",
      "type": "function"
    },
    {
      "inputs": [],
      "name": "orderTokenOft",
      "outputs": [
        {
          "internalType": "address",
          "name": "",
          "type": "address"
        }
      ],
      "stateMutability": "view",
      "type": "function"
    },
    {
      "inputs": [],
      "name": "pause",
      "outputs": [],
      "stateMutability": "nonpayable",
      "type": "function"
    },
    {
      "inputs": [],
      "name": "paused",
      "outputs": [
        {
          "internalType": "bool",
          "name": "",
          "type": "bool"
        }
      ],
      "stateMutability": "view",
      "type": "function"
    },
    {
      "inputs": [
        {
          "internalType": "uint32",
          "name": "_distributionId",
          "type": "uint32"
        },
        {
          "internalType": "bytes32",
          "name": "_merkleRoot",
          "type": "bytes32"
        },
        {
          "internalType": "uint256",
          "name": "_startTimestamp",
          "type": "uint256"
        },
        {
          "internalType": "bytes",
          "name": "_ipfsCid",
          "type": "bytes"
        }
      ],
      "name": "proposeRoot",
      "outputs": [],
      "stateMutability": "nonpayable",
      "type": "function"
    },
    {
      "inputs": [],
      "name": "proxiableUUID",
      "outputs": [
        {
          "internalType": "bytes32",
          "name": "",
          "type": "bytes32"
        }
      ],
      "stateMutability": "view",
      "type": "function"
    },
    {
      "inputs": [
        {
          "internalType": "bytes32",
          "name": "role",
          "type": "bytes32"
        },
        {
          "internalType": "address",
          "name": "callerConfirmation",
          "type": "address"
        }
      ],
      "name": "renounceRole",
      "outputs": [],
      "stateMutability": "nonpayable",
      "type": "function"
    },
    {
      "inputs": [
        {
          "internalType": "bytes32",
          "name": "role",
          "type": "bytes32"
        },
        {
          "internalType": "address",
          "name": "account",
          "type": "address"
        }
      ],
      "name": "revokeRole",
      "outputs": [],
      "stateMutability": "nonpayable",
      "type": "function"
    },
    {
      "inputs": [
        {
          "internalType": "uint256",
          "name": "_batchDuration",
          "type": "uint256"
        }
      ],
      "name": "setBatchDuration",
      "outputs": [],
      "stateMutability": "nonpayable",
      "type": "function"
    },
    {
      "inputs": [
        {
          "internalType": "address",
          "name": "_occAdaptor",
          "type": "address"
        }
      ],
      "name": "setOccAdaptor",
      "outputs": [],
      "stateMutability": "nonpayable",
      "type": "function"
    },
    {
      "inputs": [
        {
          "internalType": "address",
          "name": "_orderCollector",
          "type": "address"
        }
      ],
      "name": "setOrderCollector",
      "outputs": [],
      "stateMutability": "nonpayable",
      "type": "function"
    },
    {
      "inputs": [
        {
          "internalType": "contract IOFT",
          "name": "_orderTokenOft",
          "type": "address"
        }
      ],
      "name": "setOrderTokenOft",
      "outputs": [],
      "stateMutability": "nonpayable",
      "type": "function"
    },
    {
      "inputs": [
        {
          "internalType": "uint256",
          "name": "_totalUsdcInTreasure",
          "type": "uint256"
        }
      ],
      "name": "setTotalUsdcInTreasure",
      "outputs": [],
      "stateMutability": "nonpayable",
      "type": "function"
    },
    {
      "inputs": [
        {
          "internalType": "uint256",
          "name": "_unstakeLockPeriod",
          "type": "uint256"
        }
      ],
      "name": "setUnstakeLockPeriod",
      "outputs": [],
      "stateMutability": "nonpayable",
      "type": "function"
    },
    {
      "inputs": [
        {
          "internalType": "address",
          "name": "_usdcUpdaterAddress",
          "type": "address"
        }
      ],
      "name": "setUsdcUpdaterAddress",
      "outputs": [],
      "stateMutability": "nonpayable",
      "type": "function"
    },
    {
      "inputs": [
        {
          "internalType": "uint256",
          "name": "_valorPerSecond",
          "type": "uint256"
        }
      ],
      "name": "setValorPerSecond",
      "outputs": [],
      "stateMutability": "nonpayable",
      "type": "function"
    },
    {
      "inputs": [
        {
          "internalType": "uint256",
          "name": "_vestingLinearPeriod",
          "type": "uint256"
        }
      ],
      "name": "setVestingLinearPeriod",
      "outputs": [],
      "stateMutability": "nonpayable",
      "type": "function"
    },
    {
      "inputs": [
        {
          "internalType": "uint256",
          "name": "_vestingLockPeriod",
          "type": "uint256"
        }
      ],
      "name": "setVestingLockPeriod",
      "outputs": [],
      "stateMutability": "nonpayable",
      "type": "function"
    },
    {
      "inputs": [
        {
          "internalType": "uint256",
          "name": "",
          "type": "uint256"
        }
      ],
      "name": "srcChainIdToEventId",
      "outputs": [
        {
          "internalType": "uint256",
          "name": "",
          "type": "uint256"
        }
      ],
      "stateMutability": "view",
      "type": "function"
    },
    {
      "inputs": [],
      "name": "startTimestamp",
      "outputs": [
        {
          "internalType": "uint256",
          "name": "",
          "type": "uint256"
        }
      ],
      "stateMutability": "view",
      "type": "function"
    },
    {
      "inputs": [
        {
          "internalType": "bytes4",
          "name": "interfaceId",
          "type": "bytes4"
        }
      ],
      "name": "supportsInterface",
      "outputs": [
        {
          "internalType": "bool",
          "name": "",
          "type": "bool"
        }
      ],
      "stateMutability": "view",
      "type": "function"
    },
    {
      "inputs": [],
      "name": "totalStakedAmount",
      "outputs": [
        {
          "internalType": "uint256",
          "name": "",
          "type": "uint256"
        }
      ],
      "stateMutability": "view",
      "type": "function"
    },
    {
      "inputs": [],
      "name": "totalUsdcInTreasure",
      "outputs": [
        {
          "internalType": "uint256",
          "name": "",
          "type": "uint256"
        }
      ],
      "stateMutability": "view",
      "type": "function"
    },
    {
      "inputs": [],
      "name": "totalValorAmount",
      "outputs": [
        {
          "internalType": "uint256",
          "name": "",
          "type": "uint256"
        }
      ],
      "stateMutability": "view",
      "type": "function"
    },
    {
      "inputs": [],
      "name": "totalValorEmitted",
      "outputs": [
        {
          "internalType": "uint256",
          "name": "",
          "type": "uint256"
        }
      ],
      "stateMutability": "view",
      "type": "function"
    },
    {
      "inputs": [],
      "name": "unpause",
      "outputs": [],
      "stateMutability": "nonpayable",
      "type": "function"
    },
    {
      "inputs": [],
      "name": "unstakeLockPeriod",
      "outputs": [
        {
          "internalType": "uint256",
          "name": "",
          "type": "uint256"
        }
      ],
      "stateMutability": "view",
      "type": "function"
    },
    {
      "inputs": [
        {
          "internalType": "uint32",
          "name": "_distributionId",
          "type": "uint32"
        }
      ],
      "name": "updateRoot",
      "outputs": [],
      "stateMutability": "nonpayable",
      "type": "function"
    },
    {
      "inputs": [],
      "name": "updateValorVars",
      "outputs": [],
      "stateMutability": "nonpayable",
      "type": "function"
    },
    {
      "inputs": [
        {
          "internalType": "address",
          "name": "newImplementation",
          "type": "address"
        },
        {
          "internalType": "bytes",
          "name": "data",
          "type": "bytes"
        }
      ],
      "name": "upgradeToAndCall",
      "outputs": [],
      "stateMutability": "payable",
      "type": "function"
    },
    {
      "inputs": [],
      "name": "usdcUpdaterAddress",
      "outputs": [
        {
          "internalType": "address",
          "name": "",
          "type": "address"
        }
      ],
      "stateMutability": "view",
      "type": "function"
    },
    {
      "inputs": [
        {
          "internalType": "address",
          "name": "",
          "type": "address"
        }
      ],
      "name": "userPendingUnstake",
      "outputs": [
        {
          "internalType": "uint256",
          "name": "balanceOrder",
          "type": "uint256"
        },
        {
          "internalType": "uint256",
          "name": "unlockTimestamp",
          "type": "uint256"
        }
      ],
      "stateMutability": "view",
      "type": "function"
    },
    {
      "inputs": [
        {
          "internalType": "address",
          "name": "_user",
          "type": "address"
        }
      ],
      "name": "userTotalStakingBalance",
      "outputs": [
        {
          "internalType": "uint256",
          "name": "",
          "type": "uint256"
        }
      ],
      "stateMutability": "view",
      "type": "function"
    },
    {
      "inputs": [],
      "name": "valorPerSecond",
      "outputs": [
        {
          "internalType": "uint256",
          "name": "",
          "type": "uint256"
        }
      ],
      "stateMutability": "view",
      "type": "function"
    },
    {
      "inputs": [],
      "name": "valorToUsdcRateScaled",
      "outputs": [
        {
          "internalType": "uint256",
          "name": "",
          "type": "uint256"
        }
      ],
      "stateMutability": "view",
      "type": "function"
    },
    {
      "inputs": [],
      "name": "vestingLinearPeriod",
      "outputs": [
        {
          "internalType": "uint256",
          "name": "",
          "type": "uint256"
        }
      ],
      "stateMutability": "view",
      "type": "function"
    },
    {
      "inputs": [],
      "name": "vestingLockPeriod",
      "outputs": [
        {
          "internalType": "uint256",
          "name": "",
          "type": "uint256"
        }
      ],
      "stateMutability": "view",
      "type": "function"
    }
  ],
  "transactionHash": "0x2d4d47dc7fdba5dc201315cb206282f3776d33f5035da487496f86550a2f59cf",
  "args": [],
  "numDeployments": 1,
  "solcInputHash": "ca7249f01732b3b97bbe830e5d676380",
  "bytecode": "0x60a06040523060805234801561001457600080fd5b50608051615f516200003f600039600081816132d6015281816132ff01526134430152615f516000f3fe6080604052600436106104475760003560e01c80638456cb5911610234578063b58bccc41161012e578063dccfd38d116100b6578063e7cd7dda1161007a578063e7cd7dda14610dee578063ec81bf9314610e0e578063f5a634ef14610e24578063f9d60e2114610e44578063ffa1ad7414610e6457600080fd5b8063dccfd38d14610d5a578063e0d519db14610d70578063e6fd48bc14610d90578063e720ac8e14610da6578063e7bacc3014610dce57600080fd5b8063d0c01ccd116100fd578063d0c01ccd14610cc2578063d547741f14610ce2578063d7c41c7914610d02578063d84aaaff14610d22578063d9ab2c5c14610d3857600080fd5b8063b58bccc414610c54578063b62a7d8014610c74578063caefe41314610c8a578063ccd4cf1214610cac57600080fd5b80639d91c0e7116101bc578063ab7b18be11610180578063ab7b18be14610b73578063ad3cb1cc14610b89578063b15fb23914610bc7578063b2077fe814610be7578063b32c4d8d14610c1757600080fd5b80639d91c0e714610a97578063a0cd44c314610ab7578063a217fddf14610b00578063a2c7d9ae14610b15578063aa4704f314610b3557600080fd5b8063909d190911610203578063909d190914610a1557806391d1485414610a2b5780639340121614610a4b5780639aefd88614610a6b5780639c9563a214610a8157600080fd5b80638456cb5914610993578063892735ed146109a85780638e9a2dd2146109c857806390999c4f146109e857600080fd5b8063512bb36511610345578063628a794d116102cd57806373250c081161029157806373250c08146108e857806374ae2e2e146108fe5780637d143b521461091e5780638015647f1461095357806380213de71461097357600080fd5b8063628a794d1461084857806364f4463c146108685780636b1f8c0d146108885780636d0ef8d4146108a85780636dd373ed146108c857600080fd5b8063567e98f911610314578063567e98f9146107b75780635b97527f146107cd5780635c975abb146107ed5780635dc5e052146108125780635e4db8851461082857600080fd5b8063512bb3651461074257806352580b5a1461076257806352d1902d14610782578063562a54f81461079757600080fd5b806336568abe116103d3578063443c962311610397578063443c96231461065957806349c99b72146106915780634d1d882a146106b15780634f1ef286146106e05780634f60032e146106f357600080fd5b806336568abe146105cf5780633cef26ec146105ef5780633f4ba83a1461060f5780633f93d26114610624578063415a483f1461064457600080fd5b806328a9fdec1161041a57806328a9fdec146104f257806328bcd70e1461053d5780632c3a2e97146105535780632f2ff15d1461058057806330b667a6146105a257600080fd5b806301ffc9a71461044c5780630877bc8514610481578063248a9ca3146104ae57806326bf1c03146104dc575b600080fd5b34801561045857600080fd5b5061046c61046736600461506c565b610e92565b60405190151581526020015b60405180910390f35b34801561048d57600080fd5b506104a161049c3660046150ad565b610ec9565b60405161047891906150c8565b3480156104ba57600080fd5b506104ce6104c9366004615117565b610f48565b604051908152602001610478565b3480156104e857600080fd5b506104ce60125481565b3480156104fe57600080fd5b506104ce61050d366004615157565b63ffffffff821660009081526003602090815260408083206001600160a01b038516845290915290205492915050565b34801561054957600080fd5b506104ce60095481565b34801561055f57600080fd5b5061057361056e366004615190565b610f6a565b60405161047891906151ad565b34801561058c57600080fd5b506105a061059b3660046151f9565b610ff5565b005b3480156105ae57600080fd5b506104ce6105bd366004615190565b600b6020526000908152604090205481565b3480156105db57600080fd5b506105a06105ea3660046151f9565b611017565b3480156105fb57600080fd5b506104ce61060a36600461521e565b61104f565b34801561061b57600080fd5b506105a061108c565b34801561063057600080fd5b506105a061063f366004615369565b6110a2565b34801561065057600080fd5b506105a061138d565b34801561066557600080fd5b50601b54610679906001600160a01b031681565b6040516001600160a01b039091168152602001610478565b34801561069d57600080fd5b506105a06106ac366004615190565b6113b1565b3480156106bd57600080fd5b506106d16106cc36600461541e565b6113df565b6040516104789392919061548b565b6105a06106ee3660046154aa565b6114a4565b3480156106ff57600080fd5b5061071361070e3660046150ad565b6114bf565b604051610478959493929190948552602085019390935290151560408401526060830152608082015260a00190565b34801561074e57600080fd5b50601a54610679906001600160a01b031681565b34801561076e57600080fd5b506104ce61077d366004615190565b611545565b34801561078e57600080fd5b506104ce611586565b3480156107a357600080fd5b506105a06107b2366004615190565b6115a3565b3480156107c357600080fd5b506104ce600f5481565b3480156107d957600080fd5b506105a06107e83660046150ad565b6115d1565b3480156107f957600080fd5b50600080516020615edc8339815191525460ff1661046c565b34801561081e57600080fd5b506104ce60075481565b34801561083457600080fd5b506105a06108433660046154f9565b6116e7565b34801561085457600080fd5b50601c54610679906001600160a01b031681565b34801561087457600080fd5b506104ce610883366004615190565b6117db565b34801561089457600080fd5b5061046c6108a336600461541e565b611807565b3480156108b457600080fd5b506105a06108c3366004615117565b601255565b3480156108d457600080fd5b506105a06108e3366004615190565b611845565b3480156108f457600080fd5b506104ce600a5481565b34801561090a57600080fd5b506104a16109193660046150ad565b611873565b34801561092a57600080fd5b5061046c61093936600461541e565b63ffffffff16600090815260026020526040902054151590565b34801561095f57600080fd5b506105a061096e366004615117565b61193b565b34801561097f57600080fd5b506105a061098e366004615117565b601855565b34801561099f57600080fd5b506105a061194c565b3480156109b457600080fd5b5061046c6109c336600461541e565b61195f565b3480156109d457600080fd5b506105a06109e3366004615553565b611994565b3480156109f457600080fd5b506104ce610a03366004615117565b60006020819052908152604090205481565b348015610a2157600080fd5b506104ce60045481565b348015610a3757600080fd5b5061046c610a463660046151f9565b6119cf565b348015610a5757600080fd5b506105a0610a663660046155bc565b611a07565b348015610a7757600080fd5b506104ce60195481565b348015610a8d57600080fd5b506104ce60165481565b348015610aa357600080fd5b506105a0610ab2366004615117565b611bd8565b348015610ac357600080fd5b50610aeb610ad2366004615190565b600e602052600090815260409020805460019091015482565b60408051928352602083019190915201610478565b348015610b0c57600080fd5b506104ce600081565b348015610b2157600080fd5b506104ce610b30366004615190565b611c48565b348015610b4157600080fd5b50610aeb610b50366004615190565b6001600160a01b03166000908152600d6020526040902080546001909101549091565b348015610b7f57600080fd5b506104ce60105481565b348015610b9557600080fd5b50610bba604051806040016040528060058152602001640352e302e360dc1b81525081565b6040516104789190615635565b348015610bd357600080fd5b506104ce610be2366004615648565b611c71565b348015610bf357600080fd5b50610c07610c0236600461541e565b611e22565b60405161047894939291906156be565b348015610c2357600080fd5b50610c37610c32366004615117565b611fce565b604080519315158452602084019290925290820152606001610478565b348015610c6057600080fd5b506105a0610c6f366004615117565b601655565b348015610c8057600080fd5b506104ce60185481565b348015610c9657600080fd5b506104ce600080516020615efc83398151915281565b348015610cb857600080fd5b506104ce60115481565b348015610cce57600080fd5b506104ce6b033b2e3c9fd0803ce800000081565b348015610cee57600080fd5b506105a0610cfd3660046151f9565b612005565b348015610d0e57600080fd5b506105a0610d1d3660046156ea565b612021565b348015610d2e57600080fd5b506104ce60055481565b348015610d4457600080fd5b506104ce600080516020615e7c83398151915281565b348015610d6657600080fd5b506104ce60065481565b348015610d7c57600080fd5b506105a0610d8b366004615190565b6121a5565b348015610d9c57600080fd5b506104ce60145481565b348015610db257600080fd5b50610dbb6121d3565b60405161ffff9091168152602001610478565b348015610dda57600080fd5b506105a0610de936600461541e565b61220a565b348015610dfa57600080fd5b506105a0610e09366004615117565b601955565b348015610e1a57600080fd5b506104ce60085481565b348015610e3057600080fd5b50600c54610679906001600160a01b031681565b348015610e5057600080fd5b506104ce610e5f3660046150ad565b612323565b348015610e7057600080fd5b506040805180820190915260058152640312e302e360dc1b6020820152610bba565b60006001600160e01b03198216637965db0b60e01b1480610ec357506301ffc9a760e01b6001600160e01b03198316145b92915050565b6060610ed4826123cf565b600301805480602002602001604051908101604052809291908181526020016000905b82821015610f3d57838290600052602060002090600202016040518060400160405290816000820154815260200160018201548152505081526020019060010190610ef7565b505050509050919050565b6000908152600080516020615ebc833981519152602052604090206001015490565b6001600160a01b0381166000908152601760209081526040808320600101805482518185028101850190935280835260609492939192909184015b82821015610f3d5783829060005260206000209060030201604051806060016040529081600082015481526020016001820154815260200160028201548152505081526020019060010190610fa5565b610ffe82610f48565b61100781612424565b611011838361242e565b50505050565b6001600160a01b03811633146110405760405163334bd91960e11b815260040160405180910390fd5b61104a82826124d3565b505050565b600061108561105e848461254f565b60408051606081018252825481526001830154602082015260029092015490820152612634565b9392505050565b600061109781612424565b61109f6126c0565b50565b601b546001600160a01b031633146110f25760405162461bcd60e51b815260206004820152600e60248201526d27b7363ca7a1a1a0b230b83a37b960911b60448201526064015b60405180910390fd5b608081015160ff1661113b5760008160a001518060200190518101906111189190615758565b8051606084015184516020840151604085015194955061113794612720565b5050565b600160ff16816080015160ff16036111695761109f8160600151826000015183602001518460400151612839565b600260ff16816080015160ff16036111aa5760008160a001518060200190518101906111959190615888565b6060830151835182519293506111379261298c565b600360ff16816080015160ff16036111ce5761113781606001518260000151612b6c565b600460ff16816080015160ff16036111f25761109f81606001518260000151612ced565b600560ff16816080015160ff16036112335760008160a0015180602001905181019061121e9190615888565b60608301518351825192935061113792612dc4565b600660ff16816080015160ff16036112915760008160a0015180602001905181019061125f9190615888565b9050600061127a836060015184600001518460000151612dda565b905061104a83606001518460000151600184612839565b600760ff16816080015160ff16036112ce5760006112b782606001518360000151612efc565b905061113782606001518360000151600184612839565b600860ff16816080015160ff160361130f5760008160a001518060200190518101906112fa9190615888565b606083015183518251929350611137926130ac565b600960ff16816080015160ff16036113505760008160a0015180602001905181019061133b9190615888565b6060830151835182519293506111379261319a565b600a60ff16816080015160ff16036113745761109f816060015182600001516131ae565b604051634440024f60e01b815260040160405180910390fd5b6113956131f9565b6010544211156113af576113a761322a565b601155426010555b565b60006113bc81612424565b50600c80546001600160a01b0319166001600160a01b0392909216919091179055565b63ffffffff811660009081526002602081905260408220805460018201549190920180548493606093909290918190611417906158a4565b80601f0160208091040260200160405190810160405280929190818152602001828054611443906158a4565b80156114905780601f1061146557610100808354040283529160200191611490565b820191906000526020600020905b81548152906001019060200180831161147357829003601f168201915b505050505090509250925092509193909250565b6114ac6132cb565b6114b582613370565b611137828261337b565b60008060008060006016548661ffff166114d991906158ee565b6014546114e69190615905565b9450601654856114f69190615905565b60135490945061ffff87161015611532576000611512876123cf565b8054600182015460029092015460ff9091169550909350915061153c9050565b5060009150819050805b91939590929450565b6001600160a01b0381166000908152600e60205260408120600181015415806115715750806001015442105b1561157f5750600092915050565b5492915050565b6000611590613438565b50600080516020615e9c83398151915290565b60006115ae81612424565b50601b80546001600160a01b0319166001600160a01b0392909216919091179055565b60006115dc81612424565b6115e46121d3565b61ffff168261ffff161061160b57604051637dd2cb5d60e11b815260040160405180910390fd5b6000611616836123cf565b9050806002015460000361163d57604051631957b3ff60e31b815260040160405180910390fd5b805460ff161561164c57505050565b8060010154600760008282546116629190615918565b9091555050600281015460018201546b033b2e3c9fd0803ce800000091611688916158ee565b611692919061592b565b600960008282546116a39190615918565b9091555050805460ff1916600117815560405161ffff8416907f6eac907c1eaf34119620cb19afb9703e14b837a593b2701476d771ce2250b13390600090a2505050565b600080516020615efc8339815191526116ff81612424565b60085461170e9061a8c0615905565b42101561172e57604051636c8b246360e01b815260040160405180910390fd5b6117516117403684900384018461594d565b600c546001600160a01b0316613481565b4260088190555081606001356009600082825461176e9190615905565b9091555061177c90506134f9565b600954600754600a5460405142937fbbd8342b1e1fe32712ce056fbd76edab76635724aa81f9f63cae57b5918fb482936117cf936060890135845260208401929092526040830152606082015260800190565b60405180910390a25050565b6001600160a01b0381166000908152600b60205260408120546117fd83613534565b610ec39190615905565b63ffffffff811660009081526002602052604081205415158015610ec357505063ffffffff1660009081526002602052604090206001015442101590565b600061185081612424565b50601a80546001600160a01b0319166001600160a01b0392909216919091179055565b60606000611880836123cf565b6003810180546040805160208084028201810190925282815293945060009084015b828210156118e8578382906000526020600020906002020160405180604001604052908160008201548152602001600182015481525050815260200190600101906118a2565b50505050915060005b8251811015611934578160020154838281518110611911576119116159b9565b602002602001015160200181815161192991906158ee565b9052506001016118f1565b5050919050565b600061194681612424565b50600455565b600061195781612424565b61109f613563565b6000600163ffffffff831660009081526001602052604090205460ff16600381111561198d5761198d615686565b1492915050565b61199c6135ac565b6119b3600080516020615e7c833981519152612424565b6119c085858585856135f6565b6119c8613812565b5050505050565b6000918252600080516020615ebc833981519152602090815260408084206001600160a01b0393909316845291905290205460ff1690565b611a0f6135ac565b611a26600080516020615e7c833981519152612424565b63ffffffff861660009081526001602052604090206002015415611a5d57604051630ed16a0560e31b815260040160405180910390fd5b6000856003811115611a7157611a71615686565b14158015611a9157506001856003811115611a8e57611a8e615686565b14155b15611aaf5760405163a24e5e1360e01b815260040160405180910390fd5b6040518060400160405280866003811115611acc57611acc615686565b81526040805160608101825260008082526001602083810182905284518082018652838152848601529485019290925263ffffffff8b1681529281905291208251815491929091839160ff1990911690836003811115611b2e57611b2e615686565b021790555060208201518160010160008201518160000155602082015181600101556040820151816002019081611b659190615a17565b505050905050611b7886858585856135f6565b8563ffffffff16611b896000613838565b7f8d61f909218b17b213ad8a66ec2ae4b2ac62449ea7b35d9d6396cb7df96e95b88787878787604051611bc0959493929190615aff565b60405180910390a3611bd0613812565b505050505050565b600080516020615efc833981519152611bf081612424565b6009829055611bfd6134f9565b600954600754600a5460408051938452602084019290925282820152517fa032eeb49fe502e13b030998efb945ccf3ff68ec5729dfcada07a1149dffa1639181900360600190a15050565b6001600160a01b0381166000908152600d6020526040812060018101549054610ec39190615905565b6000805b6001600160a01b038516600090815260156020526040902060010154811015611e17576001600160a01b0385166000908152601560205260409020600101805461ffff8616919083908110611ccc57611ccc6159b9565b600091825260209091206002909102015461ffff1603611e0f5760005b6001600160a01b0386166000908152601560205260409020600101805483908110611d1657611d166159b9565b906000526020600020906002020160010180549050811015611e0d576001600160a01b0386166000908152601560205260409020600101805485919084908110611d6257611d626159b9565b90600052602060002090600202016001018281548110611d8457611d846159b9565b90600052602060002090600202016000015403611e05576001600160a01b0386166000908152601560205260409020600101805483908110611dc857611dc86159b9565b90600052602060002090600202016001018181548110611dea57611dea6159b9565b90600052602060002090600202016001015492505050611085565b600101611ce9565b505b600101611c75565b506000949350505050565b60008060006060611e3285611807565b15611f005763ffffffff851660009081526001602081815260408084205460029283905293208054928101549101805460ff909416938190611e73906158a4565b80601f0160208091040260200160405190810160405280929190818152602001828054611e9f906158a4565b8015611eec5780601f10611ec157610100808354040283529160200191611eec565b820191906000526020600020905b815481529060010190602001808311611ecf57829003601f168201915b505050505090509350935093509350611fc7565b63ffffffff8516600090815260016020819052604090912080549181015460028201546003909201805460ff909416939192918190611f3e906158a4565b80601f0160208091040260200160405190810160405280929190818152602001828054611f6a906158a4565b8015611fb75780601f10611f8c57610100808354040283529160200191611fb7565b820191906000526020600020905b815481529060010190602001808311611f9a57829003601f168201915b5050505050905093509350935093505b9193509193565b60138181548110611fde57600080fd5b600091825260209091206004909102018054600182015460029092015460ff909116925083565b61200e82610f48565b61201781612424565b61101183836124d3565b7ff0c57e16840df040f15088dc2f81fe391c3923bec73e23a9662efc9c229c6a008054600160401b810460ff1615906001600160401b03166000811580156120665750825b90506000826001600160401b031660011480156120825750303b155b905081158015612090575080155b156120ae5760405163f92ee8a960e01b815260040160405180910390fd5b845467ffffffffffffffff1916600117855583156120d857845460ff60401b1916600160401b1785555b6120e18b61386b565b6120ea8b613896565b6120f58b88886138b6565b6121028b62093a806138e3565b6121108b42621275006138f5565b6121228b6213c6806262e0808c613915565b601c80546001600160a01b03808b166001600160a01b031992831617909255601b8054928d1692909116919091179055831561219857845460ff60401b19168555604051600181527fc7f505b2f371ae2175ee4913f4499e1f2633a7b5936321eed1cdaeb6115181d29060200160405180910390a15b5050505050505050505050565b60006121b081612424565b50601c80546001600160a01b0319166001600160a01b0392909216919091179055565b60145460009042908110156121ea57600091505090565b6016546014546121fa9083615918565b612204919061592b565b91505090565b6122126131f9565b61221b81611807565b612238576040516326175e1b60e21b815260040160405180910390fd5b63ffffffff81166000908152600260208181526040808420600192839052932083548183019081559184015481840155909160039091019061227c90840182615b37565b50505063ffffffff8116600090815260026020819052604082208281556001810183905591906122ae90830182614f3e565b50508063ffffffff166122c16000613838565b63ffffffff831660009081526001602081905260409182902090810154600282015492517f01752a325882177ceb45901f8433de77f4e854bba0392f8454591ec8022517bc93612318939091600390910190615c09565b60405180910390a350565b60008061232f81612424565b6123376121d3565b61ffff168361ffff161061235e57604051637dd2cb5d60e11b815260040160405180910390fd5b60006123698461398a565b9050806002015460000361238057600a5460028201555b8361ffff167f605f4fc760dbfc8600370aa812edc813327cd01f0c909d737ae7cdd5397af37782600201546040516123ba91815260200190565b60405180910390a26002015491505b50919050565b60135460009061ffff8316106123f8576040516305b7010560e51b815260040160405180910390fd5b60138261ffff168154811061240f5761240f6159b9565b90600052602060002090600402019050919050565b61109f81336139b4565b6000600080516020615ebc83398151915261244984846119cf565b6124c9576000848152602082815260408083206001600160a01b03871684529091529020805460ff1916600117905561247f3390565b6001600160a01b0316836001600160a01b0316857f2f8788117e7eff1d82e926ec794901d17c78024a50270940304540a733656f0d60405160405180910390a46001915050610ec3565b6000915050610ec3565b6000600080516020615ebc8339815191526124ee84846119cf565b156124c9576000848152602082815260408083206001600160a01b0387168085529252808320805460ff1916905551339287917ff6391f5c32d9c69d2a47ea670b442974b53935d1edc7fd64eb21e047a839171b9190a46001915050610ec3565b6000805b6001600160a01b038416600090815260176020526040902060010154811015612608576001600160a01b03841660009081526017602052604090206001018054849190839081106125a6576125a66159b9565b90600052602060002090600302016000015403612600576001600160a01b03841660009081526017602052604090206001018054829081106125ea576125ea6159b9565b9060005260206000209060030201915050610ec3565b600101612553565b50604051632b8e927b60e01b81526001600160a01b0384166004820152602481018390526044016110e9565b600081602001516000148061264c5750816040015142105b1561265957506000919050565b600082604001514261266b9190615918565b905060195481111561267c57506019545b600260195482856020015161269191906158ee565b61269b919061592b565b6126a5919061592b565b600284602001516126b6919061592b565b6110859190615905565b6126c86139ed565b600080516020615edc833981519152805460ff191681557f5db9ee0a495bf2e6ff9c91a7834c1ba4fdd244a5e8aa4e537bd38aeae4b073aa335b6040516001600160a01b03909116815260200160405180910390a150565b6000806127308787878787613a1d565b915091508060001461283057600182600381111561275057612750615686565b036127615761276186868484612839565b60006040518060c0016040528087815260200184600381111561278657612786615686565b8152602081018490526001600160a01b0389166040820152606001600b60ff168152604080518082018252600381526203078360ec1b60208281019190915290920191909152601b5490516316369c1960e11b81529192506001600160a01b031690632c6d3832906127fc908490600401615ca8565b600060405180830381600087803b15801561281657600080fd5b505af115801561282a573d6000803e3d6000fd5b50505050505b50505050505050565b6128416135ac565b6128496131f9565b8060000361286a576040516310eb483f60e21b815260040160405180910390fd5b600182600381111561287e5761287e615686565b111561289d5760405163350b944160e11b815260040160405180910390fd5b6128a684613c0b565b6001600160a01b0384166000908152600d6020526040902081908360038111156128d2576128d2615686565b600281106128e2576128e26159b9565b0160008282546128f29190615905565b90915550612901905084613c87565b6001600160a01b0385166000908152600d6020526040812060020191909155600f8054839290612932908490615905565b90915550506001600160a01b0384168361294b81613838565b7f99f9c5a56f286a152d0b60bd8851853878e05bb243daeaf47f4c300015987916848660405161297c929190615d09565b60405180910390a4611011613812565b6129946135ac565b61299c6131f9565b806000036129bd576040516310eb483f60e21b815260040160405180910390fd5b6001600160a01b0383166000908152600d60205260409020548111156129f957600060405163348ee39760e11b81526004016110e99190615d1d565b612a0283613c0b565b6001600160a01b0383166000908152600d602052604081208054839290612a2a908490615918565b90915550612a39905083613c87565b6001600160a01b0384166000908152600d6020526040812060020191909155600f8054839290612a6a908490615918565b90915550506001600160a01b0383166000908152600e602052604081208054839290612a97908490615905565b9091555050601254612aa99042615905565b6001600160a01b0384166000818152600e602052604090206001019190915582612ad281613838565b6040518481527f7956786f9c0614d721d7fd931301980a0399dfb0b38c81bafdfff0597c3290e49060200160405180910390a46001600160a01b0383166000818152600e602052604090819020805460019091015491517f7c2a5998b04a0c7a7d3a1ac3a0add65ac29f4647966110e357c7aa42e5e7ca2192612b5c928252602082015260400190565b60405180910390a261104a613812565b6000612b766135ac565b612b7e6131f9565b6001600160a01b0383166000908152600e60205260408120600101549003612bb9576040516365e134c160e11b815260040160405180910390fd5b612bc283613c0b565b506001600160a01b0382166000908152600e6020908152604080832054600d9092528220805491928392612bf7908490615905565b90915550612c06905083613c87565b6001600160a01b0384166000908152600d6020526040812060020191909155600f8054839290612c37908490615905565b90915550506001600160a01b03831682612c5081613838565b6040518481527f45bc7039355216afb8dd7eb1bc73c6f9ebfcdf5b722d3b99055d05ce03847f6e906020015b60405180910390a46001600160a01b0383166000818152600e6020526040808220828155600101829055517f7c2a5998b04a0c7a7d3a1ac3a0add65ac29f4647966110e357c7aa42e5e7ca2191612cdd918190918252602082015260400190565b60405180910390a2610ec3613812565b6000612cf98383613cb7565b9050801561104a576040805160c0810182528381526000602082018190529181018390526001600160a01b038516606082015260808101600c5b60ff168152604080518082018252600381526203078360ec1b60208281019190915290920191909152601b5490516316369c1960e11b81529192506001600160a01b031690632c6d383290612d8c908490600401615ca8565b600060405180830381600087803b158015612da657600080fd5b505af1158015612dba573d6000803e3d6000fd5b5050505050505050565b612dcf838383613dac565b61104a838383613ee6565b6000612de46131f9565b612dec6135ac565b6000612df8858461254f565b6001808201546001600160a01b038816600090815260176020526040902082018054919550929350612e2a9190615918565b81548110612e3a57612e3a6159b9565b9060005260206000209060030201905060176000866001600160a01b03166001600160a01b03168152602001908152602001600020600101805480612e8157612e81615d2b565b600082815260208120600360001990930192830201818155600181018290556002015590556001600160a01b03851684612eba81613838565b60408051878152602081018790527f3b3e48ba8b2a66a9706f50fc095a4fcb8f4c25da19c7a6aeab3df6a826d5bcd9910160405180910390a450611085613812565b6000612f066131f9565b612f0e6135ac565b6001600160a01b038316600090815260176020908152604080832081518083018352815481526001820180548451818702810187019095528085529194929385840193909290879084015b82821015612fa95783829060005260206000209060030201604051806060016040529081600082015481526020016001820154815260200160028201548152505081526020019060010190612f59565b5050505081525050905060005b81602001515181101561307757600082602001518281518110612fdb57612fdb6159b9565b60200260200101516020015190508084612ff59190615905565b9350856001600160a01b03168561300b87613838565b7f3b3e48ba8b2a66a9706f50fc095a4fcb8f4c25da19c7a6aeab3df6a826d5bcd986602001518681518110613042576130426159b9565b60200260200101516000015185604051613066929190918252602082015260400190565b60405180910390a450600101612fb6565b506001600160a01b0384166000908152601760205260408120818155906130a16001830182614f78565b505050610ec3613812565b6000806130ba858585614008565b9150915081600014613177576040805160c08101825285815260006020808301919091528183018590526001600160a01b038881166060840152600d608084015283518085018552600381526203078360ec1b9281019290925260a0830191909152601b5492516316369c1960e11b815291921690632c6d383290613143908490600401615ca8565b600060405180830381600087803b15801561315d57600080fd5b505af1158015613171573d6000803e3d6000fd5b50505050505b80156119c857601a54601c546119c8916001600160a01b039182169116836141b5565b6131a383613c0b565b61104a838383614207565b60006131ba838361439c565b9050801561104a576040805160c081018252838152600260208201529081018290526001600160a01b038416606082015260009060808101600e612d33565b600080516020615edc8339815191525460ff16156113af5760405163d93c066560e01b815260040160405180910390fd5b60006010544211158061323d5750600f54155b15613249575060115490565b60115460105460009061325c9042615918565b905060006004548261326e91906158ee565b9050600554816006546132819190615905565b111561329a576006546005546132979190615918565b90505b600f546132af670de0b6b3a7640000836158ee565b6132b9919061592b565b6132c39084615905565b949350505050565b306001600160a01b037f000000000000000000000000000000000000000000000000000000000000000016148061335257507f00000000000000000000000000000000000000000000000000000000000000006001600160a01b0316613346600080516020615e9c833981519152546001600160a01b031690565b6001600160a01b031614155b156113af5760405163703e46dd60e11b815260040160405180910390fd5b600061113781612424565b816001600160a01b03166352d1902d6040518163ffffffff1660e01b8152600401602060405180830381865afa9250505080156133d5575060408051601f3d908101601f191682019092526133d291810190615d41565b60015b6133fd57604051634c9c8ce360e01b81526001600160a01b03831660048201526024016110e9565b600080516020615e9c833981519152811461342e57604051632a87526960e21b8152600481018290526024016110e9565b61104a8383614465565b306001600160a01b037f000000000000000000000000000000000000000000000000000000000000000016146113af5760405163703e46dd60e11b815260040160405180910390fd5b6111376134e7836060015160405160200161349e91815260200190565b604051602081830303815290604052805190602001207f19457468657265756d205369676e6564204d6573736167653a0a3332000000006000908152601c91909152603c902090565b835160208501516040860151856144bb565b6007541561352d576007546b033b2e3c9fd0803ce800000060095461351e91906158ee565b613528919061592b565b600a55565b6000600a55565b6001600160a01b0381166000908152600d602052604081206002015461355983613c87565b610ec39190615918565b61356b6131f9565b600080516020615edc833981519152805460ff191660011781557f62e78cea01bee320cd4e420270b5ea74000d11b0c9f74754ebdbfc544b05a25833612702565b7f9b779b17422d0df92223018b32b4d1fa46e071723d6817e2486d003becc55f008054600119016135f057604051633ee5aeb560e01b815260040160405180910390fd5b60029055565b63ffffffff851660009081526001602052604090206002015461362c57604051633a35c2f960e01b815260040160405180910390fd5b8361364a57604051633f4b0e7b60e11b815260040160405180910390fd5b4283101561366b57604051631b8e7db960e11b815260040160405180910390fd5b63ffffffff8516600090815260026020526040902054841480156136a6575063ffffffff851660009081526002602052604090206001015483145b80156136fe5750600260008663ffffffff1663ffffffff1681526020019081526020016000206002016040516136dc9190615d5a565b604051809103902082826040516136f4929190615dd0565b6040518091039020145b1561371c57604051630faec0d960e01b815260040160405180910390fd5b61372585611807565b15613733576137338561220a565b604051806060016040528085815260200184815260200183838080601f016020809104026020016040519081016040528093929190818152602001838380828437600092018290525093909452505063ffffffff881681526002602081815260409283902085518155908501516001820155918401519192508201906137b99082615a17565b509050508463ffffffff166137ce6000613838565b7f6e036d1d8b54cadd52175820bedacecb3423ac485fa12c23c87321592bffb775868686866040516138039493929190615de0565b60405180910390a35050505050565b60017f9b779b17422d0df92223018b32b4d1fa46e071723d6817e2486d003becc55f0055565b60008181526020819052604081208054908261385383615e00565b90915550505060009081526020819052604090205490565b6138736144f8565b61387b614541565b613883614549565b61388b614559565b61113760008261242e565b61389e6144f8565b611137600080516020615e7c8339815191528261242e565b6138be6144f8565b6138d6600080516020615efc8339815191528461242e565b5060049190915560055550565b6138eb6144f8565b6012555042601055565b6138fd6144f8565b60149190915560165550601380546001018155600052565b61391d6144f8565b8260000361393e57604051631abc316360e21b815260040160405180910390fd5b8160000361395f57604051638c400e3b60e01b815260040160405180910390fd5b601892909255601955601a80546001600160a01b0319166001600160a01b0390921691909117905550565b60005b60135461ffff8316106139ab5760138054600101815560005261398d565b610ec3826123cf565b6139be82826119cf565b6111375760405163e2517d3f60e01b81526001600160a01b0382166004820152602481018390526044016110e9565b600080516020615edc8339815191525460ff166113af57604051638dfc202b60e01b815260040160405180910390fd5b600080613a286131f9565b613a306135ac565b613a3987611807565b15613a4757613a478761220a565b63ffffffff8716600090815260016020526040902060020154613a7d57604051633a35c2f960e01b815260040160405180910390fd5b63ffffffff87166000908152600160208190526040909120018054613ab5576040516359bd390560e11b815260040160405180910390fd5b8054604080516001600160a01b038a16602082015290810187905260009060600160408051601f1981840301815282825280516020918201209083015201604051602081830303815290604052805190602001209050613b16868383614569565b613b335760405163582f497d60e11b815260040160405180910390fd5b50505063ffffffff871660009081526003602090815260408083206001600160a01b038a168452909152902054613b6a9085615918565b63ffffffff8816600090815260016020908152604080832054600383528184206001600160a01b038c16855290925290912086905560ff16925090508015613bf9578663ffffffff1685613bbd87613838565b7f44a849f31027c891cb7e817e7c8df6b1541f745395ba940daeec387b283f39ab898587604051613bf093929190615e19565b60405180910390a45b613c01613812565b9550959350505050565b613c1361138d565b6000613c1e82613534565b90508015611137576001600160a01b0382166000908152600d602052604081206002018054839290613c51908490615905565b90915550506001600160a01b0382166000908152600b602052604081208054839290613c7e908490615905565b90915550505050565b6000670de0b6b3a7640000613c9a61322a565b613ca384611c48565b613cad91906158ee565b610ec3919061592b565b6000613cc16135ac565b613cc96131f9565b6001600160a01b0383166000908152600e60205260408120600101549003613d04576040516365e134c160e11b815260040160405180910390fd5b6001600160a01b0383166000908152600e6020526040902060010154421015613d4057604051638a27b5a160e01b815260040160405180910390fd5b506001600160a01b0382166000908152600e60205260409020548015613da457826001600160a01b031682613d7484613838565b6040518481527f190e540afa0f1919c2b4de58858bd15ec79dde6231ca4b3be2cb0bde4eede0c790602001612c7c565b610ec3613812565b613db46135ac565b613dbc6131f9565b80600003613ddd576040516310eb483f60e21b815260040160405180910390fd5b6001600160a01b0383166000908152600d602052604090208190600101541015613e1d57600160405163348ee39760e11b81526004016110e99190615d1d565b613e2683613c0b565b6001600160a01b0383166000908152600d6020526040902081906001016000828254613e529190615918565b90915550613e61905083613c87565b6001600160a01b0384166000908152600d6020526040812060020191909155600f8054839290613e92908490615918565b90915550506001600160a01b03831682613eab81613838565b6040518481527f1fa0c4284b9958e80cb828a1863b89b2a40ff9dc4cdc149ac88490bc609a91959060200160405180910390a461104a613812565b613eee6131f9565b613ef66135ac565b80600003613f175760405163f7cb25ad60e01b815260040160405180910390fd5b6001600160a01b038316600090815260176020908152604080832081516060810183528154815292830185905260185490939291820190613f589042615905565b905260018084018054808301825560009182526020808320855160039093020191825584015192810192909255604083015160029092019190915583549192508390613fa383615e00565b9190505550846001600160a01b031684613fbc86613838565b835160408086015181519283526020830189905282820152517e3e50d6f730f8990dc97da68a86fea40220d3baa3f6689325a46beb5f5dc0f69181900360600190a4505061104a613812565b6000806140136131f9565b61401b6135ac565b6000614027868561254f565b9050806002015442101561404e57604051633eb55fa360e01b815260040160405180910390fd5b60408051606081018252825481526001830154602082015260028301549181019190915261407b90612634565b925082816001015461408d9190615918565b9150856001600160a01b0316856140a387613838565b7f2f7d1a67d8436fa13ded14bf53703bed5c9b189232cd35530a5ce988bb55e40b878560010154888760020154426140db9190615918565b60408051948552602085019390935291830152606082015260800160405180910390a46001600160a01b038616600090815260176020526040902060019081018054909161412891615918565b81548110614138576141386159b9565b9060005260206000209060030201905060176000876001600160a01b03166001600160a01b0316815260200190815260200160002060010180548061417f5761417f615d2b565b60008281526020812060036000199093019283020181815560018101829055600201559055506141ad613812565b935093915050565b604080516001600160a01b038416602482015260448082018490528251808303909101815260649091019091526020810180516001600160e01b031663a9059cbb60e01b17905261104a90849061457f565b8060000361422857604051631c26cb0b60e01b815260040160405180910390fd5b6001600160a01b0383166000908152600b60205260409020548111156142615760405163043f8ee560e41b815260040160405180910390fd5b6001600160a01b0383166000908152600b602052604081208054839290614289908490615918565b909155506142989050836145e2565b60006142a26121d3565b9050816142ae8261398a565b60010160008282546142c09190615905565b90915550600090506142d285836148c6565b9050826142e28260010186614a28565b60010160008282546142f49190615905565b925050819055508261432d60138461ffff1681548110614316576143166159b9565b906000526020600020906004020160030186614a28565b600101600082825461433f9190615905565b90915550506001600160a01b0385168461435881613838565b6040805161ffff87168152602081018890527f6c16ad26e00ab1076e5532c6abddf1578121ec478b3129e556e064ff18de6229910160405180910390a45050505050565b60006143a7836145e2565b506001600160a01b0382166000908152601560209081526040808320848452909152812054908190036143fe5760405162d6360d60e11b81526001600160a01b0384166004820152602481018390526044016110e9565b6001600160a01b03831660008181526015602090815260408083208684529091528120558261442c81613838565b6040518481527f5160b630eaa30b010bf18a116a641cab7551c9bafdbd85748da5aaa421753a3c9060200160405180910390a492915050565b61446e82614ac3565b6040516001600160a01b038316907fbc7cd75a20ee27fd9adebab32041f755214dbc6bffa90cc0225b39da2e5c2d3b90600090a28051156144b35761104a8282614b28565b611137614b9e565b806001600160a01b03166144d186848787614bbd565b6001600160a01b0316146119c857604051638baa579f60e01b815260040160405180910390fd5b7ff0c57e16840df040f15088dc2f81fe391c3923bec73e23a9662efc9c229c6a0054600160401b900460ff166113af57604051631afcd79f60e31b815260040160405180910390fd5b6113af6144f8565b6145516144f8565b6113af614beb565b6145616144f8565b6113af614bf3565b6000826145768584614c14565b14949350505050565b60006145946001600160a01b03841683614c57565b905080516000141580156145b95750808060200190518101906145b79190615e3d565b155b1561104a57604051635274afe760e01b81526001600160a01b03841660048201526024016110e9565b60005b6001600160a01b038216600090815260156020526040902060010154811015611137576001600160a01b0382166000908152601560205260408120600101805483908110614635576146356159b9565b600091825260209091206002909102018054601380549293509161ffff909116908110614664576146646159b9565b600091825260209091206004909102015460ff16156148bd5760005b60018201548110156147805760008260010182815481106146a3576146a36159b9565b906000526020600020906002020160000154905060008360010183815481106146ce576146ce6159b9565b600091825260208220600160029092020101548554601380549294506b033b2e3c9fd0803ce800000092909161ffff1690811061470d5761470d6159b9565b9060005260206000209060040201600201548361472a91906158ee565b614734919061592b565b6001600160a01b038816600090815260156020908152604080832087845290915281208054929350839290919061476c908490615905565b909155505060019093019250614680915050565b506001600160a01b03831660009081526015602052604081206001908101546147a99190615918565b6001600160a01b0385166000908152601560205260409020600101805491925090829081106147da576147da6159b9565b906000526020600020906002020160156000866001600160a01b03166001600160a01b031681526020019081526020016000206001018481548110614821576148216159b9565b600091825260209091208254600290920201805461ffff191661ffff9092169190911781556001808301805461485a9284019190614f99565b5050506001600160a01b038416600090815260156020526040902060010180548061488757614887615d2b565b600082815260208120600260001990930192830201805461ffff19168155906148b36001830182614ff9565b5050905550505050565b506001016145e5565b6000805b6001600160a01b038416600090815260156020526040902060010154811015614986576001600160a01b0384166000908152601560205260409020600101805461ffff8516919083908110614921576149216159b9565b600091825260209091206002909102015461ffff160361497e576001600160a01b0384166000908152601560205260409020600101805482908110614968576149686159b9565b9060005260206000209060020201915050610ec3565b6001016148ca565b506001600160a01b038316600090815260156020526040902060019081018054918201808255849190839081106149bf576149bf6159b9565b60009182526020808320600292909202909101805461ffff191661ffff94909416939093179092556001600160a01b0386168152601590915260409020600101805482908110614a1157614a116159b9565b906000526020600020906002020191505092915050565b6000805b8354811015614a795782848281548110614a4857614a486159b9565b90600052602060002090600202016000015403614a7157838181548110614968576149686159b9565b600101614a2c565b5082546001810180855560008590528390859083908110614a9c57614a9c6159b9565b906000526020600020906002020160000181905550838181548110614a1157614a116159b9565b806001600160a01b03163b600003614af957604051634c9c8ce360e01b81526001600160a01b03821660048201526024016110e9565b600080516020615e9c83398151915280546001600160a01b0319166001600160a01b0392909216919091179055565b6060600080846001600160a01b031684604051614b459190615e5f565b600060405180830381855af49150503d8060008114614b80576040519150601f19603f3d011682016040523d82523d6000602084013e614b85565b606091505b5091509150614b95858383614c65565b95945050505050565b34156113af5760405163b398979f60e01b815260040160405180910390fd5b600080600080614bcf88888888614cc1565b925092509250614bdf8282614d90565b50909695505050505050565b6138126144f8565b614bfb6144f8565b600080516020615edc833981519152805460ff19169055565b600081815b8451811015614c4f57614c4582868381518110614c3857614c386159b9565b6020026020010151614e49565b9150600101614c19565b509392505050565b606061108583836000614e78565b606082614c7a57614c7582614f15565b611085565b8151158015614c9157506001600160a01b0384163b155b15614cba57604051639996b31560e01b81526001600160a01b03851660048201526024016110e9565b5080611085565b600080807f7fffffffffffffffffffffffffffffff5d576e7357a4501ddfe92f46681b20a0841115614cfc5750600091506003905082614d86565b604080516000808252602082018084528a905260ff891692820192909252606081018790526080810186905260019060a0016020604051602081039080840390855afa158015614d50573d6000803e3d6000fd5b5050604051601f1901519150506001600160a01b038116614d7c57506000925060019150829050614d86565b9250600091508190505b9450945094915050565b6000826003811115614da457614da4615686565b03614dad575050565b6001826003811115614dc157614dc1615686565b03614ddf5760405163f645eedf60e01b815260040160405180910390fd5b6002826003811115614df357614df3615686565b03614e145760405163fce698f760e01b8152600481018290526024016110e9565b6003826003811115614e2857614e28615686565b03611137576040516335e2f38360e21b8152600481018290526024016110e9565b6000818310614e65576000828152602084905260409020611085565b6000838152602083905260409020611085565b606081471015614e9d5760405163cd78605960e01b81523060048201526024016110e9565b600080856001600160a01b03168486604051614eb99190615e5f565b60006040518083038185875af1925050503d8060008114614ef6576040519150601f19603f3d011682016040523d82523d6000602084013e614efb565b606091505b5091509150614f0b868383614c65565b9695505050505050565b805115614f255780518082602001fd5b604051630a12f52160e11b815260040160405180910390fd5b508054614f4a906158a4565b6000825580601f10614f5a575050565b601f01602090049060005260206000209081019061109f919061501a565b508054600082556003029060005260206000209081019061109f919061502f565b828054828255906000526020600020906002028101928215614fe95760005260206000209160020282015b82811115614fe957825482556001808401549083015560029283019290910190614fc4565b50614ff5929150615051565b5090565b508054600082556002029060005260206000209081019061109f9190615051565b5b80821115614ff5576000815560010161501b565b5b80821115614ff5576000808255600182018190556002820155600301615030565b5b80821115614ff55760008082556001820155600201615052565b60006020828403121561507e57600080fd5b81356001600160e01b03198116811461108557600080fd5b803561ffff811681146150a857600080fd5b919050565b6000602082840312156150bf57600080fd5b61108582615096565b602080825282518282018190526000919060409081850190868401855b8281101561510a578151805185528601518685015292840192908501906001016150e5565b5091979650505050505050565b60006020828403121561512957600080fd5b5035919050565b63ffffffff8116811461109f57600080fd5b6001600160a01b038116811461109f57600080fd5b6000806040838503121561516a57600080fd5b823561517581615130565b9150602083013561518581615142565b809150509250929050565b6000602082840312156151a257600080fd5b813561108581615142565b602080825282518282018190526000919060409081850190868401855b8281101561510a57815180518552868101518786015285015185850152606090930192908501906001016151ca565b6000806040838503121561520c57600080fd5b82359150602083013561518581615142565b6000806040838503121561523157600080fd5b823561523c81615142565b946020939093013593505050565b634e487b7160e01b600052604160045260246000fd5b60405160c081016001600160401b03811182821017156152825761528261524a565b60405290565b604051606081016001600160401b03811182821017156152825761528261524a565b604051601f8201601f191681016001600160401b03811182821017156152d2576152d261524a565b604052919050565b8035600481106150a857600080fd5b803560ff811681146150a857600080fd5b600082601f83011261530b57600080fd5b81356001600160401b038111156153245761532461524a565b615337601f8201601f19166020016152aa565b81815284602083860101111561534c57600080fd5b816020850160208301376000918101602001919091529392505050565b60006020828403121561537b57600080fd5b81356001600160401b038082111561539257600080fd5b9083019060c082860312156153a657600080fd5b6153ae615260565b823581526153be602084016152da565b60208201526040830135604082015260608301356153db81615142565b60608201526153ec608084016152e9565b608082015260a08301358281111561540357600080fd5b61540f878286016152fa565b60a08301525095945050505050565b60006020828403121561543057600080fd5b813561108581615130565b60005b8381101561545657818101518382015260200161543e565b50506000910152565b6000815180845261547781602086016020860161543b565b601f01601f19169290920160200192915050565b838152826020820152606060408201526000614b95606083018461545f565b600080604083850312156154bd57600080fd5b82356154c881615142565b915060208301356001600160401b038111156154e357600080fd5b6154ef858286016152fa565b9150509250929050565b6000608082840312156123c957600080fd5b60008083601f84011261551d57600080fd5b5081356001600160401b0381111561553457600080fd5b60208301915083602082850101111561554c57600080fd5b9250929050565b60008060008060006080868803121561556b57600080fd5b853561557681615130565b9450602086013593506040860135925060608601356001600160401b0381111561559f57600080fd5b6155ab8882890161550b565b969995985093965092949392505050565b60008060008060008060a087890312156155d557600080fd5b86356155e081615130565b95506155ee602088016152da565b9450604087013593506060870135925060808701356001600160401b0381111561561757600080fd5b61562389828a0161550b565b979a9699509497509295939492505050565b602081526000611085602083018461545f565b60008060006060848603121561565d57600080fd5b833561566881615142565b925061567660208501615096565b9150604084013590509250925092565b634e487b7160e01b600052602160045260246000fd5b600481106156ba57634e487b7160e01b600052602160045260246000fd5b9052565b6156c8818661569c565b836020820152826040820152608060608201526000614f0b608083018461545f565b60008060008060008060c0878903121561570357600080fd5b863561570e81615142565b9550602087013561571e81615142565b9450604087013561572e81615142565b9350606087013561573e81615142565b9598949750929560808101359460a0909101359350915050565b6000602080838503121561576b57600080fd5b82516001600160401b038082111561578257600080fd5b908401906060828703121561579657600080fd5b61579e615288565b82516157a981615130565b815282840151848201526040830151828111156157c557600080fd5b80840193505086601f8401126157da57600080fd5b8251828111156157ec576157ec61524a565b8060051b92506157fd8584016152aa565b818152928401850192858101908985111561581757600080fd5b948601945b848610156158355785518252948601949086019061581c565b60408401525090979650505050505050565b60006020828403121561585957600080fd5b604051602081018181106001600160401b038211171561587b5761587b61524a565b6040529151825250919050565b60006020828403121561589a57600080fd5b6110858383615847565b600181811c908216806158b857607f821691505b6020821081036123c957634e487b7160e01b600052602260045260246000fd5b634e487b7160e01b600052601160045260246000fd5b8082028115828204841417610ec357610ec36158d8565b80820180821115610ec357610ec36158d8565b81810381811115610ec357610ec36158d8565b60008261594857634e487b7160e01b600052601260045260246000fd5b500490565b60006080828403121561595f57600080fd5b604051608081018181106001600160401b03821117156159815761598161524a565b806040525082358152602083013560208201526159a0604084016152e9565b6040820152606083013560608201528091505092915050565b634e487b7160e01b600052603260045260246000fd5b601f82111561104a576000816000526020600020601f850160051c810160208610156159f85750805b601f850160051c820191505b81811015611bd057828155600101615a04565b81516001600160401b03811115615a3057615a3061524a565b615a4481615a3e84546158a4565b846159cf565b602080601f831160018114615a795760008415615a615750858301515b600019600386901b1c1916600185901b178555611bd0565b600085815260208120601f198616915b82811015615aa857888601518255948401946001909101908401615a89565b5085821015615ac65787850151600019600388901b60f8161c191681555b5050505050600190811b01905550565b81835281816020850137506000828201602090810191909152601f909101601f19169091010190565b615b09818761569c565b846020820152836040820152608060608201526000615b2c608083018486615ad6565b979650505050505050565b818103615b42575050565b615b4c82546158a4565b6001600160401b03811115615b6357615b6361524a565b615b7181615a3e84546158a4565b6000601f821160018114615ba55760008315615b8d5750848201545b600019600385901b1c1916600184901b1784556119c8565b600085815260209020601f19841690600086815260209020845b83811015615bdf5782860154825560019586019590910190602001615bbf565b5085831015615ac65793015460001960f8600387901b161c19169092555050600190811b01905550565b838152600060208460208401526060604084015260008454615c2a816158a4565b8060608701526080600180841660008114615c4c5760018114615c6857615c98565b60ff19851660808a0152608084151560051b8a01019550615c98565b89600052602060002060005b85811015615c8f5781548b8201860152908301908801615c74565b8a016080019650505b50939a9950505050505050505050565b602081528151602082015260006020830151615cc7604084018261569c565b506040830151606083015260018060a01b03606084015116608083015260ff60808401511660a083015260a083015160c0808401526132c360e084018261545f565b82815260408101611085602083018461569c565b60208101610ec3828461569c565b634e487b7160e01b600052603160045260246000fd5b600060208284031215615d5357600080fd5b5051919050565b6000808354615d68816158a4565b60018281168015615d805760018114615d9557615dc4565b60ff1984168752821515830287019450615dc4565b8760005260208060002060005b85811015615dbb5781548a820152908401908201615da2565b50505082870194505b50929695505050505050565b8183823760009101908152919050565b848152836020820152606060408201526000614f0b606083018486615ad6565b600060018201615e1257615e126158d8565b5060010190565b6001600160a01b038416815260208101839052606081016132c3604083018461569c565b600060208284031215615e4f57600080fd5b8151801515811461108557600080fd5b60008251615e7181846020870161543b565b919091019291505056fe009ab23a1010d07a0450a1fbea1d84169b57d2c2273b54bff0f20c3e90199b5d360894a13ba1a3210667c828492db98dca3e2076cc3735a920a3ca505d382bbc02dd7bc7dec4dceedda775e58dd541e08a116c6c53815c0bd028192f7b626800cd5ed15c6e187e77e9aee88184c21f4f2182ab5827cb3b7e07fbedcd63f03300d4633f2ee6e04337d84b8278c3b807b75336f88e5e4656e625419ef1258e9af1a26469706673582212208b39ce598cf8d8c6215203211c4659b9e7092a2f7fefdda95ef12447c416296664736f6c63430008160033",
  "devdoc": {
    "errors": {
      "AccessControlBadConfirmation()": [
        {
          "details": "The caller of a function is not the expected one. NOTE: Don't confuse with {AccessControlUnauthorizedAccount}."
        }
      ],
      "AccessControlUnauthorizedAccount(address,bytes32)": [
        {
          "details": "The `account` is missing a role."
        }
      ],
      "AddressEmptyCode(address)": [
        {
          "details": "There's no code at `target` (it is not a contract)."
        }
      ],
      "AddressInsufficientBalance(address)": [
        {
          "details": "The ETH balance of the account is not enough to perform the operation."
        }
      ],
      "ECDSAInvalidSignature()": [
        {
          "details": "The signature derives the `address(0)`."
        }
      ],
      "ECDSAInvalidSignatureLength(uint256)": [
        {
          "details": "The signature has an invalid length."
        }
      ],
      "ECDSAInvalidSignatureS(bytes32)": [
        {
          "details": "The signature has an S value that is in the upper half order."
        }
      ],
      "ERC1967InvalidImplementation(address)": [
        {
          "details": "The `implementation` of the proxy is invalid."
        }
      ],
      "ERC1967NonPayable()": [
        {
          "details": "An upgrade function sees `msg.value > 0` that may be lost."
        }
      ],
      "EnforcedPause()": [
        {
          "details": "The operation failed because the contract is paused."
        }
      ],
      "ExpectedPause()": [
        {
          "details": "The operation failed because the contract is not paused."
        }
      ],
      "FailedInnerCall()": [
        {
          "details": "A call to an address target failed. The target may have reverted."
        }
      ],
      "InvalidInitialization()": [
        {
          "details": "The contract is already initialized."
        }
      ],
      "NotInitializing()": [
        {
          "details": "The contract is not initializing."
        }
      ],
      "ReentrancyGuardReentrantCall()": [
        {
          "details": "Unauthorized reentrant call."
        }
      ],
      "SafeERC20FailedOperation(address)": [
        {
          "details": "An operation with an ERC20 token failed."
        }
      ],
      "UUPSUnauthorizedCallContext()": [
        {
          "details": "The call is from an unauthorized context."
        }
      ],
      "UUPSUnsupportedProxiableUUID(bytes32)": [
        {
          "details": "The storage `slot` is unsupported as a UUID."
        }
      ]
    },
    "events": {
      "Initialized(uint64)": {
        "details": "Triggered when the contract has been initialized or reinitialized."
      },
      "Paused(address)": {
        "details": "Emitted when the pause is triggered by `account`."
      },
      "RoleAdminChanged(bytes32,bytes32,bytes32)": {
        "details": "Emitted when `newAdminRole` is set as ``role``'s admin role, replacing `previousAdminRole` `DEFAULT_ADMIN_ROLE` is the starting admin for all roles, despite {RoleAdminChanged} not being emitted signaling this."
      },
      "RoleGranted(bytes32,address,address)": {
        "details": "Emitted when `account` is granted `role`. `sender` is the account that originated the contract call, an admin role bearer except when using {AccessControl-_setupRole}."
      },
      "RoleRevoked(bytes32,address,address)": {
        "details": "Emitted when `account` is revoked `role`. `sender` is the account that originated the contract call:   - if using `revokeRole`, it is the admin role bearer   - if using `renounceRole`, it is the role bearer (i.e. `account`)"
      },
      "Unpaused(address)": {
        "details": "Emitted when the pause is lifted by `account`."
      },
      "Upgraded(address)": {
        "details": "Emitted when the implementation is upgraded."
      }
    },
    "kind": "dev",
    "methods": {
      "calculateVestingOrderAmount(address,uint256)": {
        "params": {
          "_user": "User address"
        }
      },
      "canUpdateRoot(uint32)": {
        "params": {
          "_distributionId": "The distribution id."
        },
        "returns": {
          "_0": "Boolean `true` if the active root can be updated to the proposed root, else `false`."
        }
      },
      "createDistribution(uint32,uint8,bytes32,uint256,bytes)": {
        "params": {
          "_distributionId": "The distribution id.",
          "_ipfsCid": "An IPFS CID pointing to the Merkle tree data. (optional, can be 0x0) Reverts if the distribution with the same id is already exists or Merkle root params are invalid. Reverts if the token is not supported for distribution. Currently only $ORDER and es$ORDER tokens are supported.",
          "_merkleRoot": "The Merkle root.",
          "_startTimestamp": "The timestamp when this Merkle root become active.",
          "_token": "The type of the token. Currently only $ORDER token and es$ORDER (record based) are supported."
        }
      },
      "getClaimed(uint32,address)": {
        "params": {
          "_distributionId": "The distribution id.",
          "_user": "The address of the user."
        },
        "returns": {
          "_0": "The amount tokens claimed so far by that user."
        }
      },
      "getDistribution(uint32)": {
        "params": {
          "_distributionId": "The distribution id."
        },
        "returns": {
          "ipfsCid": "       An IPFS CID pointing to the Merkle tree data (optional, can be 0x0).",
          "merkleRoot": "    The Merkle root.",
          "startTimestamp": "Timestamp when this Merkle root become active.",
          "token": "         The type of the distributed token. Currently only $ORDER token and es$ORDER (record based) are supported."
        }
      },
      "getProposedRoot(uint32)": {
        "params": {
          "_distributionId": "The distribution id."
        },
        "returns": {
          "ipfsCid": "       An IPFS CID pointing to the Merkle tree data (optional, can be 0x0).",
          "merkleRoot": "    The proposed Merkle root.",
          "startTimestamp": "Timestamp when this Merkle root become active."
        }
      },
      "getRoleAdmin(bytes32)": {
        "details": "Returns the admin role that controls `role`. See {grantRole} and {revokeRole}. To change a role's admin, use {_setRoleAdmin}."
      },
      "grantRole(bytes32,address)": {
        "details": "Grants `role` to `account`. If `account` had not been already granted `role`, emits a {RoleGranted} event. Requirements: - the caller must have ``role``'s admin role. May emit a {RoleGranted} event."
      },
      "hasPendingRoot(uint32)": {
        "params": {
          "_distributionId": "The distribution id."
        },
        "returns": {
          "_0": "Boolean `true` if there is a proposed root for given distribution waiting to become active, else `false`."
        }
      },
      "hasRole(bytes32,address)": {
        "details": "Returns `true` if `account` has been granted `role`."
      },
      "isDistributionRecordBased(uint32)": {
        "params": {
          "_distributionId": "The distribution id."
        },
        "returns": {
          "_0": "Boolean `true` if the distribution is record based, else `false`."
        }
      },
      "paused()": {
        "details": "Returns true if the contract is paused, and false otherwise."
      },
      "proposeRoot(uint32,bytes32,uint256,bytes)": {
        "params": {
          "_distributionId": "The distribution id.",
          "_ipfsCid": "An IPFS CID pointing to the Merkle tree data.  Reverts if the proposed root is bytes32(0).  Reverts if the proposed startTimestamp is in the past.  Reverts if the proposed root is already proposed.",
          "_merkleRoot": "The Merkle root.",
          "_startTimestamp": "The timestamp when this Merkle root become active"
        }
      },
      "proxiableUUID()": {
        "details": "Implementation of the ERC1822 {proxiableUUID} function. This returns the storage slot used by the implementation. It is used to validate the implementation's compatibility when performing an upgrade. IMPORTANT: A proxy pointing at a proxiable contract should not be considered proxiable itself, because this risks bricking a proxy that upgrades to it, by delegating to itself until out of gas. Thus it is critical that this function revert if invoked through a proxy. This is guaranteed by the `notDelegated` modifier."
      },
      "renounceRole(bytes32,address)": {
        "details": "Revokes `role` from the calling account. Roles are often managed via {grantRole} and {revokeRole}: this function's purpose is to provide a mechanism for accounts to lose their privileges if they are compromised (such as when a trusted device is misplaced). If the calling account had been revoked `role`, emits a {RoleRevoked} event. Requirements: - the caller must be `callerConfirmation`. May emit a {RoleRevoked} event."
      },
      "revokeRole(bytes32,address)": {
        "details": "Revokes `role` from `account`. If `account` had been granted `role`, emits a {RoleRevoked} event. Requirements: - the caller must have ``role``'s admin role. May emit a {RoleRevoked} event."
      },
      "supportsInterface(bytes4)": {
        "details": "See {IERC165-supportsInterface}."
      },
      "updateRoot(uint32)": {
        "params": {
          "_distributionId": "The distribution id.  Reverts if root updates are paused.  Reverts if the proposed root is bytes32(0).  Reverts if the waiting period for the proposed root has not elapsed."
        }
      },
      "upgradeToAndCall(address,bytes)": {
        "custom:oz-upgrades-unsafe-allow-reachable": "delegatecall",
        "details": "Upgrade the implementation of the proxy to `newImplementation`, and subsequently execute the function call encoded in `data`. Calls {_authorizeUpgrade}. Emits an {Upgraded} event."
      }
    },
    "version": 1
  },
  "userdoc": {
    "events": {
      "BatchPreparedToClaim(uint16)": {
        "notice": "Emitted when admin marks batch as claimable"
      },
      "BatchValorToUsdcRateIsFixed(uint16,uint256)": {
        "notice": "Emitted when admin fixes valor to USDC rate for the batch"
      },
      "DailyUsdcNetFeeRevenueUpdated(uint256,uint256,uint256,uint256,uint256)": {
        "notice": "Emmited, when the daily USDC net fee revenue has been updated"
      },
      "DistributionCreated(uint256,uint32,uint8,bytes32,uint256,bytes)": {
        "notice": "Emitted when a new distribution is created by the ROOT_UPDATER_ROLE from Ledger chain."
      },
      "EsOrderUnstake(uint256,uint256,address,uint256)": {
        "notice": "Emitted when user unstakes es$ORDER tokens"
      },
      "OrderUnstakeAmount(address,uint256,uint256)": {
        "notice": "Emitted for _createOrderUnstakeRequest, _cancelOrderUnstakeRequest and _withdrawOrder functions"
      },
      "OrderUnstakeCancelled(uint256,uint256,address,uint256)": {
        "notice": "Emitted when user cancels unstake $ORDER tokens request"
      },
      "OrderUnstakeRequested(uint256,uint256,address,uint256)": {
        "notice": "Emitted when user requests unstake $ORDER tokens"
      },
      "OrderWithdrawn(uint256,uint256,address,uint256)": {
        "notice": "Emitted when user withdraws $ORDER tokens"
      },
      "RewardsClaimed(uint256,uint256,uint32,address,uint256,uint8)": {
        "notice": "Emitted when a user claims rewards from Vault chains."
      },
      "RootProposed(uint256,uint32,bytes32,uint256,bytes)": {
        "notice": "Emitted when a new Merkle root is proposed by the ROOT_UPDATER_ROLE from Ledger chain."
      },
      "RootUpdated(uint256,uint32,bytes32,uint256,bytes)": {
        "notice": "Emitted when proposed Merkle root becomes active by the ROOT_UPDATER_ROLE from Ledger chain."
      },
      "Staked(uint256,uint256,address,uint256,uint8)": {
        "notice": "Emitted when user stakes $ORDER or es$ORDER tokens"
      },
      "UsdcRevenueClaimed(uint256,uint256,address,uint256)": {
        "notice": "Emitted when user claim collected USDC revenue from chain"
      },
      "ValorRedeemed(uint256,uint256,address,uint16,uint256)": {
        "notice": "Emitted when user redeem valor for the chain; batchId is the current batch"
      }
    },
    "kind": "user",
    "methods": {
      "TREASURE_UPDATER_ROLE()": {
        "notice": "The role, that is allowed to update USDC net fee revenue"
      },
      "accValorPerShareScaled()": {
        "notice": "The accrued valor share, scaled to `ACC_VALOR_PER_SHARE_PRECISION`"
      },
      "batchDuration()": {
        "notice": "Period of the batch in seconds"
      },
      "batchPreparedToClaim(uint16)": {
        "notice": "Admin marks batch as claimable when USDC is provided for the batch         This also reduce total valor amount and total USDC in treasure         This reduce shouldn't affect the valor to USDC rate because valor and USDC amounts are reduced proportionally"
      },
      "calculateVestingOrderAmount(address,uint256)": {
        "notice": "Return amount of $ORDER tokens for withdraw at the moment"
      },
      "canUpdateRoot(uint32)": {
        "notice": "Returns true if there is a proposed root for given distribution waiting to become active         and the start time has passed."
      },
      "collectedValor(address)": {
        "notice": "The amount of valor token, that has been collected by the user"
      },
      "createDistribution(uint32,uint8,bytes32,uint256,bytes)": {
        "notice": "Create a new distribution with the given token and propose Merkle root for it.         Locked for ROOT_UPDATER_ROLE.         Once created, distribution token can't be changed."
      },
      "dailyUsdcNetFeeRevenue((bytes32,bytes32,uint8,uint256))": {
        "notice": "CeFi updates the daily USDC net fee revenue          Function reverts, if the function is called too early - less than 12 hours after the last update          to prevent accidental double updates          Function updates the totalUsdcInTreasure, valorToUsdcRateScaled"
      },
      "fixBatchValorToUsdcRate(uint16)": {
        "notice": "CeFi fixes valor to USDC rate for the batch after providing daily USDC net fee amount after batch is finished         This suppose to avoid the last day gap in USDC treasure amount         that can lead to set incorrect valor to USDC rate for the batch         batch.fixedValorToUsdcRateScaled will be set to current valorToUsdcRateScaled"
      },
      "getBatchChainedValorAmount(uint16)": {
        "notice": "Returns the amount of valor that user can redeem for the chain"
      },
      "getBatchInfo(uint16)": {
        "notice": "Returns the batch structure by id without chained valor amount"
      },
      "getClaimed(uint32,address)": {
        "notice": "Get the tokens amount claimed so far for distribution by a given user."
      },
      "getCurrentBatchId()": {
        "notice": "Calculate and returns the current batch id based on the current timestamp, start timestamp and batch duration"
      },
      "getDistribution(uint32)": {
        "notice": "Get the active Merkle root for distribution id and associated parameters.         If distribution has proposed root and it's start timestamp has passed, proposed root will be returned.         It allows to reduce probability of collision when user claiming rewards from the old Merkle root.         Because it will be updated at the beginning of the next claimReward call and become active from that moment.         So, user will actually obtain the rewards from the proposed root and have to provide amount and proof for it."
      },
      "getOrderAvailableToWithdraw(address)": {
        "notice": "Get the amount of $ORDER ready to be withdrawn by `_user`"
      },
      "getProposedRoot(uint32)": {
        "notice": "Get the proposed Merkle root for token and associated parameters.         When the proposed root become active, it will be removed from the proposedRoots mapping.         So, this function will return non-zero values only if the proposed root is pending."
      },
      "getStakingInfo(address)": {
        "notice": "Get the staking balances for a given _user"
      },
      "getUsdcAmountForBatch(uint16)": {
        "notice": "Returns the amount of USDC required for batch on each chain"
      },
      "getUserRedeemedValorAmountForBatchAndChain(address,uint16,uint256)": {
        "notice": "Returns the amount of valor that user redeemed for the chain in the batch"
      },
      "getUserValor(address)": {
        "notice": "Get the pending amount of valor up to now for a given _user"
      },
      "hasPendingRoot(uint32)": {
        "notice": "Returns true if there is a proposed root for given distribution waiting to become active.         This is the case if the proposed root for given distribution is not zero."
      },
      "isDistributionRecordBased(uint32)": {
        "notice": "Check if the distribution is record based. Currently only es$ORDER token is record based."
      },
      "lastUsdcNetFeeRevenueUpdateTimestamp()": {
        "notice": "The timestamp of the last update of the USDC net fee revenue"
      },
      "lastValorUpdateTimestamp()": {
        "notice": "The last time that the valor variables were updated"
      },
      "ledgerRecvFromVault((uint256,uint8,uint256,address,uint8,bytes))": {
        "notice": "Receives message from OCCAdapter and dispatch it"
      },
      "maximumValorEmission()": {
        "notice": "The maximum amount of valor token, that can be emitted"
      },
      "orderCollector()": {
        "notice": "Address, that will collect unvested $ORDER when user prematurely withdraws"
      },
      "pause()": {
        "notice": "Pause external functionality"
      },
      "proposeRoot(uint32,bytes32,uint256,bytes)": {
        "notice": "Set the proposed root parameters.         Locked for ROOT_UPDATER_ROLE.         Allows to update proposed root for token before startTimestamp passed.         If startTimestamp passed, proposed root will be propogated to active root."
      },
      "setTotalUsdcInTreasure(uint256)": {
        "notice": "Set the totalUsdcInTreasure. Restricted to TREASURE_UPDATER_ROLE          Function updates the totalUsdcInTreasure, valorToUsdcRateScaled"
      },
      "setUsdcUpdaterAddress(address)": {
        "notice": "Owner can set address, that signed the USDC revenue updates"
      },
      "setValorPerSecond(uint256)": {
        "notice": "Allow the owner to update the valorPerSecond"
      },
      "srcChainIdToEventId(uint256)": {
        "notice": "Mapping of srcChainId => event id"
      },
      "startTimestamp()": {
        "notice": "The timestamp when the first batch starts"
      },
      "totalStakedAmount()": {
        "notice": "Total amount of staken $ORDER and es$ORDER"
      },
      "totalUsdcInTreasure()": {
        "notice": "The total amount of USDC, that has been collected in the treasure"
      },
      "totalValorAmount()": {
        "notice": "The total amount of valor token, that is currently in circulation"
      },
      "totalValorEmitted()": {
        "notice": "The total amount of valor token, that has been emitted"
      },
      "unpause()": {
        "notice": "Unpause external functionality"
      },
      "unstakeLockPeriod()": {
        "notice": "Period of time, that user have to wait after unstake request, before he can withdraw tokens"
      },
      "updateRoot(uint32)": {
        "notice": "Propagate proposed root to the distribution if it can be updated.         Non-reeentrant guard is disabled because this function is called from claimRewards."
      },
      "updateValorVars()": {
        "notice": "Calculate and update valor per share changed over time"
      },
      "usdcUpdaterAddress()": {
        "notice": "The address, that signed the USDC revenue updates"
      },
      "userTotalStakingBalance(address)": {
        "notice": "Get the total amount of $ORDER and es$ORDER staked by `_user`"
      },
      "valorPerSecond()": {
        "notice": "The amount of valor token, that will be emitted per second"
      },
      "valorToUsdcRateScaled()": {
        "notice": "The current rate of valor to USDC"
      },
      "vestingLinearPeriod()": {
        "notice": "Period after lock period, during which vesting $ORDER amount linearly increase from 50% to 100%"
      },
      "vestingLockPeriod()": {
        "notice": "Lock period where user can not withdraw vested $ORDER"
      }
    },
    "version": 1
  },
  "storageLayout": {
    "storage": [
      {
        "astId": 11367,
        "contract": "contracts/test/OmnichainLedgerTestV1.sol:OmnichainLedgerTestV1",
        "label": "srcChainIdToEventId",
        "offset": 0,
        "slot": "0",
        "type": "t_mapping(t_uint256,t_uint256)"
      },
      {
        "astId": 11560,
        "contract": "contracts/test/OmnichainLedgerTestV1.sol:OmnichainLedgerTestV1",
        "label": "activeDistributions",
        "offset": 0,
        "slot": "1",
        "type": "t_mapping(t_uint32,t_struct(Distribution)11554_storage)"
      },
      {
        "astId": 11566,
        "contract": "contracts/test/OmnichainLedgerTestV1.sol:OmnichainLedgerTestV1",
        "label": "proposedRoots",
        "offset": 0,
        "slot": "2",
        "type": "t_mapping(t_uint32,t_struct(MerkleTree)11545_storage)"
      },
      {
        "astId": 11573,
        "contract": "contracts/test/OmnichainLedgerTestV1.sol:OmnichainLedgerTestV1",
        "label": "claimedAmounts",
        "offset": 0,
        "slot": "3",
        "type": "t_mapping(t_uint32,t_mapping(t_address,t_uint256))"
      },
      {
        "astId": 14623,
        "contract": "contracts/test/OmnichainLedgerTestV1.sol:OmnichainLedgerTestV1",
        "label": "valorPerSecond",
        "offset": 0,
        "slot": "4",
        "type": "t_uint256"
      },
      {
        "astId": 14626,
        "contract": "contracts/test/OmnichainLedgerTestV1.sol:OmnichainLedgerTestV1",
        "label": "maximumValorEmission",
        "offset": 0,
        "slot": "5",
        "type": "t_uint256"
      },
      {
        "astId": 14629,
        "contract": "contracts/test/OmnichainLedgerTestV1.sol:OmnichainLedgerTestV1",
        "label": "totalValorEmitted",
        "offset": 0,
        "slot": "6",
        "type": "t_uint256"
      },
      {
        "astId": 14632,
        "contract": "contracts/test/OmnichainLedgerTestV1.sol:OmnichainLedgerTestV1",
        "label": "totalValorAmount",
        "offset": 0,
        "slot": "7",
        "type": "t_uint256"
      },
      {
        "astId": 14635,
        "contract": "contracts/test/OmnichainLedgerTestV1.sol:OmnichainLedgerTestV1",
        "label": "lastUsdcNetFeeRevenueUpdateTimestamp",
        "offset": 0,
        "slot": "8",
        "type": "t_uint256"
      },
      {
        "astId": 14638,
        "contract": "contracts/test/OmnichainLedgerTestV1.sol:OmnichainLedgerTestV1",
        "label": "totalUsdcInTreasure",
        "offset": 0,
        "slot": "9",
        "type": "t_uint256"
      },
      {
        "astId": 14641,
        "contract": "contracts/test/OmnichainLedgerTestV1.sol:OmnichainLedgerTestV1",
        "label": "valorToUsdcRateScaled",
        "offset": 0,
        "slot": "10",
        "type": "t_uint256"
      },
      {
        "astId": 14646,
        "contract": "contracts/test/OmnichainLedgerTestV1.sol:OmnichainLedgerTestV1",
        "label": "collectedValor",
        "offset": 0,
        "slot": "11",
        "type": "t_mapping(t_address,t_uint256)"
      },
      {
        "astId": 14649,
        "contract": "contracts/test/OmnichainLedgerTestV1.sol:OmnichainLedgerTestV1",
        "label": "usdcUpdaterAddress",
        "offset": 0,
        "slot": "12",
        "type": "t_address"
      },
      {
        "astId": 13780,
        "contract": "contracts/test/OmnichainLedgerTestV1.sol:OmnichainLedgerTestV1",
        "label": "userStakingInfo",
        "offset": 0,
        "slot": "13",
        "type": "t_mapping(t_address,t_struct(StakingInfo)13775_storage)"
      },
      {
        "astId": 13790,
        "contract": "contracts/test/OmnichainLedgerTestV1.sol:OmnichainLedgerTestV1",
        "label": "userPendingUnstake",
        "offset": 0,
        "slot": "14",
        "type": "t_mapping(t_address,t_struct(PendingUnstake)13785_storage)"
      },
      {
        "astId": 13793,
        "contract": "contracts/test/OmnichainLedgerTestV1.sol:OmnichainLedgerTestV1",
        "label": "totalStakedAmount",
        "offset": 0,
        "slot": "15",
        "type": "t_uint256"
      },
      {
        "astId": 13796,
        "contract": "contracts/test/OmnichainLedgerTestV1.sol:OmnichainLedgerTestV1",
        "label": "lastValorUpdateTimestamp",
        "offset": 0,
        "slot": "16",
        "type": "t_uint256"
      },
      {
        "astId": 13799,
        "contract": "contracts/test/OmnichainLedgerTestV1.sol:OmnichainLedgerTestV1",
        "label": "accValorPerShareScaled",
        "offset": 0,
        "slot": "17",
        "type": "t_uint256"
      },
      {
        "astId": 13802,
        "contract": "contracts/test/OmnichainLedgerTestV1.sol:OmnichainLedgerTestV1",
        "label": "unstakeLockPeriod",
        "offset": 0,
        "slot": "18",
        "type": "t_uint256"
      },
      {
        "astId": 12767,
        "contract": "contracts/test/OmnichainLedgerTestV1.sol:OmnichainLedgerTestV1",
        "label": "batches",
        "offset": 0,
        "slot": "19",
        "type": "t_array(t_struct(Batch)12763_storage)dyn_storage"
      },
      {
        "astId": 12770,
        "contract": "contracts/test/OmnichainLedgerTestV1.sol:OmnichainLedgerTestV1",
        "label": "startTimestamp",
        "offset": 0,
        "slot": "20",
        "type": "t_uint256"
      },
      {
        "astId": 12791,
        "contract": "contracts/test/OmnichainLedgerTestV1.sol:OmnichainLedgerTestV1",
        "label": "userRevenue",
        "offset": 0,
        "slot": "21",
        "type": "t_mapping(t_address,t_struct(UserRevenueRecord)12786_storage)"
      },
      {
        "astId": 12794,
        "contract": "contracts/test/OmnichainLedgerTestV1.sol:OmnichainLedgerTestV1",
        "label": "batchDuration",
        "offset": 0,
        "slot": "22",
        "type": "t_uint256"
      },
      {
        "astId": 14860,
        "contract": "contracts/test/OmnichainLedgerTestV1.sol:OmnichainLedgerTestV1",
        "label": "userVestingInfos",
        "offset": 0,
        "slot": "23",
        "type": "t_mapping(t_address,t_struct(UserVestingInfo)14855_storage)"
      },
      {
        "astId": 14863,
        "contract": "contracts/test/OmnichainLedgerTestV1.sol:OmnichainLedgerTestV1",
        "label": "vestingLockPeriod",
        "offset": 0,
        "slot": "24",
        "type": "t_uint256"
      },
      {
        "astId": 14866,
        "contract": "contracts/test/OmnichainLedgerTestV1.sol:OmnichainLedgerTestV1",
        "label": "vestingLinearPeriod",
        "offset": 0,
        "slot": "25",
        "type": "t_uint256"
      },
      {
        "astId": 14869,
        "contract": "contracts/test/OmnichainLedgerTestV1.sol:OmnichainLedgerTestV1",
        "label": "orderCollector",
        "offset": 0,
        "slot": "26",
        "type": "t_address"
      },
      {
        "astId": 10004,
        "contract": "contracts/test/OmnichainLedgerTestV1.sol:OmnichainLedgerTestV1",
        "label": "occAdaptor",
        "offset": 0,
        "slot": "27",
        "type": "t_address"
      },
      {
        "astId": 10006,
        "contract": "contracts/test/OmnichainLedgerTestV1.sol:OmnichainLedgerTestV1",
        "label": "orderTokenOft",
        "offset": 0,
        "slot": "28",
        "type": "t_address"
      }
    ],
    "types": {
      "t_address": {
        "encoding": "inplace",
        "label": "address",
        "numberOfBytes": "20"
      },
      "t_array(t_struct(Batch)12763_storage)dyn_storage": {
        "base": "t_struct(Batch)12763_storage",
        "encoding": "dynamic_array",
        "label": "struct Revenue.Batch[]",
        "numberOfBytes": "32"
      },
      "t_array(t_struct(BatchedRedemptionRequest)12777_storage)dyn_storage": {
        "base": "t_struct(BatchedRedemptionRequest)12777_storage",
        "encoding": "dynamic_array",
        "label": "struct Revenue.BatchedRedemptionRequest[]",
        "numberOfBytes": "32"
      },
      "t_array(t_struct(ChainedAmount)12748_storage)dyn_storage": {
        "base": "t_struct(ChainedAmount)12748_storage",
        "encoding": "dynamic_array",
        "label": "struct Revenue.ChainedAmount[]",
        "numberOfBytes": "32"
      },
      "t_array(t_struct(VestingRequest)14848_storage)dyn_storage": {
        "base": "t_struct(VestingRequest)14848_storage",
        "encoding": "dynamic_array",
        "label": "struct Vesting.VestingRequest[]",
        "numberOfBytes": "32"
      },
      "t_array(t_uint256)2_storage": {
        "base": "t_uint256",
        "encoding": "inplace",
        "label": "uint256[2]",
        "numberOfBytes": "64"
      },
      "t_bool": {
        "encoding": "inplace",
        "label": "bool",
        "numberOfBytes": "1"
      },
      "t_bytes32": {
        "encoding": "inplace",
        "label": "bytes32",
        "numberOfBytes": "32"
      },
      "t_bytes_storage": {
        "encoding": "bytes",
        "label": "bytes",
        "numberOfBytes": "32"
      },
      "t_enum(LedgerToken)12684": {
        "encoding": "inplace",
        "label": "enum LedgerToken",
        "numberOfBytes": "1"
      },
      "t_mapping(t_address,t_struct(PendingUnstake)13785_storage)": {
        "encoding": "mapping",
        "key": "t_address",
        "label": "mapping(address => struct Staking.PendingUnstake)",
        "numberOfBytes": "32",
        "value": "t_struct(PendingUnstake)13785_storage"
      },
      "t_mapping(t_address,t_struct(StakingInfo)13775_storage)": {
        "encoding": "mapping",
        "key": "t_address",
        "label": "mapping(address => struct Staking.StakingInfo)",
        "numberOfBytes": "32",
        "value": "t_struct(StakingInfo)13775_storage"
      },
      "t_mapping(t_address,t_struct(UserRevenueRecord)12786_storage)": {
        "encoding": "mapping",
        "key": "t_address",
        "label": "mapping(address => struct Revenue.UserRevenueRecord)",
        "numberOfBytes": "32",
        "value": "t_struct(UserRevenueRecord)12786_storage"
      },
      "t_mapping(t_address,t_struct(UserVestingInfo)14855_storage)": {
        "encoding": "mapping",
        "key": "t_address",
        "label": "mapping(address => struct Vesting.UserVestingInfo)",
        "numberOfBytes": "32",
        "value": "t_struct(UserVestingInfo)14855_storage"
      },
      "t_mapping(t_address,t_uint256)": {
        "encoding": "mapping",
        "key": "t_address",
        "label": "mapping(address => uint256)",
        "numberOfBytes": "32",
        "value": "t_uint256"
      },
      "t_mapping(t_uint256,t_uint256)": {
        "encoding": "mapping",
        "key": "t_uint256",
        "label": "mapping(uint256 => uint256)",
        "numberOfBytes": "32",
        "value": "t_uint256"
      },
      "t_mapping(t_uint32,t_mapping(t_address,t_uint256))": {
        "encoding": "mapping",
        "key": "t_uint32",
        "label": "mapping(uint32 => mapping(address => uint256))",
        "numberOfBytes": "32",
        "value": "t_mapping(t_address,t_uint256)"
      },
      "t_mapping(t_uint32,t_struct(Distribution)11554_storage)": {
        "encoding": "mapping",
        "key": "t_uint32",
        "label": "mapping(uint32 => struct MerkleDistributor.Distribution)",
        "numberOfBytes": "32",
        "value": "t_struct(Distribution)11554_storage"
      },
      "t_mapping(t_uint32,t_struct(MerkleTree)11545_storage)": {
        "encoding": "mapping",
        "key": "t_uint32",
        "label": "mapping(uint32 => struct MerkleDistributor.MerkleTree)",
        "numberOfBytes": "32",
        "value": "t_struct(MerkleTree)11545_storage"
      },
      "t_struct(Batch)12763_storage": {
        "encoding": "inplace",
        "label": "struct Revenue.Batch",
        "members": [
          {
            "astId": 12751,
            "contract": "contracts/test/OmnichainLedgerTestV1.sol:OmnichainLedgerTestV1",
            "label": "claimable",
            "offset": 0,
            "slot": "0",
            "type": "t_bool"
          },
          {
            "astId": 12754,
            "contract": "contracts/test/OmnichainLedgerTestV1.sol:OmnichainLedgerTestV1",
            "label": "redeemedValorAmount",
            "offset": 0,
            "slot": "1",
            "type": "t_uint256"
          },
          {
            "astId": 12757,
            "contract": "contracts/test/OmnichainLedgerTestV1.sol:OmnichainLedgerTestV1",
            "label": "fixedValorToUsdcRateScaled",
            "offset": 0,
            "slot": "2",
            "type": "t_uint256"
          },
          {
            "astId": 12762,
            "contract": "contracts/test/OmnichainLedgerTestV1.sol:OmnichainLedgerTestV1",
            "label": "chainedValorAmount",
            "offset": 0,
            "slot": "3",
            "type": "t_array(t_struct(ChainedAmount)12748_storage)dyn_storage"
          }
        ],
        "numberOfBytes": "128"
      },
      "t_struct(BatchedRedemptionRequest)12777_storage": {
        "encoding": "inplace",
        "label": "struct Revenue.BatchedRedemptionRequest",
        "members": [
          {
            "astId": 12772,
            "contract": "contracts/test/OmnichainLedgerTestV1.sol:OmnichainLedgerTestV1",
            "label": "batchId",
            "offset": 0,
            "slot": "0",
            "type": "t_uint16"
          },
          {
            "astId": 12776,
            "contract": "contracts/test/OmnichainLedgerTestV1.sol:OmnichainLedgerTestV1",
            "label": "chainedValorAmount",
            "offset": 0,
            "slot": "1",
            "type": "t_array(t_struct(ChainedAmount)12748_storage)dyn_storage"
          }
        ],
        "numberOfBytes": "64"
      },
      "t_struct(ChainedAmount)12748_storage": {
        "encoding": "inplace",
        "label": "struct Revenue.ChainedAmount",
        "members": [
          {
            "astId": 12745,
            "contract": "contracts/test/OmnichainLedgerTestV1.sol:OmnichainLedgerTestV1",
            "label": "chainId",
            "offset": 0,
            "slot": "0",
            "type": "t_uint256"
          },
          {
            "astId": 12747,
            "contract": "contracts/test/OmnichainLedgerTestV1.sol:OmnichainLedgerTestV1",
            "label": "amount",
            "offset": 0,
            "slot": "1",
            "type": "t_uint256"
          }
        ],
        "numberOfBytes": "64"
      },
      "t_struct(Distribution)11554_storage": {
        "encoding": "inplace",
        "label": "struct MerkleDistributor.Distribution",
        "members": [
          {
            "astId": 11549,
            "contract": "contracts/test/OmnichainLedgerTestV1.sol:OmnichainLedgerTestV1",
            "label": "token",
            "offset": 0,
            "slot": "0",
            "type": "t_enum(LedgerToken)12684"
          },
          {
            "astId": 11553,
            "contract": "contracts/test/OmnichainLedgerTestV1.sol:OmnichainLedgerTestV1",
            "label": "merkleTree",
            "offset": 0,
            "slot": "1",
            "type": "t_struct(MerkleTree)11545_storage"
          }
        ],
        "numberOfBytes": "128"
      },
      "t_struct(MerkleTree)11545_storage": {
        "encoding": "inplace",
        "label": "struct MerkleDistributor.MerkleTree",
        "members": [
          {
            "astId": 11538,
            "contract": "contracts/test/OmnichainLedgerTestV1.sol:OmnichainLedgerTestV1",
            "label": "merkleRoot",
            "offset": 0,
            "slot": "0",
            "type": "t_bytes32"
          },
          {
            "astId": 11541,
            "contract": "contracts/test/OmnichainLedgerTestV1.sol:OmnichainLedgerTestV1",
            "label": "startTimestamp",
            "offset": 0,
            "slot": "1",
            "type": "t_uint256"
          },
          {
            "astId": 11544,
            "contract": "contracts/test/OmnichainLedgerTestV1.sol:OmnichainLedgerTestV1",
            "label": "ipfsCid",
            "offset": 0,
            "slot": "2",
            "type": "t_bytes_storage"
          }
        ],
        "numberOfBytes": "96"
      },
      "t_struct(PendingUnstake)13785_storage": {
        "encoding": "inplace",
        "label": "struct Staking.PendingUnstake",
        "members": [
          {
            "astId": 13782,
            "contract": "contracts/test/OmnichainLedgerTestV1.sol:OmnichainLedgerTestV1",
            "label": "balanceOrder",
            "offset": 0,
            "slot": "0",
            "type": "t_uint256"
          },
          {
            "astId": 13784,
            "contract": "contracts/test/OmnichainLedgerTestV1.sol:OmnichainLedgerTestV1",
            "label": "unlockTimestamp",
            "offset": 0,
            "slot": "1",
            "type": "t_uint256"
          }
        ],
        "numberOfBytes": "64"
      },
      "t_struct(StakingInfo)13775_storage": {
        "encoding": "inplace",
        "label": "struct Staking.StakingInfo",
        "members": [
          {
            "astId": 13772,
            "contract": "contracts/test/OmnichainLedgerTestV1.sol:OmnichainLedgerTestV1",
            "label": "balance",
            "offset": 0,
            "slot": "0",
            "type": "t_array(t_uint256)2_storage"
          },
          {
            "astId": 13774,
            "contract": "contracts/test/OmnichainLedgerTestV1.sol:OmnichainLedgerTestV1",
            "label": "valorDebt",
            "offset": 0,
            "slot": "2",
            "type": "t_uint256"
          }
        ],
        "numberOfBytes": "96"
      },
      "t_struct(UserRevenueRecord)12786_storage": {
        "encoding": "inplace",
        "label": "struct Revenue.UserRevenueRecord",
        "members": [
          {
            "astId": 12781,
            "contract": "contracts/test/OmnichainLedgerTestV1.sol:OmnichainLedgerTestV1",
            "label": "chainedUsdcRevenue",
            "offset": 0,
            "slot": "0",
            "type": "t_mapping(t_uint256,t_uint256)"
          },
          {
            "astId": 12785,
            "contract": "contracts/test/OmnichainLedgerTestV1.sol:OmnichainLedgerTestV1",
            "label": "requests",
            "offset": 0,
            "slot": "1",
            "type": "t_array(t_struct(BatchedRedemptionRequest)12777_storage)dyn_storage"
          }
        ],
        "numberOfBytes": "64"
      },
      "t_struct(UserVestingInfo)14855_storage": {
        "encoding": "inplace",
        "label": "struct Vesting.UserVestingInfo",
        "members": [
          {
            "astId": 14850,
            "contract": "contracts/test/OmnichainLedgerTestV1.sol:OmnichainLedgerTestV1",
            "label": "currentRequestId",
            "offset": 0,
            "slot": "0",
            "type": "t_uint256"
          },
          {
            "astId": 14854,
            "contract": "contracts/test/OmnichainLedgerTestV1.sol:OmnichainLedgerTestV1",
            "label": "requests",
            "offset": 0,
            "slot": "1",
            "type": "t_array(t_struct(VestingRequest)14848_storage)dyn_storage"
          }
        ],
        "numberOfBytes": "64"
      },
      "t_struct(VestingRequest)14848_storage": {
        "encoding": "inplace",
        "label": "struct Vesting.VestingRequest",
        "members": [
          {
            "astId": 14843,
            "contract": "contracts/test/OmnichainLedgerTestV1.sol:OmnichainLedgerTestV1",
            "label": "requestId",
            "offset": 0,
            "slot": "0",
            "type": "t_uint256"
          },
          {
            "astId": 14845,
            "contract": "contracts/test/OmnichainLedgerTestV1.sol:OmnichainLedgerTestV1",
            "label": "esOrderAmount",
            "offset": 0,
            "slot": "1",
            "type": "t_uint256"
          },
          {
            "astId": 14847,
            "contract": "contracts/test/OmnichainLedgerTestV1.sol:OmnichainLedgerTestV1",
            "label": "unlockTimestamp",
            "offset": 0,
            "slot": "2",
            "type": "t_uint256"
          }
        ],
        "numberOfBytes": "96"
      },
      "t_uint16": {
        "encoding": "inplace",
        "label": "uint16",
        "numberOfBytes": "2"
      },
      "t_uint256": {
        "encoding": "inplace",
        "label": "uint256",
        "numberOfBytes": "32"
      },
      "t_uint32": {
        "encoding": "inplace",
        "label": "uint32",
        "numberOfBytes": "4"
      }
    }
  }
}